:020000040800F2
:10000000E0220020C101000813220008CB1B0008D9
:10001000E71F0008A10500082359000800000000A0
:10002000000000000000000000000000433D000848
:100030002515000800000000693A0008D9010008F1
:10004000DB010008DB010008DB010008DB01000820
:10005000DB010008DB010008DB010008DB01000810
:10006000DB010008DB010008DB010008DB01000800
:10007000DB010008DB010008DB010008DB010008F0
:10008000DB010008DB010008DB010008E9050008CE
:10009000A5050008DB010008DB010008DB01000802
:1000A000DB010008DB010008DB010008DB010008C0
:1000B000513F0008DB010008DB010008DB010008FC
:1000C000DB010008DB010008DB010008DB010008A0
:1000D000DB010008D545000849460008E146000854
:1000E000DB010008DB010008DB010008DB01000880
:1000F000DB010008DB010008DB010008DB01000870
:10010000DB010008DB010008DB010008DB0100085F
:10011000DB010008DB0100087D3F0008DB0100086F
:10012000DB010008DB010008DB010008DB0100083F
:10013000DB010008DB010008DB01000851060008B4
:100140000D060008DB010008DB010008DB010008E8
:10015000DB010008DB010008DB010008794700082B
:10016000DB010008DB010008DB010008DB010008FF
:10017000DB010008DB010008DB01000800000000D3
:10018000DB010008DB010008DB010008DB010008DF
:10019000DB010008DB010008DB010008DB010008CF
:1001A0000000000000000000DB010008DFF80CD0B8
:1001B00000F03CF800480047A15B0008E022002066
:1001C0000648804706480047FEE7FEE7FEE7FEE7F1
:1001D000FEE7FEE7FEE7FEE7FEE7FEE7F53E000886
:1001E000AD01000840EA01039B0703D009E008C9FC
:1001F000121F08C0042AFAD203E011F8013B00F8EC
:10020000013B521EF9D27047D2B201E000F8012B37
:10021000491EFBD270470022F6E710B513460A4686
:1002200004461946FFF7F0FF204610BD064C074D67
:1002300006E0E06840F0010394E8070098471034B6
:10024000AC42F6D3FFF7B6FF94600008B460000834
:1002500070B58C1810F8015B15F0070301D110F888
:10026000013B2A1106D110F8012B03E010F8016BB5
:1002700001F8016B5B1EF9D12B0705D40023521E38
:100280000DD401F8013BFAE710F8013BCB1A921CA0
:1002900003E013F8015B01F8015B521EF9D5A1429E
:1002A000D8D3002070BD704770B504462DED028B89
:1002B000B0F900001B4E00EE100A9FED1B8A96ED70
:1002C000161AB8EEC00AF1EE410A20EE080A05F04F
:1002D00048FC164D85ED010AB4F9020096ED171A97
:1002E00000EE100AF1EE410AB8EEC00A20EE080A4C
:1002F00005F037FC85ED020AB4F9040096ED181AF2
:1003000000EE100AF1EE410AB8EEC00A20EE080A2B
:1003100005F027FC85ED030AE0682860BDEC028B40
:1003200070BD0000080000206F12833A18040020FE
:1003300038B50020074C034602460146009020468F
:1003400000F00EFC2046BDE838400022114601F0C6
:10035000CBB900000064004008B501211E4801F03F
:100360008CF902001D484FF4804102D001F0F9FAE7
:1003700001E001F0F8FA0221174801F07EF90100CE
:1003800017484FF0800102D001F0EBFA01E001F0D4
:10039000EAFA114890ED040ABDEEC00A10EE101AF8
:1003A00009B2009190ED030ABDEEC00A10EE101ADA
:1003B00090ED020A0BB2BDEEC00A10EE101A90EDDD
:1003C000010A0AB2BDEEC00A10EE100A01B20548D9
:1003D00000F0C6FB08BD00004C06002000140240DF
:1003E000001002400064004010B501F06FFC00F006
:1003F000FFFCFFF79DFF00F0D5FD05F0C3FA01F00B
:1004000027FC05F009FB00F04DFEBDE8104005F0AB
:100410005FBA10B505F0D2FA01F020FC05F004FB3C
:1004200000F04AFEBDE8104005F059BA10B54FF48F
:10043000A06001F02FFF00F01DF800F0ABF800F015
:10044000A1FF01F0C9FC03F011FB03F0F7FB04F07E
:1004500020F804F02FF800F0E1FB00F019FCBDE8F3
:1004600010404FF48041014801F07BBA0014024073
:1004700000F038B83EB54E200821CDE90010154CEB
:1004800015490290B7EE000A4FF416532246481C55
:1004900004F0BEF9012240F22551204605F0A1F9F1
:1004A00002221146262001F0B5FE0C49A5152A4668
:1004B000A1F1280001F07EF809492A46A1F58A70C9
:1004C00001F078F803B02046BDE83040012105F086
:1004D0008FB8000000440040050C0240480800208E
:1004E00048090020022005F045BA000070B50D460D
:1004F0000646002405E000BF00F006F83055641CF5
:10050000E4B2AC42F8D370BD38B500208DF80000DD
:100510000C4801F053F80028FAD10B4D40F2255455
:1005200000222146284605F05CF90122694605486B
:1005300001F066F801222146284605F052F99DF89F
:10054000000038BD2008002000440040014801F0B0
:100550002FB800002008002031B50C4801F034F815
:100560000028FAD10A4D40F227740022214628467D
:1005700005F037F901226946044801F05BF80122D1
:100580002146284605F02DF938BD0000340800202A
:1005900000440040014801F06BB900000A0C024021
:1005A000FEE7000010B50E4C86B00221204600F098
:1005B0006DF9002811D00421204600F073F8094994
:1005C000204600F057F86A460021204600F02EFA37
:1005D0000DF10B01009800F01EFB06B010BD0000ED
:1005E000006400400800003210B5074C012120468D
:1005F00000F04CF9002805D02046BDE8104001214C
:1006000000F050B810BD00000064004010B50E4C62
:1006100086B00221204600F039F9002811D00221CD
:10062000204600F03FF80949204600F023F86A46CA
:100630000021204600F0FAF90DF10B01009800F0BE
:1006400025FB06B010BD0000006800400800003225
:1006500010B5074C0121204600F018F9002805D0FC
:100660002046BDE81040012100F01CB810BD00007C
:10067000006800400A4A914202D10021816170471E
:10068000C1F313028B0101D5C26070474B0101D544
:1006900002617047090101D582607047426070476E
:1006A0007000F03030B5082310240422B1F5007F2B
:1006B0001DD010DC202929D007DC012921D00429F4
:1006C00022D0082900D1C46030BD402920D0B1F526
:1006D000807FF9D10BE00025B1F5004F06D008DC92
:1006E000B1F5806F03D0B1F5006FEDD18561426047
:1006F00030BDB1F5803F0DD0B1F5003FF8D1446079
:1007000030BD0549816030BDC36030BD036130BD7F
:10071000046130BD436030BD010101002DE9FE439D
:100720000F460446DDE90A89154916481D46164656
:100730008C4202D10121480603E0844203D1012109
:10074000880603F0C5F900218DF804808DF80810A3
:100750008DF805908DF80A10ADF800708DF8061030
:1007600001208DF802608DF807108DF80B008DF8D0
:1007700003506946204600F0E5F8BDE8FE8300001E
:100780000064004000680040F0B5827A0121914089
:100790002E4A136843F0010313602C4B1C331C6872
:1007A0008C431C60294D067B294C0C35A6B92E685C
:1007B0008E432E604688C78846EA0746877A04EB50
:1007C000C707C7F840660688878846EA0746877ADB
:1007D00004EBC707C7F84466067B012E12D12E68CA
:1007E0000E432E60867A056804EBC6064FEA35454F
:1007F000C6F84056867A456804EBC6044FEA35458C
:10080000C4F84456114CC57A241D002D256806D025
:100810000D4325600D4C0589143415B104E08D435A
:10082000F7E725688D4325600589012D02D12568EC
:100830000D432560407B012802D1186808431860E9
:10084000106820F001001060F0BD0000006600405C
:10085000006000407FB5DDE90845ADF80000ADF867
:1008600008408DF80A5000208DF80B0001208DF80B
:100870000C00ADF804208DF80D00ADF80210ADF8B5
:1008800006306846FFF780FF7FBD0000024600206B
:1008900053690B424AD0B1F5807F3BD013DC082965
:1008A0002ED007DC012926D0022927D004293DD1EA
:1008B000D0682BE0102925D0202926D0402935D119
:1008C0001069102130E0B1F5004F2BD00BDCB1F5F1
:1008D000007F22D0B1F5806F22D0B1F5006F25D115
:1008E0009069702120E0B1F5803F11D0B1F5003F53
:1008F0001CD15068E5E790680D4915E0D06802E02A
:10090000D068DEE7106903210EE0106908210BE0D2
:100910005068FBE79069012106E09069022103E03D
:10092000906900E05068042100F02CBB7047000083
:1009300001010100002A426901D00A4300E08A4314
:100940004261704710B50368002223F00203036080
:10095000036843F0010303604FF6FF7300E0521C8D
:100960004468E40701D19A42F9D14268D2073ED0E7
:100970008A79012A02683CD022F080020260CA799A
:10098000012A026838D022F0400202600A7A012A65
:10099000026834D022F0200202604A7A012A0268FA
:1009A00030D022F0100202608A7A012A02682CD02C
:1009B00022F008020260CA7A012A026828D022F0D6
:1009C000040202608A78CC78920742EA04620C79C9
:1009D00042EA04424C79098842EA0452491E0A4319
:1009E000C261016821F001010160002114E00020D2
:1009F00010BD42F08002C1E742F04002C5E742F07C
:100A00002002C9E742F01002CDE742F00802D1E728
:100A100042F00402D5E7491C4268D20701D099424E
:100A2000F9D14068C007E2D1012010BD10B500EB3C
:100A30000113D3F8B04114F004041472D3F8B04198
:100A400034D0E408C2F80440D3F8B04104F0020402
:100A50005472D3F8B44104F00F049472D3F8B44143
:100A6000240AD474D3F8B841D472D3F8B841240A14
:100A70001473D3F8B841240C5473D3F8B841240E3E
:100A80009473D3F8BC41D473D3F8BC41240A1474D2
:100A9000D3F8BC41240C5474D3F8BC311B0E9374AE
:100AA00039B1016941F02001016110BD640D14608C
:100AB000CAE7C16841F02001C16010BD30B50246EF
:100AC000002093685B0108D49068000101D50120E3
:100AD00003E09068C00037D5022002EB0012D2F884
:100AE000803103F00103C2F880310B7A73B3D2F87E
:100AF00080414D681C434B7A43EAC5031C43C2F84E
:100B000080418B7A03F00F038B72D2F8843123F08B
:100B10000F03C2F88431D2F884318C7A2343C2F8AF
:100B20008431CB7ACC6843EA0423C2F88831CB7B8A
:100B3000096943EA0121C2F88C11D2F8801141F011
:100B40000101C2F8801130BD042030BDD2F88031DF
:100B50004C7A23430C8843EA4453C2F88031D0E7EF
:100B600030B585B04FF40075009500258DF808501C
:100B70008DF8095008258DF80A50089C0D0A8DF84B
:100B80000C10110A8DF80D108DF80E20190A8DF831
:100B90000F108DF81030210A8DF811108DF80B50C0
:100BA0008DF812406946FFF789FF05B030BD00009F
:100BB00010B508B102290CD84FF6FF7010BD00BF68
:100BC00010F8014B5440E4B233F8144084EA122286
:100BD00000E0024B491EF3D2104610BD845E0008AF
:100BE00030B50C46050011D0022C0FD9A11EFFF71D
:100BF000DFFF2919C2B211F8023C9A4206D111F85E
:100C0000011CB1EB102F01D1012030BD002030BDFF
:100C100080EC030A704700F08BB800001CB5092176
:100C2000184800F085FD17480921401C00F080FDA0
:100C300001221146142001F0EDFA01221146132081
:100C400001F0E8FA032108200F4C0023CDE9000150
:100C50001A462046FFF762FD002100910B460A4626
:100C600008460191FFF7F6FD012202212046FFF719
:100C700061FE02B020460122BDE810401146FFF798
:100C800059BE0000000C02400064004000F050B863
:100C90001CB50921184800F04BFD17480921401CDC
:100CA00000F046FD02220121402001F0B3FA0122AA
:100CB00002213F2001F0AEFA032108200F4C00234F
:100CC000CDE900011A462046FFF728FD00200E213D
:100CD000CDE90001034602460146FFF7BBFD0122B4
:100CE00002212046FFF726FE02B020460122BDE881
:100CF00010401146FFF71EBE0C0402400068004081
:100D000070B50A4D002400BF04EBC40000EB4000A6
:100D100005EB800001F01EFA641CE4B2062CF3D34C
:100D2000BDE8704001482C3804F0F8BE9001002066
:100D300070B50D460446B0F5017F32D00EDCA4F547
:100D4000007001381DD0012823D0022843D108208B
:100D500004F010FE2A4621461F4838E0A4F5007032
:100D6000053826D001282CD0B0F5FE7F33D10520E0
:100D700004F000FE2A462146BDE87040174804F002
:100D800081BE062004F0F6FD14482A4621462C3088
:100D90001DE0072004F0EEFD0F482A4621466C387E
:100DA00015E0092004F0E6FD0B482A4621466C3088
:100DB0000DE00A2004F0DEFD07482A462146D8301F
:100DC00005E00B2004F0D6FD05482A462146BDE883
:100DD000704001F009B970BD680200206401002074
:100DE000AC0300200146014800F067BC0C00002065
:100DF00010B5A6B0942233496846FFF7F3F932489C
:100E000000F064F80120FFF7EDFF28B92E48182202
:100E1000083002A9FFF7E6F90220FFF7E3FF2A4CAA
:100E200030B908AB93E8070004F1200383E807001A
:100E30000420FFF7D7FF18B9DDE90B01C4E90B0166
:100E40000820FFF7CFFF28B91F48202234300DA912
:100E5000FFF7C8F91020FFF7C5FF18B9BDF8540017
:100E6000A4F854002020FFF7BDFF28B9164814222B
:100E7000583016A9FFF7B6F94020FFF7B3FF38B98D
:100E80000DF16C0C9CE80F0004F16C0C8CE80F0069
:100E90008020FFF7A7FF28B91FAB7C3493E8070039
:100EA00084E807004FF48070FFF79CFF002806D10C
:100EB00022AC054894E80E00883080E80E0026B089
:100EC00010BD0000985C000808000020942100F08C
:100ED00003BC000070B5274C274D28482DED028B30
:100EE000D4ED050A95ED040A01F096FAB0EE408AB9
:100EF000234802F005FF214E28EE000A143E06F1B9
:100F00003C0086ED010AD4ED060A95ED050A01F0D4
:100F100083FA1B48B0EE408A083002F0F1FE28EE5A
:100F2000000A06F1640086ED020AD4ED070A95ED89
:100F3000060A01F071FA1248B0EE408A103002F051
:100F4000DFFE28EE000A06F18C0086ED030AD4EDE0
:100F5000080A95ED070A01F05FFA0948B0EE408AE9
:100F6000183002F0CDFE28EE000A86ED040ABDEC32
:100F7000028B70BDD40700201804002060060020FA
:100F8000A0000020024600200A4200D00120704745
:100F900003484FF47A710068B0FBF1F0704700002D
:100FA0009C00002001490020086070479C00002040
:100FB00002480168491C0160704700009C00002045
:100FC00010B52DED028B00F06DFA03210F4800F0F3
:100FD0004EFB9FED0F8A0D48B0EE481AF0EE480A1E
:100FE000B0EE480A001DFFF713FEF0EE481AB0EE0F
:100FF000481AF0EE480AB0EE480ABDEC028B0348EE
:10100000BDE81040103000F0FFBE000018040020C2
:101010000000000021482249D0ED010A91ED160A96
:10102000F4EEC00AF1EE10FA08DCB1EE400AF4EE7C
:10103000C00AF1EE10FA01D3B0EE600A80ED010AA9
:1010400090ED020AD1ED170AB4EEE00AF1EE10FAC3
:1010500006DCF1EE600AB4EEE00AF1EE10FA01D21D
:10106000B0EE600A80ED020AD0ED030A91ED180A95
:10107000F4EEC00AF1EE10FA08DCB1EE400AF4EE2C
:10108000C00AF1EE10FA01D3B0EE600A034980ED18
:10109000030A1031001D00F0F5BE00001804002006
:1010A0000800002003494FF4807201F5007000F041
:1010B00081BA00003804002038B522484FF480710E
:1010C000044600F011FE024621461F4800F0B2FA25
:1010D0001E4A1F491C4801F067F820B1BDE838409E
:1010E0001A4804F03DBC194A1A490A3214461648F7
:1010F00001F05AF820B12046BDE8384004F026BC83
:10110000124A1549104801F04FF820B1BDE83840A7
:101110000E4804F011BC114A11490B4801F044F883
:1011200020B1BDE838400D4804F0FCBB064800F093
:1011300045FA002804D101226946034800F060FA0C
:1011400038BD000038050020380600203C01002092
:1011500084600008886000088C600008540100204A
:101160009060000810B5FFF72BFF01F09DF82748AD
:1011700001F0C6F92548283001F0C2F92348503063
:1011800001F0BEF92148783001F0BAF9204802F0A8
:10119000CDFD1F48083002F0C9FD1D48103002F097
:1011A000C5FD1B48183002F0C1FD184801F0B0F928
:1011B0001648283001F0ACF91448503001F0A8F975
:1011C0001248783001F0A4F9114802F0B7FD104838
:1011D000083002F0B3FD0E48103002F0AFFD0C48AD
:1011E000183002F0ABFD09480321143800F03FFA33
:1011F0009FED080A0548BDE81040F0EE401AB0EE39
:10120000401AF0EE400A103800F0FEBD60060020E3
:10121000A00000200000000010B5FFF7FBFE01F069
:101220008FF8054803220168044800F022FABDE85F
:101230001040FFF74FBE0000180400204C060020AD
:1012400070B50D46044602F0A5FCA91D04F10A0084
:10125000BDE8704000F09CBC10B5044602F0C2FC32
:1012600004F10A00BDE8104000F0A1BC00290168AB
:1012700002D041F0010101E021F00101016070475D
:101280002DE9F0438FB00446DDE9168915481D4667
:1012900016460F46A04303D10121480502F00CFC7D
:1012A0001148A04303D10121880502F005FC00216B
:1012B0004FF48060CDE905108010CDE908100002E0
:1012C0000791CDE90A010C910D910E9102AA694690
:1012D00082E82003CDE90076204600F027F80FB021
:1012E000BDE8F0830060024000640240002901680C
:1012F00002D041F4802101E021F480210160704797
:10130000002A026802D042F4002201E022F4002206
:10131000026001617047406880B27047014600205A
:101320000968090300D501207047000030B5036843
:10133000124ACC6813400A682243D1E905452C4380
:101340002243CC6922430C6A22434C6A22438C6AB2
:1013500022434C6B22438C6B22431A430260426946
:1013600022F00703D1E90B2422431A4342610A69A0
:1013700042604A6882608968C16030BD3F801CF06D
:1013800000F038B83EB54E200821CDE90010154CCC
:1013900015490290B7EE000A4FF4E1332246481C8B
:1013A00003F036FA012240F22551204604F019FAE2
:1013B00002221146272000F02DFF0C49A5152A46D0
:1013C000A1F1280000F0F6F809492A46A1F58A7033
:1013D00000F0F0F803B02046BDE83040012104F0F1
:1013E00007B9000000480040080C0240700A0020C5
:1013F000700B0020032004F0BDBA000070B50D464C
:101400000646002405E000BF00F006F83055641CD5
:10141000E4B2AC42F8D370BD38B500208DF80000BE
:101420000C4800F0CBF80028FAD10B4D40F22554BF
:1014300000222146284604F0D4F9012269460548D5
:1014400000F0DEF801222146284604F0CAF99DF892
:10145000000038BD480A002000480040014800F064
:10146000A7B80000480A002031B50C4800F0ACF8DD
:101470000028FAD10A4D40F227740022214628465E
:1014800004F0AFF901226946044800F0D3F80122C4
:101490002146284604F0A5F938BD00005C0A00206A
:1014A0000048004010B502F0B1FB00F08FFBBDE832
:1014B00010400148FFF7D0BE0007002010B50446D9
:1014C000002100F049FB0021204600F037FB1348C3
:1014D000134A417801290AD0032912D002291BD1CD
:1014E0005078022818D0BDE81040FEF7DCBE5078D6
:1014F000012801D002F08AFB2046BDE8104002F02E
:1015000099BB5078032801D000F060FB04F10A0079
:10151000BDE8104000F086BB10BD0000DC000020DC
:10152000E2000020704780EC020A00F025B8D0ED00
:10153000020A90ED031AD0ED001A30EE811AD0EDB8
:10154000050A70EEA10AD0ED011A30EE410A30EE24
:10155000A12AC0EE821AC0ED041A20EE210A80ED05
:10156000030A31EE000A20EEA01A80ED020A41EED5
:10157000610AC0ED050A70479FED050A80ED020A79
:1015800080ED030A80ED040A80ED050A7047000033
:101590000000000080ED020A704710B50446D4E94F
:1015A0000001FEF738FE0020A060E060206110BD61
:1015B00000697047C0E90012FFF7EFBF006908B18A
:1015C000002070470120704701694068814201D1C5
:1015D000012070470020704730B504460020A36802
:1015E00008E02568ED5C0D5465685B1C9D4200D1E8
:1015F0000023401C904202D225698542F1D830BDBB
:10160000F0B500231D460EE084680768661C8660FE
:101610003C5DCC54D0E90146A64200D18560046906
:10162000641E5B1C0461934202D20469002CEBD15E
:101630001846F0BDF0B500231D4610E0C4680768E9
:10164000CE5C04F1010CC0F80CC03E554668C4687D
:10165000B44200D1C5600469641C5B1C0461934200
:1016600003D246680469B442E8D11846F0BD00F0E0
:1016700006B800F008B800F019B800F01EB802680B
:101680008A4302607047F0B520260023012505FA41
:1016900003F1046811400C4201D00C4300E08C437C
:1016A0005B1CDBB20460B342F1D3F0BD0B6808B140
:1016B000134300E093430B60704700680840704795
:1016C00010B5002304E00446401C2478CC545B1C75
:1016D0009342F8D310BD00000A4601460148FFF7C7
:1016E000EFBF000000000E0810B586B040F2FF13F7
:1016F000009300238DF808308DF8093008248DF808
:101700000A400C0A8DF80C10110A8DF80D108DF896
:1017100010308DF80E208DF811308DF80B408DF8BB
:101720000F308DF812306946FFF7C8F906B010BDCA
:1017300038B5044600200D460346022200901146AB
:10174000204600F009F804F00F0124F0FF002A46BB
:10175000BDE8384000F0EEB82DE9FF4F054620F017
:10176000FF04384A38483949394E3A4FDFF8E880A3
:10177000DFF8E890DFF8E8A0DFF8E8B083B0944243
:1017800002D1012108463CE0844204D1012102201B
:1017900002F092F906E08C4204D10121042002F00B
:1017A0008BF906E0B44204D10121082002F084F94B
:1017B00006E0BC4204D10121102002F07DF906E0D0
:1017C000444504D10121202002F076F906E04C4581
:1017D00004D10121402002F06FF906E0544504D104
:1017E0000121802002F068F906E05C4504D1012166
:1017F000080202F061F907E01B48844204D101218C
:10180000401502F059F905E01848844202D101213F
:101810000015F6E705F00F010120884000900498BC
:101820008DF8040005988DF8050006988DF80600DF
:1018300010988DF807006946204600F021F807B09F
:10184000BDE8F08F000002400004024000080240A2
:10185000000C024000100240001402400018024038
:10186000001C0240002002400024024000280240E8
:1018700008B50021012302220091FFF76DFF08BD8A
:10188000F0B50023012403270D6804FA03F2154084
:10189000954242D1D0F800C05E0007FA06F52CEA66
:1018A000050CC0F800C091F804C0D0F800E00CFAB4
:1018B00006FC4CEA0E0CC0F800C091F804C0BCF164
:1018C000010F02D0BCF1020F1FD1D0F808C02CEAE2
:1018D000050CC0F808C091F805C0D0F808E00CFA73
:1018E00006FC4CEA0E0CC0F808C0D0F804C02CEA84
:1018F000020CC0F804C0426891F806C00CFA03FC60
:101900001FFA8CFC42EA0C024260C268AA43C26021
:10191000CA79C568B2402A43C2605B1C102BB3D39E
:10192000F0BD08B500210B46009102220121FFF70E
:1019300013FF08BD4B07DB0E9A40C90810B500EB3A
:101940008100016A0F249C40A1430162016A114396
:10195000016210BD0246002052690A4200D00120F7
:101960007047418370470183704742694A40426132
:101970007047000010B5314AB6EE000A2DED068B17
:10198000017A92ED169ACB0692ED178AD2ED188A5B
:10199000002B01DB29EE009A02DB00BF28EE008A53
:1019A00001DB68EE808A9FED260A4A0702D5B1EE78
:1019B000499A03E00A0701D4B0EE409A8A0702D59B
:1019C000B1EE488A03E0C90701D1B0EE408AB0F910
:1019D0000000DFED1C9A00EE100A9FED1BAAB0EE8E
:1019E000691AB8EEC00AF0EE4A0A04F0BAF8B0EE8E
:1019F000682AF1EE681AB0EE691AF0EE4A0A04F0AD
:101A00001BF9F0EE408AB0EE490A104800F003FAE4
:101A10000F4C0E4884ED010AB0EE480A103000F079
:101A2000FAF90A4884ED020AB0EE680A203000F0A4
:101A3000F2F984ED030ABDEC068B10BD080000200E
:101A4000000000000000C8420000C8C218070020C3
:101A50001804002070B504462DED028B1D4D008842
:101A60009FED1D8A95ED162A00EE100ADFED1B8A08
:101A7000F1EE421AB8EE400AB0EE481AF0EE680AEB
:101A800004F0DAF8164EB0EE481AF0EE680A86ED69
:101A9000010A608895ED172A00EE100AF1EE421A4D
:101AA000B8EE400A04F0C8F886ED020AA08895ED69
:101AB000182A00EE100AB0EE481AF1EE421AB8EEFB
:101AC000400AF0EE680A04F0B7F886ED030ABDECB0
:101AD000028B70BD080000200080D2440000B64395
:101AE00018040020F0B5144A0021141F231F0F46CC
:101AF000801D655C465CAE4209D152F821500A2D2A
:101B000003D26D1C42F8215003E05E5401E042F81C
:101B10002170455C6554491C0229EAD3064900201E
:101B2000891E0C1F1A5C0D5C42EAC50525540A5437
:101B3000401C0228F6D3F0BDC8000020054810B5AF
:101B4000425C801D041F435C42EAC3036354425459
:101B500010BD0000DC00002030B50C4D08302A1DFF
:101B6000445C6B5C9C420ED152F821300A2B04D2AB
:101B700013F1010342F8213002E0044A121F5454C9
:101B8000405C685430BD0023F4E70000E000002012
:101B90000A8802804A8842808A8882808A79827193
:101BA000CA79C2710A89028149894181704700213D
:101BB0000A464318491CC9B29A710229F9D3028016
:101BC00042808280028142817047FEE770B5134AED
:101BD0000020131D141F961E0146951C115443F836
:101BE0002010215431542954401C0228F6D30C49AA
:101BF0000A22A1F1300000F00AF909490A2228312D
:101C0000A1F1480000F003F90549BDE870400A223F
:101C10005031A1F1600000F0FAB80000C4000020CB
:101C20004807002010B50446FFF75CFF2046BDE8DA
:101C30001040FFF79FBE00000A460149FFF736BD7E
:101C4000D000002001460148FFF737BDD00000203A
:101C50000149002008607047D000002010B51848E6
:101C600003F054FF0121FFF7E7FF164800F06AFA7E
:101C70000221FFF7E1FF13486C3000F063FA042102
:101C8000FFF7DAFF0F48D83000F05CFA0821FFF7C1
:101C9000D3FF0D4800F056FA1021FFF7CDFF0A4898
:101CA0006C3000F04FFA2021FFF7C6FF0648D8300D
:101CB00000F048FABDE810404021FFF7BDBF00002A
:101CC0006401002090010020D402002000B50448E7
:101CD00000F054F803485DF804EB00F057B800003A
:101CE000471D00089D1D000870B505460C460220E2
:101CF00003F05EFE40B1082003F05AFE70B10420EC
:101D000003F056FEA0B11CE002F040FC844200D972
:101D100004462146284602F009FC12E0FFF79EFB2C
:101D2000844200D9044621462846FFF767FB08E0B5
:101D3000FEF70CFC844200D9044621462846FEF7F3
:101D4000D5FB204670BD10B5022003F031FE48B12E
:101D5000082003F02DFE48B1042003F029FE48B10D
:101D6000002010BDBDE8104002F0EEBBBDE8104001
:101D7000FFF752BBBDE81040FEF7C6BB002801D0FC
:101D80000149086070470000D4000020002801D0FD
:101D90000149486070470000D400002010B5044697
:101DA00002F0FAFB2046FFF75FFB2046BDE810403B
:101DB000FEF7D2BB10B5FEF717FB0421054801F072
:101DC000C1FF01F0DFFFFEF731FBBDE8104002F07C
:101DD00067BB00001304000810B50948FFF7A1FD18
:101DE0000848FFF79EFD06484FF480410E38FFF784
:101DF000BAFD04488021BDE81040C01FFFF7B3BD05
:101E00000E1402400710024080EC040A7047C0E93B
:101E1000001200F021B80268816802EB8102491CBF
:101E2000D2ED000A30EE601AD0ED010AF8EE600A39
:101E3000C1EE201AD0ED030A71EEA00AC0ED030A2C
:101E4000816082ED000AD0E901128A4201D30021AB
:101E5000816090ED030A704710B504464068810028
:101E60002068FEF7D8F900209FED020AA06084EDFB
:101E7000030A10BD00000000014800F01BB800007C
:101E8000C00700200A460146014800F02CB80000B7
:101E9000C0070020024890EC040AFFF7EDBF0000E5
:101EA000740000200A460146014800F063B80000B3
:101EB000C007002070EE200AB5EE000A31EE212A9C
:101EC00021EE001AC0ED000A80ED012A80ED021A11
:101ED00021EE801A22EE000A80ED031A80EE201A0D
:101EE00080ED041A704791EC020A90ED001A30EE72
:101EF000600AD1ED020A00EE810AD0ED010A80EEFF
:101F0000201A82ED001A90ED001A91EC020A30EED0
:101F1000200AD1ED020A00EE810AD0ED010A80EE1E
:101F2000201A82ED011A91ED010AD1ED000A90ED1F
:101F3000001A30EE600AD1ED020A00EE810AD0EDFF
:101F4000010A80EE201A82ED021A91ED000AD1ED0D
:101F5000010A90ED001AB1EE400A30EE600AD1EDB0
:101F6000020A00EE810AD0ED010A80EE201A82ED0D
:101F7000031A704791EC020A30EE200AD1ED020AF2
:101F800030EE600AD1ED030A30EE600AD0ED020AAD
:101F900020EE200A82ED000A91ED010AD1ED000A3F
:101FA00030EE600AD1ED020A30EE200AD1ED030ACC
:101FB00030EE600AD0ED030A20EE200A82ED010A1D
:101FC00091EC020A30EE200AD1ED020A30EE200A2E
:101FD000D1ED030A30EE200AD0ED040A20EE200AEB
:101FE00082ED020A7047FEE770B504460160408F3B
:101FF0002087108804F1200540BA6087508804F1DA
:10200000080640BAE063908840BA2064A08864283B
:1020100025D2DFED440A9FED440A3046FFF783FAEC
:10202000B4F94C0000EE100A3046B8EEC00AFFF7D3
:10203000B1FADFED3E0A9FED3E0A2846FFF773FA3C
:1020400094ED140A2846B8EEC00AFFF7A3FA608F91
:10205000A4F846000020A064A088401CA080608FE7
:10206000218F401A00B2A4F84400B0F5805F05DD6E
:10207000A16CA0F50050491EA16407E010F5805F37
:1020800004DAA16C00F50050491CA164A4F84C00CE
:1020900000B200EE100A30461834B8EEC00AFFF75E
:1020A00046FA14ED020ADFED230ABDEEC00A10EE77
:1020B000100A00B200EE100AA087B8EEC00A20EEA7
:1020C000200ADFED1D0A84ED110A00EE100AB8EEB9
:1020D000C00A20EE200A84ED120A608CE18D401ABD
:1020E000216B00EB413000EE100AA0632846B8EEE9
:1020F000C00AFFF71CFA94ED040A9FED101ABDEE1A
:10210000C00A84ED100AF8EEC00AB8EEC00A60EE0C
:10211000810AC4ED130ADFED0A0A20EE200A84EDDD
:10212000140A70BD6666A63FCDCCCC3D6666663FA0
:102130000AD7233CFFC72F427C59443FFFFF333D62
:10214000DB0F493A8088642801D3012070470020C2
:102150007047000010B504460020A08020876087EB
:10216000E0632064A4F84400A4F84600A064A4F846
:102170004C009FED0C0AA4F8540084ED170A84ED7E
:10218000180A2065A06584ED190A84ED1A0A04F185
:102190000800FFF7F1F904F12000BDE81040FFF757
:1021A000EBB9000000000000F0B54D78C1B0164654
:1021B00007460C46AD1DFFF7FBF9A8420ED30422DB
:1021C00040A93846FFF708FA9DF8000121788842B7
:1021D00004D19DF801016178884202D0002041B00D
:1021E000F0BD2A4669463846FFF7F6F96288294667
:1021F0006846FEF7F5FC0028F1D06278304601A968
:10220000FDF7F0FF2A4669463846FFF7F9F92846F8
:10221000E5E7704708B58DF800008DF801108DF8DE
:10222000022001208DF80300684600F001F808BD87
:1022300030B50F22C47801780123FCB1144C246816
:1022400001F1E02104F4E064C4F5E064C4F3072480
:10225000C4F10405E2404478AC408578154025433C
:102260002A0181F80024007800F01F018B4040090A
:10227000800000F1E020C0F8003130BD01F01F0007
:1022800083404809800000F1E020C0F8803130BD73
:102290000CED00E002490843024908607047000065
:1022A0000000FA050CED00E010B52DED028BFEF7F5
:1022B00027FD03212048FFF7DAF99FED208A1E4809
:1022C000B0EE481AF0EE480AB0EE480A3430FEF795
:1022D0009FFC1948B0EE481AF0EE480AB0EE480AE2
:1022E0004030FEF795FC1448F0EE481AB0EE481A5C
:1022F000F0EE480AB0EE480A001DFFF785FD0E48D3
:10230000F0EE481AB0EE481AF0EE480AB0EE480A6D
:102310001430FFF779FDF0EE481AB0EE481AF0EEEF
:10232000480AB0EE480ABDEC028B0348BDE81040F5
:102330002430FFF769BD0000D40700200000000032
:1023400010B54FF480413048FFF704FBE8B300209C
:1023500001222E49FFF78FF980212D48FFF7FAFA65
:10236000A0B3002002222949FFF785F9294927480F
:1023700091ED1A0A80ED010A91ED350A80ED020A0D
:1023800091ED500A80ED030A91ED6B0A80ED040A8D
:1023900091ED180A80ED050A91ED330A80ED060AE9
:1023A00091ED4E0A80ED070A91ED690A80ED080A69
:1023B00091ED0F0AB8EEC00A80ED090A91ED2A0AE4
:1023C000B8EEC00A80ED0A0A01E019E01AE091EDCA
:1023D000450AB8EEC00A80ED0B0A91ED600A00F1E3
:1023E0003401B8EEC00A80ED0C0A001DFFF75AFD5B
:1023F0000649BDE810404031A1F12C00FFF752BD65
:102400000120A5E70120ADE700140240D407002019
:10241000001002409001002030EE601A90ED080A92
:10242000D0ED040ADFED331A31EE402A90ED000AB8
:1024300020EE010AF4EEC00AF1EE10FA06D3F1EE36
:10244000600AF4EEC00AF1EE10FA01DDB0EE600AA7
:10245000D0ED030AF4EEC10AF1EE10FA1ADDD0ED68
:10246000090AD0ED011A41EE810AC0ED090AD0ED4A
:10247000051AF4EEE10AF1EE10FA06DCF1EE611A4B
:10248000F4EEE10AF1EE10FA01D2F0EE610AC0EDCD
:10249000090A01E0C0ED091AD0ED020AD0ED061AD2
:1024A00060EE820AF4EEE01AF1EE10FA06D3F1EED5
:1024B000611AF4EEE01AF1EE10FA01DDF0EE610AB5
:1024C000D0ED091A31EE800A30EE200AD0ED070A6D
:1024D000F4EEC00AF1EE10FA06D3F1EE600AF4EE63
:1024E000C00AF1EE10FA01DDB0EE600A80ED081AC4
:1024F000704700000000000080EC080A70470000F0
:10250000024991EC080AFFF7F7BF00003C000020E9
:102510009FED030A80ED080A80ED090A704700006C
:10252000000000002DE9FE4F1546DFF80484FF4A45
:10253000DDF830B008F104091C460E46074609F1E3
:10254000040A93457ED100200290A8F10400B0EB6C
:10255000172F25D0B8EB172F22D0B9EB172F1FD08C
:10256000BAEB172F1CD00AF10400B0EB172F17D0CD
:10257000001DB0EB172F13D0001DB0EB172F0FD09D
:10258000001DB0EB172F0BD0001DB0EB172F07D09D
:10259000001DB0EB172F03D0001DB0EB172F05D196
:1025A00001213846FFF7C4F801200290E048001FDF
:1025B000B0EB162F25D0B8EB162F22D0B9EB162F83
:1025C0001FD0BAEB162F1CD0D9480C30B0EB162F09
:1025D00017D0001DB0EB162F13D0001DB0EB162F37
:1025E0000FD0001DB0EB162F0BD0001DB0EB162F37
:1025F00007D0001DB0EB162F03D0001DB0EB162F37
:1026000007D101213046FFF793F8029840F002000D
:102610000290C748001FB0EB152F27D0B8EB152F3D
:1026200024D0B9EB152F21D0BAEB152F1ED0C048FE
:102630000C30B0EB152F19D0001DB0EB152F15D0B5
:10264000001D00E061E0B0EB152F0FD0001DB0EBD6
:10265000152F0BD0001DB0EB152F07D0001DB0EBD0
:10266000152F03D0001DB0EB152F07D101212846EF
:10267000FFF75EF8029840F004000290AC48001F9B
:10268000B0EB142F25D0B8EB142F22D0B9EB142FB8
:102690001FD0BAEB142F1CD0A5480C30B0EB142F70
:1026A00017D0001DB0EB142F13D0001DB0EB142F6A
:1026B0000FD0001DB0EB142F0BD0001DB0EB142F6A
:1026C00007D0001DB0EB142F03D0001DB0EB142F6A
:1026D00007D101212046FFF72BF8029840F00800AF
:1026E0000290002000900190DDE90D1302468F4812
:1026F00001F076FC70228D480F9B029901F024FEB8
:1027000001218A4801F052FCB6E1BBF1804F7DD037
:1027100088498B45F8D1002002908548001FB0EB16
:10272000172F25D0B8EB172F22D0B9EB172F1FD0BA
:10273000BAEB172F1CD07E480C30B0EB172F17D0F8
:10274000001DB0EB172F13D0001DB0EB172F0FD0CB
:10275000001DB0EB172F0BD0001DB0EB172F07D0CB
:10276000001DB0EB172F03D0001DB0EB172F05D1C4
:1027700002213846FEF7DCFF012002906C48001F62
:10278000B0EB162F25D0B8EB162F22D0B9EB162FB1
:102790001FD0BAEB162F1CD065480C30B0EB162FAB
:1027A00017D0001DB0EB162F13D0001DB0EB162F65
:1027B0000FD0001DB0EB162F0BD0001DB0EB162F65
:1027C00007D0001DB0EB162F03D0001DB0EB162F65
:1027D00007D102213046FEF7ABFF029840F002001D
:1027E00002905348001FB0EB152F27D0B8EB152FE0
:1027F00024D0B9EB152F21D0BAEB152F1ED04C48A1
:102800000C30B0EB152F19D0001D00E065E0B0EBE7
:10281000152F13D0001DB0EB152F0FD0001DB0EBFE
:10282000152F0BD0001DB0EB152F07D0001DB0EBFE
:10283000152F03D0001DB0EB152F07D1022128461C
:10284000FEF776FF029840F0040002903848001F1F
:10285000B0EB142F25D0B8EB142F22D0B9EB142FE6
:102860001FD0BAEB142F1CD031480C30B0EB142F12
:1028700017D0001DB0EB142F13D0001DB0EB142F98
:102880000FD0001DB0EB142F0BD0001DB0EB142F98
:1028900007D0001DB0EB142F03D0001DB0EB142F98
:1028A00007D102212046FEF743FF029840F00800BE
:1028B0000290002000900190DDE90D1302461D48B2
:1028C00001F08EFB70221B480F9B029901F03CFD2A
:1028D0000121184801F06AFBAFE115484FF0000BE9
:1028E000001FB0EB172F2CD0B8EB172F29D0B9EB66
:1028F000172F26D0BAEB172F23D00D480C30B0EB92
:10290000172F1ED0001DB0EB172F1AD0001DB0EBF3
:10291000172F16D0001DB0EB172F12D0001DB0EBF3
:10292000172F0ED0001DB0EB172F05E0000001405F
:10293000040240000004004003D0001DB0EB172F3C
:1029400005D101213846FEF7F3FE4FF0010BFC4F95
:10295000B7EB162F25D0B8EB162F22D0B9EB162FD8
:102960001FD0BAEB162F1CD0F5481030B0EB162F45
:1029700017D0001DB0EB162F13D0001DB0EB162F93
:102980000FD0001DB0EB162F0BD0001DB0EB162F93
:1029900007D0001DB0EB162F03D0001DB0EB162F93
:1029A00005D101213046FEF7C3FE4BF0020BB7EB19
:1029B000152F25D0B8EB152F22D0B9EB152F1FD02E
:1029C000BAEB152F1CD0DE481030B0EB152F17D006
:1029D000001DB0EB152F13D0001DB0EB152F0FD03D
:1029E000001DB0EB152F0BD0001DB0EB152F07D03D
:1029F000001DB0EB152F03D0001DB0EB152F05D136
:102A000001212846FEF794FE4BF0040BB7EB142F80
:102A100025D0B8EB142F22D0B9EB142F1FD0BAEB6E
:102A2000142F1CD0C6481030B0EB142F17D0001D47
:102A3000B0EB142F13D0001DB0EB142F0FD0001DDE
:102A4000B0EB142F0BD0001DB0EB142F07D0001DDE
:102A5000B0EB142F03D0001DB0EB142F05D10121D2
:102A60002046FEF765FE4BF0080B00200090024662
:102A70004FF080440190FDE3B2498B457ED10020A8
:102A80000290AF48B0EB172F25D0B8EB172F22D00C
:102A9000B9EB172F1FD0BAEB172F1CD0A848103056
:102AA000B0EB172F17D0001DB0EB172F13D0001D60
:102AB000B0EB172F0FD0001DB0EB172F0BD0001D60
:102AC000B0EB172F07D0001DB0EB172F03D0001D60
:102AD000B0EB172F05D102213846FEF729FE012061
:102AE00002909748B0EB162F25D0B8EB162F22D0C6
:102AF000B9EB162F1FD0BAEB162F1CD09048103010
:102B0000B0EB162F17D0001DB0EB162F13D0001D01
:102B1000B0EB162F0FD0001DB0EB162F0BD0001D01
:102B2000B0EB162F07D0001DB0EB162F03D0001D01
:102B3000B0EB162F07D102213046FEF7F9FD0298BF
:102B400040F0020002907E48B0EB152F27D0B8EB82
:102B5000152F24D0B9EB152F21D0BAEB152F1ED08D
:102B600077481030B0EB152F19D0001DB0EB152FA2
:102B700015D0001DB0EB152F11D000E05DE0001D59
:102B8000B0EB152F0BD0001DB0EB152F07D0001D9B
:102B9000B0EB152F03D0001DB0EB152F07D102218C
:102BA0002846FEF7C5FD029840F0040002906448F4
:102BB000B0EB142F25D0B8EB142F22D0B9EB142F83
:102BC0001FD0BAEB142F1CD05D481030B0EB142F7F
:102BD00017D0001DB0EB142F13D0001DB0EB142F35
:102BE0000FD0001DB0EB142F0BD0001DB0EB142F35
:102BF00007D0001DB0EB142F03D0001DB0EB142F35
:102C000007D102212046FEF793FD029840F008000C
:102C10000290002000900190DDE90D130246494822
:102C200001F0DEF9702247480F9B029901F08CFBFE
:102C30000121444801F0BAF9E7E043498B457DD1D1
:102C4000002002903E48B0EB172F25D0B8EB172F8D
:102C500022D0B9EB172F1FD0BAEB172F1CD0384852
:102C60001030B0EB172F17D0001DB0EB172F13D07B
:102C7000001DB0EB172F0FD0001DB0EB172F0BD09E
:102C8000001DB0EB172F07D0001DB0EB172F03D09E
:102C9000001DB0EB172F05D102213846FEF748FD85
:102CA000012002902648B0EB162F25D0B8EB162F46
:102CB00022D0B9EB162F1FD0BAEB162F1CD020480C
:102CC0001030B0EB162F17D0001DB0EB162F13D01D
:102CD000001DB0EB162F0FD0001DB0EB162F0BD040
:102CE000001DB0EB162F07D0001DB0EB162F03D040
:102CF000001DB0EB162F07D102213046FEF718FD5C
:102D0000029840F0020002900D48B0EB152F2ED033
:102D1000B8EB152F2BD0B9EB152F28D0BAEB152F08
:102D200025D007481030B0EB152F20D0001DB0EB98
:102D3000152F1CD0001DB0EB152F07E065E000003B
:102D40000002400000080040000C00400FD0001DB1
:102D5000B0EB152F0BD0001DB0EB152F07D0001DC9
:102D6000B0EB152F03D0001DB0EB152F07D10221BA
:102D70002846FEF7DDFC029840F004000290FE4871
:102D8000B0EB142F25D0B8EB142F22D0B9EB142FB1
:102D90001FD0BAEB142F1CD0F7481030B0EB142F13
:102DA00017D0001DB0EB142F13D0001DB0EB142F63
:102DB0000FD0001DB0EB142F0BD0001DB0EB142F63
:102DC00007D0001DB0EB142F03D0001DB0EB142F63
:102DD00007D102212046FEF7ABFC029840F0080024
:102DE0000290002000900190DDE90D130246E348B7
:102DF00001F0F6F87022E1480F9B029901F0A4FA65
:102E00000121DE4801F0D2F8E0E0DD498B457DD1BB
:102E100000200290D848B0EB172F25D0B8EB172F21
:102E200022D0B9EB172F1FD0BAEB172F1CD0D248E6
:102E30001030B0EB172F17D0001DB0EB172F13D0A9
:102E4000001DB0EB172F0FD0001DB0EB172F0BD0CC
:102E5000001DB0EB172F07D0001DB0EB172F03D0CC
:102E6000001DB0EB172F05D103213846FEF760FC9B
:102E700001200290C048B0EB162F25D0B8EB162FDA
:102E800022D0B9EB162F1FD0BAEB162F1CD0BA48A0
:102E90001030B0EB162F17D0001DB0EB162F13D04B
:102EA000001DB0EB162F0FD0001DB0EB162F0BD06E
:102EB000001DB0EB162F07D0001DB0EB162F03D06E
:102EC000001DB0EB162F07D103213046FEF730FC72
:102ED000029840F002000290A748B0EB152F27D0CF
:102EE000B8EB152F24D0B9EB152F21D0BAEB152F45
:102EF0001ED0A1481030B0EB152F19D0001DB0EB3B
:102F0000152F15D0001DB0EB152F00E05EE00FD09F
:102F1000001DB0EB152F0BD0001DB0EB152F07D007
:102F2000001DB0EB152F03D0001DB0EB152F07D1FE
:102F300003212846FEF7FCFB029840F004000290B3
:102F40008D48B0EB142F25D0B8EB142F22D0B9EB5D
:102F5000142F1FD0BAEB142F1CD087481030B0EBC1
:102F6000142F17D0001DB0EB142F13D0001DB0EBA1
:102F7000142F0FD0001DB0EB142F0BD0001DB0EBA1
:102F8000142F07D0001DB0EB142F03D0001DB0EBA1
:102F9000142F07D103212046FEF7CAFB029840F008
:102FA00008000290002000900190DDE90D13024618
:102FB000734801F015F8702271480F9B029901F0D7
:102FC000C3F901216E4800F0F1FFEAE06D498B453D
:102FD0007ED1002002906848B0EB172F25D0B8EBC7
:102FE000172F22D0B9EB172F1FD0BAEB172F1CD0F9
:102FF00061481030B0EB172F17D0001DB0EB172F22
:1030000013D0001DB0EB172F0FD0001DB0EB172F02
:103010000BD0001DB0EB172F07D0001DB0EB172F02
:1030200003D0001DB0EB172F05D103213846FEF762
:103030007FFB012002905048B0EB162F25D0B8EB53
:10304000162F22D0B9EB162F1FD0BAEB162F1CD09B
:1030500049481030B0EB162F17D0001DB0EB162FDB
:1030600013D0001DB0EB162F0FD0001DB0EB162FA4
:103070000BD0001DB0EB162F07D0001DB0EB162FA4
:1030800003D0001DB0EB162F07D103213046FEF709
:103090004FFB029840F0020002903748B0EB152F2A
:1030A00027D0B8EB152F24D0B9EB152F21D0BAEBD0
:1030B000152F1ED030481030B0EB152F19D0001D41
:1030C000B0EB152F15D0001DB0EB152F11D000E07F
:1030D00067E0001DB0EB152F0BD0001DB0EB152FD6
:1030E00007D0001DB0EB152F03D0001DB0EB152F3E
:1030F00007D103212846FEF71BFB029840F004008D
:1031000002901D48B0EB142F25D0B8EB142F22D01D
:10311000B9EB142F1FD0BAEB142F1CD01648103067
:10312000B0EB142F17D0001DB0EB142F13D0001DDF
:10313000B0EB142F0FD0001DB0EB142F0BD0001DDF
:10314000B0EB142F07D0001DB0EB142F03D0001DDF
:10315000B0EB142F07D103212046FEF7E9FA0298BD
:1031600040F008000290002000900190DDE90D136E
:103170000246044808E0000000024000000C004045
:10318000000401400040014000F02AFF7022FE4888
:103190000F9B029901F0D8F80121FB4800F006FFCF
:1031A000E1E0FA498B4566D100200290F848B0EB87
:1031B000172F25D0B8EB172F22D0B9EB172F1FD020
:1031C000BAEB172F1CD0F2481030B0EB172F17D0E6
:1031D000001DB0EB172F13D0001DB0EB172F0FD031
:1031E000001DB0EB172F0BD0001DB0EB172F07D031
:1031F000001DB0EB172F03D0001DB0EB172F05D12A
:1032000003213846FEF794FA01200290E048B0EB23
:10321000162F25D0B8EB162F22D0B9EB162F1FD0C2
:10322000BAEB162F1CD0DA481030B0EB162F17D09F
:10323000001DB0EB162F13D0001DB0EB162F0FD0D2
:10324000001DB0EB162F0BD0001DB0EB162F07D0D2
:10325000001DB0EB162F03D0001DB0EB162F07D1C9
:1032600003213046FEF764FA029840F00200029013
:10327000C74801E00EE376E0B0EB152F25D0B8EBA0
:10328000152F22D0B9EB152F1FD0BAEB152F1CD05C
:10329000BF481030B0EB152F17D0001DB0EB152F25
:1032A00013D0001DB0EB152F0FD0001DB0EB152F64
:1032B0000BD0001DB0EB152F07D0001DB0EB152F64
:1032C00003D0001DB0EB152F07D103212846FEF7D0
:1032D0002FFA029840F004000290AD48B0EB142F92
:1032E00025D0B8EB142F22D0B9EB142F1FD0BAEB96
:1032F000142F1CD0A6481030B0EB142F17D0001D8F
:10330000B0EB142F13D0001DB0EB142F0FD0001D05
:10331000B0EB142F0BD0001DB0EB142F07D0001D05
:10332000B0EB142F03D0001DB0EB142F07D10321F5
:103330002046FEF7FDF9029840F0080002900020B8
:1033400000900190DDE90D130246904800F048FE20
:1033500070228E480F9B029900F0F6FF01218B48E6
:1033600000F024FEE0E08B498B457DD100200290E7
:103370008748B0EB172F25D0B8EB172F22D0B9EB29
:10338000172F1FD0BAEB172F1CD081481030B0EB8D
:10339000172F17D0001DB0EB172F13D0001DB0EB67
:1033A000172F0FD0001DB0EB172F0BD0001DB0EB67
:1033B000172F07D0001DB0EB172F03D0001DB0EB67
:1033C000172F05D103213846FEF7B2F901200290EC
:1033D0006F48B0EB162F25D0B8EB162F22D0B9EBE3
:1033E000162F1FD0BAEB162F1CD069481030B0EB47
:1033F000162F17D0001DB0EB162F13D0001DB0EB09
:10340000162F0FD0001DB0EB162F0BD0001DB0EB08
:10341000162F07D0001DB0EB162F03D0001DB0EB08
:10342000162F07D103213046FEF782F9029840F0AB
:10343000020002905648B0EB152F27D0B8EB152F9D
:1034400024D0B9EB152F21D0BAEB152F1ED0504840
:103450001030B0EB152F19D0001DB0EB152F15D083
:10346000001DB0EB152F00E05EE00FD0001DB0EBAB
:10347000152F0BD0001DB0EB152F07D0001DB0EBA2
:10348000152F03D0001DB0EB152F07D103212846BF
:10349000FEF74EF9029840F0040002903C48B0EB71
:1034A000142F25D0B8EB142F22D0B9EB142F1FD036
:1034B000BAEB142F1CD036481030B0EB142F17D0B5
:1034C000001DB0EB142F13D0001DB0EB142F0FD044
:1034D000001DB0EB142F0BD0001DB0EB142F07D044
:1034E000001DB0EB142F03D0001DB0EB142F07D13B
:1034F00003212046FEF71CF9029840F008000290D4
:10350000002000900190DDE90D130246214800F0F3
:1035100067FD70221F480F9B029900F015FF0121E3
:103520001C4800F043FDEBE01B498B457ED1002099
:1035300002901748B0EB172F25D0B8EB172F22D0E9
:10354000B9EB172F1FD0BAEB172F1CD01048103033
:10355000B0EB172F17D0001DB0EB172F13D0001DA5
:10356000B0EB172F0FD0001DB0EB172F0BD0001DA5
:10357000B0EB172F07D0001DB0EB172F03D0001DA5
:10358000B0EB172F10D109E000400140004401408A
:103590000002400000480140001800400921384660
:1035A000FEF7C6F801200290FB48B0EB162F25D09D
:1035B000B8EB162F22D0B9EB162F1FD0BAEB162F6F
:1035C0001CD0F5481030B0EB162F17D0001DB0EB13
:1035D000162F13D0001DB0EB162F0FD0001DB0EB2F
:1035E000162F0BD0001DB0EB162F07D0001DB0EB2F
:1035F000162F03D0001DB0EB162F07D1092130463E
:10360000FEF796F8029840F002000290E248B0EB14
:10361000152F27D0B8EB152F24D0B9EB152F21D0BB
:10362000BAEB152F1ED0DC48103000E068E0B0EB9C
:10363000152F17D0001DB0EB152F13D0001DB0EBC8
:10364000152F0FD0001DB0EB152F0BD0001DB0EBC8
:10365000152F07D0001DB0EB152F03D0001DB0EBC8
:10366000152F07D109212846FEF762F8029840F08D
:1036700004000290C848B0EB142F25D0B8EB142FEB
:1036800022D0B9EB142F1FD0BAEB142F1CD0C24894
:103690001030B0EB142F17D0001DB0EB142F13D047
:1036A000001DB0EB142F0FD0001DB0EB142F0BD06A
:1036B000001DB0EB142F07D0001DB0EB142F03D06A
:1036C000001DB0EB142F07D109212046FEF730F87A
:1036D000029840F008000290002000900190DDE97F
:1036E0000D130246AD4800F07BFC7022AB480F9BE7
:1036F000029900F029FE0121A84800F057FCCAE019
:10370000A7498B457ED1A4484FF0000BB0EB172F93
:1037100025D0B8EB172F22D0B9EB172F1FD0BAEB5B
:10372000172F1CD09C481030B0EB172F17D0001D5E
:10373000B0EB172F13D0001DB0EB172F0FD0001DCB
:10374000B0EB172F0BD0001DB0EB172F07D0001DCB
:10375000B0EB172F03D0001DB0EB172F05D10921B7
:103760003846FDF7E5FF4FF0010B8B4FB7EB162FF7
:1037700025D0B8EB162F22D0B9EB162F1FD0BAEBFD
:10378000162F1CD084481030B0EB162F17D0001D18
:10379000B0EB162F13D0001DB0EB162F0FD0001D6D
:1037A000B0EB162F0BD0001DB0EB162F07D0001D6D
:1037B000B0EB162F03D0001DB0EB162F05D1092159
:1037C0003046FDF7B5FF4BF0020BB7EB152F27D0B6
:1037D000B8EB152F24D0B9EB152F21D0BAEB152F4C
:1037E0001ED06D481030B0EB152F19D0001DB0EB76
:1037F000152F15D0001DB0EB152F11D0001DB0EB0B
:10380000152F00E047E00BD0001DB0EB152F07D0BF
:10381000001DB0EB152F03D0001DB0EB152F05D107
:1038200009212846FDF784FF4BF0040BB7EB142F5A
:1038300025D0B8EB142F22D0B9EB142F1FD0BAEB40
:10384000142F1CD054481030B0EB142F17D0001D8B
:10385000B0EB142F13D0001DB0EB142F0FD0001DB0
:10386000B0EB142F0BD0001DB0EB142F07D0001DB0
:10387000B0EB142F03D0001DB0EB142F05D109219C
:103880002046FDF755FF4BF0080B00200090024644
:10389000434C0190D0E043498B457CD13E484FF0EA
:1038A000000BB0EB172F25D0B8EB172F22D0B9EBB8
:1038B000172F1FD0BAEB172F1CD037481030B0EBA2
:1038C000172F17D0001DB0EB172F13D0001DB0EB32
:1038D000172F0FD0001DB0EB172F0BD0001DB0EB32
:1038E000172F07D0001DB0EB172F03D0001DB0EB32
:1038F000172F05D109213846FDF71AFF4FF0010BAC
:10390000254FB7EB162F25D0B8EB162F22D0B9EBE9
:10391000162F1FD0BAEB162F1CD01F481030B0EB5B
:10392000162F17D0001DB0EB162F13D0001DB0EBD3
:10393000162F0FD0001DB0EB162F0BD0001DB0EBD3
:10394000162F07D0001DB0EB162F03D0001DB0EBD3
:10395000162F05D109213046FDF7EAFE4BF0020B88
:10396000B7EB152F2FD0B8EB152F2CD0B9EB152FA7
:1039700029D0BAEB152F26D007481030B0EB152F01
:1039800021D0001DB0EB152F1DD0001DB0EB152F61
:1039900019D0001D08E061E000024000001800405E
:1039A000001C004000200040B0EB152F0BD0001D84
:1039B000B0EB152F07D0001DB0EB152F03D0001D65
:1039C000B0EB152F05D109212846FDF7B1FE4BF0CC
:1039D000040BB7EB142F24D0B8EB142F21D0B9EB84
:1039E000142F1ED0BAEB142F1BD01D48B0EB142F90
:1039F00017D0001DB0EB142F13D0001DB0EB142F07
:103A00000FD0001DB0EB142F0BD0001DB0EB142F06
:103A100007D0001DB0EB142F03D0001DB0EB142F06
:103A200005D109212046FDF783FE4BF0080B00204D
:103A30000C4C009002460190DDE90D13204600F089
:103A4000CFFA7022594620460F9B00F07DFC03B050
:103A50002046BDE8F04F012100F0A8BABDE8FE8F76
:103A60001002400000200040704700001FB54FF4D6
:103A70007A700F4C40F6C411532200940390CDE9A4
:103A800001210C4B5A1E511E481EFEF74BFD012111
:103A9000204600F09BFA064940F2A46040310860DD
:103AA000091F0860091F0860091F08601FBD00008A
:103AB000000800400F0C0240044A0029116801D0A0
:103AC000014300E08143116070470000303802403C
:103AD000044A0029116801D0014300E081431160CC
:103AE0007047000040380240044A0029116801D0A4
:103AF000014300E0814311607047000044380240F8
:103B000070B5204A1168204C11F00C0104D01F4EF2
:103B1000042903D0082903D004601BE0066019E0E3
:103B20001849091F0B68C3F380550B6803F03F0366
:103B300015B1B6FBF3F301E0B4FBF3F30C680968CD
:103B4000C4F388146343C1F30141491C4900B3FB2A
:103B5000F1F1016011680F2303EA11110C4B5C5C59
:103B60000168E14041601468072505EA94241C5D62
:103B700021FA04F48460126805EA52329A5CD1405A
:103B8000C16070BD083802400024F400001BB7007B
:103B9000220100200A88C2F30A0202804A788B7848
:103BA000D20842EA4312C2F30A0242808A78CB78F2
:103BB000920942EA83020B7942EA8322C2F30A02A3
:103BC00082800A794B79520842EAC312C2F30A0290
:103BD000C2804A79920902724979C1F30111417296
:103BE0007047000000214FF4806200BF20F81120D0
:103BF000491CC9B20429F9D3002103224318491CE6
:103C0000C9B21A720229F9D37047000070B5084A88
:103C10000020131D941C161F0146951E115443F8D5
:103C20002010215431542954401C0228F6D370BD71
:103C3000E0000020FDF70EBF00F04AB83EB54E226E
:103C4000452108208DE807001D4CB7EE000A1B4BEC
:103C5000224600211B4800F0DBFD012240212046C6
:103C600001F098FD24210020CDE90001174D221D0F
:103C7000154B51062846FDF703FB1349002224315A
:103C80002846FDF73DFB01212846FDF72FFB0121CA
:103C90002846FDF7EBFA012200212520FEF7BAFAAB
:103CA000012240F22441204601F09BFD03B0204652
:103CB000BDE83040012101F09BBC0000A08601005E
:103CC0000010014007040240700C002040640240D4
:103CD00010B50446002001F04DFE21460748FDF7CF
:103CE000AFFA01210548FDF737FF01210348FDF731
:103CF00025FFBDE810400148FDF7E0BB00070020AC
:103D0000D0E9002191420CD2491C00EE101A41600A
:103D1000F8EE400A00EE102AB8EE401A80EE810A52
:103D20007047B7EE000A7047016070470249B1F86A
:103D30005410FFF7F9BF0000080000200021416087
:103D40007047704770B50E4C06460D462068002837
:103D5000304605D001F016FF38B14560012070BD36
:103D600001F086FF20606060F8E72946304601F0E8
:103D70007FFF61680861C1606060002070BD000065
:103D80000000002010B5FDF703F90449096801E0BF
:103D9000886009690029FBD110BD000000000020E7
:103DA00070B5FDF7F5F805460748046808E0A06817
:103DB0006168281A814202D820688047A56024697A
:103DC000002CF4D170BD0000000000201CB50020C4
:103DD0002E49019000900A6842F480320A604FF444
:103DE000A0430A6802F400320092019A521C019228
:103DF000009A12B9019A9A42F3D10A68920342D505
:103E00000120009021484030026842F08052026058
:103E10001F48026842F4404202601C4A083213689C
:103E20001360136843F400431360136843F4A05312
:103E30001360141F174B23600B6843F080730B60F3
:103E40000B689B01FCD5016841F480310160416839
:103E5000C903FCD5016841F4003101604168890360
:103E6000FCD50D4940F205700860106820F0030091
:103E70001060106840F0020010601068C0F381000C
:103E80000228FAD11CBD00901CBD00000038024081
:103E9000007000400C544007003C0240FFF780BF18
:103EA0001CB500200090024601904FF47A73532114
:103EB000054800F095F802B000220121BDE810404D
:103EC0003620FEF7A7B900000010004010B5084CDE
:103ED0000121204600F074F801221146204600F02E
:103EE0002DF92046BDE81040012100F06FB8000018
:103EF00000100040124810B5016841F470010160E3
:103F00001048016841F0010101600E4A00210832A9
:103F1000116002680C4B1A400260031D0B4A1A60C4
:103F2000026822F48022026006480C300160FFF72C
:103F30004DFF03494FF000608039086010BD00005C
:103F400088ED00E000380240FFFFF6FE103000244C
:103F500010B501218C07204600F0E4F800280BD0B2
:103F60000121204600F02FF80121204600F028F81A
:103F7000BDE8104000F068BA10BD000010B50A4C52
:103F80000121204600F0CEF800280BD00121204668
:103F900000F019F80121204600F012F8BDE81040A9
:103FA000FFF77CBF10BD0000001000400029018811
:103FB00002D041F0800101E021F0800101807047D2
:103FC000C94301827047C9430182704700290188B3
:103FD00002D041F0010101E021F0010101807047B0
:103FE0002DE9FF4F434904464348444D444EDFF812
:103FF0001481DFF81491DFF814A1DFF814B183B055
:104000004FEAB1478C4204D101210846FFF76CFD0D
:104010000CE0B4F1804F06D0844207D10121022088
:10402000FFF756FD09E00121084645E0AC4204D106
:1040300001210420FFF74CFD06E0B44204D1012128
:104040000820FFF745FD06E0BC4204D10121102005
:10405000FFF73EFD06E0444504D101212020FFF793
:1040600037FD06E04C4504D101210220FFF73CFD5D
:1040700006E0544504D101210804FFF735FD06E0B0
:104080005C4504D101214804FFF72EFD07E02148DB
:10409000844204D101218804FFF726FD07E01E4871
:1040A000844204D101214020FFF712FD07E01B48A4
:1040B000844204D101218020FFF70AFD05E0184861
:1040C000844202D101218015F6E70498ADF8000082
:1040D0000598ADF80200069801901098ADF8080018
:1040E00011988DF80A006946204600F06FF907B074
:1040F000BDE8F08F000001400004004000080040CF
:10410000000C004000140040000401400040014049
:10411000004401400048014000180040001C0040DD
:104120000020004002460020138A92890B4202EAD6
:10413000010202D0002A00D001207047002A8289A3
:1041400001D00A4300E08A438281704730B5028C77
:1041500022F001020284028C8388048B22F0020286
:1041600024F073050C882C438D8915434A882A4313
:104170000C4DA84202D00C4DA8420DD122F00805EA
:10418000CA8923F440732A4322F004058A882A430B
:104190000D8A1D434B8A2B438380048389684163C6
:1041A000028430BD0000014000040140028B22F077
:1041B00008020A430283704770B5028C22F0100295
:1041C0000284028C8488038B0D8823F4E6464FF624
:1041D000FF7303EA052535438E8922F0200203EAA6
:1041E000061616434A8803EA02123243104EB042C2
:1041F00002D0104EB04215D122F08006CA8924F4B4
:10420000406403EA0212324322F040068A8803EA3D
:10421000021232430E8A03EA860626434C8A03EAD8
:10422000840434438480058389688163028470BD7B
:104230000000014000040140028B4FF6FF7322F49E
:10424000006203EA012111430183704770B5028CBB
:1042500022F480720284028C8488838B0D8823F080
:1042600073031D4322F400738E894FF6FF7202EA36
:1042700006261E434B8802EA03233343104EB04206
:1042800002D0104EB04215D123F40066CB8924F43D
:10429000405402EA0323334323F480668B8802EA06
:1042A000032333430E8A02EA061626434C8A02EAA7
:1042B00004143443848085838968C163038470BD9A
:1042C0000000014000040140828B22F008020A43F2
:1042D0008283704770B5028C22F480520284048C71
:1042E0008288838B0D8823F4E6464FF6FF7303EA3A
:1042F0000525354324F400568C8903EA04343443FD
:104300004E8803EA06362643084CA04202D0084CE9
:10431000A04205D122F480440A8A03EA8212224391
:104320008280858389680164068470BD0000014035
:1043300000040140828B4FF6FF7322F4006203EA0F
:10434000012111438183704730B585B00546ADF832
:10435000002001200C46ADF8020000210220ADF83B
:104360000C00ADF81010C001ADF81200ADF804104B
:104370000293ADF80E10E00707D069462846FFF714
:10438000E5FE08212846FFF711FFA00707D569467B
:104390002846FFF711FF08212846FFF74DFF600769
:1043A00007D569462846FFF751FF08212846FFF741
:1043B0008BFF200707D569462846FFF78BFF0821AA
:1043C0002846FFF7B7FF05B030BD000030B50288C2
:1043D000164B174C98420DD0A0420BD0B0F1804F35
:1043E00008D0144DA84205D0134DA84202D0134D59
:1043F000A84203D122F070054A882A43104DA842F2
:1044000006D0104DA84203D022F440750A892A43F1
:1044100002804A68C2620A880285984201D0A0429E
:1044200001D1897A01860121818230BD00000140DD
:10443000000401400004004000080040000C00405F
:104440000010004000140040FCF7B2BD1CB5002075
:10445000009001230246019053219807FFF7C0FD09
:1044600002B00022BDE8104011461C20FDF7D2BE6C
:1044700010B501218C072046FFF7A2FD012211464D
:104480002046FFF75BFE2046BDE810400121FFF704
:104490009DBD10B5FFF7DAFFBDE81040FFF700BD86
:1044A00010B5FFF7E5FFBDE81040FFF70FBD00F0C6
:1044B00039B800003EB54E200821CDE90010154C5A
:1044C00015490290B7EE000A4FF4E1332246481D29
:1044D00000F09EF9012240F22551204601F081F9B9
:1044E000012202214720FDF795FE0C49A5152A4619
:1044F000A1F12800FDF75EF809492A46A1F58A7066
:10450000FDF758F803B02046BDE83040012101F026
:104510006FB800000014014009180240E00C0020B0
:10452000E00D0020012001F025BA000070B50D4615
:104530000646002405E000BF00F006F83055641C74
:10454000E4B2AC42F8D370BD38B500208DF800005D
:104550000C48FDF733F80028FAD10B4D40F22554F2
:1045600000222146284601F03CF90122694605480F
:10457000FDF746F801222146284601F032F99DF860
:10458000000038BDB80C0020001401400148FDF7C0
:104590000FB80000B80C002031B50C48FDF714F836
:1045A0000028FAD10A4D40F22774002221462846FD
:1045B00001F017F9012269460448FDF73BF8012292
:1045C0002146284601F00DF938BD0000CC0C002032
:1045D0000014014070B5194C40F22441204601F00E
:1045E000E1F8002829D0164D2088A088154C00211C
:1045F0002046FCF73BFE2046FCF78DFEC0F1240070
:1046000086B22420211D08602046FCF787FE78B181
:104610002068243520F40020206001212046FCF78A
:1046200025FE122E09D12846BDE87040FFF704BBD5
:10463000206840F400202060EFE770BD00100140CA
:10464000700C0020406402407CB5234D40F2277678
:104650003146284601F0A6F80024C0B11F48FCF7F7
:10466000ADFF38B102B031462846BDE870400022A7
:1046700001F0B7B88DF80040012269461748FCF7F1
:10468000BFFF9DF80010284601F01EF97CBD40F2E6
:104690002551284601F086F80028F7D0284601F079
:1046A0000FF98DF800000D481438FCF78DFF38B174
:1046B0000A488DF80440012201A91438FCF7A0FF34
:1046C0000648012269461438FCF7B4FF9DF8000043
:1046D000FBF7CEFE7CBD0000004400403408002003
:1046E0007CB5234D40F227763146284601F05AF832
:1046F0000024C0B11F48FCF761FF38B102B0314659
:104700002846BDE87040002201F06BB88DF80040EB
:10471000012269461748FCF773FF9DF800102846F0
:1047200001F0D2F87CBD40F22551284601F03AF85C
:104730000028F7D0284601F0C3F88DF800000D4896
:104740001438FCF741FF38B10A488DF804400122C3
:1047500001A91438FCF754FF0648012269461438B1
:10476000FCF768FF9DF80000FCF70AFE7CBD000026
:10477000004800405C0A00207CB5234D40F22776BB
:104780003146284601F00EF80024C0B11F48FCF75E
:1047900015FF38B102B031462846BDE8704000220E
:1047A00001F01FB88DF80040012269461748FCF758
:1047B00027FF9DF80010284601F086F87CBD40F2E6
:1047C0002551284600F0EEFF0028F7D0284601F0DA
:1047D00077F88DF800000D481438FCF7F5FE38B175
:1047E0000A488DF80440012201A91438FCF708FF9B
:1047F0000648012269461438FCF71CFF9DF80000AA
:10480000FFF755FE7CBD000000140140CC0C0020D9
:104810002DE9FF4F0C462DED020B05462DED028BC9
:1048200083B0B0EE408ADDE91576FE49DFF8F893F3
:10483000099809F1040A0AF1040B88427ED1A9F112
:104840000400B0EB152F25D0B9EB152F22D0BAEB11
:10485000152F1FD0BBEB152F1CD00BF10401B1EBB2
:10486000152F17D0091DB1EB152F13D0091DB1EB72
:10487000152F0FD0091DB1EB152F0BD0091DB1EB72
:10488000152F07D0091DB1EB152F03D0091DB1EB72
:10489000152F38D1B0EB142F25D0B9EB142F22D01F
:1048A000BAEB142F1FD0BBEB142F1CD0DE490C31F8
:1048B000B1EB142F17D0091DB1EB142F13D0091D24
:1048C000B1EB142F0FD0091DB1EB142F0BD0091D24
:1048D000B1EB142F07D0091DB1EB142F03D0091D24
:1048E000B1EB142F0FD107212846FCF721FF072138
:1048F0002046FCF71DFFCDE90076B0EE480A2021E6
:10490000149B0A9A6DE0B0EB152F2DD0B9EB152F43
:104910002AD0BAEB152F27D0BBEB152F24D0C24BD2
:104920000C33B3EB152F1FD003F1040EBEEB152F84
:104930001AD00EF10403B3EB152F00E055E013D0AD
:1049400003F1040CBCEB152F0ED00CF10408B8EBEE
:10495000152F09D008F10408B8EB152F04D008F181
:104960000408B8EB152F0BD107212846FCF7E0FE11
:10497000CDE90076B0EE480A7221149B0A9A30E025
:10498000B0EB142F22D0B9EB142F1FD0BAEB142F99
:104990001CD0BBEB142F19D0A3480C30B0EB142F54
:1049A00014D0BEEB142F11D0B3EB142F0ED0BCEBF0
:1049B000142F0BD09C481C30B0EB142F06D0001DD8
:1049C000B0EB142F02D0B8EB142F76D1072120467C
:1049D000FCF7AEFECDE90076149B0A9AB0EE480AC9
:1049E0007421904800F00EFED8E001468F488142C5
:1049F0007DD18D48001FB0EB152F25D0B9EB152FB9
:104A000022D0BAEB152F1FD0BBEB152F1CD0864937
:104A10000C31B1EB152F17D0091DB1EB152F13D0A9
:104A2000091DB1EB152F0FD0091DB1EB152F0BD0C0
:104A3000091DB1EB152F07D0091DB1EB152F03D0C0
:104A4000091DB1EB152F39D1B0EB142F25D0B9EBDF
:104A5000142F22D0BAEB142F1FD0BBEB142F1CD075
:104A600071490C31B1EB142F17D0091DB1EB142F84
:104A700013D0091DB1EB142F0FD0091DB1EB142F6A
:104A80000BD0091DB1EB142F07D0091DB1EB142F6A
:104A900003D0091DB1EB142F10D107212846FCF7D4
:104AA00047FE07212046FCF743FECDE90076B0EE35
:104AB000480A2021149B0A9A6CE0FDE3B0EB152F05
:104AC0002DD0B9EB152F2AD0BAEB152F27D0BBEB81
:104AD000152F24D0544A0C32B2EB152F1FD002F1FF
:104AE000040EBEEB152F1AD00EF1040300E055E0C2
:104AF000B3EB152F13D003F1040CBCEB152F0ED024
:104B00000CF10408B8EB152F09D008F10408B8EB34
:104B1000152F04D008F10408B8EB152F0BD107218D
:104B20002846FCF705FECDE90076B0EE480A722172
:104B3000149B0A9A2EE0B0EB142F20D0B9EB142F5F
:104B40001DD0BAEB142F1AD0BBEB142F17D0B2EB39
:104B5000142F14D0BEEB142F11D0B3EB142F0ED0A2
:104B6000BCEB142F0BD030481C30B0EB142F06D008
:104B7000001DB0EB142F02D0B8EB142F0DD107217C
:104B80002046FCF7D5FDCDE90076149B0A9AB0EEDD
:104B9000480A7421254800F035FDE1E024490998D0
:104BA00088427DD12048001FB0EB152F25D0B9EBEE
:104BB000152F22D0BAEB152F1FD0BBEB152F1CD011
:104BC00019490C31B1EB152F17D0091DB1EB152F79
:104BD00013D0091DB1EB152F0FD0091DB1EB152F07
:104BE0000BD0091DB1EB152F07D0091DB1EB152F07
:104BF00003D0091DB1EB152F41D1B0EB142F2ED0EE
:104C0000B9EB142F2BD0BAEB142F28D0BBEB142FF9
:104C100025D005490C31B1EB142F20D0091DB1EB83
:104C2000142F07E00010014004024000004400403F
:104C30000048004013D0091DB1EB142F0FD0091DFF
:104C4000B1EB142F0BD0091DB1EB142F07D0091DA8
:104C5000B1EB142F03D0091DB1EB142F0FD1072195
:104C60002846FCF765FD07212046FCF761FDCDE9EC
:104C70000076B0EE480A2021149B0A9A6CE0B0EB53
:104C8000152F2CD0B9EB152F29D0BAEB152F26D024
:104C9000BBEB152F23D0DFF878E4BEEB152F00E037
:104CA0005EE01CD00EF10403B3EB152F17D01B1DD3
:104CB000B3EB152F13D003F1040CBCEB152F0ED062
:104CC0000CF10408B8EB152F09D008F10408B8EB73
:104CD000152F04D008F10408B8EB152F0BD10721CC
:104CE0002846FCF725FDCDE90076B0EE480A722192
:104CF000149B0A9A30E0B0EB142F22D0B9EB142F9A
:104D00001FD0BAEB142F1CD0BBEB142F19D0BEEB65
:104D1000142F16D0FE48001DB0EB142F11D0B3EBAA
:104D2000142F0ED0BCEB142F0BD0F9481030B0EB81
:104D3000142F06D0001DB0EB142F02D0B8EB142FA7
:104D40000DD107212046FCF7F3FCCDE90076149B3A
:104D50000A9AB0EE480A7421EE4800F053FCD6E0FF
:104D6000ED48099981427CD1E9481038B0EB152F04
:104D700024D0B9EB152F21D0BAEB152F1ED0BBEBE9
:104D8000152F1BD0E249B1EB152F17D0091DB1EB40
:104D9000152F13D0091DB1EB152F0FD0091DB1EB45
:104DA000152F0BD0091DB1EB152F07D0091DB1EB45
:104DB000152F03D0091DB1EB152F37D1B0EB142FF0
:104DC00024D0B9EB142F21D0BAEB142F1ED0BBEB9B
:104DD000142F1BD0CE49B1EB142F17D0091DB1EB06
:104DE000142F13D0091DB1EB142F0FD0091DB1EBF7
:104DF000142F0BD0091DB1EB142F07D0091DB1EBF7
:104E0000142F03D0091DB1EB142F0FD10821284610
:104E1000FCF78EFC08212046FCF78AFCCDE90076E1
:104E2000B0EE480A2021149B0A9A6CE0B0EB152FD3
:104E30002CD0B9EB152F29D0BAEB152F26D0BBEB10
:104E4000152F23D0DFF8C8E2BEEB152F1ED00EF1D0
:104E50000403B3EB152F19D01B1DB3EB152F15D081
:104E600000E054E003F1040CBCEB152F0ED00CF164
:104E70000408B8EB152F09D008F10408B8EB152F7A
:104E800004D008F10408B8EB152F0BD108212846EF
:104E9000FCF74EFCCDE90076B0EE480A7221149B77
:104EA0000A9A30E0B0EB142F22D0B9EB142F1FD0A8
:104EB000BAEB142F1CD0BBEB142F19D0BEEB142F60
:104EC00016D09348001DB0EB142F11D0B3EB142F64
:104ED0000ED0BCEB142F0BD08D481030B0EB142F3C
:104EE00006D0001DB0EB142F02D0B8EB142F0DD15B
:104EF00008212046FCF71CFCCDE90076149B0A9A99
:104F0000B0EE480A7421844800F07CFBD6E0834868
:104F1000099981427ED17E481038B0EB152F24D0FC
:104F2000B9EB152F21D0BAEB152F1ED0BBEB152FE7
:104F30001BD07749B1EB152F17D0091DB1EB152FF9
:104F400013D0091DB1EB152F0FD0091DB1EB152F93
:104F50000BD0091DB1EB152F07D0091DB1EB152F93
:104F600003D0091DB1EB152F37D1B0EB142F24D08E
:104F7000B9EB142F21D0BAEB142F1ED0BBEB142F9A
:104F80001BD06349B1EB142F17D0091DB1EB142FBF
:104F900013D0091DB1EB142F0FD0091DB1EB142F45
:104FA0000BD0091DB1EB142F07D0091DB1EB142F45
:104FB00003D0091DB1EB142F0FD108212846FCF7AF
:104FC000B7FB08212046FCF7B3FBCDE90076B0EE35
:104FD000480A2021149B0A9A6CE0B0EB152F2CD0C4
:104FE000B9EB152F29D0BAEB152F26D0BBEB152F17
:104FF00023D0DFF81CE1BEEB152F1ED00EF1040309
:10500000B3EB152F19D01B1DB3EB152F15D003F1E2
:10501000040C00E052E0BCEB152F0ED00CF104089C
:10502000B8EB152F09D008F10408B8EB152F04D000
:1050300008F10408B8EB152F0BD108212846FCF71E
:1050400077FBCDE90076B0EE480A7221149B0A9AEC
:1050500030E0B0EB142F22D0B9EB142F1FD0BAEBF5
:10506000142F1CD0BBEB142F19D0BEEB142F16D06D
:105070002748001DB0EB142F11D0B3EB142F0ED026
:10508000BCEB142F0BD022481030B0EB142F06D0FD
:10509000001DB0EB142F02D0B8EB142F0DD1082156
:1050A0002046FCF745FBCDE90076149B0A9AB0EE4A
:1050B000480A7421194800F0A5FAE1E01849099856
:1050C00088427DD112481038B0EB152F2FD0B9EBA4
:1050D000152F2CD0BAEB152F29D0BBEB152F26D0CE
:1050E0000B49B1EB152F22D0091DB1EB152F1ED0A6
:1050F000091DB1EB152F1AD0091DB1EB152F16D0D4
:10510000091DB1EB152F12D0091DB1EB152F09E0C8
:105110001002400000480040004C00400050004099
:105120000014014003D0091DB1EB152F37D1B0EBAE
:10513000142F24D0B9EB142F21D0BAEB142F1ED08A
:10514000BBEB142F1BD0FE49B1EB142F17D0091D58
:10515000B1EB142F13D0091DB1EB142F0FD0091D83
:10516000B1EB142F0BD0091DB1EB142F07D0091D83
:10517000B1EB142F03D0091DB1EB142F0FD108216F
:105180002846FCF7D5FA08212046FCF7D1FACDE9EC
:105190000076B0EE480A2021149B0A9A6CE0B0EB2E
:1051A000152F2CD0B9EB152F29D0BAEB152F26D0FF
:1051B000BBEB152F23D0DFF888E3BEEB152F00E003
:1051C0005EE01CD00EF10403B3EB152F17D01B1DAE
:1051D000B3EB152F13D003F1040CBCEB152F0ED03D
:1051E0000CF10408B8EB152F09D008F10408B8EB4E
:1051F000152F04D008F10408B8EB152F0BD10821A6
:105200002846FCF795FACDE90076B0EE480A7221FF
:10521000149B0A9A30E0B0EB142F22D0B9EB142F74
:105220001FD0BAEB142F1CD0BBEB142F19D0BEEB40
:10523000142F16D0C248001DB0EB142F11D0B3EBC1
:10524000142F0ED0BCEB142F0BD0BD481030B0EB98
:10525000142F06D0001DB0EB142F02D0B8EB142F82
:105260000DD108212046FCF763FACDE90076149BA6
:105270000A9AB0EE480A7421B24800F0C3F9D3E0AC
:10528000B148099981427DD1AD481038B0EB152F56
:1052900026D0B9EB152F23D0BAEB152F20D0BBEBBE
:1052A000152F1DD0A649B1EB152F19D0091DB1EB53
:1052B000152F15D0091D00E01CE1B1EB152F0FD003
:1052C000091DB1EB152F0BD0091DB1EB152F07D020
:1052D000091DB1EB152F03D0091DB1EB152F37D1E7
:1052E000B0EB142F24D0B9EB142F21D0BAEB142F2C
:1052F0001ED0BBEB142F1BD09149B1EB142F17D04C
:10530000091DB1EB142F13D0091DB1EB142F0FD0D1
:10531000091DB1EB142F0BD0091DB1EB142F07D0D1
:10532000091DB1EB142F03D0091DB1EB142F0FD1C0
:1053300008212846FCF7FCF908212046FCF7F8F97B
:10534000CDE90076B0EE480A2021149B0A9A69E064
:105350008646B0EB152F2BD0B9EB152F28D0BAEB22
:10536000152F25D05846BBEB152F21D07449B1EB32
:10537000152F1DD00A1DB2EB152F19D0131DB3EB3D
:10538000152F00E050E013D003F1040CBCEB152FF7
:105390000ED00CF10408B8EB152F09D008F1040B5E
:1053A000BBEB152F04D00BF10408B8EB152F0BD174
:1053B00008212846FCF7BCF9CDE90076B0EE480A92
:1053C0007221149B0A9A2DE0BEEB142F1FD0B9EB6B
:1053D000142F1CD0BAEB142F19D0B0EB142F16D009
:1053E000B1EB142F13D0B2EB142F10D0B3EB142F5A
:1053F0000DD0BCEB142F0AD051481030B0EB142F55
:1054000005D0BBEB142F02D0B8EB142F72D10821BA
:105410002046FCF78DF9CDE90076149B0A9AB0EE90
:10542000480A74214848A9E048480999814261D155
:1054300043481038B0EB152F24D0B9EB152F21D0ED
:10544000BAEB152F1ED0BBEB152F1BD03C49B1EB8F
:10545000152F17D0091DB1EB152F13D0091DB1EB76
:10546000152F0FD0091DB1EB152F0BD0091DB1EB76
:10547000152F07D0091DB1EB152F03D0091DB1EB76
:10548000152F38D1B0EB142F24D0B9EB142F21D025
:10549000BAEB142F1ED0BBEB142F1BD02849B1EB55
:1054A000142F17D0091DB1EB142F13D0091DB1EB28
:1054B000142F0FD0091DB1EB142F0BD0091DB1EB28
:1054C000142F07D0091DB1EB142F03D0091DB1EB28
:1054D000142F10D108212846FCF72AF9082120466C
:1054E000FCF726F9CDE90076B0EE480A2021149B9E
:1054F0000A9A42E044E08646B0EB152F32D0B9EB71
:10550000152F2FD0BAEB152F2CD05846BBEB152FEB
:1055100028D00B49B1EB152F24D00A1DB2EB152F63
:1055200020D0131DB3EB152F1CD003F1040CBCEBE2
:10553000152F17D00CF1040BBBEB152F12D007E081
:10554000100240000014014000780040007C004040
:105550000BF10408B8EB152F04D008F10408B8EBE0
:10556000152F13D108212846FCF7E2F8CDE9007683
:10557000149B0A9AB0EE480A72211B4800F042F8C8
:1055800003B0BDEC028B06B0BDE8F08FBEEB142F6C
:105590001ED0B9EB142F1BD0BAEB142F18D0B0EBE0
:1055A000142F15D0B1EB142F12D0B2EB142F0FD053
:1055B000B3EB142F0CD0BCEB142F09D0BBEB142F82
:1055C00006D00A48B0EB142F02D0B8EB142FD7D175
:1055D00008212046FCF7ACF8CDE90076B0EE480A89
:1055E0007421149B0A9AC8E7007C00402402400002
:1055F0000029818902D041F4005101E021F40051D9
:10560000818170472DE9FF4F0E462DED020B0446B8
:10561000584A59485949DFF86881DFF86891DFF83E
:1056200068A1DFF868B194422DED028B85B0B0EE31
:10563000408ADDE9167504D101211020FEF754FAE5
:105640002EE0844204D101214804FEF741FA06E02D
:105650008C4204D101218804FEF73AFA06E0444561
:1056600004D10121C804FEF733FA06E04C4504D109
:1056700001210805FEF72CFA06E0544504D101216A
:105680002020FEF731FA04E05C4502D101218807B1
:1056900004E03F48844203D101214005FEF718FA97
:1056A000722E3BD0522E39D0742E39D0542E37D092
:1056B0005FF00C00ADF80A000B9800900C9A0020E7
:1056C0004FF48051092A2DD0ADF804006F2F2CD053
:1056D0004F2F2AD0652F2BD0452F29D0ADF80800A9
:1056E00018EE102AB2F17C5F2CD018EE101AB1F12E
:1056F0007F5F22D018EE101AB1F1804F20D0ADF8A4
:105700000600722D21D0522D1FD0632D20D0432DA5
:105710001ED0612D1FD0412D1DD01EE00420C9E7F1
:105720000820C7E7ADF80410D0E74FF4C06201E0ED
:105730004FF48062ADF80820D2E74FF4405101E009
:105740004FF40051ADF80610DBE74FF4807004E031
:105750004FF4007001E04FF44070ADF80C00694662
:10576000204600F057F805B0BDEC028B06B0BDE84E
:10577000F08F00000010014000440040004800404D
:10578000004C0040005000400014014000780040F0
:10579000007C0040002A828A01D00A4300E08A434C
:1057A0008282704730B501F01F0201240025C1F349
:1057B000421304FA02F2012B0FD0022B0FD0838A7E
:1057C0004FEA11210088134204FA01F400EA0400B0
:1057D00001D000B10125284630BD8389F0E7038A56
:1057E000EEE710B5C1F3421301F01F040121A140FF
:1057F000012B07D0022B07D01430002A026805D0F5
:105800000A4304E00C30F8E71030F6E78A43026000
:1058100010BD00007FB50446008A0D4620F44051BB
:10582000E88808432082A08941F20C618843A98856
:105830002A8911436A8902431143A181A08A20F475
:105840004071A8890843A0826846FEF759F91A48B2
:10585000844202D01948844201D1039800E00298A2
:10586000A189090400EBC00101EB0010296801D5F2
:10587000490000E08900B0FBF1F26420B2FBF0F1D6
:1058800009010B096FF018056B4302EB8302A38932
:105890001D044FF0320306D503EBC202B2FBF0F059
:1058A00000F0070005E003EB0212B2FBF0F000F09D
:1058B0000F00084320817FBD00100140001401400B
:1058C0008088C0F308007047C1F3080181807047E9
:1058D00010B5FCF7DFFABDE81040FBF743BC10B58C
:1058E00000F094F860B1012804D002280CD00328FD
:1058F00016D10FE000F084F8012801D0FFF7E8FF8F
:10590000BDE81040FAF714BD00F07AF8032801D181
:10591000FFF7DEFFFBF780FCBDE81040FAF71CBD87
:1059200010BDFEE703494978022901D1FAF7BCBC52
:1059300070470000DC00002003494978022901D1AA
:10594000FBF7BCBD70470000DC000020034949782C
:10595000022901D1FCF766B970470000DC00002085
:1059600003494978022901D1FEF764B97047000064
:10597000DC000020024A002142F82010704700009D
:10598000F0000020084A0949002000BF52F82030EA
:1059900041F82030401C0C28F8D304494FF0FF3068
:1059A000091F086070470000545E0008F0000020E6
:1059B0000149096808407047EC000020F0B50E4D21
:1059C00000200E4E2B1DD5F80010012253F8204068
:1059D00056F82070BC4203D302FA00F4214305E0DC
:1059E00002FA00F7B943641C43F82040401C0C281D
:1059F000ECD32960F0BD0000EC000020545E0008EC
:105A000001484078704700002001002001480078DC
:105A10007047000020010020024800210170417001
:105A2000704700002001002070B5154C012540F2A0
:105A3000C1302178617051B1002601290CD00229B2
:105A400001D0032907D1FFF7B3FF40B914E0FFF7F6
:105A5000AFFF0EE0257070BDFFF7AAFF08B12670FA
:105A600070BD1E20FCF7EEF80028F9D0022020704F
:105A700070BD0028EED070BD1E20FCF7E3F8F8E7FB
:105A8000200100200160C36883601168D27809BAE0
:105A900021F0FF011143C1608288642A02D2521CA6
:105AA00001618280CA1A00EE102AF2EE040A4261F5
:105AB000B8EEC00A20EE200ADFED110A80ED070AD9
:105AC00000EE102AB8EEC00A20EE200ADFED0D0A23
:105AD00080ED080A0269891A00EE101A8161B8EE99
