:020000040800F2
:1000000080100020C1010008791F0008BB1B0008F8
:10001000CB1D000829090008B753000800000000A4
:10002000000000000000000000000000BB380008D5
:10003000A11500080000000019360008D9010008C9
:10004000DB010008DB010008DB010008DB01000820
:10005000DB010008DB010008DB010008DB01000810
:10006000DB010008DB010008DB010008DB01000800
:10007000DB010008DB010008DB010008DB010008F0
:10008000DB010008DB010008DB0100087109000842
:100090002D090008DB010008DB010008DB01000876
:1000A000DB010008DB010008DB010008DB010008C0
:1000B000553A0008DB010008DB010008DB010008FD
:1000C000DB010008DB010008DB010008DB010008A0
:1000D000DB0100087D40000801410008994100084B
:1000E000DB010008DB010008DB010008DB01000880
:1000F000DB010008DB010008DB010008DB01000870
:10010000DB010008DB010008DB010008DB0100085F
:10011000DB010008DB010008813A0008DB01000870
:10012000DB010008DB010008DB010008DB0100083F
:10013000DB010008DB010008DB010008D909000829
:1001400095090008DB010008DB010008DB0100085D
:10015000DB010008DB010008DB0100083142000878
:10016000DB010008DB010008DB010008DB010008FF
:10017000DB010008DB010008DB01000800000000D3
:10018000DB010008DB010008DB010008DB010008DF
:10019000DB010008DB010008DB010008DB010008CF
:1001A0000000000000000000DB010008DFF80CD0B8
:1001B00000F098FA00480047D55D00088010002044
:1001C0000648804706480047FEE7FEE7FEE7FEE7F1
:1001D000FEE7FEE7FEE7FEE7FEE7FEE7F939000887
:1001E000AD01000840EA01039B0703D009E008C9FC
:1001F000121F08C0042AFAD203E011F8013B00F8EC
:10020000013B521EF9D27047D2B201E000F8012B37
:10021000491EFBD270470022F6E710B513460A4686
:1002200004461946FFF7F0FF204610BD2DE9FE4FAA
:1002300081EA030404F0004421F0004100944FF0EF
:10024000000B23F0004350EA01045ED052EA03049D
:100250005BD0C3F30A54C1F30A552C44A4F2F3341F
:100260000194A0FB0254C1F3130141F48011C3F3C4
:10027000130343F4801301FB024400FB034E840A82
:10028000970A44EA815447EA8357A4FB076802951A
:100290008D0A05FB07854FEA932C04FB0C542705B8
:1002A000029D4FEA065847EA1637B5EB08056EEB94
:1002B000070C870E920E47EA811742EA8312A7FBCA
:1002C0000201B6EB0B0164EB00042B0D43EA0C3387
:1002D0005E1844EB1C50DA465146E7FB0201C5F3B9
:1002E00013044FEA0B3343EA14534FEA0432019CE0
:1002F00043EA0603A4F10C040294009CCDE900B487
:1003000000F0CBF803B0BDE8F08F00200146F9E71C
:100310002DE9F04D81EA030404F0004B21F0004583
:1003200014464FF0000A23F0004150EA050220D0A5
:1003300054EA01021DD0C5F30A570246C5F3130360
:10034000C1F31300C1F30A5640F4801543F480133F
:10035000A7EB0608101BD64608F2FD3873EB050024
:1003600002D308F1010801E092185B41B8F1000FD7
:1003700003DA00200146BDE8F08D00204FF4801123
:10038000064684460EE0171B73EB050705D3121BC8
:1003900063EB050306434CEA010C49084FEA3000C1
:1003A00092185B4150EA0107EDD152EA030012D0E6
:1003B00082EA040083EA0501084305D0101BAB4123
:1003C00006D20122002306E000224FF0004302E0A3
:1003D0006FF0010253101AEB06004CEB085110EBC2
:1003E0000A0041EB0B01BDE8F04D00F047B830B515
:1003F0000B46014600202022012409E021FA02F5E3
:100400009D4205D303FA02F5491B04FA02F528447C
:10041000151EA2F10102F1DC30BD2DE9F05F0546A9
:10042000002092469B4688460646814640241BE0B3
:10043000284641464746224600F075F953465A463B
:10044000C01A914110D311461846224600F05CF9BB
:100450002D1A67EB01084F4622460120002100F0CB
:1004600053F917EB00094E41201EA4F10104DFDC13
:10047000484631462A464346BDE8F09F10B5141E53
:1004800073F1000408DA401C41F1000192185B414D
:100490001A4301D120F0010010BD2DE9F04D924624
:1004A0009B4611B1B1FA81F202E0B0FA80F220323B
:1004B000904600F029F904460F4640EA0A0041EA56
:1004C0000B0153465A46084313D0114653EA010024
:1004D00019D0C8F14002504600F025F905460E46F5
:1004E00050465946424600F00FF9084305D0012016
:1004F00004E020463946BDE8F08D0020054346EA79
:10050000E0762C4337430A986305E40AA0EB080021
:100510000022FD0A44EA47540A3002D50020014671
:10052000E9E7010510196941DDE90845001969414C
:10053000BDE8F04DA2E72DE9FE4F804681EA0300B9
:10054000C00F0C46009021F0004123F00045B8EBAD
:100550000200A94105D24046214690461C460B4662
:10056000024623F00040104347D0270DC7F30A008E
:10057000C3F30A510290401A019040286BDAC3F38A
:10058000130040F4801B0098924620B10023D2EB68
:10059000030A63EB0B0B01985946C0F14002504629
:1005A00000F0B2F806460D4650465946019A00F052
:1005B000CAF810EB08006141002487EA115284EA6E
:1005C000E7731A4340D0009A62B3019A012A4FEAB6
:1005D000075215DC001B61EB02014FF0004202EAFA
:1005E0000752CDE90042001C41F5801132462B46EE
:1005F000FFF753FF03B0BDE8F08F40462146F9E70F
:10060000001B61EB0201001C41F5801300185B41E7
:100610002018A2F5001747EB030140EAD570B61980
:100620006D4111E06D084FEA360645EAC0754FEAA4
:100630000752001B61EB0201001C41F580114908C3
:100640004FEA30000019514132462B4603B0BDE855
:10065000F04FFFF713BF0098012240000023D0EBBA
:10066000020263EBE073009821464FEAE074B8EBB6
:10067000000061EB0401E9E783F000435BE781F0F0
:10068000004158E7C1F30A52C1F3130140F2FF33AE
:1006900041F480119A4202DA00200146704740F28C
:1006A00033439A42A2F2334202DC524200F03BB89A
:1006B00000F02AB830B5041E71F1000404DB4FF0DD
:1006C0000044404264EB0101141E73F1000405DB99
:1006D0001C464FF00043524263EB0403994208BFAB
:1006E000904230BD064C074D06E0E06840F0010343
:1006F00094E8070098471034AC42F6D3FFF75AFD50
:100700006C5F00088C5F0008202A04DB203A00FAA6
:1007100002F1002070479140C2F1200320FA03F358
:10072000194390407047202A04DB203A21FA02F056
:100730000021704721FA02F3D040C2F1200291401B
:10074000084319467047202A06DBCB17203A41FAA6
:1007500002F043EAE07306E041FA02F3D040C2F14E
:100760002002914008431946704770B58C1810F864
:10077000015B15F0070301D110F8013B2A1106D1E6
:1007800010F8012B03E010F8016B01F8016B5B1E00
:10079000F9D12B0705D40023521E0DD401F8013BDB
:1007A000FAE710F8013BCB1A921C03E013F8015B47
:1007B00001F8015B521EF9D5A142D8D3002070BDCB
:1007C00038B50020074C03460246014600902046FB
:1007D00000F08AFB2046BDE838400022114600F0B8
:1007E0008BBF00000064004010B500F08BFCFFF7E9
:1007F000E7FF00F005FD00F03BFD00F03BFD01F0E0
:1008000013FA01F033FA04F0CFFD04F0DDFDBDE88A
:10081000104004F0F9BD000010B54FF4A06001F0E5
:10082000EDFB00F01DF800F079F800F033FE01F068
:1008300055FA02F0F3FE02F0D9FF03F0B1FB03F02A
:10084000BFFB00F07DFB00F0B5FBBDE810404FF4AE
:100850008041014801F086B80014024000F038B829
:100860003EB54E200821CDE90010154C15490290E7
:10087000B7EE000A4FF416532246481C03F024FD3D
:10088000012240F22551204604F018FD01220221E8
:10089000262001F072FB0C49A5152A46A1F128007B
:1008A00000F0C4FE09492A46A1F58A7000F0BEFE98
:1008B00003B02046BDE83040012104F0FEBB00003B
:1008C00000440040050C0240E8050020E806002036
:1008D000022004F071BD000038B500208DF8000042
:1008E0000C4800F0A7FE0028FAD10B4D40F2255429
:1008F00000222146284604F0E1FC01226946054811
:1009000000F0A6FE01222146284604F0D7FC9DF8FF
:10091000000038BDC005002000440040014800F040
:10092000AFBF00000A0C0240FEE7000010B50E4CFD
:1009300086B00221204600F06DF9002811D0042174
:10094000204600F073F80949204600F057F86A463F
:100950000021204600F02EFA0DF10B01009800F066
:10096000EDFA06B010BD000000640040080000323F
:1009700010B5074C0121204600F04CF9002805D0A5
:100980002046BDE81040012100F050B810BD000025
:100990000064004010B50E4C86B00221204600F0E5
:1009A00039F9002811D00221204600F03FF809490A
:1009B000204600F023F86A460021204600F0FAF9AC
:1009C0000DF10B01009800F0F3FA06B010BD000025
:1009D000006800400800003210B5074C0121204695
:1009E00000F018F9002805D02046BDE8104001218C
:1009F00000F01CB810BD0000006800400A4A914297
:100A000002D1002181617047C1F313028B0101D52E
:100A1000C26070474B0101D502617047090101D5E1
:100A200082607047426070477000F03030B5082334
:100A300010240422B1F5007F1DD010DC202929D01C
:100A400007DC012921D0042922D0082900D1C46063
:100A500030BD402920D0B1F5807FF9D10BE00025D1
:100A6000B1F5004F06D008DCB1F5806F03D0B1F5C9
:100A7000006FEDD18561426030BDB1F5803F0DD092
:100A8000B1F5003FF8D1446030BD0549816030BD0B
:100A9000C36030BD036130BD046130BD436030BD13
:100AA000010101002DE9FE430F460446DDE90A89F4
:100AB000154916481D4616468C4202D101214806AA
:100AC00003E0844203D10121880602F0D9FD002110
:100AD0008DF804808DF808108DF805908DF80A10B7
:100AE000ADF800708DF8061001208DF802608DF8C9
:100AF00007108DF80B008DF803506946204600F072
:100B0000E5F8BDE8FE830000006400400068004096
:100B1000F0B5827A012191402E4A136843F0010317
:100B200013602C4B1C331C688C431C60294D067BC6
:100B3000294C0C35A6B92E688E432E604688C7888E
:100B400046EA0746877A04EBC707C7F84066068877
:100B5000878846EA0746877A04EBC707C7F84466E2
:100B6000067B012E12D12E680E432E60867A056810
:100B700004EBC6064FEA3545C6F84056867A456806
:100B800004EBC6044FEA3545C4F84456114CC57A07
:100B9000241D002D256806D00D4325600D4C0589C8
:100BA000143415B104E08D43F7E725688D432560C3
:100BB0000589012D02D125680D432560407B012860
:100BC00002D1186808431860106820F00100106016
:100BD000F0BD000000660040006000407FB5DDE928
:100BE0000845ADF80000ADF808408DF80A50002027
:100BF0008DF80B0001208DF80C00ADF804208DF865
:100C00000D00ADF80210ADF806306846FFF780FF22
:100C10007FBD00000246002053690B424AD0B1F567
:100C2000807F3BD013DC08292ED007DC012926D099
:100C3000022927D004293DD1D0682BE0102925D0E6
:100C4000202926D0402935D11069102130E0B1F596
:100C5000004F2BD00BDCB1F5007F22D0B1F5806FB7
:100C600022D0B1F5006F25D19069702120E0B1F557
:100C7000803F11D0B1F5003F1CD15068E5E7906886
:100C80000D4915E0D06802E0D068DEE71069032165
:100C90000EE0106908210BE05068FBE79069012124
:100CA00006E09069022103E0906900E050680421A9
:100CB00000F099BA7047000001010100002A426962
:100CC00001D00A4300E08A434261704710B50368CF
:100CD000002223F002030360036843F00103036072
:100CE0004FF6FF7300E0521C4468E40701D19A42BA
:100CF000F9D14268D2073ED08A79012A02683CD0F5
:100D000022F080020260CA79012A026838D022F0FB
:100D1000400202600A7A012A026834D022F02002DE
:100D200002604A7A012A026830D022F01002026082
:100D30008A7A012A02682CD022F008020260CA7A5C
:100D4000012A026828D022F0040202608A78CC7856
:100D5000920742EA04620C7942EA04424C7909881B
:100D600042EA0452491E0A43C261016821F00101AE
:100D70000160002114E0002010BD42F08002C1E7B4
:100D800042F04002C5E742F02002C9E742F01002FB
:100D9000CDE742F00802D1E742F00402D5E7491C52
:100DA0004268D20701D09942F9D14068C007E2D128
:100DB000012010BD10B500EB0113D3F8B04114F0C1
:100DC00004041472D3F8B04134D0E408C2F80440EB
:100DD000D3F8B04104F002045472D3F8B44104F0E3
:100DE0000F049472D3F8B441240AD474D3F8B841F0
:100DF000D472D3F8B841240A1473D3F8B841240C40
:100E00005473D3F8B841240E9473D3F8BC41D4730F
:100E1000D3F8BC41240A1474D3F8BC41240C547494
:100E2000D3F8BC311B0E937439B1016941F0200134
:100E3000016110BD640D1460CAE7C16841F0200172
:100E4000C16010BD30B50246002093685B0108D434
:100E50009068000101D5012003E09068C00037D5FB
:100E6000022002EB0012D2F8803103F00103C2F835
:100E700080310B7A73B3D2F880414D681C434B7AB2
:100E800043EAC5031C43C2F880418B7A03F00F0389
:100E90008B72D2F8843123F00F03C2F88431D2F878
:100EA00084318C7A2343C2F88431CB7ACC6843EA0C
:100EB0000423C2F88831CB7B096943EA0121C2F8D7
:100EC0008C11D2F8801141F00101C2F8801130BDBF
:100ED000042030BDD2F880314C7A23430C8843EA99
:100EE0004453C2F88031D0E730B585B04FF4007577
:100EF000009500258DF808508DF8095008258DF8CB
:100F00000A50089C0D0A8DF80C10110A8DF80D106E
:100F10008DF80E20190A8DF80F108DF81030210A67
:100F20008DF811108DF80B508DF812406946FFF7BF
:100F300089FF05B030BD80EC030A704700F08AB825
:100F40001CB50921184800F0FBFB17480921401C7B
:100F500000F0F6FB01221146142001F00EF80122E8
:100F60000021132001F009F8032108200F4C002371
:100F7000CDE900011A462046FFF794FD00210091BB
:100F80000B460A4608460191FFF728FE012202217E
:100F90002046FFF793FE02B020460122BDE8104034
:100FA0001146FFF78BBE0000000C024000640040B9
:100FB00000F050B81CB50921184800F0C1FB1748D3
:100FC0000921401C00F0BCFB01220221402000F05E
:100FD000D4FF012211463F2000F0CFFF032108205B
:100FE0000F4C0023CDE900011A462046FFF75AFDB9
:100FF00000200E21CDE90001034602460146FFF71D
:10100000EDFD012202212046FFF758FE02B02046E6
:101010000122BDE810401146FFF750BE0C0402400B
:101020000068004070B50A4D002400BF04EB840046
:1010300000EBC40005EBC00000F076FF641CE4B2D6
:10104000062CF3D3BDE870400148283804F028BAD4
:101050006801002010B50C46B0F5017F2FD00DDCE3
:10106000A0F5007001381CD0012821D002283DD104
:10107000082004F0A1F921461D4833E0A0F50070D6
:10108000053823D0012828D0B0F5FE7F2ED10520C9
:1010900004F092F921461648BDE81040F83804F0F3
:1010A000BBB9062004F088F911482146D03819E070
:1010B000072004F081F90E482146683812E0092023
:1010C00004F07AF90A48214668300BE00A2004F05F
:1010D00073F907482146D03004E00B2004F06CF986
:1010E00004482146BDE8104000F070BE10BD00006D
:1010F00038020020700300200146014800F0E5BAE4
:101100000400002010B5A6B0942233496846FFF7CA
:1011100069F8324800F064F80120FFF7EDFF28B9C4
:101120002E481822083002A9FFF75CF80220FFF7CA
:10113000E3FF2A4C30B908AB93E8070004F1200321
:1011400083E807000420FFF7D7FF18B9DDE90B019A
:10115000C4E90B010820FFF7CFFF28B91F48202260
:1011600034300DA9FFF73EF81020FFF7C5FF18B97E
:10117000BDF85400A4F854002020FFF7BDFF28B9A3
:1011800016481422583016A9FFF72CF84020FFF714
:10119000B3FF38B90DF16C0C9CE80F0004F16C0C36
:1011A0008CE80F008020FFF7A7FF28B91FAB7C3425
:1011B00093E8070084E807004FF48070FFF79CFF76
:1011C000002806D122AC054894E80E00883080E85B
:1011D0000E0026B010BD0000145E000800000020C4
:1011E000942100F081BA024600200A4200D001207A
:1011F000704700000148006870470000940000201C
:1012000001490020086070479400002002480168EE
:10121000491C0160704700009400002010B52DEDBE
:10122000028B00F095F903210E4800F048FA9FED7B
:101230000E8A0E48B0EE481AF0EE480AB0EE480AA0
:10124000FFF779FEF0EE481AB0EE481AF0EE480AC1
:10125000B0EE480ABDEC028B0448BDE810400C30EB
:1012600000F054BD9800002000000000D8030020CA
:101270007047000010B5FFF7D1FF00F0C9FE274806
:1012800000F016FF2548283000F012FF23485030A8
:1012900000F00EFF2148783000F00AFF204802F0ED
:1012A00001FB1F48083002F0FDFA1D48103002F023
:1012B000F9FA1B48183002F0F5FA184800F000FF60
:1012C0001648283000F0FCFE1448503000F0F8FEBC
:1012D0001248783000F0F4FE114802F0EBFA1048A2
:1012E000083002F0E7FA0E48103002F0E3FA0C483A
:1012F000183002F0DFFA0A480321001F00F0DFF97E
:101300009FED080A0548BDE81040F0EE401AB0EE27
:10131000401AF0EE400AA03000F0F8BCF4030020C0
:10132000A00000200000000070B50D46044602F049
:1013300009FAA91D04F10A00BDE8704000F020BCC4
:1013400010B5044602F026FA04F10A00BDE8104088
:1013500000F025BC0029016802D041F0010101E044
:1013600021F00101016070472DE9F0438FB0044680
:10137000DDE9168915481D4616460F46A04303D1E0
:101380000121480502F070F91148A04303D1012161
:10139000880502F069F900214FF48060CDE905105D
:1013A0008010CDE9081000020791CDE90A010C91E7
:1013B0000D910E9102AA694682E82003CDE90076DC
:1013C000204600F027F80FB0BDE8F083006002402F
:1013D000006402400029016802D041F4802101E04C
:1013E00021F4802101607047002A026802D042F493
:1013F000002201E022F4002202600161704740688F
:1014000080B27047014600200968090300D5012019
:101410007047000030B50368124ACC6813400A6870
:101420002243D1E905452C432243CC6922430C6A6F
:1014300022434C6A22438C6A22434C6B22438C6BBE
:1014400022431A430260426922F00703D1E90B24C8
:1014500022431A4342610A6942604A68826089688D
:10146000C16030BD3F801CF008B5B0F9501000914C
:1014700030F9483FC268416801A004F025F808BD72
:1014800025640925640925640925640A0000000013
:1014900000F038B83EB54E200821CDE90010154CBB
:1014A00015490290B7EE000A4FF4E1332246481C7A
:1014B00002F00AFF012240F22551204603F0FEFE11
:1014C00002220121272000F058FD0C49A5152A46CB
:1014D000A1F1280000F0AAF809492A46A1F58A706E
:1014E00000F0A4F803B02046BDE83040012103F02D
:1014F000E4BD000000480040080C02401008002035
:1015000010090020032003F057BF000038B5002069
:101510008DF800000C4800F08DF80028FAD10B4D32
:1015200040F2255400222146284603F0C7FE01223E
:101530006946054800F08CF801222146284603F050
:10154000BDFE9DF8000038BDE807002000480040BF
:1015500010B502F033F900F031FBBDE8104001484E
:10156000FFF7EEBEA404002010B5044600F0E8FA30
:10157000204600F0D3FA09484078012807D0032814
:101580000AD104F10A00BDE8104000F043BB204638
:10159000BDE8104002F026B910BD0000E0000020B8
:1015A000704780EC020A00F025B8D0ED020A90EDF9
:1015B000031AD0ED001A30EE811AD0ED050A70EE54
:1015C000A10AD0ED011A30EE410A30EEA12AC0EE98
:1015D000821AC0ED041A20EE210A80ED030A31EED2
:1015E000000A20EEA01A80ED020A41EE610AC0ED69
:1015F000050A70479FED050A80ED020A80ED030A97
:1016000080ED040A80ED050A70470000000000002C
:1016100080ED020A704710B50446D4E90001FEF7D8
:10162000FAFD0020A060E060206110BDC0E900125A
:10163000FFF7F1BF006908B1002070470120704733
:1016400001694068814201D1012070470020704744
:10165000F0B500231D460EE084680768661C8660AE
:101660003C5DCC54D0E90146A64200D185600469B6
:10167000641E5B1C0461934202D20469002CEBD10E
:101680001846F0BDF0B500231D4610E0C468076899
:10169000CE5C04F1010CC0F80CC03E554668C4682D
:1016A000B44200D1C5600469641C5B1C04619342B0
:1016B00003D246680469B442E8D11846F0BDAFF3DE
:1016C000008002688A4302607047006808407047E3
:1016D00010B5002304E00446401C2478CC545B1C65
:1016E0009342F8D310BD00000A4601460148FFF7B7
:1016F000EFBF000000000E0810B586B040F2FF13E7
:10170000009300238DF808308DF8093008248DF8F7
:101710000A400C0A8DF80C10110A8DF80D108DF886
:1017200010308DF80E208DF811308DF80B408DF8AB
:101730000F308DF812306946FFF784FB06B010BDFC
:1017400038B5044600200D4603460222009011469B
:10175000204600F009F804F00F0124F0FF002A46AB
:10176000BDE8384000F0EEB82DE9FF4F054620F007
:10177000FF04384A38483949394E3A4FDFF8E88093
:10178000DFF8E890DFF8E8A0DFF8E8B083B0944233
:1017900002D1012108463CE0844204D1012102200B
:1017A00001F062FF06E08C4204D10121042001F027
:1017B0005BFF06E0B44204D10121082001F054FF90
:1017C00006E0BC4204D10121102001F04DFF06E0EB
:1017D000444504D10121202001F046FF06E04C459C
:1017E00004D10121402001F03FFF06E0544504D11F
:1017F0000121802001F038FF06E05C4504D1012181
:10180000080201F031FF07E01B48844204D10121A6
:10181000401501F029FF05E01848844202D101215A
:101820000015F6E705F00F010120884000900498AC
:101830008DF8040005988DF8050006988DF80600CF
:1018400010988DF807006946204600F021F807B08F
:10185000BDE8F08F00000240000402400008024092
:10186000000C024000100240001402400018024028
:10187000001C0240002002400024024000280240D8
:1018800008B50021012302220091FFF76DFF08BD7A
:10189000F0B50023012403270D6804FA03F2154074
:1018A000954242D1D0F800C05E0007FA06F52CEA56
:1018B000050CC0F800C091F804C0D0F800E00CFAA4
:1018C00006FC4CEA0E0CC0F800C091F804C0BCF154
:1018D000010F02D0BCF1020F1FD1D0F808C02CEAD2
:1018E000050CC0F808C091F805C0D0F808E00CFA63
:1018F00006FC4CEA0E0CC0F808C0D0F804C02CEA74
:10190000020CC0F804C0426891F806C00CFA03FC4F
:101910001FFA8CFC42EA0C024260C268AA43C26011
:10192000CA79C568B2402A43C2605B1C102BB3D38E
:10193000F0BD08B500210B46009102220121FFF7FE
:1019400013FF08BD4B07DB0E9A40C90810B500EB2A
:101950008100016A0F249C40A1430162016A114386
:10196000016210BD418370470183704710B52B4A57
:10197000B6EE000A2DED048B017AD2ED168ACB0665
:1019800092ED178A92ED182A002B01DB68EE808A0F
:1019900002DB00BF28EE008A01DB22EE002A9FED69
:1019A000200A4A0702D5F1EE688A03E00A0701D44B
:1019B000F0EE408A8A0702D5B1EE488A03E0C907F3
:1019C00001D1B0EE408AB0F90000F1EE421A00EE0B
:1019D000100A9FED141ADFED140AB8EEC00A04F0E5
:1019E0000BFAB0EE409AB0EE680A104800F095F994
:1019F0000F4C0E4884ED000AB0EE480A103000F09B
:101A00008CF90A4884ED010AB0EE490A203000F052
:101A100084F984ED020ABDEC048B10BD00000020A7
:101A20000000000000FEFF46000000C7BC040020CC
:101A3000D803002070B504462DED028B1D4D0088A3
:101A40009FED1D8A95ED162A00EE100ADFED1B8A28
:101A5000F1EE421AB8EE400AB0EE481AF0EE680A0B
:101A600004F0CAF9164EB0EE481AF0EE680A86ED98
:101A7000000A608895ED172A00EE100AF1EE421A6E
:101A8000B8EE400A04F0B8F986ED010AA08895ED99
:101A9000182A00EE100AB0EE481AF1EE421AB8EE1B
:101AA000400AF0EE680A04F0A7F986ED020ABDECE0
:101AB000028B70BD000000200080D2440000B643BD
:101AC000D8030020F0B5144A0021141F231F0F462D
:101AD000801D655C465CAE4209D152F821500A2D4A
:101AE00003D26D1C42F8215003E05E5401E042F83D
:101AF0002170455C6554491C0229EAD3064900203F
:101B0000891E0C1F1A5C0D5C42EAC50525540A5457
:101B1000401C0228F6D3F0BDC800002030B5074BAA
:101B20000020991D0C1F1A5C0D5C42EAC505255466
:101B30000A54401C0228F6D330BD0000E00000200B
:101B4000F0B50E4F002107F10802131F0E460830B2
:101B50005C5C455CA54209D152F821400A2C03D2B5
:101B6000641C42F8214003E07D5401E042F821600A
:101B7000445C5C54491C0229EAD3F0BDE00000201B
:101B80000A8802804A8842808A8882808A798271A3
:101B9000CA79C2710A89028149894181704700214D
:101BA0000A464318491CC9B29A710229F9D3028026
:101BB00042808280028142817047FEE770B5134AFD
:101BC0000020131D141F961E0146951C115443F846
:101BD0002010215431542954401C0228F6D30C49BA
:101BE0000A22A1F1300000F094F809490A222831B4
:101BF000A1F1480000F08DF80549BDE870400A22C7
:101C00005031A1F1600000F084B80000C400002051
:101C1000EC04002010B50446FFF754FF2046BDE851
:101C20001040FFF7A3BE0000014900200860704784
:101C3000D000002010B5022003F0DCFB48B10820E2
:101C400003F0D8FB48B1042003F0D4FB48B10020D6
:101C500010BDBDE8104002F0EFB9BDE81040FFF73D
:101C600055BCBDE81040FEF737BE000000B5044883
:101C700000F01AF803485DF804EB00F01DB800000E
:101C8000351C0008891C000870B5064D044640212B
:101C9000284603F0EDFA0028F9D00248001D048020
:101CA00070BD000000480040002801D001490860D4
:101CB00070470000D4000020002801D0014948608E
:101CC00070470000D400002010B5FEF78DFDFEF730
:101CD000A3FDBDE8104002F06AB9000010B5094844
:101CE000FFF727FE0848FFF724FE06484FF480411F
:101CF0000E38FFF739FE04488021BDE81040C01FB0
:101D0000FFF732BE0E1402400710024080EC040AB6
:101D10007047C0E9001200F021B80268816802EB48
:101D20008102491CD2ED000A30EE601AD0ED010AA2
:101D3000F8EE600AC1EE201AD0ED030A71EEA00A97
:101D4000C0ED030A816082ED000AD0E901128A42E7
:101D500001D30021816090ED030A704710B504465D
:101D6000406881002068FEF756FA00209FED020AC5
:101D7000A06084ED030A10BD00000000014800F0DF
:101D80000BB8000064050020024890EC040AFFF73D
:101D9000F5BF00006C00002070EE200AB5EE000ACE
:101DA00031EE212A21EE001AC0ED000A80ED012A51
:101DB00080ED021A21EE801A22EE000A80ED031A4D
:101DC00080EE201A80ED041A7047FEE770B50446D5
:101DD000C08EA086088804F11C0540BAE0864888B9
:101DE00040BAA063888840BAE0632088642825D27E
:101DF000DFED450A9FED450A201DFFF7D2FBB4F940
:101E0000480000EE100A201DB8EEC00AFFF700FCE3
:101E1000DFED3F0A9FED3F0A2846FFF7C2FB94ED36
:101E2000130A2846B8EEC00AFFF7F2FBE08EA4F8CA
:101E30004200002060642088401C2080E08EA18E3B
:101E4000401A00B2A4F84000B0F5805F05DD616C77
:101E5000A0F50050491E616407E010F5805F04DAC8
:101E6000616C00F50050491C6164A4F8480000B2A0
:101E700000EE100A201DB8EEC00AFFF796FB94EDA5
:101E8000030ADFED250ABDEEC00A10EE100A00B20B
:101E900000EE100AA4F85000B8EEC00A20EE200AA6
:101EA000DFED1E0A84ED160A00EE100AB8EEC00A35
:101EB00020EE200A84ED170AE08EB4F84210401A92
:101EC000616C00EB413000EE100AE0642846B8EE89
:101ED000C00A1434FFF769FB94ED040A9FED101A51
:101EE000BDEEC00A84ED100AF8EEC00AB8EEC00AD2
:101EF00060EE810AC4ED130ADFED0A0A20EE200A23
:101F000084ED140A70BD00006666A63FCDCCCC3DC2
:101F10006666663F0AD7233CFFC72F427C59443F81
:101F2000FFFF333DDB0F493A10B50446002024F88B
:101F3000140B9FED100A208460846062A062A0856B
:101F4000E0852063A086A08784ED110A84ED120A43
:101F5000A06344F8400FA4F1500084ED030A84ED1F
:101F6000040A543CFFF746FB04F11C00BDE8104096
:101F7000FFF740BB00000000704708B58DF8000077
:101F80008DF801108DF8022001208DF803006846BD
:101F900000F002F808BD000030B50F22C4780178C7
:101FA0000123FCB1144C246801F1E02104F4E06445
:101FB000C4F5E064C4F30724C4F10405E2404478A6
:101FC000AC408578154025432A0181F8002400782B
:101FD00000F01F018B404009800000F1E020C0F8B4
:101FE000003130BD01F01F0083404809800000F13E
:101FF000E020C0F8803130BD0CED00E0024908431C
:1020000002490860704700000000FA050CED00E08E
:1020100010B52DED028BFFF705F803211F48FFF7E0
:102020004EFB9FED1F8A1F48B0EE481AF0EE480A9B
:10203000B0EE480AFEF77FFF1A48B0EE481AF0EEFD
:10204000480AB0EE480A0C30FEF775FF1548F0EE6E
:10205000481AB0EE481AF0EE480AB0EE480A303896
:10206000FFF754FE0F48F0EE481AB0EE481AF0EEB3
:10207000480AB0EE480A2038FFF748FEF0EE481A4A
:10208000B0EE481AF0EE480AB0EE480ABDEC028BFA
:102090000448BDE810401038FFF738BEDC000020CF
:1020A00000000000A805002080EC080A704700002E
:1020B000024991EC080AFFF7F7BF00003400002046
:1020C0009FED030A80ED080A80ED090A70470000C1
:1020D000000000002DE9FE4F1546DFF80484FF4A9A
:1020E000DDF830B008F104091C460E46074609F138
:1020F000040A93457ED100200290A8F10400B0EBC1
:10210000172F25D0B8EB172F22D0B9EB172F1FD0E0
:10211000BAEB172F1CD00AF10400B0EB172F17D021
:10212000001DB0EB172F13D0001DB0EB172F0FD0F1
:10213000001DB0EB172F0BD0001DB0EB172F07D0F1
:10214000001DB0EB172F03D0001DB0EB172F05D1EA
:1021500001213846FFF7F4FA01200290E048001F01
:10216000B0EB162F25D0B8EB162F22D0B9EB162FD7
:102170001FD0BAEB162F1CD0D9480C30B0EB162F5D
:1021800017D0001DB0EB162F13D0001DB0EB162F8B
:102190000FD0001DB0EB162F0BD0001DB0EB162F8B
:1021A00007D0001DB0EB162F03D0001DB0EB162F8B
:1021B00007D101213046FFF7C3FA029840F0020030
:1021C0000290C748001FB0EB152F27D0B8EB152F92
:1021D00024D0B9EB152F21D0BAEB152F1ED0C04853
:1021E0000C30B0EB152F19D0001DB0EB152F15D00A
:1021F000001D00E061E0B0EB152F0FD0001DB0EB2B
:10220000152F0BD0001DB0EB152F07D0001DB0EB24
:10221000152F03D0001DB0EB152F07D10121284643
:10222000FFF78EFA029840F004000290AC48001FBD
:10223000B0EB142F25D0B8EB142F22D0B9EB142F0C
:102240001FD0BAEB142F1CD0A5480C30B0EB142FC4
:1022500017D0001DB0EB142F13D0001DB0EB142FBE
:102260000FD0001DB0EB142F0BD0001DB0EB142FBE
:1022700007D0001DB0EB142F03D0001DB0EB142FBE
:1022800007D101212046FFF75BFA029840F00800D1
:102290000290002000900190DDE90D1302468F4866
:1022A00001F020FC70228D480F9B029901F0CEFDB9
:1022B00001218A4801F0FCFBB6E1BBF1804F7DD0E3
:1022C00088498B45F8D1002002908548001FB0EB6B
:1022D000172F25D0B8EB172F22D0B9EB172F1FD00F
:1022E000BAEB172F1CD07E480C30B0EB172F17D04D
:1022F000001DB0EB172F13D0001DB0EB172F0FD020
:10230000001DB0EB172F0BD0001DB0EB172F07D01F
:10231000001DB0EB172F03D0001DB0EB172F05D118
:1023200002213846FFF70CFA012002906C48001F8A
:10233000B0EB162F25D0B8EB162F22D0B9EB162F05
:102340001FD0BAEB162F1CD065480C30B0EB162FFF
:1023500017D0001DB0EB162F13D0001DB0EB162FB9
:102360000FD0001DB0EB162F0BD0001DB0EB162FB9
:1023700007D0001DB0EB162F03D0001DB0EB162FB9
:1023800007D102213046FFF7DBF9029840F0020046
:1023900002905348001FB0EB152F27D0B8EB152F34
:1023A00024D0B9EB152F21D0BAEB152F1ED04C48F5
:1023B0000C30B0EB152F19D0001D00E065E0B0EB3C
:1023C000152F13D0001DB0EB152F0FD0001DB0EB53
:1023D000152F0BD0001DB0EB152F07D0001DB0EB53
:1023E000152F03D0001DB0EB152F07D10221284671
:1023F000FFF7A6F9029840F0040002903848001F49
:10240000B0EB142F25D0B8EB142F22D0B9EB142F3A
:102410001FD0BAEB142F1CD031480C30B0EB142F66
:1024200017D0001DB0EB142F13D0001DB0EB142FEC
:102430000FD0001DB0EB142F0BD0001DB0EB142FEC
:1024400007D0001DB0EB142F03D0001DB0EB142FEC
:1024500007D102212046FFF773F9029840F00800E7
:102460000290002000900190DDE90D1302461D4806
:1024700001F038FB70221B480F9B029901F0E6FC2B
:102480000121184801F014FBAFE115484FF0000B93
:10249000001FB0EB172F2CD0B8EB172F29D0B9EBBA
:1024A000172F26D0BAEB172F23D00D480C30B0EBE6
:1024B000172F1ED0001DB0EB172F1AD0001DB0EB48
:1024C000172F16D0001DB0EB172F12D0001DB0EB48
:1024D000172F0ED0001DB0EB172F05E000000140B4
:1024E000040240000004004003D0001DB0EB172F91
:1024F00005D101213846FFF723F94FF0010BFC4FBE
:10250000B7EB162F25D0B8EB162F22D0B9EB162F2C
:102510001FD0BAEB162F1CD0F5481030B0EB162F99
:1025200017D0001DB0EB162F13D0001DB0EB162FE7
:102530000FD0001DB0EB162F0BD0001DB0EB162FE7
:1025400007D0001DB0EB162F03D0001DB0EB162FE7
:1025500005D101213046FFF7F3F84BF0020BB7EB42
:10256000152F25D0B8EB152F22D0B9EB152F1FD082
:10257000BAEB152F1CD0DE481030B0EB152F17D05A
:10258000001DB0EB152F13D0001DB0EB152F0FD091
:10259000001DB0EB152F0BD0001DB0EB152F07D091
:1025A000001DB0EB152F03D0001DB0EB152F05D18A
:1025B00001212846FFF7C4F84BF0040BB7EB142FAA
:1025C00025D0B8EB142F22D0B9EB142F1FD0BAEBC3
:1025D000142F1CD0C6481030B0EB142F17D0001D9C
:1025E000B0EB142F13D0001DB0EB142F0FD0001D33
:1025F000B0EB142F0BD0001DB0EB142F07D0001D33
:10260000B0EB142F03D0001DB0EB142F05D1012126
:102610002046FFF795F84BF0080B0020009002468B
:102620004FF080440190FDE3B2498B457ED10020FC
:102630000290AF48B0EB172F25D0B8EB172F22D060
:10264000B9EB172F1FD0BAEB172F1CD0A8481030AA
:10265000B0EB172F17D0001DB0EB172F13D0001DB4
:10266000B0EB172F0FD0001DB0EB172F0BD0001DB4
:10267000B0EB172F07D0001DB0EB172F03D0001DB4
:10268000B0EB172F05D102213846FFF759F801208A
:1026900002909748B0EB162F25D0B8EB162F22D01A
:1026A000B9EB162F1FD0BAEB162F1CD09048103064
:1026B000B0EB162F17D0001DB0EB162F13D0001D56
:1026C000B0EB162F0FD0001DB0EB162F0BD0001D56
:1026D000B0EB162F07D0001DB0EB162F03D0001D56
:1026E000B0EB162F07D102213046FFF729F80298E8
:1026F00040F0020002907E48B0EB152F27D0B8EBD7
:10270000152F24D0B9EB152F21D0BAEB152F1ED0E1
:1027100077481030B0EB152F19D0001DB0EB152FF6
:1027200015D0001DB0EB152F11D000E05DE0001DAD
:10273000B0EB152F0BD0001DB0EB152F07D0001DEF
:10274000B0EB152F03D0001DB0EB152F07D10221E0
:102750002846FEF7F5FF029840F004000290644816
:10276000B0EB142F25D0B8EB142F22D0B9EB142FD7
:102770001FD0BAEB142F1CD05D481030B0EB142FD3
:1027800017D0001DB0EB142F13D0001DB0EB142F89
:102790000FD0001DB0EB142F0BD0001DB0EB142F89
:1027A00007D0001DB0EB142F03D0001DB0EB142F89
:1027B00007D102212046FEF7C3FF029840F008002F
:1027C0000290002000900190DDE90D130246494877
:1027D00001F088F9702247480F9B029901F036FBFF
:1027E0000121444801F064F9E7E043498B457DD17C
:1027F000002002903E48B0EB172F25D0B8EB172FE2
:1028000022D0B9EB172F1FD0BAEB172F1CD03848A6
:102810001030B0EB172F17D0001DB0EB172F13D0CF
:10282000001DB0EB172F0FD0001DB0EB172F0BD0F2
:10283000001DB0EB172F07D0001DB0EB172F03D0F2
:10284000001DB0EB172F05D102213846FEF778FFA7
:10285000012002902648B0EB162F25D0B8EB162F9A
:1028600022D0B9EB162F1FD0BAEB162F1CD0204860
:102870001030B0EB162F17D0001DB0EB162F13D071
:10288000001DB0EB162F0FD0001DB0EB162F0BD094
:10289000001DB0EB162F07D0001DB0EB162F03D094
:1028A000001DB0EB162F07D102213046FEF748FF7E
:1028B000029840F0020002900D48B0EB152F2ED088
:1028C000B8EB152F2BD0B9EB152F28D0BAEB152F5D
:1028D00025D007481030B0EB152F20D0001DB0EBED
:1028E000152F1CD0001DB0EB152F07E065E0000090
:1028F0000002400000080040000C00400FD0001D06
:10290000B0EB152F0BD0001DB0EB152F07D0001D1D
:10291000B0EB152F03D0001DB0EB152F07D102210E
:102920002846FEF70DFF029840F004000290FE4892
:10293000B0EB142F25D0B8EB142F22D0B9EB142F05
:102940001FD0BAEB142F1CD0F7481030B0EB142F67
:1029500017D0001DB0EB142F13D0001DB0EB142FB7
:102960000FD0001DB0EB142F0BD0001DB0EB142FB7
:1029700007D0001DB0EB142F03D0001DB0EB142FB7
:1029800007D102212046FEF7DBFE029840F0080046
:102990000290002000900190DDE90D130246E3480B
:1029A00001F0A0F87022E1480F9B029901F04EFA65
:1029B0000121DE4801F07CF8E0E0DD498B457DD166
:1029C00000200290D848B0EB172F25D0B8EB172F76
:1029D00022D0B9EB172F1FD0BAEB172F1CD0D2483B
:1029E0001030B0EB172F17D0001DB0EB172F13D0FE
:1029F000001DB0EB172F0FD0001DB0EB172F0BD021
:102A0000001DB0EB172F07D0001DB0EB172F03D020
:102A1000001DB0EB172F05D103213846FEF790FEBD
:102A200001200290C048B0EB162F25D0B8EB162F2E
:102A300022D0B9EB162F1FD0BAEB162F1CD0BA48F4
:102A40001030B0EB162F17D0001DB0EB162F13D09F
:102A5000001DB0EB162F0FD0001DB0EB162F0BD0C2
:102A6000001DB0EB162F07D0001DB0EB162F03D0C2
:102A7000001DB0EB162F07D103213046FEF760FE94
:102A8000029840F002000290A748B0EB152F27D023
:102A9000B8EB152F24D0B9EB152F21D0BAEB152F99
:102AA0001ED0A1481030B0EB152F19D0001DB0EB8F
:102AB000152F15D0001DB0EB152F00E05EE00FD0F4
:102AC000001DB0EB152F0BD0001DB0EB152F07D05C
:102AD000001DB0EB152F03D0001DB0EB152F07D153
:102AE00003212846FEF72CFE029840F004000290D5
:102AF0008D48B0EB142F25D0B8EB142F22D0B9EBB2
:102B0000142F1FD0BAEB142F1CD087481030B0EB15
:102B1000142F17D0001DB0EB142F13D0001DB0EBF5
:102B2000142F0FD0001DB0EB142F0BD0001DB0EBF5
:102B3000142F07D0001DB0EB142F03D0001DB0EBF5
:102B4000142F07D103212046FEF7FAFD029840F02A
:102B500008000290002000900190DDE90D1302466C
:102B6000734800F0BFFF702271480F9B029901F07B
:102B70006DF901216E4800F09BFFEAE06D498B453D
:102B80007ED1002002906848B0EB172F25D0B8EB1B
:102B9000172F22D0B9EB172F1FD0BAEB172F1CD04D
:102BA00061481030B0EB172F17D0001DB0EB172F76
:102BB00013D0001DB0EB172F0FD0001DB0EB172F57
:102BC0000BD0001DB0EB172F07D0001DB0EB172F57
:102BD00003D0001DB0EB172F05D103213846FEF7B7
:102BE000AFFD012002905048B0EB162F25D0B8EB76
:102BF000162F22D0B9EB162F1FD0BAEB162F1CD0F0
:102C000049481030B0EB162F17D0001DB0EB162F2F
:102C100013D0001DB0EB162F0FD0001DB0EB162FF8
:102C20000BD0001DB0EB162F07D0001DB0EB162FF8
:102C300003D0001DB0EB162F07D103213046FEF75D
:102C40007FFD029840F0020002903748B0EB152F4C
:102C500027D0B8EB152F24D0B9EB152F21D0BAEB24
:102C6000152F1ED030481030B0EB152F19D0001D95
:102C7000B0EB152F15D0001DB0EB152F11D000E0D3
:102C800067E0001DB0EB152F0BD0001DB0EB152F2A
:102C900007D0001DB0EB152F03D0001DB0EB152F92
:102CA00007D103212846FEF74BFD029840F00400AF
:102CB00002901D48B0EB142F25D0B8EB142F22D072
:102CC000B9EB142F1FD0BAEB142F1CD016481030BC
:102CD000B0EB142F17D0001DB0EB142F13D0001D34
:102CE000B0EB142F0FD0001DB0EB142F0BD0001D34
:102CF000B0EB142F07D0001DB0EB142F03D0001D34
:102D0000B0EB142F07D103212046FEF719FD0298DE
:102D100040F008000290002000900190DDE90D13C2
:102D20000246044808E0000000024000000C004099
:102D3000000401400040014000F0D4FE7022FE4833
:102D40000F9B029901F082F80121FB4800F0B0FED0
:102D5000E1E0FA498B4566D100200290F848B0EBDB
:102D6000172F25D0B8EB172F22D0B9EB172F1FD074
:102D7000BAEB172F1CD0F2481030B0EB172F17D03A
:102D8000001DB0EB172F13D0001DB0EB172F0FD085
:102D9000001DB0EB172F0BD0001DB0EB172F07D085
:102DA000001DB0EB172F03D0001DB0EB172F05D17E
:102DB00003213846FEF7C4FC01200290E048B0EB46
:102DC000162F25D0B8EB162F22D0B9EB162F1FD017
:102DD000BAEB162F1CD0DA481030B0EB162F17D0F4
:102DE000001DB0EB162F13D0001DB0EB162F0FD027
:102DF000001DB0EB162F0BD0001DB0EB162F07D027
:102E0000001DB0EB162F03D0001DB0EB162F07D11D
:102E100003213046FEF794FC029840F00200029035
:102E2000C74801E00EE376E0B0EB152F25D0B8EBF4
:102E3000152F22D0B9EB152F1FD0BAEB152F1CD0B0
:102E4000BF481030B0EB152F17D0001DB0EB152F79
:102E500013D0001DB0EB152F0FD0001DB0EB152FB8
:102E60000BD0001DB0EB152F07D0001DB0EB152FB8
:102E700003D0001DB0EB152F07D103212846FEF724
:102E80005FFC029840F004000290AD48B0EB142FB4
:102E900025D0B8EB142F22D0B9EB142F1FD0BAEBEA
:102EA000142F1CD0A6481030B0EB142F17D0001DE3
:102EB000B0EB142F13D0001DB0EB142F0FD0001D5A
:102EC000B0EB142F0BD0001DB0EB142F07D0001D5A
:102ED000B0EB142F03D0001DB0EB142F07D103214A
:102EE0002046FEF72DFC029840F0080002900020DA
:102EF00000900190DDE90D130246904800F0F2FDCC
:102F000070228E480F9B029900F0A0FF01218B4890
:102F100000F0CEFDE0E08B498B457DD10020029092
:102F20008748B0EB172F25D0B8EB172F22D0B9EB7D
:102F3000172F1FD0BAEB172F1CD081481030B0EBE1
:102F4000172F17D0001DB0EB172F13D0001DB0EBBB
:102F5000172F0FD0001DB0EB172F0BD0001DB0EBBB
:102F6000172F07D0001DB0EB172F03D0001DB0EBBB
:102F7000172F05D103213846FEF7E2FB012002900E
:102F80006F48B0EB162F25D0B8EB162F22D0B9EB37
:102F9000162F1FD0BAEB162F1CD069481030B0EB9B
:102FA000162F17D0001DB0EB162F13D0001DB0EB5D
:102FB000162F0FD0001DB0EB162F0BD0001DB0EB5D
:102FC000162F07D0001DB0EB162F03D0001DB0EB5D
:102FD000162F07D103213046FEF7B2FB029840F0CE
:102FE000020002905648B0EB152F27D0B8EB152FF2
:102FF00024D0B9EB152F21D0BAEB152F1ED0504895
:103000001030B0EB152F19D0001DB0EB152F15D0D7
:10301000001DB0EB152F00E05EE00FD0001DB0EBFF
:10302000152F0BD0001DB0EB152F07D0001DB0EBF6
:10303000152F03D0001DB0EB152F07D10321284613
:10304000FEF77EFB029840F0040002903C48B0EB93
:10305000142F25D0B8EB142F22D0B9EB142F1FD08A
:10306000BAEB142F1CD036481030B0EB142F17D009
:10307000001DB0EB142F13D0001DB0EB142F0FD098
:10308000001DB0EB142F0BD0001DB0EB142F07D098
:10309000001DB0EB142F03D0001DB0EB142F07D18F
:1030A00003212046FEF74CFB029840F008000290F6
:1030B000002000900190DDE90D130246214800F048
:1030C00011FD70221F480F9B029900F0BFFE0121E5
:1030D0001C4800F0EDFCEBE01B498B457ED1002045
:1030E00002901748B0EB172F25D0B8EB172F22D03E
:1030F000B9EB172F1FD0BAEB172F1CD01048103088
:10310000B0EB172F17D0001DB0EB172F13D0001DF9
:10311000B0EB172F0FD0001DB0EB172F0BD0001DF9
:10312000B0EB172F07D0001DB0EB172F03D0001DF9
:10313000B0EB172F10D109E00040014000440140DE
:1031400000024000004801400018004009213846B4
:10315000FEF7F6FA01200290FB48B0EB162F25D0BF
:10316000B8EB162F22D0B9EB162F1FD0BAEB162FC3
:103170001CD0F5481030B0EB162F17D0001DB0EB67
:10318000162F13D0001DB0EB162F0FD0001DB0EB83
:10319000162F0BD0001DB0EB162F07D0001DB0EB83
:1031A000162F03D0001DB0EB162F07D10921304692
:1031B000FEF7C6FA029840F002000290E248B0EB37
:1031C000152F27D0B8EB152F24D0B9EB152F21D010
:1031D000BAEB152F1ED0DC48103000E068E0B0EBF1
:1031E000152F17D0001DB0EB152F13D0001DB0EB1D
:1031F000152F0FD0001DB0EB152F0BD0001DB0EB1D
:10320000152F07D0001DB0EB152F03D0001DB0EB1C
:10321000152F07D109212846FEF792FA029840F0AF
:1032200004000290C848B0EB142F25D0B8EB142F3F
:1032300022D0B9EB142F1FD0BAEB142F1CD0C248E8
:103240001030B0EB142F17D0001DB0EB142F13D09B
:10325000001DB0EB142F0FD0001DB0EB142F0BD0BE
:10326000001DB0EB142F07D0001DB0EB142F03D0BE
:10327000001DB0EB142F07D109212046FEF760FA9C
:10328000029840F008000290002000900190DDE9D3
:103290000D130246AD4800F025FC7022AB480F9B91
:1032A000029900F0D3FD0121A84800F001FCCAE01A
:1032B000A7498B457ED1A4484FF0000BB0EB172FE8
:1032C00025D0B8EB172F22D0B9EB172F1FD0BAEBB0
:1032D000172F1CD09C481030B0EB172F17D0001DB3
:1032E000B0EB172F13D0001DB0EB172F0FD0001D20
:1032F000B0EB172F0BD0001DB0EB172F07D0001D20
:10330000B0EB172F03D0001DB0EB172F05D109210B
:103310003846FEF715FA4FF0010B8B4FB7EB162F1F
:1033200025D0B8EB162F22D0B9EB162F1FD0BAEB51
:10333000162F1CD084481030B0EB162F17D0001D6C
:10334000B0EB162F13D0001DB0EB162F0FD0001DC1
:10335000B0EB162F0BD0001DB0EB162F07D0001DC1
:10336000B0EB162F03D0001DB0EB162F05D10921AD
:103370003046FEF7E5F94BF0020BB7EB152F27D0DF
:10338000B8EB152F24D0B9EB152F21D0BAEB152FA0
:103390001ED06D481030B0EB152F19D0001DB0EBCA
:1033A000152F15D0001DB0EB152F11D0001DB0EB5F
:1033B000152F00E047E00BD0001DB0EB152F07D014
:1033C000001DB0EB152F03D0001DB0EB152F05D15C
:1033D00009212846FEF7B4F94BF0040BB7EB142F84
:1033E00025D0B8EB142F22D0B9EB142F1FD0BAEB95
:1033F000142F1CD054481030B0EB142F17D0001DE0
:10340000B0EB142F13D0001DB0EB142F0FD0001D04
:10341000B0EB142F0BD0001DB0EB142F07D0001D04
:10342000B0EB142F03D0001DB0EB142F05D10921F0
:103430002046FEF785F94BF0080B0020009002466D
:10344000434C0190D0E043498B457CD13E484FF03E
:10345000000BB0EB172F25D0B8EB172F22D0B9EB0C
:10346000172F1FD0BAEB172F1CD037481030B0EBF6
:10347000172F17D0001DB0EB172F13D0001DB0EB86
:10348000172F0FD0001DB0EB172F0BD0001DB0EB86
:10349000172F07D0001DB0EB172F03D0001DB0EB86
:1034A000172F05D109213846FEF74AF94FF0010BD5
:1034B000254FB7EB162F25D0B8EB162F22D0B9EB3E
:1034C000162F1FD0BAEB162F1CD01F481030B0EBB0
:1034D000162F17D0001DB0EB162F13D0001DB0EB28
:1034E000162F0FD0001DB0EB162F0BD0001DB0EB28
:1034F000162F07D0001DB0EB162F03D0001DB0EB28
:10350000162F05D109213046FEF71AF94BF0020BB0
:10351000B7EB152F2FD0B8EB152F2CD0B9EB152FFB
:1035200029D0BAEB152F26D007481030B0EB152F55
:1035300021D0001DB0EB152F1DD0001DB0EB152FB5
:1035400019D0001D08E061E00002400000180040B2
:10355000001C004000200040B0EB152F0BD0001DD8
:10356000B0EB152F07D0001DB0EB152F03D0001DB9
:10357000B0EB152F05D109212846FEF7E1F84BF0F5
:10358000040BB7EB142F24D0B8EB142F21D0B9EBD8
:10359000142F1ED0BAEB142F1BD01D48B0EB142FE4
:1035A00017D0001DB0EB142F13D0001DB0EB142F5B
:1035B0000FD0001DB0EB142F0BD0001DB0EB142F5B
:1035C00007D0001DB0EB142F03D0001DB0EB142F5B
:1035D00005D109212046FEF7B3F84BF0080B002077
:1035E0000C4C009002460190DDE90D13204600F0DE
:1035F00079FA7022594620460F9B00F027FC03B051
:103600002046BDE8F04F012100F052BABDE8FE8F20
:103610001002400000200040704700001FB54FF42A
:103620007A700F4C40F6C411532200940390CDE9F8
:1036300001210C4B5A1E511E481EFEF74BFD012165
:10364000204600F045FA064940F2A4604031086087
:10365000091F0860091F0860091F08601FBD0000DE
:10366000000800400F0C0240044A0029116801D0F4
:10367000014300E081431160704700003038024090
:10368000044A0029116801D0014300E08143116020
:103690007047000040380240044A0029116801D0F8
:1036A000014300E08143116070470000443802404C
:1036B00070B5204A1168204C11F00C0104D01F4E47
:1036C000042903D0082903D004601BE0066019E038
:1036D0001849091F0B68C3F380550B6803F03F03BB
:1036E00015B1B6FBF3F301E0B4FBF3F30C68096822
:1036F000C4F388146343C1F30141491C4900B3FB7F
:10370000F1F1016011680F2303EA11110C4B5C5CAD
:103710000168E14041601468072505EA94241C5DB6
:1037200021FA04F48460126805EA52329A5CD140AE
:10373000C16070BD083802400024F400001BB700CF
:103740002C0100200A88C2F30A0202804A788B7892
:10375000D20842EA4312C2F30A0242808A78CB7846
:10376000920942EA83020B7942EA8322C2F30A02F7
:1037700082800A794B79520842EAC312C2F30A02E4
:10378000C2804A79920902724979C1F301114172EA
:103790007047000000214FF4806200BF20F8112024
:1037A000491CC9B20429F9D3002103224318491C3A
:1037B000C9B21A720229F9D37047000070B5084ADD
:1037C0000020131D941C161F0146951E115443F82A
:1037D0002010215431542954401C0228F6D370BDC6
:1037E000E4000020FEF726B900F04AB83EB54E22AC
:1037F000452108208DE807001D4CB7EE000A1B4B41
:10380000224600211B4800F05FFD01224021204696
:1038100001F026FD24210020CDE90001174D221DD5
:10382000154B51062846FDF79FFD13490022243110
:103830002846FDF7D9FD01212846FDF7CBFD0121E2
:103840002846FDF787FD002211462520FEF795FB4F
:10385000012240F22441204601F030FD03B0204611
:10386000BDE83040012101F028BC0000A086010025
:103870000010014007040240100A0020406402408A
:1038800010B50446002001F097FD21460348FDF7DE
:103890004BFDBDE810400148FDF766BEA4040020C2
:1038A000016070470249B1F85410FFF7F9BF0000FA
:1038B0000000002000214160704770471CB50020C7
:1038C0002E49019000900A6842F480320A604FF459
:1038D000A0430A6802F400320092019A521C01923D
:1038E000009A12B9019A9A42F3D10A68920342D51A
:1038F0000120009021484030026842F0805202606E
:103900001F48026842F4404202601C4A08321368B1
:103910001360136843F400431360136843F4A05327
:103920001360141F174B23600B6843F080730B6008
:103930000B689B01FCD5016841F48031016041684E
:10394000C903FCD5016841F4003101604168890375
:10395000FCD50D4940F205700860106820F00300A6
:103960001060106840F0020010601068C0F3810021
:103970000228FAD11CBD00901CBD00000038024096
:10398000007000400C544007003C024004480168AD
:10399000491C0160042901D3002101607047000027
:1039A000280100201CB500200090024601904FF431
:1039B0007A735321054800F095F802B000220121E6
:1039C000BDE810403620FEF7D8BA000000100040D5
:1039D00010B5084C0121204600F07AF8012211466A
:1039E000204600F02DF92046BDE81040012100F0EE
:1039F00069B8000000100040124810B5016841F499
:103A0000700101601048016841F0010101600E4A37
:103A100000210832116002680C4B1A400260031D3D
:103A20000B4A1A60026822F48022026006480C30B9
:103A30000160FFF743FF03494FF0006080390860E1
:103A400010BD000088ED00E000380240FFFFF6FEE8
:103A50001030002410B501218C07204600F0E4F856
:103A600000280BD00121204600F02FF8012120462C
:103A700000F028F8BDE8104000F068BA10BD000062
:103A800010B50A4C0121204600F0CEF800280BD0DA
:103A90000121204600F019F80121204600F012F81B
:103AA000BDE81040FFF772BF10BD000000100040DD
:103AB0000029018802D041F0800101E021F080015D
:103AC00001807047C94301827047C9430182704732
:103AD0000029018802D041F0010101E021F001013B
:103AE000018070472DE9FF4F434904464348444D48
:103AF000444EDFF81481DFF81491DFF814A1DFF8E9
:103B000014B183B04FEAB1478C4204D10121084679
:103B1000FFF7C2FD0CE0B4F1804F06D0844207D11C
:103B200001210220FFF7ACFD09E00121084645E034
:103B3000AC4204D101210420FFF7A2FD06E0B4420B
:103B400004D101210820FFF79BFD06E0BC4204D10F
:103B500001211020FFF794FD06E0444504D1012126
:103B60002020FFF78DFD06E04C4504D10121022005
:103B7000FFF792FD06E0544504D101210804FFF748
:103B80008BFD06E05C4504D101214804FFF784FD6C
:103B900007E02148844204D101218804FFF77CFD1D
:103BA00007E01E48844204D101214020FFF768FD50
:103BB00007E01B48844204D101218020FFF760FD0B
:103BC00005E01848844202D101218015F6E70498E7
:103BD000ADF800000598ADF8020006980190109825
:103BE000ADF8080011988DF80A006946204600F0EB
:103BF0006FF907B0BDE8F08F0000014000040040FD
:103C000000080040000C0040001400400004014087
:103C100000400140004401400048014000180040BD
:103C2000001C00400020004002460020138A9289B8
:103C30000B4202EA010202D0002A00D001207047A4
:103C4000002A828901D00A4300E08A4382817047BA
:103C500030B5028C22F001020284028C8388048B2E
:103C600022F0020224F073050C882C438D89154341
:103C70004A882A430C4DA84202D00C4DA8420DD1CF
:103C800022F00805CA8923F440732A4322F0040570
:103C90008A882A430D8A1D434B8A2B4383800483E1
:103CA00089684163028430BD000001400004014086
:103CB000028B22F008020A430283704770B5028C1F
:103CC00022F010020284028C8488038B0D8823F476
:103CD000E6464FF6FF7303EA052535438E8922F049
:103CE000200203EA061616434A8803EA0212324308
:103CF000104EB04202D0104EB04215D122F08006D4
:103D0000CA8924F4406403EA0212324322F04006D6
:103D10008A8803EA021232430E8A03EA86062643A1
:103D20004C8A03EA84043443848005838968816370
:103D3000028470BD0000014000040140028B4FF678
:103D4000FF7322F4006203EA0121114301837047EB
:103D500070B5028C22F480720284028C8488838B7A
:103D60000D8823F073031D4322F400738E894FF6F0
:103D7000FF7202EA06261E434B8802EA03233343FE
:103D8000104EB04202D0104EB04215D123F400665E
:103D9000CB8924F4405402EA0323334323F480669E
:103DA0008B8802EA032333430E8A02EA061626436F
:103DB0004C8A02EA04143443848085838968C16391
:103DC000038470BD0000014000040140828B22F09A
:103DD00008020A438283704770B5028C22F4805235
:103DE0000284048C8288838B0D8823F4E6464FF688
:103DF000FF7303EA0525354324F400568C8903EA52
:103E0000043434434E8803EA06362643084CA04265
:103E100002D0084CA04205D122F480440A8A03EA69
:103E2000821222438280858389680164068470BD82
:103E30000000014000040140828B4FF6FF7322F422
:103E4000006203EA012111438183704730B585B0D8
:103E50000546ADF8002001200C46ADF80200002117
:103E60000220ADF80C00ADF81010C001ADF8120042
:103E7000ADF804100293ADF80E10E00707D06946C4
:103E80002846FFF7E5FE08212846FFF711FFA007A7
:103E900007D569462846FFF711FF08212846FFF796
:103EA0004DFF600707D569462846FFF751FF0821F7
:103EB0002846FFF78BFF200707D569462846FFF7FE
:103EC0008BFF08212846FFF7B7FF05B030BD000083
:103ED00030B50288164B174C98420DD0A0420BD03B
:103EE000B0F1804F08D0144DA84205D0134DA84220
:103EF00002D0134DA84203D122F070054A882A430C
:103F0000104DA84206D0104DA84203D022F44075AF
:103F10000A892A4302804A68C2620A880285984256
:103F200001D0A04201D1897A01860121818230BD70
:103F3000000001400004014000040040000800406F
:103F4000000C00400010004000140040FDF75EB976
:103F50001CB500200123009002469C0701905321CC
:103F60002046FFF7BFFD01212046FFF7A1FD02B06B
:103F70000022BDE8104011461C20FDF7FEBF10B521
:103F800001218C072046FFF7A3FD012211462046A0
:103F9000FFF756FE2046BDE810400121FFF792BD15
:103FA00010B5FFF7D5FFBDE81040FFF7FBBC10B51B
:103FB000FFF7E5FFBDE81040FFF70ABD00F038B895
:103FC0003EB54E200821CDE90010154C1549029050
:103FD000B7EE000A4FF4E1332246481D00F074F9B1
:103FE000012240F22551204601F068F9002201210A
:103FF0004720FDF7C2FF0C49A5152A46A1F128006C
:10400000FDF714FB09492A46A1F58A70FDF70EFB5E
:1040100003B02046BDE83040012101F04EB8000059
:104020000014014009180240800A0020800B002083
:10403000012001F0C1B9000038B500208DF8000062
:104040000C48FDF7F7FA0028FAD10B4D40F2255441
:1040500000222146284601F031F90122694605482F
:10406000FDF7F6FA01222146284601F027F99DF8CE
:10407000000038BD580A00200014014070B51D4CE6
:1040800040F224463146204601F0F9F800282FD0AE
:10409000194D2021204601F007F83146204601F055
:1040A00006F8164C00212046FDF754F92046FDF78E
:1040B000A6F9C0F1240086B22420211D0860204604
:1040C000FDF7A0F978B12068243520F400202060A5
:1040D00001212046FDF73EF9122E09D12846BDE800
:1040E0007040FFF781BB206840F400202060EFE7BC
:1040F00070BD000000100140100A00204064024022
:104100007CB5234D40F227763146284601F0B7F8BA
:104110000024C0B11F48FDF78DFA38B102B0314616
:104120002846BDE87040002201F0C8B88DF8004074
:10413000012269461748FDF78BFA9DF800102846C2
:1041400001F02EF97CBD40F22551284601F097F888
:104150000028F7D0284601F01FF98DF800000D481F
:104160001438FDF76DFA38B10A488DF80440012281
:1041700001A91438FDF76CFA064801226946143883
:10418000FDF780FA9DF80000FCF768FB7CBD00009D
:1041900000440040D40500207CB5234D40F2277632
:1041A0003146284601F06BF80024C0B11F48FDF7E6
:1041B00041FA38B102B031462846BDE870400022CD
:1041C00001F07CB88DF80040012269461748FDF7E0
:1041D0003FFA9DF80010284601F0E2F87CBD40F25D
:1041E0002551284601F04BF80028F7D0284601F069
:1041F000D3F88DF800000D481438FDF721FA38B1D6
:104200000A488DF80440012201A91438FDF720FA6C
:104210000648012269461438FDF734FA9DF800007B
:10422000FDF736F97CBD000000480040FC07002087
:104230007CB5234D40F227763146284601F01FF821
:104240000024C0B11F48FDF7F5F938B102B031467E
:104250002846BDE87040002201F030B88DF80040DB
:10426000012269461748FDF7F3F99DF8001028462A
:1042700001F096F87CBD40F22551284600F0FFFF82
:104280000028F7D0284601F087F88DF800000D4887
:104290001438FDF7D5F938B10A488DF804400122E9
:1042A00001A91438FDF7D4F90648012269461438EB
:1042B000FDF7E8F99DF80000FFF780FE7CBD0000E7
:1042C000001401406C0A00202DE9FF4F0C462DED33
:1042D000020B05462DED028B83B0B0EE408ADDE97E
:1042E0001576FE49DFF8F893099809F1040A0AF1F6
:1042F000040B88427ED1A9F10400B0EB152F25D024
:10430000B9EB152F22D0BAEB152F1FD0BBEB152F11
:104310001CD00BF10401B1EB152F17D0091DB1EB27
:10432000152F13D0091DB1EB152F0FD0091DB1EBBF
:10433000152F0BD0091DB1EB152F07D0091DB1EBBF
:10434000152F03D0091DB1EB152F38D1B0EB142F69
:1043500025D0B9EB142F22D0BAEB142F1FD0BBEB12
:10436000142F1CD0DE490C31B1EB142F17D0091DCE
:10437000B1EB142F13D0091DB1EB142F0FD0091D71
:10438000B1EB142F0BD0091DB1EB142F07D0091D71
:10439000B1EB142F03D0091DB1EB142F0FD107215E
:1043A0002846FDF7CDF907212046FDF7C9F9CDE9EB
:1043B0000076B0EE480A2021149B0A9A6DE0B0EB1B
:1043C000152F2DD0B9EB152F2AD0BAEB152F27D0EA
:1043D000BBEB152F24D0C24B0C33B3EB152F1FD0E2
:1043E00003F1040EBEEB152F1AD00EF10403B3EB4C
:1043F000152F00E055E013D003F1040CBCEB152F92
:104400000ED00CF10408B8EB152F09D008F1040800
:10441000B8EB152F04D008F10408B8EB152F0BD119
:1044200007212846FDF78CF9CDE90076B0EE480A61
:104430007221149B0A9A30E0B0EB142F22D0B9EB12
:10444000142F1FD0BAEB142F1CD0BBEB142F19D094
:10445000A3480C30B0EB142F14D0BEEB142F11D0A6
:10446000B3EB142F0ED0BCEB142F0BD09C481C3098
:10447000B0EB142F06D0001DB0EB142F02D0B8EB18
:10448000142F76D107212046FDF75AF9CDE90076A1
:10449000149B0A9AB0EE480A7421904800F018FE66
:1044A000D8E001468F4881427DD18D48001FB0EB96
:1044B000152F25D0B9EB152F22D0BAEB152F1FD011
:1044C000BBEB152F1CD086490C31B1EB152F17D043
:1044D000091DB1EB152F13D0091DB1EB152F0FD00E
:1044E000091DB1EB152F0BD0091DB1EB152F07D00E
:1044F000091DB1EB152F03D0091DB1EB152F39D1D3
:10450000B0EB142F25D0B9EB142F22D0BAEB142F17
:104510001FD0BBEB142F1CD071490C31B1EB142F01
:1045200017D0091DB1EB142F13D0091DB1EB142FB7
:104530000FD0091DB1EB142F0BD0091DB1EB142FB7
:1045400007D0091DB1EB142F03D0091DB1EB142FB7
:1045500010D107212846FDF7F3F807212046FDF783
:10456000EFF8CDE90076B0EE480A2021149B0A9AB4
:104570006CE0FDE3B0EB152F2DD0B9EB152F2AD051
:10458000BAEB152F27D0BBEB152F24D0544A0C3291
:10459000B2EB152F1FD002F1040EBEEB152F1AD06F
:1045A0000EF1040300E055E0B3EB152F13D003F137
:1045B000040CBCEB152F0ED00CF10408B8EB152F32
:1045C00009D008F10408B8EB152F04D008F104084D
:1045D000B8EB152F0BD107212846FDF7B1F8CDE92F
:1045E0000076B0EE480A7221149B0A9A2EE0B0EBD6
:1045F000142F20D0B9EB142F1DD0BAEB142F1AD0E2
:10460000BBEB142F17D0B2EB142F14D0BEEB142F2A
:1046100011D0B3EB142F0ED0BCEB142F0BD03048BD
:104620001C30B0EB142F06D0001DB0EB142F02D0BD
:10463000B8EB142F0DD107212046FDF781F8CDE905
:104640000076149B0A9AB0EE480A7421254800F0BF
:104650003FFDE1E02449099888427DD12048001FB0
:10466000B0EB152F25D0B9EB152F22D0BAEB152FB3
:104670001FD0BBEB152F1CD019490C31B1EB152FF6
:1046800017D0091DB1EB152F13D0091DB1EB152F54
:104690000FD0091DB1EB152F0BD0091DB1EB152F54
:1046A00007D0091DB1EB152F03D0091DB1EB152F54
:1046B00041D1B0EB142F2ED0B9EB142F2BD0BAEB85
:1046C000142F28D0BBEB142F25D005490C31B1EBAA
:1046D000142F20D0091DB1EB142F07E0001001406A
:1046E00004024000004400400048004013D0091D6F
:1046F000B1EB142F0FD0091DB1EB142F0BD0091DF6
:10470000B1EB142F07D0091DB1EB142F03D0091DF5
:10471000B1EB142F0FD107212846FDF711F807211F
:104720002046FDF70DF8CDE90076B0EE480A2021CD
:10473000149B0A9A6CE0B0EB152F2CD0B9EB152F17
:1047400029D0BAEB152F26D0BBEB152F23D0DFF8DD
:1047500078E4BEEB152F00E05EE01CD00EF1040300
:10476000B3EB152F17D01B1DB3EB152F13D003F18F
:10477000040CBCEB152F0ED00CF10408B8EB152F70
:1047800009D008F10408B8EB152F04D008F104088B
:10479000B8EB152F0BD107212846FCF7D1FFCDE947
:1047A0000076B0EE480A7221149B0A9A30E0B0EB12
:1047B000142F22D0B9EB142F1FD0BAEB142F1CD01A
:1047C000BBEB142F19D0BEEB142F16D0FE48001DE2
:1047D000B0EB142F11D0B3EB142F0ED0BCEB142F71
:1047E0000BD0F9481030B0EB142F06D0001DB0EB01
:1047F000142F02D0B8EB142F0DD107212046FCF75F
:104800009FFFCDE90076149B0A9AB0EE480A742106
:10481000EE4800F05DFCD6E0ED48099981427CD17C
:10482000E9481038B0EB152F24D0B9EB152F21D063
:10483000BAEB152F1ED0BBEB152F1BD0E249B1EB05
:10484000152F17D0091DB1EB152F13D0091DB1EB92
:10485000152F0FD0091DB1EB152F0BD0091DB1EB92
:10486000152F07D0091DB1EB152F03D0091DB1EB92
:10487000152F37D1B0EB142F24D0B9EB142F21D042
:10488000BAEB142F1ED0BBEB142F1BD0CE49B1EBCB
:10489000142F17D0091DB1EB142F13D0091DB1EB44
:1048A000142F0FD0091DB1EB142F0BD0091DB1EB44
:1048B000142F07D0091DB1EB142F03D0091DB1EB44
:1048C000142F0FD108212846FCF73AFF0821204673
:1048D000FCF736FFCDE90076B0EE480A2021149BA4
:1048E0000A9A6CE0B0EB152F2CD0B9EB152F29D01C
:1048F000BAEB152F26D0BBEB152F23D0DFF8C8E27B
:10490000BEEB152F1ED00EF10403B3EB152F19D0FB
:104910001B1DB3EB152F15D000E054E003F1040C80
:10492000BCEB152F0ED00CF10408B8EB152F09D0F5
:1049300008F10408B8EB152F04D008F10408B8EB0F
:10494000152F0BD108212846FCF7FAFECDE9007699
:10495000B0EE480A7221149B0A9A30E0B0EB142F93
:1049600022D0B9EB142F1FD0BAEB142F1CD0BBEB05
:10497000142F19D0BEEB142F16D09348001DB0EBA6
:10498000142F11D0B3EB142F0ED0BCEB142F0BD07F
:104990008D481030B0EB142F06D0001DB0EB142F53
:1049A00002D0B8EB142F0DD108212046FCF7C8FE29
:1049B000CDE90076149B0A9AB0EE480A7421844827
:1049C00000F086FBD6E08348099981427ED17E487B
:1049D0001038B0EB152F24D0B9EB152F21D0BAEB3E
:1049E000152F1ED0BBEB152F1BD07749B1EB152F20
:1049F00017D0091DB1EB152F13D0091DB1EB152FE1
:104A00000FD0091DB1EB152F0BD0091DB1EB152FE0
:104A100007D0091DB1EB152F03D0091DB1EB152FE0
:104A200037D1B0EB142F24D0B9EB142F21D0BAEB2F
:104A3000142F1ED0BBEB142F1BD06349B1EB142FE6
:104A400017D0091DB1EB142F13D0091DB1EB142F92
:104A50000FD0091DB1EB142F0BD0091DB1EB142F92
:104A600007D0091DB1EB142F03D0091DB1EB142F92
:104A70000FD108212846FCF763FE08212046FCF7E9
:104A80005FFECDE90076B0EE480A2021149B0A9A19
:104A90006CE0B0EB152F2CD0B9EB152F29D0BAEB69
:104AA000152F26D0BBEB152F23D0DFF81CE1BEEB72
:104AB000152F1ED00EF10403B3EB152F19D01B1DBB
:104AC000B3EB152F15D003F1040C00E052E0BCEB62
:104AD000152F0ED00CF10408B8EB152F09D008F1F2
:104AE0000408B8EB152F04D008F10408B8EB152F13
:104AF0000BD108212846FCF723FECDE90076B0EE65
:104B0000480A7221149B0A9A30E0B0EB142F22D08D
:104B1000B9EB142F1FD0BAEB142F1CD0BBEB142F02
:104B200019D0BEEB142F16D02748001DB0EB142F60
:104B300011D0B3EB142F0ED0BCEB142F0BD02248A6
:104B40001030B0EB142F06D0001DB0EB142F02D0A4
:104B5000B8EB142F0DD108212046FCF7F1FDCDE96B
:104B60000076149B0A9AB0EE480A7421194800F0A6
:104B7000AFFAE1E01849099888427DD1124810380F
:104B8000B0EB152F2FD0B9EB152F2CD0BAEB152F7A
:104B900029D0BBEB152F26D00B49B1EB152F22D016
:104BA000091DB1EB152F1ED0091DB1EB152F1AD021
:104BB000091DB1EB152F16D0091DB1EB152F12D021
:104BC000091DB1EB152F09E010024000004800401C
:104BD000004C0040005000400014014003D0091D6B
:104BE000B1EB152F37D1B0EB142F24D0B9EB142F24
:104BF00021D0BAEB142F1ED0BBEB142F1BD0FE49D3
:104C0000B1EB142F17D0091DB1EB142F13D0091DD0
:104C1000B1EB142F0FD0091DB1EB142F0BD0091DD0
:104C2000B1EB142F07D0091DB1EB142F03D0091DD0
:104C3000B1EB142F0FD108212846FCF781FD082184
:104C40002046FCF77DFDCDE90076B0EE480A202134
:104C5000149B0A9A6CE0B0EB152F2CD0B9EB152FF2
:104C600029D0BAEB152F26D0BBEB152F23D0DFF8B8
:104C700088E3BEEB152F00E05EE01CD00EF10403CC
:104C8000B3EB152F17D01B1DB3EB152F13D003F16A
:104C9000040CBCEB152F0ED00CF10408B8EB152F4B
:104CA00009D008F10408B8EB152F04D008F1040866
:104CB000B8EB152F0BD108212846FCF741FDCDE9B3
:104CC0000076B0EE480A7221149B0A9A30E0B0EBED
:104CD000142F22D0B9EB142F1FD0BAEB142F1CD0F5
:104CE000BBEB142F19D0BEEB142F16D0C248001DF9
:104CF000B0EB142F11D0B3EB142F0ED0BCEB142F4C
:104D00000BD0BD481030B0EB142F06D0001DB0EB17
:104D1000142F02D0B8EB142F0DD108212046FCF738
:104D20000FFDCDE90076149B0A9AB0EE480A742173
:104D3000B24800F0CDF9D3E0B148099981427DD164
:104D4000AD481038B0EB152F26D0B9EB152F23D076
:104D5000BAEB152F20D0BBEB152F1DD0A649B1EB18
:104D6000152F19D0091DB1EB152F15D0091D00E025
:104D70001CE1B1EB152F0FD0091DB1EB152F0BD096
:104D8000091DB1EB152F07D0091DB1EB152F03D06D
:104D9000091DB1EB152F37D1B0EB142F24D0B9EB8F
:104DA000142F21D0BAEB142F1ED0BBEB142F1BD025
:104DB0009149B1EB142F17D0091DB1EB142F13D06B
:104DC000091DB1EB142F0FD0091DB1EB142F0BD01F
:104DD000091DB1EB142F07D0091DB1EB142F03D01F
:104DE000091DB1EB142F0FD108212846FCF7A8FCB0
:104DF00008212046FCF7A4FCCDE90076B0EE480A75
:104E00002021149B0A9A69E08646B0EB152F2BD01F
:104E1000B9EB152F28D0BAEB152F25D05846BBEB90
:104E2000152F21D07449B1EB152F1DD00A1DB2EBFF
:104E3000152F19D0131DB3EB152F00E050E013D040
:104E400003F1040CBCEB152F0ED00CF10408B8EBE9
:104E5000152F09D008F1040BBBEB152F04D00BF173
:104E60000408B8EB152F0BD108212846FCF768FC85
:104E7000CDE90076B0EE480A7221149B0A9A2DE023
:104E8000BEEB142F1FD0B9EB142F1CD0BAEB142F8C
:104E900019D0B0EB142F16D0B1EB142F13D0B2EB06
:104EA000142F10D0B3EB142F0DD0BCEB142F0AD05D
:104EB00051481030B0EB142F05D0BBEB142F02D0AB
:104EC000B8EB142F72D108212046FCF739FCCDE94C
:104ED0000076149B0A9AB0EE480A74214848A9E06B
:104EE00048480999814261D143481038B0EB152FE9
:104EF00024D0B9EB152F21D0BAEB152F1ED0BBEB68
:104F0000152F1BD03C49B1EB152F17D0091DB1EB64
:104F1000152F13D0091DB1EB152F0FD0091DB1EBC3
:104F2000152F0BD0091DB1EB152F07D0091DB1EBC3
:104F3000152F03D0091DB1EB152F38D1B0EB142F6D
:104F400024D0B9EB142F21D0BAEB142F1ED0BBEB19
:104F5000142F1BD02849B1EB142F17D0091DB1EB2A
:104F6000142F13D0091DB1EB142F0FD0091DB1EB75
:104F7000142F0BD0091DB1EB142F07D0091DB1EB75
:104F8000142F03D0091DB1EB142F10D1082128468E
:104F9000FCF7D6FB08212046FCF7D2FBCDE90076D2
:104FA000B0EE480A2021149B0A9A42E044E086466B
:104FB000B0EB152F32D0B9EB152F2FD0BAEB152F40
:104FC0002CD05846BBEB152F28D00B49B1EB152F31
:104FD00024D00A1DB2EB152F20D0131DB3EB152FD3
:104FE0001CD003F1040CBCEB152F17D00CF1040BF3
:104FF000BBEB152F12D007E0100240000014014057
:1050000000780040007C00400BF10408B8EB152F3D
:1050100004D008F10408B8EB152F13D10821284655
:10502000FCF78EFBCDE90076149B0A9AB0EE480A95
:1050300072211B4800F04CF803B0BDEC028B06B0A7
:10504000BDE8F08FBEEB142F1ED0B9EB142F1BD090
:10505000BAEB142F18D0B0EB142F15D0B1EB142FDE
:1050600012D0B2EB142F0FD0B3EB142F0CD0BCEB3B
:10507000142F09D0BBEB142F06D00A48B0EB142F25
:1050800002D0B8EB142FD7D108212046FCF758FBEB
:10509000CDE90076B0EE480A7421149B0A9AC8E75D
:1050A000007C004024024000C943018070470A0A86
:1050B00001219140C943018070470029818902D0B4
:1050C00041F4005101E021F400518181704700005A
:1050D0002DE9FF4F0E462DED020B0446584A594864
:1050E0005949DFF86881DFF86891DFF868A1DFF8D7
:1050F00068B194422DED028B85B0B0EE408ADDE9B7
:10510000167504D101211020FEF7C6FA2EE0844264
:1051100004D101214804FEF7B3FA06E08C4204D121
:1051200001218804FEF7ACFA06E0444504D10121D0
:10513000C804FEF7A5FA06E04C4504D10121080594
:10514000FEF79EFA06E0544504D101212020FEF727
:10515000A3FA04E05C4502D10121880704E03F483E
:10516000844203D101214005FEF78AFA722E3BD01A
:10517000522E39D0742E39D0542E37D05FF00C0017
:10518000ADF80A000B9800900C9A00204FF4805163
:10519000092A2DD0ADF804006F2F2CD04F2F2AD024
:1051A000652F2BD0452F29D0ADF8080018EE102A16
:1051B000B2F17C5F2CD018EE101AB1F17F5F22D0D3
:1051C00018EE101AB1F1804F20D0ADF80600722D04
:1051D00021D0522D1FD0632D20D0432D1ED0612D04
:1051E0001FD0412D1DD01EE00420C9E70820C7E7CD
:1051F000ADF80410D0E74FF4C06201E04FF48062D4
:10520000ADF80820D2E74FF4405101E04FF40051CF
:10521000ADF80610DBE74FF4807004E04FF4007047
:1052200001E04FF44070ADF80C006946204600F0F4
:105230005DF805B0BDEC028B06B0BDE8F08F000054
:10524000001001400044004000480040004C004075
:10525000005000400014014000780040007C0040F5
:10526000002A828A01D00A4300E08A438282704782
:105270000246002012880A4200D00120704730B553
:1052800001F01F0201240025C1F3421304FA02F2C7
:10529000012B0FD0022B0FD0838A4FEA11210088F7
:1052A000134204FA01F400EA040001D000B1012520
:1052B000284630BD8389F0E7038AEEE710B5C1F3D5
:1052C000421301F01F040121A140012B07D0022B42
:1052D00007D01430002A026805D00A4304E00C30DD
:1052E000F8E71030F6E78A43026010BD7FB5044648
:1052F000008A0D4620F44051E88808432082A089A6
:1053000041F20C618843A9882A8911436A890243C2
:105310001143A181A08A20F44071A8890843A0828A
:105320006846FEF7C5F91A48844202D019488442FB
:1053300001D1039800E00298A189090400EBC001A3
:1053400001EB0010296801D5490000E08900B0FB9D
:10535000F1F26420B2FBF0F109010B096FF01805BE
:105360006B4302EB8302A3891D044FF0320306D581
:1053700003EBC202B2FBF0F000F0070005E003EB24
:105380000212B2FBF0F000F00F00084320817FBD55
:1053900000100140001401408088C0F308007047ED
:1053A000C1F308018180704710B5FCF7EDFCBDE842
:1053B0001040FBF75FBFFEE7024A002142F82010D1
:1053C00070470000F4000020084A0949002000BF8F
:1053D00052F8203041F82030401C0C28F8D3044902
:1053E0004FF0FF30091F0860704700003C5F000865
:1053F000F400002003490968884301D00020704769
:1054000001207047F0000020024800210170417027
:105410007047000024010020836843600A68C9784F
:1054200012BA22F0FF020A4382600188642902D284
:10543000491CC2600180D11A00EE101AF2EE040A73
:105440000161B8EEC00A20EE200ADFED120A80EDFD
:10545000060A00EE101AB8EEC00A20EE200ADFEDB0
:105460000E0A80ED070AC168511A00EE101A416158
:10547000B8EEC00A20EE200ADFED080A80ED080A27
:1054800000EE101AB8EEC00A20EE200A80ED090ADC
:1054900070470000DB0F493A0AD7233CD202373964
:1054A0000021018041608160C1609FED060A0161B9
:1054B00080ED060A80ED070A416180ED080A80ED63
:1054C000090A7047000000000FB4054B10B503A98E
:1054D000044A029800F0DAF810BC5DF814FB0000F2
:1054E000BD5D00083C01002002E008C8121F08C191
:1054F000002AFAD170477047002001E001C1121F55
:10550000002AFBD1704700002DE9FF5F82B0002127
:10551000DDE90430020DDDF840B0034318D044F655
:105520001050A2F2FF3242431514119801281FD0E7
:10553000A5EB0B00401C5FEA000A4FF000064E4F3F
:10554000DFF83891B046504615D5CAF1000413E093
:10555000119801244AA3012801D16FEA0B01029896
:10556000119AC0E90031C0E9024206B0BDE8F09FDF
:10557000CBF10000DFE704460021404A491842EB26
:105580000450CDE9001012E0E00707D032463B4658
:1055900040464946FAF74AFE8046894632463B462F
:1055A00010461946FAF742FE06460F466410002CD4
:1055B000EAD1DDE90401DDE90023BAF1000F06DAE2
:1055C000FAF734FE42464B46FAF730FE05E0FAF7AA
:1055D0009FFE42464B46FAF79BFE04460E460022CB
:1055E000284BFBF767F803D84FF0FF30014607E080
:1055F0000022254B20463146FAF79DFFFBF742F883
:10560000102409E0002C0ADB0A220023FAF705FF28
:10561000039B30321A55641E50EA0102F2D1641C19
:10562000039AC4F111031444119A012A03D00122F0
:1056300008430DD10AE0084304D000204FF0110BBD
:10564000119072E7A3EB0B056D1E0DE05B4504DDC9
:105650004FF0000205F1010504E003DA4FF000020B
:10566000A5F10105002AECD002981199C0E9023198
:10567000C0E9004579E70000000014400000F03F59
:10568000300000000000F0430000E03F2DE9FF4F34
:1056900095B09B468946064600250FE2252877D11E
:1056A00000242746F84A0121059400E0044316F837
:1056B000013F203B01FA03F01042F7D130782A284D
:1056C00011D06FF02F033078A0F13002092A16D8DC
:1056D000059A44F0020402EB820203EB42021044FA
:1056E000761C0590EFE759F8042B0592002A03DA9F
:1056F000504244F40054059044F00204761C307883
:105700002E2816D116F8010F44F004042A280DD0D3
:105710006FF02F023078A0F13003092B09D807EB86
:10572000870302EB4303C718761CF3E759F8047BA1
:10573000761C30786C280FD006DC4C2817D06828EF
:105740000DD06A2814D104E0742810D07A280FD123
:105750000DE044F400140AE044F4801401E044F441
:1057600040147278824202D104F58014761C761CB3
:10577000307866280BD013DC582877D009DC002855
:1057800075D04528F6D04628F4D047281AD19DE197
:1057900018E0632835D0642879D0652812D195E1C6
:1057A000702873D008DC6728F1D069286FD06E2884
:1057B0000DD06F2806D1B5E073282CD0752875D090
:1057C000782874D05A46179990476D1C75E1C4F338
:1057D0000250022809D003280DD0D9F8001004285F
:1057E0000DD00D6009F1040967E1D9F80010EA173E
:1057F000C1E90052F6E7D9F800100D80F2E70D700C
:10580000F0E719F8041B8DF8001000208DF8010056
:10581000EA46012003E059F804AB4FF0FF3061077E
:105820004FF0000102D40DE008F101018846B942B1
:105830000FDA8045F8DB1AF808100029F4D108E0E7
:1058400008F1010188468142FADB1AF808100029A4
:10585000F6D105985B46A0EB080721463846179A13
:1058600000F094FA284400EB080507E04DE029E138
:105870000DE01AF8010B5A4617999047B8F1010844
:10588000F7D25B4621463846179A13E142E00A22D6
:105890000092C4F302524FF0000A022A08D059F8CD
:1058A00004CB032A4FEAEC710AD00DE029E02AE08C
:1058B00009F1070121F00702F2E802C1914609E06F
:1058C0000FFA8CFC4FEAEC71042A03D14FFA8CFCDE
:1058D0004FEAEC71002907DA0A460021DCF1000CDE
:1058E00061EB02012D2202E0220504D52B228DF866
:1058F0000420012203E0E20701D02022F7E79046CE
:1059000059E00A2102E010220DE010214FF0000AB8
:1059100000910BE010224FF0000A44F00404082725
:10592000009203E008224FF0000A0092C4F30252F2
:10593000022A05D059F804CB0021032A08D009E037
:1059400009F1070121F00702F2E802C1914605E0E2
:105950001FFA8CFC042A01D10CF0FF0C4FF0000858
:10596000220728D5702806D0009B83F0100353EA45
:105970000A0305D00EE040228DF80420012208E041
:105980005CEA010206D030228DF804208DF8050073
:1059900002229046009B83F0080353EA0A030AD1CF
:1059A0005CEA010201D1620705D530228DF804209E
:1059B0004FF001087F1E582804D034A003900EA891
:1059C00002900DE036A0F9E753466046009AFAF7D8
:1059D00024FD84460398825C0298401E0290027067
:1059E0005CEA0100F0D1029806A9081A00F1200A29
:1059F000600702D524F4803400E00127574502DD1A
:105A0000A7EB0A0000E0002000EB0A0100900598D7
:105A10004144401A0590E00306D45B462146179A9C
:105A2000059800F0B3F90544002706E001A85A469E
:105A3000C05D179990476D1C7F1C4745F6DBE0035E
:105A40000CD55B462146179A059800F09FF905444E
:105A500004E030205A46179990476D1C0099481E63
:105A600000900029F5DC08E0029802995A46007877
:105A7000491C0291179990476D1CBAF10001AAF1D7
:105A8000010AF1DC65E10000092801003031323300
:105A9000343536373839616263646566000000006A
:105AA0003031323334353637383941424344454654
:105AB0000000000000F058F90544761C30780028FA
:105AC0007FF4ECAD19B02846BDE8F08F620700D432
:105AD000062709F1070222F0070CFCE80223E14641
