:020000040800F2
:10000000F80F0020C1010008011D00088F1800082A
:10001000C71B0008250400087B53000800000000EF
:10002000000000000000000000000000733800081D
:10003000151200080000000091350008D9010008E1
:10004000DB010008DB010008DB010008DB01000820
:10005000DB010008DB010008DB010008DB01000810
:10006000DB010008DB010008DB010008DB01000800
:10007000DB010008DB010008DB010008DB010008F0
:10008000DB010008DB010008DB0100086D0500084A
:1000900029050008DB010008DB010008DB0100087E
:1000A000DB010008DB010008DB010008DB010008C0
:1000B000E1390008DB010008DB010008DB01000872
:1000C000DB010008DB010008DB010008DB010008A0
:1000D000DB010008FD3F00088140000819410008CD
:1000E000DB010008DB010008DB010008DB01000880
:1000F000DB010008DB010008DB010008DB01000870
:10010000DB010008DB010008DB010008DB0100085F
:10011000DB010008DB0100080D3A0008DB010008E4
:10012000DB010008DB010008DB010008DB0100083F
:10013000DB010008DB010008DB010008D90600082C
:1001400095060008DB010008DB010008DB01000860
:10015000DB010008DB010008DB010008B1410008F9
:10016000DB010008DB010008DB010008DB010008FF
:10017000DB010008DB010008DB01000800000000D3
:10018000DB010008DB010008DB010008DB010008DF
:10019000DB010008DB010008DB010008DB010008CF
:1001A0000000000000000000DB010008DFF80CD0B8
:1001B00000F040F8004800478D560008F80F002076
:1001C0000648804706480047FEE7FEE7FEE7FEE7F1
:1001D000FEE7FEE7FEE7FEE7FEE7FEE785390008FB
:1001E000AD010008D2B201E000F8012B491EFBD29C
:1001F00070470022F6E710B513460A460446194632
:10020000FFF7F0FF204610BD30B50B460146002039
:100210002022012409E021FA02F59D4205D303FAC8
:1002200002F5491B04FA02F52844151EA2F1010249
:10023000F1DC30BD064C074D06E0E06840F00103FC
:1002400094E8070098471034AC42F6D3FFF7B2FFAA
:10025000EC5600080C57000838B50020074C034640
:10026000024601460090204600F092FC2046BDE880
:1002700038400022114601F085B8000000640040BB
:1002800008B501211E4801F05AF802001D484FF43C
:10029000804102D001F0B3F901E001F0B2F902218E
:1002A000174801F04CF8010017484FF0800102D0C8
:1002B00001F0A5F901E001F0A4F9144890ED030A5A
:1002C000BDEEC00A10EE101A09B2009190ED020ABC
:1002D000BDEEC00A10EE101A90ED010A0BB2BDEE91
:1002E000C00A10EE101A90ED000A0AB2BDEEC00A64
:1002F00010EE100A01B2064800F04AFC08BD0000EA
:100300007000002000140240001002400C04002085
:100310000064004010B54FF4A06001F033FD00F020
:100320001DF800F079F800F07FF800F031F900F0E6
:10033000EBFE01F02BFB03F02DF903F01FFA03F0A5
:10034000F5FD03F0FDFDBDE810404FF4804101488C
:1003500001F055B90014024000F038B83EB54E2007
:100360000821CDE90010154C15490290B7EE000A9E
:100370004FF416532246481C03F066FF012240F258
:100380002551204604F05AFF02221146262001F092
:10039000B8FC0C49A5152A46A1F1280000F080FF01
:1003A00009492A46A1F58A7000F07AFF03B0204679
:1003B000BDE83040012104F040BE00000044004090
:1003C000050C02406005002060060020022004F0B9
:1003D000D5BF000038B500208DF800000C4800F0B3
:1003E00063FF0028FAD10B4D40F22554002221462C
:1003F000284604F023FF01226946054800F062FF09
:1004000001222146284604F019FF9DF8000038BD5E
:100410003805002000440040014801F077B8000092
:100420000A0C0240FEE70000F0B58BB00121082065
:1004300003F0D6F80121480603F0DEF8384D092212
:100440000121284601F0C4F809220021284601F0C4
:10045000BFF80326022408968DF8244008A92846F0
:1004600001F05CF814208DF81C008DF81D4001256A
:100470008DF81E508DF81F5007A801F051FC132075
:100480008DF81C008DF81D508DF81E508DF81F50F2
:1004900007A801F045FC234F384600F083F9684671
:1004A00000F014FB00248DF806408DF807408DF80D
:1004B000084008208DF809408DF802408DF80400AE
:1004C0008DF80A408DF803408DF80B508DF80560CB
:1004D000ADF800606946384600F03CFA8DF81640E9
:1004E0008DF817408DF81850ADF80C40ADF810405D
:1004F000ADF80E40ADF81240ADF814408DF819502B
:1005000003A800F065F901220221384600F01AFA2A
:1005100001221146384600F015FA0BB0F0BD00007C
:10052000000C02400064004010B50E4C86B0022161
:10053000204600F0B3F9002811D00421204600F035
:10054000F5F80949204600F0D9F86A46002120460E
:1005500000F074FA0DF10B01009800F043FB06B0B7
:1005600010BD0000006400400800003210B5074CC8
:100570000121204600F092F9002805D02046BDE870
:100580001040012100F0D2B810BD0000006400400E
:1005900070B58AB00121022003F022F801218806FB
:1005A00003F02AF8394C09220C21204601F010F8FA
:1005B00009220D21204601F00BF84FF4405008901D
:1005C00002208DF8240008A9204600F0A7FF402053
:1005D0008DF81C0001258DF81D508DF81E508DF8EA
:1005E0001F5007A801F09CFB3F208DF81C00002441
:1005F0008DF81D408DF81E508DF81F5007A801F092
:100600008FFB234E304600F0CDF8684600F05EFACE
:100610008DF806408DF8074008208DF808408DF8C9
:1006200002408DF8040003218DF809408DF8034045
:100630008DF80A408DF80510ADF800108DF80B50BC
:100640006946304600F086F90E208DF816008DF8C8
:1006500017408DF81850ADF80C40ADF81040ADF8CB
:100660000E40ADF81240ADF814408DF8195003A8B3
:1006700000F0AEF801220221304600F063F90122B9
:100680001146304600F05EF90AB070BD0004024029
:100690000068004010B50E4C86B00221204600F0E4
:1006A000FDF8002811D00221204600F03FF809494A
:1006B000204600F023F86A460021204600F0BEF9EB
:1006C0000DF10B01009800F08FFA06B010BD00008C
:1006D000006800400800003210B5074C0121204698
:1006E00000F0DCF8002805D02046BDE810400121CC
:1006F00000F01CB810BD0000006800400A4A91429A
:1007000002D1002181617047C1F313028B0101D531
:10071000C26070474B0101D502617047090101D5E4
:1007200082607047426070477000F03030B5082337
:1007300010240422B1F5007F1DD010DC202929D01F
:1007400007DC012921D0042922D0082900D1C46066
:1007500030BD402920D0B1F5807FF9D10BE00025D4
:10076000B1F5004F06D008DCB1F5806F03D0B1F5CC
:10077000006FEDD18561426030BDB1F5803F0DD095
:10078000B1F5003FF8D1446030BD0549816030BD0E
:10079000C36030BD036130BD046130BD436030BD16
:1007A00001010100094910B588424FF0010101D152
:1007B0004C0601E04FF08064204602F029FF2046FD
:1007C000BDE81040002102F023BF0000006400409B
:1007D000F0B5827A012191402E4A136843F001035B
:1007E00013602C4B1C331C688C431C60294D067B0A
:1007F000294C0C35A6B92E688E432E604688C788D2
:1008000046EA0746877A04EBC707C7F840660688BA
:10081000878846EA0746877A04EBC707C7F8446625
:10082000067B012E12D12E680E432E60867A056853
:1008300004EBC6064FEA3545C6F84056867A456849
:1008400004EBC6044FEA3545C4F84456114CC57A4A
:10085000241D002D256806D00D4325600D4C05890B
:10086000143415B104E08D43F7E725688D43256006
:100870000589012D02D125680D432560407B0128A3
:1008800002D1186808431860106820F00100106059
:10089000F0BD0000006600400060004002460020FD
:1008A00053690B424AD0B1F5807F3BD013DC082955
:1008B0002ED007DC012926D0022927D004293DD1DA
:1008C000D0682BE0102925D0202926D0402935D109
:1008D0001069102130E0B1F5004F2BD00BDCB1F5E1
:1008E000007F22D0B1F5806F22D0B1F5006F25D105
:1008F0009069702120E0B1F5803F11D0B1F5003F43
:100900001CD15068E5E790680D4915E0D06802E019
:10091000D068DEE7106903210EE0106908210BE0C2
:100920005068FBE79069012106E09069022103E02D
:10093000906900E05068042100F032BA704700006E
:1009400001010100002A426901D00A4300E08A4304
:100950004261704710B50368002223F00203036070
:10096000036843F0010303604FF6FF7300E0521C7D
:100970004468E40701D19A42F9D14268D2073ED0D7
:100980008A79012A02683CD022F080020260CA798A
:10099000012A026838D022F0400202600A7A012A55
:1009A000026834D022F0200202604A7A012A0268EA
:1009B00030D022F0100202608A7A012A02682CD01C
:1009C00022F008020260CA7A012A026828D022F0C6
:1009D000040202608A78CC78920742EA04620C79B9
:1009E00042EA04424C79098842EA0452491E0A4309
:1009F000C261016821F001010160002114E00020C2
:100A000010BD42F08002C1E742F04002C5E742F06B
:100A10002002C9E742F01002CDE742F00802D1E718
:100A200042F00402D5E7491C4268D20701D099423E
:100A3000F9D14068C007E2D1012010BD10B500EB2C
:100A40000113D3F8B04114F004041472D3F8B04188
:100A500034D0E408C2F80440D3F8B04104F00204F2
:100A60005472D3F8B44104F00F049472D3F8B44133
:100A7000240AD474D3F8B841D472D3F8B841240A04
:100A80001473D3F8B841240C5473D3F8B841240E2E
:100A90009473D3F8BC41D473D3F8BC41240A1474C2
:100AA000D3F8BC41240C5474D3F8BC311B0E93749E
:100AB00039B1016941F02001016110BD640D14607C
:100AC000CAE7C16841F02001C16010BD00218171F9
:100AD000C171017241728172C1728170C170032152
:100AE00001710221417101210180704730B5024638
:100AF000002093685B0108D49068000101D50120B3
:100B000003E09068C00037D5022002EB0012D2F853
:100B1000803103F00103C2F880310B7A73B3D2F84D
:100B200080414D681C434B7A43EAC5031C43C2F81D
:100B300080418B7A03F00F038B72D2F8843123F05B
:100B40000F03C2F88431D2F884318C7A2343C2F87F
:100B50008431CB7ACC6843EA0423C2F88831CB7B5A
:100B6000096943EA0121C2F88C11D2F8801141F0E1
:100B70000101C2F8801130BD042030BDD2F88031AF
:100B80004C7A23430C8843EA4453C2F88031D0E7BF
:100B900030B585B04FF40075009500258DF80850EC
:100BA0008DF8095008258DF80A50089C0D0A8DF81B
:100BB0000C10110A8DF80D108DF80E20190A8DF801
:100BC0000F108DF81030210A8DF811108DF80B5090
:100BD0008DF812406946FFF789FF05B030BD80EC03
:100BE000030A704700F01AB800F018B870B50A4D43
:100BF000002400BF04EB440000EBC40005EBC00080
:100C000001F062F8641CE4B2062CF3D3BDE8704036
:100C10000148143804F0E3BB400100201CB50C4629
:100C2000B0F5017F40D00DDCA0F5007001381CD07C
:100C3000012832D002282FD1082004F09FFB214642
:100C4000254844E0A0F50070053834D0012839D09B
:100C5000B0F5FE7F20D1052004F090FB2146BDE8D1
:100C60001C401D48C43804F0A7BB062004F086FBD6
:100C700019482146B03800F0A7FF1748B03830F9BE
:100C8000402FB0F91010CDE90012B0F908304269D8
:100C9000C16812A004F0AAFB1CBD072004F06EFB83
:100CA0000D482146583812E0092004F067FB0A4835
:100CB000214658300BE00A2004F060FB064821462C
:100CC000B03004E00B2004F059FB08482146BDE891
:100CD0001C4000F079BF0000F001002025640925C8
:100CE000640925640925640925640A00F8020020C6
:100CF00070B5274C274D28482DED028BD4ED000A06
:100D000095ED000A01F01CF9B0EE408A234802F08C
:100D10008FFD214E28EE000AA036A6F1780086ED60
:100D2000000AD4ED010A95ED010A01F009F91B480A
:100D3000B0EE408A083002F07BFD28EE000AA6F1F2
:100D4000500086ED010AD4ED020A95ED020A01F089
:100D5000F7F81248B0EE408A103002F069FD28EE34
:100D6000000AA6F1280086ED020AD4ED030A95EDEB
:100D7000030A01F0E5F80948B0EE408A183002F0A5
:100D800057FD28EE000A86ED030ABDEC028B70BD0C
:100D9000000500205C0300206C030020740000208C
:100DA000024600200A4200D0012070474FF08040E8
:100DB000406A704710B503212DED028B0E4800F0FC
:100DC000B8FA9FED0E8A0E48B0EE481AF0EE480AC7
:100DD000B0EE480AFFF703FFF0EE481AB0EE481AEB
:100DE000F0EE480AB0EE480ABDEC028B0448BDE8BC
:100DF00010400C3000F0E2BD6C000020000000004C
:100E00005003002037493648B1F8462090ED000ADB
:100E100000EE902AF8EE600AB4EEE00AF1EE10FA65
:100E200004DD00EE102AB8EE400A0DE0524200EE5A
:100E3000902AF8EEE00AB4EEE00AF1EE10FA03D2DE
:100E400000EE102AB8EEC00A80ED000AB1F8482082
:100E500090ED010A00EE902AF8EE600AB4EEE00A86
:100E6000F1EE10FA04DD00EE102AB8EE400A0DE0B3
:100E7000524200EE902AF8EEE00AB4EEE00AF1EEFB
:100E800010FA03D200EE102AB8EEC00A80ED010A73
:100E9000B1F84A1090ED020A00EE901AF8EE600ADE
:100EA000B4EEE00AF1EE10FA04DD00EE101AB8EE2E
:100EB000400A0DE0494200EE901AF8EEE00AB4EE66
:100EC000E00AF1EE10FA03D200EE101AB8EEC00AF2
:100ED000034980ED020A0C31014800F0ADBD00006D
:100EE000500300200000002010B5FFF763FF00F062
:100EF00053FF274801F098F82548283001F094F86E
:100F00002348503001F090F82148783001F08CF8F7
:100F1000204802F0A3FC1F48083002F09FFC1D4847
:100F2000103002F09BFC1B48183002F097FC184868
:100F300001F082F81648283001F07EF8144850304D
:100F400001F07AF81248783001F076F8114802F092
:100F50008DFC1048083002F089FC0E48103002F079
:100F600085FC0C48183002F081FC0A480321001F60
:100F700000F0DFF99FED080A0548BDE81040F0EEEB
:100F8000401AB0EE401AF0EE400AA03000F016BD54
:100F90006C030020740000200000000010B5FFF773
:100FA00031FF00F045FF054803220168044800F0C6
:100FB000C2F9BDE81040FFF79BBE00006C000020A6
:100FC0007000002070B50D46044602F083FBA91D99
:100FD00004F10A00BDE8704000F03CBC10B50446C6
:100FE00002F0A0FB04F10A00BDE8104000F041BC93
:100FF0000029016802D041F0010101E021F0010166
:10100000016070472DE9F0438FB00446DDE9168991
:1010100015481D4616460F46A04303D10121480539
:1010200002F0DEFA1148A04303D10121880502F045
:10103000D7FA00214FF48060CDE905108010CDE98A
:10104000081000020791CDE90A010C910D910E9153
:1010500002AA694682E82003CDE90076204600F026
:1010600027F80FB0BDE8F083006002400064024042
:101070000029016802D041F4802101E021F480219F
:1010800001607047002A026802D042F4002201E0A9
:1010900022F40022026001617047406880B270470C
:1010A000014600200968090300D5012070470000AF
:1010B00030B50368124ACC6813400A682243D1E96C
:1010C00005452C432243CC6922430C6A22434C6AD7
:1010D00022438C6A22434C6B22438C6B22431A437B
:1010E0000260426922F00703D1E90B2422431A432C
:1010F00042610A6942604A6882608968C16030BDA5
:101100003F801CF000F038B83EB54E200821CDE9F4
:101110000010154C15490290B7EE000A4FF4E13368
:101120002246481C03F090F8012240F22551204647
:1011300004F084F802221146272000F0E2FD0C4959
:10114000A5152A46A1F1280000F0AAF809492A4667
:10115000A1F58A7000F0A4F803B02046BDE8304045
:10116000012103F06ABF000000480040080C024063
:101170008807002088080020032004F0FFB8000042
:1011800038B500208DF800000C4800F08DF80028DC
:10119000FAD10B4D40F2255400222146284604F096
:1011A0004DF801226946054800F08CF801222146DD
:1011B000284604F043F89DF8000038BD6007002081
:1011C0000048004010B502F0C1FA00F061FBBDE834
:1011D00010400148FFF702BF1C04002010B5044670
:1011E00000F018FB204600F003FB09484078012876
:1011F00007D003280AD104F10A00BDE8104000F02E
:1012000073BB2046BDE8104002F0B4BA10BD000028
:10121000B0000020704780EC020A00F025B8D0ED45
:10122000020A90ED031AD0ED001A30EE811AD0EDCB
:10123000050A70EEA10AD0ED011A30EE410A30EE37
:10124000A12AC0EE821AC0ED041A20EE210A80ED18
:10125000030A31EE000A20EEA01A80ED020A41EEE8
:10126000610AC0ED050A70479FED050A80ED020A8C
:1012700080ED030A80ED040A80ED050A7047000046
:101280000000000080ED020A704710B50446D4E962
:101290000001FEF7AEFF0020A060E060206110BDFD
:1012A000C0E90012FFF7F1BF006908B100207047E4
:1012B0000120704701694068814201D101207047D7
:1012C00000207047F0B500231D460EE084680768D3
:1012D000661C86603C5DCC54D0E90146A64200D134
:1012E00085600469641E5B1C0461934202D2046938
:1012F000002CEBD11846F0BDF0B500231D4610E0E0
:10130000C4680768CE5C04F1010CC0F80CC03E55FF
:101310004668C468B44200D1C5600469641C5B1CA3
:101320000461934203D246680469B442E8D1184686
:10133000F0BD00F006B800F008B800F019B800F0F1
:101340001EB802688A4302607047F0B52026002369
:10135000012505FA03F1046811400C4201D00C4349
:1013600000E08C435B1CDBB20460B342F1D3F0BD00
:101370000B6808B1134300E093430B6070470068AB
:101380000840704710B586B040F2FF130093002369
:101390008DF808308DF8093008248DF80A400C0AC1
:1013A0008DF80C10110A8DF80D108DF810308DF895
:1013B0000E208DF811308DF80B408DF80F308DF820
:1013C00012306946FFF792FB06B010BD38B50446EF
:1013D00000200D460346022200901146204600F0F0
:1013E00009F804F00F0124F0FF002A46BDE8384058
:1013F00000F0EEB82DE9FF4F054620F0FF04384A13
:1014000038483949394E3A4FDFF8E880DFF8E8903C
:10141000DFF8E8A0DFF8E8B083B0944202D1012100
:1014200008463CE0844204D10121022002F0D8F8B1
:1014300006E08C4204D10121042002F0D1F806E03C
:10144000B44204D10121082002F0CAF806E0BC42EF
:1014500004D10121102002F0C3F806E0444504D174
:101460000121202002F0BCF806E04C4504D1012106
:10147000402002F0B5F806E0544504D10121802057
:1014800002F0AEF806E05C4504D10121080202F04A
:10149000A7F807E01B48844204D10121401502F05F
:1014A0009FF805E01848844202D101210015F6E7B3
:1014B00005F00F0101208840009004988DF8040089
:1014C00005988DF8050006988DF8060010988DF89F
:1014D00007006946204600F021F807B0BDE8F08F0C
:1014E000000002400004024000080240000C0240DC
:1014F000001002400014024000180240001C02408C
:1015000000200240002402400028024008B50021CB
:10151000012302220091FFF76DFF08BDF0B5002303
:10152000012403270D6804FA03F21540954242D1C5
:10153000D0F800C05E0007FA06F52CEA050CC0F8EA
:1015400000C091F804C0D0F800E00CFA06FC4CEAA8
:101550000E0CC0F800C091F804C0BCF1010F02D01D
:10156000BCF1020F1FD1D0F808C02CEA050CC0F85E
:1015700008C091F805C0D0F808E00CFA06FC4CEA67
:101580000E0CC0F808C0D0F804C02CEA020CC0F859
:1015900004C0426891F806C00CFA03FC1FFA8CFCE8
:1015A00042EA0C024260C268AA43C260CA79C568B6
:1015B000B2402A43C2605B1C102BB3D3F0BD08B508
:1015C00000210B46009102220121FFF713FF08BD05
:1015D0004B07DB0E9A40C90810B500EB8100016A89
:1015E0000F249C40A1430162016A1143016210BDB6
:1015F0000246002052690A4200D001207047418310
:10160000704701837047000010B5B6EE001A2DED4B
:10161000048B017A9FED2D8ACC072B49002C31F8E1
:10162000463F00EE103A4A888988B8EE400A01D158
:1016300020EE010A00EE902AF8EE600A02D100BF07
:1016400060EE810A05D000BF01EE101AB8EE412A03
:1016500005E001EE901AF8EE611A21EE812A02D01F
:10166000F1EE408A01E0F0EE488A01D0B1EE608AE6
:10167000B0F90000F1EE421A00EE100A9FED141AC4
:10168000DFED140AB8EEC00A04F013F8B0EE409A89
:10169000B0EE680A104800F098F9104C0E4884ED3E
:1016A000000AB0EE480A103000F08FF90A4884EDC5
:1016B000010AB0EE490A203000F087F984ED020AF1
:1016C000BDEC048B10BD00000000002000000000F5
:1016D00000FEFF46000000C7340400205003002035
:1016E00070B5294D04462DED028B35F8460F9FED60
:1016F000278A00EE100A4042DFED258AB8EE402A24
:1017000000EE100A2088B0EE481AF8EEC01A00EE7B
:10171000100AF0EE680AB8EE400A03F0CAFF1D4E48
:10172000B0EE481AF0EE680A86ED000A688800EE0E
:10173000100A4042B8EE402A00EE100A6088F8EE27
:10174000C01A00EE100AB8EE400A03F0B2FF86EDB0
:10175000010AA888B0EE481A00EE100A4042F0EEE6
:10176000680AB8EE402A00EE100AA088F8EEC01A07
:1017700000EE100AB8EE400A03F09BFF86ED020A65
:10178000BDEC028B70BD0000000000200080D24440
:101790000000B64350030020F0B5144A0021141F86
:1017A000231F0F46801D655C465CAE4209D152F88E
:1017B00021500A2D03D26D1C42F8215003E05E54E3
:1017C00001E042F82170455C6554491C0229EAD3C6
:1017D00006490020891E0C1F1A5C0D5C42EAC505F3
:1017E00025540A54401C0228F6D3F0BD9C0000206A
:1017F00030B5074B0020991D0C1F1A5C0D5C42EAA6
:10180000C50525540A54401C0228F6D330BD0000FB
:10181000B0000020F0B50E4F002107F10802131FA1
:101820000E4608305C5C455CA54209D152F8214067
:101830000A2C03D2641C42F8214003E07D5401E0ED
:1018400042F82160445C5C54491C0229EAD3F0BD93
:10185000B00000200A8802804A8842808A888280FC
:101860008A798271CA79C2710A8902814989418162
:10187000704700210A464318491CC9B29A710229CF
:10188000F9D3028042808280028142817047FEE764
:1018900070B5134A0020131D141F961E0146951C97
:1018A000115443F82010215431542954401C02286B
:1018B000F6D30C490A22A1F1300000F082F8094960
:1018C0000A222831A1F1480000F07BF80549BDE863
:1018D00070400A225031A1F1600000F072B800009F
:1018E000980000206404002010B50446FFF754FF60
:1018F0002046BDE81040FFF787BE10B5022003F078
:1019000045FD48B1082003F041FD48B1042003F033
:101910003DFD48B1002010BDBDE8104002F04CBBB9
:10192000BDE81040FFF72CBCBDE81040FEF752BDEB
:1019300000B5044800F01AF803485DF804EB00F025
:101940001DB80000FB1800084D19000870B5064DC1
:1019500004464021284603F04BFC0028F9D00248F9
:10196000001D048070BD000000480040002801D028
:101970000149086070470000A4000020002801D041
:101980000149486070470000A400002010B50948D4
:10199000FFF715FE0848FFF712FE06484FF4804196
:1019A0000E38FFF72EFE04488021BDE81040C01F0E
:1019B000FFF727BE0E1402400710024080EC040A15
:1019C0007047C0E9001200F021B80268816802EB9C
:1019D0008102491CD2ED000A30EE601AD0ED010AF6
:1019E000F8EE600AC1EE201AD0ED030A71EEA00AEB
:1019F000C0ED030A816082ED000AD0E901128A423B
:101A000001D30021816090ED030A704710B50446B0
:101A1000406881002068FEF7ECFB00209FED020A81
:101A2000A06084ED030A10BD00000000014800F032
:101A300031B80000DC0400200A460146014800F0ED
:101A400042B80000DC0400200D48B0F8561000EE4B
:101A5000101AB0F85410F8EE401A00EE101AB0F850
:101A60005210B0F85000B8EE401A00EE101AF8EE1E
:101A7000400A00EE100AB8EE400AFFF7D7BF000098
:101A8000000000200A460146014800F063B800004B
:101A9000DC04002070EE200AB5EE000A31EE212AA7
:101AA00021EE001AC0ED000A80ED012A80ED021A35
:101AB00021EE801A22EE000A80ED031A80EE201A31
:101AC00080ED041A704791EC020A90ED001A30EE96
:101AD000600AD1ED020A00EE810AD0ED010A80EE23
:101AE000201A82ED001A90ED001A91EC020A30EEF5
:101AF000200AD1ED020A00EE810AD0ED010A80EE43
:101B0000201A82ED011A91ED010AD1ED000A90ED43
:101B1000001A30EE600AD1ED020A00EE810AD0ED23
:101B2000010A80EE201A82ED021A91ED000AD1ED31
:101B3000010A90ED001AB1EE400A30EE600AD1EDD4
:101B4000020A00EE810AD0ED010A80EE201A82ED31
:101B5000031A704791EC020A30EE200AD1ED020A16
:101B600030EE600AD1ED030A30EE600AD0ED020AD1
:101B700020EE200A82ED000A91ED010AD1ED000A63
:101B800030EE600AD1ED020A30EE200AD1ED030AF0
:101B900030EE600AD0ED030A20EE200A82ED010A41
:101BA00091EC020A30EE200AD1ED020A30EE200A52
:101BB000D1ED030A30EE200AD0ED040A20EE200A0F
:101BC00082ED020A7047FEE770B50446C08EA0861B
:101BD000088804F11C0540BAE086488840BAA06332
:101BE000888840BAE0632088642825D2201DDFED74
:101BF000320A9FED320AFFF70EFBB4F9480000EEFF
:101C0000100A201DB8EEC00AFFF73CFBDFED2C0ADE
:101C10009FED2C0A2846FFF7FEFA94ED130A28469A
:101C2000B8EEC00AFFF72EFBE08EA4F842000020B9
:101C300060642088401C2080E08EA18E401A00B293
:101C4000A4F84000B0F5805F05DD616CA0F50050A0
:101C5000491E616407E010F5805F04DA616C00F5ED
:101C60000050491C6164A4F8480000B200EE100A5C
:101C7000201DB8EEC00AFFF7D2FA94ED030ABDEEBC
:101C8000C00A10EE100AA4F85000E08EB4F842101A
:101C9000401A616C00EB413000EE100AE064284607
:101CA000B8EEC00A1434FFF7BAFA94ED040ABDEE98
:101CB000C00A84ED100A70BD6666A63FCDCCCC3D4F
:101CC0006666663F0AD7233C10B50446002024F818
:101CD000140B208460846062A062A085E08520638C
:101CE000A086A063A08744F8400FA4F15000543CA4
:101CF000FFF7BAFA04F11C00BDE81040FFF7B4BAD0
:101D0000704708B58DF800008DF801108DF802209D
:101D100001208DF80300684600F002F808BD0000BD
:101D200030B50F22C47801780123FCB1144C24682B
:101D300001F1E02104F4E064C4F5E064C4F3072495
:101D4000C4F10405E2404478AC4085781540254351
:101D50002A0181F80024007800F01F018B4040091F
:101D6000800000F1E020C0F8003130BD01F01F001C
:101D700083404809800000F1E020C0F8803130BD88
:101D80000CED00E00249084302490860704700007A
:101D90000000FA050CED00E010B52DED028BFEF70A
:101DA00025FF03211F48FFF7C4FA9FED1F8A1F4834
:101DB000B0EE481AF0EE480AB0EE480AFEF70FFF00
:101DC0001A48B0EE481AF0EE480AB0EE480A0C3055
:101DD000FEF705FF1548F0EE481AB0EE481AF0EE8F
:101DE000480AB0EE480A3038FFF7E8FD0F48F0EE39
:101DF000481AB0EE481AF0EE480AB0EE480A203809
:101E0000FFF7DCFDF0EE481AB0EE481AF0EE480A93
:101E1000B0EE480ABDEC028B0448BDE81040103813
:101E2000FFF7CCBDAC000020000000002005002022
:101E300010B54FF480413D48FFF7DAFB002871D020
:101E4000002001223A49FFF778FA80213948FFF74C
:101E5000CFFBE8B3002002223549FFF76EFA36487F
:101E6000364990ED150AB8EEC00A81ED000A90EDF2
:101E70002B0AB8EEC00A81ED010A90ED410AB8EED6
:101E8000C00A81ED020A90ED570AB8EEC00A81ED52
:101E9000030AB0F9501000EE101A2849B8EEC00A33
:101EA000103181ED000AB0F9A82000EE102AB8EE3A
:101EB000C00A81ED010AB0F9002100EE102AB8EE47
:101EC000C00A81ED020AB0F9582100EE102A00E0A4
:101ED0002AE0B8EEC00A81ED030A90ED0E0A103137
:101EE000B8EEC00A81ED000A90ED240AB8EEC00AEF
:101EF00081ED010A90ED3A0AB8EEC00A81ED020ABE
:101F000090ED500A0D48B8EEC00A81ED030A103179
:101F1000FFF7B8FD0949BDE810403C31A1F12C00A4
:101F2000FFF7B0BD01208CE7012094E700140240C8
:101F3000AC0000200010024040010020F00400200E
:101F400030EE601A90ED080ADFED341A31EE402AC7
:101F500090ED000A60EE010A90ED040AB4EEE00A8A
:101F6000F1EE10FA08D3B1EE400AB4EEE00AF1EE59
:101F700010FA01DCB0EE600AD0ED030AF4EEC20AFA
:101F8000F1EE10FA1ADDD0ED090AD0ED011A41EE9A
:101F9000810AC0ED090AD0ED051AF4EEE10AF1EE6E
:101FA00010FA06DCF1EE611AF4EEE10AF1EE10FA35
:101FB00001D2F0EE610AC0ED090A01E0C0ED091A94
:101FC000D0ED020AD0ED061A60EE820AF4EEE01AB5
:101FD000F1EE10FA06D3F1EE611AF4EEE01AF1EE2A
:101FE00010FA01DDF0EE610AD0ED091A31EE800A37
:101FF00030EE200AD0ED070AF4EEC00AF1EE10FA36
:1020000006D3F1EE600AF4EEC00AF1EE10FA01DD3B
:10201000B0EE600A80ED081A704700000000000072
:1020200080EC080A70470000024991EC080AFFF7AB
:10203000F7BF0000240000209FED030A80ED080A8E
:1020400080ED090A70470000000000002DE9FE4FF6
:102050001546DFF80484FF4ADDF830B008F10409C2
:102060001C460E46074609F1040A93457ED100201E
:102070000290A8F10400B0EB172F25D0B8EB172F72
:1020800022D0B9EB172F1FD0BAEB172F1CD00AF1B3
:102090000400B0EB172F17D0001DB0EB172F13D093
:1020A000001DB0EB172F0FD0001DB0EB172F0BD07A
:1020B000001DB0EB172F07D0001DB0EB172F03D07A
:1020C000001DB0EB172F05D101213846FFF77EF92F
:1020D00001200290E048001FB0EB162F25D0B8EB8E
:1020E000162F22D0B9EB162F1FD0BAEB162F1CD00B
:1020F000D9480C30B0EB162F17D0001DB0EB162FBF
:1021000013D0001DB0EB162F0FD0001DB0EB162F13
:102110000BD0001DB0EB162F07D0001DB0EB162F13
:1021200003D0001DB0EB162F07D101213046FFF779
:102130004DF9029840F002000290C748001FB0EB32
:10214000152F27D0B8EB152F24D0B9EB152F21D0A0
:10215000BAEB152F1ED0C0480C30B0EB152F19D09C
:10216000001DB0EB152F15D0001D00E061E0B0EBB5
:10217000152F0FD0001DB0EB152F0BD0001DB0EBAD
:10218000152F07D0001DB0EB152F03D0001DB0EBAD
:10219000152F07D101212846FFF718F9029840F0C2
:1021A00004000290AC48001FB0EB142F25D0B8EB10
:1021B000142F22D0B9EB142F1FD0BAEB142F1CD040
:1021C000A5480C30B0EB142F17D0001DB0EB142F26
:1021D00013D0001DB0EB142F0FD0001DB0EB142F47
:1021E0000BD0001DB0EB142F07D0001DB0EB142F47
:1021F00003D0001DB0EB142F07D101212046FFF7BB
:10220000E5F8029840F0080002900020009001904C
:10221000DDE90D1302468F4801F02AFC70228D483B
:102220000F9B029901F0D8FD01218A4801F006FCBC
:10223000B6E1BBF1804F7DD088498B45F8D10020B5
:1022400002908548001FB0EB172F25D0B8EB172F51
:1022500022D0B9EB172F1FD0BAEB172F1CD07E4816
:102260000C30B0EB172F17D0001DB0EB172F13D089
:10227000001DB0EB172F0FD0001DB0EB172F0BD0A8
:10228000001DB0EB172F07D0001DB0EB172F03D0A8
:10229000001DB0EB172F05D102213846FFF796F845
:1022A000012002906C48001FB0EB162F25D0B8EB30
:1022B000162F22D0B9EB162F1FD0BAEB162F1CD039
:1022C00065480C30B0EB162F17D0001DB0EB162F61
:1022D00013D0001DB0EB162F0FD0001DB0EB162F42
:1022E0000BD0001DB0EB162F07D0001DB0EB162F42
:1022F00003D0001DB0EB162F07D102213046FFF7A7
:1023000065F8029840F0020002905348001FB0EBBD
:10231000152F27D0B8EB152F24D0B9EB152F21D0CE
:10232000BAEB152F1ED04C480C30B0EB152F19D03E
:10233000001D00E065E0B0EB152F13D0001DB0EBE1
:10234000152F0FD0001DB0EB152F0BD0001DB0EBDB
:10235000152F07D0001DB0EB152F03D0001DB0EBDB
:10236000152F07D102212846FFF730F8029840F0D8
:10237000040002903848001FB0EB142F25D0B8EBB2
:10238000142F22D0B9EB142F1FD0BAEB142F1CD06E
:1023900031480C30B0EB142F17D0001DB0EB142FC8
:1023A00013D0001DB0EB142F0FD0001DB0EB142F75
:1023B0000BD0001DB0EB142F07D0001DB0EB142F75
:1023C00003D0001DB0EB142F07D102212046FEF7E9
:1023D000FDFF029840F0080002900020009001905C
:1023E000DDE90D1302461D4801F042FB70221B4837
:1023F0000F9B029901F0F0FC0121184801F01EFB2F
:10240000AFE115484FF0000B001FB0EB172F2CD099
:10241000B8EB172F29D0B9EB172F26D0BAEB172F0F
:1024200023D00D480C30B0EB172F1ED0001DB0EBA1
:10243000172F1AD0001DB0EB172F16D0001DB0EBD0
:10244000172F12D0001DB0EB172F0ED0001DB0EBD0
:10245000172F05E000000140040240000004004086
:1024600003D0001DB0EB172F05D101213846FEF730
:10247000ADFF4FF0010BFC4FB7EB162F25D0B8EB9B
:10248000162F22D0B9EB162F1FD0BAEB162F1CD067
:10249000F5481030B0EB162F17D0001DB0EB162FFB
:1024A00013D0001DB0EB162F0FD0001DB0EB162F70
:1024B0000BD0001DB0EB162F07D0001DB0EB162F70
:1024C00003D0001DB0EB162F05D101213046FEF7D9
:1024D0007DFF4BF0020BB7EB152F25D0B8EB152F76
:1024E00022D0B9EB152F1FD0BAEB152F1CD0DE4828
:1024F0001030B0EB152F17D0001DB0EB152F13D0F7
:10250000001DB0EB152F0FD0001DB0EB152F0BD019
:10251000001DB0EB152F07D0001DB0EB152F03D019
:10252000001DB0EB152F05D101212846FEF74EFF07
:102530004BF0040BB7EB142F25D0B8EB142F22D09F
:10254000B9EB142F1FD0BAEB142F1CD0C648103093
:10255000B0EB142F17D0001DB0EB142F13D0001DBB
:10256000B0EB142F0FD0001DB0EB142F0BD0001DBB
:10257000B0EB142F07D0001DB0EB142F03D0001DBB
:10258000B0EB142F05D101212046FEF71FFF4BF0C1
:10259000080B0020009002464FF080440190FDE3BC
:1025A000B2498B457ED100200290AF48B0EB172F87
:1025B00025D0B8EB172F22D0B9EB172F1FD0BAEBCD
:1025C000172F1CD0A8481030B0EB172F17D0001DC4
:1025D000B0EB172F13D0001DB0EB172F0FD0001D3D
:1025E000B0EB172F0BD0001DB0EB172F07D0001D3D
:1025F000B0EB172F03D0001DB0EB172F05D1022130
:102600003846FEF7E3FE012002909748B0EB162F04
:1026100025D0B8EB162F22D0B9EB162F1FD0BAEB6E
:10262000162F1CD090481030B0EB162F17D0001D7D
:10263000B0EB162F13D0001DB0EB162F0FD0001DDE
:10264000B0EB162F0BD0001DB0EB162F07D0001DDE
:10265000B0EB162F03D0001DB0EB162F07D10221CF
:102660003046FEF7B3FE029840F0020002907E482A
:10267000B0EB152F27D0B8EB152F24D0B9EB152FC1
:1026800021D0BAEB152F1ED077481030B0EB152FA4
:1026900019D0001DB0EB152F15D0001DB0EB152F74
:1026A00011D000E05DE0001DB0EB152F0BD0001D38
:1026B000B0EB152F07D0001DB0EB152F03D0001D78
:1026C000B0EB152F07D102212846FEF77FFE0298B6
:1026D00040F0040002906448B0EB142F25D0B8EB12
:1026E000142F22D0B9EB142F1FD0BAEB142F1CD00B
:1026F0005D481030B0EB142F17D0001DB0EB142F35
:1027000013D0001DB0EB142F0FD0001DB0EB142F11
:102710000BD0001DB0EB142F07D0001DB0EB142F11
:1027200003D0001DB0EB142F07D102212046FEF785
:102730004DFE029840F008000290002000900190A9
:10274000DDE90D130246494801F092F9702247482D
:102750000F9B029901F040FB0121444801F06EF902
:10276000E7E043498B457DD1002002903E48B0EB25
:10277000172F25D0B8EB172F22D0B9EB172F1FD06A
:10278000BAEB172F1CD038481030B0EB172F17D0EA
:10279000001DB0EB172F13D0001DB0EB172F0FD07B
:1027A000001DB0EB172F0BD0001DB0EB172F07D07B
:1027B000001DB0EB172F03D0001DB0EB172F05D174
:1027C00002213846FEF702FE012002902648B0EBB7
:1027D000162F25D0B8EB162F22D0B9EB162F1FD00D
:1027E000BAEB162F1CD020481030B0EB162F17D0A4
:1027F000001DB0EB162F13D0001DB0EB162F0FD01D
:10280000001DB0EB162F0BD0001DB0EB162F07D01C
:10281000001DB0EB162F03D0001DB0EB162F07D113
:1028200002213046FEF7D2FD029840F002000290ED
:102830000D48B0EB152F2ED0B8EB152F2BD0B9EBE0
:10284000152F28D0BAEB152F25D007481030B0EB44
:10285000152F20D0001DB0EB152F1CD0001DB0EBA4
:10286000152F07E065E0000000024000000800406E
:10287000000C00400FD0001DB0EB152F0BD0001D39
:10288000B0EB152F07D0001DB0EB152F03D0001DA6
:10289000B0EB152F07D102212846FEF797FD0298CD
:1028A00040F004000290FE48B0EB142F25D0B8EBA6
:1028B000142F22D0B9EB142F1FD0BAEB142F1CD039
:1028C000F7481030B0EB142F17D0001DB0EB142FC9
:1028D00013D0001DB0EB142F0FD0001DB0EB142F40
:1028E0000BD0001DB0EB142F07D0001DB0EB142F40
:1028F00003D0001DB0EB142F07D102212046FEF7B4
:1029000065FD029840F008000290002000900190C0
:10291000DDE90D130246E34801F0AAF87022E14810
:102920000F9B029901F058FA0121DE4801F086F868
:10293000E0E0DD498B457DD100200290D848B0EB26
:10294000172F25D0B8EB172F22D0B9EB172F1FD098
:10295000BAEB172F1CD0D2481030B0EB172F17D07E
:10296000001DB0EB172F13D0001DB0EB172F0FD0A9
:10297000001DB0EB172F0BD0001DB0EB172F07D0A9
:10298000001DB0EB172F03D0001DB0EB172F05D1A2
:1029900003213846FEF71AFD01200290C048B0EB33
:1029A000162F25D0B8EB162F22D0B9EB162F1FD03B
:1029B000BAEB162F1CD0BA481030B0EB162F17D038
:1029C000001DB0EB162F13D0001DB0EB162F0FD04B
:1029D000001DB0EB162F0BD0001DB0EB162F07D04B
:1029E000001DB0EB162F03D0001DB0EB162F07D142
:1029F00003213046FEF7EAFC029840F00200029004
:102A0000A748B0EB152F27D0B8EB152F24D0B9EB82
:102A1000152F21D0BAEB152F1ED0A1481030B0EBE6
:102A2000152F19D0001DB0EB152F15D0001DB0EBE0
:102A3000152F00E05EE00FD0001DB0EB152F0BD07E
:102A4000001DB0EB152F07D0001DB0EB152F03D0E4
:102A5000001DB0EB152F07D103212846FEF7B6FC69
:102A6000029840F0040002908D48B0EB142F25D05E
:102A7000B8EB142F22D0B9EB142F1FD0BAEB142FC0
:102A80001CD087481030B0EB142F17D0001DB0EBCE
:102A9000142F13D0001DB0EB142F0FD0001DB0EB7E
:102AA000142F0BD0001DB0EB142F07D0001DB0EB7E
:102AB000142F03D0001DB0EB142F07D103212046A3
:102AC000FEF784FC029840F008000290002000907D
:102AD0000190DDE90D130246734800F0C9FF702232
:102AE00071480F9B029901F077F901216E4800F0BF
:102AF000A5FFEAE06D498B457ED100200290684831
:102B0000B0EB172F25D0B8EB172F22D0B9EB172F2A
:102B10001FD0BAEB172F1CD061481030B0EB172F25
:102B200017D0001DB0EB172F13D0001DB0EB172FDF
:102B30000FD0001DB0EB172F0BD0001DB0EB172FDF
:102B400007D0001DB0EB172F03D0001DB0EB172FDF
:102B500005D103213846FEF739FC01200290504888
:102B6000B0EB162F25D0B8EB162F22D0B9EB162FCD
:102B70001FD0BAEB162F1CD049481030B0EB162FDF
:102B800017D0001DB0EB162F13D0001DB0EB162F81
:102B90000FD0001DB0EB162F0BD0001DB0EB162F81
:102BA00007D0001DB0EB162F03D0001DB0EB162F81
:102BB00007D103213046FEF709FC029840F00200DD
:102BC00002903748B0EB152F27D0B8EB152F24D043
:102BD000B9EB152F21D0BAEB152F1ED0304810308D
:102BE000B0EB152F19D0001DB0EB152F15D0001D1F
:102BF000B0EB152F11D000E067E0001DB0EB152FF2
:102C00000BD0001DB0EB152F07D0001DB0EB152F1A
:102C100003D0001DB0EB152F07D103212846FEF786
:102C2000D5FB029840F0040002901D48B0EB142F31
:102C300025D0B8EB142F22D0B9EB142F1FD0BAEB4C
:102C4000142F1CD016481030B0EB142F17D0001DD5
:102C5000B0EB142F13D0001DB0EB142F0FD0001DBC
:102C6000B0EB142F0BD0001DB0EB142F07D0001DBC
:102C7000B0EB142F03D0001DB0EB142F07D10321AC
:102C80002046FEF7A3FB029840F0080002900020C7
:102C900000900190DDE90D130246044808E00000B1
:102CA00000024000000C00400004014000400140D0
:102CB00000F0DEFE7022FE480F9B029901F08CF8B6
:102CC0000121FB4800F0BAFEE1E0FA498B4566D1EC
:102CD00000200290F848B0EB172F25D0B8EB172F43
:102CE00022D0B9EB172F1FD0BAEB172F1CD0F24808
:102CF0001030B0EB172F17D0001DB0EB172F13D0EB
:102D0000001DB0EB172F0FD0001DB0EB172F0BD00D
:102D1000001DB0EB172F07D0001DB0EB172F03D00D
:102D2000001DB0EB172F05D103213846FEF74EFBEF
:102D300001200290E048B0EB162F25D0B8EB162FFB
:102D400022D0B9EB162F1FD0BAEB162F1CD0DA48C1
:102D50001030B0EB162F17D0001DB0EB162F13D08C
:102D6000001DB0EB162F0FD0001DB0EB162F0BD0AF
:102D7000001DB0EB162F07D0001DB0EB162F03D0AF
:102D8000001DB0EB162F07D103213046FEF71EFBC6
:102D9000029840F002000290C74801E00EE376E09E
:102DA000B0EB152F25D0B8EB152F22D0B9EB152F8E
:102DB0001FD0BAEB152F1CD0BF481030B0EB152F29
:102DC00017D0001DB0EB152F13D0001DB0EB152F41
:102DD0000FD0001DB0EB152F0BD0001DB0EB152F41
:102DE00007D0001DB0EB152F03D0001DB0EB152F41
:102DF00007D103212846FEF7E9FA029840F00400C3
:102E00000290AD48B0EB142F25D0B8EB142F22D090
:102E1000B9EB142F1FD0BAEB142F1CD0A6481030DA
:102E2000B0EB142F17D0001DB0EB142F13D0001DE2
:102E3000B0EB142F0FD0001DB0EB142F0BD0001DE2
:102E4000B0EB142F07D0001DB0EB142F03D0001DE2
:102E5000B0EB142F07D103212046FEF7B7FA0298F2
:102E600040F008000290002000900190DDE90D1371
:102E70000246904800F0FCFD70228E480F9B02999C
:102E800000F0AAFF01218B4800F0D8FDE0E08B495B
:102E90008B457DD1002002908748B0EB172F25D0BD
:102EA000B8EB172F22D0B9EB172F1FD0BAEB172F83
:102EB0001CD081481030B0EB172F17D0001DB0EB9D
:102EC000172F13D0001DB0EB172F0FD0001DB0EB44
:102ED000172F0BD0001DB0EB172F07D0001DB0EB44
:102EE000172F03D0001DB0EB172F05D10321384653
:102EF000FEF76CFA012002906F48B0EB162F25D038
:102F0000B8EB162F22D0B9EB162F1FD0BAEB162F25
:102F10001CD069481030B0EB162F17D0001DB0EB55
:102F2000162F13D0001DB0EB162F0FD0001DB0EBE5
:102F3000162F0BD0001DB0EB162F07D0001DB0EBE5
:102F4000162F03D0001DB0EB162F07D103213046FA
:102F5000FEF73CFA029840F0020002905648B0EBAF
:102F6000152F27D0B8EB152F24D0B9EB152F21D072
:102F7000BAEB152F1ED050481030B0EB152F19D0DA
:102F8000001DB0EB152F15D0001DB0EB152F00E084
:102F90005EE00FD0001DB0EB152F0BD0001DB0EB85
:102FA000152F07D0001DB0EB152F03D0001DB0EB7F
:102FB000152F07D103212846FEF708FA029840F0A2
:102FC000040002903C48B0EB142F25D0B8EB142F2E
:102FD00022D0B9EB142F1FD0BAEB142F1CD03648D7
:102FE0001030B0EB142F17D0001DB0EB142F13D0FE
:102FF000001DB0EB142F0FD0001DB0EB142F0BD021
:10300000001DB0EB142F07D0001DB0EB142F03D020
:10301000001DB0EB142F07D103212046FEF7D6F98F
:10302000029840F008000290002000900190DDE935
:103030000D130246214800F01BFD70221F480F9B14
:10304000029900F0C9FE01211C4800F0F7FCEBE0FA
:103050001B498B457ED1002002901748B0EB172FFB
:1030600025D0B8EB172F22D0B9EB172F1FD0BAEB12
:10307000172F1CD010481030B0EB172F17D0001DA1
:10308000B0EB172F13D0001DB0EB172F0FD0001D82
:10309000B0EB172F0BD0001DB0EB172F07D0001D82
:1030A000B0EB172F03D0001DB0EB172F10D109E0A4
:1030B000004001400044014000024000004801403F
:1030C0000018004009213846FEF780F901200290DF
:1030D000FB48B0EB162F25D0B8EB162F22D0B9EB5A
:1030E000162F1FD0BAEB162F1CD0F5481030B0EBBE
:1030F000162F17D0001DB0EB162F13D0001DB0EB0C
:10310000162F0FD0001DB0EB162F0BD0001DB0EB0B
:10311000162F07D0001DB0EB162F03D0001DB0EB0B
:10312000162F07D109213046FEF750F9029840F0DA
:1031300002000290E248B0EB152F27D0B8EB152F14
:1031400024D0B9EB152F21D0BAEB152F1ED0DC48B7
:10315000103000E068E0B0EB152F17D0001DB0EB89
:10316000152F13D0001DB0EB152F0FD0001DB0EBA5
:10317000152F0BD0001DB0EB152F07D0001DB0EBA5
:10318000152F03D0001DB0EB152F07D109212846BC
:10319000FEF71CF9029840F004000290C848B0EB1A
:1031A000142F25D0B8EB142F22D0B9EB142F1FD039
:1031B000BAEB142F1CD0C2481030B0EB142F17D02C
:1031C000001DB0EB142F13D0001DB0EB142F0FD047
:1031D000001DB0EB142F0BD0001DB0EB142F07D047
:1031E000001DB0EB142F03D0001DB0EB142F07D13E
:1031F00009212046FEF7EAF8029840F00800029004
:10320000002000900190DDE90D130246AD4800F06A
:103210002FFC7022AB480F9B029900F0DDFD0121CD
:10322000A84800F00BFCCAE0A7498B457ED1A44812
:103230004FF0000BB0EB172F25D0B8EB172F22D093
:10324000B9EB172F1FD0BAEB172F1CD09C481030AA
:10325000B0EB172F17D0001DB0EB172F13D0001DA8
:10326000B0EB172F0FD0001DB0EB172F0BD0001DA8
:10327000B0EB172F07D0001DB0EB172F03D0001DA8
:10328000B0EB172F05D109213846FEF79FF84FF014
:10329000010B8B4FB7EB162F25D0B8EB162F22D092
:1032A000B9EB162F1FD0BAEB162F1CD08448103064
:1032B000B0EB162F17D0001DB0EB162F13D0001D4A
:1032C000B0EB162F0FD0001DB0EB162F0BD0001D4A
:1032D000B0EB162F07D0001DB0EB162F03D0001D4A
:1032E000B0EB162F05D109213046FEF76FF84BF0F1
:1032F000020BB7EB152F27D0B8EB152F24D0B9EB65
:10330000152F21D0BAEB152F1ED06D481030B0EB21
:10331000152F19D0001DB0EB152F15D0001DB0EBE7
:10332000152F11D0001DB0EB152F00E047E00BD09A
:10333000001DB0EB152F07D0001DB0EB152F03D0EB
:10334000001DB0EB152F05D109212846FEF73EF8E8
:103350004BF0040BB7EB142F25D0B8EB142F22D071
:10336000B9EB142F1FD0BAEB142F1CD054481030D7
:10337000B0EB142F17D0001DB0EB142F13D0001D8D
:10338000B0EB142F0FD0001DB0EB142F0BD0001D8D
:10339000B0EB142F07D0001DB0EB142F03D0001D8D
:1033A000B0EB142F05D109212046FEF70FF84BF0A2
:1033B000080B002000900246434C0190D0E04349A6
:1033C0008B457CD13E484FF0000BB0EB172F25D03A
:1033D000B8EB172F22D0B9EB172F1FD0BAEB172F4E
:1033E0001CD037481030B0EB172F17D0001DB0EBB2
:1033F000172F13D0001DB0EB172F0FD0001DB0EB0F
:10340000172F0BD0001DB0EB172F07D0001DB0EB0E
:10341000172F03D0001DB0EB172F05D10921384617
:10342000FDF7D4FF4FF0010B254FB7EB162F25D03A
:10343000B8EB162F22D0B9EB162F1FD0BAEB162FF0
:103440001CD01F481030B0EB162F17D0001DB0EB6A
:10345000162F13D0001DB0EB162F0FD0001DB0EBB0
:10346000162F0BD0001DB0EB162F07D0001DB0EBB0
:10347000162F03D0001DB0EB162F05D109213046C1
:10348000FDF7A4FF4BF0020BB7EB152F2FD0B8EBD5
:10349000152F2CD0B9EB152F29D0BAEB152F26D02C
:1034A00007481030B0EB152F21D0001DB0EB152FC1
:1034B0001DD0001DB0EB152F19D0001D08E061E0F4
:1034C0000002400000180040001C004000200040A6
:1034D000B0EB152F0BD0001DB0EB152F07D0001D42
:1034E000B0EB152F03D0001DB0EB152F05D109212E
:1034F0002846FDF76BFF4BF0040BB7EB142F24D0DD
:10350000B8EB142F21D0B9EB142F1ED0BAEB142F27
:103510001BD01D48B0EB142F17D0001DB0EB142F9B
:1035200013D0001DB0EB142F0FD0001DB0EB142FE3
:103530000BD0001DB0EB142F07D0001DB0EB142FE3
:1035400003D0001DB0EB142F05D109212046FDF753
:103550003DFF4BF0080B00200C4C00900246019000
:10356000DDE90D13204600F083FA7022594620460B
:103570000F9B00F031FC03B02046BDE8F04F012165
:1035800000F05CBABDE8FE8F100240000020004051
:10359000704700001FB54FF47A700F4C40F6C4110D
:1035A000532200940390CDE901210C4B5A1E511E69
:1035B000481EFEF74BFD0121204600F04FFA064958
:1035C00040F2A46040310860091F0860091F0860CC
:1035D000091F08601FBD0000000800400F0C0240DA
:1035E000044A0029116801D0014300E081431160C1
:1035F0007047000030380240044A0029116801D0A9
:10360000014300E0814311607047000040380240F0
:10361000044A0029116801D0014300E08143116090
:103620007047000020380240044A0029116801D088
:10363000014300E0814311607047000044380240BC
:1036400070B5204A1168204C11F00C0104D01F4EB7
:10365000042903D0082903D004601BE0066019E0A8
:103660001849091F0B68C3F380550B6803F03F032B
:1036700015B1B6FBF3F301E0B4FBF3F30C68096892
:10368000C4F388146343C1F30141491C4900B3FBEF
:10369000F1F1016011680F2303EA11110C4B5C5C1E
:1036A0000168E14041601468072505EA94241C5D27
:1036B00021FA04F48460126805EA52329A5CD1401F
:1036C000C16070BD083802400024F400001BB70040
:1036D000FC0000200A88C2F30A0202804A788B7834
:1036E000D20842EA4312C2F30A0242808A78CB78B7
:1036F000920942EA83020B7942EA8322C2F30A0268
:1037000082800A794B79520842EAC312C2F30A0254
:10371000C2804A79920902724979C1F3011141725A
:103720007047000000214FF4806200BF20F8112094
:10373000491CC9B20429F9D3002103224318491CAA
:10374000C9B21A720229F9D37047000070B5084A4D
:103750000020131D941C161F0146951E115443F89A
:103760002010215431542954401C0228F6D370BD36
:10377000B4000020FDF7B4BF00F04AB83EB54E22B9
:10378000452108208DE807001D4CB7EE000A1B4BB1
:10379000224600211B4800F057FD0122402120460F
:1037A00001F01EFD24210020CDE90001174D221D4E
:1037B000154B51062846FDF725FC134900222431FC
:1037C0002846FDF75FFC01212846FDF751FC012149
:1037D0002846FDF70DFC002211462520FEF791FA40
:1037E000012240F22441204601F028FD03B020468A
:1037F000BDE83040012101F020BC0000A08601009E
:103800000010014007040240880900204064024083
:1038100010B50446002001F0B1FD21460348FDF734
:10382000D1FBBDE810400148FDF7D8BC1C040020C6
:10383000D0E9002191420CD2491C00EE101A4160DF
:10384000F8EE400A00EE102AB8EE401A80EE810A27
:103850007047B7EE000A7047016070470249B1F83F
:103860004410FFF7F9BF0000000000200021416074
:10387000704770471CB500202E49019000900A68DF
:1038800042F480320A604FF4A0430A6802F4003226
:103890000092019A521C0192009A12B9019A9A421E
:1038A000F3D10A68920342D50120009021484030AC
:1038B000026842F0805202601F48026842F44042AF
:1038C00002601C4A083213681360136843F4004313
:1038D0001360136843F4A0531360141F174B236045
:1038E0000B6843F080730B600B689B01FCD501688B
:1038F00041F4803101604168C903FCD5016841F49D
:103900000031016041688903FCD50D4940F2057022
:103910000860106820F003001060106840F002009A
:1039200010601068C0F381000228FAD11CBD00901D
:103930001CBD000000380240007000400C544007DD
:10394000003C024003480078800701D101F0F3BC3D
:1039500070470000F80000201CB5002000900246CF
:1039600001904FF47A735321054800F081F802B0BA
:1039700000220121BDE810403620FEF7C2B9000048
:1039800000100040124810B5016841F47001016058
:103990001048016841F0010101600E4A002108321F
:1039A000116002680C4B1A400260031D0B4A1A603A
:1039B000026822F48022026006480C300160FFF7A2
:1039C00059FF03494FF000608039086010BD0000C6
:1039D00088ED00E000380240FFFFF6FE10300024C2
:1039E00010B501218C07204600F0E4F800280BD028
:1039F0000121204600F02FF80121204600F028F890
:103A0000BDE8104000F068BA10BD000010B50A4CC7
:103A10000121204600F0CEF800280BD001212046DD
:103A200000F019F80121204600F012F8BDE810401E
:103A3000FFF788BF10BD000000100040002901887A
:103A400002D041F0800101E021F080010180704747
:103A5000C94301827047C943018270470029018828
:103A600002D041F0010101E021F001010180704725
:103A70002DE9FF4F434904464348444D444EDFF887
:103A80001481DFF81491DFF814A1DFF814B183B0CA
:103A90004FEAB1478C4204D101210846FFF7C4FD2B
:103AA0000CE0B4F1804F06D0844207D101210220FE
:103AB000FFF7A2FD09E00121084645E0AC4204D130
:103AC00001210420FFF798FD06E0B44204D1012152
:103AD0000820FFF791FD06E0BC4204D1012110202F
:103AE000FFF78AFD06E0444504D101212020FFF7BD
:103AF00083FD06E04C4504D101210220FFF794FD2F
:103B000006E0544504D101210804FFF78DFD06E0CD
:103B10005C4504D101214804FFF786FD07E02148F8
:103B2000844204D101218804FFF77EFD07E01E488E
:103B3000844204D101214020FFF75EFD07E01B48CD
:103B4000844204D101218020FFF756FD05E018488A
:103B5000844202D101218015F6E70498ADF80000F7
:103B60000598ADF80200069801901098ADF808008D
:103B700011988DF80A006946204600F06FF907B0E9
:103B8000BDE8F08F00000140000400400008004044
:103B9000000C0040001400400004014000400140BF
:103BA000004401400048014000180040001C004053
:103BB0000020004002460020138A92890B4202EA4C
:103BC000010202D0002A00D001207047002A828919
:103BD00001D00A4300E08A438281704730B5028CED
:103BE00022F001020284028C8388048B22F00202FC
:103BF00024F073050C882C438D8915434A882A4389
:103C00000C4DA84202D00C4DA8420DD122F008055F
:103C1000CA8923F440732A4322F004058A882A4380
:103C20000D8A1D434B8A2B4383800483896841633B
:103C3000028430BD0000014000040140028B22F0EC
:103C400008020A430283704770B5028C22F010020A
:103C50000284028C8488038B0D8823F4E6464FF699
:103C6000FF7303EA052535438E8922F0200203EA1B
:103C7000061616434A8803EA02123243104EB04237
:103C800002D0104EB04215D122F08006CA8924F429
:103C9000406403EA0212324322F040068A8803EAB3
:103CA000021232430E8A03EA860626434C8A03EA4E
:103CB000840434438480058389688163028470BDF1
:103CC0000000014000040140028B4FF6FF7322F414
:103CD000006203EA012111430183704770B5028C31
:103CE00022F480720284028C8488838B0D8823F0F6
:103CF00073031D4322F400738E894FF6FF7202EAAC
:103D000006261E434B8802EA03233343104EB0427B
:103D100002D0104EB04215D123F40066CB8924F4B2
:103D2000405402EA0323334323F480668B8802EA7B
:103D3000032333430E8A02EA061626434C8A02EA1C
:103D400004143443848085838968C163038470BD0F
:103D50000000014000040140828B22F008020A4367
:103D60008283704770B5028C22F480520284048CE6
:103D70008288838B0D8823F4E6464FF6FF7303EAAF
:103D80000525354324F400568C8903EA0434344372
:103D90004E8803EA06362643084CA04202D0084C5F
:103DA000A04205D122F480440A8A03EA8212224307
:103DB0008280858389680164068470BD00000140AB
:103DC00000040140828B4FF6FF7322F4006203EA85
:103DD000012111438183704730B585B00546ADF8A8
:103DE000002001200C46ADF8020000210220ADF8B1
:103DF0000C00ADF81010C001ADF81200ADF80410C1
:103E00000293ADF80E10E00707D069462846FFF789
:103E1000E5FE08212846FFF711FFA00707D56946F0
:103E20002846FFF711FF08212846FFF74DFF6007DE
:103E300007D569462846FFF751FF08212846FFF7B6
:103E40008BFF200707D569462846FFF78BFF08211F
:103E50002846FFF7B7FF05B030BD000030B5028837
:103E6000164B174C98420DD0A0420BD0B0F1804FAA
:103E700008D0144DA84205D0134DA84202D0134DCE
:103E8000A84203D122F070054A882A43104DA84267
:103E900006D0104DA84203D022F440750A892A4367
:103EA00002804A68C2620A880285984201D0A04214
:103EB00001D1897A01860121818230BD0000014053
:103EC000000401400004004000080040000C0040D5
:103ED000001000400014004070471CB50020009006
:103EE000431E02464FF08044019053212046FFF7C5
:103EF000BFFD01212046FFF7A1FD02B00022BDE871
:103F0000104011461C20FDF7FCBE10B501218C07A6
:103F10002046FFF7A3FD012211462046FFF756FE7B
:103F20002046BDE810400121FFF792BD10B5FFF714
:103F3000D4FFBDE81040FFF70FBD00F039B8000016
:103F40003EB54E200821CDE90010154C15490290D0
:103F5000B7EE000A4FF4E1332246481D00F074F931
:103F6000012240F22551204601F068F90222114653
:103F70004720FDF7C6FE0C49A5152A46A1F12800E9
:103F8000FDF78EF909492A46A1F58A70FDF788F9EF
:103F900003B02046BDE83040012101F04EB80000DA
:103FA0000014014009180240F8090020F80A002016
:103FB000012001F0E3B9000038B500208DF80000C1
:103FC0000C48FDF771F90028FAD10B4D40F2255449
:103FD00000222146284601F031F9012269460548B0
:103FE000FDF770F901222146284601F027F99DF8D6
:103FF000000038BDD00900200014014070B51D4CF0
:1040000040F224463146204601F0F9F800282FD02E
:10401000194D2021204601F007F83146204601F0D5
:1040200006F8164C00212046FCF7E2FF2046FDF77B
:1040300034F8C0F1240086B22420211D08602046F7
:10404000FDF72EF878B12068243520F40020206098
:1040500001212046FCF7CCFF122E09D12846BDE8ED
:104060007040FFF789BB206840F400202060EFE734
:1040700070BD00000010014088090020406402402B
:104080007CB5234D40F227763146284601F0B7F83B
:104090000024C0B11F48FDF707F938B102B031461E
:1040A0002846BDE87040002201F0C8B88DF80040F5
:1040B000012269461748FDF705F99DF800102846CA
:1040C00001F02EF97CBD40F22551284601F097F809
:1040D0000028F7D0284601F01FF98DF800000D48A0
:1040E0001438FDF7E7F838B10A488DF8044001228A
:1040F00001A91438FDF7E6F806480122694614388C
:10410000FDF7FAF89DF80000FCF726F97CBD0000E9
:10411000004400404C0500207CB5234D40F227763A
:104120003146284601F06BF80024C0B11F48FDF766
:10413000BBF838B102B031462846BDE870400022D5
:1041400001F07CB88DF80040012269461748FDF760
:10415000B9F89DF80010284601F0E2F87CBD40F265
:104160002551284601F04BF80028F7D0284601F0E9
:10417000D3F88DF800000D481438FDF79BF838B1DE
:104180000A488DF80440012201A91438FDF79AF875
:104190000648012269461438FDF7AEF89DF8000084
:1041A000FCF7B0FF7CBD0000004800407407002011
:1041B0007CB5234D40F227763146284601F01FF8A2
:1041C0000024C0B11F48FDF76FF838B102B0314686
:1041D0002846BDE87040002201F030B88DF800405C
:1041E000012269461748FDF76DF89DF80010284632
:1041F00001F096F87CBD40F22551284600F0FFFF03
:104200000028F7D0284601F087F88DF800000D4807
:104210001438FDF74FF838B10A488DF804400122F0
:1042200001A91438FDF74EF80648012269461438F2
:10423000FDF762F89DF80000FFF77FFE7CBD0000EF
:1042400000140140E40900202DE9FF4F0C462DED3C
:10425000020B05462DED028B83B0B0EE408ADDE9FE
:104260001576FE49DFF8F893099809F1040A0AF176
:10427000040B88427ED1A9F10400B0EB152F25D0A4
:10428000B9EB152F22D0BAEB152F1FD0BBEB152F92
:104290001CD00BF10401B1EB152F17D0091DB1EBA8
:1042A000152F13D0091DB1EB152F0FD0091DB1EB40
:1042B000152F0BD0091DB1EB152F07D0091DB1EB40
:1042C000152F03D0091DB1EB152F38D1B0EB142FEA
:1042D00025D0B9EB142F22D0BAEB142F1FD0BBEB93
:1042E000142F1CD0DE490C31B1EB142F17D0091D4F
:1042F000B1EB142F13D0091DB1EB142F0FD0091DF2
:10430000B1EB142F0BD0091DB1EB142F07D0091DF1
:10431000B1EB142F03D0091DB1EB142F0FD10721DE
:104320002846FDF753F807212046FDF74FF8CDE961
:104330000076B0EE480A2021149B0A9A6DE0B0EB9B
:10434000152F2DD0B9EB152F2AD0BAEB152F27D06A
:10435000BBEB152F24D0C24B0C33B3EB152F1FD062
:1043600003F1040EBEEB152F1AD00EF10403B3EBCC
:10437000152F00E055E013D003F1040CBCEB152F12
:104380000ED00CF10408B8EB152F09D008F1040881
:10439000B8EB152F04D008F10408B8EB152F0BD19A
:1043A00007212846FDF712F8CDE90076B0EE480A5D
:1043B0007221149B0A9A30E0B0EB142F22D0B9EB93
:1043C000142F1FD0BAEB142F1CD0BBEB142F19D015
:1043D000A3480C30B0EB142F14D0BEEB142F11D027
:1043E000B3EB142F0ED0BCEB142F0BD09C481C3019
:1043F000B0EB142F06D0001DB0EB142F02D0B8EB99
:10440000142F76D107212046FCF7E0FFCDE9007696
:10441000149B0A9AB0EE480A7421904800F018FEE6
:10442000D8E001468F4881427DD18D48001FB0EB16
:10443000152F25D0B9EB152F22D0BAEB152F1FD091
:10444000BBEB152F1CD086490C31B1EB152F17D0C3
:10445000091DB1EB152F13D0091DB1EB152F0FD08E
:10446000091DB1EB152F0BD0091DB1EB152F07D08E
:10447000091DB1EB152F03D0091DB1EB152F39D153
:10448000B0EB142F25D0B9EB142F22D0BAEB142F98
:104490001FD0BBEB142F1CD071490C31B1EB142F82
:1044A00017D0091DB1EB142F13D0091DB1EB142F38
:1044B0000FD0091DB1EB142F0BD0091DB1EB142F38
:1044C00007D0091DB1EB142F03D0091DB1EB142F38
:1044D00010D107212846FCF779FF07212046FCF779
:1044E00075FFCDE90076B0EE480A2021149B0A9AA8
:1044F0006CE0FDE3B0EB152F2DD0B9EB152F2AD0D2
:10450000BAEB152F27D0BBEB152F24D0544A0C3211
:10451000B2EB152F1FD002F1040EBEEB152F1AD0EF
:104520000EF1040300E055E0B3EB152F13D003F1B7
:10453000040CBCEB152F0ED00CF10408B8EB152FB2
:1045400009D008F10408B8EB152F04D008F10408CD
:10455000B8EB152F0BD107212846FCF737FFCDE923
:104560000076B0EE480A7221149B0A9A2EE0B0EB56
:10457000142F20D0B9EB142F1DD0BAEB142F1AD062
:10458000BBEB142F17D0B2EB142F14D0BEEB142FAB
:1045900011D0B3EB142F0ED0BCEB142F0BD030483E
:1045A0001C30B0EB142F06D0001DB0EB142F02D03E
:1045B000B8EB142F0DD107212046FCF707FFCDE9FA
:1045C0000076149B0A9AB0EE480A7421254800F040
:1045D0003FFDE1E02449099888427DD12048001F31
:1045E000B0EB152F25D0B9EB152F22D0BAEB152F34
:1045F0001FD0BBEB152F1CD019490C31B1EB152F77
:1046000017D0091DB1EB152F13D0091DB1EB152FD4
:104610000FD0091DB1EB152F0BD0091DB1EB152FD4
:1046200007D0091DB1EB152F03D0091DB1EB152FD4
:1046300041D1B0EB142F2ED0B9EB142F2BD0BAEB05
:10464000142F28D0BBEB142F25D005490C31B1EB2A
:10465000142F20D0091DB1EB142F07E000100140EA
:1046600004024000004400400048004013D0091DEF
:10467000B1EB142F0FD0091DB1EB142F0BD0091D76
:10468000B1EB142F07D0091DB1EB142F03D0091D76
:10469000B1EB142F0FD107212846FCF797FE072115
:1046A0002046FCF793FECDE90076B0EE480A2021C3
:1046B000149B0A9A6CE0B0EB152F2CD0B9EB152F98
:1046C00029D0BAEB152F26D0BBEB152F23D0DFF85E
:1046D00078E4BEEB152F00E05EE01CD00EF1040381
:1046E000B3EB152F17D01B1DB3EB152F13D003F110
:1046F000040CBCEB152F0ED00CF10408B8EB152FF1
:1047000009D008F10408B8EB152F04D008F104080B
:10471000B8EB152F0BD107212846FCF757FECDE942
:104720000076B0EE480A7221149B0A9A30E0B0EB92
:10473000142F22D0B9EB142F1FD0BAEB142F1CD09A
:10474000BBEB142F19D0BEEB142F16D0FE48001D62
:10475000B0EB142F11D0B3EB142F0ED0BCEB142FF1
:104760000BD0F9481030B0EB142F06D0001DB0EB81
:10477000142F02D0B8EB142F0DD107212046FCF7DF
:1047800025FECDE90076149B0A9AB0EE480A742102
:10479000EE4800F05DFCD6E0ED48099981427CD1FD
:1047A000E9481038B0EB152F24D0B9EB152F21D0E4
:1047B000BAEB152F1ED0BBEB152F1BD0E249B1EB86
:1047C000152F17D0091DB1EB152F13D0091DB1EB13
:1047D000152F0FD0091DB1EB152F0BD0091DB1EB13
:1047E000152F07D0091DB1EB152F03D0091DB1EB13
:1047F000152F37D1B0EB142F24D0B9EB142F21D0C3
:10480000BAEB142F1ED0BBEB142F1BD0CE49B1EB4B
:10481000142F17D0091DB1EB142F13D0091DB1EBC4
:10482000142F0FD0091DB1EB142F0BD0091DB1EBC4
:10483000142F07D0091DB1EB142F03D0091DB1EBC4
:10484000142F0FD108212846FCF7C0FD082120466F
:10485000FCF7BCFDCDE90076B0EE480A2021149BA0
:104860000A9A6CE0B0EB152F2CD0B9EB152F29D09C
:10487000BAEB152F26D0BBEB152F23D0DFF8C8E2FB
:10488000BEEB152F1ED00EF10403B3EB152F19D07C
:104890001B1DB3EB152F15D000E054E003F1040C01
:1048A000BCEB152F0ED00CF10408B8EB152F09D076
:1048B00008F10408B8EB152F04D008F10408B8EB90
:1048C000152F0BD108212846FCF780FDCDE9007695
:1048D000B0EE480A7221149B0A9A30E0B0EB142F14
:1048E00022D0B9EB142F1FD0BAEB142F1CD0BBEB86
:1048F000142F19D0BEEB142F16D09348001DB0EB27
:10490000142F11D0B3EB142F0ED0BCEB142F0BD0FF
:104910008D481030B0EB142F06D0001DB0EB142FD3
:1049200002D0B8EB142F0DD108212046FCF74EFD24
:10493000CDE90076149B0A9AB0EE480A74218448A7
:1049400000F086FBD6E08348099981427ED17E48FB
:104950001038B0EB152F24D0B9EB152F21D0BAEBBE
:10496000152F1ED0BBEB152F1BD07749B1EB152FA0
:1049700017D0091DB1EB152F13D0091DB1EB152F61
:104980000FD0091DB1EB152F0BD0091DB1EB152F61
:1049900007D0091DB1EB152F03D0091DB1EB152F61
:1049A00037D1B0EB142F24D0B9EB142F21D0BAEBB0
:1049B000142F1ED0BBEB142F1BD06349B1EB142F67
:1049C00017D0091DB1EB142F13D0091DB1EB142F13
:1049D0000FD0091DB1EB142F0BD0091DB1EB142F13
:1049E00007D0091DB1EB142F03D0091DB1EB142F13
:1049F0000FD108212846FCF7E9FC08212046FCF7E6
:104A0000E5FCCDE90076B0EE480A2021149B0A9A15
:104A10006CE0B0EB152F2CD0B9EB152F29D0BAEBE9
:104A2000152F26D0BBEB152F23D0DFF81CE1BEEBF2
:104A3000152F1ED00EF10403B3EB152F19D01B1D3B
:104A4000B3EB152F15D003F1040C00E052E0BCEBE2
:104A5000152F0ED00CF10408B8EB152F09D008F172
:104A60000408B8EB152F04D008F10408B8EB152F93
:104A70000BD108212846FCF7A9FCCDE90076B0EE61
:104A8000480A7221149B0A9A30E0B0EB142F22D00E
:104A9000B9EB142F1FD0BAEB142F1CD0BBEB142F83
:104AA00019D0BEEB142F16D02748001DB0EB142FE1
:104AB00011D0B3EB142F0ED0BCEB142F0BD0224827
:104AC0001030B0EB142F06D0001DB0EB142F02D025
:104AD000B8EB142F0DD108212046FCF777FCCDE967
:104AE0000076149B0A9AB0EE480A7421194800F027
:104AF000AFFAE1E01849099888427DD11248103890
:104B0000B0EB152F2FD0B9EB152F2CD0BAEB152FFA
:104B100029D0BBEB152F26D00B49B1EB152F22D096
:104B2000091DB1EB152F1ED0091DB1EB152F1AD0A1
:104B3000091DB1EB152F16D0091DB1EB152F12D0A1
:104B4000091DB1EB152F09E010024000004800409C
:104B5000004C0040005000400014014003D0091DEB
:104B6000B1EB152F37D1B0EB142F24D0B9EB142FA4
:104B700021D0BAEB142F1ED0BBEB142F1BD0FE4953
:104B8000B1EB142F17D0091DB1EB142F13D0091D51
:104B9000B1EB142F0FD0091DB1EB142F0BD0091D51
:104BA000B1EB142F07D0091DB1EB142F03D0091D51
:104BB000B1EB142F0FD108212846FCF707FC082180
:104BC0002046FCF703FCCDE90076B0EE480A202130
:104BD000149B0A9A6CE0B0EB152F2CD0B9EB152F73
:104BE00029D0BAEB152F26D0BBEB152F23D0DFF839
:104BF00088E3BEEB152F00E05EE01CD00EF104034D
:104C0000B3EB152F17D01B1DB3EB152F13D003F1EA
:104C1000040CBCEB152F0ED00CF10408B8EB152FCB
:104C200009D008F10408B8EB152F04D008F10408E6
:104C3000B8EB152F0BD108212846FCF7C7FBCDE9AF
:104C40000076B0EE480A7221149B0A9A30E0B0EB6D
:104C5000142F22D0B9EB142F1FD0BAEB142F1CD075
:104C6000BBEB142F19D0BEEB142F16D0C248001D79
:104C7000B0EB142F11D0B3EB142F0ED0BCEB142FCC
:104C80000BD0BD481030B0EB142F06D0001DB0EB98
:104C9000142F02D0B8EB142F0DD108212046FCF7B9
:104CA00095FBCDE90076149B0A9AB0EE480A742170
:104CB000B24800F0CDF9D3E0B148099981427DD1E5
:104CC000AD481038B0EB152F26D0B9EB152F23D0F7
:104CD000BAEB152F20D0BBEB152F1DD0A649B1EB99
:104CE000152F19D0091DB1EB152F15D0091D00E0A6
:104CF0001CE1B1EB152F0FD0091DB1EB152F0BD017
:104D0000091DB1EB152F07D0091DB1EB152F03D0ED
:104D1000091DB1EB152F37D1B0EB142F24D0B9EB0F
:104D2000142F21D0BAEB142F1ED0BBEB142F1BD0A5
:104D30009149B1EB142F17D0091DB1EB142F13D0EB
:104D4000091DB1EB142F0FD0091DB1EB142F0BD09F
:104D5000091DB1EB142F07D0091DB1EB142F03D09F
:104D6000091DB1EB142F0FD108212846FCF72EFBAB
:104D700008212046FCF72AFBCDE90076B0EE480A70
:104D80002021149B0A9A69E08646B0EB152F2BD0A0
:104D9000B9EB152F28D0BAEB152F25D05846BBEB11
:104DA000152F21D07449B1EB152F1DD00A1DB2EB80
:104DB000152F19D0131DB3EB152F00E050E013D0C1
:104DC00003F1040CBCEB152F0ED00CF10408B8EB6A
:104DD000152F09D008F1040BBBEB152F04D00BF1F4
:104DE0000408B8EB152F0BD108212846FCF7EEFA82
:104DF000CDE90076B0EE480A7221149B0A9A2DE0A4
:104E0000BEEB142F1FD0B9EB142F1CD0BAEB142F0C
:104E100019D0B0EB142F16D0B1EB142F13D0B2EB86
:104E2000142F10D0B3EB142F0DD0BCEB142F0AD0DD
:104E300051481030B0EB142F05D0BBEB142F02D02B
:104E4000B8EB142F72D108212046FCF7BFFACDE948
:104E50000076149B0A9AB0EE480A74214848A9E0EB
:104E600048480999814261D143481038B0EB152F69
:104E700024D0B9EB152F21D0BAEB152F1ED0BBEBE8
:104E8000152F1BD03C49B1EB152F17D0091DB1EBE5
:104E9000152F13D0091DB1EB152F0FD0091DB1EB44
:104EA000152F0BD0091DB1EB152F07D0091DB1EB44
:104EB000152F03D0091DB1EB152F38D1B0EB142FEE
:104EC00024D0B9EB142F21D0BAEB142F1ED0BBEB9A
:104ED000142F1BD02849B1EB142F17D0091DB1EBAB
:104EE000142F13D0091DB1EB142F0FD0091DB1EBF6
:104EF000142F0BD0091DB1EB142F07D0091DB1EBF6
:104F0000142F03D0091DB1EB142F10D1082128460E
:104F1000FCF75CFA08212046FCF758FACDE9007648
:104F2000B0EE480A2021149B0A9A42E044E08646EB
:104F3000B0EB152F32D0B9EB152F2FD0BAEB152FC0
:104F40002CD05846BBEB152F28D00B49B1EB152FB1
:104F500024D00A1DB2EB152F20D0131DB3EB152F53
:104F60001CD003F1040CBCEB152F17D00CF1040B73
:104F7000BBEB152F12D007E01002400000140140D7
:104F800000780040007C00400BF10408B8EB152FBE
:104F900004D008F10408B8EB152F13D108212846D6
:104FA000FCF714FACDE90076149B0A9AB0EE480A91
:104FB00072211B4800F04CF803B0BDEC028B06B028
:104FC000BDE8F08FBEEB142F1ED0B9EB142F1BD011
:104FD000BAEB142F18D0B0EB142F15D0B1EB142F5F
:104FE00012D0B2EB142F0FD0B3EB142F0CD0BCEBBC
:104FF000142F09D0BBEB142F06D00A48B0EB142FA6
:1050000002D0B8EB142FD7D108212046FCF7DEF9E7
:10501000CDE90076B0EE480A7421149B0A9AC8E7DD
:10502000007C004024024000C943018070470A0A06
:1050300001219140C943018070470029818902D034
:1050400041F4005101E021F40051818170470000DA
:105050002DE9FF4F0E462DED020B0446584A5948E4
:105060005949DFF86881DFF86891DFF868A1DFF857
:1050700068B194422DED028B85B0B0EE408ADDE937
:10508000167504D101211020FEF7CEFA2EE08442DD
:1050900004D101214804FEF7AFFA06E08C4204D1A6
:1050A00001218804FEF7A8FA06E0444504D1012155
:1050B000C804FEF7A1FA06E04C4504D10121080519
:1050C000FEF79AFA06E0544504D101212020FEF7AC
:1050D000ABFA04E05C4502D10121880704E03F48B7
:1050E000844203D101214005FEF786FA722E3BD09F
:1050F000522E39D0742E39D0542E37D05FF00C0098
:10510000ADF80A000B9800900C9A00204FF48051E3
:10511000092A2DD0ADF804006F2F2CD04F2F2AD0A4
:10512000652F2BD0452F29D0ADF8080018EE102A96
:10513000B2F17C5F2CD018EE101AB1F17F5F22D053
:1051400018EE101AB1F1804F20D0ADF80600722D84
:1051500021D0522D1FD0632D20D0432D1ED0612D84
:105160001FD0412D1DD01EE00420C9E70820C7E74D
:10517000ADF80410D0E74FF4C06201E04FF4806254
:10518000ADF80820D2E74FF4405101E04FF4005150
:10519000ADF80610DBE74FF4807004E04FF40070C8
:1051A00001E04FF44070ADF80C006946204600F075
:1051B0005DF805B0BDEC028B06B0BDE8F08F0000D5
:1051C000001001400044004000480040004C0040F6
:1051D000005000400014014000780040007C004076
:1051E000002A828A01D00A4300E08A438282704703
:1051F0000246002012880A4200D00120704730B5D4
:1052000001F01F0201240025C1F3421304FA02F247
:10521000012B0FD0022B0FD0838A4FEA1121008877
:10522000134204FA01F400EA040001D000B10125A0
:10523000284630BD8389F0E7038AEEE710B5C1F355
:10524000421301F01F040121A140012B07D0022BC2
:1052500007D01430002A026805D00A4304E00C305D
:10526000F8E71030F6E78A43026010BD7FB50446C8
:10527000008A0D4620F44051E88808432082A08926
:1052800041F20C618843A9882A8911436A89024343
:105290001143A181A08A20F44071A8890843A0820B
:1052A0006846FEF7CDF91A48844202D01948844274
:1052B00001D1039800E00298A189090400EBC00124
:1052C00001EB0010296801D5490000E08900B0FB1E
:1052D000F1F26420B2FBF0F109010B096FF018053F
:1052E0006B4302EB8302A3891D044FF0320306D502
:1052F00003EBC202B2FBF0F000F0070005E003EBA5
:105300000212B2FBF0F000F00F00084320817FBDD5
:1053100000100140001401408088C0F3080070476D
:10532000C1F308018180704710B5FCF78DFBBDE823
:105330001040FBF7D9BD10B500F038F860B1012876
:1053400004D002280CD0032816D10FE000F028F872
:10535000012801D0FFF7E8FFBDE81040FAF77CBF55
:1053600000F01EF8032801D1FFF7DEFFFBF716FE61
:10537000BDE81040FAF784BF10BDFEE7024A0021E5
:1053800042F8201070470000C4000020034909685B
:10539000884301D00020704701207047C0000020E2
:1053A0000148407870470000F40000200148007870
:1053B00070470000F40000200A68C97812BA22F091
:1053C000FF020A43017811B90121826001708168EE
:1053D000511A016141684260511AC1607047002151
:1053E000017041608160C160016170470FB4054B7D
:1053F00010B503A9044A029800F018F810BC5DF833
:1054000014FB0000755600080C01002002E008C8DB
:10541000121F08C1002AFAD170477047002001E02E
:1054200001C1121F002AFBD1704700002DE9FF4F78
:1054300089B09B460446002506E025280BD05A4635
:105440000B999047641C6D1C20780028F5D10DB095
:105450002846BDE8F08F0027B8460122474900E002
:10546000074314F8013F203B02FA03F00842F7D14A
:1054700020782E2819D114F8010F47F004072A28A4
:105480000ED06FF02F022078A0F1300109290CD83E
:1054900008EB880102EB410100EB0108641CF2E714
:1054A0000A98641C50F8048B0A9020780028CED00B
:1054B000642808D0692806D075281ED05A460B9952
:1054C00090476D1C58E00A994FF00A0901C90A91EA
:1054D000002802DA40422D2102E0390504D52B21B3
:1054E0008DF82010012103E0F90704D02021F7E70F
:1054F0008A4608AE0DE00021FAE70A994FF00A0942
:1055000001C90A91F7E74946FAF77EFE303106F8FD
:10551000011D0028F7D1ADEB060000F12009780746
:1055200001D44FF00108C84502DDA8EB090000E0F6
:1055300000208046002706E008A85A46C05D0B9967
:1055400090476D1C7F1C5745F6DB04E030205A461F
:105550000B9990476D1CB8F10001A8F10108F5DC2A
:1055600005E016F8010B5A460B9990476D1CB9F1EE
:105570000001A9F10109F4DC641C65E709280100B8
:1055800030B5354C2DED048B81B020889FED338AEA
:1055900000EE100ADFED328A9FED329ADFED329A8B
:1055A000B8EE400AB0EE482AF0EE681AB0EE491A9A
:1055B000F0EE690A00F07DF82C4DB0EE482AF0EECE
:1055C000681A85ED000A6088B0EE491A00EE100AEC
:1055D000F0EE690AB8EE400A00F06BF885ED010ABA
:1055E000A088B0EE482A00EE100AF0EE681AB0EE7D
:1055F000491AB8EE400AF0EE690A00F05AF885ED53
:10560000020A05F10C012846FCF716FA05F10C0018
:1056100090ED030ABDEEC00A10EE101A09B2009117
:1056200090ED020ABDEEC00A10EE101A90ED010ACC
:105630000BB2BDEEC00A10EE101A90ED000A0AB2CD
:10564000BDEEC00A10EE100A01B20948FBF7A0FA3D
:1056500001B0BDEC048B30BD1C0400200000FA43F7
:105660000000FAC30080D2440000B64310010020BD
:105670000064004010B504460348416809B1E0B237
:105680008847204610BD0000A400002000F01EF84E
:10569000FBF798FDFCF74CF9FBF78CFBFBF7A6FA40
:1056A000FAF738FEFEF731FCFFF76AFFFBF77EFBE7
:1056B000FAE730EE600A32EE612A31EE601A20EE2F
:1056C000020AC0EE010A30EEA10A70479FED060AF9
:1056D000DFED031A9FED031AF0EE400AFCF7A6B9BE
:1056E000295C8F3DBC74133C0AD7233E0C5700083D
:1056F00000000020100100000C5400081C58000895
:1057000010010020E80E00001C54000807010701EA
:105710000000000000000000000000000000000089
:105720000000000000000000000000400AD7A33C79
:1057300000005C43000000000000000000000000CA
:105740000020994500C05A450080BB4400B09A45EE
:10575000A00FA00FA00F701700000000A000A00075
:1057600009004600FF1F00000000000000000000CC
:10577000A406E8031405000000000000000000007B
:105780000000000000000000000000000000000019
:105790000000000000000000000000000000000009
:1057A00000000000000000000000000000000000F9
:1057B00000000000000000000000000000000000E9
:1057C000000000000000000000000000FFFFFFFFDD
:1057D0006400000064000000640000006400000039
:1057E0006400000064000000640000006400000029
:1057F0006400000064000000640000006400000019
:10580000000000000000000000000000010203048E
:0C58100001020304060708090000000064
:04000005080001AD41
:00000001FF
