:020000040800F2
:10000000581A00204D020008550200085702000847
:10001000590200085B0200085D02000800000000B1
:100020000000000000000000000000005F02000867
:100030006102000800000000630200086502000879
:1000400067020008670200086702000867020008EC
:1000500067020008670200086702000867020008DC
:1000600067020008670200086702000867020008CC
:1000700067020008670200086702000867020008BC
:100080006702000867020008670200085D040008B4
:1000900019040008670200086702000867020008E8
:1000A000670200086702000867020008670200088C
:1000B000C90E00086702000867020008670200080E
:1000C000670200086702000867020008670200086C
:1000D00067020008590F0008D50F000867020008E2
:1000E000670200086702000867020008670200084C
:1000F000670200086702000867020008670200083C
:10010000670200086702000867020008670200082B
:100110006702000867020008F50E00086702000881
:10012000670200086702000867020008670200080B
:10013000670200086702000867020008C50400089B
:1001400081040008670200086702000867020008CF
:100150006702000867020008670200086D100008C7
:1001600067020008670200086702000867020008CB
:10017000670200086702000867020008000000002C
:1001800067020008670200086702000867020008AB
:10019000670200086702000867020008670200089B
:1001A00000000000000000006702000800F002F8F4
:1001B00000F03CF80AA090E8000C82448344AAF1C5
:1001C0000107DA4501D100F031F8AFF2090EBAE8C3
:1001D0000F0013F0010F18BFFB1A43F0010318477B
:1001E0007010000090100000103A24BF78C878C149
:1001F000FAD8520724BF30C830C144BF04680C602D
:10020000704700000023002400250026103A28BF74
:1002100078C1FBD8520728BF30C148BF0B60704778
:100220001FB501F00FF81FBD10B510BD00F0ADF8FF
:100230001146FFF7F5FF00F0F3FF00F0CBF803B431
:10024000FFF7F2FF03BC00F0CFF800000948804739
:1002500009480047FEE7FEE7FEE7FEE7FEE7FEE7A8
:10026000FEE7FEE7FEE7FEE704480549054A064BC0
:10027000704700006D0E0008AD0100085806002010
:10028000581A00205816002058160020032A40F261
:10029000308010F0030C00F0158011F8013BBCF128
:1002A000020F624498BF11F801CB00F8013B38BF40
:1002B00011F8013BA2F1040298BF00F801CB38BF4E
:1002C00000F8013B11F0030300F02880083AC0F069
:1002D000088051F8043B083A51F804CBA0E8081014
:1002E000F5E7121D5CBF51F8043B40F8043BAFF347
:1002F0000080D20724BF11F8013B11F801CB48BFA1
:1003000011F8012B24BF00F8013B00F801CB48BFD6
:1003100000F8012B704770477047704710B5203ABE
:10032000C0F00B80B1E81850203AA0E81850B1E8AE
:100330001850A0E81850BFF4F5AF5FEA027C24BF64
:10034000B1E81850A0E8185044BF18C918C0BDE85B
:1003500010405FEA827C24BF51F8043B40F8043B24
:1003600008BF7047D20728BF31F8023B48BF11F8D9
:10037000012B28BF20F8023B48BF00F8012B704733
:1003800000487047F805002070477546FFF7F8FFF2
:10039000AE4605006946534620F00700854618B072
:1003A00020B5FFF761FFBDE820404FF000064FF099
:1003B00000074FF000084FF0000B21F00701AC469A
:1003C000ACE8C009ACE8C009ACE8C009ACE8C009B9
:1003D0008D46704710B50446AFF300802046BDE857
:1003E0001040FFF72CBF000001491820ABBEFEE70C
:1003F0002600020010B54FF4A06000F0A7FC00F04A
:1004000015FCBDE810404FF48041014800F040BBAE
:10041000001402407047000010B50E4C86B0022157
:10042000204600F0B5F8002811D00421204600F045
:1004300073F80949204600F057F86A460021204623
:1004400000F0FAF80DF10B01009800F03DF906B04C
:1004500010BD0000006400400800003210B5074CD9
:100460000121204600F094F8002805D02046BDE880
:100470001040012100F050B810BD000000640040A1
:1004800010B50E4C86B00221204600F081F80028FD
:1004900011D00221204600F03FF80949204600F023
:1004A00023F86A460021204600F0C6F80DF10B0142
:1004B000009800F00BF906B010BD00000068004085
:1004C0000800003210B5074C0121204600F060F80A
:1004D000002805D02046BDE81040012100F01CB8DE
:1004E00010BD0000006800400A4A914202D100217C
:1004F00081617047C1F313028B0101D5C26070475F
:100500004B0101D502617047090101D58260704736
:10051000426070477000F03030B508231024042288
:10052000B1F5007F1DD010DC202929D007DC01297E
:1005300021D0042922D0082900D1C46030BD40292F
:1005400020D0B1F5807FF9D10BE00025B1F5004F47
:1005500006D008DCB1F5806F03D0B1F5006FEDD1A6
:100560008561426030BDB1F5803F0DD0B1F5003FEF
:10057000F8D1446030BD0549816030BDC36030BDF5
:10058000036130BD046130BD436030BD0101010035
:100590000246002053690B424AD0B1F5807F3BD020
:1005A00013DC08292ED007DC012926D0022927D008
:1005B00004293DD1D0682BE0102925D0202926D050
:1005C000402935D11069102130E0B1F5004F2BD012
:1005D0000BDCB1F5007F22D0B1F5806F22D0B1F5F0
:1005E000006F25D19069702120E0B1F5803F11D0D6
:1005F000B1F5003F1CD15068E5E790680D4915E062
:10060000D06802E0D068DEE7106903210EE01069CF
:1006100008210BE05068FBE79069012106E0906932
:10062000022103E0906900E05068042100F097B8CF
:10063000704700000101010010B500EB0113D3F871
:10064000B04114F004041472D3F8B04134D0E4087B
:10065000C2F80440D3F8B04104F002045472D3F855
:10066000B44104F00F049472D3F8B441240AD47452
:10067000D3F8B841D472D3F8B841240A1473D3F82C
:10068000B841240C5473D3F8B841240E9473D3F8B2
:10069000BC41D473D3F8BC41240A1474D3F8BC41D0
:1006A000240C5474D3F8BC311B0E937439B1016916
:1006B00041F02001016110BD640D1460CAE7C168FA
:1006C00041F02001C16010BD00F002B8AFF300801E
:1006D00010B50C46B0F5017F2BD00DDCA0F50070F5
:1006E00001381AD001281ED0022837D1062000F088
:1006F0004FFD214602202DE0A0F5007005381ED0E8
:10070000012822D0B0F5FE7F28D1032000F040FD63
:100710002046BDE8104000F043BD042000F038FD45
:100720002146002016E0052000F032FD2146012080
:1007300010E0072000F02CFD214603200AE00820ED
:1007400000F026FD2146042004E0092000F020FDF1
:1007500021460520BDE8104000F080BA10BD0246D9
:1007600000200A4200D001207047000008480168BC
:10077000491C016001684FF47A72B1FBF2F302FB8D
:100780001311002902D14168491C416070470000E3
:10079000000000200029016802D041F0010101E0C1
:1007A00021F0010101607047406880B27047014646
:1007B00000200968090300D50120704710B5D0ED6D
:1007C000020A0446F5EEC00AF1EE10FA29DD2068AF
:1007D00000F066F92068D4ED020A90ED0F0AB4EE3D
:1007E000E00AF1EE10FA12D284ED020A90ED0C0A42
:1007F000606800F017FA206890ED070A606800F062
:100800000EFA206890ED090A606800F005FA206889
:1008100090ED070A84ED030A90ED090A84ED040ABD
:1008200010BD606800F0D3F9606890ED020A84EDB5
:10083000030A90ED030AF1E7006908B10020704750
:100840000120704701694068814201D10120704751
:1008500000207047F0B500231D460EE0846807684D
:10086000661C86603C5DCC54D0E90146A64200D1AE
:1008700085600469641E5B1C0461934202D20469B2
:10088000002CEBD11846F0BDF0B500231D4610E05A
:10089000C4680768CE5C04F1010CC0F80CC03E557A
:1008A0004668C468B44200D1C5600469641C5B1C1E
:1008B0000461934203D246680469B442E8D1184601
:1008C000F0BD00002DE9FF4F054620F0FF04384A37
:1008D00038483949394E3A4FDFF8E880DFF8E89078
:1008E000DFF8E8A0DFF8E8B083B0944202D101213C
:1008F00008463CE0844204D10121022000F030FA95
:1009000006E08C4204D10121042000F029FA06E01F
:10091000B44204D10121082000F022FA06E0BC42D2
:1009200004D10121102000F01BFA06E0444504D157
:100930000121202000F014FA06E04C4504D10121E9
:10094000402000F00DFA06E0544504D1012180203A
:1009500000F006FA06E05C4504D10121080200F02F
:10096000FFF907E01B48844204D10121401500F043
:10097000F7F905E01848844202D101210015F6E795
:1009800005F00F0101208840009004988DF80400C4
:1009900005988DF8050006988DF8060010988DF8DA
:1009A00007006946204600F019F807B0BDE8F08F4F
:1009B000000002400004024000080240000C024017
:1009C000001002400014024000180240001C0240C7
:1009D000002002400024024000280240F0B500231D
:1009E000012403270D6804FA03F21540954242D111
:1009F000D0F800C05E0007FA06F52CEA050CC0F836
:100A000000C091F804C0D0F800E00CFA06FC4CEAF3
:100A10000E0CC0F800C091F804C0BCF1010F02D068
:100A2000BCF1020F1FD1D0F808C02CEA050CC0F8A9
:100A300008C091F805C0D0F808E00CFA06FC4CEAB2
:100A40000E0CC0F808C0D0F804C02CEA020CC0F8A4
:100A500004C0426891F806C00CFA03FC1FFA8CFC33
:100A600042EA0C024260C268AA43C260CA79C56801
:100A7000B2402A43C2605B1C102BB3D3F0BD08B553
:100A800000210B46009102220121FFF71BFF08BD48
:100A9000418370470183704742694A404261704711
:100AA00010B590ED071A80ED081A90ED0C2A80ED34
:100AB0000D2A01890288436891423BD203EB8102EF
:100AC000491C018182ED000A80ED040AD0ED030A81
:100AD00030EE801A80ED031A018900EE901AF8EECC
:100AE000601AC1EE210AC0ED070A90ED081A30EE37
:100AF000C11A70EE600A80ED091AC0ED060A90ED89
:100B00000A0A00EEA00A00EE901AF8EE601A80EDD4
:100B10000A0AC0EE210AC0ED0C0A90ED0D0A30EE73
:100B2000C00A61EE010A80ED0E0A40EE000AC0ED37
:100B30000F0A10BD4489944201D1002242814289AA
:100B400003EB8203521CD3ED000A70EE600AC0ED85
:100B5000040AD0ED031A71EEA02A01EE901AC0ED3E
:100B6000032AB8EE613AC2EE831AC0ED071A71EE9D
:100B7000C12A70EE611AC0ED092A93ED003A33EEF6
:100B8000411A80ED051A31EE811AC0ED061A61EEA8
:100B9000200AC0ED0B0A90ED0A1A31EE201A00EE81
:100BA000901A80ED0A1AF8EE601AC1EE210A22EEC0
:100BB000A21AC0ED0C0A70EEC20AC0ED0E0A00EED9
:100BC000A01A80ED0F1A428183ED000A10BDD0ED0E
:100BD000020A90ED031AD0ED001A30EE811AD0ED22
:100BE000050A70EEA10AD0ED011A30EE410A30EE8E
:100BF000A12AC0EE821AC0ED041A20EE210A80ED6F
:100C0000030A31EE000A20EEA01A80ED020A41EE3E
:100C1000610AC0ED050A704780ED030A704780ED58
:100C2000020A704780ED010A7047000010B50948BC
:100C3000FFF725FF0848FFF722FF06484FF48041E1
:100C40000E38FFF727FF04488021BDE81040C01F81
:100C5000FFF720BF0E14024007100240F8B505460A
:100C6000354A00EBC50302EB8304DFED340A6088EC
:100C700022F823000A8852BA62804B885BBA00EEE1
:100C8000103A63608988B8EEC00A49BAA16020EEC4
:100C9000200ADFED2B0A84ED080A00EE102AB8EED8
:100CA000400A20EE200A8DED000A217B21B184ED5F
:100CB000050A002121612173101A01B241F64C503E
:100CC000814205DD2069A1F50051401E206108E048
:100CD00041F64C50C14204DA206901F50051401C34
:100CE000206100EE101A9FED171A134EB8EEC00ADD
:100CF000D83684ED070A94ED050ADDED000A30EEE2
:100D0000C00AD4ED040AF8EEE00A00EE810A8DED87
:100D1000000A56F82500FFF751FD56F82500DFEDD3
:100D20000A0A90ED030A84ED060A90ED040A20EE0B
:100D3000200A84ED070AF8BD480000206F12833AAC
:100D4000DB0F493ADB0FC94000007A4402490843EF
:100D500002490860704700000000FA050CED00E051
:100D6000044A0029116801D0014300E08143116069
:100D70007047000030380240AFF3008010B50446E1
:100D8000002000F005FA2146BDE81040122201487B
:100D9000FFF77CBA380100201CB500202E490190D5
:100DA00000900A6842F480320A604FF4A0430A6857
:100DB00002F400320092019A521C0192009A12B978
:100DC000019A9A42F3D10A68920342D50120009019
:100DD00021484030026842F0805202601F48026899
:100DE00042F4404202601C4A0832136813601368E0
:100DF00043F400431360136843F4A0531360141FBB
:100E0000174B23600B6843F080730B600B689B01EA
:100E1000FCD5016841F4803101604168C903FCD50B
:100E2000016841F40031016041688903FCD50D4936
:100E300040F205700860106820F003001060106830
:100E400040F0020010601068C0F381000228FAD15F
:100E50001CBD00901CBD0000003802400070004026
:100E6000195A4007003C024070470000124810B574
:100E7000016841F4700101601048016841F001010E
:100E800001600E4A00210832116002680C4B1A40C2
:100E90000260031D0B4A1A60026822F4802202607D
:100EA00006480C300160FFF777FF03494FF0006000
:100EB0008039086010BD000088ED00E00038024075
:100EC000FFFFF6FE1030002410B501218C072046EC
:100ED00000F02EF800280BD00121204600F025F864
:100EE0000121204600F01EF8BDE8104000F02CB8AB
:100EF00010BD000010B50A4C0121204600F018F882
:100F000000280BD00121204600F00FF801212046D7
:100F100000F008F8BDE81040FFF7A6BF10BD0000C4
:100F200000100040C94301827047C94301827047E5
:100F300002460020138A92890B4202EA010202D083
:100F4000002A00D001207047FFF710BCAFF30080EB
:100F5000012000F01DB9000070B51B4E40F2244482
:100F60002146304600F0D4F800282BD0174D2146FA
:100F7000304600F0C7F8164C00212046FFF70AFC67
:100F80002046FFF711FCC0F1240086B22420211D69
:100F900008602046FFF70BFC78B12068243520F468
:100FA0000020206001212046FFF7F4FB122E09D11A
:100FB0002846BDE87040FFF7DFBE206840F40020FF
:100FC0002060EFE770BD00000010014088030020A2
:100FD000406402407CB5234D40F2277631462846D6
:100FE00000F096F80024C0B11F48FFF725FC38B187
:100FF00002B031462846BDE87040002200F0A7B894
:101000008DF80040012269461748FFF723FC9DF840
:101010000010284600F0B7F87CBD40F22551284664
:1010200000F076F80028F7D0284600F0A8F88DF8F0
:1010300000000D481438FFF705FC38B10A488DF858
:101040000440012201A91438FFF704FC06480122DC
:1010500069461438FFF718FC9DF80000FFF7DAF92D
:101060007CBD000000440040740100207CB5234D8D
:1010700040F227763146284600F04AF80024C0B1F5
:101080001F48FFF7D9FB38B102B031462846BDE80A
:101090007040002200F05BB88DF8004001226946E4
:1010A0001748FFF7D7FB9DF80010284600F06BF8B3
:1010B0007CBD40F22551284600F02AF80028F7D0E0
:1010C000284600F05CF88DF800000D481438FFF752
:1010D000B9FB38B10A488DF80440012201A914383F
:1010E000FFF7B8FB0648012269461438FFF7CCFB2E
:1010F0009DF80000FFF72AFF7CBD000000140140AE
:10110000E40300200A0A01219140C943018070478D
:1011100030B501F01F0201240025C1F3421304FA87
:1011200002F2012B0FD0022B0FD0838A4FEA11213C
:101130000088134204FA01F400EA040001D000B16F
:101140000125284630BD8389F0E7038AEEE710B514
:10115000C1F3421301F01F040121A140012B07D06C
:10116000022B07D01430002A026805D00A4304E09D
:101170000C30F8E71030F6E78A43026010BD808833
:10118000C0F308007047C1F3080181807047000078
:10119000024A002142F82010704700000C00002095
:1011A00008B50168C07809BA21F0FF01014300EEDB
:1011B000101ADFED130A1148B8EEC00A016020EEE4
:1011C000200A8DED000A017919B180ED020A002193
:1011D000017190ED030ADDED000A30EEC00ADFED8B
:1011E000090A20EE200A80ED040A90ED020ADDEDE6
:1011F000000A30EEC00A80ED030A08BD340000206A
:10120000D30237B900007A4410B500214AF20E44E7
:1012100003E02246521EFDD2491C8142F9D310BD83
:10122000FFF7E8F8064D4FF480444FF4FA76214674
:101230002846FFF731FC3046FFF7E6FFF7E70000EE
:10124000001402404FF04070E1EE100A70470000B9
:10125000701200080000002034000000E8010008BF
:10126000A412000834000020241A00000402000820
:101270000000000000000000FFFFFFFF640000000E
:1012800064000000640000006400000064000000CE
:1012900064000000640000006400000064000000BE
:0412A00064000000E6
:04000005080001AD41
:00000001FF
