:020000040800F2
:1000000028100020C1010008B51B00084317000894
:100010007F1A000809040008EB51000800000000E6
:100020000000000000000000000000000F37000882
:10003000ED1000080000000045340008D901000858
:10004000DB010008DB010008DB010008DB01000820
:10005000DB010008DB010008DB010008DB01000810
:10006000DB010008DB010008DB010008DB01000800
:10007000DB010008DB010008DB010008DB010008F0
:10008000DB010008DB010008DB0100085104000867
:100090000D040008DB010008DB010008DB0100089B
:1000A000DB010008DB010008DB010008DB010008C0
:1000B0007D380008DB010008DB010008DB010008D7
:1000C000DB010008DB010008DB010008DB010008A0
:1000D000DB0100087D3E0008F93E0008913F000862
:1000E000DB010008DB010008DB010008DB01000880
:1000F000DB010008DB010008DB010008DB01000870
:10010000DB010008DB010008DB010008DB0100085F
:10011000DB010008DB010008A9380008DB0100084A
:10012000DB010008DB010008DB010008DB0100083F
:10013000DB010008DB010008DB010008AD0400085A
:1001400075040008DB010008DB010008DB01000882
:10015000DB010008DB010008DB0100082940000882
:10016000DB010008DB010008DB010008DB010008FF
:10017000DB010008DB010008DB01000800000000D3
:10018000DB010008DB010008DB010008DB010008DF
:10019000DB010008DB010008DB010008DB010008CF
:1001A0000000000000000000DB010008DFF80CD0B8
:1001B00000F040F800480047FD54000828100020D7
:1001C0000648804706480047FEE7FEE7FEE7FEE7F1
:1001D000FEE7FEE7FEE7FEE7FEE7FEE72138000860
:1001E000AD010008D2B201E000F8012B491EFBD29C
:1001F00070470022F6E710B513460A460446194632
:10020000FFF7F0FF204610BD30B50B460146002039
:100210002022012409E021FA02F59D4205D303FAC8
:1002200002F5491B04FA02F52844151EA2F1010249
:10023000F1DC30BD064C074D06E0E06840F00103FC
:1002400094E8070098471034AC42F6D3FFF7B2FFAA
:10025000605500088055000838B50020074C03465B
:10026000024601460090204600F0A8FB2046BDE86B
:1002700038400022114600F0DFBF0000006400405B
:1002800008B501211E4800F0B4FF02001D484FF4DC
:10029000804102D001F00DF901E001F00CF90221DA
:1002A000174800F0A6FF010017484FF0800102D068
:1002B00001F0FFF801E001F0FEF8144890ED030AA8
:1002C000BDEEC00A10EE101A09B2009190ED020ABC
:1002D000BDEEC00A10EE101A90ED010A0BB2BDEE91
:1002E000C00A10EE101A90ED000A0AB2BDEEC00A64
:1002F00010EE100A01B2064800F060FB08BD0000D5
:100300007000002000140240001002403C04002055
:100310000064004010B54FF4A06001F08DFC00F0C7
:100320001DF800F06BF800F075FB00F0ADFB00F07D
:1003300065FE01F085FA03F087F803F06DF903F02C
:1003400043FD03F04BFDBDE810404FF480410148F0
:1003500001F0AFB80014024000F038B83EB54E20AE
:100360000821CDE90010154C15490290B7EE000A9E
:100370004FF416532246481C03F0A2FE012240F21D
:100380002551204604F092FE02221146262001F05B
:1003900012FC0C49A5152A46A1F1280000F0DAFE4E
:1003A00009492A46A1F58A7000F0D4FE03B0204620
:1003B000BDE83040012104F079BD00000044004058
:1003C000050C02409005002090060020022004F059
:1003D0000DBF000008B500208DF80000064800F0B1
:1003E000BDFE0028FAD101226946034800F0C4FE90
:1003F0009DF8000008BD000068050020014800F0DD
:10040000DFBF00000A0C0240FEE7000010B50E4CF2
:1004100086B00221204600F067F9002811D004219F
:10042000204600F06DF80949204600F051F86A4670
:100430000021204600F028FA0DF10B01009800F091
:10044000E7FA06B010BD000000640040080000326A
:1004500010B5074C0121204600F046F9002805D0D0
:100460002046BDE81040012100F04AB810BD000050
:100470000064004010B50C4C86B00221204600F00C
:1004800033F900280DD00221204600F039F86A46E1
:100490000021204600F0F8F90DF10B01009800F062
:1004A000F1FA06B010BD00000068004010B5074C1E
:1004B0000121204600F018F9002805D02046BDE8AB
:1004C0001040012100F01CB810BD00000068004081
:1004D0000A4A914202D1002181617047C1F313029F
:1004E0008B0101D5C26070474B0101D50261704795
:1004F000090101D582607047426070477000F0309A
:1005000030B5082310240422B1F5007F1DD010DC83
:10051000202929D007DC012921D0042922D008294B
:1005200000D1C46030BD402920D0B1F5807FF9D121
:100530000BE00025B1F5004F06D008DCB1F5806F67
:1005400003D0B1F5006FEDD18561426030BDB1F5EA
:10055000803F0DD0B1F5003FF8D1446030BD054972
:10056000816030BDC36030BD036130BD046130BD0A
:10057000436030BD010101002DE9FE430F460446F2
:10058000DDE90A89154916481D4616468C4202D1F6
:100590000121480603E0844203D10121880602F0CC
:1005A00085FF00218DF804808DF808108DF80590E6
:1005B0008DF80A10ADF800708DF8061001208DF846
:1005C00002608DF807108DF80B008DF80350694616
:1005D000204600F0E5F8BDE8FE830000006400401E
:1005E00000680040F0B5827A012191402E4A1368DC
:1005F00043F0010313602C4B1C331C688C431C60BC
:10060000294D067B294C0C35A6B92E688E432E60E9
:100610004688C78846EA0746877A04EBC707C7F8C3
:1006200040660688878846EA0746877A04EBC7074C
:10063000C7F84466067B012E12D12E680E432E6049
:10064000867A056804EBC6064FEA3545C6F840567B
:10065000867A456804EBC6044FEA3545C4F844562B
:10066000114CC57A241D002D256806D00D43256048
:100670000D4C0589143415B104E08D43F7E7256866
:100680008D4325600589012D02D125680D43256024
:10069000407B012802D1186808431860106820F0D8
:1006A00001001060F0BD00000066004000600040E6
:1006B0007FB5DDE90845ADF80000ADF808408DF8DC
:1006C0000A5000208DF80B0001208DF80C00ADF8C9
:1006D00004208DF80D00ADF80210ADF80630684624
:1006E000FFF780FF7FBD00000246002053690B42E8
:1006F0004AD0B1F5807F3BD013DC08292ED007DC2F
:10070000012926D0022927D004293DD1D0682BE029
:10071000102925D0202926D0402935D11069102153
:1007200030E0B1F5004F2BD00BDCB1F5007F22D0CB
:10073000B1F5806F22D0B1F5006F25D1906970219D
:1007400020E0B1F5803F11D0B1F5003F1CD15068D9
:10075000E5E790680D4915E0D06802E0D068DEE773
:10076000106903210EE0106908210BE05068FBE7D7
:100770009069012106E09069022103E0906900E0A0
:100780005068042100F08ABA70470000010101009E
:10079000002A426901D00A4300E08A43426170475F
:1007A00010B50368002223F002030360036843F0DE
:1007B000010303604FF6FF7300E0521C4468E40736
:1007C00001D19A42F9D14268D2073ED08A79012AF2
:1007D00002683CD022F080020260CA79012A0268D5
:1007E00038D022F0400202600A7A012A026834D02E
:1007F00022F0200202604A7A012A026830D022F0F8
:10080000100202608A7A012A02682CD022F00802C3
:100810000260CA7A012A026828D022F0040202602B
:100820008A78CC78920742EA04620C7942EA044260
:100830004C79098842EA0452491E0A43C2610168A0
:1008400021F001010160002114E0002010BD42F000
:100850008002C1E742F04002C5E742F02002C9E74A
:1008600042F01002CDE742F00802D1E742F0040264
:10087000D5E7491C4268D20701D09942F9D14068B6
:10088000C007E2D1012010BD10B500EB0113D3F871
:10089000B04114F004041472D3F8B04134D0E40829
:1008A000C2F80440D3F8B04104F002045472D3F803
:1008B000B44104F00F049472D3F8B441240AD47400
:1008C000D3F8B841D472D3F8B841240A1473D3F8DA
:1008D000B841240C5473D3F8B841240E9473D3F860
:1008E000BC41D473D3F8BC41240A1474D3F8BC417E
:1008F000240C5474D3F8BC311B0E937439B10169C4
:1009000041F02001016110BD640D1460CAE7C168A7
:1009100041F02001C16010BD30B50246002093684F
:100920005B0108D49068000101D5012003E09068C4
:10093000C00037D5022002EB0012D2F8803103F05C
:100940000103C2F880310B7A73B3D2F880414D684D
:100950001C434B7A43EAC5031C43C2F880418B7A9F
:1009600003F00F038B72D2F8843123F00F03C2F827
:100970008431D2F884318C7A2343C2F88431CB7A23
:10098000CC6843EA0423C2F88831CB7B096943EA87
:100990000121C2F88C11D2F8801141F00101C2F896
:1009A000801130BD042030BDD2F880314C7A234311
:1009B0000C8843EA4453C2F88031D0E730B585B0A3
:1009C0004FF40075009500258DF808508DF80950FA
:1009D00008258DF80A50089C0D0A8DF80C10110A94
:1009E0008DF80D108DF80E20190A8DF80F108DF866
:1009F0001030210A8DF811108DF80B508DF812402F
:100A00006946FFF789FF05B030BD80EC030A7047E7
:100A100000F07AB81CB50921184800F031FC1748DD
:100A20000921401C00F02CFC01221146142001F089
:100A3000C2F801220021132001F0BDF80321082093
:100A40000F4C0023CDE900011A462046FFF794FD24
:100A5000002100910B460A4608460191FFF728FE47
:100A6000012202212046FFF793FE02B02046012218
:100A7000BDE810401146FFF78BBE0000000C02409D
:100A80000064004000F040B81CB50921184800F08F
:100A9000F7FB17480921401C00F0F2FB012202215C
:100AA000402001F088F8012211463F2001F083F830
:100AB000032108200F4C0023CDE900011A462046EF
:100AC000FFF75AFD00200E21CDE900010346024642
:100AD0000146FFF7EDFD012202212046FFF758FEF7
:100AE00002B020460122BDE810401146FFF750BE7B
:100AF0000C0402400068004010B504F0A9FBBDE8FA
:100B0000104001F027B800007CB50D46B0F5017F1C
:100B100048D00FDC2F4CA0F5007001381DD0012803
:100B200025D002283DD1082004F060FB294604F1BD
:100B3000C0004AE0A0F50070053839D001283ED049
:100B4000B0F5FE7F2DD1052004F050FB2946BDE80D
:100B50007C402048143804F067BB062004F046FBB4
:100B600029461C4800F08CFF2078002819D1072066
:100B700004F03CFB17482946603000F081FF34F94F
:100B8000881F54F8200CCDE9000194ED030AB4F954
:100B9000303011A0BDEEC00A616B10EE102A04F0D7
:100BA0005DFB7CBD092004F021FB29460E480CE0CA
:100BB0000A2004F01BFB0C482946603005E00B209E
:100BC00004F014FB08482946C030BDE87C4000F022
:100BD00057BF00004001002025642C25642C2564AB
:100BE0002C25642C25640A006002002070B5274C77
:100BF000274D28482DED028BD4ED000A95ED000A13
:100C000001F0F8F8B0EE408A234802F05FFD214E73
:100C100028EE000AA036A6F1780086ED000AD4ED91
:100C2000010A95ED010A01F0E5F81B48B0EE408A93
:100C3000083002F04BFD28EE000AA6F1500086EDC8
:100C4000010AD4ED020A95ED020A01F0D3F8124828
:100C5000B0EE408A103002F039FD28EE000AA6F10D
:100C6000280086ED020AD4ED030A95ED030A01F08F
:100C7000C1F80948B0EE408A183002F027FD28EE8E
:100C8000000A86ED030ABDEC028B70BD3005002022
:100C90008C0300209C0300207400002002460020EA
:100CA0000A4200D00120704710B503212DED028BC0
:100CB0000E4800F098FA9FED0E8A0E48B0EE481AE2
:100CC000F0EE480AB0EE480AFFF79FFEF0EE481A31
:100CD000B0EE481AF0EE480AB0EE480ABDEC028BBE
:100CE0000448BDE810400C3000F0F8BD6C00002056
:100CF000000000008003002037493648B1F8462044
:100D000090ED000A00EE902AF8EE600AB4EEE00AD8
:100D1000F1EE10FA04DD00EE102AB8EE400A0DE004
:100D2000524200EE902AF8EEE00AB4EEE00AF1EE4C
:100D300010FA03D200EE102AB8EEC00A80ED000AC5
:100D4000B1F8482090ED010A00EE902AF8EE600A12
:100D5000B4EEE00AF1EE10FA04DD00EE102AB8EE6F
:100D6000400A0DE0524200EE902AF8EEE00AB4EE9E
:100D7000E00AF1EE10FA03D200EE102AB8EEC00A33
:100D800080ED010AB1F84A1090ED020A00EE901AC7
:100D9000F8EE600AB4EEE00AF1EE10FA04DD00EEBF
:100DA000101AB8EE400A0DE0494200EE901AF8EE33
:100DB000E00AB4EEE00AF1EE10FA03D200EE101AE7
:100DC000B8EEC00A034980ED020A0C31014800F078
:100DD0008FBD0000800300200000002010B5FFF749
:100DE00063FF00F033FF274801F078F825482830EA
:100DF00001F074F82348503001F070F82148783041
:100E000001F06CF8204802F077FC1F48083002F02F
:100E100073FC1D48103002F06FFC1B48183002F0C4
:100E20006BFC184801F062F81648283001F05EF8B3
:100E30001448503001F05AF81248783001F056F852
:100E4000114802F061FC1048083002F05DFC0E48C9
:100E5000103002F059FC0C48183002F055FC0A48DA
:100E60000321001F00F0BFF99FED080A0548BDE807
:100E70001040F0EE401AB0EE401AF0EE400AA030FA
:100E800000F02CBD9C030020740000200000000036
:100E900010B5FFF731FF00F025FF05480322016878
:100EA000044800F0A2F9BDE81040FFF79FBE000023
:100EB0006C0000207000002070B50D46044602F062
:100EC00057FBA91D04F10A00BDE8704000F01CBCEE
:100ED00010B5044602F074FB04F10A00BDE81040AE
:100EE00000F021BC0029016802D041F0010101E0BD
:100EF00021F00101016070472DE9F0438FB00446F5
:100F0000DDE9168915481D4616460F46A04303D154
:100F10000121480502F0BEFA1148A04303D1012186
:100F2000880502F0B7FA00214FF48060CDE9051082
:100F30008010CDE9081000020791CDE90A010C915B
:100F40000D910E9102AA694682E82003CDE9007650
:100F5000204600F027F80FB0BDE8F08300600240A3
:100F6000006402400029016802D041F4802101E0C0
:100F700021F4802101607047002A026802D042F407
:100F8000002201E022F40022026001617047406803
:100F900080B27047014600200968090300D501208E
:100FA0007047000030B50368124ACC6813400A68E5
:100FB0002243D1E905452C432243CC6922430C6AE4
:100FC00022434C6A22438C6A22434C6B22438C6B33
:100FD00022431A430260426922F00703D1E90B243D
:100FE00022431A4342610A6942604A688260896802
:100FF000C16030BD3F801CF000F038B83EB54E20D7
:101000000821CDE90010154C15490290B7EE000AF1
:101010004FF4E1332246481C03F052F8012240F21B
:101020002551204604F042F802221146272000F004
:10103000C2FD0C49A5152A46A1F1280000F08AF846
:1010400009492A46A1F58A7000F084F803B02046C9
:10105000BDE83040012103F029BF000000480040F6
:10106000080C0240B8070020B8080020032004F054
:10107000BDB8000008B500208DF80000064800F05B
:101080006DF80028FAD101226946034800F074F88F
:101090009DF8000008BD00009007002010B502F088
:1010A000A3FA00F04FFBBDE810400148FFF710BF66
:1010B0004C04002010B5044600F006FB204600F06A
:1010C000F1FA09484078012807D003280AD104F131
:1010D0000A00BDE8104000F061BB2046BDE81040AA
:1010E00002F096BA10BD0000B0000020704780ECFE
:1010F000040A7047D0ED020A90ED031AD0ED001AF1
:1011000030EE811AD0ED050A70EEA10AD0ED011A79
:1011100030EE410A30EEA12AC0EE821AC0ED041A68
:1011200020EE210A80ED030A31EE000A20EEA01A1B
:1011300080ED020A41EE610AC0ED050A704710B564
:101140000446D4E90001FFF754F80020A060E060F5
:10115000206110BDC0E90012FFF7F1BF006908B1BE
:10116000002070470120704701694068814201D129
:101170000120704700207047F0B500231D460EE0A7
:1011800084680768661C86603C5DCC54D0E90146E3
:10119000A64200D185600469641E5B1C0461934211
:1011A00002D20469002CEBD11846F0BDF0B5002343
:1011B0001D4610E0C4680768CE5C04F1010CC0F85D
:1011C0000CC03E554668C468B44200D1C56004698D
:1011D000641C5B1C0461934203D246680469B442F8
:1011E000E8D11846F0BD00F006B800F008B800F0ED
:1011F00019B800F01EB802688A4302607047F0B563
:1012000020260023012505FA03F1046811400C4251
:1012100001D00C4300E08C435B1CDBB20460B342A2
:10122000F1D3F0BD0B6808B1134300E093430B60AA
:10123000704700680840704710B586B040F2FF1351
:10124000009300238DF808308DF8093008248DF8BC
:101250000A400C0A8DF80C10110A8DF80D108DF84B
:1012600010308DF80E208DF811308DF80B408DF870
:101270000F308DF812306946FFF74EFB06B010BDF7
:1012800038B5044600200D46034602220090114660
:10129000204600F009F804F00F0124F0FF002A4670
:1012A000BDE8384000F0EEB82DE9FF4F054620F0CC
:1012B000FF04384A38483949394E3A4FDFF8E88058
:1012C000DFF8E890DFF8E8A0DFF8E8B083B09442F8
:1012D00002D1012108463CE0844204D101210220D0
:1012E00002F0D8F806E08C4204D10121042002F07B
:1012F000D1F806E0B44204D10121082002F0CAF876
:1013000006E0BC4204D10121102002F0C3F806E03F
:10131000444504D10121202002F0BCF806E04C45F0
:1013200004D10121402002F0B5F806E0544504D173
:101330000121802002F0AEF806E05C4504D10121D5
:10134000080202F0A7F807E01B48844204D10121FB
:10135000401502F09FF805E01848844202D10121AF
:101360000015F6E705F00F01012088400090049871
:101370008DF8040005988DF8050006988DF8060094
:1013800010988DF807006946204600F021F807B054
:10139000BDE8F08F00000240000402400008024057
:1013A000000C0240001002400014024000180240ED
:1013B000001C02400020024000240240002802409D
:1013C00008B50021012302220091FFF76DFF08BD3F
:1013D000F0B50023012403270D6804FA03F2154039
:1013E000954242D1D0F800C05E0007FA06F52CEA1B
:1013F000050CC0F800C091F804C0D0F800E00CFA69
:1014000006FC4CEA0E0CC0F800C091F804C0BCF118
:10141000010F02D0BCF1020F1FD1D0F808C02CEA96
:10142000050CC0F808C091F805C0D0F808E00CFA27
:1014300006FC4CEA0E0CC0F808C0D0F804C02CEA38
:10144000020CC0F804C0426891F806C00CFA03FC14
:101450001FFA8CFC42EA0C024260C268AA43C260D6
:10146000CA79C568B2402A43C2605B1C102BB3D353
:10147000F0BD08B500210B46009102220121FFF7C3
:1014800013FF08BD4B07DB0E9A40C90810B500EBEF
:101490008100016A0F249C40A1430162016A11434B
:1014A000016210BD0246002052690A4200D00120AC
:1014B00070474183704701837047000010B5B6EE56
:1014C000001A2DED048B017A9FED2D8ACC072B4954
:1014D000002C31F8463F00EE103A4A888988B8EE71
:1014E000400A01D120EE010A00EE902AF8EE600ACF
:1014F00002D100BF60EE810A05D000BF01EE101AD4
:10150000B8EE412A05E001EE901AF8EE611A21EEDC
:10151000812A02D0F1EE408A01E0F0EE488A01D043
:10152000B1EE608AB0F90000F1EE421A00EE100A46
:101530009FED141ADFED140AB8EEC00A03F0F2FFB3
:10154000B0EE409AB0EE680A104800F091F9104CE5
:101550000E4884ED000AB0EE480A103000F088F919
:101560000A4884ED010AB0EE490A203000F080F903
:1015700084ED020ABDEC048B10BD000000000020C9
:101580000000000000FEFF46000000C764040020C9
:101590008003002070B5294D04462DED028B35F8EF
:1015A000460F9FED278A00EE100A4042DFED258AA4
:1015B000B8EE402A00EE100A2088B0EE481AF8EE85
:1015C000C01A00EE100AF0EE680AB8EE400A03F006
:1015D000A9FF1D4EB0EE481AF0EE680A86ED000A2B
:1015E000688800EE100A4042B8EE402A00EE100A69
:1015F0006088F8EEC01A00EE100AB8EE400A03F058
:1016000091FF86ED010AA888B0EE481A00EE100A94
:101610004042F0EE680AB8EE402A00EE100AA088B8
:10162000F8EEC01A00EE100AB8EE400A03F07AFF96
:1016300086ED020ABDEC028B70BD000000000020A8
:101640000080D2440000B64380030020F0B5144A65
:101650000021141F231F0F46801D655C465CAE42AF
:1016600009D152F821500A2D03D26D1C42F82150A5
:1016700003E05E5401E042F82170455C6554491C6A
:101680000229EAD306490020891E0C1F1A5C0D5C52
:1016900042EAC50525540A54401C0228F6D3F0BD81
:1016A0009C00002030B5074B0020991D0C1F1A5CD0
:1016B0000D5C42EAC50525540A54401C0228F6D3A5
:1016C00030BD0000B0000020F0B50E4F002107F142
:1016D0000802131F0E4608305C5C455CA54209D128
:1016E00052F821400A2C03D2641C42F8214003E046
:1016F0007D5401E042F82160445C5C54491C02299D
:10170000EAD3F0BDB00000200A8802804A884280F7
:101710008A8882808A798271CA79C2710A89028133
:1017200049894181704700210A464318491CC9B2C2
:101730009A710229F9D3028042808280028142811B
:101740007047FEE770B5134A0020131D141F961E44
:101750000146951C115443F820102154315429544A
:10176000401C0228F6D30C490A22A1F1300000F0F7
:10177000A0F809490A222831A1F1480000F099F89F
:101780000549BDE870400A225031A1F1600000F027
:1017900090B80000980000209404002010B5044682
:1017A000FFF754FF2046BDE81040FFF787BE10B595
:1017B000022003F023FD48B1082003F01FFD48B1CB
:1017C000042003F01BFD48B1002010BDBDE810400F
:1017D00002F040BBBDE81040FFF74CBCBDE8104034
:1017E000FEF7F8BD00B5044800F01AF803485DF8AC
:1017F00004EB00F01DB80000AF1700080118000846
:1018000070B5064D04464021284603F029FC002807
:10181000F9D00248001D048070BD0000004800405F
:10182000002801D00149086070470000A400002092
:10183000002801D00149486070470000A400002042
:1018400010B50948FFF715FE0848FFF712FE0648D5
:101850004FF480410E38FFF72EFE04488021BDE88A
:101860001040C01FFFF727BE0E14024007100240B1
:101870000268816802EB8102491CD2ED000A30EE59
:10188000601AD0ED010AF8EE600AC1EE201AD0ED20
:10189000030A71EEA00AC0ED030A816082ED000A1E
:1018A000D0E901128A4201D30021816090ED030A40
:1018B0007047C0E9001200F001B8000010B50446FE
:1018C000406881002068FEF794FC00209FED020A2A
:1018D000A06084ED030A10BD0000000080EC040A43
:1018E00070470000014800F031B800000C050020EE
:1018F0000A460146014800F042B800000C050020ED
:101900000D48B0F8561000EE101AB0F85410F8EE6A
:10191000401A00EE101AB0F85210B0F85000B8EEAD
:10192000401A00EE101AF8EE400A00EE100AB8EE67
:10193000400AFFF7D7BF0000000000200A4601461A
:10194000014800F063B800000C05002070EE200A8A
:10195000B5EE000A31EE212A21EE001AC0ED000A90
:1019600080ED012A80ED021A21EE801A22EE000A93
:1019700080ED031A80EE201A80ED041A704791EC76
:10198000020A90ED001A30EE600AD1ED020A00EE74
:10199000810AD0ED010A80EE201A82ED001A90ED46
:1019A000001A91EC020A30EE200AD1ED020A00EE94
:1019B000810AD0ED010A80EE201A82ED011A91ED24
:1019C000010AD1ED000A90ED001A30EE600AD1ED67
:1019D000020A00EE810AD0ED010A80EE201A82EDA3
:1019E000021A91ED000AD1ED010A90ED001AB1EE54
:1019F000400A30EE600AD1ED020A00EE810AD0ED15
:101A0000010A80EE201A82ED031A704791EC020A57
:101A100030EE200AD1ED020A30EE600AD1ED030A61
:101A200030EE600AD0ED020A20EE200A82ED000AB4
:101A300091ED010AD1ED000A30EE600AD1ED020A03
:101A400030EE200AD1ED030A30EE600AD0ED030A31
:101A500020EE200A82ED010A91EC020A30EE200A03
:101A6000D1ED020A30EE200AD1ED030A30EE200A51
:101A7000D0ED040A20EE200A82ED020A7047FEE74C
:101A800070B50446088842BAB4F84400A4F844206B
:101A90004B88101A5BBAA364898800B249BAE16422
:101AA0002378002123B9A4F8502001236165237015
:101AB000B0F57A6F05DD636DA0F500505B1E6365C0
:101AC00007E010F57A6F04DA636D00F500505B1CD7
:101AD0006365A4F85800B4F85000101A626D00EB6A
:101AE0004230E06594F82600B4F8582004EB40003A
:101AF0008389D31A1BB2A384256A2B440A25236247
:101B000093FBF5F32385828194F82600401CC0B234
:101B100084F826000A2801D384F8261094ED0D0AD3
:101B200004F12C00BDEEC00A84ED010A94ED170A01
:101B3000B8EEC00AFFF7DEFA94ED010AD4ED0D0A03
:101B4000B8EEC00A30EEC00ABDEEC00A84ED020A4B
:101B500070BD000070B5134E00242DED048B9FED79
:101B6000129A9FED128ADFED128A00BF04EB440047
:101B700006EB401005466021FEF73BFBB0EE491A2C
:101B800005F12C00F0EE411AF0EE480AB0EE680ABA
:101B9000FFF7ADFA641CE4B2062CE7D3BDEC048B6E
:101BA00070BD000040010020000000006666663F36
:101BB000CDCCCC3D704708B58DF800008DF80110F4
:101BC0008DF8022001208DF80300684600F002F82D
:101BD00008BD000030B50F22C47801780123FCB1A4
:101BE000144C246801F1E02104F4E064C4F5E064DD
:101BF000C4F30724C4F10405E2404478AC4085787E
:101C0000154025432A0181F80024007800F01F01C7
:101C10008B404009800000F1E020C0F8003130BD69
:101C200001F01F0083404809800000F1E020C0F867
:101C3000803130BD0CED00E00249084302490860E4
:101C4000704700000000FA050CED00E010B52DED26
:101C5000028BFEF751FF03211F48FFF7C4FA9FEDE7
:101C60001F8A1F48B0EE481AF0EE480AB0EE480A44
:101C7000FEF7CBFE1A48B0EE481AF0EE480AB0EE76
:101C8000480A0C30FEF7C1FE1548F0EE481AB0EED7
:101C9000481AF0EE480AB0EE480A3038FFF71EFE48
:101CA0000F48F0EE481AB0EE481AF0EE480AB0EECF
:101CB000480A2038FFF712FEF0EE481AB0EE481A34
:101CC000F0EE480AB0EE480ABDEC028B0448BDE8CD
:101CD00010401038FFF702BEAC00002000000000EA
:101CE0005005002010B54FF480413D48FFF7DAFB66
:101CF000002871D0002001223A49FFF778FA8021AC
:101D00003948FFF7CFFBE8B3002002223549FFF73F
:101D10006EFA3648364990ED170AB8EEC00A81EDE2
:101D2000000A90ED2F0AB8EEC00A81ED010A90ED8D
:101D3000470AB8EEC00A81ED020A90ED5F0AB8EEDC
:101D4000C00A81ED030AB0F9581000EE101A2849B4
:101D5000B8EEC00A103181ED000AB0F9B82000EEEB
:101D6000102AB8EEC00A81ED010AB0F9182100EE80
:101D7000102AB8EEC00A81ED020AB0F9782100EE0F
:101D8000102A00E02AE0B8EEC00A81ED030A90EDC7
:101D9000120A1031B8EEC00A81ED000A90ED2A0A4D
:101DA000B8EEC00A81ED010A90ED420AB8EEC00A11
:101DB00081ED020A90ED5A0A0D48B8EEC00A81ED95
:101DC000030A1031FFF7BAFD0949BDE810403C3164
:101DD000A1F12C00FFF7B2BD01208CE7012094E7B0
:101DE00000140240AC00002000100240400100201E
:101DF0002005002030EE601A90ED080ADFED341A5D
:101E000031EE402A90ED000A60EE010A90ED040ADE
:101E1000B4EEE00AF1EE10FA08D3B1EE400AB4EEE7
:101E2000E00AF1EE10FA01DCB0EE600AD0ED030A30
:101E3000F4EEC20AF1EE10FA1ADDD0ED090AD0ED87
:101E4000011A41EE810AC0ED090AD0ED051AF4EE3F
:101E5000E10AF1EE10FA06DCF1EE611AF4EEE10AA5
:101E6000F1EE10FA01D2F0EE610AC0ED090A01E0CC
:101E7000C0ED091AD0ED020AD0ED061A60EE820A12
:101E8000F4EEE01AF1EE10FA06D3F1EE611AF4EE78
:101E9000E01AF1EE10FA01DDF0EE610AD0ED091A58
:101EA00031EE800A30EE200AD0ED070AF4EEC00AC7
:101EB000F1EE10FA06D3F1EE600AF4EEC00AF1EE8C
:101EC00010FA01DDB0EE600A80ED081A70470000DC
:101ED0000000000080EC080A70470000024991EC05
:101EE000080AFFF7F7BF0000240000209FED030A57
:101EF00080ED080A80ED090A70470000000000002C
:101F00002DE9FE4F1546DFF80484FF4ADDF830B0B6
:101F100008F104091C460E46074609F1040A9345D8
:101F20007ED100200290A8F10400B0EB172F25D03D
:101F3000B8EB172F22D0B9EB172F1FD0BAEB172F02
:101F40001CD00AF10400B0EB172F17D0001DB0EB26
:101F5000172F13D0001DB0EB172F0FD0001DB0EBC3
:101F6000172F0BD0001DB0EB172F07D0001DB0EBC3
:101F7000172F03D0001DB0EB172F05D101213846D4
:101F8000FFF77EF901200290E048001FB0EB162F0A
:101F900025D0B8EB162F22D0B9EB162F1FD0BAEBF5
:101FA000162F1CD0D9480C30B0EB162F17D0001DBF
:101FB000B0EB162F13D0001DB0EB162F0FD0001D65
:101FC000B0EB162F0BD0001DB0EB162F07D0001D65
:101FD000B0EB162F03D0001DB0EB162F07D1012157
:101FE0003046FFF74DF9029840F002000290C748D2
:101FF000001FB0EB152F27D0B8EB152F24D0B9EB6D
:10200000152F21D0BAEB152F1ED0C0480C30B0EBE5
:10201000152F19D0001DB0EB152F15D0001D00E0B5
:1020200061E0B0EB152F0FD0001DB0EB152F0BD0DA
:10203000001DB0EB152F07D0001DB0EB152F03D0FE
:10204000001DB0EB152F07D101212846FFF718F925
:10205000029840F004000290AC48001FB0EB142F2F
:1020600025D0B8EB142F22D0B9EB142F1FD0BAEB28
:10207000142F1CD0A5480C30B0EB142F17D0001D26
:10208000B0EB142F13D0001DB0EB142F0FD0001D98
:10209000B0EB142F0BD0001DB0EB142F07D0001D98
:1020A000B0EB142F03D0001DB0EB142F07D101218A
:1020B0002046FFF7E5F8029840F008000290002063
:1020C00000900190DDE90D1302468F4801F01EFCDF
:1020D00070228D480F9B029901F0CCFD01218A48A6
:1020E00001F0FAFBB6E1BBF1804F7DD088498B450A
:1020F000F8D1002002908548001FB0EB172F25D0A3
:10210000B8EB172F22D0B9EB172F1FD0BAEB172F30
:102110001CD07E480C30B0EB172F17D0001DB0EB51
:10212000172F13D0001DB0EB172F0FD0001DB0EBF1
:10213000172F0BD0001DB0EB172F07D0001DB0EBF1
:10214000172F03D0001DB0EB172F05D10221384601
:10215000FFF796F8012002906C48001FB0EB162F95
:1021600025D0B8EB162F22D0B9EB162F1FD0BAEB23
:10217000162F1CD065480C30B0EB162F17D0001D61
:10218000B0EB162F13D0001DB0EB162F0FD0001D93
:10219000B0EB162F0BD0001DB0EB162F07D0001D93
:1021A000B0EB162F03D0001DB0EB162F07D1022184
:1021B0003046FFF765F8029840F00200029053485D
:1021C000001FB0EB152F27D0B8EB152F24D0B9EB9B
:1021D000152F21D0BAEB152F1ED04C480C30B0EB88
:1021E000152F19D0001D00E065E0B0EB152F13D0BE
:1021F000001DB0EB152F0FD0001DB0EB152F0BD02D
:10220000001DB0EB152F07D0001DB0EB152F03D02C
:10221000001DB0EB152F07D102212846FFF730F83B
:10222000029840F0040002903848001FB0EB142FD1
:1022300025D0B8EB142F22D0B9EB142F1FD0BAEB56
:10224000142F1CD031480C30B0EB142F17D0001DC8
:10225000B0EB142F13D0001DB0EB142F0FD0001DC6
:10226000B0EB142F0BD0001DB0EB142F07D0001DC6
:10227000B0EB142F03D0001DB0EB142F07D10221B7
:102280002046FEF7FDFF029840F008000290002073
:1022900000900190DDE90D1302461D4801F036FB68
:1022A00070221B480F9B029901F0E4FC01211848A1
:1022B00001F012FBAFE115484FF0000B001FB0EB2F
:1022C000172F2CD0B8EB172F29D0B9EB172F26D00A
:1022D000BAEB172F23D00D480C30B0EB172F1ED0C0
:1022E000001DB0EB172F1AD0001DB0EB172F16D022
:1022F000001DB0EB172F12D0001DB0EB172F0ED022
:10230000001DB0EB172F05E0000001400402400063
:102310000004004003D0001DB0EB172F05D10121B0
:102320003846FEF7ADFF4FF0010BFC4FB7EB162F11
:1023300025D0B8EB162F22D0B9EB162F1FD0BAEB51
:10234000162F1CD0F5481030B0EB162F17D0001DFB
:10235000B0EB162F13D0001DB0EB162F0FD0001DC1
:10236000B0EB162F0BD0001DB0EB162F07D0001DC1
:10237000B0EB162F03D0001DB0EB162F05D10121B5
:102380003046FEF77DFF4BF0020BB7EB152F25D043
:10239000B8EB152F22D0B9EB152F1FD0BAEB152FA4
:1023A0001CD0DE481030B0EB152F17D0001DB0EB5D
:1023B000152F13D0001DB0EB152F0FD0001DB0EB63
:1023C000152F0BD0001DB0EB152F07D0001DB0EB63
:1023D000152F03D0001DB0EB152F05D10121284684
:1023E000FEF74EFF4BF0040BB7EB142F25D0B8EBE4
:1023F000142F22D0B9EB142F1FD0BAEB142F1CD0FE
:10240000C6481030B0EB142F17D0001DB0EB142FBE
:1024100013D0001DB0EB142F0FD0001DB0EB142F04
:102420000BD0001DB0EB142F07D0001DB0EB142F04
:1024300003D0001DB0EB142F05D101212046FEF77B
:102440001FFF4BF0080B0020009002464FF0804425
:102450000190FDE3B2498B457ED100200290AF4848
:10246000B0EB172F25D0B8EB172F22D0B9EB172FD1
:102470001FD0BAEB172F1CD0A8481030B0EB172F85
:1024800017D0001DB0EB172F13D0001DB0EB172F86
:102490000FD0001DB0EB172F0BD0001DB0EB172F86
:1024A00007D0001DB0EB172F03D0001DB0EB172F86
:1024B00005D102213846FEF7E3FE0120029097483D
:1024C000B0EB162F25D0B8EB162F22D0B9EB162F74
:1024D0001FD0BAEB162F1CD090481030B0EB162F3F
:1024E00017D0001DB0EB162F13D0001DB0EB162F28
:1024F0000FD0001DB0EB162F0BD0001DB0EB162F28
:1025000007D0001DB0EB162F03D0001DB0EB162F27
:1025100007D102213046FEF7B3FE029840F00200D8
:1025200002907E48B0EB152F27D0B8EB152F24D0A2
:10253000B9EB152F21D0BAEB152F1ED077481030EC
:10254000B0EB152F19D0001DB0EB152F15D0001DC5
:10255000B0EB152F11D000E05DE0001DB0EB152FA2
:102560000BD0001DB0EB152F07D0001DB0EB152FC1
:1025700003D0001DB0EB152F07D102212846FEF72E
:102580007FFE029840F0040002906448B0EB142FE4
:1025900025D0B8EB142F22D0B9EB142F1FD0BAEBF3
:1025A000142F1CD05D481030B0EB142F17D0001D35
:1025B000B0EB142F13D0001DB0EB142F0FD0001D63
:1025C000B0EB142F0BD0001DB0EB142F07D0001D63
:1025D000B0EB142F03D0001DB0EB142F07D1022154
:1025E0002046FEF74DFE029840F0080002900020C1
:1025F00000900190DDE90D130246494801F086F98B
:10260000702247480F9B029901F034FB0121444896
:1026100001F062F9E7E043498B457DD1002002904B
:102620003E48B0EB172F25D0B8EB172F22D0B9EBCF
:10263000172F1FD0BAEB172F1CD038481030B0EB33
:10264000172F17D0001DB0EB172F13D0001DB0EBC4
:10265000172F0FD0001DB0EB172F0BD0001DB0EBC4
:10266000172F07D0001DB0EB172F03D0001DB0EBC4
:10267000172F05D102213846FEF702FE01200290F5
:102680002648B0EB162F25D0B8EB162F22D0B9EB89
:10269000162F1FD0BAEB162F1CD020481030B0EBED
:1026A000162F17D0001DB0EB162F13D0001DB0EB66
:1026B000162F0FD0001DB0EB162F0BD0001DB0EB66
:1026C000162F07D0001DB0EB162F03D0001DB0EB66
:1026D000162F07D102213046FEF7D2FD029840F0B6
:1026E000020002900D48B0EB152F2ED0B8EB152F3D
:1026F0002BD0B9EB152F28D0BAEB152F25D00748D2
:102700001030B0EB152F20D0001DB0EB152F1CD0D2
:10271000001DB0EB152F07E065E00000000240004F
:1027200000080040000C00400FD0001DB0EB152F3A
:102730000BD0001DB0EB152F07D0001DB0EB152FEF
:1027400003D0001DB0EB152F07D102212846FEF75C
:1027500097FD029840F004000290FE48B0EB142F61
:1027600025D0B8EB142F22D0B9EB142F1FD0BAEB21
:10277000142F1CD0F7481030B0EB142F17D0001DC9
:10278000B0EB142F13D0001DB0EB142F0FD0001D91
:10279000B0EB142F0BD0001DB0EB142F07D0001D91
:1027A000B0EB142F03D0001DB0EB142F07D1022182
:1027B0002046FEF765FD029840F0080002900020D8
:1027C00000900190DDE90D130246E34801F09EF808
:1027D0007022E1480F9B029901F04CFA0121DE487A
:1027E00001F07AF8E0E0DD498B457DD100200290D0
:1027F000D848B0EB172F25D0B8EB172F22D0B9EB64
:10280000172F1FD0BAEB172F1CD0D2481030B0EBC7
:10281000172F17D0001DB0EB172F13D0001DB0EBF2
:10282000172F0FD0001DB0EB172F0BD0001DB0EBF2
:10283000172F07D0001DB0EB172F03D0001DB0EBF2
:10284000172F05D103213846FEF71AFD012002900B
:10285000C048B0EB162F25D0B8EB162F22D0B9EB1D
:10286000162F1FD0BAEB162F1CD0BA481030B0EB81
:10287000162F17D0001DB0EB162F13D0001DB0EB94
:10288000162F0FD0001DB0EB162F0BD0001DB0EB94
:10289000162F07D0001DB0EB162F03D0001DB0EB94
:1028A000162F07D103213046FEF7EAFC029840F0CC
:1028B00002000290A748B0EB152F27D0B8EB152FD8
:1028C00024D0B9EB152F21D0BAEB152F1ED0A1487B
:1028D0001030B0EB152F19D0001DB0EB152F15D00F
:1028E000001DB0EB152F00E05EE00FD0001DB0EB37
:1028F000152F0BD0001DB0EB152F07D0001DB0EB2E
:10290000152F03D0001DB0EB152F07D1032128464A
:10291000FEF7B6FC029840F0040002908D48B0EB40
:10292000142F25D0B8EB142F22D0B9EB142F1FD0C1
:10293000BAEB142F1CD087481030B0EB142F17D0EF
:10294000001DB0EB142F13D0001DB0EB142F0FD0CF
:10295000001DB0EB142F0BD0001DB0EB142F07D0CF
:10296000001DB0EB142F03D0001DB0EB142F07D1C6
:1029700003212046FEF784FC029840F008000290F4
:10298000002000900190DDE90D130246734800F02D
:10299000BDFF702271480F9B029901F06BF9012174
:1029A0006E4800F099FFEAE06D498B457ED100202A
:1029B00002906848B0EB172F25D0B8EB172F22D024
:1029C000B9EB172F1FD0BAEB172F1CD0614810306E
:1029D000B0EB172F17D0001DB0EB172F13D0001D31
:1029E000B0EB172F0FD0001DB0EB172F0BD0001D31
:1029F000B0EB172F07D0001DB0EB172F03D0001D31
:102A0000B0EB172F05D103213846FEF739FC012022
:102A100002905048B0EB162F25D0B8EB162F22D0DD
:102A2000B9EB162F1FD0BAEB162F1CD04948103027
:102A3000B0EB162F17D0001DB0EB162F13D0001DD2
:102A4000B0EB162F0FD0001DB0EB162F0BD0001DD2
:102A5000B0EB162F07D0001DB0EB162F03D0001DD2
:102A6000B0EB162F07D103213046FEF709FC029880
:102A700040F0020002903748B0EB152F27D0B8EB9A
:102A8000152F24D0B9EB152F21D0BAEB152F1ED05E
:102A900030481030B0EB152F19D0001DB0EB152FBA
:102AA00015D0001DB0EB152F11D000E067E0001D20
:102AB000B0EB152F0BD0001DB0EB152F07D0001D6C
:102AC000B0EB152F03D0001DB0EB152F07D103215C
:102AD0002846FEF7D5FB029840F0040002901D48FE
:102AE000B0EB142F25D0B8EB142F22D0B9EB142F54
:102AF0001FD0BAEB142F1CD016481030B0EB142F97
:102B000017D0001DB0EB142F13D0001DB0EB142F05
:102B10000FD0001DB0EB142F0BD0001DB0EB142F05
:102B200007D0001DB0EB142F03D0001DB0EB142F05
:102B300007D103212046FEF7A3FB029840F00800CE
:102B40000290002000900190DDE90D130246044838
:102B500008E0000000024000000C004000040140BA
:102B60000040014000F0D2FE7022FE480F9B029907
:102B700001F080F80121FB4800F0AEFEE1E0FA49E7
:102B80008B4566D100200290F848B0EB172F25D076
:102B9000B8EB172F22D0B9EB172F1FD0BAEB172F96
:102BA0001CD0F2481030B0EB172F17D0001DB0EB3F
:102BB000172F13D0001DB0EB172F0FD0001DB0EB57
:102BC000172F0BD0001DB0EB172F07D0001DB0EB57
:102BD000172F03D0001DB0EB172F05D10321384666
:102BE000FEF74EFB01200290E048B0EB162F25D0F7
:102BF000B8EB162F22D0B9EB162F1FD0BAEB162F39
:102C00001CD0DA481030B0EB162F17D0001DB0EBF7
:102C1000162F13D0001DB0EB162F0FD0001DB0EBF8
:102C2000162F0BD0001DB0EB162F07D0001DB0EBF8
:102C3000162F03D0001DB0EB162F07D1032130460D
:102C4000FEF71EFB029840F002000290C74801E028
:102C50000EE376E0B0EB152F25D0B8EB152F22D080
:102C6000B9EB152F1FD0BAEB152F1CD0BF48103071
:102C7000B0EB152F17D0001DB0EB152F13D0001D92
:102C8000B0EB152F0FD0001DB0EB152F0BD0001D92
:102C9000B0EB152F07D0001DB0EB152F03D0001D92
:102CA000B0EB152F07D103212846FEF7E9FA029869
:102CB00040F004000290AD48B0EB142F25D0B8EBE3
:102CC000142F22D0B9EB142F1FD0BAEB142F1CD025
:102CD000A6481030B0EB142F17D0001DB0EB142F06
:102CE00013D0001DB0EB142F0FD0001DB0EB142F2C
:102CF0000BD0001DB0EB142F07D0001DB0EB142F2C
:102D000003D0001DB0EB142F07D103212046FEF79E
:102D1000B7FA029840F0080002900020009001905D
:102D2000DDE90D130246904800F0F0FD70228E4858
:102D30000F9B029900F09EFF01218B4800F0CCFD13
:102D4000E0E08B498B457DD1002002908748B0EBB5
:102D5000172F25D0B8EB172F22D0B9EB172F1FD084
:102D6000BAEB172F1CD081481030B0EB172F17D0BB
:102D7000001DB0EB172F13D0001DB0EB172F0FD095
:102D8000001DB0EB172F0BD0001DB0EB172F07D095
:102D9000001DB0EB172F03D0001DB0EB172F05D18E
:102DA00003213846FEF76CFA012002906F48B0EB21
:102DB000162F25D0B8EB162F22D0B9EB162F1FD027
:102DC000BAEB162F1CD069481030B0EB162F17D075
:102DD000001DB0EB162F13D0001DB0EB162F0FD037
:102DE000001DB0EB162F0BD0001DB0EB162F07D037
:102DF000001DB0EB162F03D0001DB0EB162F07D12E
:102E000003213046FEF73CFA029840F0020002909F
:102E10005648B0EB152F27D0B8EB152F24D0B9EBBF
:102E2000152F21D0BAEB152F1ED050481030B0EB23
:102E3000152F19D0001DB0EB152F15D0001DB0EBCC
:102E4000152F00E05EE00FD0001DB0EB152F0BD06A
:102E5000001DB0EB152F07D0001DB0EB152F03D0D0
:102E6000001DB0EB152F07D103212846FEF708FA05
:102E7000029840F0040002903C48B0EB142F25D09B
:102E8000B8EB142F22D0B9EB142F1FD0BAEB142FAC
:102E90001CD036481030B0EB142F17D0001DB0EB0B
:102EA000142F13D0001DB0EB142F0FD0001DB0EB6A
:102EB000142F0BD0001DB0EB142F07D0001DB0EB6A
:102EC000142F03D0001DB0EB142F07D1032120468F
:102ED000FEF7D6F9029840F008000290002000901A
:102EE0000190DDE90D130246214800F00FFD70222C
:102EF0001F480F9B029900F0BDFE01211C4800F005
:102F0000EBFCEBE01B498B457ED10020029017487B
:102F1000B0EB172F25D0B8EB172F22D0B9EB172F16
:102F20001FD0BAEB172F1CD010481030B0EB172F62
:102F300017D0001DB0EB172F13D0001DB0EB172FCB
:102F40000FD0001DB0EB172F0BD0001DB0EB172FCB
:102F500007D0001DB0EB172F03D0001DB0EB172FCB
:102F600010D109E00040014000440140000240004F
:102F7000004801400018004009213846FEF780F95A
:102F800001200290FB48B0EB162F25D0B8EB162F8E
:102F900022D0B9EB162F1FD0BAEB162F1CD0F54854
:102FA0001030B0EB162F17D0001DB0EB162F13D03A
:102FB000001DB0EB162F0FD0001DB0EB162F0BD05D
:102FC000001DB0EB162F07D0001DB0EB162F03D05D
:102FD000001DB0EB162F07D109213046FEF750F93E
:102FE000029840F002000290E248B0EB152F27D083
:102FF000B8EB152F24D0B9EB152F21D0BAEB152F34
:103000001ED0DC48103000E068E0B0EB152F17D080
:10301000001DB0EB152F13D0001DB0EB152F0FD0F6
:10302000001DB0EB152F0BD0001DB0EB152F07D0F6
:10303000001DB0EB152F03D0001DB0EB152F07D1ED
:1030400009212846FEF71CF9029840F0040002907E
:10305000C848B0EB142F25D0B8EB142F22D0B9EB11
:10306000142F1FD0BAEB142F1CD0C2481030B0EB75
:10307000142F17D0001DB0EB142F13D0001DB0EB90
:10308000142F0FD0001DB0EB142F0BD0001DB0EB90
:10309000142F07D0001DB0EB142F03D0001DB0EB90
:1030A000142F07D109212046FEF7EAF8029840F0D4
:1030B00008000290002000900190DDE90D13024607
:1030C000AD4800F023FC7022AB480F9B029900F042
:1030D000D1FD0121A84800F0FFFBCAE0A7498B45BC
:1030E0007ED1A4484FF0000BB0EB172F25D0B8EBE2
:1030F000172F22D0B9EB172F1FD0BAEB172F1CD0E8
:103100009C481030B0EB172F17D0001DB0EB172FD5
:1031100013D0001DB0EB172F0FD0001DB0EB172FF1
:103120000BD0001DB0EB172F07D0001DB0EB172FF1
:1031300003D0001DB0EB172F05D109213846FEF74B
:103140009FF84FF0010B8B4FB7EB162F25D0B8EB44
:10315000162F22D0B9EB162F1FD0BAEB162F1CD08A
:1031600084481030B0EB162F17D0001DB0EB162F8F
:1031700013D0001DB0EB162F0FD0001DB0EB162F93
:103180000BD0001DB0EB162F07D0001DB0EB162F93
:1031900003D0001DB0EB162F05D109213046FEF7F4
:1031A0006FF84BF0020BB7EB152F27D0B8EB152FAC
:1031B00024D0B9EB152F21D0BAEB152F1ED06D48B6
:1031C0001030B0EB152F19D0001DB0EB152F15D016
:1031D000001DB0EB152F11D0001DB0EB152F00E036
:1031E00047E00BD0001DB0EB152F07D0001DB0EB52
:1031F000152F03D0001DB0EB152F05D1092128464E
:10320000FEF73EF84BF0040BB7EB142F25D0B8EBCC
:10321000142F22D0B9EB142F1FD0BAEB142F1CD0CF
:1032200054481030B0EB142F17D0001DB0EB142F02
:1032300013D0001DB0EB142F0FD0001DB0EB142FD6
:103240000BD0001DB0EB142F07D0001DB0EB142FD6
:1032500003D0001DB0EB142F05D109212046FEF745
:103260000FF84BF0080B002000900246434C0190F1
:10327000D0E043498B457CD13E484FF0000BB0EB8A
:10328000172F25D0B8EB172F22D0B9EB172F1FD04F
:10329000BAEB172F1CD037481030B0EB172F17D0D0
:1032A000001DB0EB172F13D0001DB0EB172F0FD060
:1032B000001DB0EB172F0BD0001DB0EB172F07D060
:1032C000001DB0EB172F03D0001DB0EB172F05D159
:1032D00009213846FDF7D4FF4FF0010B254FB7EB1E
:1032E000162F25D0B8EB162F22D0B9EB162F1FD0F2
:1032F000BAEB162F1CD01F481030B0EB162F17D08A
:10330000001DB0EB162F13D0001DB0EB162F0FD001
:10331000001DB0EB162F0BD0001DB0EB162F07D001
:10332000001DB0EB162F03D0001DB0EB162F05D1FA
:1033300009213046FDF7A4FF4BF0020BB7EB152F28
:103340002FD0B8EB152F2CD0B9EB152F29D0BAEB15
:10335000152F26D007481030B0EB152F21D0001DB7
:10336000B0EB152F1DD0001DB0EB152F19D0001D8F
:1033700008E061E00002400000180040001C00402E
:1033800000200040B0EB152F0BD0001DB0EB152F27
:1033900007D0001DB0EB152F03D0001DB0EB152F8B
:1033A00005D109212846FDF76BFF4BF0040BB7EB65
:1033B000142F24D0B8EB142F21D0B9EB142F1ED02A
:1033C000BAEB142F1BD01D48B0EB142F17D0001DE3
:1033D000B0EB142F13D0001DB0EB142F0FD0001D35
:1033E000B0EB142F0BD0001DB0EB142F07D0001D35
:1033F000B0EB142F03D0001DB0EB142F05D1092121
:103400002046FDF73DFF4BF0080B00200C4C0090D0
:1034100002460190DDE90D13204600F077FA702294
:10342000594620460F9B00F025FC03B02046BDE81E
:10343000F04F012100F050BABDE8FE8F10024000AD
:1034400000200040704700001FB54FF47A700F4C09
:1034500040F6C411532200940390CDE901210C4B96
:103460005A1E511E481EFEF74BFD0121204600F05A
:1034700043FA064940F2A46040310860091F086021
:10348000091F0860091F08601FBD000000080040F8
:103490000F0C0240044A0029116801D0014300E0EA
:1034A000814311607047000030380240044A00290F
:1034B000116801D0014300E08143116070470000B2
:1034C00040380240044A0029116801D0014300E05D
:1034D00081431160704700004438024070B5204AB3
:1034E0001168204C11F00C0104D01F4E042903D0A8
:1034F000082903D004601BE0066019E01849091F81
:103500000B68C3F380550B6803F03F0315B1B6FB9E
:10351000F3F301E0B4FBF3F30C680968C4F3881417
:103520006343C1F30141491C4900B3FBF1F1016060
:1035300011680F2303EA11110C4B5C5C0168E14038
:1035400041601468072505EA94241C5D21FA04F4FF
:103550008460126805EA52329A5CD140C16070BD45
:10356000083802400024F400001BB700FC000020D3
:103570000A88C2F30A0202804A788B78D20842EAAB
:103580004312C2F30A0242808A78CB78920942EA57
:1035900083020B7942EA8322C2F30A0282800A790B
:1035A0004B79520842EAC312C2F30A02C2804A7936
:1035B000920902724979C1F301114172704700000A
:1035C00000214FF4806200BF20F81120491CC9B2CD
:1035D0000429F9D3002103224318491CC9B21A72E5
:1035E0000229F9D37047000070B5084A0020131D66
:1035F000941C161F0146951E115443F820102154A7
:1036000031542954401C0228F6D370BDB400002068
:10361000FDF7C0BF00F04AB83EB54E224521082054
:103620008DE807001D4CB7EE000A1B4B2246002117
:103630001B4800F045FD01224021204601F008FD15
:1036400024210020CDE90001174D221D154B510604
:103650002846FDF751FC1349002224312846FDF786
:103660008BFC01212846FDF77DFC01212846FDF752
:1036700039FC002211462520FEF79DFA012240F276
:103680002441204601F012FD03B02046BDE8304041
:10369000012101F00BBC0000A086010000100140D8
:1036A00007040240B80900204064024010B50446F7
:1036B000002001F09BFD21460348FDF7FDFBBDE81E
:1036C00010400148FDF7F6BC4C040020D0E9002171
:1036D00091420CD2491C00EE101A4160F8EE400AEB
:1036E00000EE102AB8EE401A80EE810A7047B7EE5D
:1036F000000A7047016070470249B1F84410FFF7B3
:10370000F9BF0000000000200021416070477047B1
:103710001CB500202E49019000900A6842F48032C6
:103720000A604FF4A0430A6802F400320092019A42
:10373000521C0192009A12B9019A9A42F3D10A6876
:10374000920342D50120009021484030026842F0A7
:10375000805202601F48026842F4404202601C4AE4
:10376000083213681360136843F40043136013684E
:1037700043F4A0531360141F174B23600B6843F0EE
:1037800080730B600B689B01FCD5016841F48031AC
:1037900001604168C903FCD5016841F40031016052
:1037A00041688903FCD50D4940F205700860106836
:1037B00020F003001060106840F0020010601068F4
:1037C000C0F381000228FAD11CBD00901CBD00008E
:1037D00000380240007000400C544007003C02409A
:1037E00003480078800701D101F0DDBC704700007C
:1037F000F80000201CB500200090024601904FF414
:103800007A735321054800F081F802B000220121AB
:10381000BDE810403620FEF7CEB900000010004091
:10382000124810B5016841F4700101601048016848
:1038300041F0010101600E4A002108321160026866
:103840000C4B1A400260031D0B4A1A60026822F4F6
:103850008022026006480C300160FFF759FF0349DF
:103860004FF000608039086010BD000088ED00E076
:1038700000380240FFFFF6FE1030002410B5012191
:103880008C07204600F0E4F800280BD001212046E8
:1038900000F02FF80121204600F028F8BDE8104084
:1038A00000F068BA10BD000010B50A4C0121204696
:1038B00000F0CEF800280BD00121204600F019F8C6
:1038C0000121204600F012F8BDE81040FFF788BF44
:1038D00010BD0000001000400029018802D041F016
:1038E000800101E021F0800101807047C94301821D
:1038F0007047C943018270470029018802D041F016
:10390000010101E021F00101018070472DE9FF4F25
:10391000434904464348444D444EDFF81481DFF8E0
:103920001491DFF814A1DFF814B183B04FEAB14766
:103930008C4204D101210846FFF7C4FD0CE0B4F12C
:10394000804F06D0844207D101210220FFF7AEFD4F
:1039500009E00121084645E0AC4204D101210420E0
:10396000FFF7A4FD06E0B44204D101210820FFF7CF
:103970009DFD06E0BC4204D101211020FFF796FD19
:1039800006E0444504D101212020FFF78FFD06E029
:103990004C4504D101210220FFF794FD06E0544577
:1039A00004D101210804FFF78DFD06E05C4504D138
:1039B00001214804FFF786FD07E02148844204D135
:1039C00001218804FFF77EFD07E01E48844204D1F0
:1039D00001214020FFF76AFD07E01B48844204D123
:1039E00001218020FFF762FD05E01848844202D1E2
:1039F00001218015F6E70498ADF800000598ADF8B0
:103A00000200069801901098ADF8080011988DF802
:103A10000A006946204600F06FF907B0BDE8F08F54
:103A2000000001400004004000080040000C00407D
:103A300000140040000401400040014000440140E7
:103A40000048014000180040001C004000200040D9
:103A500002460020138A92890B4202EA010202D038
:103A6000002A00D001207047002A828901D00A4331
:103A700000E08A438281704730B5028C22F0010257
:103A80000284028C8388048B22F0020224F07305E6
:103A90000C882C438D8915434A882A430C4DA84233
:103AA00002D00C4DA8420DD122F00805CA8923F49A
:103AB00040732A4322F004058A882A430D8A1D4355
:103AC0004B8A2B438380048389684163028430BD21
:103AD0000000014000040140028B22F008020A436A
:103AE0000283704770B5028C22F010020284028CAF
:103AF0008488038B0D8823F4E6464FF6FF7303EAB0
:103B0000052535438E8922F0200203EA0616164366
:103B10004A8803EA02123243104EB04202D0104EDD
:103B2000B04215D122F08006CA8924F4406403EA29
:103B30000212324322F040068A8803EA021232431C
:103B40000E8A03EA860626434C8A03EA8404344339
:103B50008480058389688163028470BD0000014010
:103B600000040140028B4FF6FF7322F4006203EA67
:103B7000012111430183704770B5028C22F48072D9
:103B80000284028C8488838B0D8823F073031D4389
:103B900022F400738E894FF6FF7202EA06261E4356
:103BA0004B8802EA03233343104EB04202D0104E3A
:103BB000B04215D123F40066CB8924F4405402EAC4
:103BC0000323334323F480668B8802EA03233343C1
:103BD0000E8A02EA061626434C8A02EA041434438B
:103BE000848085838968C163038470BD00000140BF
:103BF00000040140828B22F008020A43828370474E
:103C000070B5028C22F480520284048C8288838BEB
:103C10000D8823F4E6464FF6FF7303EA0525354386
:103C200024F400568C8903EA043434434E8803EAB2
:103C300006362643084CA04202D0084CA04205D1CB
:103C400022F480440A8A03EA821222438280858316
:103C500089680164068470BD0000014000040140D1
:103C6000828B4FF6FF7322F4006203EA01211143B5
:103C70008183704730B585B00546ADF8002001203E
:103C80000C46ADF8020000210220ADF80C00ADF8A2
:103C90001010C001ADF81200ADF804100293ADF899
:103CA0000E10E00707D069462846FFF7E5FE082119
:103CB0002846FFF711FFA00707D569462846FFF7FA
:103CC00011FF08212846FFF74DFF600707D5694619
:103CD0002846FFF751FF08212846FFF78BFF2007F2
:103CE00007D569462846FFF78BFF08212846FFF7CE
:103CF000B7FF05B030BD000030B50288164B174C39
:103D000098420DD0A0420BD0B0F1804F08D0144D96
:103D1000A84205D0134DA84202D0134DA84203D1AA
:103D200022F070054A882A43104DA84206D0104D53
:103D3000A84203D022F440750A892A4302804A68C7
:103D4000C2620A880285984201D0A04201D1897AD4
:103D500001860121818230BD000001400004014044
:103D60000004004000080040000C0040001000402B
:103D70000014004070471CB500200090431E02460E
:103D80004FF08044019053212046FFF7BFFD0121F1
:103D90002046FFF7A1FD02B00022BDE81040114609
:103DA0001C20FDF708BF10B501218C072046FFF746
:103DB000A3FD012211462046FFF756FE2046BDE82E
:103DC00010400121FFF792BD10B5FFF7D4FFBDE809
:103DD0001040FFF70FBD00F039B800003EB54E208F
:103DE0000821CDE90010154C15490290B7EE000AE4
:103DF0004FF4E1332246481D00F062F9012240F2FF
:103E00002551204601F052F9022211464720FDF7C4
:103E1000D2FE0C49A5152A46A1F12800FDF79AF912
:103E200009492A46A1F58A70FDF794F903B02046A6
:103E3000BDE83040012101F039B800000014014014
:103E400009180240280A0020280B0020012001F058
:103E5000CDB9000008B500208DF800000648FDF738
:103E60007DF90028FAD1012269460348FDF784F95B
:103E70009DF8000008BD0000000A002070B51B4E30
:103E800040F224442146304601F0F1F800282BD0BE
:103E9000174D2146304601F003F8164C002120460C
:103EA000FDF720F82046FDF772F8C0F1240086B235
:103EB0002420211D08602046FDF76CF878B12068A9
:103EC000243520F40020206001212046FDF70AF867
:103ED000122E09D12846BDE87040FFF79BBB206831
:103EE00040F400202060EFE770BD000000100140AA
:103EF000B8090020406402407CB5234D40F227768B
:103F00003146284601F0B3F80024C0B11F48FDF740
:103F100025F938B102B031462846BDE8704000228C
:103F200001F0C4B88DF80040012269461748FDF73A
:103F300023F99DF80010284601F02AF97CBD40F2D3
:103F40002551284601F093F80028F7D0284601F0C3
:103F50001BF98DF800000D481438FDF705F938B14C
:103F60000A488DF80440012201A91438FDF704F92C
:103F70000648012269461438FDF718F99DF800003B
:103F8000FCF7EAF97CBD0000004400407C050020FD
:103F90007CB5234D40F227763146284601F067F87C
:103FA0000024C0B11F48FDF7D9F838B102B031463E
:103FB0002846BDE87040002201F078B88DF8004036
:103FC000012269461748FDF7D7F89DF800102846EA
:103FD00001F0DEF87CBD40F22551284601F047F89B
:103FE0000028F7D0284601F0CFF88DF800000D48E2
:103FF0001438FDF7B9F838B10A488DF804400122A9
:1040000001A91438FDF7B8F80648012269461438AA
:10401000FDF7CCF89DF80000FCF7EEFF7CBD00003A
:1040200000480040A40700207CB5234D40F22776CD
:104030003146284601F01BF80024C0B11F48FDF7A7
:104040008DF838B102B031462846BDE870400022F4
:1040500001F02CB88DF80040012269461748FDF7A1
:104060008BF89DF80010284601F092F87CBD40F2D4
:104070002551284600F0FBFF0028F7D0284601F024
:1040800083F88DF800000D481438FDF76DF838B14D
:104090000A488DF80440012201A91438FDF76CF894
:1040A0000648012269461438FDF780F89DF80000A3
:1040B000FFF791FE7CBD000000140140140A0020AF
:1040C0002DE9FF4F0C462DED020B05462DED028B21
:1040D00083B0B0EE408ADDE91576FE49DFF8F8934B
:1040E000099809F1040A0AF1040B88427ED1A9F16A
:1040F0000400B0EB152F25D0B9EB152F22D0BAEB69
:10410000152F1FD0BBEB152F1CD00BF10401B1EB09
:10411000152F17D0091DB1EB152F13D0091DB1EBC9
:10412000152F0FD0091DB1EB152F0BD0091DB1EBC9
:10413000152F07D0091DB1EB152F03D0091DB1EBC9
:10414000152F38D1B0EB142F25D0B9EB142F22D076
:10415000BAEB142F1FD0BBEB142F1CD0DE490C314F
:10416000B1EB142F17D0091DB1EB142F13D0091D7B
:10417000B1EB142F0FD0091DB1EB142F0BD0091D7B
:10418000B1EB142F07D0091DB1EB142F03D0091D7B
:10419000B1EB142F0FD107212846FDF771F8072145
:1041A0002046FDF76DF8CDE90076B0EE480A2021F3
:1041B000149B0A9A6DE0B0EB152F2DD0B9EB152F9B
:1041C0002AD0BAEB152F27D0BBEB152F24D0C24B2A
:1041D0000C33B3EB152F1FD003F1040EBEEB152FDC
:1041E0001AD00EF10403B3EB152F00E055E013D005
:1041F00003F1040CBCEB152F0ED00CF10408B8EB46
:10420000152F09D008F10408B8EB152F04D008F1D8
:104210000408B8EB152F0BD107212846FDF730F81D
:10422000CDE90076B0EE480A7221149B0A9A30E07C
:10423000B0EB142F22D0B9EB142F1FD0BAEB142FF0
:104240001CD0BBEB142F19D0A3480C30B0EB142FAB
:1042500014D0BEEB142F11D0B3EB142F0ED0BCEB47
:10426000142F0BD09C481C30B0EB142F06D0001D2F
:10427000B0EB142F02D0B8EB142F76D107212046D3
:10428000FCF7FEFFCDE90076149B0A9AB0EE480ACF
:104290007421904800F014FED8E001468F48814216
:1042A0007DD18D48001FB0EB152F25D0B9EB152F10
:1042B00022D0BAEB152F1FD0BBEB152F1CD086498F
:1042C0000C31B1EB152F17D0091DB1EB152F13D001
:1042D000091DB1EB152F0FD0091DB1EB152F0BD018
:1042E000091DB1EB152F07D0091DB1EB152F03D018
:1042F000091DB1EB152F39D1B0EB142F25D0B9EB37
:10430000142F22D0BAEB142F1FD0BBEB142F1CD0CC
:1043100071490C31B1EB142F17D0091DB1EB142FDB
:1043200013D0091DB1EB142F0FD0091DB1EB142FC1
:104330000BD0091DB1EB142F07D0091DB1EB142FC1
:1043400003D0091DB1EB142F10D107212846FCF72B
:1043500097FF07212046FCF793FFCDE90076B0EEEA
:10436000480A2021149B0A9A6CE0FDE3B0EB152F5C
:104370002DD0B9EB152F2AD0BAEB152F27D0BBEBD8
:10438000152F24D0544A0C32B2EB152F1FD002F156
:10439000040EBEEB152F1AD00EF1040300E055E019
:1043A000B3EB152F13D003F1040CBCEB152F0ED07B
:1043B0000CF10408B8EB152F09D008F10408B8EB8C
:1043C000152F04D008F10408B8EB152F0BD10721E5
:1043D0002846FCF755FFCDE90076B0EE480A722179
:1043E000149B0A9A2EE0B0EB142F20D0B9EB142FB7
:1043F0001DD0BAEB142F1AD0BBEB142F17D0B2EB91
:10440000142F14D0BEEB142F11D0B3EB142F0ED0F9
:10441000BCEB142F0BD030481C30B0EB142F06D05F
:10442000001DB0EB142F02D0B8EB142F0DD10721D3
:104430002046FCF725FFCDE90076149B0A9AB0EEE2
:10444000480A7421254800F03BFDE1E02449099821
:1044500088427DD12048001FB0EB152F25D0B9EB45
:10446000152F22D0BAEB152F1FD0BBEB152F1CD068
:1044700019490C31B1EB152F17D0091DB1EB152FD0
:1044800013D0091DB1EB152F0FD0091DB1EB152F5E
:104490000BD0091DB1EB152F07D0091DB1EB152F5E
:1044A00003D0091DB1EB152F41D1B0EB142F2ED045
:1044B000B9EB142F2BD0BAEB142F28D0BBEB142F51
:1044C00025D005490C31B1EB142F20D0091DB1EBDB
:1044D000142F07E000100140040240000044004097
:1044E0000048004013D0091DB1EB142F0FD0091D57
:1044F000B1EB142F0BD0091DB1EB142F07D0091D00
:10450000B1EB142F03D0091DB1EB142F0FD10721EC
:104510002846FCF7B5FE07212046FCF7B1FECDE9A1
:104520000076B0EE480A2021149B0A9A6CE0B0EBAA
:10453000152F2CD0B9EB152F29D0BAEB152F26D07B
:10454000BBEB152F23D0DFF878E4BEEB152F00E08E
:104550005EE01CD00EF10403B3EB152F17D01B1D2A
:10456000B3EB152F13D003F1040CBCEB152F0ED0B9
:104570000CF10408B8EB152F09D008F10408B8EBCA
:10458000152F04D008F10408B8EB152F0BD1072123
:104590002846FCF775FECDE90076B0EE480A722198
:1045A000149B0A9A30E0B0EB142F22D0B9EB142FF1
:1045B0001FD0BAEB142F1CD0BBEB142F19D0BEEBBD
:1045C000142F16D0FE48001DB0EB142F11D0B3EB02
:1045D000142F0ED0BCEB142F0BD0F9481030B0EBD9
:1045E000142F06D0001DB0EB142F02D0B8EB142FFF
:1045F0000DD107212046FCF743FECDE90076149B40
:104600000A9AB0EE480A7421EE4800F059FCD6E050
:10461000ED48099981427CD1E9481038B0EB152F5B
:1046200024D0B9EB152F21D0BAEB152F1ED0BBEB40
:10463000152F1BD0E249B1EB152F17D0091DB1EB97
:10464000152F13D0091DB1EB152F0FD0091DB1EB9C
:10465000152F0BD0091DB1EB152F07D0091DB1EB9C
:10466000152F03D0091DB1EB152F37D1B0EB142F47
:1046700024D0B9EB142F21D0BAEB142F1ED0BBEBF2
:10468000142F1BD0CE49B1EB142F17D0091DB1EB5D
:10469000142F13D0091DB1EB142F0FD0091DB1EB4E
:1046A000142F0BD0091DB1EB142F07D0091DB1EB4E
:1046B000142F03D0091DB1EB142F0FD10821284668
:1046C000FCF7DEFD08212046FCF7DAFDCDE9007697
:1046D000B0EE480A2021149B0A9A6CE0B0EB152F2B
:1046E0002CD0B9EB152F29D0BAEB152F26D0BBEB68
:1046F000152F23D0DFF8C8E2BEEB152F1ED00EF128
:104700000403B3EB152F19D01B1DB3EB152F15D0D8
:1047100000E054E003F1040CBCEB152F0ED00CF1BB
:104720000408B8EB152F09D008F10408B8EB152FD1
:1047300004D008F10408B8EB152F0BD10821284646
:10474000FCF79EFDCDE90076B0EE480A7221149B7D
:104750000A9A30E0B0EB142F22D0B9EB142F1FD0FF
:10476000BAEB142F1CD0BBEB142F19D0BEEB142FB7
:1047700016D09348001DB0EB142F11D0B3EB142FBB
:104780000ED0BCEB142F0BD08D481030B0EB142F93
:1047900006D0001DB0EB142F02D0B8EB142F0DD1B2
:1047A00008212046FCF76CFDCDE90076149B0A9A9F
:1047B000B0EE480A7421844800F082FBD6E08348BA
:1047C000099981427ED17E481038B0EB152F24D054
:1047D000B9EB152F21D0BAEB152F1ED0BBEB152F3F
:1047E0001BD07749B1EB152F17D0091DB1EB152F51
:1047F00013D0091DB1EB152F0FD0091DB1EB152FEB
:104800000BD0091DB1EB152F07D0091DB1EB152FEA
:1048100003D0091DB1EB152F37D1B0EB142F24D0E5
:10482000B9EB142F21D0BAEB142F1ED0BBEB142FF1
:104830001BD06349B1EB142F17D0091DB1EB142F16
:1048400013D0091DB1EB142F0FD0091DB1EB142F9C
:104850000BD0091DB1EB142F07D0091DB1EB142F9C
:1048600003D0091DB1EB142F0FD108212846FCF706
:1048700007FD08212046FCF703FDCDE90076B0EEE8
:10488000480A2021149B0A9A6CE0B0EB152F2CD01B
:10489000B9EB152F29D0BAEB152F26D0BBEB152F6E
:1048A00023D0DFF81CE1BEEB152F1ED00EF1040360
:1048B000B3EB152F19D01B1DB3EB152F15D003F13A
:1048C000040C00E052E0BCEB152F0ED00CF10408F4
:1048D000B8EB152F09D008F10408B8EB152F04D058
:1048E00008F10408B8EB152F0BD108212846FCF776
:1048F000C7FCCDE90076B0EE480A7221149B0A9AF3
:1049000030E0B0EB142F22D0B9EB142F1FD0BAEB4C
:10491000142F1CD0BBEB142F19D0BEEB142F16D0C4
:104920002748001DB0EB142F11D0B3EB142F0ED07D
:10493000BCEB142F0BD022481030B0EB142F06D054
:10494000001DB0EB142F02D0B8EB142F0DD10821AD
:104950002046FCF795FCCDE90076149B0A9AB0EE50
:10496000480A7421194800F0ABFAE1E018490998A7
:1049700088427DD112481038B0EB152F2FD0B9EBFB
:10498000152F2CD0BAEB152F29D0BBEB152F26D025
:104990000B49B1EB152F22D0091DB1EB152F1ED0FD
:1049A000091DB1EB152F1AD0091DB1EB152F16D02B
:1049B000091DB1EB152F12D0091DB1EB152F09E020
:1049C0001002400000480040004C004000500040F1
:1049D0000014014003D0091DB1EB152F37D1B0EB06
:1049E000142F24D0B9EB142F21D0BAEB142F1ED0E2
:1049F000BBEB142F1BD0FE49B1EB142F17D0091DB0
:104A0000B1EB142F13D0091DB1EB142F0FD0091DDA
:104A1000B1EB142F0BD0091DB1EB142F07D0091DDA
:104A2000B1EB142F03D0091DB1EB142F0FD10821C6
:104A30002846FCF725FC08212046FCF721FCCDE99F
:104A40000076B0EE480A2021149B0A9A6CE0B0EB85
:104A5000152F2CD0B9EB152F29D0BAEB152F26D056
:104A6000BBEB152F23D0DFF888E3BEEB152F00E05A
:104A70005EE01CD00EF10403B3EB152F17D01B1D05
:104A8000B3EB152F13D003F1040CBCEB152F0ED094
:104A90000CF10408B8EB152F09D008F10408B8EBA5
:104AA000152F04D008F10408B8EB152F0BD10821FD
:104AB0002846FCF7E5FBCDE90076B0EE480A722106
:104AC000149B0A9A30E0B0EB142F22D0B9EB142FCC
:104AD0001FD0BAEB142F1CD0BBEB142F19D0BEEB98
:104AE000142F16D0C248001DB0EB142F11D0B3EB19
:104AF000142F0ED0BCEB142F0BD0BD481030B0EBF0
:104B0000142F06D0001DB0EB142F02D0B8EB142FD9
:104B10000DD108212046FCF7B3FBCDE90076149BAC
:104B20000A9AB0EE480A7421B24800F0C9F9D3E0FD
:104B3000B148099981427DD1AD481038B0EB152FAD
:104B400026D0B9EB152F23D0BAEB152F20D0BBEB15
:104B5000152F1DD0A649B1EB152F19D0091DB1EBAA
:104B6000152F15D0091D00E01CE1B1EB152F0FD05A
:104B7000091DB1EB152F0BD0091DB1EB152F07D077
:104B8000091DB1EB152F03D0091DB1EB152F37D13E
:104B9000B0EB142F24D0B9EB142F21D0BAEB142F83
:104BA0001ED0BBEB142F1BD09149B1EB142F17D0A3
:104BB000091DB1EB142F13D0091DB1EB142F0FD029
:104BC000091DB1EB142F0BD0091DB1EB142F07D029
:104BD000091DB1EB142F03D0091DB1EB142F0FD118
:104BE00008212846FCF74CFB08212046FCF748FB2F
:104BF000CDE90076B0EE480A2021149B0A9A69E0BC
:104C00008646B0EB152F2BD0B9EB152F28D0BAEB79
:104C1000152F25D05846BBEB152F21D07449B1EB89
:104C2000152F1DD00A1DB2EB152F19D0131DB3EB94
:104C3000152F00E050E013D003F1040CBCEB152F4E
:104C40000ED00CF10408B8EB152F09D008F1040BB5
:104C5000BBEB152F04D00BF10408B8EB152F0BD1CB
:104C600008212846FCF70CFBCDE90076B0EE480A97
:104C70007221149B0A9A2DE0BEEB142F1FD0B9EBC2
:104C8000142F1CD0BAEB142F19D0B0EB142F16D060
:104C9000B1EB142F13D0B2EB142F10D0B3EB142FB1
:104CA0000DD0BCEB142F0AD051481030B0EB142FAC
:104CB00005D0BBEB142F02D0B8EB142F72D1082112
:104CC0002046FCF7DDFACDE90076149B0A9AB0EE97
:104CD000480A74214848A9E048480999814261D1AD
:104CE00043481038B0EB152F24D0B9EB152F21D045
:104CF000BAEB152F1ED0BBEB152F1BD03C49B1EBE7
:104D0000152F17D0091DB1EB152F13D0091DB1EBCD
:104D1000152F0FD0091DB1EB152F0BD0091DB1EBCD
:104D2000152F07D0091DB1EB152F03D0091DB1EBCD
:104D3000152F38D1B0EB142F24D0B9EB142F21D07C
:104D4000BAEB142F1ED0BBEB142F1BD02849B1EBAC
:104D5000142F17D0091DB1EB142F13D0091DB1EB7F
:104D6000142F0FD0091DB1EB142F0BD0091DB1EB7F
:104D7000142F07D0091DB1EB142F03D0091DB1EB7F
:104D8000142F10D108212846FCF77AFA0821204672
:104D9000FCF776FACDE90076B0EE480A2021149BA4
:104DA0000A9A42E044E08646B0EB152F32D0B9EBC8
:104DB000152F2FD0BAEB152F2CD05846BBEB152F43
:104DC00028D00B49B1EB152F24D00A1DB2EB152FBB
:104DD00020D0131DB3EB152F1CD003F1040CBCEB3A
:104DE000152F17D00CF1040BBBEB152F12D007E0D9
:104DF000100240000014014000780040007C004098
:104E00000BF10408B8EB152F04D008F10408B8EB37
:104E1000152F13D108212846FCF732FACDE9007688
:104E2000149B0A9AB0EE480A72211B4800F048F819
:104E300003B0BDEC028B06B0BDE8F08FBEEB142FC3
:104E40001ED0B9EB142F1BD0BAEB142F18D0B0EB37
:104E5000142F15D0B1EB142F12D0B2EB142F0FD0AA
:104E6000B3EB142F0CD0BCEB142F09D0BBEB142FD9
:104E700006D00A48B0EB142F02D0B8EB142FD7D1CC
:104E800008212046FCF7FCF9CDE90076B0EE480A8F
:104E90007421149B0A9AC8E7007C00402402400059
:104EA0000A0A01219140C943018070470029818984
:104EB00002D041F4005101E021F40051818170479A
:104EC0002DE9FF4F0E462DED020B0446584A594876
:104ED0005949DFF86881DFF86891DFF868A1DFF8E9
:104EE00068B194422DED028B85B0B0EE408ADDE9C9
:104EF000167504D101211020FEF7E4FA2EE0844259
:104F000004D101214804FEF7D1FA06E08C4204D115
:104F100001218804FEF7CAFA06E0444504D10121C4
:104F2000C804FEF7C3FA06E04C4504D10121080588
:104F3000FEF7BCFA06E0544504D101212020FEF71B
:104F4000C1FA04E05C4502D10121880704E03F4832
:104F5000844203D101214005FEF7A8FA722E3BD00E
:104F6000522E39D0742E39D0542E37D05FF00C0029
:104F7000ADF80A000B9800900C9A00204FF4805175
:104F8000092A2DD0ADF804006F2F2CD04F2F2AD036
:104F9000652F2BD0452F29D0ADF8080018EE102A28
:104FA000B2F17C5F2CD018EE101AB1F17F5F22D0E5
:104FB00018EE101AB1F1804F20D0ADF80600722D16
:104FC00021D0522D1FD0632D20D0432D1ED0612D16
:104FD0001FD0412D1DD01EE00420C9E70820C7E7DF
:104FE000ADF80410D0E74FF4C06201E04FF48062E6
:104FF000ADF80820D2E74FF4405101E04FF40051E2
:10500000ADF80610DBE74FF4807004E04FF4007059
:1050100001E04FF44070ADF80C006946204600F006
:105020005DF805B0BDEC028B06B0BDE8F08F000066
:10503000001001400044004000480040004C004087
:10504000005000400014014000780040007C004007
:10505000002A828A01D00A4300E08A438282704794
:105060000246002012880A4200D00120704730B565
:1050700001F01F0201240025C1F3421304FA02F2D9
:10508000012B0FD0022B0FD0838A4FEA1121008809
:10509000134204FA01F400EA040001D000B1012532
:1050A000284630BD8389F0E7038AEEE710B5C1F3E7
:1050B000421301F01F040121A140012B07D0022B54
:1050C00007D01430002A026805D00A4304E00C30EF
:1050D000F8E71030F6E78A43026010BD7FB504465A
:1050E000008A0D4620F44051E88808432082A089B8
:1050F00041F20C618843A9882A8911436A890243D5
:105100001143A181A08A20F44071A8890843A0829C
:105110006846FEF7E3F91A48844202D019488442EF
:1051200001D1039800E00298A189090400EBC001B5
:1051300001EB0010296801D5490000E08900B0FBAF
:10514000F1F26420B2FBF0F109010B096FF01805D0
:105150006B4302EB8302A3891D044FF0320306D593
:1051600003EBC202B2FBF0F000F0070005E003EB36
:105170000212B2FBF0F000F00F00084320817FBD67
:1051800000100140001401408088C0F308007047FF
:10519000C1F308018180704710B5FCF7B1FBBDE891
:1051A0001040FBF71BBE10B500F038F860B10128C5
:1051B00004D002280CD0032816D10FE000F028F804
:1051C000012801D0FFF7E8FFBDE81040FBF744B825
:1051D00000F01EF8032801D1FFF7DEFFFBF758FEB1
:1051E000BDE81040FBF74CB810BDFEE7024A0021B5
:1051F00042F8201070470000C400002003490968ED
:10520000884301D00020704701207047C000002073
:105210000148407870470000F40000200148007801
:1052200070470000F40000200A68C97812BA22F022
:10523000FF020A43017811B901218260017081687F
:10524000511A016141684260511AC1607047000003
:1052500014210148FAF7CDBF2C0100200FB4054BF3
:1052600010B503A9044A029800F018F810BC5DF8C4
:1052700014FB0000E55400080C01002002E008C8FF
:10528000121F08C1002AFAD170477047002001E0C0
:1052900001C1121F002AFBD1704700002DE9FF4F0A
:1052A00089B09B460446002506E025280BD05A46C7
:1052B0000B999047641C6D1C20780028F5D10DB027
:1052C0002846BDE8F08F0027B8460122474900E094
:1052D000074314F8013F203B02FA03F00842F7D1DC
:1052E00020782E2819D114F8010F47F004072A2836
:1052F0000ED06FF02F022078A0F1300109290CD8D0
:1053000008EB880102EB410100EB0108641CF2E7A5
:105310000A98641C50F8048B0A9020780028CED09C
:10532000642808D0692806D075281ED05A460B99E3
:1053300090476D1C58E00A994FF00A0901C90A917B
:10534000002802DA40422D2102E0390504D52B2144
:105350008DF82010012103E0F90704D02021F7E7A0
:105360008A4608AE0DE00021FAE70A994FF00A09D3
:1053700001C90A91F7E74946FAF746FF303106F8C6
:10538000011D0028F7D1ADEB060000F120097807D8
:1053900001D44FF00108C84502DDA8EB090000E088
:1053A00000208046002706E008A85A46C05D0B99F9
:1053B00090476D1C7F1C5745F6DB04E030205A46B1
:1053C0000B9990476D1CB8F10001A8F10108F5DCBC
:1053D00005E016F8010B5A460B9990476D1CB9F180
:1053E0000001A9F10109F4DC641C65E7092801004A
:1053F00030B5354C2DED048B81B020889FED338A7C
:1054000000EE100ADFED328A9FED329ADFED329A1C
:10541000B8EE400AB0EE482AF0EE681AB0EE491A2B
:10542000F0EE690A00F07EF82C4DB0EE482AF0EE5E
:10543000681A85ED000A6088B0EE491A00EE100A7D
:10544000F0EE690AB8EE400A00F06CF885ED010A4A
:10545000A088B0EE482A00EE100AF0EE681AB0EE0E
:10546000491AB8EE400AF0EE690A00F05BF885EDE3
:10547000020A05F10C012846FCF73AFA05F10C0086
:1054800090ED030ABDEEC00A10EE101A09B20091A9
:1054900090ED020ABDEEC00A10EE101A90ED010A5E
:1054A0000BB2BDEEC00A10EE101A90ED000A0AB25F
:1054B000BDEEC00A10EE100A01B20948FBF77EFAF1
:1054C00001B0BDEC048B30BD4C0400200000FA4359
:1054D0000000FAC30080D2440000B643100100204F
:1054E0000064004010B504460348416809B1E0B2C9
:1054F0008847204610BD0000A400002000F020F8DE
:10550000FBF7CCFDFBF7D0FBFBF7F6FAFAF702FF4F
:10551000FEF749FCFCF766F94FF08044FFF768FF9F
:10552000606AFBE730EE600A32EE612A31EE601A03
:1055300020EE020AC0EE010A30EEA10A7047000018
:105540009FED060ADFED031A9FED031AF0EE400A05
:10555000FCF7C8B9295C8F3DBC74133C0AD7233EC5
:105560008055000800000020100100007C52000857
:105570009056000810010020180F00008C520008FF
:10558000070107010000000000000000000000000B
:1055900000000000000000000000000000000040CB
:1055A0000AD7A33C00005C4300000000000000009C
:1055B000000000000020994500C05A450080BB440F
:1055C00000B09A45A00FA00FA00F701700000000B8
:1055D000A000A00009004600FF1F0000000000001E
:1055E00000000000A406E80314050000000000000D
:1055F00000000000000000000000000000000000AB
:10560000000000000000000000000000000000009A
:10561000000000000000000000000000000000008A
:10562000000000000000000000000000000000007A
:10563000000000000000000000000000000000006A
:10564000FFFFFFFF64000000640000006400000032
:1056500064000000640000006400000064000000BA
:1056600064000000640000006400000064000000AA
:1056700064000000000000000000000000000000C6
:1056800001020304010203040607080900000000E8
:04000005080001AD41
:00000001FF
