:020000040800F2
:10000000081900204D020008550200085702000898
:10001000590200085B0200085D02000800000000B1
:100020000000000000000000000000005F02000867
:100030006102000800000000630200086502000879
:1000400067020008670200086702000867020008EC
:1000500067020008670200086702000867020008DC
:1000600067020008670200086702000867020008CC
:1000700067020008670200086702000867020008BC
:1000800067020008670200086702000839050008D7
:10009000F50400086702000867020008670200080C
:1000A000670200086702000867020008670200088C
:1000B000810F000867020008670200086702000855
:1000C000670200086702000867020008670200086C
:1000D000670200085D120008D912000867020008D4
:1000E000DD070008670200086702000867020008D1
:1000F000670200086702000867020008670200083C
:10010000670200086702000867020008670200082B
:100110006702000867020008AD0F000867020008C8
:10012000670200086702000867020008670200080B
:10013000670200086702000867020008A1050008BE
:100140005D050008670200086702000867020008F2
:1001500067020008670200086702000871130008C0
:1001600067020008670200086702000867020008CB
:10017000670200086702000867020008000000002C
:1001800067020008670200086702000867020008AB
:10019000670200086702000867020008670200089B
:1001A00000000000000000006702000800F002F8F4
:1001B00000F03CF80AA090E8000C82448344AAF1C5
:1001C0000107DA4501D100F031F8AFF2090EBAE8C3
:1001D0000F0013F0010F18BFFB1A43F0010318477B
:1001E0003823000058230000103A24BF78C878C193
:1001F000FAD8520724BF30C830C144BF04680C602D
:10020000704700000023002400250026103A28BF74
:1002100078C1FBD8520728BF30C148BF0B60704778
:100220001FB502F073F91FBD10B510BD00F09FF8A7
:100230001146FFF7F5FF02F045F900F0BDF803B4F1
:10024000FFF7F2FF03BC00F0C1F800000948804747
:1002500009480047FEE7FEE7FEE7FEE7FEE7FEE7A8
:10026000FEE7FEE7FEE7FEE704480549054A064BC0
:1002700070470000250F0008AD01000808050020A8
:1002800008190020081500200815002010B5431C8F
:1002900002E010F8011B71B18107FAD14FF0013271
:1002A00002C88C1A8C4314EAC211F9D0C01A0A068B
:1002B00003D0C01E10BDC01A10BD0A0401D0801E9C
:1002C00010BD0902FCD0401E10BD4FF000020429F1
:1002D000C0F0128010F0030C00F01B80CCF1040C75
:1002E000BCF1020F18BF00F8012BA8BF20F8022BA9
:1002F000A1EB0C0100F00DB85FEAC17C24BF00F84F
:10030000012B00F8012B48BF00F8012B70474FF07C
:10031000000200B5134694469646203922BFA0E855
:100320000C50A0E80C50B1F12001BFF4F7AF090761
:1003300028BFA0E80C5048BF0CC05DF804EB890052
:1003400028BF40F8042B08BF704748BF20F8022B95
:1003500011F0804F18BF00F8012B704770477047AD
:100360007047000000487047A80400207047754699
:10037000FFF7F8FFAE4605006946534620F0070038
:10038000854618B020B5FFF76FFFBDE820404FF05D
:1003900000064FF000074FF000084FF0000B21F06F
:1003A0000701AC46ACE8C009ACE8C009ACE8C0093C
:1003B000ACE8C0098D46704710B50446AFF3008025
:1003C0002046BDE81040FFF73ABF00000149182061
:1003D000ABBEFEE72600020010B54FF4A06000F0AF
:1003E0008FFC00F011F800F077F800F031FC00F01D
:1003F0002DFFBDE810404FF48041014800F020BCC3
:1004000000140240704700003EB54E200821CDE99F
:100410000010154C15490290B7EE000A4FF4165320
:100420002246481C00F0F0FF012240F225512046F0
:1004300001F0D1FF02221146262000F021FC0C49D8
:10044000A5152A46A1F1280000F0A1FA09492A467B
:10045000A1F58A7000F09BFA03B02046BDE8304059
:10046000012101F0C7BE000000440040050C02401D
:10047000380000203801002010B50446FFF706FFC1
:1004800001462046BDE81040AFF3008070B50D4630
:100490000646002404E0305D00F006F8641CE4B277
:1004A000AC42F8D370BD000001B5084800F079FAFD
:1004B0000028FAD101226946044800F094FA01228A
:1004C00040F22771024801F086FF08BD2400002099
:1004D000004400407047000010B50C21044800F0B3
:1004E0008DF90222BDE810401146282000F0C8BB5B
:1004F0000A0C024010B50E4C86B00221204600F0D6
:10050000B5F8002811D00421204600F073F80949FD
:10051000204600F057F86A460021204600F0FAF81D
:100520000DF10B01009800F03DF906B010BD000080
:10053000006400400800003210B5074C012120463D
:1005400000F094F8002805D02046BDE810400121B5
:1005500000F050B810BD00000064004010B50E4C13
:1005600086B00221204600F081F8002811D0022137
:10057000204600F03FF80949204600F023F86A467B
:100580000021204600F0C6F80DF10B01009800F0A4
:100590000AF906B010BD00000068004008000032F3
:1005A00010B5074C0121204600F060F8002805D066
:1005B0002046BDE81040012100F01CB810BD00002D
:1005C000006800400A4A914202D1002181617047CF
:1005D000C1F313028B0101D5C26070474B0101D5F5
:1005E00002617047090101D582607047426070471F
:1005F0007000F03030B5082310240422B1F5007FDC
:100600001DD010DC202929D007DC012921D00429A4
:1006100022D0082900D1C46030BD402920D0B1F5D6
:10062000807FF9D10BE00025B1F5004F06D008DC42
:10063000B1F5806F03D0B1F5006FEDD185614260F7
:1006400030BDB1F5803F0DD0B1F5003FF8D1446029
:1006500030BD0549816030BDC36030BD036130BD30
:10066000046130BD436030BD01010100024600203D
:1006700053690B424AD0B1F5807F3BD013DC082987
:100680002ED007DC012926D0022927D004293DD10C
:10069000D0682BE0102925D0202926D0402935D13B
:1006A0001069102130E0B1F5004F2BD00BDCB1F513
:1006B000007F22D0B1F5806F22D0B1F5006F25D137
:1006C0009069702120E0B1F5803F11D0B1F5003F75
:1006D0001CD15068E5E790680D4915E0D06802E04C
:1006E000D068DEE7106903210EE0106908210BE0F5
:1006F0005068FBE79069012106E09069022103E060
:10070000906900E05068042100F04EB87047000086
:100710000101010010B500EB0113D3F8B04114F052
:1007200004041472D3F8B04134D0E408C2F8044091
:10073000D3F8B04104F002045472D3F8B44104F089
:100740000F049472D3F8B441240AD474D3F8B84196
:10075000D472D3F8B841240A1473D3F8B841240CE6
:100760005473D3F8B841240E9473D3F8BC41D473B6
:10077000D3F8BC41240A1474D3F8BC41240C54743B
:10078000D3F8BC311B0E937439B1016941F02001DB
:10079000016110BD640D1460CAE7C16841F0200119
:1007A000C16010BD70477047024600200A4200D069
:1007B000012070470029016802D041F0010101E0E9
:1007C00021F0010101607047406880B27047014626
:1007D00000200968090300D50120704710B54FF4C7
:1007E0008064204600F086F8002806D0204600F0FD
:1007F00067F8BDE81040FFF76DBE10BD2DE9F04170
:1008000004462E488846B0EB142F01D100263FE065
:100810002A48001DB0EB142F01D1012638E02748EB
:100820000830B0EB142F01D1022631E023480C3000
:10083000B0EB142F01D103262AE020481030B0EB92
:10084000142F01D1042623E01C481430B0EB142FE0
:1008500001D105261CE019481830B0EB142F01D146
:10086000062615E015481C30B0EB142F01D10726E1
:100870000EE012482030B0EB142F01D1082607E01B
:100880000E482430B0EB142F01D1092600E00A26CF
:1008900004F00F050127AF400121880300F052FA50
:1008A000204600F05BF92946304600F0A3FA4246A4
:1008B0003846BDE8F041002100F008B800024000D1
:1008C0000149086070470000143C01407CB50D46AA
:1008D000064601211446880300F034FA8DF80450CE
:1008E0008DF8054001208DF806000096684600F05E
:1008F0000BF87CBD034A0146002012680A4200D072
:1009000001207047143C014030B51A4983790268D0
:1009100053B30B6893430B600A1D13680468A34329
:10092000136002790A441368046823431360114A70
:10093000083213680468A3431360131D1C6805681C
:10094000AC431C604479102C05D021440A6800682F
:1009500002430A6030BD11680468214311601968C0
:1009600000680143196030BD007908440168914373
:10097000016030BD003C014010B50446D4E90001DF
:10098000FFF7A3FC0020A060E060206110BDC0E97B
:100990000012FFF7F1BF006908B100207047012085
:1009A000704701694068814201D1012070470020F1
:1009B0007047F0B500231D460EE084680768661C8A
:1009C00086603C5DCC54D0E90146A64200D18560EA
:1009D0000469641E5B1C0461934202D20469002C0A
:1009E000EBD11846F0BDF0B500231D4610E0C468F9
:1009F0000768CE5C04F1010CC0F80CC03E55466897
:100A0000C468B44200D1C5600469641C5B1C046105
:100A1000934203D246680469B442E8D11846F0BD57
:100A200038B50A46044600F00F0120F0FF0000F040
:100A3000F7F800200346022200901146204600F0FD
:100A400001F838BD2DE9FF4F054620F0FF04384A74
:100A500038483949394E3A4FDFF8E880DFF8E890F6
:100A6000DFF8E8A0DFF8E8B083B0944202D10121BA
:100A700008463CE0844204D10121022000F04AF9FA
:100A800006E08C4204D10121042000F043F906E085
:100A9000B44204D10121082000F03CF906E0BC4238
:100AA00004D10121102000F035F906E0444504D1BD
:100AB0000121202000F02EF906E04C4504D101214F
:100AC000402000F027F906E0544504D101218020A0
:100AD00000F020F906E05C4504D10121080200F095
:100AE00019F907E01B48844204D10121401500F0A8
:100AF00011F905E01848844202D101210015F6E7FA
:100B000005F00F0101208840009004988DF8040042
:100B100005988DF8050006988DF8060010988DF858
:100B200007006946204600F021F807B0BDE8F08FC5
:100B3000000002400004024000080240000C024095
:100B4000001002400014024000180240001C024045
:100B500000200240002402400028024008B5002185
:100B6000012302220091FFF76DFF08BDF0B50023BD
:100B7000012403270D6804FA03F21540954242D17F
:100B8000D0F800C05E0007FA06F52CEA050CC0F8A4
:100B900000C091F804C0D0F800E00CFA06FC4CEA62
:100BA0000E0CC0F800C091F804C0BCF1010F02D0D7
:100BB000BCF1020F1FD1D0F808C02CEA050CC0F818
:100BC00008C091F805C0D0F808E00CFA06FC4CEA21
:100BD0000E0CC0F808C0D0F804C02CEA020CC0F813
:100BE00004C0426891F806C00CFA03FC1FFA8CFCA2
:100BF00042EA0C024260C268AA43C260CA79C56870
:100C0000B2402A43C2605B1C102BB3D3F0BD08B5C1
:100C100000210B46009102220121FFF713FF08BDBE
:100C20004B07DB0E9A40C90810B500EB8100016A42
:100C30000F249C40A1430162016A1143016210BD6F
:100C4000418370470183704742694A40426170475F
:100C500010B50948FFF7DBFF0848FFF7D8FF064843
:100C60004FF480410E38FFF7EDFF04488021BDE8C6
:100C70001040C01FFFF7E6BF0E14024007100240ED
:100C800008B58DF800008DF801108DF802200120C4
:100C90008DF80300684600F001F808BD30B50F225A
:100CA000C47801780123FCB1144C246801F1E021DF
:100CB00004F4E064C4F5E064C4F30724C4F104055B
:100CC000E2404478AC408578154025432A0181F8FC
:100CD0000024007800F01F018B404009800000F1E3
:100CE000E020C0F8003130BD01F01F00834048090A
:100CF000800000F1E020C0F8803130BD0CED00E054
:100D00000249084302490860704700000000FA05E4
:100D10000CED00E0044A0029116801D0014300E015
:100D2000814311607047000030380240044A0029B6
:100D3000116801D0014300E0814311607047000059
:100D400040380240044A0029116801D0014300E004
:100D500081431160704700004438024070B5204A5A
:100D60001168204C11F00C0104D01F4E042903D04F
:100D7000082903D004601BE0066019E01849091F28
:100D80000B68C3F380550B6803F03F0315B1B6FB46
:100D9000F3F301E0B4FBF3F30C680968C4F38814BF
:100DA0006343C1F30141491C4900B3FBF1F1016008
:100DB00011680F2303EA11110C4B5C5C0168E140E0
:100DC00041601468072505EA94241C5D21FA04F4A7
:100DD0008460126805EA52329A5CD140C16070BDED
:100DE000083802400024F400001BB7000000002077
:100DF0007047000010B58A0721F003040849130F5B
:100E000021440F22D1F808489A409443C1F8084879
:100E1000D1F8082898400243C1F8082810BD000006
:100E2000003001401CB500202E49019000900A6856
:100E300042F480320A604FF4A0430A6802F40032A0
:100E40000092019A521C0192009A12B9019A9A4298
:100E5000F3D10A68920342D5012000902148403026
:100E6000026842F0805202601F48026842F4404229
:100E700002601C4A083213681360136843F400438D
:100E80001360136843F4A0531360141F174B2360BF
:100E90000B6843F080730B600B689B01FCD5016805
:100EA00041F4803101604168C903FCD5016841F417
:100EB0000031016041688903FCD50D4940F205709D
:100EC0000860106820F003001060106840F0020015
:100ED00010601068C0F381000228FAD11CBD009098
:100EE0001CBD000000380240007000400C54400758
:100EF000003C0240704700001CB5002000900246F4
:100F000001904FF47A735321054800F081F802B044
:100F10000122BDE8104011463620FFF7B1BE0000A7
:100F200000100040124810B5016841F470010160E2
:100F30001048016841F0010101600E4A00210832A9
:100F4000116002680C4B1A400260031D0B4A1A60C4
:100F5000026822F48022026006480C300160FFF72C
:100F600061FF03494FF000608039086010BD000048
:100F700088ED00E000380240FFFFF6FE103000244C
:100F800010B501218C07204600F0E4F800280BD0B2
:100F90000121204600F02FF80121204600F028F81A
:100FA000BDE8104000F028B910BD000010B50A4C93
:100FB0000121204600F0CEF800280BD00121204668
:100FC00000F019F80121204600F012F8BDE81040A9
:100FD000FFF790BF10BD00000010004000290188FD
:100FE00002D041F0800101E021F0800101807047D2
:100FF000C94301827047C9430182704700290188B3
:1010000002D041F0010101E021F0010101807047AF
:101010002DE9FF4F434904464348444D444EDFF811
:101020001481DFF81491DFF814A1DFF814B183B054
:101030004FEAB1478C4204D101210846FFF782FEF6
:101040000CE0B4F1804F06D0844207D10121022088
:10105000FFF76CFE09E00121084645E0AC4204D1EF
:1010600001210420FFF762FE06E0B44204D1012111
:101070000820FFF75BFE06E0BC4204D101211020EE
:10108000FFF754FE06E0444504D101212020FFF77C
:101090004DFE06E04C4504D101210220FFF752FE2F
:1010A00006E0544504D101210804FFF74BFE06E099
:1010B0005C4504D101214804FFF744FE07E02148C4
:1010C000844204D101218804FFF73CFE07E01E485A
:1010D000844204D101214020FFF728FE07E01B488D
:1010E000844204D101218020FFF720FE05E018484A
:1010F000844202D101218015F6E70498ADF8000082
:101100000598ADF80200069801901098ADF8080017
:1011100011988DF80A006946204600F02FF807B0B4
:10112000BDE8F08F000001400004004000080040CE
:10113000000C004000140040000401400040014049
:10114000004401400048014000180040001C0040DD
:101150000020004002460020138A92890B4202EAD6
:10116000010202D0002A00D001207047002A8289A3
:1011700001D00A4300E08A438281704730B502887B
:10118000164B174C98420DD0A0420BD0B0F1804FB7
:1011900008D0144DA84205D0134DA84202D0134DDB
:1011A000A84203D122F070054A882A43104DA84274
:1011B00006D0104DA84203D022F440750A892A4374
:1011C00002804A68C2620A880285984201D0A04221
:1011D00001D1897A01860121818230BD0000014060
:1011E000000401400004004000080040000C0040E2
:1011F000001000400014004070471CB50020009013
:10120000431E02464FF08044019053212046FFF7D1
:10121000FFFE01212046FFF7E1FE02B00022BDE8FB
:10122000104011461C20FFF72BBD10B501218C0783
:101230002046FFF7E3FE012211462046FFF796FF06
:101240002046BDE810400121FFF7D2BE10B5FFF7E0
:10125000D4FFBDE81040FFF74FBE704770B51B4E7E
:1012600040F224442146304601F096F800282BD065
:10127000174D2146304600F0B7FF164C002120469E
:10128000FFF798FA2046FFF79FFAC0F1240086B2D4
:101290002420211D08602046FFF799FA78B12068C4
:1012A000243520F40020206001212046FFF782FA37
:1012B000122E09D12846BDE87040FFF799BD20687D
:1012C00040F400202060EFE770BD000000100140F6
:1012D00038020020406402407CB5234D40F227765E
:1012E0003146284601F058F80024C0B11F48FFF7E6
:1012F00052FB38B102B031462846BDE870400022AA
:1013000001F069B88DF80040012269461748FFF7DF
:1013100050FB9DF80010284601F0D0F87CBD40F24B
:101320002551284601F038F80028F7D0284601F06A
:10133000C1F88DF800000D481438FFF732FB38B1C2
:101340000A488DF80440012201A91438FFF731FB47
:101350000648012269461438FFF745FB9DF8000056
:10136000FFF750F87CBD000000440040240000203E
:101370007CB5234D40F227763146284601F00CF823
:101380000024C0B11F48FFF706FB38B102B0314658
:101390002846BDE87040002201F01DB88DF80040DD
:1013A000012269461748FFF704FB9DF80010284604
:1013B00001F084F87CBD40F22551284600F0ECFF96
:1013C0000028F7D0284601F075F88DF800000D4888
:1013D0001438FFF7E6FA38B10A488DF804400122C4
:1013E00001A91438FFF7E5FA0648012269461438C6
:1013F000FFF7F9FA9DF80000FFF72FFF7CBD000012
:1014000000140140940200202DE9FF4F0C462DED01
:10141000020B05462DED028B83B0B0EE408ADDE96C
:101420001576FE49DFF8F893099809F1040A0AF1E4
:10143000040B88427ED1A9F10400B0EB152F25D012
:10144000B9EB152F22D0BAEB152F1FD0BBEB152F00
:101450001CD00BF10401B1EB152F17D0091DB1EB16
:10146000152F13D0091DB1EB152F0FD0091DB1EBAE
:10147000152F0BD0091DB1EB152F07D0091DB1EBAE
:10148000152F03D0091DB1EB152F38D1B0EB142F58
:1014900025D0B9EB142F22D0BAEB142F1FD0BBEB01
:1014A000142F1CD0DE490C31B1EB142F17D0091DBD
:1014B000B1EB142F13D0091DB1EB142F0FD0091D60
:1014C000B1EB142F0BD0091DB1EB142F07D0091D60
:1014D000B1EB142F03D0091DB1EB142F0FD107214D
:1014E0002846FFF79DFA07212046FFF799FACDE934
:1014F0000076B0EE480A2021149B0A9A6DE0B0EB0A
:10150000152F2DD0B9EB152F2AD0BAEB152F27D0D8
:10151000BBEB152F24D0C24B0C33B3EB152F1FD0D0
:1015200003F1040EBEEB152F1AD00EF10403B3EB3A
:10153000152F00E055E013D003F1040CBCEB152F80
:101540000ED00CF10408B8EB152F09D008F10408EF
:10155000B8EB152F04D008F10408B8EB152F0BD108
:1015600007212846FFF75CFACDE90076B0EE480A7D
:101570007221149B0A9A30E0B0EB142F22D0B9EB01
:10158000142F1FD0BAEB142F1CD0BBEB142F19D083
:10159000A3480C30B0EB142F14D0BEEB142F11D095
:1015A000B3EB142F0ED0BCEB142F0BD09C481C3087
:1015B000B0EB142F06D0001DB0EB142F02D0B8EB07
:1015C000142F76D107212046FFF72AFACDE90076BD
:1015D000149B0A9AB0EE480A7421904800F014FE59
:1015E000D8E001468F4881427DD18D48001FB0EB85
:1015F000152F25D0B9EB152F22D0BAEB152F1FD000
:10160000BBEB152F1CD086490C31B1EB152F17D031
:10161000091DB1EB152F13D0091DB1EB152F0FD0FC
:10162000091DB1EB152F0BD0091DB1EB152F07D0FC
:10163000091DB1EB152F03D0091DB1EB152F39D1C1
:10164000B0EB142F25D0B9EB142F22D0BAEB142F06
:101650001FD0BBEB142F1CD071490C31B1EB142FF0
:1016600017D0091DB1EB142F13D0091DB1EB142FA6
:101670000FD0091DB1EB142F0BD0091DB1EB142FA6
:1016800007D0091DB1EB142F03D0091DB1EB142FA6
:1016900010D107212846FFF7C3F907212046FFF79D
:1016A000BFF9CDE90076B0EE480A2021149B0A9AD2
:1016B0006CE0FDE3B0EB152F2DD0B9EB152F2AD040
:1016C000BAEB152F27D0BBEB152F24D0544A0C3280
:1016D000B2EB152F1FD002F1040EBEEB152F1AD05E
:1016E0000EF1040300E055E0B3EB152F13D003F126
:1016F000040CBCEB152F0ED00CF10408B8EB152F21
:1017000009D008F10408B8EB152F04D008F104083B
:10171000B8EB152F0BD107212846FFF781F9CDE94A
:101720000076B0EE480A7221149B0A9A2EE0B0EBC4
:10173000142F20D0B9EB142F1DD0BAEB142F1AD0D0
:10174000BBEB142F17D0B2EB142F14D0BEEB142F19
:1017500011D0B3EB142F0ED0BCEB142F0BD03048AC
:101760001C30B0EB142F06D0001DB0EB142F02D0AC
:10177000B8EB142F0DD107212046FFF751F9CDE921
:101780000076149B0A9AB0EE480A7421254800F0AE
:101790003BFDE1E02449099888427DD12048001FA3
:1017A000B0EB152F25D0B9EB152F22D0BAEB152FA2
:1017B0001FD0BBEB152F1CD019490C31B1EB152FE5
:1017C00017D0091DB1EB152F13D0091DB1EB152F43
:1017D0000FD0091DB1EB152F0BD0091DB1EB152F43
:1017E00007D0091DB1EB152F03D0091DB1EB152F43
:1017F00041D1B0EB142F2ED0B9EB142F2BD0BAEB74
:10180000142F28D0BBEB142F25D005490C31B1EB98
:10181000142F20D0091DB1EB142F07E00010014058
:1018200004024000004400400048004013D0091D5D
:10183000B1EB142F0FD0091DB1EB142F0BD0091DE4
:10184000B1EB142F07D0091DB1EB142F03D0091DE4
:10185000B1EB142F0FD107212846FFF7E1F807213C
:101860002046FFF7DDF8CDE90076B0EE480A2021EA
:10187000149B0A9A6CE0B0EB152F2CD0B9EB152F06
:1018800029D0BAEB152F26D0BBEB152F23D0DFF8CC
:1018900078E4BEEB152F00E05EE01CD00EF10403EF
:1018A000B3EB152F17D01B1DB3EB152F13D003F17E
:1018B000040CBCEB152F0ED00CF10408B8EB152F5F
:1018C00009D008F10408B8EB152F04D008F104087A
:1018D000B8EB152F0BD107212846FFF7A1F8CDE96A
:1018E0000076B0EE480A7221149B0A9A30E0B0EB01
:1018F000142F22D0B9EB142F1FD0BAEB142F1CD009
:10190000BBEB142F19D0BEEB142F16D0FE48001DD0
:10191000B0EB142F11D0B3EB142F0ED0BCEB142F5F
:101920000BD0F9481030B0EB142F06D0001DB0EBEF
:10193000142F02D0B8EB142F0DD107212046FFF74A
:101940006FF8CDE90076149B0A9AB0EE480A74212C
:10195000EE4800F059FCD6E0ED48099981427CD16F
:10196000E9481038B0EB152F24D0B9EB152F21D052
:10197000BAEB152F1ED0BBEB152F1BD0E249B1EBF4
:10198000152F17D0091DB1EB152F13D0091DB1EB81
:10199000152F0FD0091DB1EB152F0BD0091DB1EB81
:1019A000152F07D0091DB1EB152F03D0091DB1EB81
:1019B000152F37D1B0EB142F24D0B9EB142F21D031
:1019C000BAEB142F1ED0BBEB142F1BD0CE49B1EBBA
:1019D000142F17D0091DB1EB142F13D0091DB1EB33
:1019E000142F0FD0091DB1EB142F0BD0091DB1EB33
:1019F000142F07D0091DB1EB142F03D0091DB1EB33
:101A0000142F0FD108212846FFF70AF80821204695
:101A1000FFF706F8CDE90076B0EE480A2021149BC6
:101A20000A9A6CE0B0EB152F2CD0B9EB152F29D00A
:101A3000BAEB152F26D0BBEB152F23D0DFF8C8E269
:101A4000BEEB152F1ED00EF10403B3EB152F19D0EA
:101A50001B1DB3EB152F15D000E054E003F1040C6F
:101A6000BCEB152F0ED00CF10408B8EB152F09D0E4
:101A700008F10408B8EB152F04D008F10408B8EBFE
:101A8000152F0BD108212846FEF7CAFFCDE90076B5
:101A9000B0EE480A7221149B0A9A30E0B0EB142F82
:101AA00022D0B9EB142F1FD0BAEB142F1CD0BBEBF4
:101AB000142F19D0BEEB142F16D09348001DB0EB95
:101AC000142F11D0B3EB142F0ED0BCEB142F0BD06E
:101AD0008D481030B0EB142F06D0001DB0EB142F42
:101AE00002D0B8EB142F0DD108212046FEF798FF45
:101AF000CDE90076149B0A9AB0EE480A7421844816
:101B000000F082FBD6E08348099981427ED17E486D
:101B10001038B0EB152F24D0B9EB152F21D0BAEB2C
:101B2000152F1ED0BBEB152F1BD07749B1EB152F0E
:101B300017D0091DB1EB152F13D0091DB1EB152FCF
:101B40000FD0091DB1EB152F0BD0091DB1EB152FCF
:101B500007D0091DB1EB152F03D0091DB1EB152FCF
:101B600037D1B0EB142F24D0B9EB142F21D0BAEB1E
:101B7000142F1ED0BBEB142F1BD06349B1EB142FD5
:101B800017D0091DB1EB142F13D0091DB1EB142F81
:101B90000FD0091DB1EB142F0BD0091DB1EB142F81
:101BA00007D0091DB1EB142F03D0091DB1EB142F81
:101BB0000FD108212846FEF733FF08212046FEF703
:101BC0002FFFCDE90076B0EE480A2021149B0A9A37
:101BD0006CE0B0EB152F2CD0B9EB152F29D0BAEB58
:101BE000152F26D0BBEB152F23D0DFF81CE1BEEB61
:101BF000152F1ED00EF10403B3EB152F19D01B1DAA
:101C0000B3EB152F15D003F1040C00E052E0BCEB50
:101C1000152F0ED00CF10408B8EB152F09D008F1E0
:101C20000408B8EB152F04D008F10408B8EB152F01
:101C30000BD108212846FEF7F3FECDE90076B0EE81
:101C4000480A7221149B0A9A30E0B0EB142F22D07C
:101C5000B9EB142F1FD0BAEB142F1CD0BBEB142FF1
:101C600019D0BEEB142F16D02748001DB0EB142F4F
:101C700011D0B3EB142F0ED0BCEB142F0BD0224895
:101C80001030B0EB142F06D0001DB0EB142F02D093
:101C9000B8EB142F0DD108212046FEF7C1FECDE987
:101CA0000076149B0A9AB0EE480A7421194800F095
:101CB000ABFAE1E01849099888427DD11248103802
:101CC000B0EB152F2FD0B9EB152F2CD0BAEB152F69
:101CD00029D0BBEB152F26D00B49B1EB152F22D005
:101CE000091DB1EB152F1ED0091DB1EB152F1AD010
:101CF000091DB1EB152F16D0091DB1EB152F12D010
:101D0000091DB1EB152F09E010024000004800400A
:101D1000004C0040005000400014014003D0091D59
:101D2000B1EB152F37D1B0EB142F24D0B9EB142F12
:101D300021D0BAEB142F1ED0BBEB142F1BD0FE49C1
:101D4000B1EB142F17D0091DB1EB142F13D0091DBF
:101D5000B1EB142F0FD0091DB1EB142F0BD0091DBF
:101D6000B1EB142F07D0091DB1EB142F03D0091DBF
:101D7000B1EB142F0FD108212846FEF751FE0821A0
:101D80002046FEF74DFECDE90076B0EE480A202150
:101D9000149B0A9A6CE0B0EB152F2CD0B9EB152FE1
:101DA00029D0BAEB152F26D0BBEB152F23D0DFF8A7
:101DB00088E3BEEB152F00E05EE01CD00EF10403BB
:101DC000B3EB152F17D01B1DB3EB152F13D003F159
:101DD000040CBCEB152F0ED00CF10408B8EB152F3A
:101DE00009D008F10408B8EB152F04D008F1040855
:101DF000B8EB152F0BD108212846FEF711FECDE9CF
:101E00000076B0EE480A7221149B0A9A30E0B0EBDB
:101E1000142F22D0B9EB142F1FD0BAEB142F1CD0E3
:101E2000BBEB142F19D0BEEB142F16D0C248001DE7
:101E3000B0EB142F11D0B3EB142F0ED0BCEB142F3A
:101E40000BD0BD481030B0EB142F06D0001DB0EB06
:101E5000142F02D0B8EB142F0DD108212046FEF725
:101E6000DFFDCDE90076149B0A9AB0EE480A742192
:101E7000B24800F0C9F9D3E0B148099981427DD157
:101E8000AD481038B0EB152F26D0B9EB152F23D065
:101E9000BAEB152F20D0BBEB152F1DD0A649B1EB07
:101EA000152F19D0091DB1EB152F15D0091D00E014
:101EB0001CE1B1EB152F0FD0091DB1EB152F0BD085
:101EC000091DB1EB152F07D0091DB1EB152F03D05C
:101ED000091DB1EB152F37D1B0EB142F24D0B9EB7E
:101EE000142F21D0BAEB142F1ED0BBEB142F1BD014
:101EF0009149B1EB142F17D0091DB1EB142F13D05A
:101F0000091DB1EB142F0FD0091DB1EB142F0BD00D
:101F1000091DB1EB142F07D0091DB1EB142F03D00D
:101F2000091DB1EB142F0FD108212846FEF778FDCB
:101F300008212046FEF774FDCDE90076B0EE480A90
:101F40002021149B0A9A69E08646B0EB152F2BD00E
:101F5000B9EB152F28D0BAEB152F25D05846BBEB7F
:101F6000152F21D07449B1EB152F1DD00A1DB2EBEE
:101F7000152F19D0131DB3EB152F00E050E013D02F
:101F800003F1040CBCEB152F0ED00CF10408B8EBD8
:101F9000152F09D008F1040BBBEB152F04D00BF162
:101FA0000408B8EB152F0BD108212846FEF738FDA1
:101FB000CDE90076B0EE480A7221149B0A9A2DE012
:101FC000BEEB142F1FD0B9EB142F1CD0BAEB142F7B
:101FD00019D0B0EB142F16D0B1EB142F13D0B2EBF5
:101FE000142F10D0B3EB142F0DD0BCEB142F0AD04C
:101FF00051481030B0EB142F05D0BBEB142F02D09A
:10200000B8EB142F72D108212046FEF709FDCDE967
:102010000076149B0A9AB0EE480A74214848A9E059
:1020200048480999814261D143481038B0EB152FD7
:1020300024D0B9EB152F21D0BAEB152F1ED0BBEB56
:10204000152F1BD03C49B1EB152F17D0091DB1EB53
:10205000152F13D0091DB1EB152F0FD0091DB1EBB2
:10206000152F0BD0091DB1EB152F07D0091DB1EBB2
:10207000152F03D0091DB1EB152F38D1B0EB142F5C
:1020800024D0B9EB142F21D0BAEB142F1ED0BBEB08
:10209000142F1BD02849B1EB142F17D0091DB1EB19
:1020A000142F13D0091DB1EB142F0FD0091DB1EB64
:1020B000142F0BD0091DB1EB142F07D0091DB1EB64
:1020C000142F03D0091DB1EB142F10D1082128467D
:1020D000FEF7A6FC08212046FEF7A2FCCDE900761B
:1020E000B0EE480A2021149B0A9A42E044E086465A
:1020F000B0EB152F32D0B9EB152F2FD0BAEB152F2F
:102100002CD05846BBEB152F28D00B49B1EB152F1F
:1021100024D00A1DB2EB152F20D0131DB3EB152FC1
:102120001CD003F1040CBCEB152F17D00CF1040BE1
:10213000BBEB152F12D007E0100240000014014045
:1021400000780040007C00400BF10408B8EB152F2C
:1021500004D008F10408B8EB152F13D10821284644
:10216000FEF75EFCCDE90076149B0A9AB0EE480AB1
:1021700072211B4800F048F803B0BDEC028B06B09A
:10218000BDE8F08FBEEB142F1ED0B9EB142F1BD07F
:10219000BAEB142F18D0B0EB142F15D0B1EB142FCD
:1021A00012D0B2EB142F0FD0B3EB142F0CD0BCEB2A
:1021B000142F09D0BBEB142F06D00A48B0EB142F14
:1021C00002D0B8EB142FD7D108212046FEF728FC07
:1021D000CDE90076B0EE480A7421149B0A9AC8E74C
:1021E000007C0040240240000A0A01219140C943BA
:1021F000018070470029818902D041F4005101E03B
:1022000021F40051818170472DE9FF4F0E462DEDDD
:10221000020B0446584A59485949DFF86881DFF8EB
:102220006891DFF868A1DFF868B194422DED028B68
:1022300085B0B0EE408ADDE9167504D10121102089
:10224000FEF780FD2EE0844204D101214804FEF710
:102250006DFD06E08C4204D101218804FEF766FD85
:1022600006E0444504D10121C804FEF75FFD06E005
:102270004C4504D101210805FEF758FD06E0544500
:1022800004D101212020FEF75DFD04E05C4502D170
:102290000121880704E03F48844203D10121400521
:1022A000FEF744FD722E3BD0522E39D0742E39D019
:1022B000542E37D05FF00C00ADF80A000B98009058
:1022C0000C9A00204FF48051092A2DD0ADF804005B
:1022D0006F2F2CD04F2F2AD0652F2BD0452F29D0F0
:1022E000ADF8080018EE102AB2F17C5F2CD018EE81
:1022F000101AB1F17F5F22D018EE101AB1F1804FA1
:1023000020D0ADF80600722D21D0522D1FD0632DA4
:1023100020D0432D1ED0612D1FD0412D1DD01EE099
:102320000420C9E70820C7E7ADF80410D0E74FF450
:10233000C06201E04FF48062ADF80820D2E74FF4AC
:10234000405101E04FF40051ADF80610DBE74FF4C7
:10235000807004E04FF4007001E04FF44070ADF87D
:102360000C006946204600F04FF805B0BDEC028B2A
:1023700006B0BDE8F08F00000010014000440040AE
:1023800000480040004C0040005000400014014054
:1023900000780040007C004030B501F01F020124AD
:1023A0000025C1F3421304FA02F2012B0FD0022BD5
:1023B0000FD0838A4FEA11210088134204FA01F4F6
:1023C00000EA040001D000B10125284630BD838910
:1023D000F0E7038AEEE710B5C1F3421301F01F04E2
:1023E0000121A140012B07D0022B07D01430002A75
:1023F000026805D00A4304E00C30F8E71030F6E735
:102400008A43026010BD00007FB50446008A0D4675
:1024100020F44051E88808432082A08941F20C61F1
:102420008843A9882A8911436A8902431143A181FB
:10243000A08A20F44071A8890843A0826846FEF76C
:102440008DFC1A48844202D01948844201D1039875
:1024500000E00298A189090400EBC00101EB001023
:10246000296801D5490000E08900B0FBF1F2642041
:10247000B2FBF0F109010B096FF018056B4302EB99
:102480008302A3891D044FF0320306D503EBC20279
:10249000B2FBF0F000F0070005E003EB0212B2FB24
:1024A000F0F000F00F00084320817FBD00100140D4
:1024B000001401408088C0F308007047C1F3080190
:1024C00081807047FDF788FFFEF7AFFE4FF0804434
:1024D000084D094F2614606AB0FBF5F105FB1100A9
:1024E0000028F8D105A0FDF7C7FF31463846FEF7B2
:1024F000ABFBF0E720A107000014024048656C6CBC
:102500006F2C204A61636B2E0A0000004FF0407070
:10251000E1EE100A70470000382500080000002096
:1025200010000000E8010008482500081000002005
:10253000F818000004020008000000000102030473
:0825400001020304060708096B
:04000005080001AD41
:00000001FF
