:020000040800F2
:10000000700F0020C1010008BD17000893130008FD
:100010000D1600083D030008F14A0008000000002A
:100020000000000000000000000000002130000877
:10003000ED0D000800000000992D0008D90100080E
:10004000DB010008DB010008DB010008DB01000820
:10005000DB010008DB010008DB010008DB01000810
:10006000DB010008DB010008DB010008DB01000800
:10007000DB010008DB010008DB010008DB010008F0
:10008000DB010008DB010008DB0100088503000834
:1000900041030008DB010008DB010008DB01000868
:1000A000DB010008DB010008DB010008DB010008C0
:1000B000B5310008DB010008DB010008DB010008A6
:1000C000DB010008DB010008DB010008DB010008A0
:1000D000DB010008C537000849380008E13800088E
:1000E000DB010008DB010008DB010008DB01000880
:1000F000DB010008DB010008DB010008DB01000870
:10010000DB010008DB010008DB010008DB0100085F
:10011000DB010008DB010008E1310008DB01000819
:10012000DB010008DB010008DB010008DB0100083F
:10013000DB010008DB010008DB010008ED0300081B
:10014000A9030008DB010008DB010008DB0100084F
:10015000DB010008DB010008DB0100087939000839
:10016000DB010008DB010008DB010008DB010008FF
:10017000DB010008DB010008DB01000800000000D3
:10018000DB010008DB010008DB010008DB010008DF
:10019000DB010008DB010008DB010008DB010008CF
:1001A0000000000000000000DB010008DFF80CD0B8
:1001B00000F02AF800480047DD4C0008700F0020CE
:1001C0000648804706480047FEE7FEE7FEE7FEE7F1
:1001D000FEE7FEE7FEE7FEE7FEE7FEE7593100082F
:1001E000AD010008D2B201E000F8012B491EFBD29C
:1001F00070470022F6E710B513460A460446194632
:10020000FFF7F0FF204610BD064C074D06E0E06802
:1002100040F0010394E8070098471034AC42F6D34D
:10022000FFF7C8FF3C4D00085C4D000810B54FF4C7
:10023000A06001F005FB00F01DF800F079F800F077
:100240004FFD01F025F902F0A9FD02F08FFE03F049
:1002500052FA03F059FA00F07DFB00F0B5FBBDE85F
:1002600010404FF48041014800F068BF0014024084
:1002700000F038B83EB54E200821CDE90010154CED
:1002800015490290B7EE000A4FF416532246481C57
:1002900003F0BEFB012240F22551204604F0B2FBE0
:1002A00002221146262001F08AFA0C49A5152A4699
:1002B000A1F1280000F0E0FD09492A46A1F58A7065
:1002C00000F0DAFD03B02046BDE83040012104F023
:1002D00098BA000000440040050C0240D8040020F9
:1002E000D8050020022004F005BC000038B500202D
:1002F0008DF800000C4800F0C3FD0028FAD10B4D2A
:1003000040F2255400222146284604F07BFB0122BE
:100310006946054800F0C2FD01222146284604F046
:1003200071FB9DF8000038BDB0040020004400407F
:10033000014800F091BE00000A0C0240FEE70000F8
:1003400010B50E4C86B00221204600F06DF9002851
:1003500011D00421204600F073F80949204600F02E
:1003600057F86A460021204600F02EFA0DF10B01E5
:10037000009800F0EDFA06B010BD000000640040E7
:100380000800003210B5074C0121204600F04CF95E
:10039000002805D02046BDE81040012100F050B8EB
:1003A00010BD00000064004010B50E4C86B0022164
:1003B000204600F039F9002811D00221204600F033
:1003C0003FF80949204600F023F86A4600212046FC
:1003D00000F0FAF90DF10B01009800F0F3FA06B005
:1003E00010BD0000006800400800003210B5074C46
:1003F0000121204600F018F9002805D02046BDE86C
:100400001040012100F01CB810BD00000068004041
:100410000A4A914202D1002181617047C1F313025F
:100420008B0101D5C26070474B0101D50261704755
:10043000090101D582607047426070477000F0305A
:1004400030B5082310240422B1F5007F1DD010DC44
:10045000202929D007DC012921D0042922D008290C
:1004600000D1C46030BD402920D0B1F5807FF9D1E2
:100470000BE00025B1F5004F06D008DCB1F5806F28
:1004800003D0B1F5006FEDD18561426030BDB1F5AB
:10049000803F0DD0B1F5003FF8D1446030BD054933
:1004A000816030BDC36030BD036130BD046130BDCB
:1004B000436030BD010101002DE9FE430F460446B3
:1004C000DDE90A89154916481D4616468C4202D1B7
:1004D0000121480603E0844203D10121880602F08D
:1004E0008FFC00218DF804808DF808108DF80590A0
:1004F0008DF80A10ADF800708DF8061001208DF807
:1005000002608DF807108DF80B008DF803506946D6
:10051000204600F0E5F8BDE8FE83000000640040DE
:1005200000680040F0B5827A012191402E4A13689C
:1005300043F0010313602C4B1C331C688C431C607C
:10054000294D067B294C0C35A6B92E688E432E60AA
:100550004688C78846EA0746877A04EBC707C7F884
:1005600040660688878846EA0746877A04EBC7070D
:10057000C7F84466067B012E12D12E680E432E600A
:10058000867A056804EBC6064FEA3545C6F840563C
:10059000867A456804EBC6044FEA3545C4F84456EC
:1005A000114CC57A241D002D256806D00D43256009
:1005B0000D4C0589143415B104E08D43F7E7256827
:1005C0008D4325600589012D02D125680D432560E5
:1005D000407B012802D1186808431860106820F099
:1005E00001001060F0BD00000066004000600040A7
:1005F0007FB5DDE90845ADF80000ADF808408DF89D
:100600000A5000208DF80B0001208DF80C00ADF889
:1006100004208DF80D00ADF80210ADF806306846E4
:10062000FFF780FF7FBD00000246002053690B42A8
:100630004AD0B1F5807F3BD013DC08292ED007DCEF
:10064000012926D0022927D004293DD1D0682BE0EA
:10065000102925D0202926D0402935D11069102114
:1006600030E0B1F5004F2BD00BDCB1F5007F22D08C
:10067000B1F5806F22D0B1F5006F25D1906970215E
:1006800020E0B1F5803F11D0B1F5003F1CD150689A
:10069000E5E790680D4915E0D06802E0D068DEE734
:1006A000106903210EE0106908210BE05068FBE798
:1006B0009069012106E09069022103E0906900E061
:1006C0005068042100F022BA7047000001010100C7
:1006D000002A426901D00A4300E08A434261704720
:1006E00010B50368002223F002030360036843F09F
:1006F000010303604FF6FF7300E0521C4468E407F7
:1007000001D19A42F9D14268D2073ED08A79012AB2
:1007100002683CD022F080020260CA79012A026895
:1007200038D022F0400202600A7A012A026834D0EE
:1007300022F0200202604A7A012A026830D022F0B8
:10074000100202608A7A012A02682CD022F0080284
:100750000260CA7A012A026828D022F004020260EC
:100760008A78CC78920742EA04620C7942EA044221
:100770004C79098842EA0452491E0A43C261016861
:1007800021F001010160002114E0002010BD42F0C1
:100790008002C1E742F04002C5E742F02002C9E70B
:1007A00042F01002CDE742F00802D1E742F0040225
:1007B000D5E7491C4268D20701D09942F9D1406877
:1007C000C007E2D1012010BD10B500EB0113D3F832
:1007D000B04114F004041472D3F8B04134D0E408EA
:1007E000C2F80440D3F8B04104F002045472D3F8C4
:1007F000B44104F00F049472D3F8B441240AD474C1
:10080000D3F8B841D472D3F8B841240A1473D3F89A
:10081000B841240C5473D3F8B841240E9473D3F820
:10082000BC41D473D3F8BC41240A1474D3F8BC413E
:10083000240C5474D3F8BC311B0E937439B1016984
:1008400041F02001016110BD640D1460CAE7C16868
:1008500041F02001C16010BD30B502460020936810
:100860005B0108D49068000101D5012003E0906885
:10087000C00037D5022002EB0012D2F8803103F01D
:100880000103C2F880310B7A73B3D2F880414D680E
:100890001C434B7A43EAC5031C43C2F880418B7A60
:1008A00003F00F038B72D2F8843123F00F03C2F8E8
:1008B0008431D2F884318C7A2343C2F88431CB7AE4
:1008C000CC6843EA0423C2F88831CB7B096943EA48
:1008D0000121C2F88C11D2F8801141F00101C2F857
:1008E000801130BD042030BDD2F880314C7A2343D2
:1008F0000C8843EA4453C2F88031D0E730B585B064
:100900004FF40075009500258DF808508DF80950BA
:1009100008258DF80A50089C0D0A8DF80C10110A54
:100920008DF80D108DF80E20190A8DF80F108DF826
:100930001030210A8DF811108DF80B508DF81240EF
:100940006946FFF789FF05B030BD80EC030A7047A8
:1009500000F08AB81CB50921184800F0DCFA1748E5
:100960000921401C00F0D7FA01221146142000F0A2
:1009700026FF01220021132000F021FF032108207F
:100980000F4C0023CDE900011A462046FFF794FDE5
:10099000002100910B460A4608460191FFF728FE08
:1009A000012202212046FFF793FE02B020460122D9
:1009B000BDE810401146FFF78BBE0000000C02405E
:1009C0000064004000F050B81CB50921184800F040
:1009D000A2FA17480921401C00F09DFA01220221C9
:1009E000402000F0ECFE012211463F2000F0E7FE1F
:1009F000032108200F4C0023CDE900011A462046B0
:100A0000FFF75AFD00200E21CDE900010346024602
:100A10000146FFF7EDFD012202212046FFF758FEB7
:100A200002B020460122BDE810401146FFF750BE3B
:100A30000C0402400068004070B50A4D002400BF5D
:100A400004EB840000EBC40005EBC00000F08EFE58
:100A5000641CE4B2062CF3D3BDE87040014828388A
:100A600004F09EB85001002010B50C46B0F5017F8F
:100A70002FD00DDCA0F5007001381CD0012821D04A
:100A800002283DD1082004F035F821461D4833E006
:100A9000A0F50070053823D0012828D0B0F5FE7FDE
:100AA0002ED1052004F026F821461648BDE8104056
:100AB000F83804F031B8062004F01CF8114821463B
:100AC000D03819E0072004F015F80E4821466838A0
:100AD00012E0092004F00EF80A48214668300BE0C5
:100AE0000A2004F007F807482146D03004E00B2024
:100AF00004F000F804482146BDE8104000F088BD2D
:100B000010BD0000200200205803002002460020F3
:100B10000A4200D00120704703484FF47A71006800
:100B2000B0FBF1F070470000980000200148006819
:100B3000704700009800002002480168491C0160CD
:100B4000704700009800002010B52DED028B00F0DA
:100B500025F903210E4800F0D8F99FED0E8A0E48C2
:100B6000B0EE481AF0EE480AB0EE480AFFF7EDFE84
:100B7000F0EE481AB0EE481AF0EE480AB0EE480A15
:100B8000BDEC028B0448BDE810400C3000F098BC6E
:100B90009C00002000000000C003002070B50D463E
:100BA000044602F08FF9A91D04F10A00BDE8704067
:100BB00000F0D2BB10B5044602F0ACF904F10A0013
:100BC000BDE8104000F0D7BB0029016802D041F019
:100BD000010101E021F00101016070472DE9F043BE
:100BE0008FB00446DDE9168915481D4616460F46A6
:100BF000A04303D10121480502F0F6F81148A043B3
:100C000003D10121880502F0EFF800214FF4806044
:100C1000CDE905108010CDE9081000020791CDE95B
:100C20000A010C910D910E9102AA694682E82003F7
:100C3000CDE90076204600F027F80FB0BDE8F0833C
:100C400000600240006402400029016802D041F4C3
:100C5000802101E021F4802101607047002A0268B0
:100C600002D042F4002201E022F40022026001617D
:100C70007047406880B27047014600200968090348
:100C800000D501207047000030B50368124ACC68D7
:100C900013400A682243D1E905452C432243CC691D
:100CA00022430C6A22434C6A22438C6A22434C6BD7
:100CB00022438C6B22431A430260426922F00703ED
:100CC000D1E90B2422431A4342610A6942604A680F
:100CD00082608968C16030BD3F801CF000F038B888
:100CE0003EB54E200821CDE90010154C1549029063
:100CF000B7EE000A4FF4E1332246481C02F088FEAA
:100D0000012240F22551204603F07CFE02221146CA
:100D1000272000F054FD0C49A5152A46A1F1280012
:100D200000F0AAF809492A46A1F58A7000F0A4F853
:100D300003B02046BDE83040012103F062BD000051
:100D400000480040080C0240000700200008002076
:100D5000032003F0CFBE000038B500208DF800005E
:100D60000C4800F08DF80028FAD10B4D40F22554C4
:100D700000222146284603F045FE01226946054827
:100D800000F08CF801222146284603F03BFE9DF836
:100D9000000038BDD80600200048004010B502F021
:100DA000CDF800F0F7FABDE810400148FFF702BFA8
:100DB000DC03002010B5044600F0AEFA204600F037
:100DC00099FA09484078012807D003280AD104F18C
:100DD0000A00BDE8104000F009BB2046BDE8104005
:100DE00002F0C0B810BD0000B8000020704780ECD1
:100DF000020A00F025B8D0ED020A90ED031AD0EDFA
:100E0000001A30EE811AD0ED050A70EEA10AD0ED7D
:100E1000011A30EE410A30EEA12AC0EE821AC0ED6E
:100E2000041A20EE210A80ED030A31EE000A20EEBA
:100E3000A01A80ED020A41EE610AC0ED050A704772
:100E40009FED050A80ED020A80ED030A80ED040A99
:100E500080ED050A704700000000000080ED020AE6
:100E6000704710B50446D4E90001FFF7C2F900202D
:100E7000A060E060206110BDC0E90012FFF7F1BF83
:100E8000006908B10020704701207047016940687F
:100E9000814201D10120704700207047F0B5002346
:100EA0001D460EE084680768661C86603C5DCC5475
:100EB000D0E90146A64200D185600469641E5B1C2E
:100EC0000461934202D20469002CEBD11846F0BDB4
:100ED000F0B500231D4610E0C4680768CE5C04F13D
:100EE000010CC0F80CC03E554668C468B44200D13D
:100EF000C5600469641C5B1C0461934203D24668AC
:100F00000469B442E8D11846F0BDAFF3008002682E
:100F10008A430260704738B5044600200D460346F8
:100F2000022200901146204600F00AF804F00F015A
:100F300024F0FF002A46BDE8384000F0EFB800007A
:100F40002DE9FF4F054620F0FF04384A384839495B
:100F5000394E3A4FDFF8E880DFF8E890DFF8E8A094
:100F6000DFF8E8B083B0944202D1012108463CE0AA
:100F7000844204D10121022001F036FF06E08C42B8
:100F800004D10121042001F02FFF06E0B44204D176
:100F90000121082001F028FF06E0BC4204D1012114
:100FA000102001F021FF06E0444504D1012120205A
:100FB00001F01AFF06E04C4504D10121402001F068
:100FC00013FF06E0544504D10121802001F00CFFFD
:100FD00006E05C4504D10121080201F005FF07E0AD
:100FE0001B48844204D10121401501F0FDFE05E0BB
:100FF0001848844202D101210015F6E705F00F01DF
:1010000001208840009004988DF8040005988DF820
:10101000050006988DF8060010988DF807006946BF
:10102000204600F021F807B0BDE8F08F0000024034
:101030000004024000080240000C02400010024080
:101040000014024000180240001C02400020024030
:10105000002402400028024008B50021012302229A
:101060000091FFF76DFF08BDF0B5002301240327B1
:101070000D6804FA03F21540954242D1D0F800C041
:101080005E0007FA06F52CEA050CC0F800C091F8DE
:1010900004C0D0F800E00CFA06FC4CEA0E0CC0F8D4
:1010A00000C091F804C0BCF1010F02D0BCF1020FE6
:1010B0001FD1D0F808C02CEA050CC0F808C091F880
:1010C00005C0D0F808E00CFA06FC4CEA0E0CC0F89B
:1010D00008C0D0F804C02CEA020CC0F804C0426872
:1010E00091F806C00CFA03FC1FFA8CFC42EA0C02D1
:1010F0004260C268AA43C260CA79C568B2402A4346
:10110000C2605B1C102BB3D3F0BD08B500210B46A9
:10111000009102220121FFF713FF08BD4B07DB0EF0
:101120009A40C90810B500EB8100016A0F249C4069
:10113000A1430162016A1143016210BD41837047FE
:101140000183704710B52B4AB6EE000A2DED048BD3
:10115000017AD2ED168ACB0692ED178A92ED182A03
:10116000002B01DB68EE808A02DB00BF28EE008ADC
:1011700001DB22EE002A9FED200A4A0702D5F1EE9C
:10118000688A03E00A0701D4F0EE408A8A0702D594
:10119000B1EE488A03E0C90701D1B0EE408AB0F948
:1011A0000000F1EE421A00EE100A9FED141ADFED76
:1011B000140AB8EEC00A03F0A4FDB0EE409AB0EEF7
:1011C000680A104800F083F90F4C0E4884ED000ABD
:1011D000B0EE480A103000F07AF90A4884ED010AAE
:1011E000B0EE490A203000F072F984ED020ABDEC3D
:1011F000048B10BD040000200000000000FEFF462C
:10120000000000C7F4030020C003002070B50446AE
:101210002DED028B1D4D00889FED1D8A95ED162A40
:1012200000EE100ADFED1B8AF1EE421AB8EE400A1A
:10123000B0EE481AF0EE680A03F063FD164EB0EE09
:10124000481AF0EE680A86ED000A608895ED172AC4
:1012500000EE100AF1EE421AB8EE400A03F051FD1A
:1012600086ED010AA08895ED182A00EE100AB0EE6E
:10127000481AF1EE421AB8EE400AF0EE680A03F09E
:1012800040FD86ED020ABDEC028B70BD040000201B
:101290000080D2440000B643C0030020F0B5144AD9
:1012A0000021141F231F0F46801D655C465CAE4263
:1012B00009D152F821500A2D03D26D1C42F8215059
:1012C00003E05E5401E042F82170455C6554491C1E
:1012D0000229EAD306490020891E0C1F1A5C0D5C06
:1012E00042EAC50525540A54401C0228F6D3F0BD35
:1012F000A800002030B5074B0020991D0C1F1A5C78
:101300000D5C42EAC50525540A54401C0228F6D358
:1013100030BD0000B8000020F0B50E4F002107F1ED
:101320000802131F0E4608305C5C455CA54209D1DB
:1013300052F821400A2C03D2641C42F8214003E0F9
:101340007D5401E042F82160445C5C54491C022950
:10135000EAD3F0BDB80000200A8802804A884280A3
:101360008A8882808A798271CA79C2710A890281E7
:1013700049894181704700210A464318491CC9B276
:101380009A710229F9D302804280828002814281CF
:101390007047FEE770B5134A0020131D141F961EF8
:1013A0000146951C115443F82010215431542954FE
:1013B000401C0228F6D30C490A22A1F1300000F0AB
:1013C00082F809490A222831A1F1480000F07BF88F
:1013D0000549BDE870400A225031A1F1600000F0DB
:1013E00072B80000A40000202404002010B50446B8
:1013F000FFF754FF2046BDE81040FFF7A3BE10B52D
:10140000022003F07FFB48B1082003F07BFB48B1CA
:10141000042003F077FB48B1002010BDBDE8104068
:1014200002F0AEB9BDE81040FFF796BCBDE8104031
:10143000FEF75CBF00B5044800F01AF803485DF8F9
:1014400004EB00F01DB80000FF1300085114000861
:1014500070B5064D04464021284603F0ADFA002839
:10146000F9D00248001D048070BD00000048004013
:10147000002801D00149086070470000B00000203A
:10148000002801D00149486070470000B0000020EA
:1014900010B50948FFF739FE0848FFF736FE064841
:1014A0004FF480410E38FFF74BFE04488021BDE821
:1014B0001040C01FFFF744BE0E1402400710024048
:1014C00080EC040A7047C0E9001200F021B80268FD
:1014D000816802EB8102491CD2ED000A30EE601AED
:1014E000D0ED010AF8EE600AC1EE201AD0ED030A31
:1014F00071EEA00AC0ED030A816082ED000AD0E916
:1015000001128A4201D30021816090ED030A7047E5
:1015100010B50446406881002068FEF76AFE00208E
:101520009FED020AA06084ED030A10BD00000000D8
:10153000014800F00BB800009C0400200A46014658
:10154000014800F01CB800009C04002070EE200A46
:10155000B5EE000A31EE212A21EE001AC0ED000A94
:1015600080ED012A80ED021A21EE801A22EE000A97
:1015700080ED031A80EE201A80ED041A704791EC7A
:10158000020A90ED001A30EE600AD1ED020A00EE78
:10159000810AD0ED010A80EE201A82ED001A90ED4A
:1015A000001A91EC020A30EE200AD1ED020A00EE98
:1015B000810AD0ED010A80EE201A82ED011A91ED28
:1015C000010AD1ED000A90ED001A30EE600AD1ED6B
:1015D000020A00EE810AD0ED010A80EE201A82EDA7
:1015E000021A91ED000AD1ED010A90ED001AB1EE58
:1015F000400A30EE600AD1ED020A00EE810AD0ED19
:10160000010A80EE201A82ED031A7047FEE70000FF
:1016100070B50446C08EA086088804F11C0540BA47
:10162000E086488840BAA063888840BAE063208892
:10163000642825D2DFED450A9FED450A201DFFF7FE
:10164000D6FBB4F9480000EE100A201DB8EEC00A1F
:10165000FFF704FCDFED3F0A9FED3F0A2846FFF746
:10166000C6FB94ED130A2846B8EEC00AFFF7F6FB56
:10167000E08EA4F84200002060642088401C208096
:10168000E08EA18E401A00B2A4F84000B0F5805F51
:1016900005DD616CA0F50050491E616407E010F59E
:1016A000805F04DA616C00F50050491C6164A4F8A5
:1016B000480000B200EE100A201DB8EEC00AFFF785
:1016C0009AFB94ED030ADFED250ABDEEC00A10EE89
:1016D000100A00B200EE100AA4F85000B8EEC00ADA
:1016E00020EE200ADFED1E0A84ED160A00EE100A35
:1016F000B8EEC00A20EE200A84ED170AE08EB4F896
:101700004210401A616C00EB413000EE100AE064B8
:101710002846B8EEC00A1434FFF76DFB94ED040AB6
:101720009FED101ABDEEC00A84ED100AF8EEC00A53
:10173000B8EEC00A60EE810AC4ED130ADFED0A0AB2
:1017400020EE200A84ED140A70BD00006666A63FF4
:10175000CDCCCC3D6666663F0AD7233CFFC72F42FF
:101760007C59443FFFFF333DDB0F493A10B5044637
:10177000002024F8140B9FED100A2084608460621E
:10178000A062A085E0852063A086A08784ED110A71
:1017900084ED120AA06344F8400FA4F1500084EDD8
:1017A000030A84ED040A543CFFF74AFB04F11C00D1
:1017B000BDE81040FFF744BB00000000704708B5CB
:1017C0008DF800008DF801108DF8022001208DF8B1
:1017D0000300684600F002F808BD000030B50F2293
:1017E000C47801780123FCB1144C246801F1E02194
:1017F00004F4E064C4F5E064C4F30724C4F1040510
:10180000E2404478AC408578154025432A0181F8B0
:101810000024007800F01F018B404009800000F197
:10182000E020C0F8003130BD01F01F0083404809BE
:10183000800000F1E020C0F8803130BD0CED00E008
:101840000249084302490860704700000000FA0599
:101850000CED00E02DE9FE4F1546DFF80484FF4A49
:10186000DDF830B008F104091C460E46074609F1C0
:10187000040A93457ED100200290A8F10400B0EB49
:10188000172F25D0B8EB172F22D0B9EB172F1FD069
:10189000BAEB172F1CD00AF10400B0EB172F17D0AA
:1018A000001DB0EB172F13D0001DB0EB172F0FD07A
:1018B000001DB0EB172F0BD0001DB0EB172F07D07A
:1018C000001DB0EB172F03D0001DB0EB172F05D173
:1018D00001213846FFF71FFB01200290E048001F5E
:1018E000B0EB162F25D0B8EB162F22D0B9EB162F60
:1018F0001FD0BAEB162F1CD0D9480C30B0EB162FE6
:1019000017D0001DB0EB162F13D0001DB0EB162F13
:101910000FD0001DB0EB162F0BD0001DB0EB162F13
:1019200007D0001DB0EB162F03D0001DB0EB162F13
:1019300007D101213046FFF7EEFA029840F002008D
:101940000290C748001FB0EB152F27D0B8EB152F1A
:1019500024D0B9EB152F21D0BAEB152F1ED0C048DB
:101960000C30B0EB152F19D0001DB0EB152F15D092
:10197000001D00E061E0B0EB152F0FD0001DB0EBB3
:10198000152F0BD0001DB0EB152F07D0001DB0EBAD
:10199000152F03D0001DB0EB152F07D101212846CC
:1019A000FFF7B9FA029840F004000290AC48001F1B
:1019B000B0EB142F25D0B8EB142F22D0B9EB142F95
:1019C0001FD0BAEB142F1CD0A5480C30B0EB142F4D
:1019D00017D0001DB0EB142F13D0001DB0EB142F47
:1019E0000FD0001DB0EB142F0BD0001DB0EB142F47
:1019F00007D0001DB0EB142F03D0001DB0EB142F47
:101A000007D101212046FFF786FA029840F008002E
:101A10000290002000900190DDE90D1302468F48EE
:101A200001F010FC70228D480F9B029901F0BEFD61
:101A300001218A4801F0ECFBB6E1BBF1804F7DD07B
:101A400088498B45F8D1002002908548001FB0EBF3
:101A5000172F25D0B8EB172F22D0B9EB172F1FD097
:101A6000BAEB172F1CD07E480C30B0EB172F17D0D5
:101A7000001DB0EB172F13D0001DB0EB172F0FD0A8
:101A8000001DB0EB172F0BD0001DB0EB172F07D0A8
:101A9000001DB0EB172F03D0001DB0EB172F05D1A1
:101AA00002213846FFF737FA012002906C48001FE8
:101AB000B0EB162F25D0B8EB162F22D0B9EB162F8E
:101AC0001FD0BAEB162F1CD065480C30B0EB162F88
:101AD00017D0001DB0EB162F13D0001DB0EB162F42
:101AE0000FD0001DB0EB162F0BD0001DB0EB162F42
:101AF00007D0001DB0EB162F03D0001DB0EB162F42
:101B000007D102213046FFF706FA029840F00200A2
:101B100002905348001FB0EB152F27D0B8EB152FBC
:101B200024D0B9EB152F21D0BAEB152F1ED04C487D
:101B30000C30B0EB152F19D0001D00E065E0B0EBC4
:101B4000152F13D0001DB0EB152F0FD0001DB0EBDB
:101B5000152F0BD0001DB0EB152F07D0001DB0EBDB
:101B6000152F03D0001DB0EB152F07D102212846F9
:101B7000FFF7D1F9029840F0040002903848001FA6
:101B8000B0EB142F25D0B8EB142F22D0B9EB142FC3
:101B90001FD0BAEB142F1CD031480C30B0EB142FEF
:101BA00017D0001DB0EB142F13D0001DB0EB142F75
:101BB0000FD0001DB0EB142F0BD0001DB0EB142F75
:101BC00007D0001DB0EB142F03D0001DB0EB142F75
:101BD00007D102212046FFF79EF9029840F0080045
:101BE0000290002000900190DDE90D1302461D488F
:101BF00001F028FB70221B480F9B029901F0D6FCD4
:101C00000121184801F004FBAFE115484FF0000B2B
:101C1000001FB0EB172F2CD0B8EB172F29D0B9EB42
:101C2000172F26D0BAEB172F23D00D480C30B0EB6E
:101C3000172F1ED0001DB0EB172F1AD0001DB0EBD0
:101C4000172F16D0001DB0EB172F12D0001DB0EBD0
:101C5000172F0ED0001DB0EB172F05E0000001403C
:101C6000040240000004004003D0001DB0EB172F19
:101C700005D101213846FFF74EF94FF0010BFC4F1B
:101C8000B7EB162F25D0B8EB162F22D0B9EB162FB5
:101C90001FD0BAEB162F1CD0F5481030B0EB162F22
:101CA00017D0001DB0EB162F13D0001DB0EB162F70
:101CB0000FD0001DB0EB162F0BD0001DB0EB162F70
:101CC00007D0001DB0EB162F03D0001DB0EB162F70
:101CD00005D101213046FFF71EF94BF0020BB7EB9F
:101CE000152F25D0B8EB152F22D0B9EB152F1FD00B
:101CF000BAEB152F1CD0DE481030B0EB152F17D0E3
:101D0000001DB0EB152F13D0001DB0EB152F0FD019
:101D1000001DB0EB152F0BD0001DB0EB152F07D019
:101D2000001DB0EB152F03D0001DB0EB152F05D112
:101D300001212846FFF7EFF84BF0040BB7EB142F07
:101D400025D0B8EB142F22D0B9EB142F1FD0BAEB4B
:101D5000142F1CD0C6481030B0EB142F17D0001D24
:101D6000B0EB142F13D0001DB0EB142F0FD0001DBB
:101D7000B0EB142F0BD0001DB0EB142F07D0001DBB
:101D8000B0EB142F03D0001DB0EB142F05D10121AF
:101D90002046FFF7C0F84BF0080B002000900246E9
:101DA0004FF080440190FDE3B2498B457ED1002085
:101DB0000290AF48B0EB172F25D0B8EB172F22D0E9
:101DC000B9EB172F1FD0BAEB172F1CD0A848103033
:101DD000B0EB172F17D0001DB0EB172F13D0001D3D
:101DE000B0EB172F0FD0001DB0EB172F0BD0001D3D
:101DF000B0EB172F07D0001DB0EB172F03D0001D3D
:101E0000B0EB172F05D102213846FFF784F80120E7
:101E100002909748B0EB162F25D0B8EB162F22D0A2
:101E2000B9EB162F1FD0BAEB162F1CD090481030EC
:101E3000B0EB162F17D0001DB0EB162F13D0001DDE
:101E4000B0EB162F0FD0001DB0EB162F0BD0001DDE
:101E5000B0EB162F07D0001DB0EB162F03D0001DDE
:101E6000B0EB162F07D102213046FFF754F8029845
:101E700040F0020002907E48B0EB152F27D0B8EB5F
:101E8000152F24D0B9EB152F21D0BAEB152F1ED06A
:101E900077481030B0EB152F19D0001DB0EB152F7F
:101EA00015D0001DB0EB152F11D000E05DE0001D36
:101EB000B0EB152F0BD0001DB0EB152F07D0001D78
:101EC000B0EB152F03D0001DB0EB152F07D1022169
:101ED0002846FFF720F8029840F00400029064487A
:101EE000B0EB142F25D0B8EB142F22D0B9EB142F60
:101EF0001FD0BAEB142F1CD05D481030B0EB142F5C
:101F000017D0001DB0EB142F13D0001DB0EB142F11
:101F10000FD0001DB0EB142F0BD0001DB0EB142F11
:101F200007D0001DB0EB142F03D0001DB0EB142F11
:101F300007D102212046FEF7EEFF029840F008008C
:101F40000290002000900190DDE90D1302464948FF
:101F500001F078F9702247480F9B029901F026FBA7
:101F60000121444801F054F9E7E043498B457DD114
:101F7000002002903E48B0EB172F25D0B8EB172F6A
:101F800022D0B9EB172F1FD0BAEB172F1CD038482F
:101F90001030B0EB172F17D0001DB0EB172F13D058
:101FA000001DB0EB172F0FD0001DB0EB172F0BD07B
:101FB000001DB0EB172F07D0001DB0EB172F03D07B
:101FC000001DB0EB172F05D102213846FEF7A3FF05
:101FD000012002902648B0EB162F25D0B8EB162F23
:101FE00022D0B9EB162F1FD0BAEB162F1CD02048E9
:101FF0001030B0EB162F17D0001DB0EB162F13D0FA
:10200000001DB0EB162F0FD0001DB0EB162F0BD01C
:10201000001DB0EB162F07D0001DB0EB162F03D01C
:10202000001DB0EB162F07D102213046FEF773FFDB
:10203000029840F0020002900D48B0EB152F2ED010
:10204000B8EB152F2BD0B9EB152F28D0BAEB152FE5
:1020500025D007481030B0EB152F20D0001DB0EB75
:10206000152F1CD0001DB0EB152F07E065E0000018
:102070000002400000080040000C00400FD0001D8E
:10208000B0EB152F0BD0001DB0EB152F07D0001DA6
:10209000B0EB152F03D0001DB0EB152F07D1022197
:1020A0002846FEF738FF029840F004000290FE48F0
:1020B000B0EB142F25D0B8EB142F22D0B9EB142F8E
:1020C0001FD0BAEB142F1CD0F7481030B0EB142FF0
:1020D00017D0001DB0EB142F13D0001DB0EB142F40
:1020E0000FD0001DB0EB142F0BD0001DB0EB142F40
:1020F00007D0001DB0EB142F03D0001DB0EB142F40
:1021000007D102212046FEF706FF029840F00800A2
:102110000290002000900190DDE90D130246E34893
:1021200001F090F87022E1480F9B029901F03EFA0D
:102130000121DE4801F06CF8E0E0DD498B457DD1FE
:1021400000200290D848B0EB172F25D0B8EB172FFE
:1021500022D0B9EB172F1FD0BAEB172F1CD0D248C3
:102160001030B0EB172F17D0001DB0EB172F13D086
:10217000001DB0EB172F0FD0001DB0EB172F0BD0A9
:10218000001DB0EB172F07D0001DB0EB172F03D0A9
:10219000001DB0EB172F05D103213846FEF7BBFE1B
:1021A00001200290C048B0EB162F25D0B8EB162FB7
:1021B00022D0B9EB162F1FD0BAEB162F1CD0BA487D
:1021C0001030B0EB162F17D0001DB0EB162F13D028
:1021D000001DB0EB162F0FD0001DB0EB162F0BD04B
:1021E000001DB0EB162F07D0001DB0EB162F03D04B
:1021F000001DB0EB162F07D103213046FEF78BFEF2
:10220000029840F002000290A748B0EB152F27D0AB
:10221000B8EB152F24D0B9EB152F21D0BAEB152F21
:102220001ED0A1481030B0EB152F19D0001DB0EB17
:10223000152F15D0001DB0EB152F00E05EE00FD07C
:10224000001DB0EB152F0BD0001DB0EB152F07D0E4
:10225000001DB0EB152F03D0001DB0EB152F07D1DB
:1022600003212846FEF757FE029840F00400029032
:102270008D48B0EB142F25D0B8EB142F22D0B9EB3A
:10228000142F1FD0BAEB142F1CD087481030B0EB9E
:10229000142F17D0001DB0EB142F13D0001DB0EB7E
:1022A000142F0FD0001DB0EB142F0BD0001DB0EB7E
:1022B000142F07D0001DB0EB142F03D0001DB0EB7E
:1022C000142F07D103212046FEF725FE029840F087
:1022D00008000290002000900190DDE90D130246F5
:1022E000734800F0AFFF702271480F9B029901F014
:1022F0005DF901216E4800F08BFFEAE06D498B45E6
:102300007ED1002002906848B0EB172F25D0B8EBA3
:10231000172F22D0B9EB172F1FD0BAEB172F1CD0D5
:1023200061481030B0EB172F17D0001DB0EB172FFE
:1023300013D0001DB0EB172F0FD0001DB0EB172FDF
:102340000BD0001DB0EB172F07D0001DB0EB172FDF
:1023500003D0001DB0EB172F05D103213846FEF73F
:10236000DAFD012002905048B0EB162F25D0B8EBD3
:10237000162F22D0B9EB162F1FD0BAEB162F1CD078
:1023800049481030B0EB162F17D0001DB0EB162FB8
:1023900013D0001DB0EB162F0FD0001DB0EB162F81
:1023A0000BD0001DB0EB162F07D0001DB0EB162F81
:1023B00003D0001DB0EB162F07D103213046FEF7E6
:1023C000AAFD029840F0020002903748B0EB152FAA
:1023D00027D0B8EB152F24D0B9EB152F21D0BAEBAD
:1023E000152F1ED030481030B0EB152F19D0001D1E
:1023F000B0EB152F15D0001DB0EB152F11D000E05C
:1024000067E0001DB0EB152F0BD0001DB0EB152FB2
:1024100007D0001DB0EB152F03D0001DB0EB152F1A
:1024200007D103212846FEF776FD029840F004000C
:1024300002901D48B0EB142F25D0B8EB142F22D0FA
:10244000B9EB142F1FD0BAEB142F1CD01648103044
:10245000B0EB142F17D0001DB0EB142F13D0001DBC
:10246000B0EB142F0FD0001DB0EB142F0BD0001DBC
:10247000B0EB142F07D0001DB0EB142F03D0001DBC
:10248000B0EB142F07D103212046FEF744FD02983C
:1024900040F008000290002000900190DDE90D134B
:1024A0000246044808E0000000024000000C004022
:1024B000000401400040014000F0C4FE7022FE48CC
:1024C0000F9B029901F072F80121FB4800F0A0FE79
:1024D000E1E0FA498B4566D100200290F848B0EB64
:1024E000172F25D0B8EB172F22D0B9EB172F1FD0FD
:1024F000BAEB172F1CD0F2481030B0EB172F17D0C3
:10250000001DB0EB172F13D0001DB0EB172F0FD00D
:10251000001DB0EB172F0BD0001DB0EB172F07D00D
:10252000001DB0EB172F03D0001DB0EB172F05D106
:1025300003213846FEF7EFFC01200290E048B0EBA3
:10254000162F25D0B8EB162F22D0B9EB162F1FD09F
:10255000BAEB162F1CD0DA481030B0EB162F17D07C
:10256000001DB0EB162F13D0001DB0EB162F0FD0AF
:10257000001DB0EB162F0BD0001DB0EB162F07D0AF
:10258000001DB0EB162F03D0001DB0EB162F07D1A6
:1025900003213046FEF7BFFC029840F00200029093
:1025A000C74801E00EE376E0B0EB152F25D0B8EB7D
:1025B000152F22D0B9EB152F1FD0BAEB152F1CD039
:1025C000BF481030B0EB152F17D0001DB0EB152F02
:1025D00013D0001DB0EB152F0FD0001DB0EB152F41
:1025E0000BD0001DB0EB152F07D0001DB0EB152F41
:1025F00003D0001DB0EB152F07D103212846FEF7AD
:102600008AFC029840F004000290AD48B0EB142F11
:1026100025D0B8EB142F22D0B9EB142F1FD0BAEB72
:10262000142F1CD0A6481030B0EB142F17D0001D6B
:10263000B0EB142F13D0001DB0EB142F0FD0001DE2
:10264000B0EB142F0BD0001DB0EB142F07D0001DE2
:10265000B0EB142F03D0001DB0EB142F07D10321D2
:102660002046FEF758FC029840F008000290002037
:1026700000900190DDE90D130246904800F0E2FD64
:1026800070228E480F9B029900F090FF01218B4829
:1026900000F0BEFDE0E08B498B457DD1002002902B
:1026A0008748B0EB172F25D0B8EB172F22D0B9EB06
:1026B000172F1FD0BAEB172F1CD081481030B0EB6A
:1026C000172F17D0001DB0EB172F13D0001DB0EB44
:1026D000172F0FD0001DB0EB172F0BD0001DB0EB44
:1026E000172F07D0001DB0EB172F03D0001DB0EB44
:1026F000172F05D103213846FEF70DFC012002906B
:102700006F48B0EB162F25D0B8EB162F22D0B9EBBF
:10271000162F1FD0BAEB162F1CD069481030B0EB23
:10272000162F17D0001DB0EB162F13D0001DB0EBE5
:10273000162F0FD0001DB0EB162F0BD0001DB0EBE5
:10274000162F07D0001DB0EB162F03D0001DB0EBE5
:10275000162F07D103213046FEF7DDFB029840F02B
:10276000020002905648B0EB152F27D0B8EB152F7A
:1027700024D0B9EB152F21D0BAEB152F1ED050481D
:102780001030B0EB152F19D0001DB0EB152F15D060
:10279000001DB0EB152F00E05EE00FD0001DB0EB88
:1027A000152F0BD0001DB0EB152F07D0001DB0EB7F
:1027B000152F03D0001DB0EB152F07D1032128469C
:1027C000FEF7A9FB029840F0040002903C48B0EBF1
:1027D000142F25D0B8EB142F22D0B9EB142F1FD013
:1027E000BAEB142F1CD036481030B0EB142F17D092
:1027F000001DB0EB142F13D0001DB0EB142F0FD021
:10280000001DB0EB142F0BD0001DB0EB142F07D020
:10281000001DB0EB142F03D0001DB0EB142F07D117
:1028200003212046FEF777FB029840F00800029053
:10283000002000900190DDE90D130246214800F0D0
:1028400001FD70221F480F9B029900F0AFFE01218D
:102850001C4800F0DDFCEBE01B498B457ED10020DD
:1028600002901748B0EB172F25D0B8EB172F22D0C6
:10287000B9EB172F1FD0BAEB172F1CD01048103010
:10288000B0EB172F17D0001DB0EB172F13D0001D82
:10289000B0EB172F0FD0001DB0EB172F0BD0001D82
:1028A000B0EB172F07D0001DB0EB172F03D0001D82
:1028B000B0EB172F10D109E0004001400044014067
:1028C000000240000048014000180040092138463D
:1028D000FEF721FB01200290FB48B0EB162F25D01C
:1028E000B8EB162F22D0B9EB162F1FD0BAEB162F4C
:1028F0001CD0F5481030B0EB162F17D0001DB0EBF0
:10290000162F13D0001DB0EB162F0FD0001DB0EB0B
:10291000162F0BD0001DB0EB162F07D0001DB0EB0B
:10292000162F03D0001DB0EB162F07D1092130461A
:10293000FEF7F1FA029840F002000290E248B0EB94
:10294000152F27D0B8EB152F24D0B9EB152F21D098
:10295000BAEB152F1ED0DC48103000E068E0B0EB79
:10296000152F17D0001DB0EB152F13D0001DB0EBA5
:10297000152F0FD0001DB0EB152F0BD0001DB0EBA5
:10298000152F07D0001DB0EB152F03D0001DB0EBA5
:10299000152F07D109212846FEF7BDFA029840F00D
:1029A00004000290C848B0EB142F25D0B8EB142FC8
:1029B00022D0B9EB142F1FD0BAEB142F1CD0C24871
:1029C0001030B0EB142F17D0001DB0EB142F13D024
:1029D000001DB0EB142F0FD0001DB0EB142F0BD047
:1029E000001DB0EB142F07D0001DB0EB142F03D047
:1029F000001DB0EB142F07D109212046FEF78BFAFA
:102A0000029840F008000290002000900190DDE95B
:102A10000D130246AD4800F015FC7022AB480F9B29
:102A2000029900F0C3FD0121A84800F0F1FBCAE0C3
:102A3000A7498B457ED1A4484FF0000BB0EB172F70
:102A400025D0B8EB172F22D0B9EB172F1FD0BAEB38
:102A5000172F1CD09C481030B0EB172F17D0001D3B
:102A6000B0EB172F13D0001DB0EB172F0FD0001DA8
:102A7000B0EB172F0BD0001DB0EB172F07D0001DA8
:102A8000B0EB172F03D0001DB0EB172F05D1092194
:102A90003846FEF740FA4FF0010B8B4FB7EB162F7D
:102AA00025D0B8EB162F22D0B9EB162F1FD0BAEBDA
:102AB000162F1CD084481030B0EB162F17D0001DF5
:102AC000B0EB162F13D0001DB0EB162F0FD0001D4A
:102AD000B0EB162F0BD0001DB0EB162F07D0001D4A
:102AE000B0EB162F03D0001DB0EB162F05D1092136
:102AF0003046FEF710FA4BF0020BB7EB152F27D03C
:102B0000B8EB152F24D0B9EB152F21D0BAEB152F28
:102B10001ED06D481030B0EB152F19D0001DB0EB52
:102B2000152F15D0001DB0EB152F11D0001DB0EBE7
:102B3000152F00E047E00BD0001DB0EB152F07D09C
:102B4000001DB0EB152F03D0001DB0EB152F05D1E4
:102B500009212846FEF7DFF94BF0040BB7EB142FE1
:102B600025D0B8EB142F22D0B9EB142F1FD0BAEB1D
:102B7000142F1CD054481030B0EB142F17D0001D68
:102B8000B0EB142F13D0001DB0EB142F0FD0001D8D
:102B9000B0EB142F0BD0001DB0EB142F07D0001D8D
:102BA000B0EB142F03D0001DB0EB142F05D1092179
:102BB0002046FEF7B0F94BF0080B002000900246CB
:102BC000434C0190D0E043498B457CD13E484FF0C7
:102BD000000BB0EB172F25D0B8EB172F22D0B9EB95
:102BE000172F1FD0BAEB172F1CD037481030B0EB7F
:102BF000172F17D0001DB0EB172F13D0001DB0EB0F
:102C0000172F0FD0001DB0EB172F0BD0001DB0EB0E
:102C1000172F07D0001DB0EB172F03D0001DB0EB0E
:102C2000172F05D109213846FEF775F94FF0010B32
:102C3000254FB7EB162F25D0B8EB162F22D0B9EBC6
:102C4000162F1FD0BAEB162F1CD01F481030B0EB38
:102C5000162F17D0001DB0EB162F13D0001DB0EBB0
:102C6000162F0FD0001DB0EB162F0BD0001DB0EBB0
:102C7000162F07D0001DB0EB162F03D0001DB0EBB0
:102C8000162F05D109213046FEF745F94BF0020B0E
:102C9000B7EB152F2FD0B8EB152F2CD0B9EB152F84
:102CA00029D0BAEB152F26D007481030B0EB152FDE
:102CB00021D0001DB0EB152F1DD0001DB0EB152F3E
:102CC00019D0001D08E061E000024000001800403B
:102CD000001C004000200040B0EB152F0BD0001D61
:102CE000B0EB152F07D0001DB0EB152F03D0001D42
:102CF000B0EB152F05D109212846FEF70CF94BF052
:102D0000040BB7EB142F24D0B8EB142F21D0B9EB60
:102D1000142F1ED0BAEB142F1BD01D48B0EB142F6C
:102D200017D0001DB0EB142F13D0001DB0EB142FE3
:102D30000FD0001DB0EB142F0BD0001DB0EB142FE3
:102D400007D0001DB0EB142F03D0001DB0EB142FE3
:102D500005D109212046FEF7DEF84BF0080B0020D4
:102D60000C4C009002460190DDE90D13204600F066
:102D700069FA7022594620460F9B00F017FC03B0F9
:102D80002046BDE8F04F012100F042BABDE8FE8FB9
:102D90001002400000200040704700001FB54FF4B3
:102DA0007A700F4C40F6C411532200940390CDE981
:102DB00001210C4B5A1E511E481EFEF74BFD0121EE
:102DC000204600F035FA064940F2A4604031086020
:102DD000091F0860091F0860091F08601FBD000067
:102DE000000800400F0C0240044A0029116801D07D
:102DF000014300E081431160704700003038024019
:102E0000044A0029116801D0014300E081431160A8
:102E10007047000040380240044A0029116801D080
:102E2000014300E0814311607047000044380240D4
:102E300070B5204A1168204C11F00C0104D01F4ECF
:102E4000042903D0082903D004601BE0066019E0C0
:102E50001849091F0B68C3F380550B6803F03F0343
:102E600015B1B6FBF3F301E0B4FBF3F30C680968AA
:102E7000C4F388146343C1F30141491C4900B3FB07
:102E8000F1F1016011680F2303EA11110C4B5C5C36
:102E90000168E14041601468072505EA94241C5D3F
:102EA00021FA04F48460126805EA52329A5CD14037
:102EB000C16070BD083802400024F400001BB70058
:102EC000FC0000200A88C2F30A0202804A788B784C
:102ED000D20842EA4312C2F30A0242808A78CB78CF
:102EE000920942EA83020B7942EA8322C2F30A0280
:102EF00082800A794B79520842EAC312C2F30A026D
:102F0000C2804A79920902724979C1F30111417272
:102F10007047000000214FF4806200BF20F81120AC
:102F2000491CC9B20429F9D3002103224318491CC2
:102F3000C9B21A720229F9D37047000070B5084A65
:102F40000020131D941C161F0146951E115443F8B2
:102F50002010215431542954401C0228F6D370BD4E
:102F6000BC000020FEF752B900F04AB83EB54E2230
:102F7000452108208DE807001D4CB7EE000A1B4BC9
:102F8000224600211B4800F043FD0122402120463B
:102F900001F00AFD24210020CDE90001174D221D7A
:102FA000154B51062846FDF719FE1349002224311E
:102FB0002846FDF753FE01212846FDF745FE012175
:102FC0002846FDF701FE002211462520FEF7F7FBFB
:102FD000012240F22441204601F014FD03B02046B6
:102FE000BDE83040012101F00CBC0000A0860100CA
:102FF0000010014007040240000900204064024024
:1030000010B50446002001F075FD21460348FDF788
:10301000C5FDBDE810400148FDF7CCBEDC03002033
:103020007047000070B5FDF777FD05460948046854
:103030000DE0A068A84201D2281A01E0C04328444C
:103040006168814202D820688047A5602469002C0D
:10305000EFD170BD000000201CB500202E4901906A
:1030600000900A6842F480320A604FF4A0430A6874
:1030700002F400320092019A521C0192009A12B995
:10308000019A9A42F3D10A68920342D50120009036
:1030900021484030026842F0805202601F480268B6
:1030A00042F4404202601C4A0832136813601368FD
:1030B00043F400431360136843F4A0531360141FD8
:1030C000174B23600B6843F080730B600B689B0108
:1030D000FCD5016841F4803101604168C903FCD529
:1030E000016841F40031016041688903FCD50D4954
:1030F00040F205700860106820F00300106010684E
:1031000040F0020010601068C0F381000228FAD17C
:103110001CBD00901CBD0000003802400070004043
:103120000C544007003C0240FFF77CBF1CB5002058
:103130000090024601904FF47A735321054800F045
:1031400081F802B000220121BDE810403620FEF7D0
:1031500036BB000000100040124810B5016841F471
:10316000700101601048016841F0010101600E4AE0
:1031700000210832116002680C4B1A400260031DE6
:103180000B4A1A60026822F48022026006480C3062
:103190000160FFF761FF03494FF00060803908606C
:1031A00010BD000088ED00E000380240FFFFF6FE91
:1031B0001030002410B501218C07204600F0E4F8FF
:1031C00000280BD00121204600F02FF801212046D5
:1031D00000F028F8BDE8104000F068BA10BD00000B
:1031E00010B50A4C0121204600F0CEF800280BD083
:1031F0000121204600F019F80121204600F012F8C4
:10320000BDE81040FFF790BF10BD00000010004067
:103210000029018802D041F0800101E021F0800105
:1032200001807047C94301827047C94301827047DA
:103230000029018802D041F0010101E021F00101E3
:10324000018070472DE9FF4F434904464348444DF0
:10325000444EDFF81481DFF81491DFF814A1DFF891
:1032600014B183B04FEAB1478C4204D10121084622
:10327000FFF7D2FD0CE0B4F1804F06D0844207D1B5
:1032800001210220FFF7BCFD09E00121084645E0CD
:10329000AC4204D101210420FFF7B2FD06E0B442A4
:1032A00004D101210820FFF7ABFD06E0BC4204D1A8
:1032B00001211020FFF7A4FD06E0444504D10121BF
:1032C0002020FFF79DFD06E04C4504D1012102209E
:1032D000FFF7A2FD06E0544504D101210804FFF7E1
:1032E0009BFD06E05C4504D101214804FFF794FDF5
:1032F00007E02148844204D101218804FFF78CFDB6
:1033000007E01E48844204D101214020FFF778FDE8
:1033100007E01B48844204D101218020FFF770FDA3
:1033200005E01848844202D101218015F6E704988F
:10333000ADF800000598ADF80200069801901098CD
:10334000ADF8080011988DF80A006946204600F093
:103350006FF907B0BDE8F08F0000014000040040A5
:1033600000080040000C0040001400400004014030
:103370000040014000440140004801400018004066
:10338000001C00400020004002460020138A928961
:103390000B4202EA010202D0002A00D0012070474D
:1033A000002A828901D00A4300E08A438281704763
:1033B00030B5028C22F001020284028C8388048BD7
:1033C00022F0020224F073050C882C438D891543EA
:1033D0004A882A430C4DA84202D00C4DA8420DD178
:1033E00022F00805CA8923F440732A4322F0040519
:1033F0008A882A430D8A1D434B8A2B43838004838A
:1034000089684163028430BD00000140000401402E
:10341000028B22F008020A430283704770B5028CC7
:1034200022F010020284028C8488038B0D8823F41E
:10343000E6464FF6FF7303EA052535438E8922F0F1
:10344000200203EA061616434A8803EA02123243B0
:10345000104EB04202D0104EB04215D122F080067C
:10346000CA8924F4406403EA0212324322F040067F
:103470008A8803EA021232430E8A03EA860626434A
:103480004C8A03EA84043443848005838968816319
:10349000028470BD0000014000040140028B4FF621
:1034A000FF7322F4006203EA012111430183704794
:1034B00070B5028C22F480720284028C8488838B23
:1034C0000D8823F073031D4322F400738E894FF699
:1034D000FF7202EA06261E434B8802EA03233343A7
:1034E000104EB04202D0104EB04215D123F4006607
:1034F000CB8924F4405402EA0323334323F4806647
:103500008B8802EA032333430E8A02EA0616264317
:103510004C8A02EA04143443848085838968C16339
:10352000038470BD0000014000040140828B22F042
:1035300008020A438283704770B5028C22F48052DD
:103540000284048C8288838B0D8823F4E6464FF630
:10355000FF7303EA0525354324F400568C8903EAFA
:10356000043434434E8803EA06362643084CA0420E
:1035700002D0084CA04205D122F480440A8A03EA12
:10358000821222438280858389680164068470BD2B
:103590000000014000040140828B4FF6FF7322F4CB
:1035A000006203EA012111438183704730B585B081
:1035B0000546ADF8002001200C46ADF802000021C0
:1035C0000220ADF80C00ADF81010C001ADF81200EB
:1035D000ADF804100293ADF80E10E00707D069466D
:1035E0002846FFF7E5FE08212846FFF711FFA00750
:1035F00007D569462846FFF711FF08212846FFF73F
:103600004DFF600707D569462846FFF751FF08219F
:103610002846FFF78BFF200707D569462846FFF7A6
:103620008BFF08212846FFF7B7FF05B030BD00002B
:1036300030B50288164B174C98420DD0A0420BD0E3
:10364000B0F1804F08D0144DA84205D0134DA842C8
:1036500002D0134DA84203D122F070054A882A43B4
:10366000104DA84206D0104DA84203D022F4407558
:103670000A892A4302804A68C2620A8802859842FF
:1036800001D0A04201D1897A01860121818230BD19
:103690000000014000040140000400400008004018
:1036A000000C00400010004000140040FDF744BA38
:1036B0001CB5002000900123024601905321980779
:1036C000FFF7C0FD02B00022BDE8104011461C20EB
:1036D000FEF775B810B501218C072046FFF7A8FD4D
:1036E000012211462046FFF75BFE2046BDE8104050
:1036F0000121FFF797BD10B5FFF7DAFFBDE81040D5
:10370000FFF714BD00F038B83EB54E200821CDE9D2
:103710000010154C15490290B7EE000A4FF4E13342
:103720002246481D00F074F9012240F2255120463E
:1037300001F068F9022211464720FEF740F80C49D3
:10374000A5152A46A1F12800FDF796FB09492A464E
:10375000A1F58A70FDF790FB03B02046BDE830402C
:10376000012101F04EB80000001401400918024088
:1037700070090020700A0020012001F0BBB9000090
:1037800038B500208DF800000C48FDF779FB0028C3
:10379000FAD10B4D40F2255400222146284601F073
:1037A00031F9012269460548FDF778FB01222146DF
:1037B000284601F027F99DF8000038BD480900208F
:1037C0000014014070B51D4C40F22446314620469D
:1037D00001F0F9F800282FD0194D2021204601F0E2
:1037E00007F83146204601F006F8164C0021204625
:1037F000FDF7EAF92046FDF73CFAC0F1240086B255
:103800002420211D08602046FDF736FA78B1206893
:10381000243520F40020206001212046FDF7D4F952
:10382000122E09D12846BDE87040FFF79DBB2068E5
:1038300040F400202060EFE770BD00000010014060
:1038400000090020406402407CB5234D40F22776F9
:103850003146284601F0B7F80024C0B11F48FDF7F3
:103860000FFB38B102B031462846BDE87040002257
:1038700001F0C8B88DF80040012269461748FDF7ED
:103880000DFB9DF80010284601F02EF97CBD40F29A
:103890002551284601F097F80028F7D0284601F076
:1038A0001FF98DF800000D481438FDF7EFFA38B114
:1038B0000A488DF80440012201A91438FDF7EEFAF8
:1038C0000648012269461438FDF702FB9DF8000006
:1038D000FCF7CEFC7CBD000000440040C404002086
:1038E0007CB5234D40F227763146284601F06BF82F
:1038F0000024C0B11F48FDF7C3FA38B102B0314609
:103900002846BDE87040002201F07CB88DF80040E8
:10391000012269461748FDF7C1FA9DF800102846B4
:1039200001F0E2F87CBD40F22551284601F04BF849
:103930000028F7D0284601F0D3F88DF800000D4894
:103940001438FDF7A3FA38B10A488DF80440012273
:1039500001A91438FDF7A2FA064801226946143875
:10396000FDF7B6FA9DF80000FDF7B8F97CBD000040
:1039700000480040EC0600207CB5234D40F227763D
:103980003146284601F01FF80024C0B11F48FDF75A
:1039900077FA38B102B031462846BDE870400022BF
:1039A00001F030B88DF80040012269461748FDF754
:1039B00075FA9DF80010284601F096F87CBD40F29B
:1039C0002551284600F0FFFF0028F7D0284601F0D7
:1039D00087F88DF800000D481438FDF757FA38B114
:1039E0000A488DF80440012201A91438FDF756FA5F
:1039F0000648012269461438FDF76AFA9DF800006E
:103A0000FFF780FE7CBD0000001401405C0900202F
:103A10002DE9FF4F0C462DED020B05462DED028BD7
:103A200083B0B0EE408ADDE91576FE49DFF8F89301
:103A3000099809F1040A0AF1040B88427ED1A9F120
:103A40000400B0EB152F25D0B9EB152F22D0BAEB1F
:103A5000152F1FD0BBEB152F1CD00BF10401B1EBC0
:103A6000152F17D0091DB1EB152F13D0091DB1EB80
:103A7000152F0FD0091DB1EB152F0BD0091DB1EB80
:103A8000152F07D0091DB1EB152F03D0091DB1EB80
:103A9000152F38D1B0EB142F25D0B9EB142F22D02D
:103AA000BAEB142F1FD0BBEB142F1CD0DE490C3106
:103AB000B1EB142F17D0091DB1EB142F13D0091D32
:103AC000B1EB142F0FD0091DB1EB142F0BD0091D32
:103AD000B1EB142F07D0091DB1EB142F03D0091D32
:103AE000B1EB142F0FD107212846FDF714FA072157
:103AF0002046FDF710FACDE90076B0EE480A202105
:103B0000149B0A9A6DE0B0EB152F2DD0B9EB152F51
:103B10002AD0BAEB152F27D0BBEB152F24D0C24BE0
:103B20000C33B3EB152F1FD003F1040EBEEB152F92
:103B30001AD00EF10403B3EB152F00E055E013D0BB
:103B400003F1040CBCEB152F0ED00CF10408B8EBFC
:103B5000152F09D008F10408B8EB152F04D008F18F
:103B60000408B8EB152F0BD107212846FDF7D3F930
:103B7000CDE90076B0EE480A7221149B0A9A30E033
:103B8000B0EB142F22D0B9EB142F1FD0BAEB142FA7
:103B90001CD0BBEB142F19D0A3480C30B0EB142F62
:103BA00014D0BEEB142F11D0B3EB142F0ED0BCEBFE
:103BB000142F0BD09C481C30B0EB142F06D0001DE6
:103BC000B0EB142F02D0B8EB142F76D1072120468A
:103BD000FDF7A1F9CDE90076149B0A9AB0EE480AE8
:103BE0007421904800F018FED8E001468F488142C9
:103BF0007DD18D48001FB0EB152F25D0B9EB152FC7
:103C000022D0BAEB152F1FD0BBEB152F1CD0864945
:103C10000C31B1EB152F17D0091DB1EB152F13D0B7
:103C2000091DB1EB152F0FD0091DB1EB152F0BD0CE
:103C3000091DB1EB152F07D0091DB1EB152F03D0CE
:103C4000091DB1EB152F39D1B0EB142F25D0B9EBED
:103C5000142F22D0BAEB142F1FD0BBEB142F1CD083
:103C600071490C31B1EB142F17D0091DB1EB142F92
:103C700013D0091DB1EB142F0FD0091DB1EB142F78
:103C80000BD0091DB1EB142F07D0091DB1EB142F78
:103C900003D0091DB1EB142F10D107212846FDF7E1
:103CA0003AF907212046FDF736F9CDE90076B0EE66
:103CB000480A2021149B0A9A6CE0FDE3B0EB152F13
:103CC0002DD0B9EB152F2AD0BAEB152F27D0BBEB8F
:103CD000152F24D0544A0C32B2EB152F1FD002F10D
:103CE000040EBEEB152F1AD00EF1040300E055E0D0
:103CF000B3EB152F13D003F1040CBCEB152F0ED032
:103D00000CF10408B8EB152F09D008F10408B8EB42
:103D1000152F04D008F10408B8EB152F0BD107219B
:103D20002846FDF7F8F8CDE90076B0EE480A722192
:103D3000149B0A9A2EE0B0EB142F20D0B9EB142F6D
:103D40001DD0BAEB142F1AD0BBEB142F17D0B2EB47
:103D5000142F14D0BEEB142F11D0B3EB142F0ED0B0
:103D6000BCEB142F0BD030481C30B0EB142F06D016
:103D7000001DB0EB142F02D0B8EB142F0DD107218A
:103D80002046FDF7C8F8CDE90076149B0A9AB0EEFC
:103D9000480A7421254800F03FFDE1E024490998D4
:103DA00088427DD12048001FB0EB152F25D0B9EBFC
:103DB000152F22D0BAEB152F1FD0BBEB152F1CD01F
:103DC00019490C31B1EB152F17D0091DB1EB152F87
:103DD00013D0091DB1EB152F0FD0091DB1EB152F15
:103DE0000BD0091DB1EB152F07D0091DB1EB152F15
:103DF00003D0091DB1EB152F41D1B0EB142F2ED0FC
:103E0000B9EB142F2BD0BAEB142F28D0BBEB142F07
:103E100025D005490C31B1EB142F20D0091DB1EB91
:103E2000142F07E00010014004024000004400404D
:103E30000048004013D0091DB1EB142F0FD0091D0D
:103E4000B1EB142F0BD0091DB1EB142F07D0091DB6
:103E5000B1EB142F03D0091DB1EB142F0FD10721A3
:103E60002846FDF758F807212046FDF754F8CDE91C
:103E70000076B0EE480A2021149B0A9A6CE0B0EB61
:103E8000152F2CD0B9EB152F29D0BAEB152F26D032
:103E9000BBEB152F23D0DFF878E4BEEB152F00E045
:103EA0005EE01CD00EF10403B3EB152F17D01B1DE1
:103EB000B3EB152F13D003F1040CBCEB152F0ED070
:103EC0000CF10408B8EB152F09D008F10408B8EB81
:103ED000152F04D008F10408B8EB152F0BD10721DA
:103EE0002846FDF718F8CDE90076B0EE480A7221B1
:103EF000149B0A9A30E0B0EB142F22D0B9EB142FA8
:103F00001FD0BAEB142F1CD0BBEB142F19D0BEEB73
:103F1000142F16D0FE48001DB0EB142F11D0B3EBB8
:103F2000142F0ED0BCEB142F0BD0F9481030B0EB8F
:103F3000142F06D0001DB0EB142F02D0B8EB142FB5
:103F40000DD107212046FCF7E6FFCDE90076149B52
:103F50000A9AB0EE480A7421EE4800F05DFCD6E003
:103F6000ED48099981427CD1E9481038B0EB152F12
:103F700024D0B9EB152F21D0BAEB152F1ED0BBEBF7
:103F8000152F1BD0E249B1EB152F17D0091DB1EB4E
:103F9000152F13D0091DB1EB152F0FD0091DB1EB53
:103FA000152F0BD0091DB1EB152F07D0091DB1EB53
:103FB000152F03D0091DB1EB152F37D1B0EB142FFE
:103FC00024D0B9EB142F21D0BAEB142F1ED0BBEBA9
:103FD000142F1BD0CE49B1EB142F17D0091DB1EB14
:103FE000142F13D0091DB1EB142F0FD0091DB1EB05
:103FF000142F0BD0091DB1EB142F07D0091DB1EB05
:10400000142F03D0091DB1EB142F0FD1082128461E
:10401000FCF781FF08212046FCF77DFFCDE9007603
:10402000B0EE480A2021149B0A9A6CE0B0EB152FE1
:104030002CD0B9EB152F29D0BAEB152F26D0BBEB1E
:10404000152F23D0DFF8C8E2BEEB152F1ED00EF1DE
:104050000403B3EB152F19D01B1DB3EB152F15D08F
:1040600000E054E003F1040CBCEB152F0ED00CF172
:104070000408B8EB152F09D008F10408B8EB152F88
:1040800004D008F10408B8EB152F0BD108212846FD
:10409000FCF741FFCDE90076B0EE480A7221149B8F
:1040A0000A9A30E0B0EB142F22D0B9EB142F1FD0B6
:1040B000BAEB142F1CD0BBEB142F19D0BEEB142F6E
:1040C00016D09348001DB0EB142F11D0B3EB142F72
:1040D0000ED0BCEB142F0BD08D481030B0EB142F4A
:1040E00006D0001DB0EB142F02D0B8EB142F0DD169
:1040F00008212046FCF70FFFCDE90076149B0A9AB1
:10410000B0EE480A7421844800F086FBD6E083486C
:10411000099981427ED17E481038B0EB152F24D00A
:10412000B9EB152F21D0BAEB152F1ED0BBEB152FF5
:104130001BD07749B1EB152F17D0091DB1EB152F07
:1041400013D0091DB1EB152F0FD0091DB1EB152FA1
:104150000BD0091DB1EB152F07D0091DB1EB152FA1
:1041600003D0091DB1EB152F37D1B0EB142F24D09C
:10417000B9EB142F21D0BAEB142F1ED0BBEB142FA8
:104180001BD06349B1EB142F17D0091DB1EB142FCD
:1041900013D0091DB1EB142F0FD0091DB1EB142F53
:1041A0000BD0091DB1EB142F07D0091DB1EB142F53
:1041B00003D0091DB1EB142F0FD108212846FCF7BD
:1041C000AAFE08212046FCF7A6FECDE90076B0EE57
:1041D000480A2021149B0A9A6CE0B0EB152F2CD0D2
:1041E000B9EB152F29D0BAEB152F26D0BBEB152F25
:1041F00023D0DFF81CE1BEEB152F1ED00EF1040317
:10420000B3EB152F19D01B1DB3EB152F15D003F1F0
:10421000040C00E052E0BCEB152F0ED00CF10408AA
:10422000B8EB152F09D008F10408B8EB152F04D00E
:1042300008F10408B8EB152F0BD108212846FCF72C
:104240006AFECDE90076B0EE480A7221149B0A9A04
:1042500030E0B0EB142F22D0B9EB142F1FD0BAEB03
:10426000142F1CD0BBEB142F19D0BEEB142F16D07B
:104270002748001DB0EB142F11D0B3EB142F0ED034
:10428000BCEB142F0BD022481030B0EB142F06D00B
:10429000001DB0EB142F02D0B8EB142F0DD1082164
:1042A0002046FCF738FECDE90076149B0A9AB0EE62
:1042B000480A7421194800F0AFFAE1E0184909985A
:1042C00088427DD112481038B0EB152F2FD0B9EBB2
:1042D000152F2CD0BAEB152F29D0BBEB152F26D0DC
:1042E0000B49B1EB152F22D0091DB1EB152F1ED0B4
:1042F000091DB1EB152F1AD0091DB1EB152F16D0E2
:10430000091DB1EB152F12D0091DB1EB152F09E0D6
:104310001002400000480040004C004000500040A7
:104320000014014003D0091DB1EB152F37D1B0EBBC
:10433000142F24D0B9EB142F21D0BAEB142F1ED098
:10434000BBEB142F1BD0FE49B1EB142F17D0091D66
:10435000B1EB142F13D0091DB1EB142F0FD0091D91
:10436000B1EB142F0BD0091DB1EB142F07D0091D91
:10437000B1EB142F03D0091DB1EB142F0FD108217D
:104380002846FCF7C8FD08212046FCF7C4FDCDE90E
:104390000076B0EE480A2021149B0A9A6CE0B0EB3C
:1043A000152F2CD0B9EB152F29D0BAEB152F26D00D
:1043B000BBEB152F23D0DFF888E3BEEB152F00E011
:1043C0005EE01CD00EF10403B3EB152F17D01B1DBC
:1043D000B3EB152F13D003F1040CBCEB152F0ED04B
:1043E0000CF10408B8EB152F09D008F10408B8EB5C
:1043F000152F04D008F10408B8EB152F0BD10821B4
:104400002846FCF788FDCDE90076B0EE480A722117
:10441000149B0A9A30E0B0EB142F22D0B9EB142F82
:104420001FD0BAEB142F1CD0BBEB142F19D0BEEB4E
:10443000142F16D0C248001DB0EB142F11D0B3EBCF
:10444000142F0ED0BCEB142F0BD0BD481030B0EBA6
:10445000142F06D0001DB0EB142F02D0B8EB142F90
:104460000DD108212046FCF756FDCDE90076149BBE
:104470000A9AB0EE480A7421B24800F0CDF9D3E0B0
:10448000B148099981427DD1AD481038B0EB152F64
:1044900026D0B9EB152F23D0BAEB152F20D0BBEBCC
:1044A000152F1DD0A649B1EB152F19D0091DB1EB61
:1044B000152F15D0091D00E01CE1B1EB152F0FD011
:1044C000091DB1EB152F0BD0091DB1EB152F07D02E
:1044D000091DB1EB152F03D0091DB1EB152F37D1F5
:1044E000B0EB142F24D0B9EB142F21D0BAEB142F3A
:1044F0001ED0BBEB142F1BD09149B1EB142F17D05A
:10450000091DB1EB142F13D0091DB1EB142F0FD0DF
:10451000091DB1EB142F0BD0091DB1EB142F07D0DF
:10452000091DB1EB142F03D0091DB1EB142F0FD1CE
:1045300008212846FCF7EFFC08212046FCF7EBFC9D
:10454000CDE90076B0EE480A2021149B0A9A69E072
:104550008646B0EB152F2BD0B9EB152F28D0BAEB30
:10456000152F25D05846BBEB152F21D07449B1EB40
:10457000152F1DD00A1DB2EB152F19D0131DB3EB4B
:10458000152F00E050E013D003F1040CBCEB152F05
:104590000ED00CF10408B8EB152F09D008F1040B6C
:1045A000BBEB152F04D00BF10408B8EB152F0BD182
:1045B00008212846FCF7AFFCCDE90076B0EE480AAA
:1045C0007221149B0A9A2DE0BEEB142F1FD0B9EB79
:1045D000142F1CD0BAEB142F19D0B0EB142F16D017
:1045E000B1EB142F13D0B2EB142F10D0B3EB142F68
:1045F0000DD0BCEB142F0AD051481030B0EB142F63
:1046000005D0BBEB142F02D0B8EB142F72D10821C8
:104610002046FCF780FCCDE90076149B0A9AB0EEA8
:10462000480A74214848A9E048480999814261D163
:1046300043481038B0EB152F24D0B9EB152F21D0FB
:10464000BAEB152F1ED0BBEB152F1BD03C49B1EB9D
:10465000152F17D0091DB1EB152F13D0091DB1EB84
:10466000152F0FD0091DB1EB152F0BD0091DB1EB84
:10467000152F07D0091DB1EB152F03D0091DB1EB84
:10468000152F38D1B0EB142F24D0B9EB142F21D033
:10469000BAEB142F1ED0BBEB142F1BD02849B1EB63
:1046A000142F17D0091DB1EB142F13D0091DB1EB36
:1046B000142F0FD0091DB1EB142F0BD0091DB1EB36
:1046C000142F07D0091DB1EB142F03D0091DB1EB36
:1046D000142F10D108212846FCF71DFC0821204684
:1046E000FCF719FCCDE90076B0EE480A2021149BB6
:1046F0000A9A42E044E08646B0EB152F32D0B9EB7F
:10470000152F2FD0BAEB152F2CD05846BBEB152FF9
:1047100028D00B49B1EB152F24D00A1DB2EB152F71
:1047200020D0131DB3EB152F1CD003F1040CBCEBF0
:10473000152F17D00CF1040BBBEB152F12D007E08F
:10474000100240000014014000780040007C00404E
:104750000BF10408B8EB152F04D008F10408B8EBEE
:10476000152F13D108212846FCF7D5FBCDE900769B
:10477000149B0A9AB0EE480A72211B4800F04CF8CC
:1047800003B0BDEC028B06B0BDE8F08FBEEB142F7A
:104790001ED0B9EB142F1BD0BAEB142F18D0B0EBEE
:1047A000142F15D0B1EB142F12D0B2EB142F0FD061
:1047B000B3EB142F0CD0BCEB142F09D0BBEB142F90
:1047C00006D00A48B0EB142F02D0B8EB142FD7D183
:1047D00008212046FCF79FFBCDE90076B0EE480AA1
:1047E0007421149B0A9AC8E7007C00402402400010
:1047F000C943018070470A0A01219140C9430180E1
:1048000070470029818902D041F4005101E021F470
:1048100000518181704700002DE9FF4F0E462DEDBC
:10482000020B0446584A59485949DFF86881DFF8B5
:104830006891DFF868A1DFF868B194422DED028B32
:1048400085B0B0EE408ADDE9167504D10121102053
:10485000FEF7E2FA2EE0844204D101214804FEF77B
:10486000CFFA06E08C4204D101218804FEF7C8FA91
:1048700006E0444504D10121C804FEF7C1FA06E070
:104880004C4504D101210805FEF7BAFA06E054456B
:1048900004D101212020FEF7BFFA04E05C4502D1DB
:1048A0000121880704E03F48844203D101214005EB
:1048B000FEF7A6FA722E3BD0522E39D0742E39D084
:1048C000542E37D05FF00C00ADF80A000B98009022
:1048D0000C9A00204FF48051092A2DD0ADF8040025
:1048E0006F2F2CD04F2F2AD0652F2BD0452F29D0BA
:1048F000ADF8080018EE102AB2F17C5F2CD018EE4B
:10490000101AB1F17F5F22D018EE101AB1F1804F6A
:1049100020D0ADF80600722D21D0522D1FD0632D6E
:1049200020D0432D1ED0612D1FD0412D1DD01EE063
:104930000420C9E70820C7E7ADF80410D0E74FF41A
:10494000C06201E04FF48062ADF80820D2E74FF476
:10495000405101E04FF40051ADF80610DBE74FF491
:10496000807004E04FF4007001E04FF44070ADF847
:104970000C006946204600F05DF805B0BDEC028BE6
:1049800006B0BDE8F08F0000001001400044004078
:1049900000480040004C004000500040001401401E
:1049A00000780040007C0040002A828A01D00A433F
:1049B00000E08A43828270470246002012880A4241
:1049C00000D00120704730B501F01F0201240025FE
:1049D000C1F3421304FA02F2012B0FD0022B0FD0C5
:1049E000838A4FEA11210088134204FA01F400EA95
:1049F000040001D000B10125284630BD8389F0E7CD
:104A0000038AEEE710B5C1F3421301F01F04012140
:104A1000A140012B07D0022B07D01430002A0268D6
:104A200005D00A4304E00C30F8E71030F6E78A437B
:104A3000026010BD7FB50446008A0D4620F4405147
:104A4000E88808432082A08941F20C618843A98844
:104A50002A8911436A8902431143A181A08A20F463
:104A60004071A8890843A0826846FEF7E1F91A4818
:104A7000844202D01948844201D1039800E0029890
:104A8000A189090400EBC00101EB0010296801D5E0
:104A9000490000E08900B0FBF1F26420B2FBF0F1C4
:104AA00009010B096FF018056B4302EB8302A38920
:104AB0001D044FF0320306D503EBC202B2FBF0F047
:104AC00000F0070005E003EB0212B2FBF0F000F08B
:104AD0000F00084320817FBD0010014000140140F9
:104AE0008088C0F308007047C1F3080181807047D7
:104AF000FEE70000024A002142F820107047000043
:104B0000CC00002003490968884301D00020704789
:104B100001207047C8000020836843600A68C97894
:104B200012BA22F0FF020A4382600188642902D28D
:104B3000491CC2600180D11A00EE101AF2EE040A7C
:104B40000161B8EEC00A20EE200ADFED120A80ED06
:104B5000060A00EE101AB8EEC00A20EE200ADFEDB9
:104B60000E0A80ED070AC168511A00EE101A416161
:104B7000B8EEC00A20EE200ADFED080A80ED080A30
:104B800000EE101AB8EEC00A20EE200A80ED090AE5
:104B900070470000DB0F493A0AD7233CD20237396D
:104BA0000021018041608160C1609FED060A0161C2
:104BB00080ED060A80ED070A416180ED080A80ED6C
:104BC000090A70470000000002E008C8121F08C16F
:104BD000002AFAD170477047002001E001C1121F7E
:104BE000002AFBD17047000030B5354C2DED048B09
:104BF00081B020889FED338A00EE100ADFED328A03
:104C00009FED329ADFED329AB8EE400AB0EE482AB4
:104C1000F0EE681AB0EE491AF0EE690A00F071F889
:104C20002C4DB0EE482AF0EE681A85ED000A608837
:104C3000B0EE491A00EE100AF0EE690AB8EE400A2A
:104C400000F05FF885ED010AA088B0EE482A00EE7A
:104C5000100AF0EE681AB0EE491AB8EE400AF0EE0B
:104C6000690A00F04EF885ED020A05F10C012846AC
:104C7000FCF764FC05F10C0090ED030ABDEEC00AE0
:104C800010EE101A09B2009190ED020ABDEEC00AB2
:104C900010EE101A90ED010A0BB2BDEEC00A10EE34
:104CA000101A90ED000A0AB2BDEEC00A10EE100A0A
:104CB00001B20948FBF722FE01B0BDEC048B30BD08
:104CC000DC0300200000FA430000FAC30080D24455
:104CD0000000B6430C0100200064004000F01EF804
:104CE000FCF75CF8FCF7A6FBFBF72EFFFBF7A4FE36
:104CF000FBF79CFAFEF7EEFCFFF776FFFBF716FFDB
:104D0000FAE730EE600A32EE612A31EE601A20EEE8
:104D1000020AC0EE010A30EEA10A70479FED060AB2
:104D2000DFED031A9FED031AF0EE400AFCF700BC1A
:104D3000295C8F3DBC74133C0AD7233E5C4D0008B0
:104D4000000000200C010000C84B0008684E00085D
:104D50000C010020640E0000D84B00080000000089
:104D600007010701FC010000000000000000000036
:104D70000000000000000000000000000000000033
:104D800000000000000000000000000000000040E3
:104D90000AD7A33C00005C430000000000000000B4
:104DA000000000000020994500C05A450080BB4427
:104DB00000B09A45A00F0000000080400000804035
:104DC0000000C0400000000000000000C3F5283EC5
:104DD0000AD7233EBC74133C295C8F3D00F8FF4585
:104DE00000000000000000000080D44400007A446D
:104DF0000080A2440000000000000000000000004D
:104E000000000000000000000000000000000000A2
:104E10000000000000000000000000000000000092
:104E200000000000FFFFFFFF6400000064000000BE
:104E300064000000640000006400000064000000E2
:104E400064000000640000006400000064000000D2
:104E50006400000064000000000000000102030480
:084E6000010203040607080922
:04000005080001AD41
:00000001FF
