:020000040800F2
:10000000B8280020950200089D0200089F02000801
:10001000A1020008A3020008A502000800000000D9
:10002000000000000000000000000000A70200081F
:10003000A902000800000000AB020008AD020008A1
:10004000AF020008AF020008AF020008AF020008CC
:10005000AF020008AF020008AF020008AF020008BC
:10006000AF020008AF020008AF020008AF020008AC
:10007000AF020008AF020008AF020008AF0200089C
:10008000AF020008AF020008AF020008D109000863
:100090008D090008AF020008AF020008AF02000897
:1000A000AF020008AF020008AF020008AF0200086C
:1000B000C12C0008AF020008AF020008AF02000820
:1000C000AF020008AF020008AF020008AF0200084C
:1000D000AF02000829300008A5300008AF02000870
:1000E00021160008AF020008AF020008AF020008A6
:1000F000AF020008AF020008AF020008AF0200081C
:10010000AF020008AF020008AF020008AF0200080B
:10011000AF020008AF020008ED2C0008AF02000893
:10012000AF020008AF020008AF020008AF020008EB
:10013000AF020008AF020008AF020008390A000849
:10014000F5090008AF020008AF020008AF0200087E
:10015000AF020008AF020008AF0200083D310008FE
:10016000AF020008AF020008AF020008AF020008AB
:10017000AF020008AF020008AF0200080000000054
:10018000AF020008AF020008AF020008AF0200088B
:10019000AF020008AF020008AF020008AF0200087B
:1001A0000000000000000000AF02000800F002F8AC
:1001B00000F060F80AA090E8000C82448344AAF1A1
:1001C0000107DA4501D100F055F8AFF2090EBAE89F
:1001D0000F0013F0010F18BFFB1A43F0010318477B
:1001E0003C4300005C4300000A444FF0000C10F850
:1001F000013B13F0070408BF10F8014B1D1108BFA5
:1002000010F8015B641E05D010F8016B641E01F844
:10021000016BF9D113F0080F1EBF10F8014BAD1C94
:100220000C1B09D16D1E58BF01F801CBFAD505E0B2
:1002300014F8016B01F8016B6D1EF9D59142D6D30C
:10024000704700000023002400250026103A28BF34
:1002500078C1FBD8520728BF30C148BF0B60704738
:100260001FB504F040F99DE8030000F055F91FBDEB
:1002700010B510BD00F0DEF91146FFF7F1FF04F0F4
:10028000FFF800F0FCF903B4FFF7F2FF03BC00F045
:100290002DFA00000948804709480047FEE7FEE7BD
:1002A000FEE7FEE7FEE7FEE7FEE7FEE7FEE7FEE726
:1002B00004480549054A064B70470000652C0008B4
:1002C000AD010008B8140020B8280020B824002090
:1002D000B824002070B5064600F002F9056806F162
:1002E0000B0020F00704B4429CBF002070BD2B46D9
:1002F0006A68BAB11068A04210D304F108018842BC
:100300003CBF5068586007D35168101941601168AC
:10031000091B016058601460101D70BD13465268BF
:10032000002AE7D12146284600F0E2F80028DED175
:1003300070BD70B50446051F00F0D2F80068002CAF
:1003400014BF446870BD002C18BFAC423CBF2046AF
:100350006468F8D301680A18AA4218BF456003D13F
:100360002A6805461144016028684119A1421CBF52
:100370006C6070BD6168696021680844286070BD68
:1003800010B5431C02E010F8011B71B18107FAD1CE
:100390004FF0013202C88C1A8C4314EAC211F9D012
:1003A000C01A0A0603D0C01E10BDC01A10BD0A0430
:1003B00001D0801E10BD0902FCD0401E10BD032AD2
:1003C00040F2308010F0030C00F0158011F8013B72
:1003D000BCF1020F624498BF11F801CB00F8013B59
:1003E00038BF11F8013BA2F1040298BF00F801CB1D
:1003F00038BF00F8013B11F0030300F0C380083A56
:10040000C0F0088051F8043B083A51F804CBA0E84A
:100410000810F5E7121D5CBF51F8043B40F8043B9F
:10042000AFF30080D20724BF11F8013B11F801CBD4
:1004300048BF11F8012B24BF00F8013B00F801CBA5
:1004400048BF00F8012B70474FF000020429C0F0AC
:10045000128010F0030C00F01B80CCF1040CBCF1F6
:10046000020F18BF00F8012BA8BF20F8022BA1EB48
:100470000C0100F00DB85FEAC17C24BF00F8012B2D
:1004800000F8012B48BF00F8012B70474FF0000225
:1004900000B5134694469646203922BFA0E80C507A
:1004A000A0E80C50B1F12001BFF4F7AF090728BF55
:1004B000A0E80C5048BF0CC05DF804EB890028BFD1
:1004C00040F8042B08BF704748BF20F8022B11F0FA
:1004D000804F18BF00F8012B704770477047704776
:1004E000004870475C1400207047704770477047A1
:1004F00038B504460A4600206946AFF3008000285C
:1005000008BF38BD02460099204600F071F801206E
:1005100038BD012000F086B8F8B5AFF3008005467D
:1005200000200C46102000BF0646A819A0420DD995
:10053000324669460020AFF30080070008BF00F094
:1005400071F80098A04218BF0546C419FFF7C8FF0C
:1005500005600746F01D20F007004619284600F008
:100560000AF8B44208BFF8BDA21B31463868BDE89E
:10057000F84000F03DB800210160C0E9011070476B
:100580001020704710B5203AC0F00B80B1E8185029
:10059000203AA0E81850B1E81850A0E81850BFF46D
:1005A000F5AF5FEA027C24BFB1E81850A0E818500C
:1005B00044BF18C918C0BDE810405FEA827C24BF60
:1005C00051F8043B40F8043B08BF7047D20728BFEE
:1005D00031F8023B48BF11F8012B28BF20F8023B3D
:1005E00048BF00F8012B70470048704754140020A2
:1005F000034640688C46002818BF88423CBF03462B
:100600004068F8D318681844884207D00CF10300FA
:1006100020F00700001D411A521A0146081D0A6009
:10062000FFF787BE10B500F039F8BDE8104000F0C4
:100630002FB870477546FFF7D7FFAE4605006946ED
:10064000534620F00700854618B020B5FFF730FE6E
:10065000BDE820404FF000064FF000074FF00008C3
:100660004FF0000B21F00701AC46ACE8C009ACE844
:10067000C009ACE8C009ACE8C0098D46704710B5A8
:100680000446AFF300802046BDE81040FFF7FBBDF5
:10069000002801D000F02AB87047000010B50128EA
:1006A00005D0002103A000F027F8012010BD09A10A
:1006B000F8E7000053494752544D454D3A204F75D5
:1006C00074206F662068656170206D656D6F72794A
:1006D000000000003A2048656170206D656D6F7202
:1006E0007920636F72727570746564000149182017
:1006F000ABBEFEE72600020070B505460C460A2098
:1007000000E06D1C00F011F835B128780028F8D110
:1007100002E0641C00F009F814B120780028F8D138
:10072000BDE870400A20AFF3008008B569468DF837
:1007300000000320ABBE08BD38B50020074C0346BF
:10074000024601460090204600F0FEFB2046BDE830
:1007500038400022114601F069BA000000640040F0
:1007600008B501211E4801F0C2F902001D484FF4EE
:10077000804102D001F095FB01E001F094FB0221E1
:10078000174801F0B4F9010017484FF0800102D07A
:1007900001F087FB01E001F086FB144890ED030AAD
:1007A000BDEEC00A10EE101A09B2009190ED020AD7
:1007B000BDEEC00A10EE101A90ED010A0BB2BDEEAC
:1007C000C00A10EE101A90ED000A0AB2BDEEC00A7F
:1007D00010EE100A01B2064800F0B6FB08BD00009A
:1007E0001C0100200014024000100240800E002076
:1007F0000064004010B5FFF79FFF00F04BFD00F0D4
:1008000063FD00F0D9FD00F0D9FD01F009FD01F014
:10081000EFFE02F085F903F0BDFDBDE8104003F0E6
:1008200063BD10B503F0D6FD01F0FAFC03F064FDE2
:10083000BDE8104003F034BD10B54FF4A06001F0E6
:10084000CDFE00F02BF80DA000F060F800F090F85D
:1008500001F028FD02F0ACFB02F099FB00F0A0FBD8
:1008600000F0D8FB02F0D2F802F098FBBDE810408F
:100870004FF48041074801F014BB000048656C6CE0
:100880006F2066726F6D204B796C696E626F742E8B
:100890000A0000000014024000F042B83EB54E20AD
:1008A0000821CDE90010154C15490290B7EE000A59
:1008B0004FF416532246481C02F08CFC012240F2F1
:1008C0002551204603F075FC02221146262001F036
:1008D00045FE0C49A5152A46A1F1280001F013F8A0
:1008E00009492A46A1F58A7001F00DF803B02046A7
:1008F000BDE83040012103F063BB0000004400402C
:10090000050C0240E40F0020E410002010B504465E
:10091000FFF736FD01462046BDE8104000F003B861
:10092000022003F02FBD70B50D460646002404E0FA
:10093000305D00F005F8641CE4B2AC42F8D370BD41
:1009400001B5084800F0E9FF0028FAD10122694604
:10095000044801F004F8012240F22771024803F034
:1009600028FC08BDD00F0020004400407047000064
:1009700010B50C21044800F063FE0222BDE81040CF
:100980001146282001F0EABD0A0C024010B50E4CB9
:1009900086B00221204600F06DF9002811D0042114
:1009A000204600F073F80949204600F057F86A46DF
:1009B0000021204600F02EFA0DF10B01009800F006
:1009C000EDFA06B010BD00000064004008000032DF
:1009D00010B5074C0121204600F04CF9002805D045
:1009E0002046BDE81040012100F050B810BD0000C5
:1009F0000064004010B50E4C86B00221204600F085
:100A000039F9002811D00221204600F03FF80949A9
:100A1000204600F023F86A460021204600F0FAF94B
:100A20000DF10B01009800F0F3FA06B010BD0000C4
:100A3000006800400800003210B5074C0121204634
:100A400000F018F9002805D02046BDE8104001212B
:100A500000F01CB810BD0000006800400A4A914236
:100A600002D1002181617047C1F313028B0101D5CE
:100A7000C26070474B0101D502617047090101D581
:100A800082607047426070477000F03030B50823D4
:100A900010240422B1F5007F1DD010DC202929D0BC
:100AA00007DC012921D0042922D0082900D1C46003
:100AB00030BD402920D0B1F5807FF9D10BE0002571
:100AC000B1F5004F06D008DCB1F5806F03D0B1F569
:100AD000006FEDD18561426030BDB1F5803F0DD032
:100AE000B1F5003FF8D1446030BD0549816030BDAB
:100AF000C36030BD036130BD046130BD436030BDB3
:100B0000010101002DE9FE430F460446DDE90A8993
:100B1000154916481D4616468C4202D10121480649
:100B200003E0844203D10121880601F0A3FE0021E5
:100B30008DF804808DF808108DF805908DF80A1056
:100B4000ADF800708DF8061001208DF802608DF868
:100B500007108DF80B008DF803506946204600F011
:100B6000E5F8BDE8FE830000006400400068004036
:100B7000F0B5827A012191402E4A136843F00103B7
:100B800013602C4B1C331C688C431C60294D067B66
:100B9000294C0C35A6B92E688E432E604688C7882E
:100BA00046EA0746877A04EBC707C7F84066068817
:100BB000878846EA0746877A04EBC707C7F8446682
:100BC000067B012E12D12E680E432E60867A0568B0
:100BD00004EBC6064FEA3545C6F84056867A4568A6
:100BE00004EBC6044FEA3545C4F84456114CC57AA7
:100BF000241D002D256806D00D4325600D4C058968
:100C0000143415B104E08D43F7E725688D43256062
:100C10000589012D02D125680D432560407B0128FF
:100C200002D1186808431860106820F001001060B5
:100C3000F0BD000000660040006000407FB5DDE9C7
:100C40000845ADF80000ADF808408DF80A500020C6
:100C50008DF80B0001208DF80C00ADF804208DF804
:100C60000D00ADF80210ADF806306846FFF780FFC2
:100C70007FBD00000246002053690B424AD0B1F507
:100C8000807F3BD013DC08292ED007DC012926D039
:100C9000022927D004293DD1D0682BE0102925D086
:100CA000202926D0402935D11069102130E0B1F536
:100CB000004F2BD00BDCB1F5007F22D0B1F5806F57
:100CC00022D0B1F5006F25D19069702120E0B1F5F7
:100CD000803F11D0B1F5003F1CD15068E5E7906826
:100CE0000D4915E0D06802E0D068DEE71069032105
:100CF0000EE0106908210BE05068FBE790690121C4
:100D000006E09069022103E0906900E05068042148
:100D100000F0B4BA7047000001010100002A4269E6
:100D200001D00A4300E08A434261704710B503686E
:100D3000002223F002030360036843F00103036011
:100D40004FF6FF7300E0521C4468E40701D19A4259
:100D5000F9D14268D2073ED08A79012A02683CD094
:100D600022F080020260CA79012A026838D022F09B
:100D7000400202600A7A012A026834D022F020027E
:100D800002604A7A012A026830D022F01002026022
:100D90008A7A012A02682CD022F008020260CA7AFC
:100DA000012A026828D022F0040202608A78CC78F6
:100DB000920742EA04620C7942EA04424C790988BB
:100DC00042EA0452491E0A43C261016821F001014E
:100DD0000160002114E0002010BD42F08002C1E754
:100DE00042F04002C5E742F02002C9E742F010029B
:100DF000CDE742F00802D1E742F00402D5E7491CF2
:100E00004268D20701D09942F9D14068C007E2D1C7
:100E1000012010BD10B500EB0113D3F8B04114F060
:100E200004041472D3F8B04134D0E408C2F804408A
:100E3000D3F8B04104F002045472D3F8B44104F082
:100E40000F049472D3F8B441240AD474D3F8B8418F
:100E5000D472D3F8B841240A1473D3F8B841240CDF
:100E60005473D3F8B841240E9473D3F8BC41D473AF
:100E7000D3F8BC41240A1474D3F8BC41240C547434
:100E8000D3F8BC311B0E937439B1016941F02001D4
:100E9000016110BD640D1460CAE7C16841F0200112
:100EA000C16010BD30B50246002093685B0108D4D4
:100EB0009068000101D5012003E09068C00037D59B
:100EC000022002EB0012D2F8803103F00103C2F8D5
:100ED00080310B7A73B3D2F880414D681C434B7A52
:100EE00043EAC5031C43C2F880418B7A03F00F0329
:100EF0008B72D2F8843123F00F03C2F88431D2F818
:100F000084318C7A2343C2F88431CB7ACC6843EAAB
:100F10000423C2F88831CB7B096943EA0121C2F876
:100F20008C11D2F8801141F00101C2F8801130BD5E
:100F3000042030BDD2F880314C7A23430C8843EA38
:100F40004453C2F88031D0E730B585B04FF4007516
:100F5000009500258DF808508DF8095008258DF86A
:100F60000A50089C0D0A8DF80C10110A8DF80D100E
:100F70008DF80E20190A8DF80F108DF81030210A07
:100F80008DF811108DF80B508DF812406946FFF75F
:100F900089FF05B030BD80EC030A704700F0B6B899
:100FA0001CB50921184800F065FE17480921401CAE
:100FB00000F060FE00220121142001F0CFFA02228D
:100FC0001146132001F0CAFA032108200F4CCDE985
:100FD0000001002301222046FFF794FD002100912B
:100FE0000B460A4608460191FFF728FE012202211E
:100FF0002046FFF793FE02B020460122BDE81040D4
:101000001146FFF78BBE0000000C02400064004058
:1010100000F07CB81CB50921184800F02BFE1748D9
:101020000921401C00F026FE00220121402001F091
:1010300095FA022211463F2001F090FA0321082080
:101040000F4CCDE90001002301222046FFF75AFD95
:1010500000200E21CDE90001034602460146FFF7BC
:10106000EDFD012202212046FFF758FE02B0204686
:101070000122BDE810401146FFF750BE0C040240AB
:10108000006800402DE9F047DFF8749000242DED52
:10109000028B09F51667DFED1B8A9FED1B8A07F1AE
:1010A000C00807F5A87A00BF04EBC40000EB0411E8
:1010B00007EB441609EB01116422304600F0F9FEFB
:1010C000F0EE680A04EB440108EBC105F0EE601A8B
:1010D000B0EE601AB0EE480A284600F06FFB04EB51
:1010E00084032A4631460AEB830000F0A6FB641C09
:1010F000E4B2062CD8D3BDEC028BBDE8F08700002B
:101100009C02002000000000CDCCCC3D10B50C4668
:10111000B0F5017F2BD00DDCA0F5007001381AD09E
:1011200001281ED0022837D1072003F02BF92146D1
:1011300002202DE0A0F5007005381ED0012822D035
:10114000B0F5FE7F28D1042003F01CF92046BDE84D
:10115000104003F061B9052003F014F92146002086
:1011600016E0062003F00EF92146012010E00820C9
:1011700003F008F9214603200AE0092003F002F9F0
:101180002146042004E00A2003F0FCF82146052053
:10119000BDE8104001F068B910BD00000149496880
:1011A000084070470000002010B50120FFF7F6FF4F
:1011B000002804D0BDE81040014800F003B810BD7D
:1011C000000000204FF4887100F028BD70B5274C56
:1011D000274D28482DED028BD4ED000A95ED000A2D
:1011E00001F0C2FAB0EE408A234801F0F6FB214E2E
:1011F00028EE000AA036A6F1780086ED000AD4EDAC
:10120000010A95ED010A01F0AFFA1B48B0EE408AE1
:10121000083001F0E2FB28EE000AA6F1500086ED4E
:10122000010AD4ED020A95ED020A01F09DFA124876
:10123000B0EE408A103001F0D0FB28EE000AA6F193
:10124000280086ED020AD4ED030A95ED030A01F0A9
:101250008BFA0948B0EE408A183001F0BEFB28EE48
:10126000000A86ED030ABDEC028B70BD840F0020DE
:10127000D00D0020E00D00202001002002460020BB
:101280000A4200D0012070470148406870470000C2
:1012900010010020024800210160416070470000F9
:1012A0001001002007484FF47A720168491CB1FB15
:1012B000F2F3016002FB1311002902D14168491CBD
:1012C000416070471001002010B52DED028B00F039
:1012D000E9F803210E4800F006FC9FED0E8A0E4847
:1012E000B0EE481AF0EE480AB0EE480AFFF753FE97
:1012F000F0EE481AB0EE481AF0EE480AB0EE480A8E
:10130000BDEC028B0448BDE810400C3001F018B869
:101310001801002000000000C40D002010B500F0EE
:10132000CDF823482349D0ED000A91ED390AF4EEB7
:10133000C00AF1EE10FA02DDF0EE400A08E0B1EE6C
:10134000401AF4EEC10AF1EE10FA01D2F0EE410AB1
:10135000C0ED000A90ED011AB4EEC01AF1EE10FAD9
:1013600002DDF0EE400A08E0F1EE400AB4EEE01AC9
:10137000F1EE10FA01D3F0EE410AC0ED010AD0ED12
:10138000020AF4EEC00AF1EE10FA08DCB1EE400AEF
:10139000F4EEC00AF1EE10FA01D3B0EE600A80ED6F
:1013A000020A0349BDE810400C31014800F0CCBFEF
:1013B000C40D0020000000207047000010B503217C
:1013C000174800F090FB9FED170A1748F0EE401AFF
:1013D000B0EE401AF0EE400A00F0B2FF1248A0381A
:1013E00001F032FA1048783801F02EFA0E485038E1
:1013F00001F02AFA0C48283801F026FA0848001DA6
:1014000001F0FFFA06480C3001F0FBFA04481430F2
:1014100001F0F7FA0248BDE810401C3001F0F1BAC3
:101420001C01002000000000800E002010B50121EA
:101430000F4800F05CFB00280E484FF0010102D07D
:1014400000F058FB01E000F04EFB0221084800F0DC
:101450004EFB002807484FF0020102D000F04AFB83
:1014600001E000F040FBBDE81040FFF7AFBE000018
:10147000180100201C01002070B50D46044601F043
:1014800071FAA91D04F10A00BDE8704000F0A7BE82
:1014900010B5044601F08EFA04F10A00BDE81040D0
:1014A00000F0ACBE10B501F047FA00F063FEBDE8F5
:1014B00010400148FFF7ECBFA20E0020104910B504
:1014C00001F11200FFF7D8FF0D48123000F032FE94
:1014D0000B48123000F01CFE0A484078012807D063
:1014E00003280BD10648BDE810401C3000F06EBE4A
:1014F0000348BDE81040123001F032BA10BD0000C0
:10150000900E0020580100200029016802D041F00F
:10151000010101E021F00101016070472DE9F04374
:101520008FB00446DDE9168916481D4616460F465B
:10153000A04303D10121480501F090F91248A043CE
:1015400003D10121880501F089F900214FF4806061
:10155000CDE905108010CDE908104FF44030079117
:10156000CDE90A010C910D910E9102AA694682E81B
:101570002003CDE90076204600F028F80FB0BDE842
:10158000F08300000060024000640240002901680E
:1015900002D041F4802101E021F4802101607047F4
:1015A000002A026802D042F4002201E022F4002264
:1015B000026001617047406880B2704701460020B8
:1015C0000968090300D501207047000030B50368A1
:1015D000124ACC6813400A682243D1E905452C43DE
:1015E0002243CC6922430C6A22434C6A22438C6A10
:1015F00022434C6B22438C6B22431A4302604269A4
:1016000022F00703D1E90B2422431A4342610A69FD
:1016100042604A6882608968C16030BD3F801CF0CA
:1016200010B54FF48064204600F086F8002806D0FC
:10163000204600F067F8BDE81040FFF797B910BDED
:101640002DE9F04104462E488846B0EB142F01D115
:1016500000263FE02A48001DB0EB142F01D10126DF
:1016600038E027480830B0EB142F01D1022631E0D2
:1016700023480C30B0EB142F01D103262AE0204878
:101680001030B0EB142F01D1042623E01C48143095
:10169000B0EB142F01D105261CE019481830B0EB2F
:1016A000142F01D1062615E015481C30B0EB142F7D
:1016B00001D107260EE012482030B0EB142F01D1E3
:1016C000082607E00E482430B0EB142F01D109267C
:1016D00000E00A2604F00F050127AF40012188032E
:1016E00001F0D4F8204600F063FB2946304601F0B3
:1016F000E5F942463846BDE8F041002100F008B85F
:10170000000240000149086070470000143C01409D
:101710007CB50D46064601211446880301F0B6F853
:101720008DF804508DF8054001208DF806000096D4
:10173000684600F00BF87CBD034A014600201268A1
:101740000A4200D001207047143C014030B51A49CC
:101750008379026853B30B6893430B600A1D1368C7
:101760000468A343136002790A441368046823439E
:101770001360114A083213680468A3431360131DF1
:101780001C680568AC431C604479102C05D02144CA
:101790000A68006802430A6030BD1168046821438A
:1017A0001160196800680143196030BD0079084470
:1017B00001689143016030BD003C014080EC040AA7
:1017C0007047D0ED020A90ED031AD0ED001A30EE0A
:1017D000811AD0ED050A70EEA10AD0ED011A30EEA3
:1017E000410A30EEA12AC0EE821AC0ED041A20EEA2
:1017F000210A80ED030A31EE000A20EEA01A80EDE6
:10180000020A41EE610AC0ED050A70479FED050A24
:1018100080ED020A80ED030A80ED040A80ED050ADE
:10182000704700000000000080ED030A704780ED63
:10183000020A704780ED010A7047C0E9001200F00B
:101840003FB810B5D0ED020A0446F5EEC00AF1EE3D
:1018500010FA29DD206800F030FB2068D4ED020A80
:1018600090ED070AB4EEE00AF1EE10FA12D284ED20
:10187000020A90ED050A6068FFF7DCFF206890ED32
:10188000030A6068FFF7D3FF206890ED040A6068E0
:10189000FFF7CAFF206890ED030A84ED030A90ED7C
:1018A000040A84ED040A10BD6068FFF78AFF6068CF
:1018B00090ED020A84ED030A90ED030AF1E70000BF
:1018C00010B50446006800F035FB6068FFF79EFF26
:1018D0009FED050A84ED020A9FED040A84ED030AD8
:1018E00084ED040A10BD0000FFFF7F7F00000000B0
:1018F00010B50446D4E90001FEF7A6FD0020A06063
:10190000E060206110BDC0E90012FFF7F1BF00697F
:1019100008B100207047012070470169406881428A
:1019200001D10120704700207047F0B500231D460B
:101930000EE084680768661C86603C5DCC54D0E984
:101940000146A64200D185600469641E5B1C0461E7
:10195000934202D20469002CEBD11846F0BDF0B5D9
:1019600000231D4610E0C4680768CE5C04F1010C3A
:10197000C0F80CC03E554668C468B44200D1C5608A
:101980000469641C5B1C0461934203D246680469C9
:10199000B442E8D11846F0BD05490028086802D0D5
:1019A00040F4806001E020F480600860704700002F
:1019B000003C024070B50646002529B1012927D018
:1019C000022928D04FF4407500F07EF809281ED176
:1019D000124C206820F4407020602068284320606A
:1019E000206820F0F8002060206846F002010843DB
:1019F0002060206840F48030206000F065F82168A5
:101A000021F002012160216821F0F801216070BD00
:101A10004FF48075D8E74FF40075D5E7103C0240CD
:101A20000D4909200A68D20301D5012070470A68D0
:101A3000D20601D5062070470A68D20501D50220DA
:101A400070470A6812F0E00F01D00720704709685C
:101A50008907FBD5082070470C3C0240024801680A
:101A600041F0004101607047103C024070B50D46E6
:101A7000064600F029F8092811D1094C206820F405
:101A80004070206020682060206840F001002060E5
:101A9000357000F019F8216821F00101216070BD56
:101AA000103C024005480068002805DA0348044954
:101AB0000C3801600349016070470000103C02408F
:101AC00023016745AB89EFCD08B509208DF80000EB
:101AD000FFF7A6FF8DF800009DF800000128F7D061
:101AE0009DF8000008BD02688A43026070470068E4
:101AF0000840704702680A43026070471C498842E8
:101B000001D2002070471B49884201D2082070474B
:101B10001949884201D2102070471849884201D2E1
:101B2000182070471649884201D220207047154975
:101B3000884201D2282070471349884201D23020C0
:101B400070471249884201D23820704710498842B4
:101B500001D2402070470F49884201D24820704787
:101B60000D49884201D2502070475820704700002C
:101B7000004000080080000800C0000800000108C4
:101B80000000020800000408000006080000080821
:101B900000000A0800000C0800000E082DE9F047BC
:101BA0000F460446092600EB0209FFF7A7FF05468A
:101BB0004846FFF7A3FF8046B4F1006F26D3FFF736
:101BC00071FF0020FFF7E8FE1348844208D314E0B9
:101BD00002212846FFF7EEFE064609280FD10835F8
:101BE0004545F5D909E000BF204617F8011B641CE4
:101BF000FFF73CFF0646092801D14C45F4D30120EC
:101C0000FFF7CAFEFFF72AFF092E02D00020BDE829
:101C1000F0870120FBE700000000FF1F0A46014695
:101C20000148FFF7BBBF000000000E0810B586B0EA
:101C300040F2FF13009300238DF808308DF809302F
:101C400008248DF80A400C0A8DF80C10110A8DF842
:101C50000D108DF810308DF80E208DF811308DF8A4
:101C60000B408DF80F308DF812306946FFF71AF9E6
:101C700006B010BD38B50A46044600F00F0120F04A
:101C8000FF0000F0F7F80020034602220090114602
:101C9000204600F001F838BD2DE9FF4F054620F041
:101CA000FF04384A38483949394E3A4FDFF8E8805E
:101CB000DFF8E890DFF8E8A0DFF8E8B083B09442FE
:101CC00002D1012108463CE0844204D101210220D6
:101CD00000F0C4FD06E08C4204D10121042000F094
:101CE000BDFD06E0B44204D10121082000F0B6FD9C
:101CF00006E0BC4204D10121102000F0AFFD06E057
:101D0000444504D10121202000F0A8FD06E04C4507
:101D100004D10121402000F0A1FD06E0544504D18A
:101D20000121802000F09AFD06E05C4504D10121EC
:101D3000080200F093FD07E01B48844204D1012112
:101D4000401500F08BFD05E01848844202D10121C6
:101D50000015F6E705F00F01012088400090049877
:101D60008DF8040005988DF8050006988DF806009A
:101D700010988DF807006946204600F021F807B05A
:101D8000BDE8F08F0000024000040240000802405D
:101D9000000C0240001002400014024000180240F3
:101DA000001C0240002002400024024000280240A3
:101DB00008B50021012302220091FFF76DFF08BD45
:101DC000F0B50023012403270D6804FA03F215403F
:101DD000954242D1D0F800C05E0007FA06F52CEA21
:101DE000050CC0F800C091F804C0D0F800E00CFA6F
:101DF00006FC4CEA0E0CC0F800C091F804C0BCF11F
:101E0000010F02D0BCF1020F1FD1D0F808C02CEA9C
:101E1000050CC0F808C091F805C0D0F808E00CFA2D
:101E200006FC4CEA0E0CC0F808C0D0F804C02CEA3E
:101E3000020CC0F804C0426891F806C00CFA03FC1A
:101E40001FFA8CFC42EA0C024260C268AA43C260DC
:101E5000CA79C568B2402A43C2605B1C102BB3D359
:101E6000F0BD08B500210B46009102220121FFF7C9
:101E700013FF08BD4B07DB0E9A40C90810B500EBF5
:101E80008100016A0F249C40A1430162016A114351
:101E9000016210BD0246002052690A4200D00120B2
:101EA0007047418370470183704742694A404261ED
:101EB0007047C0E9001200F03DB882680168D0EDBB
:101EC000030A01EB8201521C91ED001A30EE412A07
:101ED00090ED011AF8EE412AB8EE411AC2EE221A2C
:101EE000C0ED041A70EEA12AC0ED032A91ED003A6C
:101EF00073EE600A70EE800A70EEE20A20EE822A2B
:101F0000C2EE010AC0ED060A90ED051A31EE201A64
:101F100080ED051A21EEA11A00EEA01A80ED071A35
:101F2000826081ED000AD0E901128A4201D10021CC
:101F30008160704710B50446406881002068FEF754
:101F4000A5FA00209FED070AA06084ED030A84ED46
:101F5000050A84ED040A84ED060A9FED030A84ED68
:101F6000070A10BD00000000FFFF7F7F10B5284A60
:101F70002DED048B018992ED398ACB0603D4B6EEA0
:101F8000000A28EE008A9FED230A4B0702D5F1EEE6
:101F9000488A06E00B0702D5F0EE488A01E0F0EE31
:101FA000408A8B0702D5B1EE488A03E0C90701D108
:101FB000B0EE408AB0F9000092ED102A00EE100A4F
:101FC0009FED151AF1EE421AB8EEC00ADFED130AC2
:101FD00002F06EFAB0EE409AB0EE680A104800F0D7
:101FE00079F9104C0E4884ED000AB0EE480A103022
:101FF00000F070F90A4884ED010AB0EE490A203079
:1020000000F068F984ED020ABDEC048B10BD0000FD
:10201000000000200000000000FEFF46000000C796
:10202000B80E0020C40D002070B504462DED028BC3
:102030001D4D00889FED1D8A95ED392A00EE100A8E
:10204000DFED1B8AF1EE421AB8EE400AB0EE481AF4
:10205000F0EE680A02F02CFA164EB0EE481AF0EED6
:10206000680A86ED000A608895ED392A00EE100AAC
:10207000F1EE421AB8EE400A02F01AFA86ED010AB1
:10208000A08895ED392A00EE100AB0EE481AF1EE5C
:10209000421AB8EE400AF0EE680A02F009FA86ED3C
:1020A000020ABDEC028B70BD000000200080D2440B
:1020B0000000B643C40D0020F0B5144A0021141FDF
:1020C000231F0F46801D655C465CAE4209D152F865
:1020D00021500A2D03D26D1C42F8215003E05E54BA
:1020E00001E042F82170455C6554491C0229EAD39D
:1020F00006490020891E0C1F1A5C0D5C42EAC505CA
:1021000025540A54401C0228F6D3F0BD4801002093
:1021100030B5074B0020991D0C1F1A5C0D5C42EA7C
:10212000C50525540A54401C0228F6D330BD0000D2
:1021300058010020F0B50E4F002107F10802131FCF
:102140000E4608305C5C455CA54209D152F821403E
:102150000A2C03D2641C42F8214003E07D5401E0C4
:1021600042F82160445C5C54491C0229EAD3F0BD6A
:102170005801002070B5134A0020131D141F961E2D
:102180000146951C115443F8201021543154295410
:10219000401C0228F6D30C490A22A1F1300000F0BD
:1021A000BAF809490A222831A1F1480000F0B3F831
:1021B0000549BDE870400A225031A1F1600000F0ED
:1021C000AAB8000044010020E80E002010B5044623
:1021D000FFF772FF2046BDE81040FFF7C7BE0A8830
:1021E00002804A8842808A8882808A798271CA798C
:1021F000C2710A89028149894181704700210A46DA
:102200004318491CC9B29A710229F9D3028142814B
:1022100070470000014909680840704750010020DC
:10222000164917480B7B0268012B1AD042F00102B5
:10223000026091F83020012A026815D042F00202B3
:10224000026091F85420012A026810D042F0040282
:10225000026091F8781001290CD042F00801016069
:10226000704722F00102E3E722F00202E8E722F0E1
:102270000402EDE722F00801F1E70000C4010020AC
:102280005001002010B5FEF7B5FA4FF47A710448FA
:1022900000F02CFCFEF7D0FABDE8104000F07EBE46
:1022A0002308000810B50948FFF7DBFD0848FFF7D1
:1022B000D8FD06484FF480410E38FFF7F4FD04487E
:1022C0008021BDE81040C01FFFF7EDBD0E14024095
:1022D000071002408268016801EB8201D1ED000A1B
:1022E00030EE601AD0ED010AF8EE600AC1EE201A55
:1022F000D0ED030A71EEA00AC0ED030A81ED000AD9
:10230000D0E90121914201D1002100E0491C816006
:1023100090ED030A7047C0E9001200F001B8000018
:1023200010B50446406881002068FEF7AFF8002031
:102330009FED020AA06084ED030A10BD00000000BA
:1023400080EC040A704700000A460146014800F08C
:102350000BB80000600F00200A460146014800F05B
:102360004AB80000600F002091EC020A90ED001ABC
:1023700030EE600AD1ED020A00EE810AD0ED010ACA
:1023800080EE201A82ED001A90ED001A91EC020AFC
:1023900030EE200AD1ED020A00EE810AD0ED010AEA
:1023A00080EE201A82ED011A91ED010AD1ED000AAA
:1023B00090ED001A30EE600AD1ED020A00EE810ABB
:1023C000D0ED010A80EE201A82ED021A91ED000A8A
:1023D000D1ED010A90ED001AB1EE400A30EE600A2C
:1023E000D1ED020A00EE810AD0ED010A80EE201A3A
:1023F00082ED031A704791EC020A30EE200AD1ED0B
:10240000020A30EE600AD1ED030A30EE600AD0ED28
:10241000020A20EE200A82ED000A91ED010AD1EDB8
:10242000000A30EE600AD1ED020A30EE200AD1ED4A
:10243000030A30EE600AD0ED030A20EE200A82ED96
:10244000010A91EC020A30EE200AD1ED020A30EEC8
:10245000200AD1ED030A30EE200AD0ED040A20EE66
:10246000200A82ED020A704738B5364A00EBC005F3
:1024700002EB8504DFED340A638822F825300A88F0
:1024800052BA62804D886DBA00EE105A6560898834
:10249000B8EEC00A49BAA16020EE200ADFED2B0A8F
:1024A00084ED080A00EE102AB8EE400A20EE200A59
:1024B0008DED000A217B21B184ED050A0021216107
:1024C0002173D11A09B241F64C52914205DD2269BD
:1024D000A1F50051521E226108E041F64C52D14252
:1024E00004DA226901F50051521C226100EE101A33
:1024F0009FED171A00EB8001B8EEC00A154884ED75
:10250000070A94ED050ADDED000A00EB8105284677
:1025100030EEC00AD4ED040AF8EEE00A00EE810ABB
:102520008DED000AFFF78DF995ED030ADFED0A0A3C
:1025300084ED060A95ED040A20EE200A84ED070AD0
:1025400038BD0000C40100206F12833ADB0F493A06
:10255000DB0FC9404C0D002000007A4408B58DF80F
:1025600000008DF801108DF8022001208DF8030085
:10257000684600F001F808BD30B50F22C478017834
:102580000123FCB1144C246801F1E02104F4E0645F
:10259000C4F5E064C4F30724C4F10405E2404478C0
:1025A000AC408578154025432A0181F80024007845
:1025B00000F01F018B404009800000F1E020C0F8CE
:1025C000003130BD01F01F0083404809800000F158
:1025D000E020C0F8803130BD0CED00E00249084336
:1025E00002490860704700000000FA050CED00E0A9
:1025F00010B52DED028BFEF745FD03211F48FFF7B7
:1026000072FA9FED1F8A1F48B0EE481AF0EE480A92
:10261000B0EE480AFEF7BFFC1A48B0EE481AF0EEDA
:10262000480AB0EE480A0C30FEF7B5FC1548F0EE4B
:10263000481AB0EE481AF0EE480AB0EE480A3038B0
:10264000FFF77EFE0F48F0EE481AB0EE481AF0EEA3
:10265000480AB0EE480A2038FFF772FEF0EE481A3A
:10266000B0EE481AF0EE480AB0EE480ABDEC028B14
:102670000448BDE810401038FFF762BE5401002046
:1026800000000000A40F002010B54FF48041314835
:10269000FFF700FC304C0028206854D020F00100E7
:1026A000206080212D48FFF7F5FB002820684DD0E1
:1026B00020F0020020602A482A4990ED060A81EDA8
:1026C000000A90ED0F0A81ED010A90ED180A81EDE4
:1026D000020A90ED210A81ED030A90ED070A1031FC
:1026E00081ED000A90ED100A81ED010A90ED190AC2
:1026F00081ED020A90ED220A81ED030A90ED010AB4
:102700001031B8EEC00A81ED000A90ED0A0AB8EE69
:10271000C00A81ED010A90ED130AB8EEC00A81EDFE
:10272000020A90ED1C0A0F48B8EEC00A81ED030AB8
:102730001031FFF711FE0B49BDE810403C31A1F10B
:102740002C00FFF709BE40F00100A9E740F00200AD
:10275000B0E70000001402405401002000100240C5
:10276000C4010020740F002030EE601A90ED080ABA
:10277000DFED341A31EE402A90ED000A60EE010AD6
:1027800090ED040AB4EEE00AF1EE10FA08D3B1EECF
:10279000400AB4EEE00AF1EE10FA01DCB0EE600A95
:1027A000D0ED030AF4EEC20AF1EE10FA1ADDD0ED14
:1027B000090AD0ED011A41EE810AC0ED090AD0EDF7
:1027C000051AF4EEE10AF1EE10FA06DCF1EE611AF8
:1027D000F4EEE10AF1EE10FA01D2F0EE610AC0ED7A
:1027E000090A01E0C0ED091AD0ED020AD0ED061A7F
:1027F00060EE820AF4EEE01AF1EE10FA06D3F1EE82
:10280000611AF4EEE01AF1EE10FA01DDF0EE610A61
:10281000D0ED091A31EE800A30EE200AD0ED070A19
:10282000F4EEC00AF1EE10FA06D3F1EE600AF4EE0F
:10283000C00AF1EE10FA01DDB0EE600A80ED081A70
:1028400070470000000000009FED030A80ED080AB9
:1028500080ED090A7047000000000000044A0029CA
:10286000116801D0014300E081431160704700000E
:1028700030380240044A0029116801D0014300E0C9
:10288000814311607047000040380240044A00292B
:10289000116801D0014300E08143116070470000DE
:1028A0004438024070B5204A1168204C11F00C01E8
:1028B00004D01F4E042903D0082903D004601BE074
:1028C000066019E01849091F0B68C3F380550B68AF
:1028D00003F03F0315B1B6FBF3F301E0B4FBF3F3F0
:1028E0000C680968C4F388146343C1F30141491CAF
:1028F0004900B3FBF1F1016011680F2303EA1111E4
:102900000C4B5C5C0168E14041601468072505EAF6
:1029100094241C5D21FA04F48460126805EA5232A2
:102920009A5CD140C16070BD083802400024F400B8
:10293000001BB7009E01002070B5084A0020131D3F
:10294000941C161F0146951E115443F82010215463
:1029500031542954401C0228F6D370BD5C0100207C
:10296000FFF762BB0A88C2F30A0202804A788B78BA
:10297000D20842EA4312C2F30A0242808A78CB7834
:10298000920942EA83020B7942EA8322C2F30A02E5
:1029900082800A794B79520842EAC312C2F30A02D2
:1029A000C2804A79920902724979C1F301114172D8
:1029B0007047000000214FF4806200BF20F8112012
:1029C000491CC9B20429F9D3002103224318491C28
:1029D000C9B21A720229F9D37047D0E90021914295
:1029E0000CD2491C00EE101A4160F8EE400A00EECD
:1029F000102AB8EE401A80EE810A7047B7EE000A3E
:102A0000704700214160704700F04AB83EB54E2241
:102A1000452108208DE807001D4CB7EE000A1B4B2E
:102A2000224600211B4800F0D5FB01224021204610
:102A300001F098FB24210020CDE90001174D221D53
:102A4000154B51062846FEF769FD13490022243133
:102A50002846FEF7A5FD01212846FEF797FD012136
:102A60002846FEF751FD012200212520FFF776FDC3
:102A7000012240F22441204601F09BFB03B0204696
:102A8000BDE83040012101F09BBA0000A0860100A2
:102A90000010014007040240E4110020406402409D
:102AA00010B50446002001F06DFC2146BDE8104041
:102AB00012220148FDF783BC900E002010B58A0752
:102AC00021F003040849130F21440F22D1F80848CC
:102AD0009A409443C1F80848D1F808289840024326
:102AE000C1F8082810BD00000030014070B50B4D42
:102AF0002C6844B901F0E9FC28600DE061600BE04E
:102B0000E26822B1144622688242F9D1F6E701F068
:102B1000DCFCE060002800D0012070BD68010020CE
:102B200010B5FEF7B1FB0449096801E08860C96887
:102B30000029FBD110BD0000680100201CB5002059
:102B40002E49019000900A6842F480320A604FF4E6
:102B5000A0430A6802F400320092019A521C0192CA
:102B6000009A12B9019A9A42F3D10A68920342D5A7
:102B70000120009021484030026842F080520260FB
:102B80001F48026842F4404202601C4A083213683F
:102B90001360136843F400431360136843F4A053B5
:102BA0001360141F174B23600B6843F080730B6096
:102BB0000B689B01FCD5016841F4803101604168DC
:102BC000C903FCD5016841F4003101604168890303
:102BD000FCD50D4940F205700860106820F0030034
:102BE0001060106840F0020010601068C0F38100AF
:102BF0000228FAD11CBD00901CBD00000038024024
:102C0000007000400C544007003C02407047000038
:102C10001CB500200090024601904FF47A735321B6
:102C2000054800F095F802B00122BDE810401146B9
:102C30003620FFF793BC00000010004010B5084C90
:102C40000121204600F07AF801221146204600F0CA
:102C50002DF92046BDE81040012100F069B80000C0
:102C600000100040124810B5016841F47001016085
:102C70001048016841F0010101600E4A002108324C
:102C8000116002680C4B1A400260031D0B4A1A6067
:102C9000026822F48022026006480C300160FFF7CF
:102CA0004DFF03494FF000608039086010BD0000FF
:102CB00088ED00E000380240FFFFF6FE10300024EF
:102CC00010B501218C07204600F0E4F800280BD055
:102CD0000121204600F02FF80121204600F028F8BD
:102CE000BDE8104000F028B910BD000010B50A4C36
:102CF0000121204600F0CEF800280BD0012120460B
:102D000000F019F80121204600F012F8BDE810404B
:102D1000FFF77CBF10BD00000010004000290188B3
:102D200002D041F0800101E021F080010180704774
:102D3000C94301827047C943018270470029018855
:102D400002D041F0010101E021F001010180704752
:102D50002DE9FF4F434904464348444D444EDFF8B4
:102D60001481DFF81491DFF814A1DFF814B183B0F7
:102D70004FEAB1478C4204D101210846FFF786FD96
:102D80000CE0B4F1804F06D0844207D1012102202B
:102D9000FFF770FD09E00121084645E0AC4204D18F
:102DA00001210420FFF766FD06E0B44204D10121B1
:102DB0000820FFF75FFD06E0BC4204D1012110208E
:102DC000FFF758FD06E0444504D101212020FFF71C
:102DD00051FD06E04C4504D101210220FFF756FDCC
:102DE00006E0544504D101210804FFF74FFD06E039
:102DF0005C4504D101214804FFF748FD07E0214864
:102E0000844204D101218804FFF740FD07E01E48F9
:102E1000844204D101214020FFF72CFD07E01B482C
:102E2000844204D101218020FFF724FD05E01848E9
:102E3000844202D101218015F6E70498ADF8000024
:102E40000598ADF80200069801901098ADF80800BA
:102E500011988DF80A006946204600F02FF807B057
:102E6000BDE8F08F00000140000400400008004071
:102E7000000C0040001400400004014000400140EC
:102E8000004401400048014000180040001C004080
:102E90000020004002460020138A92890B4202EA79
:102EA000010202D0002A00D001207047002A828946
:102EB00001D00A4300E08A438281704730B502881E
:102EC000164B174C98420DD0A0420BD0B0F1804F5A
:102ED00008D0144DA84205D0134DA84202D0134D7E
:102EE000A84203D122F070054A882A43104DA84217
:102EF00006D0104DA84203D022F440750A892A4317
:102F000002804A68C2620A880285984201D0A042C3
:102F100001D1897A01860121818230BD0000014002
:102F2000000401400004004000080040000C004084
:102F30000010004000140040FEF7B4B91CB500209A
:102F40000090431E02464FF08044019053212046DA
:102F5000FFF7FEFE01212046FFF7E0FE02B000224F
:102F6000BDE8104011461C20FFF7F8BA10B501214A
:102F70008C072046FFF7E2FE012211462046FFF7AC
:102F800095FF2046BDE810400121FFF7D1BE10B5E6
:102F9000FFF7D4FFBDE81040FFF73ABE10B5FFF7CA
:102FA000E5FFBDE81040FFF749BE00F039B800006A
:102FB0003EB54E200821CDE90010154C1549029070
:102FC000B7EE000A4FF4E1332246481C00F002F944
:102FD000012240F22551204601F0EBF80122114672
:102FE0004720FFF7BBFA0C49A5152A46A1F1280096
:102FF000FEF789FC09492A46A1F58A70FEF783FC91
:1030000003B02046BDE83040012100F0D9BF0000E8
:1030100000140140050C02405412002054130020FB
:10302000012001F0AFB9000070B51B4E40F22444FE
:103030002146304601F09EF800282BD0174D21463E
:10304000304600F0B7FF164C00212046FEF75CFA30
:103050002046FEF7B0FAC0F1240086B22420211DDC
:1030600008602046FEF7AAFA78B12068243520F4DB
:103070000020206001212046FEF746FA122E09D1D9
:103080002846BDE87040FFF7BFBC206840F4002030
:103090002060EFE770BD000000100140E411002047
:1030A000406402407CB5234D40F2277631462846E5
:1030B00001F060F80024C0B11F48FEF728FC38B1C9
:1030C00002B031462846BDE87040002201F071B8D8
:1030D0008DF80040012269461748FEF726FC9DF84E
:1030E0000010284601F0D8F87CBD40F22551284652
:1030F00001F040F80028F7D0284601F0C9F88DF813
:1031000000000D481438FEF708FC38B10A488DF865
:103110000440012201A91438FEF707FC06480122E9
:1031200069461438FEF71BFC9DF80000FDF7B4FB60
:103130007CBD000000440040D00F00207CB5234D32
:1031400040F227763146284601F014F80024C0B139
:103150001F48FEF7DCFB38B102B031462846BDE817
:103160007040002201F025B88DF800400122694628
:103170001748FEF7DAFB9DF80010284601F08CF89E
:103180007CBD40F22551284600F0F4FF0028F7D01E
:10319000284601F07DF88DF800000D481438FEF740
:1031A000BCFB38B10A488DF80440012201A914384B
:1031B000FEF7BBFB0648012269461438FEF7CFFB39
:1031C0009DF80000FFF7F1FE7CBD000000140140F7
:1031D000401200202DE9FF4F0C462DED020B054655
:1031E0002DED028B83B0B0EE408ADDE91576FE4905
:1031F000DFF8F893099809F1040A0AF1040B8842F0
:103200007ED1A9F10400B0EB152F25D0B9EB152F15
:1032100022D0BAEB152F1FD0BBEB152F1CD00BF112
:103220000401B1EB152F17D0091DB1EB152F13D0E9
:10323000091DB1EB152F0FD0091DB1EB152F0BD0C8
:10324000091DB1EB152F07D0091DB1EB152F03D0C8
:10325000091DB1EB152F38D1B0EB142F25D0B9EBE8
:10326000142F22D0BAEB142F1FD0BBEB142F1CD07D
:10327000DE490C31B1EB142F17D0091DB1EB142F1F
:1032800013D0091DB1EB142F0FD0091DB1EB142F72
:103290000BD0091DB1EB142F07D0091DB1EB142F72
:1032A00003D0091DB1EB142F0FD107212846FEF7DB
:1032B000E1FC07212046FEF7DDFCCDE90076B0EE0B
:1032C000480A2021149B0A9A6DE0B0EB152F2DD0EF
:1032D000B9EB152F2AD0BAEB152F27D0BBEB152F42
:1032E00024D0C24B0C33B3EB152F1FD003F1040EC7
:1032F000BEEB152F1AD00EF10403B3EB152F00E02F
:1033000055E013D003F1040CBCEB152F0ED00CF1DB
:103310000408B8EB152F09D008F10408B8EB152FF5
:1033200004D008F10408B8EB152F0BD1072128466B
:10333000FEF7A0FCCDE90076B0EE480A7221149B9E
:103340000A9A30E0B0EB142F22D0B9EB142F1FD023
:10335000BAEB142F1CD0BBEB142F19D0A3480C30A0
:10336000B0EB142F14D0BEEB142F11D0B3EB142FED
:103370000ED0BCEB142F0BD09C481C30B0EB142F9C
:1033800006D0001DB0EB142F02D0B8EB142F76D16D
:1033900007212046FEF76EFCCDE90076149B0A9AC1
:1033A000B0EE480A7421904800F014FED8E00146BF
:1033B0008F4881427DD18D48001FB0EB152F25D05D
:1033C000B9EB152F22D0BAEB152F1FD0BBEB152F61
:1033D0001CD086490C31B1EB152F17D0091DB1EB6C
:1033E000152F13D0091DB1EB152F0FD0091DB1EB0F
:1033F000152F0BD0091DB1EB152F07D0091DB1EB0F
:10340000152F03D0091DB1EB152F39D1B0EB142FB7
:1034100025D0B9EB142F22D0BAEB142F1FD0BBEB61
:10342000142F1CD071490C31B1EB142F17D0091D8A
:10343000B1EB142F13D0091DB1EB142F0FD0091DC0
:10344000B1EB142F0BD0091DB1EB142F07D0091DC0
:10345000B1EB142F03D0091DB1EB142F10D10721AC
:103460002846FEF707FC07212046FEF703FCCDE9BE
:103470000076B0EE480A2021149B0A9A6CE0FDE326
:10348000B0EB152F2DD0B9EB152F2AD0BAEB152F95
:1034900027D0BBEB152F24D0544A0C32B2EB152F9A
:1034A0001FD002F1040EBEEB152F1AD00EF104034B
:1034B00000E055E0B3EB152F13D003F1040CBCEB87
:1034C000152F0ED00CF10408B8EB152F09D008F118
:1034D0000408B8EB152F04D008F10408B8EB152F39
:1034E0000BD107212846FEF7C5FBCDE90076B0EEEB
:1034F000480A7221149B0A9A2EE0B0EB142F20D0B8
:10350000B9EB142F1DD0BAEB142F1AD0BBEB142F2C
:1035100017D0B2EB142F14D0BEEB142F11D0B3EB95
:10352000142F0ED0BCEB142F0BD030481C30B0EB56
:10353000142F06D0001DB0EB142F02D0B8EB142FBF
:103540000DD107212046FEF795FBCDE90076149BAF
:103550000A9AB0EE480A7421254800F03BFDE1E0EC
:103560002449099888427DD12048001FB0EB152FCF
:1035700025D0B9EB152F22D0BAEB152F1FD0BBEBFE
:10358000152F1CD019490C31B1EB152F17D0091D7F
:10359000B1EB152F13D0091DB1EB152F0FD0091D5D
:1035A000B1EB152F0BD0091DB1EB152F07D0091D5D
:1035B000B1EB152F03D0091DB1EB152F41D1B0EBA5
:1035C000142F2ED0B9EB142F2BD0BAEB142F28D0F8
:1035D000BBEB142F25D005490C31B1EB142F20D0B3
:1035E000091DB1EB142F07E0001001400402400058
:1035F000004400400048004013D0091DB1EB142FD7
:103600000FD0091DB1EB142F0BD0091DB1EB142FF6
:1036100007D0091DB1EB142F03D0091DB1EB142FF6
:103620000FD107212846FEF725FB07212046FEF78C
:1036300021FBCDE90076B0EE480A2021149B0A9ABE
:103640006CE0B0EB152F2CD0B9EB152F29D0BAEBCD
:10365000152F26D0BBEB152F23D0DFF878E4BEEB77
:10366000152F00E05EE01CD00EF10403B3EB152F24
:1036700017D01B1DB3EB152F13D003F1040CBCEBBB
:10368000152F0ED00CF10408B8EB152F09D008F156
:103690000408B8EB152F04D008F10408B8EB152F77
:1036A0000BD107212846FEF7E5FACDE90076B0EE0A
:1036B000480A7221149B0A9A30E0B0EB142F22D0F2
:1036C000B9EB142F1FD0BAEB142F1CD0BBEB142F67
:1036D00019D0BEEB142F16D0FE48001DB0EB142FEE
:1036E00011D0B3EB142F0ED0BCEB142F0BD0F94834
:1036F0001030B0EB142F06D0001DB0EB142F02D009
:10370000B8EB142F0DD107212046FEF7B3FACDE90F
:103710000076149B0A9AB0EE480A7421EE4800F035
:1037200059FCD6E0ED48099981427CD1E94810382E
:10373000B0EB152F24D0B9EB152F21D0BAEB152FF4
:103740001ED0BBEB152F1BD0E249B1EB152F17D0C4
:10375000091DB1EB152F13D0091DB1EB152F0FD09B
:10376000091DB1EB152F0BD0091DB1EB152F07D09B
:10377000091DB1EB152F03D0091DB1EB152F37D162
:10378000B0EB142F24D0B9EB142F21D0BAEB142FA7
:103790001ED0BBEB142F1BD0CE49B1EB142F17D08A
:1037A000091DB1EB142F13D0091DB1EB142F0FD04D
:1037B000091DB1EB142F0BD0091DB1EB142F07D04D
:1037C000091DB1EB142F03D0091DB1EB142F0FD13C
:1037D00008212846FEF74EFA08212046FEF74AFA4D
:1037E000CDE90076B0EE480A2021149B0A9A6CE0DD
:1037F000B0EB152F2CD0B9EB152F29D0BAEB152F24
:1038000026D0BBEB152F23D0DFF8C8E2BEEB152F77
:103810001ED00EF10403B3EB152F19D01B1DB3EB13
:10382000152F15D000E054E003F1040CBCEB152F6C
:103830000ED00CF10408B8EB152F09D008F10408DC
:10384000B8EB152F04D008F10408B8EB152F0BD1F5
:1038500008212846FEF70EFACDE90076B0EE480AB8
:103860007221149B0A9A30E0B0EB142F22D0B9EBEE
:10387000142F1FD0BAEB142F1CD0BBEB142F19D070
:10388000BEEB142F16D09348001DB0EB142F11D0AF
:10389000B3EB142F0ED0BCEB142F0BD08D4810308F
:1038A000B0EB142F06D0001DB0EB142F02D0B8EBF4
:1038B000142F0DD108212046FEF7DCF9CDE9007662
:1038C000149B0A9AB0EE480A7421844800F082FBE7
:1038D000D6E08348099981427ED17E481038B0EB0A
:1038E000152F24D0B9EB152F21D0BAEB152F1ED0F0
:1038F000BBEB152F1BD07749B1EB152F17D0091D46
:10390000B1EB152F13D0091DB1EB152F0FD0091DE9
:10391000B1EB152F0BD0091DB1EB152F07D0091DE9
:10392000B1EB152F03D0091DB1EB152F37D1B0EB3B
:10393000142F24D0B9EB142F21D0BAEB142F1ED0A2
:10394000BBEB142F1BD06349B1EB142F17D0091D0B
:10395000B1EB142F13D0091DB1EB142F0FD0091D9B
:10396000B1EB142F0BD0091DB1EB142F07D0091D9B
:10397000B1EB142F03D0091DB1EB142F0FD1082187
:103980002846FEF777F908212046FEF773F9CDE9BE
:103990000076B0EE480A2021149B0A9A6CE0B0EB46
:1039A000152F2CD0B9EB152F29D0BAEB152F26D017
:1039B000BBEB152F23D0DFF81CE1BEEB152F1ED07B
:1039C0000EF10403B3EB152F19D01B1DB3EB152F0C
:1039D00015D003F1040C00E052E0BCEB152F0ED023
:1039E0000CF10408B8EB152F09D008F10408B8EB66
:1039F000152F04D008F10408B8EB152F0BD10821BE
:103A00002846FEF737F9CDE90076B0EE480A722174
:103A1000149B0A9A30E0B0EB142F22D0B9EB142F8C
:103A20001FD0BAEB142F1CD0BBEB142F19D0BEEB58
:103A3000142F16D02748001DB0EB142F11D0B3EB74
:103A4000142F0ED0BCEB142F0BD022481030B0EB4B
:103A5000142F06D0001DB0EB142F02D0B8EB142F9A
:103A60000DD108212046FEF705F9CDE90076149B1B
:103A70000A9AB0EE480A7421194800F0ABFAE1E066
:103A80001849099888427DD112481038B0EB152F9B
:103A90002FD0B9EB152F2CD0BAEB152F29D0BBEBBB
:103AA000152F26D00B49B1EB152F22D0091DB1EBF4
:103AB000152F1ED0091DB1EB152F1AD0091DB1EB22
:103AC000152F16D0091DB1EB152F12D0091DB1EB22
:103AD000152F09E01002400000480040004C004053
:103AE000005000400014014003D0091DB1EB152F18
:103AF00037D1B0EB142F24D0B9EB142F21D0BAEB6F
:103B0000142F1ED0BBEB142F1BD0FE49B1EB142F8A
:103B100017D0091DB1EB142F13D0091DB1EB142FD1
:103B20000FD0091DB1EB142F0BD0091DB1EB142FD1
:103B300007D0091DB1EB142F03D0091DB1EB142FD1
:103B40000FD108212846FEF795F808212046FEF7F8
:103B500091F8CDE90076B0EE480A2021149B0A9A2C
:103B60006CE0B0EB152F2CD0B9EB152F29D0BAEBA8
:103B7000152F26D0BBEB152F23D0DFF888E3BEEB43
:103B8000152F00E05EE01CD00EF10403B3EB152FFF
:103B900017D01B1DB3EB152F13D003F1040CBCEB96
:103BA000152F0ED00CF10408B8EB152F09D008F131
:103BB0000408B8EB152F04D008F10408B8EB152F52
:103BC0000BD108212846FEF755F8CDE90076B0EE76
:103BD000480A7221149B0A9A30E0B0EB142F22D0CD
:103BE000B9EB142F1FD0BAEB142F1CD0BBEB142F42
:103BF00019D0BEEB142F16D0C248001DB0EB142F05
:103C000011D0B3EB142F0ED0BCEB142F0BD0BD484A
:103C10001030B0EB142F06D0001DB0EB142F02D0E3
:103C2000B8EB142F0DD108212046FEF723F8CDE97B
:103C30000076149B0A9AB0EE480A7421B24800F04C
:103C4000C9F9D3E0B148099981427DD1AD48103816
:103C5000B0EB152F26D0B9EB152F23D0BAEB152FCB
:103C600020D0BBEB152F1DD0A649B1EB152F19D0D5
:103C7000091DB1EB152F15D0091D00E01CE1B1EBBA
:103C8000152F0FD0091DB1EB152F0BD0091DB1EB6E
:103C9000152F07D0091DB1EB152F03D0091DB1EB6E
:103CA000152F37D1B0EB142F24D0B9EB142F21D01E
:103CB000BAEB142F1ED0BBEB142F1BD09149B1EBE4
:103CC000142F17D0091DB1EB142F13D0091DB1EB20
:103CD000142F0FD0091DB1EB142F0BD0091DB1EB20
:103CE000142F07D0091DB1EB142F03D0091DB1EB20
:103CF000142F0FD108212846FDF7BCFF08212046CC
:103D0000FDF7B8FFCDE90076B0EE480A2021149BFC
:103D10000A9A69E08646B0EB152F2BD0B9EB152F28
:103D200028D0BAEB152F25D05846BBEB152F21D044
:103D30007449B1EB152F1DD00A1DB2EB152F19D008
:103D4000131DB3EB152F00E050E013D003F1040C6A
:103D5000BCEB152F0ED00CF10408B8EB152F09D0D1
:103D600008F1040BBBEB152F04D00BF10408B8EBE2
:103D7000152F0BD108212846FDF77CFFCDE90076F1
:103D8000B0EE480A7221149B0A9A2DE0BEEB142F64
:103D90001FD0B9EB142F1CD0BAEB142F19D0B0EBF5
:103DA000142F16D0B1EB142F13D0B2EB142F10D068
:103DB000B3EB142F0DD0BCEB142F0AD051481030A8
:103DC000B0EB142F05D0BBEB142F02D0B8EB142F9F
:103DD00072D108212046FDF74DFFCDE90076149BF6
:103DE0000A9AB0EE480A74214848A9E0484809995F
:103DF000814261D143481038B0EB152F24D0B9EB84
:103E0000152F21D0BAEB152F1ED0BBEB152F1BD0D1
:103E10003C49B1EB152F17D0091DB1EB152F13D06D
:103E2000091DB1EB152F0FD0091DB1EB152F0BD0CC
:103E3000091DB1EB152F07D0091DB1EB152F03D0CC
:103E4000091DB1EB152F38D1B0EB142F24D0B9EBED
:103E5000142F21D0BAEB142F1ED0BBEB142F1BD084
:103E60002849B1EB142F17D0091DB1EB142F13D033
:103E7000091DB1EB142F0FD0091DB1EB142F0BD07E
:103E8000091DB1EB142F07D0091DB1EB142F03D07E
:103E9000091DB1EB142F10D108212846FDF7EAFEC9
:103EA00008212046FDF7E6FECDE90076B0EE480A8F
:103EB0002021149B0A9A42E044E08646B0EB152F7D
:103EC00032D0B9EB152F2FD0BAEB152F2CD0584686
:103ED000BBEB152F28D00B49B1EB152F24D00A1DB1
:103EE000B2EB152F20D0131DB3EB152F1CD003F10F
:103EF000040CBCEB152F17D00CF1040BBBEB152FEA
:103F000012D007E010024000001401400078004089
:103F1000007C00400BF10408B8EB152F04D008F129
:103F20000408B8EB152F13D108212846FDF7A2FE8F
:103F3000CDE90076149B0A9AB0EE480A72211B481C
:103F400000F048F803B0BDEC028B06B0BDE8F08F7E
:103F5000BEEB142F1ED0B9EB142F1BD0BAEB142FCD
:103F600018D0B0EB142F15D0B1EB142F12D0B2EB48
:103F7000142F0FD0B3EB142F0CD0BCEB142F09D09F
:103F8000BBEB142F06D00A48B0EB142F02D0B8EBCD
:103F9000142FD7D108212046FDF76CFECDE900761D
:103FA000B0EE480A7421149B0A9AC8E7007C0040CE
:103FB000240240000A0A01219140C9430180704750
:103FC0000029818902D041F4005101E021F400511F
:103FD000818170472DE9FF4F0E462DED020B0446FF
:103FE000584A59485949DFF86881DFF86891DFF885
:103FF00068A1DFF868B194422DED028B85B0B0EE78
:10400000408ADDE9167504D101211020FEF73EFC3F
:104010002EE0844204D101214804FEF72BFC06E087
:104020008C4204D101218804FEF724FC06E04445BB
:1040300004D10121C804FEF71DFC06E04C4504D163
:1040400001210805FEF716FC06E0544504D10121C4
:104050002020FEF71BFC04E05C4502D1012188070B
:1040600004E03F48844203D101214005FEF702FCF1
:10407000722E3BD0522E39D0742E39D0542E37D0D8
:104080005FF00C00ADF80A000B9800900C9A00202D
:104090004FF48051092A2DD0ADF804006F2F2CD099
:1040A0004F2F2AD0652F2BD0452F29D0ADF80800EF
:1040B00018EE102AB2F17C5F2CD018EE101AB1F174
:1040C0007F5F22D018EE101AB1F1804F20D0ADF8EA
:1040D0000600722D21D0522D1FD0632D20D0432DEC
:1040E0001ED0612D1FD0412D1DD01EE00420C9E738
:1040F0000820C7E7ADF80410D0E74FF4C06201E034
:104100004FF48062ADF80820D2E74FF4405101E04F
:104110004FF40051ADF80610DBE74FF4807004E077
:104120004FF4007001E04FF44070ADF80C006946A8
:10413000204600F057F805B0BDEC028B06B0BDE894
:10414000F08F000000100140004400400048004093
:10415000004C004000500040001401400078004036
:10416000007C0040002A828A01D00A4300E08A4392
:104170008282704730B501F01F0201240025C1F38F
:10418000421304FA02F2012B0FD0022B0FD0838AC4
:104190004FEA11210088134204FA01F400EA0400F6
:1041A00001D000B10125284630BD8389F0E7038A9C
:1041B000EEE710B5C1F3421301F01F040121A14045
:1041C000012B07D0022B07D01430002A026805D03B
:1041D0000A4304E00C30F8E71030F6E78A43026047
:1041E00010BD00007FB50446008A0D4620F4405102
:1041F000E88808432082A08941F20C618843A9889D
:104200002A8911436A8902431143A181A08A20F4BB
:104210004071A8890843A0826846FEF743FB1A480C
:10422000844202D01948844201D1039800E00298E8
:10423000A189090400EBC00101EB0010296801D538
:10424000490000E08900B0FBF1F26420B2FBF0F11C
:1042500009010B096FF018056B4302EB8302A38978
:104260001D044FF0320306D503EBC202B2FBF0F09F
:1042700000F0070005E003EB0212B2FBF0F000F0E3
:104280000F00084320817FBD001001400014014051
:104290008088C0F308007047C1F30801818070472F
:1042A00010B500F01BF848B1012807D0022809D04A
:1042B000032811D1BDE81040FCF776BFBDE81040DF
:1042C000FCF73ABAFDF72AF8FEF7DEF9FDF7AEF88B
:1042D000BDE81040FCF744BA10BD0000014800786A
:1042E000704700009C0100200248002101704170CD
:1042F000704700009C0100202DE9F041204C012571
:1043000040F2E1102178617059B10026022701299D
:104310000ED0022917D0032908D100F051F850B966
:1043200022E000F04DF8002800D12570BDE8F081B2
:1043300000F046F808B12670F8E70F20FDF76AFF95
:104340001AE02770F2E700F03BF80028F3D10F20C5
:10435000FDF760FF0028E8D00120FCF71FFF0028D0
:10436000E4D103202070E1E70F20FDF753FF002880
:10437000DBD00120FCF712FF0028E2D1D6E70000D5
:104380009C010020024A002142F8201070470000E2
:1043900070010020084A0949002000BF52F820306F
:1043A00041F82030401C0B28F8D304494FF0FF306F
:1043B000091F086070470000F044000870010020E9
:1043C00003490968884301D00020704701207047E5
:1043D0006C010020F0B50E4D00200E4E2B1DD5F8BF
:1043E0000010012253F8204056F82070BC4203D33D
:1043F00002FA00F4214305E002FA00F7B943641C15
:1044000043F82040401C0B28ECD32960F0BD00008D
:104410006C010020F044000808B50168C07809BAB2
:1044200021F0FF01014300EE101ADFED130A1148DD
:10443000B8EEC00A016020EE200A8DED000A017975
:1044400019B180ED020A0021017190ED030ADDED42
:10445000000A30EEC00ADFED090A20EE200A80EDE6
:10446000040A90ED020ADDED000A30EEC00A80ED8C
:10447000030A08BDB0010020D30237B900007A4416
:10448000FDF700FFFCF7D8F932244FF48045074EC2
:10449000FCF7FAFEB0FBF4F104FB11000028F7D1A1
:1044A00029463046FDF701FDF2E700000014024006
:1044B00030EE600A32EE612A31EE601A20EE020A16
:1044C000C0EE010A30EEA10A704770B505460C46F1
:1044D0001020FBF7FFFE002804D000218160C1609E
:1044E000C0E9005470BD4FF04070E1EE100A704713
:1044F000640000006400000064000000640000002C
:10450000640000006400000064000000640000001B
:104510006400000064000000640000003C450008E6
:1045200000000020B0010000E801000890450008EC
:10453000B00100200827000044020008052B0701F5
:104540000701E6400AD7A33C23803FD35C4324B055
:104550009A453BFA4404390C091E20094C502D0A97
:10456000D7233E041809BC74133C295C8F3D540AC0
:104570001E40343204035E88131AFF013264092698
:1045800004612D0102030404250607080900000048
:04000005080001AD41
:00000001FF
