:020000040800F2
:10000000781A0020C1010008C9010008CB010008CE
:10001000CD010008CF010008D10100080000000058
:10002000000000000000000000000000D3010008F4
:10003000D501000800000000D7010008D901000820
:10004000DB010008DB010008DB010008DB01000820
:10005000DB010008DB010008DB010008DB01000810
:10006000DB010008DB010008DB010008DB01000800
:10007000DB010008DB010008DB010008DB010008F0
:10008000DB010008DB010008DB010008F9030008C0
:10009000B5030008DB010008DB010008DB010008F4
:1000A000DB010008DB010008DB010008DB010008C0
:1000B000692D0008DB010008DB010008DB010008F6
:1000C000DB010008DB010008DB010008DB010008A0
:1000D000DB010008A13200081D330008B533000819
:1000E000DB010008DB010008DB010008DB01000880
:1000F000DB010008DB010008DB010008DB01000870
:10010000DB010008DB010008DB010008DB0100085F
:10011000DB010008DB010008952D0008DB01000869
:10012000DB010008DB010008DB010008DB0100083F
:10013000DB010008DB010008DB01000861040008A6
:100140001D040008DB010008DB010008DB010008DA
:10015000DB010008DB010008DB0100084D3400086A
:10016000DB010008DB010008DB010008DB010008FF
:10017000DB010008DB010008DB01000800000000D3
:10018000DB010008DB010008DB010008DB010008DF
:10019000DB010008DB010008DB010008DB010008CF
:1001A0000000000000000000DB010008DFF80CD0B8
:1001B00000F03CF800480047E5460008781A0020A7
:1001C0000648804706480047FEE7FEE7FEE7FEE7F1
:1001D000FEE7FEE7FEE7FEE7FEE7FEE70D2D00087F
:1001E000AD01000840EA01039B0703D009E008C9FC
:1001F000121F08C0042AFAD203E011F8013B00F8EC
:10020000013B521EF9D27047D2B201E000F8012B37
:10021000491EFBD270470022F6E710B513460A4686
:1002200004461946FFF7F0FF204610BD064C074D67
:1002300006E0E06840F0010394E8070098471034B6
:10024000AC42F6D3FFF7B6FF5848000878480008DC
:1002500070B58C1810F8015B15F0070301D110F888
:10026000013B2A1106D110F8012B03E010F8016BB5
:1002700001F8016B5B1EF9D12B0705D40023521E38
:100280000DD401F8013BFAE710F8013BCB1A921CA0
:1002900003E013F8015B01F8015B521EF9D5A1429E
:1002A000D8D3002070BD000038B50020074C0346AD
:1002B000024601460090204600F026FA2046BDE89E
:1002C00038400022114600F015BD000000640040D7
:1002D00010B500F0F5FAFFF7E7FF00F01DFB00F0A6
:1002E0005FFB00F05FFB00F01DFF02F069FC04F013
:1002F0005DF904F06BF9BDE8104004F07DB9000031
:1003000010B54FF4A06001F045F800F011F800F0CE
:100310004BF800F017FF02F04BFBBDE810404FF424
:100320008041014800F01CBE0014024000F038B8C3
:100330003EB54E200821CDE90010154C154902901C
:10034000B7EE000A4FF416532246481C03F0CAF8D1
:10035000012240F22551204604F0B2F80222114653
:10036000262000F0D7FF0C49A5152A46A1F1280048
:1003700000F05FFC09492A46A1F58A7000F059FC9B
:1003800003B02046BDE83040012103F0A1BF0000CA
:1003900000440040050C0240DC0F0020DC1000206F
:1003A000022004F00BB90000014800F067BD000016
:1003B0000A0C024010B50E4C86B00221204600F017
:1003C000B5F8002811D00421204600F073F809493F
:1003D000204600F057F86A460021204600F0FAF85F
:1003E0000DF10B01009800F0B9F906B010BD000046
:1003F000006400400800003210B5074C012120467F
:1004000000F094F8002805D02046BDE810400121F6
:1004100000F050B810BD00000064004010B50E4C54
:1004200086B00221204600F081F8002811D0022178
:10043000204600F03FF80949204600F023F86A46BC
:100440000021204600F0C6F80DF10B01009800F0E5
:1004500087F906B010BD00000068004008000032B7
:1004600010B5074C0121204600F060F8002805D0A7
:100470002046BDE81040012100F01CB810BD00006E
:10048000006800400A4A914202D100218161704710
:10049000C1F313028B0101D5C26070474B0101D536
:1004A00002617047090101D5826070474260704760
:1004B0007000F03030B5082310240422B1F5007F1D
:1004C0001DD010DC202929D007DC012921D00429E6
:1004D00022D0082900D1C46030BD402920D0B1F518
:1004E000807FF9D10BE00025B1F5004F06D008DC84
:1004F000B1F5806F03D0B1F5006FEDD18561426039
:1005000030BDB1F5803F0DD0B1F5003FF8D144606A
:1005100030BD0549816030BDC36030BD036130BD71
:10052000046130BD436030BD01010100024600207E
:1005300053690B424AD0B1F5807F3BD013DC0829C8
:100540002ED007DC012926D0022927D004293DD14D
:10055000D0682BE0102925D0202926D0402935D17C
:100560001069102130E0B1F5004F2BD00BDCB1F554
:10057000007F22D0B1F5806F22D0B1F5006F25D178
:100580009069702120E0B1F5803F11D0B1F5003FB6
:100590001CD15068E5E790680D4915E0D06802E08D
:1005A000D068DEE7106903210EE0106908210BE036
:1005B0005068FBE79069012106E09069022103E0A1
:1005C000906900E05068042100F09AB9704700007B
:1005D0000101010010B500EB0113D3F8B04114F094
:1005E00004041472D3F8B04134D0E408C2F80440D3
:1005F000D3F8B04104F002045472D3F8B44104F0CB
:100600000F049472D3F8B441240AD474D3F8B841D7
:10061000D472D3F8B841240A1473D3F8B841240C27
:100620005473D3F8B841240E9473D3F8BC41D473F7
:10063000D3F8BC41240A1474D3F8BC41240C54747C
:10064000D3F8BC311B0E937439B1016941F020011C
:10065000016110BD640D1460CAE7C16841F020015A
:10066000C16010BD30B50246002093685B0108D41C
:100670009068000101D5012003E09068C00037D5E3
:10068000022002EB0012D2F8803103F00103C2F81D
:1006900080310B7A73B3D2F880414D681C434B7A9A
:1006A00043EAC5031C43C2F880418B7A03F00F0371
:1006B0008B72D2F8843123F00F03C2F88431D2F860
:1006C00084318C7A2343C2F88431CB7ACC6843EAF4
:1006D0000423C2F88831CB7B096943EA0121C2F8BF
:1006E0008C11D2F8801141F00101C2F8801130BDA7
:1006F000042030BDD2F880314C7A23430C8843EA81
:100700004453C2F88031D0E730B585B04FF400755E
:10071000009500258DF808508DF8095008258DF8B2
:100720000A50089C0D0A8DF80C10110A8DF80D1056
:100730008DF80E20190A8DF80F108DF81030210A4F
:100740008DF811108DF80B508DF812406946FFF7A7
:1007500089FF05B030BD80EC030A704700F048B84F
:1007600000F046B82DE9F047DFF8789000242DED31
:10077000028B09F51667DFED1C8A9FED1C8A07F1D5
:10078000C00807F5A87A00BF04EBC40000EB041111
:1007900007EB441609EB01116422304600F0E8FB38
:1007A000F0EE680A04EB440108EBC105F0EE601AB4
:1007B000B0EE601AB0EE480A284600F094F904EB57
:1007C00084032A4631460AEB830000F0CCF9641C0E
:1007D000E4B2062CD8D3BDEC028BBDE8F04700F0A4
:1007E0004FB80000A402002000000000CDCCCC3D9A
:1007F00010B50C46B0F5017F2BD00DDCA0F50070D4
:1008000001381AD001281ED0022837D1082003F061
:10081000D5FE214602202DE0A0F5007005381ED03F
:10082000012822D0B0F5FE7F28D1052003F0C6FEB6
:100830002046BDE8104003F0E7BE062003F0BEFEF0
:100840002146002016E0072003F0B8FE21460120D3
:1008500010E0092003F0B2FE214603200AE00A203E
:1008600003F0ACFE2146042004E00B2003F0A6FEBA
:1008700021460520BDE8104000F0BCBC10BD0000C2
:100880000B4910B501200871002000F02DFD01205A
:1008900000F02AFD022000F027FD032000F024FDD7
:1008A000042000F021FDBDE81040052000F01CBD33
:1008B000B801002001494968084070470000002045
:1008C00010B5C4B00A4800F017F80220FFF7F2FF95
:1008D00000280BD14FF48874224606496846FFF77A
:1008E00081FC224669460248FFF77CFC44B010BDFB
:1008F00000000020184700084FF4887100F0F2B99A
:10090000024600200A4200D001207047014840689A
:100910007047000010010020024800210160416082
:10092000704700001001002007484FF47A720168F8
:10093000491CB1FBF2F3016002FB1311002902D143
:100940004168491C416070471001002010B52DED31
:10095000028B00F097F803210E4800F0B3F99FEDE9
:100960000E8A0E48B0EE481AF0EE480AB0EE480A79
:10097000FFF7F1FEF0EE481AB0EE481AF0EE480A22
:10098000B0EE480ABDEC028B0448BDE810400C30C4
:1009900000F004BC1801002000000000CC0D002075
:1009A0007047000010B5FFF7D1FF00F0FDFC2748AD
:1009B00000F04AFD2548283000F046FD234850301D
:1009C00000F042FD2148783000F03EFD204802F062
:1009D000EBF81F48083002F0E7F81D48103002F02D
:1009E000E3F81B48183002F0DFF8184800F034FD37
:1009F0001648283000F030FD1448503000F02CFD2F
:100A00001248783000F028FD114802F0D5F810485F
:100A1000083002F0D1F80E48103002F0CDF80C4842
:100A2000183002F0C9F80A480321001F00F04AF903
:100A30009FED080A0548BDE81040F0EE401AB0EE00
:100A4000401AF0EE400AA03000F0A8BBE80D0020EC
:100A5000200100200000000070B50D46044602F0A1
:100A60004FF8A91D04F10A00BDE8704000F03CBB3E
:100A700010B5044602F06CF804F10A00BDE810401D
:100A800000F041BB10B502F027F800F001FBBDE813
:100A900010400148FFF7ECBF980E002000290168C4
:100AA00002D041F0010101E021F001010160704735
:100AB000406880B27047014600200968090300D5EC
:100AC00001207047AFF30080032003F077BD10B51D
:100AD00000214AF20E4403E02246521EFDD2491C78
:100AE0008142F9D310BD80EC040A7047D0ED020AB0
:100AF00090ED031AD0ED001A30EE811AD0ED050A00
:100B000070EEA10AD0ED011A30EE410A30EEA12AB2
:100B1000C0EE821AC0ED041A20EE210A80ED030A0D
:100B200031EE000A20EEA01A80ED020A41EE610AC1
:100B3000C0ED050A704700009FED050A80ED020A2E
:100B400080ED030A80ED040A80ED050A704700007D
:100B50000000000080ED030A704780ED020A704734
:100B600080ED010A7047C0E9001200F03FB810B5EF
:100B7000D0ED020A0446F5EEC00AF1EE10FA29DDC6
:100B8000206800F0F9F92068D4ED020A90ED070A18
:100B9000B4EEE00AF1EE10FA12D284ED020A90ED02
:100BA000050A6068FFF7DCFF206890ED030A6068C3
:100BB000FFF7D3FF206890ED040A6068FFF7CAFFD3
:100BC000206890ED030A84ED030A90ED040A84ED99
:100BD000040A10BD6068FFF789FF606890ED020AA3
:100BE00084ED030A90ED030AF1E7000010B5044616
:100BF000006800F0FFF96068FFF79EFF9FED050AAF
:100C000084ED020A9FED040A84ED030A84ED040AD0
:100C100010BD0000FFFF7F7F0000000010B50446FC
:100C2000D4E90001FFF7F7FA0020A060E06020613E
:100C300010BDC0E90012FFF7F1BF006908B1002044
:100C400070470120704701694068814201D101204D
:100C5000704700207047F0B500231D460EE0846801
:100C60000768661C86603C5DCC54D0E90146A6420C
:100C700000D185600469641E5B1C0461934202D24A
:100C80000469002CEBD11846F0BDF0B500231D46D9
:100C900010E0C4680768CE5C04F1010CC0F80CC019
:100CA0003E554668C468B44200D1C5600469641CFE
:100CB0005B1C0461934203D246680469B442E8D1E4
:100CC0001846F0BD02688A430260704710B50023E1
:100CD00004E00446401C2478CC545B1C9342F8D3B7
:100CE00010BD00000A4601460148FFF7EFBF0000B3
:100CF00000000E0810B586B040F2FF1300930023E9
:100D00008DF808308DF8093008248DF80A400C0A57
:100D10008DF80C10110A8DF80D108DF810308DF82B
:100D20000E208DF811308DF80B408DF80F308DF8B6
:100D300012306946FFF796FC06B010BD38B5044680
:100D400000200D460346022200901146204600F086
:100D500009F804F00F0124F0FF002A46BDE83840EE
:100D600000F0EEB82DE9FF4F054620F0FF04384AA9
:100D700038483949394E3A4FDFF8E880DFF8E890D3
:100D8000DFF8E8A0DFF8E8B083B0944202D1012197
:100D900008463CE0844204D10121022001F02EFEED
:100DA00006E08C4204D10121042001F027FE06E078
:100DB000B44204D10121082001F020FE06E0BC422B
:100DC00004D10121102001F019FE06E0444504D1B0
:100DD0000121202001F012FE06E04C4504D1012142
:100DE000402001F00BFE06E0544504D10121802093
:100DF00001F004FE06E05C4504D10121080201F087
:100E0000FDFD07E01B48844204D10121401501F09B
:100E1000F5FD05E01848844202D101210015F6E7EE
:100E200005F00F0101208840009004988DF804001F
:100E300005988DF8050006988DF8060010988DF835
:100E400007006946204600F021F807B0BDE8F08FA2
:100E5000000002400004024000080240000C024072
:100E6000001002400014024000180240001C024022
:100E700000200240002402400028024008B5002162
:100E8000012302220091FFF76DFF08BDF0B500239A
:100E9000012403270D6804FA03F21540954242D15C
:100EA000D0F800C05E0007FA06F52CEA050CC0F881
:100EB00000C091F804C0D0F800E00CFA06FC4CEA3F
:100EC0000E0CC0F800C091F804C0BCF1010F02D0B4
:100ED000BCF1020F1FD1D0F808C02CEA050CC0F8F5
:100EE00008C091F805C0D0F808E00CFA06FC4CEAFE
:100EF0000E0CC0F808C0D0F804C02CEA020CC0F8F0
:100F000004C0426891F806C00CFA03FC1FFA8CFC7E
:100F100042EA0C024260C268AA43C260CA79C5684C
:100F2000B2402A43C2605B1C102BB3D3F0BD08B59E
:100F300000210B46009102220121FFF713FF08BD9B
:100F40004B07DB0E9A40C90810B500EB8100016A1F
:100F50000F249C40A1430162016A1143016210BD4C
:100F6000418370470183704742694A40426170473C
:100F7000C0E9001200F03EB882680168D0ED030AB3
:100F800001EB8201521C91ED001A30EE412A90EDE6
:100F9000011AF8EE412AB8EE411AC2EE221AC0ED4B
:100FA000041A70EEA12AC0ED032A91ED003A73EE07
:100FB000600A70EE800A70EEE20A20EE822AC2EE2B
:100FC000010AC0ED060A90ED051A31EE201A80EDF7
:100FD000051A21EEA11A00EEA01A80ED071A826010
:100FE00081ED000AD0E901128A4201D1002181601D
:100FF0007047000010B50446406881002068FFF784
:101000000AF900209FED070AA06084ED030A84ED31
:10101000050A84ED040A84ED060A9FED030A84EDB7
:10102000070A10BD00000000FFFF7F7F30B5074BAF
:101030000020991D0C1F1A5C0D5C42EAC505255461
:101040000A54401C0228F6D330BD0000580100208D
:10105000F0B50E4F002107F10802131F0E460830AD
:101060005C5C455CA54209D152F821400A2C03D2B0
:10107000641C42F8214003E07D5401E042F8216005
:10108000445C5C54491C0229EAD3F0BD580100209D
:1010900070B5134A0020131D141F961E0146951C9F
:1010A000115443F82010215431542954401C022873
:1010B000F6D30C490A22A1F1300000F05BF809498F
:1010C0000A222831A1F1480000F054F80549BDE892
:1010D00070400A225031A1F1600000F04BB80000CE
:1010E00044010020E00E00200A8802804A884280E5
:1010F0008A8882808A798271CA79C2710A8902815A
:1011000049894181704700210A464318491CC9B2E8
:101110009A710229F9D30280428082800281428141
:10112000704700000149002008607047500100200E
:1011300010B5FFF7CDF8FFF7E3F8BDE8104002F077
:10114000A2B8000010B50948FFF7F1FE0848FFF704
:10115000EEFE06484FF480410E38FFF703FF0448C7
:101160008021BDE81040C01FFFF7FCBE0E140240F6
:1011700007100240C0E90012AFF3008010B504462A
:10118000406881002068FFF746F800209FED020AC2
:10119000A06084ED030A10BD0000000080EC040A8A
:1011A00070470000014800F00BB80000580F002005
:1011B000024890EC040AFFF7F5BF0000D4000020BD
:1011C00070EE200AB5EE000A31EE212A21EE001A57
:1011D000C0ED000A80ED012A80ED021A21EE801A8E
:1011E00022EE000A80ED031A80EE201A80ED041A28
:1011F0007047000038B5364A00EBC00502EB8504A5
:10120000DFED340A638822F825300A8852BA6280FA
:101210004D886DBA00EE105A65608988B8EEC00A34
:1012200049BAA16020EE200ADFED2B0A84ED080AFE
:1012300000EE102AB8EE400A20EE200A8DED000ADA
:10124000217B21B184ED050A002121612173D11A8E
:1012500009B241F64C52914205DD2269A1F50051D7
:10126000521E226108E041F64C52D14204DA226952
:1012700001F50051521C226100EE101A9FED171A61
:1012800000EB8001B8EEC00A154884ED070A94ED22
:10129000050ADDED000A00EB8105284630EEC00AA4
:1012A000D4ED040AF8EEE00A00EE810A8DED000AA2
:1012B000FFF75DFC95ED030ADFED0A0A84ED060AEF
:1012C00095ED040A20EE200A84ED070A38BD0000DF
:1012D000CC0100206F12833ADB0F493ADB0FC94083
:1012E000540D002000007A4410B50446074900EB75
:1012F000840001EB8000FFF779FC054A04EBC40190
:1013000002EB81010120087310BD0000540D002084
:10131000CC01002008B58DF800008DF801108DF883
:10132000022001208DF80300684600F001F808BD96
:1013300030B50F22C47801780123FCB1144C246825
:1013400001F1E02104F4E064C4F5E064C4F307248F
:10135000C4F10405E2404478AC408578154025434B
:101360002A0181F80024007800F01F018B40400919
:10137000800000F1E020C0F8003130BD01F01F0016
:1013800083404809800000F1E020C0F8803130BD82
:101390000CED00E002490843024908607047000074
:1013A0000000FA050CED00E010B52DED028BFFF703
:1013B000D9F903211F48FFF785FC9FED1F8A1F48BD
:1013C000B0EE481AF0EE480AB0EE480AFFF7C3F94B
:1013D0001A48B0EE481AF0EE480AB0EE480A0C304F
:1013E000FFF7B9F91548F0EE481AB0EE481AF0EEDA
:1013F000480AB0EE480A3038FFF7D0FE0F48F0EE4A
:10140000481AB0EE481AF0EE480AB0EE480A203802
:10141000FFF7C4FEF0EE481AB0EE481AF0EE480AA4
:10142000B0EE480ABDEC028B0448BDE8104010380D
:10143000FFF7B4BE54010020000000009C0F002004
:1014400080EC080A70470000024991EC080AFFF797
:10145000F7BF0000E80000209FED030A80ED080AB6
:1014600080ED090A70470000000000002DE9FE4FE2
:101470001546DFF80484FF4ADDF830B008F10409AE
:101480001C460E46074609F1040A93457ED100200A
:101490000290A8F10400B0EB172F25D0B8EB172F5E
:1014A00022D0B9EB172F1FD0BAEB172F1CD00AF19F
:1014B0000400B0EB172F17D0001DB0EB172F13D07F
:1014C000001DB0EB172F0FD0001DB0EB172F0BD066
:1014D000001DB0EB172F07D0001DB0EB172F03D066
:1014E000001DB0EB172F05D101213846FFF726FC70
:1014F00001200290E048001FB0EB162F25D0B8EB7A
:10150000162F22D0B9EB162F1FD0BAEB162F1CD0F6
:10151000D9480C30B0EB162F17D0001DB0EB162FAA
:1015200013D0001DB0EB162F0FD0001DB0EB162FFF
:101530000BD0001DB0EB162F07D0001DB0EB162FFF
:1015400003D0001DB0EB162F07D101213046FFF765
:10155000F5FB029840F002000290C748001FB0EB74
:10156000152F27D0B8EB152F24D0B9EB152F21D08C
:10157000BAEB152F1ED0C0480C30B0EB152F19D088
:10158000001DB0EB152F15D0001D00E061E0B0EBA1
:10159000152F0FD0001DB0EB152F0BD0001DB0EB99
:1015A000152F07D0001DB0EB152F03D0001DB0EB99
:1015B000152F07D101212846FFF7C0FB029840F004
:1015C00004000290AC48001FB0EB142F25D0B8EBFC
:1015D000142F22D0B9EB142F1FD0BAEB142F1CD02C
:1015E000A5480C30B0EB142F17D0001DB0EB142F12
:1015F00013D0001DB0EB142F0FD0001DB0EB142F33
:101600000BD0001DB0EB142F07D0001DB0EB142F32
:1016100003D0001DB0EB142F07D101212046FFF7A6
:101620008DFB029840F0080002900020009001908D
:10163000DDE90D1302468F4801F0DEFB70228D4874
:101640000F9B029901F08CFD01218A4801F0BAFB41
:10165000B6E1BBF1804F7DD088498B45F8D10020A1
:1016600002908548001FB0EB172F25D0B8EB172F3D
:1016700022D0B9EB172F1FD0BAEB172F1CD07E4802
:101680000C30B0EB172F17D0001DB0EB172F13D075
:10169000001DB0EB172F0FD0001DB0EB172F0BD094
:1016A000001DB0EB172F07D0001DB0EB172F03D094
:1016B000001DB0EB172F05D102213846FFF73EFB86
:1016C000012002906C48001FB0EB162F25D0B8EB1C
:1016D000162F22D0B9EB162F1FD0BAEB162F1CD025
:1016E00065480C30B0EB162F17D0001DB0EB162F4D
:1016F00013D0001DB0EB162F0FD0001DB0EB162F2E
:101700000BD0001DB0EB162F07D0001DB0EB162F2D
:1017100003D0001DB0EB162F07D102213046FFF792
:101720000DFB029840F0020002905348001FB0EBFE
:10173000152F27D0B8EB152F24D0B9EB152F21D0BA
:10174000BAEB152F1ED04C480C30B0EB152F19D02A
:10175000001D00E065E0B0EB152F13D0001DB0EBCD
:10176000152F0FD0001DB0EB152F0BD0001DB0EBC7
:10177000152F07D0001DB0EB152F03D0001DB0EBC7
:10178000152F07D102212846FFF7D8FA029840F01A
:10179000040002903848001FB0EB142F25D0B8EB9E
:1017A000142F22D0B9EB142F1FD0BAEB142F1CD05A
:1017B00031480C30B0EB142F17D0001DB0EB142FB4
:1017C00013D0001DB0EB142F0FD0001DB0EB142F61
:1017D0000BD0001DB0EB142F07D0001DB0EB142F61
:1017E00003D0001DB0EB142F07D102212046FFF7D4
:1017F000A5FA029840F008000290002000900190A5
:10180000DDE90D1302461D4801F0F6FA70221B486F
:101810000F9B029901F0A4FC0121184801F0D2FAB3
:10182000AFE115484FF0000B001FB0EB172F2CD085
:10183000B8EB172F29D0B9EB172F26D0BAEB172FFB
:1018400023D00D480C30B0EB172F1ED0001DB0EB8D
:10185000172F1AD0001DB0EB172F16D0001DB0EBBC
:10186000172F12D0001DB0EB172F0ED0001DB0EBBC
:10187000172F05E000000140040240000004004072
:1018800003D0001DB0EB172F05D101213846FFF71B
:1018900055FA4FF0010BFC4FB7EB162F25D0B8EBE4
:1018A000162F22D0B9EB162F1FD0BAEB162F1CD053
:1018B000F5481030B0EB162F17D0001DB0EB162FE7
:1018C00013D0001DB0EB162F0FD0001DB0EB162F5C
:1018D0000BD0001DB0EB162F07D0001DB0EB162F5C
:1018E00003D0001DB0EB162F05D101213046FFF7C4
:1018F00025FA4BF0020BB7EB152F25D0B8EB152FBF
:1019000022D0B9EB152F1FD0BAEB152F1CD0DE4813
:101910001030B0EB152F17D0001DB0EB152F13D0E2
:10192000001DB0EB152F0FD0001DB0EB152F0BD005
:10193000001DB0EB152F07D0001DB0EB152F03D005
:10194000001DB0EB152F05D101212846FFF7F6F950
:101950004BF0040BB7EB142F25D0B8EB142F22D08B
:10196000B9EB142F1FD0BAEB142F1CD0C64810307F
:10197000B0EB142F17D0001DB0EB142F13D0001DA7
:10198000B0EB142F0FD0001DB0EB142F0BD0001DA7
:10199000B0EB142F07D0001DB0EB142F03D0001DA7
:1019A000B0EB142F05D101212046FFF7C7F94BF00A
:1019B000080B0020009002464FF080440190FDE3A8
:1019C000B2498B457ED100200290AF48B0EB172F73
:1019D00025D0B8EB172F22D0B9EB172F1FD0BAEBB9
:1019E000172F1CD0A8481030B0EB172F17D0001DB0
:1019F000B0EB172F13D0001DB0EB172F0FD0001D29
:101A0000B0EB172F0BD0001DB0EB172F07D0001D28
:101A1000B0EB172F03D0001DB0EB172F05D102211B
:101A20003846FFF78BF9012002909748B0EB162F4C
:101A300025D0B8EB162F22D0B9EB162F1FD0BAEB5A
:101A4000162F1CD090481030B0EB162F17D0001D69
:101A5000B0EB162F13D0001DB0EB162F0FD0001DCA
:101A6000B0EB162F0BD0001DB0EB162F07D0001DCA
:101A7000B0EB162F03D0001DB0EB162F07D10221BB
:101A80003046FFF75BF9029840F0020002907E4872
:101A9000B0EB152F27D0B8EB152F24D0B9EB152FAD
:101AA00021D0BAEB152F1ED077481030B0EB152F90
:101AB00019D0001DB0EB152F15D0001DB0EB152F60
:101AC00011D000E05DE0001DB0EB152F0BD0001D24
:101AD000B0EB152F07D0001DB0EB152F03D0001D64
:101AE000B0EB152F07D102212846FFF727F90298FE
:101AF00040F0040002906448B0EB142F25D0B8EBFE
:101B0000142F22D0B9EB142F1FD0BAEB142F1CD0F6
:101B10005D481030B0EB142F17D0001DB0EB142F20
:101B200013D0001DB0EB142F0FD0001DB0EB142FFD
:101B30000BD0001DB0EB142F07D0001DB0EB142FFD
:101B400003D0001DB0EB142F07D102212046FFF770
:101B5000F5F8029840F008000290002000900190F3
:101B6000DDE90D130246494801F046F97022474865
:101B70000F9B029901F0F4FA0121444801F022F987
:101B8000E7E043498B457DD1002002903E48B0EB11
:101B9000172F25D0B8EB172F22D0B9EB172F1FD056
:101BA000BAEB172F1CD038481030B0EB172F17D0D6
:101BB000001DB0EB172F13D0001DB0EB172F0FD067
:101BC000001DB0EB172F0BD0001DB0EB172F07D067
:101BD000001DB0EB172F03D0001DB0EB172F05D160
:101BE00002213846FFF7AAF8012002902648B0EB00
:101BF000162F25D0B8EB162F22D0B9EB162F1FD0F9
:101C0000BAEB162F1CD020481030B0EB162F17D08F
:101C1000001DB0EB162F13D0001DB0EB162F0FD008
:101C2000001DB0EB162F0BD0001DB0EB162F07D008
:101C3000001DB0EB162F03D0001DB0EB162F07D1FF
:101C400002213046FFF77AF8029840F00200029035
:101C50000D48B0EB152F2ED0B8EB152F2BD0B9EBCC
:101C6000152F28D0BAEB152F25D007481030B0EB30
:101C7000152F20D0001DB0EB152F1CD0001DB0EB90
:101C8000152F07E065E0000000024000000800405A
:101C9000000C00400FD0001DB0EB152F0BD0001D25
:101CA000B0EB152F07D0001DB0EB152F03D0001D92
:101CB000B0EB152F07D102212846FFF73FF8029815
:101CC00040F004000290FE48B0EB142F25D0B8EB92
:101CD000142F22D0B9EB142F1FD0BAEB142F1CD025
:101CE000F7481030B0EB142F17D0001DB0EB142FB5
:101CF00013D0001DB0EB142F0FD0001DB0EB142F2C
:101D00000BD0001DB0EB142F07D0001DB0EB142F2B
:101D100003D0001DB0EB142F07D102212046FFF79E
:101D20000DF8029840F00800029000200090019009
:101D3000DDE90D130246E34801F05EF87022E14848
:101D40000F9B029901F00CFA0121DE4801F03AF8EC
:101D5000E0E0DD498B457DD100200290D848B0EB12
:101D6000172F25D0B8EB172F22D0B9EB172F1FD084
:101D7000BAEB172F1CD0D2481030B0EB172F17D06A
:101D8000001DB0EB172F13D0001DB0EB172F0FD095
:101D9000001DB0EB172F0BD0001DB0EB172F07D095
:101DA000001DB0EB172F03D0001DB0EB172F05D18E
:101DB00003213846FEF7C2FF01200290C048B0EB75
:101DC000162F25D0B8EB162F22D0B9EB162F1FD027
:101DD000BAEB162F1CD0BA481030B0EB162F17D024
:101DE000001DB0EB162F13D0001DB0EB162F0FD037
:101DF000001DB0EB162F0BD0001DB0EB162F07D037
:101E0000001DB0EB162F03D0001DB0EB162F07D12D
:101E100003213046FEF792FF029840F00200029044
:101E2000A748B0EB152F27D0B8EB152F24D0B9EB6E
:101E3000152F21D0BAEB152F1ED0A1481030B0EBD2
:101E4000152F19D0001DB0EB152F15D0001DB0EBCC
:101E5000152F00E05EE00FD0001DB0EB152F0BD06A
:101E6000001DB0EB152F07D0001DB0EB152F03D0D0
:101E7000001DB0EB152F07D103212846FEF75EFFAA
:101E8000029840F0040002908D48B0EB142F25D04A
:101E9000B8EB142F22D0B9EB142F1FD0BAEB142FAC
:101EA0001CD087481030B0EB142F17D0001DB0EBBA
:101EB000142F13D0001DB0EB142F0FD0001DB0EB6A
:101EC000142F0BD0001DB0EB142F07D0001DB0EB6A
:101ED000142F03D0001DB0EB142F07D1032120468F
:101EE000FEF72CFF029840F00800029000200090BE
:101EF0000190DDE90D130246734800F07DFF70226A
:101F000071480F9B029901F02BF901216E4800F0F6
:101F100059FFEAE06D498B457ED100200290684868
:101F2000B0EB172F25D0B8EB172F22D0B9EB172F16
:101F30001FD0BAEB172F1CD061481030B0EB172F11
:101F400017D0001DB0EB172F13D0001DB0EB172FCB
:101F50000FD0001DB0EB172F0BD0001DB0EB172FCB
:101F600007D0001DB0EB172F03D0001DB0EB172FCB
:101F700005D103213846FEF7E1FE012002905048CA
:101F8000B0EB162F25D0B8EB162F22D0B9EB162FB9
:101F90001FD0BAEB162F1CD049481030B0EB162FCB
:101FA00017D0001DB0EB162F13D0001DB0EB162F6D
:101FB0000FD0001DB0EB162F0BD0001DB0EB162F6D
:101FC00007D0001DB0EB162F03D0001DB0EB162F6D
:101FD00007D103213046FEF7B1FE029840F002001F
:101FE00002903748B0EB152F27D0B8EB152F24D02F
:101FF000B9EB152F21D0BAEB152F1ED03048103079
:10200000B0EB152F19D0001DB0EB152F15D0001D0A
:10201000B0EB152F11D000E067E0001DB0EB152FDD
:102020000BD0001DB0EB152F07D0001DB0EB152F06
:1020300003D0001DB0EB152F07D103212846FEF772
:102040007DFE029840F0040002901D48B0EB142F72
:1020500025D0B8EB142F22D0B9EB142F1FD0BAEB38
:10206000142F1CD016481030B0EB142F17D0001DC1
:10207000B0EB142F13D0001DB0EB142F0FD0001DA8
:10208000B0EB142F0BD0001DB0EB142F07D0001DA8
:10209000B0EB142F03D0001DB0EB142F07D1032198
:1020A0002046FEF74BFE029840F008000290002008
:1020B00000900190DDE90D130246044808E000009D
:1020C00000024000000C00400004014000400140BC
:1020D00000F092FE7022FE480F9B029901F040F83A
:1020E0000121FB4800F06EFEE1E0FA498B4566D124
:1020F00000200290F848B0EB172F25D0B8EB172F2F
:1021000022D0B9EB172F1FD0BAEB172F1CD0F248F3
:102110001030B0EB172F17D0001DB0EB172F13D0D6
:10212000001DB0EB172F0FD0001DB0EB172F0BD0F9
:10213000001DB0EB172F07D0001DB0EB172F03D0F9
:10214000001DB0EB172F05D103213846FEF7F6FD31
:1021500001200290E048B0EB162F25D0B8EB162FE7
:1021600022D0B9EB162F1FD0BAEB162F1CD0DA48AD
:102170001030B0EB162F17D0001DB0EB162F13D078
:10218000001DB0EB162F0FD0001DB0EB162F0BD09B
:10219000001DB0EB162F07D0001DB0EB162F03D09B
:1021A000001DB0EB162F07D103213046FEF7C6FD08
:1021B000029840F002000290C74801E00EE376E08A
:1021C000B0EB152F25D0B8EB152F22D0B9EB152F7A
:1021D0001FD0BAEB152F1CD0BF481030B0EB152F15
:1021E00017D0001DB0EB152F13D0001DB0EB152F2D
:1021F0000FD0001DB0EB152F0BD0001DB0EB152F2D
:1022000007D0001DB0EB152F03D0001DB0EB152F2C
:1022100007D103212846FEF791FD029840F0040003
:102220000290AD48B0EB142F25D0B8EB142F22D07C
:10223000B9EB142F1FD0BAEB142F1CD0A6481030C6
:10224000B0EB142F17D0001DB0EB142F13D0001DCE
:10225000B0EB142F0FD0001DB0EB142F0BD0001DCE
:10226000B0EB142F07D0001DB0EB142F03D0001DCE
:10227000B0EB142F07D103212046FEF75FFD029833
:1022800040F008000290002000900190DDE90D135D
:102290000246904800F0B0FD70228E480F9B0299D4
:1022A00000F05EFF01218B4800F08CFDE0E08B49DF
:1022B0008B457DD1002002908748B0EB172F25D0A9
:1022C000B8EB172F22D0B9EB172F1FD0BAEB172F6F
:1022D0001CD081481030B0EB172F17D0001DB0EB89
:1022E000172F13D0001DB0EB172F0FD0001DB0EB30
:1022F000172F0BD0001DB0EB172F07D0001DB0EB30
:10230000172F03D0001DB0EB172F05D1032138463E
:10231000FEF714FD012002906F48B0EB162F25D078
:10232000B8EB162F22D0B9EB162F1FD0BAEB162F11
:102330001CD069481030B0EB162F17D0001DB0EB41
:10234000162F13D0001DB0EB162F0FD0001DB0EBD1
:10235000162F0BD0001DB0EB162F07D0001DB0EBD1
:10236000162F03D0001DB0EB162F07D103213046E6
:10237000FEF7E4FC029840F0020002905648B0EBF1
:10238000152F27D0B8EB152F24D0B9EB152F21D05E
:10239000BAEB152F1ED050481030B0EB152F19D0C6
:1023A000001DB0EB152F15D0001DB0EB152F00E070
:1023B0005EE00FD0001DB0EB152F0BD0001DB0EB71
:1023C000152F07D0001DB0EB152F03D0001DB0EB6B
:1023D000152F07D103212846FEF7B0FC029840F0E4
:1023E000040002903C48B0EB142F25D0B8EB142F1A
:1023F00022D0B9EB142F1FD0BAEB142F1CD03648C3
:102400001030B0EB142F17D0001DB0EB142F13D0E9
:10241000001DB0EB142F0FD0001DB0EB142F0BD00C
:10242000001DB0EB142F07D0001DB0EB142F03D00C
:10243000001DB0EB142F07D103212046FEF77EFCD0
:10244000029840F008000290002000900190DDE921
:102450000D130246214800F0CFFC70221F480F9B4D
:10246000029900F07DFE01211C4800F0ABFCEBE07E
:102470001B498B457ED1002002901748B0EB172FE7
:1024800025D0B8EB172F22D0B9EB172F1FD0BAEBFE
:10249000172F1CD010481030B0EB172F17D0001D8D
:1024A000B0EB172F13D0001DB0EB172F0FD0001D6E
:1024B000B0EB172F0BD0001DB0EB172F07D0001D6E
:1024C000B0EB172F03D0001DB0EB172F10D109E090
:1024D000004001400044014000024000004801402B
:1024E0000018004009213846FEF728FC0120029020
:1024F000FB48B0EB162F25D0B8EB162F22D0B9EB46
:10250000162F1FD0BAEB162F1CD0F5481030B0EBA9
:10251000162F17D0001DB0EB162F13D0001DB0EBF7
:10252000162F0FD0001DB0EB162F0BD0001DB0EBF7
:10253000162F07D0001DB0EB162F03D0001DB0EBF7
:10254000162F07D109213046FEF7F8FB029840F01C
:1025500002000290E248B0EB152F27D0B8EB152F00
:1025600024D0B9EB152F21D0BAEB152F1ED0DC48A3
:10257000103000E068E0B0EB152F17D0001DB0EB75
:10258000152F13D0001DB0EB152F0FD0001DB0EB91
:10259000152F0BD0001DB0EB152F07D0001DB0EB91
:1025A000152F03D0001DB0EB152F07D109212846A8
:1025B000FEF7C4FB029840F004000290C848B0EB5C
:1025C000142F25D0B8EB142F22D0B9EB142F1FD025
:1025D000BAEB142F1CD0C2481030B0EB142F17D018
:1025E000001DB0EB142F13D0001DB0EB142F0FD033
:1025F000001DB0EB142F0BD0001DB0EB142F07D033
:10260000001DB0EB142F03D0001DB0EB142F07D129
:1026100009212046FEF792FB029840F00800029044
:10262000002000900190DDE90D130246AD4800F056
:10263000E3FB7022AB480F9B029900F091FD012152
:10264000A84800F0BFFBCAE0A7498B457ED1A4484B
:102650004FF0000BB0EB172F25D0B8EB172F22D07F
:10266000B9EB172F1FD0BAEB172F1CD09C48103096
:10267000B0EB172F17D0001DB0EB172F13D0001D94
:10268000B0EB172F0FD0001DB0EB172F0BD0001D94
:10269000B0EB172F07D0001DB0EB172F03D0001D94
:1026A000B0EB172F05D109213846FEF747FB4FF055
:1026B000010B8B4FB7EB162F25D0B8EB162F22D07E
:1026C000B9EB162F1FD0BAEB162F1CD08448103050
:1026D000B0EB162F17D0001DB0EB162F13D0001D36
:1026E000B0EB162F0FD0001DB0EB162F0BD0001D36
:1026F000B0EB162F07D0001DB0EB162F03D0001D36
:10270000B0EB162F05D109213046FEF717FB4BF031
:10271000020BB7EB152F27D0B8EB152F24D0B9EB50
:10272000152F21D0BAEB152F1ED06D481030B0EB0D
:10273000152F19D0001DB0EB152F15D0001DB0EBD3
:10274000152F11D0001DB0EB152F00E047E00BD086
:10275000001DB0EB152F07D0001DB0EB152F03D0D7
:10276000001DB0EB152F05D109212846FEF7E6FA2A
:102770004BF0040BB7EB142F25D0B8EB142F22D05D
:10278000B9EB142F1FD0BAEB142F1CD054481030C3
:10279000B0EB142F17D0001DB0EB142F13D0001D79
:1027A000B0EB142F0FD0001DB0EB142F0BD0001D79
:1027B000B0EB142F07D0001DB0EB142F03D0001D79
:1027C000B0EB142F05D109212046FEF7B7FA4BF0E4
:1027D000080B002000900246434C0190D0E0434992
:1027E0008B457CD13E484FF0000BB0EB172F25D026
:1027F000B8EB172F22D0B9EB172F1FD0BAEB172F3A
:102800001CD037481030B0EB172F17D0001DB0EB9D
:10281000172F13D0001DB0EB172F0FD0001DB0EBFA
:10282000172F0BD0001DB0EB172F07D0001DB0EBFA
:10283000172F03D0001DB0EB172F05D10921384603
:10284000FEF77CFA4FF0010B254FB7EB162F25D082
:10285000B8EB162F22D0B9EB162F1FD0BAEB162FDC
:102860001CD01F481030B0EB162F17D0001DB0EB56
:10287000162F13D0001DB0EB162F0FD0001DB0EB9C
:10288000162F0BD0001DB0EB162F07D0001DB0EB9C
:10289000162F03D0001DB0EB162F05D109213046AD
:1028A000FEF74CFA4BF0020BB7EB152F2FD0B8EB1D
:1028B000152F2CD0B9EB152F29D0BAEB152F26D018
:1028C00007481030B0EB152F21D0001DB0EB152FAD
:1028D0001DD0001DB0EB152F19D0001D08E061E0E0
:1028E0000002400000180040001C00400020004092
:1028F000B0EB152F0BD0001DB0EB152F07D0001D2E
:10290000B0EB152F03D0001DB0EB152F05D1092119
:102910002846FEF713FA4BF0040BB7EB142F24D024
:10292000B8EB142F21D0B9EB142F1ED0BAEB142F13
:102930001BD01D48B0EB142F17D0001DB0EB142F87
:1029400013D0001DB0EB142F0FD0001DB0EB142FCF
:102950000BD0001DB0EB142F07D0001DB0EB142FCF
:1029600003D0001DB0EB142F05D109212046FEF73E
:10297000E5F94BF0080B00200C4C0090024601904A
:10298000DDE90D13204600F037FA70225946204643
:102990000F9B00F0E5FB03B02046BDE8F04F01219E
:1029A00000F010BABDE8FE8F100240000020004089
:1029B0001FB54FF47A700F4C40F6C41153220094A7
:1029C0000390CDE901210C4B5A1E511E481EFEF703
:1029D0004DFD0121204600F005FA064940F2A460B1
:1029E00040310860091F0860091F0860091F08605E
:1029F0001FBD0000000800400F0C0240044A0029DF
:102A0000116801D0014300E081431160704700006C
:102A100030380240044A0029116801D0014300E027
:102A2000814311607047000040380240044A002989
:102A3000116801D0014300E081431160704700003C
:102A40004438024070B5204A1168204C11F00C0146
:102A500004D01F4E042903D0082903D004601BE0D2
:102A6000066019E01849091F0B68C3F380550B680D
:102A700003F03F0315B1B6FBF3F301E0B4FBF3F34E
:102A80000C680968C4F388146343C1F30141491C0D
:102A90004900B3FBF1F1016011680F2303EA111142
:102AA0000C4B5C5C0168E14041601468072505EA55
:102AB00094241C5D21FA04F48460126805EA523201
:102AC0009A5CD140C16070BD083802400024F40017
:102AD000001BB700A201002070B5084A0020131D9A
:102AE000941C161F0146951E115443F820102154C2
:102AF00031542954401C0228F6D370BD5C010020DB
:102B00000A88C2F30A0202804A788B78D20842EA25
:102B10004312C2F30A0242808A78CB78920942EAD1
:102B200083020B7942EA8322C2F30A0282800A7985
:102B30004B79520842EAC312C2F30A02C2804A79B0
:102B4000920902724979C1F3011141727047000084
:102B500000214FF4806200BF20F81120491CC9B247
:102B60000429F9D3002103224318491CC9B21A725F
:102B70000229F9D3704700F001B8000010B50446EF
:102B8000002001F01BFD21460548FDF765FF0448C4
:102B9000FEF75EFABDE810400148FEF747BA0000B4
:102BA000980E0020016070470249D1F80C11FFF720
:102BB000F9BF0000000000200021416070470000C4
:102BC00010B5FDF7A3FE0449096801E08860C968F3
:102BD0000029FBD110BD00006801002070B5FDF791
:102BE00095FE0546094804680DE0A068A84201D298
:102BF000281A01E0C04328446168814202D8206855
:102C00008047A560E468002CEFD170BD680100200A
:102C10001CB500202E49019000900A6842F48032D1
:102C20000A604FF4A0430A6802F400320092019A4D
:102C3000521C0192009A12B9019A9A42F3D10A6881
:102C4000920342D50120009021484030026842F0B2
:102C5000805202601F48026842F4404202601C4AEF
:102C6000083213681360136843F400431360136859
:102C700043F4A0531360141F174B23600B6843F0F9
:102C800080730B600B689B01FCD5016841F48031B7
:102C900001604168C903FCD5016841F4003101605D
:102CA00041688903FCD50D4940F205700860106841
:102CB00020F003001060106840F0020010601068FF
:102CC000C0F381000228FAD11CBD00901CBD000099
:102CD00000380240007000400C544007003C0240A5
:102CE000FFF77CBF10B5084C0121204600F07AF8B0
:102CF00001221146204600F02DF92046BDE8104083
:102D0000012100F069B8000000100040124810B521
:102D1000016841F4700101601048016841F001014F
:102D200001600E4A00210832116002680C4B1A4003
:102D30000260031D0B4A1A60026822F480220260BE
:102D400006480C300160FFF763FF03494FF0006055
:102D50008039086010BD000088ED00E000380240B6
:102D6000FFFFF6FE1030002410B501218C0720462D
:102D700000F0E4F800280BD00121204600F02FF8E5
:102D80000121204600F028F8BDE8104000F068BAA4
:102D900010BD000010B50A4C0121204600F0CEF80D
:102DA00000280BD00121204600F019F8012120460F
:102DB00000F012F8BDE81040FFF792BF10BD000010
:102DC000001000400029018802D041F0800101E09C
:102DD00021F0800101807047C94301827047C943D7
:102DE000018270470029018802D041F0010101E011
:102DF00021F00101018070472DE9FF4F434904464E
:102E00004348444D444EDFF81481DFF81491DFF855
:102E100014A1DFF814B183B04FEAB1478C4204D15A
:102E200001210846FFF702FE0CE0B4F1804F06D006
:102E3000844207D101210220FFF7ECFD09E00121C6
:102E4000084645E0AC4204D101210420FFF7E2FD31
:102E500006E0B44204D101210820FFF7DBFD06E0C3
:102E6000BC4204D101211020FFF7D4FD06E0444507
:102E700004D101212020FFF7CDFD06E04C4504D10F
:102E800001210220FFF7D2FD06E0544504D10121C3
:102E90000804FFF7CBFD06E05C4504D1012148049E
:102EA000FFF7C4FD07E02148844204D101218804D2
:102EB000FFF7BCFD07E01E48844204D101214020F9
:102EC000FFF7A8FD07E01B48844204D101218020C0
:102ED000FFF7A0FD05E01848844202D101218015CA
:102EE000F6E70498ADF800000598ADF802000698E2
:102EF00001901098ADF8080011988DF80A00694605
:102F0000204600F06FF907B0BDE8F08F00000140E7
:102F10000004004000080040000C00400014004085
:102F200000040140004001400044014000480140CD
:102F300000180040001C0040002000400246002015
:102F4000138A92890B4202EA010202D0002A00D0C1
:102F500001207047002A828901D00A4300E08A4399
:102F60008281704730B5028C22F001020284028C0B
:102F70008388048B22F0020224F073050C882C4312
:102F80008D8915434A882A430C4DA84202D00C4D26
:102F9000A8420DD122F00805CA8923F440732A43C0
:102FA00022F004058A882A430D8A1D434B8A2B434D
:102FB0008380048389684163028430BD000001403E
:102FC00000040140028B22F008020A43028370478A
:102FD00070B5028C22F010020284028C8488038B6C
:102FE0000D8823F4E6464FF6FF7303EA05253543C3
:102FF0008E8922F0200203EA061616434A8803EA65
:1030000002123243104EB04202D0104EB04215D1DF
:1030100022F08006CA8924F4406403EA0212324393
:1030200022F040068A8803EA021232430E8A03EA3B
:10303000860626434C8A03EA84043443848005834D
:1030400089688163028470BD000001400004014072
:10305000028B4FF6FF7322F4006203EA0121114351
:103060000183704770B5028C22F480720284028C56
:103070008488838B0D8823F073031D4322F400732F
:103080008E894FF6FF7202EA06261E434B8802EA3B
:1030900003233343104EB04202D0104EB04215D13C
:1030A00023F40066CB8924F4405402EA032333431B
:1030B00023F480668B8802EA032333430E8A02EAF4
:1030C000061626434C8A02EA04143443848085831E
:1030D0008968C163038470BD0000014000040140A1
:1030E000828B22F008020A438283704770B5028CFB
:1030F00022F480520284048C8288838B0D8823F40E
:10310000E6464FF6FF7303EA0525354324F40056DF
:103110008C8903EA043434434E8803EA0636264396
:10312000084CA04202D0084CA04205D122F48044B1
:103130000A8A03EA821222438280858389680164B5
:10314000068470BD0000014000040140828B4FF6F0
:10315000FF7322F4006203EA012111438183704767
:1031600030B585B00546ADF8002001200C46ADF81D
:10317000020000210220ADF80C00ADF81010C001D3
:10318000ADF81200ADF804100293ADF80E10E00790
:1031900007D069462846FFF7E5FE08212846FFF7D5
:1031A00011FFA00707D569462846FFF711FF082140
:1031B0002846FFF74DFF600707D569462846FFF709
:1031C00051FF08212846FFF78BFF200707D56946E6
:1031D0002846FFF78BFF08212846FFF7B7FF05B009
:1031E00030BD000030B50288164B174C98420DD008
:1031F000A0420BD0B0F1804F08D0144DA84205D0AA
:10320000134DA84202D0134DA84203D122F07005FD
:103210004A882A43104DA84206D0104DA84203D038
:1032200022F440750A892A4302804A68C2620A88E9
:103230000285984201D0A04201D1897A01860121FC
:10324000818230BD000001400004014000040040C4
:1032500000080040000C0040001000400014004036
:10326000FDF762BB10B501218C072046FFF7BAFDC0
:10327000012211462046FFF76DFE2046BDE81040B2
:103280000121FFF7A9BD10B5FFF7ECFFBDE8104025
:10329000FFF728BDAFF30080012001F08FB90000D7
:1032A00070B51B4E40F224442146304601F0E9F847
:1032B00000282BD0174D2146304601F003F8164C5C
:1032C00000212046FDF7EAFB2046FDF7F1FBC0F1A7
:1032D000240086B22420211D08602046FDF7EBFB68
:1032E00078B12068243520F4002020600121204698
:1032F000FDF7D4FB122E09D12846BDE87040FFF738
:103300003ABC206840F400202060EFE770BD000068
:103310000010014004140020406402407CB5234D9D
:1033200040F227763146284601F0ABF80024C0B1C0
:103330001F48FDF782FC38B102B031462846BDE88F
:103340007040002201F0BCB88DF8004001226946AF
:103350001748FDF780FC9DF80010284601F022F97F
:103360007CBD40F22551284601F08BF80028F7D0AB
:10337000284601F013F98DF800000D481438FDF7C8
:1033800062FC38B10A488DF80440012201A91438C2
:10339000FDF761FC0648012269461438FDF775FC0B
:1033A0009DF80000FCF7C2FF7CBD00000044004017
:1033B000C80F00207CB5234D40F2277631462846C1
:1033C00001F05FF80024C0B11F48FDF736FC38B1AA
:1033D00002B031462846BDE87040002201F070B8C6
:1033E0008DF80040012269461748FDF734FC9DF82E
:1033F0000010284601F0D6F87CBD40F22551284641
:1034000001F03FF80028F7D0284601F0C7F88DF802
:1034100000000D481438FDF716FC38B10A488DF845
:103420000440012201A91438FDF715FC06480122C9
:1034300069461438FDF729FC9DF80000FDF742FBB2
:103440007CBD000000480040F01100207CB5234DF9
:1034500040F227763146284601F013F80024C0B127
:103460001F48FDF7EAFB38B102B031462846BDE8F7
:103470007040002201F024B88DF800400122694616
:103480001748FDF7E8FB9DF80010284601F08AF880
:103490007CBD40F22551284600F0F3FF0028F7D00C
:1034A000284601F07BF88DF800000D481438FDF730
:1034B000CAFB38B10A488DF80440012201A914382A
:1034C000FDF7C9FB0648012269461438FDF7DDFB0C
:1034D0009DF80000FFF7DEFE7CBD000000140140F7
:1034E000601400202DE9FF4F0C462DED020B054620
:1034F0002DED028B83B0B0EE408ADDE91576FE49F2
:10350000DFF8F893099809F1040A0AF1040B8842DC
:103510007ED1A9F10400B0EB152F25D0B9EB152F02
:1035200022D0BAEB152F1FD0BBEB152F1CD00BF1FF
:103530000401B1EB152F17D0091DB1EB152F13D0D6
:10354000091DB1EB152F0FD0091DB1EB152F0BD0B5
:10355000091DB1EB152F07D0091DB1EB152F03D0B5
:10356000091DB1EB152F38D1B0EB142F25D0B9EBD5
:10357000142F22D0BAEB142F1FD0BBEB142F1CD06A
:10358000DE490C31B1EB142F17D0091DB1EB142F0C
:1035900013D0091DB1EB142F0FD0091DB1EB142F5F
:1035A0000BD0091DB1EB142F07D0091DB1EB142F5F
:1035B00003D0091DB1EB142F0FD107212846FDF7C9
:1035C000BDFB07212046FDF7B9FBCDE90076B0EE43
:1035D000480A2021149B0A9A6DE0B0EB152F2DD0DC
:1035E000B9EB152F2AD0BAEB152F27D0BBEB152F2F
:1035F00024D0C24B0C33B3EB152F1FD003F1040EB4
:10360000BEEB152F1AD00EF10403B3EB152F00E01B
:1036100055E013D003F1040CBCEB152F0ED00CF1C8
:103620000408B8EB152F09D008F10408B8EB152FE2
:1036300004D008F10408B8EB152F0BD10721284658
:10364000FDF77CFBCDE90076B0EE480A7221149BB1
:103650000A9A30E0B0EB142F22D0B9EB142F1FD010
:10366000BAEB142F1CD0BBEB142F19D0A3480C308D
:10367000B0EB142F14D0BEEB142F11D0B3EB142FDA
:103680000ED0BCEB142F0BD09C481C30B0EB142F89
:1036900006D0001DB0EB142F02D0B8EB142F76D15A
:1036A00007212046FDF74AFBCDE90076149B0A9AD4
:1036B000B0EE480A7421904800F014FED8E00146AC
:1036C0008F4881427DD18D48001FB0EB152F25D04A
:1036D000B9EB152F22D0BAEB152F1FD0BBEB152F4E
:1036E0001CD086490C31B1EB152F17D0091DB1EB59
:1036F000152F13D0091DB1EB152F0FD0091DB1EBFC
:10370000152F0BD0091DB1EB152F07D0091DB1EBFB
:10371000152F03D0091DB1EB152F39D1B0EB142FA4
:1037200025D0B9EB142F22D0BAEB142F1FD0BBEB4E
:10373000142F1CD071490C31B1EB142F17D0091D77
:10374000B1EB142F13D0091DB1EB142F0FD0091DAD
:10375000B1EB142F0BD0091DB1EB142F07D0091DAD
:10376000B1EB142F03D0091DB1EB142F10D1072199
:103770002846FDF7E3FA07212046FDF7DFFACDE9F9
:103780000076B0EE480A2021149B0A9A6CE0FDE313
:10379000B0EB152F2DD0B9EB152F2AD0BAEB152F82
:1037A00027D0BBEB152F24D0544A0C32B2EB152F87
:1037B0001FD002F1040EBEEB152F1AD00EF1040338
:1037C00000E055E0B3EB152F13D003F1040CBCEB74
:1037D000152F0ED00CF10408B8EB152F09D008F105
:1037E0000408B8EB152F04D008F10408B8EB152F26
:1037F0000BD107212846FDF7A1FACDE90076B0EEFE
:10380000480A7221149B0A9A2EE0B0EB142F20D0A4
:10381000B9EB142F1DD0BAEB142F1AD0BBEB142F19
:1038200017D0B2EB142F14D0BEEB142F11D0B3EB82
:10383000142F0ED0BCEB142F0BD030481C30B0EB43
:10384000142F06D0001DB0EB142F02D0B8EB142FAC
:103850000DD107212046FDF771FACDE90076149BC2
:103860000A9AB0EE480A7421254800F03BFDE1E0D9
:103870002449099888427DD12048001FB0EB152FBC
:1038800025D0B9EB152F22D0BAEB152F1FD0BBEBEB
:10389000152F1CD019490C31B1EB152F17D0091D6C
:1038A000B1EB152F13D0091DB1EB152F0FD0091D4A
:1038B000B1EB152F0BD0091DB1EB152F07D0091D4A
:1038C000B1EB152F03D0091DB1EB152F41D1B0EB92
:1038D000142F2ED0B9EB142F2BD0BAEB142F28D0E5
:1038E000BBEB142F25D005490C31B1EB142F20D0A0
:1038F000091DB1EB142F07E0001001400402400045
:10390000004400400048004013D0091DB1EB142FC3
:103910000FD0091DB1EB142F0BD0091DB1EB142FE3
:1039200007D0091DB1EB142F03D0091DB1EB142FE3
:103930000FD107212846FDF701FA07212046FDF7A0
:10394000FDF9CDE90076B0EE480A2021149B0A9AD1
:103950006CE0B0EB152F2CD0B9EB152F29D0BAEBBA
:10396000152F26D0BBEB152F23D0DFF878E4BEEB64
:10397000152F00E05EE01CD00EF10403B3EB152F11
:1039800017D01B1DB3EB152F13D003F1040CBCEBA8
:10399000152F0ED00CF10408B8EB152F09D008F143
:1039A0000408B8EB152F04D008F10408B8EB152F64
:1039B0000BD107212846FDF7C1F9CDE90076B0EE1D
:1039C000480A7221149B0A9A30E0B0EB142F22D0DF
:1039D000B9EB142F1FD0BAEB142F1CD0BBEB142F54
:1039E00019D0BEEB142F16D0FE48001DB0EB142FDB
:1039F00011D0B3EB142F0ED0BCEB142F0BD0F94821
:103A00001030B0EB142F06D0001DB0EB142F02D0F5
:103A1000B8EB142F0DD107212046FDF78FF9CDE922
:103A20000076149B0A9AB0EE480A7421EE4800F022
:103A300059FCD6E0ED48099981427CD1E94810381B
:103A4000B0EB152F24D0B9EB152F21D0BAEB152FE1
:103A50001ED0BBEB152F1BD0E249B1EB152F17D0B1
:103A6000091DB1EB152F13D0091DB1EB152F0FD088
:103A7000091DB1EB152F0BD0091DB1EB152F07D088
:103A8000091DB1EB152F03D0091DB1EB152F37D14F
:103A9000B0EB142F24D0B9EB142F21D0BAEB142F94
:103AA0001ED0BBEB142F1BD0CE49B1EB142F17D077
:103AB000091DB1EB142F13D0091DB1EB142F0FD03A
:103AC000091DB1EB142F0BD0091DB1EB142F07D03A
:103AD000091DB1EB142F03D0091DB1EB142F0FD129
:103AE00008212846FDF72AF908212046FDF726F986
:103AF000CDE90076B0EE480A2021149B0A9A6CE0CA
:103B0000B0EB152F2CD0B9EB152F29D0BAEB152F10
:103B100026D0BBEB152F23D0DFF8C8E2BEEB152F64
:103B20001ED00EF10403B3EB152F19D01B1DB3EB00
:103B3000152F15D000E054E003F1040CBCEB152F59
:103B40000ED00CF10408B8EB152F09D008F10408C9
:103B5000B8EB152F04D008F10408B8EB152F0BD1E2
:103B600008212846FDF7EAF8CDE90076B0EE480ACC
:103B70007221149B0A9A30E0B0EB142F22D0B9EBDB
:103B8000142F1FD0BAEB142F1CD0BBEB142F19D05D
:103B9000BEEB142F16D09348001DB0EB142F11D09C
:103BA000B3EB142F0ED0BCEB142F0BD08D4810307C
:103BB000B0EB142F06D0001DB0EB142F02D0B8EBE1
:103BC000142F0DD108212046FDF7B8F8CDE9007675
:103BD000149B0A9AB0EE480A7421844800F082FBD4
:103BE000D6E08348099981427ED17E481038B0EBF7
:103BF000152F24D0B9EB152F21D0BAEB152F1ED0DD
:103C0000BBEB152F1BD07749B1EB152F17D0091D32
:103C1000B1EB152F13D0091DB1EB152F0FD0091DD6
:103C2000B1EB152F0BD0091DB1EB152F07D0091DD6
:103C3000B1EB152F03D0091DB1EB152F37D1B0EB28
:103C4000142F24D0B9EB142F21D0BAEB142F1ED08F
:103C5000BBEB142F1BD06349B1EB142F17D0091DF8
:103C6000B1EB142F13D0091DB1EB142F0FD0091D88
:103C7000B1EB142F0BD0091DB1EB142F07D0091D88
:103C8000B1EB142F03D0091DB1EB142F0FD1082174
:103C90002846FDF753F808212046FDF74FF8CDE9F7
:103CA0000076B0EE480A2021149B0A9A6CE0B0EB33
:103CB000152F2CD0B9EB152F29D0BAEB152F26D004
:103CC000BBEB152F23D0DFF81CE1BEEB152F1ED068
:103CD0000EF10403B3EB152F19D01B1DB3EB152FF9
:103CE00015D003F1040C00E052E0BCEB152F0ED010
:103CF0000CF10408B8EB152F09D008F10408B8EB53
:103D0000152F04D008F10408B8EB152F0BD10821AA
:103D10002846FDF713F8CDE90076B0EE480A722187
:103D2000149B0A9A30E0B0EB142F22D0B9EB142F79
:103D30001FD0BAEB142F1CD0BBEB142F19D0BEEB45
:103D4000142F16D02748001DB0EB142F11D0B3EB61
:103D5000142F0ED0BCEB142F0BD022481030B0EB38
:103D6000142F06D0001DB0EB142F02D0B8EB142F87
:103D70000DD108212046FCF7E1FFCDE90076149B28
:103D80000A9AB0EE480A7421194800F0ABFAE1E053
:103D90001849099888427DD112481038B0EB152F88
:103DA0002FD0B9EB152F2CD0BAEB152F29D0BBEBA8
:103DB000152F26D00B49B1EB152F22D0091DB1EBE1
:103DC000152F1ED0091DB1EB152F1AD0091DB1EB0F
:103DD000152F16D0091DB1EB152F12D0091DB1EB0F
:103DE000152F09E01002400000480040004C004040
:103DF000005000400014014003D0091DB1EB152F05
:103E000037D1B0EB142F24D0B9EB142F21D0BAEB5B
:103E1000142F1ED0BBEB142F1BD0FE49B1EB142F77
:103E200017D0091DB1EB142F13D0091DB1EB142FBE
:103E30000FD0091DB1EB142F0BD0091DB1EB142FBE
:103E400007D0091DB1EB142F03D0091DB1EB142FBE
:103E50000FD108212846FCF771FF08212046FCF706
:103E60006DFFCDE90076B0EE480A2021149B0A9A36
:103E70006CE0B0EB152F2CD0B9EB152F29D0BAEB95
:103E8000152F26D0BBEB152F23D0DFF888E3BEEB30
:103E9000152F00E05EE01CD00EF10403B3EB152FEC
:103EA00017D01B1DB3EB152F13D003F1040CBCEB83
:103EB000152F0ED00CF10408B8EB152F09D008F11E
:103EC0000408B8EB152F04D008F10408B8EB152F3F
:103ED0000BD108212846FCF731FFCDE90076B0EE82
:103EE000480A7221149B0A9A30E0B0EB142F22D0BA
:103EF000B9EB142F1FD0BAEB142F1CD0BBEB142F2F
:103F000019D0BEEB142F16D0C248001DB0EB142FF1
:103F100011D0B3EB142F0ED0BCEB142F0BD0BD4837
:103F20001030B0EB142F06D0001DB0EB142F02D0D0
:103F3000B8EB142F0DD108212046FCF7FFFECDE988
:103F40000076149B0A9AB0EE480A7421B24800F039
:103F5000C9F9D3E0B148099981427DD1AD48103803
:103F6000B0EB152F26D0B9EB152F23D0BAEB152FB8
:103F700020D0BBEB152F1DD0A649B1EB152F19D0C2
:103F8000091DB1EB152F15D0091D00E01CE1B1EBA7
:103F9000152F0FD0091DB1EB152F0BD0091DB1EB5B
:103FA000152F07D0091DB1EB152F03D0091DB1EB5B
:103FB000152F37D1B0EB142F24D0B9EB142F21D00B
:103FC000BAEB142F1ED0BBEB142F1BD09149B1EBD1
:103FD000142F17D0091DB1EB142F13D0091DB1EB0D
:103FE000142F0FD0091DB1EB142F0BD0091DB1EB0D
:103FF000142F07D0091DB1EB142F03D0091DB1EB0D
:10400000142F0FD108212846FCF798FE08212046DE
:10401000FCF794FECDE90076B0EE480A2021149B0F
:104020000A9A69E08646B0EB152F2BD0B9EB152F15
:1040300028D0BAEB152F25D05846BBEB152F21D031
:104040007449B1EB152F1DD00A1DB2EB152F19D0F5
:10405000131DB3EB152F00E050E013D003F1040C57
:10406000BCEB152F0ED00CF10408B8EB152F09D0BE
:1040700008F1040BBBEB152F04D00BF10408B8EBCF
:10408000152F0BD108212846FCF758FECDE9007604
:10409000B0EE480A7221149B0A9A2DE0BEEB142F51
:1040A0001FD0B9EB142F1CD0BAEB142F19D0B0EBE2
:1040B000142F16D0B1EB142F13D0B2EB142F10D055
:1040C000B3EB142F0DD0BCEB142F0AD05148103095
:1040D000B0EB142F05D0BBEB142F02D0B8EB142F8C
:1040E00072D108212046FCF729FECDE90076149B09
:1040F0000A9AB0EE480A74214848A9E0484809994C
:10410000814261D143481038B0EB152F24D0B9EB70
:10411000152F21D0BAEB152F1ED0BBEB152F1BD0BE
:104120003C49B1EB152F17D0091DB1EB152F13D05A
:10413000091DB1EB152F0FD0091DB1EB152F0BD0B9
:10414000091DB1EB152F07D0091DB1EB152F03D0B9
:10415000091DB1EB152F38D1B0EB142F24D0B9EBDA
:10416000142F21D0BAEB142F1ED0BBEB142F1BD071
:104170002849B1EB142F17D0091DB1EB142F13D020
:10418000091DB1EB142F0FD0091DB1EB142F0BD06B
:10419000091DB1EB142F07D0091DB1EB142F03D06B
:1041A000091DB1EB142F10D108212846FCF7C6FDDC
:1041B00008212046FCF7C2FDCDE90076B0EE480AA2
:1041C0002021149B0A9A42E044E08646B0EB152F6A
:1041D00032D0B9EB152F2FD0BAEB152F2CD0584673
:1041E000BBEB152F28D00B49B1EB152F24D00A1D9E
:1041F000B2EB152F20D0131DB3EB152F1CD003F1FC
:10420000040CBCEB152F17D00CF1040BBBEB152FD6
:1042100012D007E010024000001401400078004076
:10422000007C00400BF10408B8EB152F04D008F116
:104230000408B8EB152F13D108212846FCF77EFDA2
:10424000CDE90076149B0A9AB0EE480A72211B4809
:1042500000F048F803B0BDEC028B06B0BDE8F08F6B
:10426000BEEB142F1ED0B9EB142F1BD0BAEB142FBA
:1042700018D0B0EB142F15D0B1EB142F12D0B2EB35
:10428000142F0FD0B3EB142F0CD0BCEB142F09D08C
:10429000BBEB142F06D00A48B0EB142F02D0B8EBBA
:1042A000142FD7D108212046FCF748FDCDE9007630
:1042B000B0EE480A7421149B0A9AC8E7007C0040BB
:1042C000240240000A0A01219140C943018070473D
:1042D0000029818902D041F4005101E021F400510C
:1042E000818170472DE9FF4F0E462DED020B0446EC
:1042F000584A59485949DFF86881DFF86891DFF872
:1043000068A1DFF868B194422DED028B85B0B0EE64
:10431000408ADDE9167504D101211020FEF786FBE5
:104320002EE0844204D101214804FEF773FB06E02D
:104330008C4204D101218804FEF76CFB06E0444561
:1043400004D10121C804FEF765FB06E04C4504D109
:1043500001210805FEF75EFB06E0544504D101216A
:104360002020FEF763FB04E05C4502D101218807B1
:1043700004E03F48844203D101214005FEF74AFB97
:10438000722E3BD0522E39D0742E39D0542E37D0C5
:104390005FF00C00ADF80A000B9800900C9A00201A
:1043A0004FF48051092A2DD0ADF804006F2F2CD086
:1043B0004F2F2AD0652F2BD0452F29D0ADF80800DC
:1043C00018EE102AB2F17C5F2CD018EE101AB1F161
:1043D0007F5F22D018EE101AB1F1804F20D0ADF8D7
:1043E0000600722D21D0522D1FD0632D20D0432DD9
:1043F0001ED0612D1FD0412D1DD01EE00420C9E725
:104400000820C7E7ADF80410D0E74FF4C06201E020
:104410004FF48062ADF80820D2E74FF4405101E03C
:104420004FF40051ADF80610DBE74FF4807004E064
:104430004FF4007001E04FF44070ADF80C00694695
:10444000204600F055F805B0BDEC028B06B0BDE883
:10445000F08F000000100140004400400048004080
:10446000004C004000500040001401400078004023
:10447000007C00400246002012880A4200D0012041
:10448000704730B501F01F0201240025C1F342132B
:1044900004FA02F2012B0FD0022B0FD0838A4FEACD
:1044A00011210088134204FA01F400EA040001D04B
:1044B00000B10125284630BD8389F0E7038AEEE785
:1044C00010B5C1F3421301F01F040121A140012BDB
:1044D00007D0022B07D01430002A026805D00A4307
:1044E00004E00C30F8E71030F6E78A43026010BDB4
:1044F0007FB50446008A0D4620F44051E888084301
:104500002082A08941F20C618843A9882A8911433D
:104510006A8902431143A181A08A20F44071A889CD
:104520000843A0826846FEF78DFA1A48844202D0FA
:104530001948844201D1039800E00298A189090436
:1045400000EBC00101EB0010296801D5490000E033
:104550008900B0FBF1F26420B2FBF0F109010B0914
:104560006FF018056B4302EB8302A3891D044FF023
:10457000320306D503EBC202B2FBF0F000F00700F5
:1045800005E003EB0212B2FBF0F000F00F0008436D
:1045900020817FBD00100140001401408088C0F3DD
:1045A00008007047C1F308018180704710B5FCF71F
:1045B000FFFDBDE81040FCF7F5B90000024A0021FC
:1045C00042F820107047000070010020084A094995
:1045D000002000BF52F8203041F82030401C0C2849
:1045E000F8D304494FF0FF30091F086070470000FE
:1045F0002848000870010020024800210170417025
:1046000070470000A001002008B50168C07809BA11
:1046100021F0FF01014300EE101ADFED130A1148EB
:10462000B8EEC00A016020EE200A8DED000A017983
:1046300019B180ED020A0021017190ED030ADDED50
:10464000000A30EEC00ADFED090A20EE200A80EDF4
:10465000040A90ED020ADDED000A30EEC00A80ED9A
:10466000030A08BDB8010020D30237B900007A441C
:10467000014A024900F013B8C1460008B401002005
:1046800002E008C8121F08C1002AFAD1704770471B
:10469000002001E001C1121F002AFBD170472DE963
:1046A000F04116460F460446002503E03946B04760
:1046B000641C6D1C20780028F8D12846BDE8F081E4
:1046C00070B5074D044640212846FFF7D3FE002869
:1046D000F9D0E1B22846FFF765FF204670BD000023
:1046E00000440040FCF724FD064D4FF48044214671
:1046F0002846FCF739FC04A0FFF7BAFFFA20FCF7C4
:10470000E6F9F4E70014024048656C6C6F2C204A0F
:1047100061636B2E0A000000070107010000000022
:104720000000000000000000000000000000000089
:104730000000000000000000000000000000000079
:1047400000000000000000400AD7A33C0000000069
:1047500000000000000000000000803F00005C43FB
:1047600000000000000000000000000000B09A45BA
:104770000000FA440000FA4400B09A4500005C438F
:1047800000000000000000000000000000B09A459A
:104790000000FA440000FA4400B09A45000000000E
:1047A00000000000000000000000803F00005C43AB
:1047B00000000000000000000000000000B09A456A
:1047C0000000FA440000FA4400B09A4500005C433F
:1047D00000000000000000000000000000B09A454A
:1047E0000000FA440000FA4400B09A450AD7233E7C
:1047F0000AD7233EBC74133C295C8F3D00008040E7
:1048000000005C4300000000000000000000000009
:1048100000B09A450000FA440000FA4400B09A45FE
:1048200001000000A00F0000640000006400000010
:1048300064000000640000006400000064000000E8
:1048400064000000640000006400000064000000D8
:1048500064000000640000007848000800000020A8
:10486000B801000050020008CC480008B801002040
:10487000C018000090460008052B07010701E6401C
:104880000AD7A33C23803FD35C4324B09A453BFA2C
:104890004404390C091E20094C502D0AD7233E042C
:1048A0001809BC74133C295C8F3D540A1E403432F5
:1048B00001035EA00F1AFF013264092A04612D0171
:0C48C0000203040465060708090000005C
:04000005080001AD41
:00000001FF
