:020000040800F2
:10000000681A00204D020008550200085702000837
:10001000590200085B0200085D02000800000000B1
:100020000000000000000000000000005F02000867
:100030006102000800000000630200086502000879
:1000400067020008670200086702000867020008EC
:1000500067020008670200086702000867020008DC
:1000600067020008670200086702000867020008CC
:1000700067020008670200086702000867020008BC
:1000800067020008670200086702000835060008DA
:10009000F10500086702000867020008670200080F
:1000A000670200086702000867020008670200088C
:1000B0009517000867020008670200086702000839
:1000C000670200086702000867020008670200086C
:1000D00067020008351A0008B11A00086702000814
:1000E000DD0C0008670200086702000867020008CC
:1000F000670200086702000867020008670200083C
:10010000670200086702000867020008670200082B
:100110006702000867020008C117000867020008AC
:10012000670200086702000867020008670200080B
:100130006702000867020008670200089D060008C1
:1001400059060008670200086702000867020008F5
:10015000670200086702000867020008491B0008E0
:1001600067020008670200086702000867020008CB
:10017000670200086702000867020008000000002C
:1001800067020008670200086702000867020008AB
:10019000670200086702000867020008670200089B
:1001A00000000000000000006702000800F002F8F4
:1001B00000F03CF80AA090E8000C82448344AAF1C5
:1001C0000107DA4501D100F031F8AFF2090EBAE8C3
:1001D0000F0013F0010F18BFFB1A43F0010318477B
:1001E000A82B0000C82B0000103A24BF78C878C1A3
:1001F000FAD8520724BF30C830C144BF04680C602D
:10020000704700000023002400250026103A28BF74
:1002100078C1FBD8520728BF30C148BF0B60704778
:100220001FB502F0ABFD1FBD10B510BD00F015F9F4
:100230001146FFF7F5FF02F079FD00F033F903B442
:10024000FFF7F2FF03BC00F037F9000009488047D0
:1002500009480047FEE7FEE7FEE7FEE7FEE7FEE7A8
:10026000FEE7FEE7FEE7FEE704480549054A064BC0
:100270007047000039170008AD010008680600202B
:10028000681A0020681600206816002010B5431C6C
:1002900002E010F8011B71B18107FAD14FF0013271
:1002A00002C88C1A8C4314EAC211F9D0C01A0A068B
:1002B00003D0C01E10BDC01A10BD0A0401D0801E9C
:1002C00010BD0902FCD0401E10BD032A40F2308050
:1002D00010F0030C00F0158011F8013BBCF1020F87
:1002E000624498BF11F801CB00F8013B38BF11F808
:1002F000013BA2F1040298BF00F801CB38BF00F81F
:10030000013B11F0030300F07180083AC0F008804F
:1003100051F8043B083A51F804CBA0E80810F5E77F
:10032000121D5CBF51F8043B40F8043BAFF3008062
:10033000D20724BF11F8013B11F801CB48BF11F8D7
:10034000012B24BF00F8013B00F801CB48BF00F8A7
:10035000012B70474FF000020429C0F0128010F00A
:10036000030C00F01B80CCF1040CBCF1020F18BF91
:1003700000F8012BA8BF20F8022BA1EB0C0100F024
:100380000DB85FEAC17C24BF00F8012B00F8012BF7
:1003900048BF00F8012B70474FF0000200B513462C
:1003A00094469646203922BFA0E80C50A0E80C5095
:1003B000B1F12001BFF4F7AF090728BFA0E80C5046
:1003C00048BF0CC05DF804EB890028BF40F8042B3F
:1003D00008BF704748BF20F8022B11F0804F18BFAC
:1003E00000F8012B704770477047704710B5203AEE
:1003F000C0F00B80B1E81850203AA0E81850B1E8DE
:100400001850A0E81850BFF4F5AF5FEA027C24BF93
:10041000B1E81850A0E8185044BF18C918C0BDE88A
:1004200010405FEA827C24BF51F8043B40F8043B53
:1004300008BF7047D20728BF31F8023B48BF11F808
:10044000012B28BF20F8023B48BF00F8012B704762
:10045000004870470806002070477546FFF7F8FF10
:10046000AE4605006946534620F00700854618B0A1
:1004700020B5FFF7F9FEBDE820404FF000064FF031
:1004800000074FF000084FF0000B21F00701AC46C9
:10049000ACE8C009ACE8C009ACE8C009ACE8C009E8
:1004A0008D46704710B50446AFF300802046BDE886
:1004B0001040FFF7C4BE000001491820ABBEFEE7A4
:1004C0002600020010B54FF4A06001F015F800F00E
:1004D00015F800F07FF800F03FFF01F09FFA00F000
:1004E00015FB00F04DFBBDE810404FF48041014882
:1004F00000F064BE0014024000F050B83EB54E203B
:100500000821CDE90010154C15490290B7EE000AFC
:100510004FF416532246481C01F062FB012240F2C0
:100520002551204602F043FB02221146262000F00E
:10053000A3FF0C49A5152A46A1F1280000F0E5FC0F
:1005400009492A46A1F58A7000F0DFFC03B0204675
:10055000BDE83040012102F039BA000000440040FB
:10056000050C0240980100209802002010B50446B6
:10057000FFF78CFE01462046BDE81040AFF3008037
:1005800070B50D460646002404E0305D00F006F824
:10059000641CE4B2AC42F8D370BD000001B5084859
:1005A00000F0BDFC0028FAD101226946044800F0A1
:1005B000D8FC012240F22771024802F0F8FA08BD87
:1005C00084010020004400408021014800F0FABD71
:1005D0000010024010B50C21044800F08FFB0222ED
:1005E000BDE810401146282000F046BF0A0C02402A
:1005F00010B50E4C86B00221204600F06DF900289F
:1006000011D00421204600F073F80949204600F07B
:1006100057F86A460021204600F02EFA0DF10B0132
:10062000009800F071FA06B010BD000000640040B0
:100630000800003210B5074C0121204600F04CF9AB
:10064000002805D02046BDE81040012100F050B838
:1006500010BD00000064004010B50E4C86B00221B1
:10066000204600F039F9002811D00221204600F080
:100670003FF80949204600F023F86A460021204649
:1006800000F0FAF90DF10B01009800F077FA06B0CE
:1006900010BD0000006800400800003210B5074C93
:1006A0000121204600F018F9002805D02046BDE8B9
:1006B0001040012100F01CB810BD0000006800408F
:1006C0000A4A914202D1002181617047C1F31302AD
:1006D0008B0101D5C26070474B0101D502617047A3
:1006E000090101D582607047426070477000F030A8
:1006F00030B5082310240422B1F5007F1DD010DC92
:10070000202929D007DC012921D0042922D0082959
:1007100000D1C46030BD402920D0B1F5807FF9D12F
:100720000BE00025B1F5004F06D008DCB1F5806F75
:1007300003D0B1F5006FEDD18561426030BDB1F5F8
:10074000803F0DD0B1F5003FF8D1446030BD054980
:10075000816030BDC36030BD036130BD046130BD18
:10076000436030BD010101002DE9FE430F46044600
:10077000DDE90A89154916481D4616468C4202D104
:100780000121480603E0844203D10121880600F0DC
:10079000C9FE00218DF804808DF808108DF80590B1
:1007A0008DF80A10ADF800708DF8061001208DF854
:1007B00002608DF807108DF80B008DF80350694624
:1007C000204600F0E5F8BDE8FE830000006400402C
:1007D00000680040F0B5827A012191402E4A1368EA
:1007E00043F0010313602C4B1C331C688C431C60CA
:1007F000294D067B294C0C35A6B92E688E432E60F8
:100800004688C78846EA0746877A04EBC707C7F8D1
:1008100040660688878846EA0746877A04EBC7075A
:10082000C7F84466067B012E12D12E680E432E6057
:10083000867A056804EBC6064FEA3545C6F8405689
:10084000867A456804EBC6044FEA3545C4F8445639
:10085000114CC57A241D002D256806D00D43256056
:100860000D4C0589143415B104E08D43F7E7256874
:100870008D4325600589012D02D125680D43256032
:10088000407B012802D1186808431860106820F0E6
:1008900001001060F0BD00000066004000600040F4
:1008A0007FB5DDE90845ADF80000ADF808408DF8EA
:1008B0000A5000208DF80B0001208DF80C00ADF8D7
:1008C00004208DF80D00ADF80210ADF80630684632
:1008D000FFF780FF7FBD00000246002053690B42F6
:1008E0004AD0B1F5807F3BD013DC08292ED007DC3D
:1008F000012926D0022927D004293DD1D0682BE038
:10090000102925D0202926D0402935D11069102161
:1009100030E0B1F5004F2BD00BDCB1F5007F22D0D9
:10092000B1F5806F22D0B1F5006F25D190697021AB
:1009300020E0B1F5803F11D0B1F5003F1CD15068E7
:10094000E5E790680D4915E0D06802E0D068DEE781
:10095000106903210EE0106908210BE05068FBE7E5
:100960009069012106E09069022103E0906900E0AE
:100970005068042100F083B97047000001010100B4
:10098000002A426901D00A4300E08A43426170476D
:1009900010B50368002223F002030360036843F0EC
:1009A000010303604FF6FF7300E0521C4468E40744
:1009B00001D19A42F9D14268D2073ED08A79012A00
:1009C00002683CD022F080020260CA79012A0268E3
:1009D00038D022F0400202600A7A012A026834D03C
:1009E00022F0200202604A7A012A026830D022F006
:1009F000100202608A7A012A02682CD022F00802D2
:100A00000260CA7A012A026828D022F00402026039
:100A10008A78CC78920742EA04620C7942EA04426E
:100A20004C79098842EA0452491E0A43C2610168AE
:100A300021F001010160002114E0002010BD42F00E
:100A40008002C1E742F04002C5E742F02002C9E758
:100A500042F01002CDE742F00802D1E742F0040272
:100A6000D5E7491C4268D20701D09942F9D14068C4
:100A7000C007E2D1012010BD10B500EB0113D3F87F
:100A8000B04114F004041472D3F8B04134D0E40837
:100A9000C2F80440D3F8B04104F002045472D3F811
:100AA000B44104F00F049472D3F8B441240AD4740E
:100AB000D3F8B841D472D3F8B841240A1473D3F8E8
:100AC000B841240C5473D3F8B841240E9473D3F86E
:100AD000BC41D473D3F8BC41240A1474D3F8BC418C
:100AE000240C5474D3F8BC311B0E937439B10169D2
:100AF00041F02001016110BD640D1460CAE7C168B6
:100B000041F02001C16010BD00F072B81CB5092190
:100B1000184800F043FA17480921401C00F03EFA3B
:100B200000220121142000F0A7FC0222114613200C
:100B300000F0A2FC032108200F4C0023CDE90001A6
:100B40001A462046FFF710FE002100910B460A4688
:100B500008460191FFF7A4FE012202212046FFF77B
:100B60000FFF02B020460122BDE810401146FFF7FA
:100B700007BF0000000C02400064004000F038B8DD
:100B80001CB50921184800F009FA17480921401C32
:100B900000F004FA00220121402000F06DFC022246
:100BA00011463F2000F068FC032108200F4C002371
:100BB000CDE900011A462046FFF7D6FD00200E21A0
:100BC000CDE90001034602460146FFF769FE012216
:100BD00002212046FFF7D4FE02B020460122BDE8E4
:100BE00010401146FFF7CCBE0C04024000680040E4
:100BF00010B50C46B0F5017F2BD00DDCA0F50070D0
:100C000001381AD001281ED0022837D1062002F060
:100C100045F8214602202DE0A0F5007005381ED0D1
:100C2000012822D0B0F5FE7F28D1032002F036F84B
:100C30002046BDE8104002F039B8042002F02EF83A
:100C40002146002016E0052002F028F82146012068
:100C500010E0072002F022F8214603200AE00820D5
:100C600002F01CF82146042004E0092002F016F8E6
:100C700021460520BDE8104000F086BB10BD0246AD
:100C800000200A4200D00120704700000848016897
:100C9000491C016001684FF47A72B1FBF2F302FB68
:100CA0001311002902D14168491C416070470000BE
:100CB000000000200029016802D041F0010101E09C
:100CC00021F0010101607047406880B27047014621
:100CD00000200968090300D50120704710B54FF4C2
:100CE0008064204600F086F8002806D0204600F0F8
:100CF00067F8BDE81040FFF767BC10BD2DE9F04173
:100D000004462E488846B0EB142F01D100263FE060
:100D10002A48001DB0EB142F01D1012638E02748E6
:100D20000830B0EB142F01D1022631E023480C30FB
:100D3000B0EB142F01D103262AE020481030B0EB8D
:100D4000142F01D1042623E01C481430B0EB142FDB
:100D500001D105261CE019481830B0EB142F01D141
:100D6000062615E015481C30B0EB142F01D10726DC
:100D70000EE012482030B0EB142F01D1082607E016
:100D80000E482430B0EB142F01D1092600E00A26CA
:100D900004F00F050127AF400121880300F0CEFBCE
:100DA000204600F099F92946304600F02DFC4246D5
:100DB0003846BDE8F041002100F008B800024000CC
:100DC0000149086070470000143C01407CB50D46A5
:100DD000064601211446880300F0B0FB8DF804504C
:100DE0008DF8054001208DF806000096684600F059
:100DF0000BF87CBD034A0146002012680A4200D06D
:100E000001207047143C014030B51A4983790268CB
:100E100053B30B6893430B600A1D13680468A34324
:100E2000136002790A441368046823431360114A6B
:100E3000083213680468A3431360131D1C68056817
:100E4000AC431C604479102C05D021440A6800682A
:100E500002430A6030BD11680468214311601968BB
:100E600000680143196030BD00790844016891436E
:100E7000016030BD003C014010B5D0ED020A0446CF
:100E8000F5EEC00AF1EE10FA29DD206800F09EF9B7
:100E90002068D4ED020A90ED0F0AB4EEE00AF1EEFC
:100EA00010FA12D284ED020A90ED0C0A606800F08C
:100EB0004FFA206890ED070A606800F046FA206853
:100EC00090ED090A606800F03DFA206890ED070A8D
:100ED00084ED030A90ED090A84ED040A10BD6068F0
:100EE00000F00BFA606890ED020A84ED030A90EDC1
:100EF000030AF1E710B50446D4E90001FFF72AFA26
:100F00000020A060E060206110BDC0E90012FFF782
:100F1000F1BF006908B100207047012070470169E6
:100F20004068814201D10120704700207047F0B530
:100F300000231D460EE084680768661C86603C5DE1
:100F4000CC54D0E90146A64200D185600469641EF4
:100F50005B1C0461934202D20469002CEBD1184659
:100F6000F0BDF0B500231D4610E0C4680768CE5CF4
:100F700004F1010CC0F80CC03E554668C468B44288
:100F800000D1C5600469641C5B1C0461934203D2F8
:100F900046680469B442E8D11846F0BD38B50A463F
:100FA000044600F00F0120F0FF0000F0F7F80020E9
:100FB0000346022200901146204600F001F838BD99
:100FC0002DE9FF4F054620F0FF04384A38483949DB
:100FD000394E3A4FDFF8E880DFF8E890DFF8E8A014
:100FE000DFF8E8B083B0944202D1012108463CE02A
:100FF000844204D10121022000F088FA06E08C42EC
:1010000004D10121042000F081FA06E0B44204D1A9
:101010000121082000F07AFA06E0BC4204D1012147
:10102000102000F073FA06E0444504D1012120208D
:1010300000F06CFA06E04C4504D10121402000F09C
:1010400065FA06E0544504D10121802000F05EFAE3
:1010500006E05C4504D10121080200F057FA07E0E0
:101060001B48844204D10121401500F04FFA05E0ED
:101070001848844202D101210015F6E705F00F015E
:1010800001208840009004988DF8040005988DF8A0
:10109000050006988DF8060010988DF8070069463F
:1010A000204600F021F807B0BDE8F08F00000240B4
:1010B0000004024000080240000C02400010024000
:1010C0000014024000180240001C024000200240B0
:1010D000002402400028024008B50021012302221A
:1010E0000091FFF76DFF08BDF0B500230124032731
:1010F0000D6804FA03F21540954242D1D0F800C0C1
:101100005E0007FA06F52CEA050CC0F800C091F85D
:1011100004C0D0F800E00CFA06FC4CEA0E0CC0F853
:1011200000C091F804C0BCF1010F02D0BCF1020F65
:101130001FD1D0F808C02CEA050CC0F808C091F8FF
:1011400005C0D0F808E00CFA06FC4CEA0E0CC0F81A
:1011500008C0D0F804C02CEA020CC0F804C04268F1
:1011600091F806C00CFA03FC1FFA8CFC42EA0C0250
:101170004260C268AA43C260CA79C568B2402A43C5
:10118000C2605B1C102BB3D3F0BD08B500210B4629
:10119000009102220121FFF713FF08BD4B07DB0E70
:1011A0009A40C90810B500EB8100016A0F249C40E9
:1011B000A1430162016A1143016210BD418370477E
:1011C0000183704742694A404261704710B590ED13
:1011D000071A80ED081A90ED0C2A80ED0D2A01897E
:1011E0000288436891423BD203EB8102491C018192
:1011F00082ED000A80ED040AD0ED030A30EE801A79
:1012000080ED031A018900EE901AF8EE601AC1EE23
:10121000210AC0ED070A90ED081A30EEC11A70EEEF
:10122000600A80ED091AC0ED060A90ED0A0A00EE88
:10123000A00A00EE901AF8EE601A80ED0A0AC0EEDD
:10124000210AC0ED0C0A90ED0D0A30EEC00A61EEE5
:10125000010A80ED0E0A40EE000AC0ED0F0A10BD33
:101260004489944201D100224281428903EB8203E6
:10127000521CD3ED000A70EE600AC0ED040AD0EDF6
:10128000031A71EEA02A01EE901AC0ED032AB8EEFF
:10129000613AC2EE831AC0ED071A71EEC12A70EEF0
:1012A000611AC0ED092A93ED003A33EE411A80ED40
:1012B000051A31EE811AC0ED061A61EE200AC0ED62
:1012C0000B0A90ED0A1A31EE201A00EE901A80ED0A
:1012D0000A1AF8EE601AC1EE210A22EEA21AC0ED37
:1012E0000C0A70EEC20AC0ED0E0A00EEA01A80EDE4
:1012F0000F1A428183ED000A10BDD0ED020A90ED75
:10130000031AD0ED001A30EE811AD0ED050A70EE06
:10131000A10AD0ED011A30EE410A30EEA12AC0EE4A
:10132000821AC0ED041A20EE210A80ED030A31EE84
:10133000000A20EEA01A80ED020A41EE610AC0ED1B
:10134000050A704780ED030A704780ED020A704776
:1013500080ED010A7047000010B50948FFF715FF3E
:101360000848FFF712FF06484FF480410E38FFF798
:1013700027FF04488021BDE81040C01FFFF720BFB1
:101380000E14024007100240F8B50546354A00EB3E
:10139000C50302EB8304DFED340A608822F82300E2
:1013A0000A8852BA62804B885BBA00EE103A6360DA
:1013B0008988B8EEC00A49BAA16020EE200ADFEDA4
:1013C0002B0A84ED080A00EE102AB8EE400A20EE3F
:1013D000200A8DED000A217B21B184ED050A002150
:1013E00021612173101A01B241F64C50814205DD92
:1013F0002069A1F50051401E206108E041F64C50E3
:10140000C14204DA206901F50051401C206100EE60
:10141000101A9FED171A134EB8EEC00AD83684ED95
:10142000070A94ED050ADDED000A30EEC00AD4ED9E
:10143000040AF8EEE00A00EE810A8DED000A56F883
:101440002500FFF719FD56F82500DFED0A0A90ED9B
:10145000030A84ED060A90ED040A20EE200A84EDCA
:10146000070AF8BD580000206F12833ADB0F493A93
:10147000DB0FC94000007A4408B58DF800008DF8F4
:1014800001108DF8022001208DF80300684600F05D
:1014900001F808BD30B50F22C47801780123FCB1F2
:1014A000144C246801F1E02104F4E064C4F5E06424
:1014B000C4F30724C4F10405E2404478AC408578C5
:1014C000154025432A0181F80024007800F01F010F
:1014D0008B404009800000F1E020C0F8003130BDB1
:1014E00001F01F0083404809800000F1E020C0F8AF
:1014F000803130BD0CED00E002490843024908602C
:10150000704700000000FA050CED00E0044A0029D5
:10151000116801D0014300E0814311607047000071
:1015200030380240044A0029116801D0014300E02C
:10153000814311607047000040380240044A00298E
:10154000116801D0014300E0814311607047000041
:101550004438024070B5204A1168204C11F00C014B
:1015600004D01F4E042903D0082903D004601BE0D7
:10157000066019E01849091F0B68C3F380550B6812
:1015800003F03F0315B1B6FBF3F301E0B4FBF3F353
:101590000C680968C4F388146343C1F30141491C12
:1015A0004900B3FBF1F1016011680F2303EA111147
:1015B0000C4B5C5C0168E14041601468072505EA5A
:1015C00094241C5D21FA04F48460126805EA523206
:1015D0009A5CD140C16070BD083802400024F4001C
:1015E000001BB70034000020AFF3008010B50446A4
:1015F000002001F053FB2146BDE8104012220148B3
:10160000FEF763BE4801002010B58A0721F00304ED
:101610000849130F21440F22D1F808489A409443F7
:10162000C1F80848D1F8082898400243C1F80828B2
:1016300010BD0000003001401CB500202E49019073
:1016400000900A6842F480320A604FF4A0430A68AE
:1016500002F400320092019A521C0192009A12B9CF
:10166000019A9A42F3D10A68920342D50120009070
:1016700021484030026842F0805202601F480268F0
:1016800042F4404202601C4A083213681360136837
:1016900043F400431360136843F4A0531360141F12
:1016A000174B23600B6843F080730B600B689B0142
:1016B000FCD5016841F4803101604168C903FCD563
:1016C000016841F40031016041688903FCD50D498E
:1016D00040F205700860106820F003001060106888
:1016E00040F0020010601068C0F381000228FAD1B7
:1016F0001CBD00901CBD000000380240007000407E
:10170000195A4007003C0240704700001CB50020F9
:101710000090024601904FF47A735321054800F07F
:1017200077F802B00122BDE8104011463620FFF7DD
:10173000A3BE000000100040124810B5016841F43B
:10174000700101601048016841F0010101600E4A1A
:1017500000210832116002680C4B1A400260031D20
:101760000B4A1A60026822F48022026006480C309C
:101770000160FFF761FF03494FF0006080390860A6
:1017800010BD000088ED00E000380240FFFFF6FECB
:101790001030002410B501218C07204600F0DAF843
:1017A00000280BD00121204600F02FF8012120460F
:1017B00000F028F8BDE8104000F016B910BD000098
:1017C00010B50A4C0121204600F0C4F800280BD0C7
:1017D0000121204600F019F80121204600F012F8FE
:1017E000BDE81040FFF790BF10BD000000100040A2
:1017F0000029018802D041F0800101E021F0800140
:1018000001807047C94301827047C9430182704714
:101810002DE9FF4F434904464348444D444EDFF809
:101820001481DFF81491DFF814A1DFF814B183B04C
:101830004FEAB1478C4204D101210846FFF77EFEF2
:101840000CE0B4F1804F06D0844207D10121022080
:10185000FFF768FE09E00121084645E0AC4204D1EB
:1018600001210420FFF75EFE06E0B44204D101210D
:101870000820FFF757FE06E0BC4204D101211020EA
:10188000FFF750FE06E0444504D101212020FFF778
:1018900049FE06E04C4504D101210220FFF74EFE2F
:1018A00006E0544504D101210804FFF747FE06E095
:1018B0005C4504D101214804FFF740FE07E02148C0
:1018C000844204D101218804FFF738FE07E01E4856
:1018D000844204D101214020FFF724FE07E01B4889
:1018E000844204D101218020FFF71CFE05E0184846
:1018F000844202D101218015F6E70498ADF800007A
:101900000598ADF80200069801901098ADF808000F
:1019100011988DF80A006946204600F027F807B0B4
:10192000BDE8F08F000001400004004000080040C6
:10193000000C004000140040000401400040014041
:10194000004401400048014000180040001C0040D5
:101950000020004002460020138A92890B4202EACE
:10196000010202D0002A00D00120704730B5028861
:10197000164B174C98420DD0A0420BD0B0F1804FBF
:1019800008D0144DA84205D0134DA84202D0134DE3
:10199000A84203D122F070054A882A43104DA8427C
:1019A00006D0104DA84203D022F440750A892A437C
:1019B00002804A68C2620A880285984201D0A04229
:1019C00001D1897A01860121818230BD0000014068
:1019D000000401400004004000080040000C0040EA
:1019E0000010004000140040FFF750B91CB5002063
:1019F0000090431E02464FF0804401905321204640
:101A0000FFF706FF01212046FFF7F2FE02B0002299
:101A1000BDE8104011461C20FFF72EBD10B5FFF7A2
:101A2000E5FFBDE81040FFF771BEAFF30080012075
:101A300001F034B970B51B4E40F2244421463046C3
:101A400001F096F800282BD0174D2146304600F0C3
:101A5000B7FF164C00212046FFF72CF92046FFF770
:101A600033F9C0F1240086B22420211D08602046ED
:101A7000FFF72DF978B12068243520F4002020608C
:101A800001212046FFF716F9122E09D12846BDE89C
:101A90007040FFF7A9BD206840F400202060EFE708
:101AA00070BD000000100140980300204064024017
:101AB0007CB5234D40F227763146284601F058F890
:101AC0000024C0B11F48FFF724FA38B102B03146F4
:101AD0002846BDE87040002201F069B88DF800404A
:101AE000012269461748FFF722FA9DF800102846A0
:101AF00001F0D0F87CBD40F22551284601F038F8BD
:101B00000028F7D0284601F0C1F88DF800000D48F4
:101B10001438FFF704FA38B10A488DF8044001225E
:101B200001A91438FFF703FA064801226946143860
:101B3000FFF717FA9DF80000FEF7DEFC7CBD000001
:101B400000440040840100207CB5234D40F22776FC
:101B50003146284601F00CF80024C0B11F48FFF7B9
:101B6000D8F938B102B031462846BDE870400022AD
:101B700001F01DB88DF80040012269461748FFF7B3
:101B8000D6F99DF80010284601F084F87CBD40F29B
:101B90002551284600F0ECFF0028F7D0284601F038
:101BA00075F88DF800000D481438FFF7B8F938B112
:101BB0000A488DF80440012201A91438FFF7B7F94B
:101BC0000648012269461438FFF7CBF99DF800005A
:101BD000FFF72BFF7CBD000000140140F403002040
:101BE0002DE9FF4F0C462DED020B05462DED028B26
:101BF00083B0B0EE408ADDE91576FE49DFF8F89350
:101C0000099809F1040A0AF1040B88427ED1A9F16E
:101C10000400B0EB152F25D0B9EB152F22D0BAEB6D
:101C2000152F1FD0BBEB152F1CD00BF10401B1EB0E
:101C3000152F17D0091DB1EB152F13D0091DB1EBCE
:101C4000152F0FD0091DB1EB152F0BD0091DB1EBCE
:101C5000152F07D0091DB1EB152F03D0091DB1EBCE
:101C6000152F38D1B0EB142F25D0B9EB142F22D07B
:101C7000BAEB142F1FD0BBEB142F1CD0DE490C3154
:101C8000B1EB142F17D0091DB1EB142F13D0091D80
:101C9000B1EB142F0FD0091DB1EB142F0BD0091D80
:101CA000B1EB142F07D0091DB1EB142F03D0091D80
:101CB000B1EB142F0FD107212846FFF76FF9072149
:101CC0002046FFF76BF9CDE90076B0EE480A2021F7
:101CD000149B0A9A6DE0B0EB152F2DD0B9EB152FA0
:101CE0002AD0BAEB152F27D0BBEB152F24D0C24B2F
:101CF0000C33B3EB152F1FD003F1040EBEEB152FE1
:101D00001AD00EF10403B3EB152F00E055E013D009
:101D100003F1040CBCEB152F0ED00CF10408B8EB4A
:101D2000152F09D008F10408B8EB152F04D008F1DD
:101D30000408B8EB152F0BD107212846FFF72EF921
:101D4000CDE90076B0EE480A7221149B0A9A30E081
:101D5000B0EB142F22D0B9EB142F1FD0BAEB142FF5
:101D60001CD0BBEB142F19D0A3480C30B0EB142FB0
:101D700014D0BEEB142F11D0B3EB142F0ED0BCEB4C
:101D8000142F0BD09C481C30B0EB142F06D0001D34
:101D9000B0EB142F02D0B8EB142F76D107212046D8
:101DA000FFF7FCF8CDE90076149B0A9AB0EE480ADA
:101DB0007421904800F014FED8E001468F4881421B
:101DC0007DD18D48001FB0EB152F25D0B9EB152F15
:101DD00022D0BAEB152F1FD0BBEB152F1CD0864994
:101DE0000C31B1EB152F17D0091DB1EB152F13D006
:101DF000091DB1EB152F0FD0091DB1EB152F0BD01D
:101E0000091DB1EB152F07D0091DB1EB152F03D01C
:101E1000091DB1EB152F39D1B0EB142F25D0B9EB3B
:101E2000142F22D0BAEB142F1FD0BBEB142F1CD0D1
:101E300071490C31B1EB142F17D0091DB1EB142FE0
:101E400013D0091DB1EB142F0FD0091DB1EB142FC6
:101E50000BD0091DB1EB142F07D0091DB1EB142FC6
:101E600003D0091DB1EB142F10D107212846FFF72D
:101E700095F807212046FFF791F8CDE90076B0EEFE
:101E8000480A2021149B0A9A6CE0FDE3B0EB152F61
:101E90002DD0B9EB152F2AD0BAEB152F27D0BBEBDD
:101EA000152F24D0544A0C32B2EB152F1FD002F15B
:101EB000040EBEEB152F1AD00EF1040300E055E01E
:101EC000B3EB152F13D003F1040CBCEB152F0ED080
:101ED0000CF10408B8EB152F09D008F10408B8EB91
:101EE000152F04D008F10408B8EB152F0BD10721EA
:101EF0002846FFF753F8CDE90076B0EE480A722184
:101F0000149B0A9A2EE0B0EB142F20D0B9EB142FBB
:101F10001DD0BAEB142F1AD0BBEB142F17D0B2EB95
:101F2000142F14D0BEEB142F11D0B3EB142F0ED0FE
:101F3000BCEB142F0BD030481C30B0EB142F06D064
:101F4000001DB0EB142F02D0B8EB142F0DD10721D8
:101F50002046FFF723F8CDE90076149B0A9AB0EEED
:101F6000480A7421254800F03BFDE1E02449099826
:101F700088427DD12048001FB0EB152F25D0B9EB4A
:101F8000152F22D0BAEB152F1FD0BBEB152F1CD06D
:101F900019490C31B1EB152F17D0091DB1EB152FD5
:101FA00013D0091DB1EB152F0FD0091DB1EB152F63
:101FB0000BD0091DB1EB152F07D0091DB1EB152F63
:101FC00003D0091DB1EB152F41D1B0EB142F2ED04A
:101FD000B9EB142F2BD0BAEB142F28D0BBEB142F56
:101FE00025D005490C31B1EB142F20D0091DB1EBE0
:101FF000142F07E00010014004024000004400409C
:102000000048004013D0091DB1EB142F0FD0091D5B
:10201000B1EB142F0BD0091DB1EB142F07D0091D04
:10202000B1EB142F03D0091DB1EB142F0FD10721F1
:102030002846FEF7B3FF07212046FEF7AFFFCDE9A4
:102040000076B0EE480A2021149B0A9A6CE0B0EBAF
:10205000152F2CD0B9EB152F29D0BAEB152F26D080
:10206000BBEB152F23D0DFF878E4BEEB152F00E093
:102070005EE01CD00EF10403B3EB152F17D01B1D2F
:10208000B3EB152F13D003F1040CBCEB152F0ED0BE
:102090000CF10408B8EB152F09D008F10408B8EBCF
:1020A000152F04D008F10408B8EB152F0BD1072128
:1020B0002846FEF773FFCDE90076B0EE480A72219C
:1020C000149B0A9A30E0B0EB142F22D0B9EB142FF6
:1020D0001FD0BAEB142F1CD0BBEB142F19D0BEEBC2
:1020E000142F16D0FE48001DB0EB142F11D0B3EB07
:1020F000142F0ED0BCEB142F0BD0F9481030B0EBDE
:10210000142F06D0001DB0EB142F02D0B8EB142F03
:102110000DD107212046FEF741FFCDE90076149B43
:102120000A9AB0EE480A7421EE4800F059FCD6E055
:10213000ED48099981427CD1E9481038B0EB152F60
:1021400024D0B9EB152F21D0BAEB152F1ED0BBEB45
:10215000152F1BD0E249B1EB152F17D0091DB1EB9C
:10216000152F13D0091DB1EB152F0FD0091DB1EBA1
:10217000152F0BD0091DB1EB152F07D0091DB1EBA1
:10218000152F03D0091DB1EB152F37D1B0EB142F4C
:1021900024D0B9EB142F21D0BAEB142F1ED0BBEBF7
:1021A000142F1BD0CE49B1EB142F17D0091DB1EB62
:1021B000142F13D0091DB1EB142F0FD0091DB1EB53
:1021C000142F0BD0091DB1EB142F07D0091DB1EB53
:1021D000142F03D0091DB1EB142F0FD1082128466D
:1021E000FEF7DCFE08212046FEF7D8FECDE900769A
:1021F000B0EE480A2021149B0A9A6CE0B0EB152F30
:102200002CD0B9EB152F29D0BAEB152F26D0BBEB6C
:10221000152F23D0DFF8C8E2BEEB152F1ED00EF12C
:102220000403B3EB152F19D01B1DB3EB152F15D0DD
:1022300000E054E003F1040CBCEB152F0ED00CF1C0
:102240000408B8EB152F09D008F10408B8EB152FD6
:1022500004D008F10408B8EB152F0BD1082128464B
:10226000FEF79CFECDE90076B0EE480A7221149B81
:102270000A9A30E0B0EB142F22D0B9EB142F1FD004
:10228000BAEB142F1CD0BBEB142F19D0BEEB142FBC
:1022900016D09348001DB0EB142F11D0B3EB142FC0
:1022A0000ED0BCEB142F0BD08D481030B0EB142F98
:1022B00006D0001DB0EB142F02D0B8EB142F0DD1B7
:1022C00008212046FEF76AFECDE90076149B0A9AA3
:1022D000B0EE480A7421844800F082FBD6E08348BF
:1022E000099981427ED17E481038B0EB152F24D059
:1022F000B9EB152F21D0BAEB152F1ED0BBEB152F44
:102300001BD07749B1EB152F17D0091DB1EB152F55
:1023100013D0091DB1EB152F0FD0091DB1EB152FEF
:102320000BD0091DB1EB152F07D0091DB1EB152FEF
:1023300003D0091DB1EB152F37D1B0EB142F24D0EA
:10234000B9EB142F21D0BAEB142F1ED0BBEB142FF6
:102350001BD06349B1EB142F17D0091DB1EB142F1B
:1023600013D0091DB1EB142F0FD0091DB1EB142FA1
:102370000BD0091DB1EB142F07D0091DB1EB142FA1
:1023800003D0091DB1EB142F0FD108212846FEF709
:1023900005FE08212046FEF701FECDE90076B0EEED
:1023A000480A2021149B0A9A6CE0B0EB152F2CD020
:1023B000B9EB152F29D0BAEB152F26D0BBEB152F73
:1023C00023D0DFF81CE1BEEB152F1ED00EF1040365
:1023D000B3EB152F19D01B1DB3EB152F15D003F13F
:1023E000040C00E052E0BCEB152F0ED00CF10408F9
:1023F000B8EB152F09D008F10408B8EB152F04D05D
:1024000008F10408B8EB152F0BD108212846FEF778
:10241000C5FDCDE90076B0EE480A7221149B0A9AF8
:1024200030E0B0EB142F22D0B9EB142F1FD0BAEB51
:10243000142F1CD0BBEB142F19D0BEEB142F16D0C9
:102440002748001DB0EB142F11D0B3EB142F0ED082
:10245000BCEB142F0BD022481030B0EB142F06D059
:10246000001DB0EB142F02D0B8EB142F0DD10821B2
:102470002046FEF793FDCDE90076149B0A9AB0EE54
:10248000480A7421194800F0ABFAE1E018490998AC
:1024900088427DD112481038B0EB152F2FD0B9EB00
:1024A000152F2CD0BAEB152F29D0BBEB152F26D02A
:1024B0000B49B1EB152F22D0091DB1EB152F1ED002
:1024C000091DB1EB152F1AD0091DB1EB152F16D030
:1024D000091DB1EB152F12D0091DB1EB152F09E025
:1024E0001002400000480040004C004000500040F6
:1024F0000014014003D0091DB1EB152F37D1B0EB0B
:10250000142F24D0B9EB142F21D0BAEB142F1ED0E6
:10251000BBEB142F1BD0FE49B1EB142F17D0091DB4
:10252000B1EB142F13D0091DB1EB142F0FD0091DDF
:10253000B1EB142F0BD0091DB1EB142F07D0091DDF
:10254000B1EB142F03D0091DB1EB142F0FD10821CB
:102550002846FEF723FD08212046FEF71FFDCDE9A2
:102560000076B0EE480A2021149B0A9A6CE0B0EB8A
:10257000152F2CD0B9EB152F29D0BAEB152F26D05B
:10258000BBEB152F23D0DFF888E3BEEB152F00E05F
:102590005EE01CD00EF10403B3EB152F17D01B1D0A
:1025A000B3EB152F13D003F1040CBCEB152F0ED099
:1025B0000CF10408B8EB152F09D008F10408B8EBAA
:1025C000152F04D008F10408B8EB152F0BD1082102
:1025D0002846FEF7E3FCCDE90076B0EE480A72210A
:1025E000149B0A9A30E0B0EB142F22D0B9EB142FD1
:1025F0001FD0BAEB142F1CD0BBEB142F19D0BEEB9D
:10260000142F16D0C248001DB0EB142F11D0B3EB1D
:10261000142F0ED0BCEB142F0BD0BD481030B0EBF4
:10262000142F06D0001DB0EB142F02D0B8EB142FDE
:102630000DD108212046FEF7B1FCCDE90076149BB0
:102640000A9AB0EE480A7421B24800F0C9F9D3E002
:10265000B148099981427DD1AD481038B0EB152FB2
:1026600026D0B9EB152F23D0BAEB152F20D0BBEB1A
:10267000152F1DD0A649B1EB152F19D0091DB1EBAF
:10268000152F15D0091D00E01CE1B1EB152F0FD05F
:10269000091DB1EB152F0BD0091DB1EB152F07D07C
:1026A000091DB1EB152F03D0091DB1EB152F37D143
:1026B000B0EB142F24D0B9EB142F21D0BAEB142F88
:1026C0001ED0BBEB142F1BD09149B1EB142F17D0A8
:1026D000091DB1EB142F13D0091DB1EB142F0FD02E
:1026E000091DB1EB142F0BD0091DB1EB142F07D02E
:1026F000091DB1EB142F03D0091DB1EB142F0FD11D
:1027000008212846FEF74AFC08212046FEF746FC31
:10271000CDE90076B0EE480A2021149B0A9A69E0C0
:102720008646B0EB152F2BD0B9EB152F28D0BAEB7E
:10273000152F25D05846BBEB152F21D07449B1EB8E
:10274000152F1DD00A1DB2EB152F19D0131DB3EB99
:10275000152F00E050E013D003F1040CBCEB152F53
:102760000ED00CF10408B8EB152F09D008F1040BBA
:10277000BBEB152F04D00BF10408B8EB152F0BD1D0
:1027800008212846FEF70AFCCDE90076B0EE480A9B
:102790007221149B0A9A2DE0BEEB142F1FD0B9EBC7
:1027A000142F1CD0BAEB142F19D0B0EB142F16D065
:1027B000B1EB142F13D0B2EB142F10D0B3EB142FB6
:1027C0000DD0BCEB142F0AD051481030B0EB142FB1
:1027D00005D0BBEB142F02D0B8EB142F72D1082117
:1027E0002046FEF7DBFBCDE90076149B0A9AB0EE9B
:1027F000480A74214848A9E048480999814261D1B2
:1028000043481038B0EB152F24D0B9EB152F21D049
:10281000BAEB152F1ED0BBEB152F1BD03C49B1EBEB
:10282000152F17D0091DB1EB152F13D0091DB1EBD2
:10283000152F0FD0091DB1EB152F0BD0091DB1EBD2
:10284000152F07D0091DB1EB152F03D0091DB1EBD2
:10285000152F38D1B0EB142F24D0B9EB142F21D081
:10286000BAEB142F1ED0BBEB142F1BD02849B1EBB1
:10287000142F17D0091DB1EB142F13D0091DB1EB84
:10288000142F0FD0091DB1EB142F0BD0091DB1EB84
:10289000142F07D0091DB1EB142F03D0091DB1EB84
:1028A000142F10D108212846FEF778FB0821204676
:1028B000FEF774FBCDE90076B0EE480A2021149BA8
:1028C0000A9A42E044E08646B0EB152F32D0B9EBCD
:1028D000152F2FD0BAEB152F2CD05846BBEB152F48
:1028E00028D00B49B1EB152F24D00A1DB2EB152FC0
:1028F00020D0131DB3EB152F1CD003F1040CBCEB3F
:10290000152F17D00CF1040BBBEB152F12D007E0DD
:10291000100240000014014000780040007C00409C
:102920000BF10408B8EB152F04D008F10408B8EB3C
:10293000152F13D108212846FEF730FBCDE900768C
:10294000149B0A9AB0EE480A72211B4800F048F81E
:1029500003B0BDEC028B06B0BDE8F08FBEEB142FC8
:102960001ED0B9EB142F1BD0BAEB142F18D0B0EB3C
:10297000142F15D0B1EB142F12D0B2EB142F0FD0AF
:10298000B3EB142F0CD0BCEB142F09D0BBEB142FDE
:1029900006D00A48B0EB142F02D0B8EB142FD7D1D1
:1029A00008212046FEF7FAFACDE90076B0EE480A93
:1029B0007421149B0A9AC8E7007C0040240240005E
:1029C0000A0A01219140C943018070470029818989
:1029D00002D041F4005101E021F40051818170479F
:1029E0002DE9FF4F0E462DED020B0446584A59487B
:1029F0005949DFF86881DFF86891DFF868A1DFF8EE
:102A000068B194422DED028B85B0B0EE408ADDE9CD
:102A1000167504D101211020FEF790FD2EE08442AE
:102A200004D101214804FEF77DFD06E08C4204D16B
:102A300001218804FEF776FD06E0444504D101211A
:102A4000C804FEF76FFD06E04C4504D101210805DE
:102A5000FEF768FD06E0544504D101212020FEF771
:102A60006DFD04E05C4502D10121880704E03F4888
:102A7000844203D101214005FEF754FD722E3BD064
:102A8000522E39D0742E39D0542E37D05FF00C002E
:102A9000ADF80A000B9800900C9A00204FF480517A
:102AA000092A2DD0ADF804006F2F2CD04F2F2AD03B
:102AB000652F2BD0452F29D0ADF8080018EE102A2D
:102AC000B2F17C5F2CD018EE101AB1F17F5F22D0EA
:102AD00018EE101AB1F1804F20D0ADF80600722D1B
:102AE00021D0522D1FD0632D20D0432D1ED0612D1B
:102AF0001FD0412D1DD01EE00420C9E70820C7E7E4
:102B0000ADF80410D0E74FF4C06201E04FF48062EA
:102B1000ADF80820D2E74FF4405101E04FF40051E6
:102B2000ADF80610DBE74FF4807004E04FF400705E
:102B300001E04FF44070ADF80C006946204600F00B
:102B40004FF805B0BDEC028B06B0BDE8F08F000079
:102B5000001001400044004000480040004C00408C
:102B6000005000400014014000780040007C00400C
:102B700030B501F01F0201240025C1F3421304FA0D
:102B800002F2012B0FD0022B0FD0838A4FEA1121C2
:102B90000088134204FA01F400EA040001D000B1F5
:102BA0000125284630BD8389F0E7038AEEE710B59A
:102BB000C1F3421301F01F040121A140012B07D0F2
:102BC000022B07D01430002A026805D00A4304E023
:102BD0000C30F8E71030F6E78A43026010BD0000C1
:102BE0007FB50446008A0D4620F44051E88808432A
:102BF0002082A08941F20C618843A9882A89114367
:102C00006A8902431143A181A08A20F44071A889F6
:102C10000843A0826846FEF79DFC1A48844202D011
:102C20001948844201D1039800E00298A18909045F
:102C300000EBC00101EB0010296801D5490000E05C
:102C40008900B0FBF1F26420B2FBF0F109010B093D
:102C50006FF018056B4302EB8302A3891D044FF04C
:102C6000320306D503EBC202B2FBF0F000F007001E
:102C700005E003EB0212B2FBF0F000F00F00084396
:102C800020817FBD00100140001401408088C0F306
:102C900008007047C1F3080181807047024A002193
:102CA00042F82010704700000C00002008B50168B1
:102CB000C07809BA21F0FF01014300EE101ADFEDE0
:102CC000130A1148B8EEC00A016020EE200A8DED0B
:102CD000000A017919B180ED020A0021017190ED1D
:102CE000030ADDED000A30EEC00ADFED090A20EE2E
:102CF000200A80ED040A90ED020ADDED000A30EEB4
:102D0000C00A80ED030A08BD44000020D30237B991
:102D100000007A4410B500214AF20E4403E0224636
:102D2000521EFDD2491C8142F9D310BDFDF7CAFBEA
:102D30004FF080440B4D0C4F26144FF4FA78606A24
:102D4000B0FBF5F105FB11000028F8D107A0FDF755
:102D50000DFC31463846FEF735FA4046FFF7DAFFFC
:102D6000EDE7000020A107000014024048656C6CEC
:102D70006F2C204A61636B2E0A0000004FF04070F8
:102D8000E1EE100A70470000A82D000800000020A6
:102D900044000000E8010008EC2D00084400002079
:102DA000241A0000040200080000000000000000D7
:102DB000FFFFFFFF640000006400000064000000EB
:102DC0006400000064000000640000006400000073
:102DD00064000000640000006400000000000000C7
:0C2DE000010203040102030406070809B5
:04000005080001AD41
:00000001FF
