:020000040800F2
:10000000702500204D020008550200085702000824
:10001000590200085B0200085D02000800000000B1
:100020000000000000000000000000005F02000867
:100030006102000800000000630200086502000879
:1000400067020008670200086702000867020008EC
:1000500067020008670200086702000867020008DC
:1000600067020008670200086702000867020008CC
:1000700067020008670200086702000867020008BC
:10008000670200086702000867020008950300087D
:1000900051030008670200086702000867020008B1
:1000A000670200086702000867020008670200088C
:1000B000DD240008670200086702000867020008E4
:1000C000670200086702000867020008670200086C
:1000D00067020008592A0008D52A000867020008AC
:1000E000670200086702000867020008670200084C
:1000F000670200086702000867020008670200083C
:10010000670200086702000867020008670200082B
:100110006702000867020008092500086702000856
:10012000670200086702000867020008670200080B
:10013000670200086702000867020008FD03000864
:10014000B903000867020008670200086702000898
:100150006702000867020008670200086D2B0008AC
:1001600067020008670200086702000867020008CB
:10017000670200086702000867020008000000002C
:1001800067020008670200086702000867020008AB
:10019000670200086702000867020008670200089B
:1001A00000000000000000006702000800F002F8F4
:1001B00000F03CF80AA090E8000C82448344AAF1C5
:1001C0000107DA4501D100F031F8AFF2090EBAE8C3
:1001D0000F0013F0010F18BFFB1A43F0010318477B
:1001E000382B0000582B0000103A24BF78C878C183
:1001F000FAD8520724BF30C830C144BF04680C602D
:10020000704700000023002400250026103A28BF74
:1002100078C1FBD8520728BF30C148BF0B60704778
:100220001FB502F074FD1FBD10B510BD00F037F80A
:100230001146FFF7F5FF02F067FD00F055F803B433
:10024000FFF7F2FF03BC00F059F8000009488047AF
:1002500009480047FEE7FEE7FEE7FEE7FEE7FEE7A8
:10026000FEE7FEE7FEE7FEE704480549054A064BC0
:100270007047000081240008AD01000870110020C3
:1002800070250020702100207021002070477047E9
:1002900070470000004870471011002070477546F5
:1002A000FFF7F8FFAE4605006946534620F0070009
:1002B000854618B020B5FFF7D7FFBDE820404FF0C6
:1002C00000064FF000074FF000084FF0000B21F040
:1002D0000701AC46ACE8C009ACE8C009ACE8C0090D
:1002E000ACE8C0098D46704710B50446AFF30080F6
:1002F0002046BDE81040FFF7A2BF000001491820CA
:10030000ABBEFEE72600020010B54FF4A06000F07F
:1003100019FD01F0C3FF00F015F800F041FC02F0F8
:1003200073FB02F083FBBDE810404FF480410148AD
:1003300000F0AEBB00140240AFF30080022002F0D8
:10034000A7BC0000014800F031BB00000A0C0240CD
:1003500010B50E4C86B00221204600F0B5F80028FA
:1003600011D00421204600F073F80949204600F01E
:1003700057F86A460021204600F0FAF80DF10B010B
:10038000009800F03DF906B010BD00000064004088
:100390000800003210B5074C0121204600F094F807
:1003A000002805D02046BDE81040012100F050B8DB
:1003B00010BD00000064004010B50E4C86B0022154
:1003C000204600F081F8002811D00221204600F0DC
:1003D0003FF80949204600F023F86A4600212046EC
:1003E00000F0C6F80DF10B01009800F00BF906B013
:1003F00010BD0000006800400800003210B5074C36
:100400000121204600F060F8002805D02046BDE814
:100410001040012100F01CB810BD00000068004031
:100420000A4A914202D1002181617047C1F313024F
:100430008B0101D5C26070474B0101D50261704745
:10044000090101D582607047426070477000F0304A
:1004500030B5082310240422B1F5007F1DD010DC34
:10046000202929D007DC012921D0042922D00829FC
:1004700000D1C46030BD402920D0B1F5807FF9D1D2
:100480000BE00025B1F5004F06D008DCB1F5806F18
:1004900003D0B1F5006FEDD18561426030BDB1F59B
:1004A000803F0DD0B1F5003FF8D1446030BD054923
:1004B000816030BDC36030BD036130BD046130BDBB
:1004C000436030BD010101000246002053690B4228
:1004D0004AD0B1F5807F3BD013DC08292ED007DC51
:1004E000012926D0022927D004293DD1D0682BE04C
:1004F000102925D0202926D0402935D11069102176
:1005000030E0B1F5004F2BD00BDCB1F5007F22D0ED
:10051000B1F5806F22D0B1F5006F25D190697021BF
:1005200020E0B1F5803F11D0B1F5003F1CD15068FB
:10053000E5E790680D4915E0D06802E0D068DEE795
:10054000106903210EE0106908210BE05068FBE7F9
:100550009069012106E09069022103E0906900E0C2
:100560005068042100F097B87047000001010100B5
:1005700010B500EB0113D3F8B04114F00404147269
:10058000D3F8B04134D0E408C2F80440D3F8B04105
:1005900004F002045472D3F8B44104F00F049472CE
:1005A000D3F8B441240AD474D3F8B841D472D3F840
:1005B000B841240A1473D3F8B841240C5473D3F807
:1005C000B841240E9473D3F8BC41D473D3F8BC4122
:1005D000240A1474D3F8BC41240C5474D3F8BC31ED
:1005E0001B0E937439B1016941F02001016110BD06
:1005F000640D1460CAE7C16841F02001C16010BDFC
:1006000000F002B8AFF3008010B50C46B0F5017FE2
:100610002BD00DDCA0F5007001381AD001281ED0B7
:10062000022837D1072002F033FB214602202DE0BB
:10063000A0F5007005381ED0012822D0B0F5FE7F4D
:1006400028D1042002F024FB2046BDE8104002F02F
:1006500027BB052002F01CFB2146002016E00620E7
:1006600002F016FB2146012010E0082002F010FBEA
:10067000214603200AE0092002F00AFB214604205B
:1006800004E00A2002F004FB21460520BDE81040EA
:1006900000F09EBA10BD024600200A4200D00120A0
:1006A0007047000007484FF47A720168491CB1FB9B
:1006B000F2F3016002FB1311002902D14168491CC9
:1006C000416070470000002070B50D46044601F0FF
:1006D0002FFEA91D04F10A00BDE8704000F050BAD9
:1006E0000029016802D041F0010101E021F001017F
:1006F00001607047406880B2704701460020096879
:10070000090300D501207047D0ED020A90ED031ACD
:10071000D0ED001A30EE811AD0ED050A70EEA10A74
:10072000D0ED011A30EE410A30EEA12AC0EE821A55
:10073000C0ED041A20EE210A80ED030A31EE000A12
:1007400020EEA01A80ED020A41EE610AC0ED050A12
:10075000704780ED030A704780ED020A704780ED14
:10076000010A704710B5D0ED020A0446F5EEC00A42
:10077000F1EE10FA29DD206800F092F92068D4ED3E
:10078000020A90ED070AB4EEE00AF1EE10FA12D276
:1007900084ED020A90ED050A6068FFF7E0FF20682B
:1007A00090ED030A6068FFF7D7FF206890ED040A18
:1007B0006068FFF7CEFF206890ED030A84ED030A1E
:1007C00090ED040A84ED040A10BD6068FFF79CFFF9
:1007D000606890ED020A84ED030A90ED030AF1E7E8
:1007E000006908B100207047012070470169406826
:1007F000814201D10120704700207047F0B50023ED
:100800001D460EE084680768661C86603C5DCC541B
:10081000D0E90146A64200D185600469641E5B1CD4
:100820000461934202D20469002CEBD11846F0BD5A
:10083000F0B500231D4610E0C4680768CE5C04F1E3
:10084000010CC0F80CC03E554668C468B44200D1E3
:10085000C5600469641C5B1C0461934203D2466852
:100860000469B442E8D11846F0BD38B5044600200A
:100870000D460346022200901146204600F00AF879
:1008800004F00F0124F0FF002A46BDE8384000F0D4
:10089000EFB800002DE9FF4F054620F0FF04384A6D
:1008A00038483949394E3A4FDFF8E880DFF8E890A8
:1008B000DFF8E8A0DFF8E8B083B0944202D101216C
:1008C00008463CE0844204D10121022001F00CFDE5
:1008D00006E08C4204D10121042001F005FD06E070
:1008E000B44204D10121082001F0FEFC06E0BC4224
:1008F00004D10121102001F0F7FC06E0444504D1A9
:100900000121202001F0F0FC06E04C4504D101213A
:10091000402001F0E9FC06E0544504D1012180208B
:1009200001F0E2FC06E05C4504D10121080201F07F
:10093000DBFC07E01B48844204D10121401501F093
:10094000D3FC05E01848844202D101210015F6E7E6
:1009500005F00F0101208840009004988DF80400F4
:1009600005988DF8050006988DF8060010988DF80A
:1009700007006946204600F021F807B0BDE8F08F77
:10098000000002400004024000080240000C024047
:10099000001002400014024000180240001C0240F7
:1009A00000200240002402400028024008B5002137
:1009B000012302220091FFF76DFF08BDF0B500236F
:1009C000012403270D6804FA03F21540954242D131
:1009D000D0F800C05E0007FA06F52CEA050CC0F856
:1009E00000C091F804C0D0F800E00CFA06FC4CEA14
:1009F0000E0CC0F800C091F804C0BCF1010F02D089
:100A0000BCF1020F1FD1D0F808C02CEA050CC0F8C9
:100A100008C091F805C0D0F808E00CFA06FC4CEAD2
:100A20000E0CC0F808C0D0F804C02CEA020CC0F8C4
:100A300004C0426891F806C00CFA03FC1FFA8CFC53
:100A400042EA0C024260C268AA43C260CA79C56821
:100A5000B2402A43C2605B1C102BB3D3F0BD08B573
:100A600000210B46009102220121FFF713FF08BD70
:100A70004B07DB0E9A40C90810B500EB8100016AF4
:100A80000F249C40A1430162016A1143016210BD21
:100A9000418370470183704742694A404261704711
:100AA00082680168D0ED030A01EB8201521C91EDCE
:100AB000001A30EE412A90ED011AF8EE412AB8EE04
:100AC000411AC2EE221AC0ED041A70EEA12AC0ED3E
:100AD000032A91ED003A73EE600A70EE800A70EE20
:100AE000E20A20EE822AC2EE010AC0ED060A90ED6B
:100AF000051A31EE201A80ED051A21EEA11A00EE3A
:100B0000A01A80ED071A826081ED000AD0E9011277
:100B10008A4201D1002181607047000030B5074B47
:100B20000020991D0C1F1A5C0D5C42EAC505255476
:100B30000A54401C0228F6D330BD000008000020F3
:100B4000F0B50E4F002107F10802131F0E460830C2
:100B50005C5C455CA54209D152F821400A2C03D2C5
:100B6000641C42F8214003E07D5401E042F821601A
:100B7000445C5C54491C0229EAD3F0BD0800002003
:100B80000A8802804A8842808A8882808A798271B3
:100B9000CA79C2710A89028149894181704700007E
:100BA00010B50948FFF75BFF0848FFF758FF0648F4
:100BB0004FF480410E38FFF76DFF04488021BDE8F7
:100BC0001040C01FFFF766BF0E140240071002401E
:100BD00038B5364A00EBC00502EB8504DFED340A78
:100BE000638822F825300A8852BA62804D886DBA2F
:100BF00000EE105A65608988B8EEC00A49BAA16053
:100C000020EE200ADFED2B0A84ED080A00EE102A00
:100C1000B8EE400A20EE200A8DED000A217B21B1BA
:100C200084ED050A002121612173D11A09B241F630
:100C30004C52914205DD2269A1F50051521E2261FC
:100C400008E041F64C52D14204DA226901F5005124
:100C5000521C226100EE101A9FED171A00EB800162
:100C6000B8EEC00A154884ED070A94ED050ADDEDDB
:100C7000000A00EB8105284630EEC00AD4ED040AD4
:100C8000F8EEE00A00EE810A8DED000AFFF76AFD3A
:100C900095ED030ADFED0A0A84ED060A95ED040AD4
:100CA00020EE200A84ED070A38BD00006000002015
:100CB0006F12833ADB0F493ADB0FC940E80B002083
:100CC00000007A4408B58DF800008DF801108DF809
:100CD000022001208DF80300684600F001F808BDED
:100CE00030B50F22C47801780123FCB1144C24687C
:100CF00001F1E02104F4E064C4F5E064C4F30724E6
:100D0000C4F10405E2404478AC40857815402543A1
:100D10002A0181F80024007800F01F018B4040096F
:100D2000800000F1E020C0F8003130BD01F01F006C
:100D300083404809800000F1E020C0F8803130BDD8
:100D40000CED00E0024908430249086070470000CA
:100D50000000FA050CED00E02DE9FE4F1546DFF826
:100D60000484FF4ADDF830B008F104091C460E4641
:100D7000074609F1040A93457ED100200290A8F1AC
:100D80000400B0EB172F25D0B8EB172F22D0B9EB0A
:100D9000172F1FD0BAEB172F1CD00AF10400B0EBAD
:100DA000172F17D0001DB0EB172F13D0001DB0EB7D
:100DB000172F0FD0001DB0EB172F0BD0001DB0EB7D
:100DC000172F07D0001DB0EB172F03D0001DB0EB7D
:100DD000172F05D101213846FFF747FD012002906A
:100DE000E048001FB0EB162F25D0B8EB162F22D00D
:100DF000B9EB162F1FD0BAEB162F1CD0D9480C30E8
:100E0000B0EB162F17D0001DB0EB162F13D0001D1E
:100E1000B0EB162F0FD0001DB0EB162F0BD0001D1E
:100E2000B0EB162F07D0001DB0EB162F03D0001D1E
:100E3000B0EB162F07D101213046FFF716FD0298BF
:100E400040F002000290C748001FB0EB152F27D0DA
:100E5000B8EB152F24D0B9EB152F21D0BAEB152FF5
:100E60001ED0C0480C30B0EB152F19D0001DB0EBD0
:100E7000152F15D0001D00E061E0B0EB152F0FD04D
:100E8000001DB0EB152F0BD0001DB0EB152F07D0B8
:100E9000001DB0EB152F03D0001DB0EB152F07D1AF
:100EA00001212846FFF7E1FC029840F0040002907F
:100EB000AC48001FB0EB142F25D0B8EB142F22D074
:100EC000B9EB142F1FD0BAEB142F1CD0A5480C304F
:100ED000B0EB142F17D0001DB0EB142F13D0001D52
:100EE000B0EB142F0FD0001DB0EB142F0BD0001D52
:100EF000B0EB142F07D0001DB0EB142F03D0001D52
:100F0000B0EB142F07D101212046FFF7AEFC029869
:100F100040F008000290002000900190DDE90D13E0
:100F200002468F4801F022FB70228D480F9B0299E8
:100F300001F0D0FC01218A4801F0FEFAB6E1BBF1D4
:100F4000804F7DD088498B45F8D10020029085489C
:100F5000001FB0EB172F25D0B8EB172F22D0B9EB1D
:100F6000172F1FD0BAEB172F1CD07E480C30B0EBD8
:100F7000172F17D0001DB0EB172F13D0001DB0EBAB
:100F8000172F0FD0001DB0EB172F0BD0001DB0EBAB
:100F9000172F07D0001DB0EB172F03D0001DB0EBAB
:100FA000172F05D102213846FFF75FFC0120029080
:100FB0006C48001FB0EB162F25D0B8EB162F22D0AF
:100FC000B9EB162F1FD0BAEB162F1CD065480C308A
:100FD000B0EB162F17D0001DB0EB162F13D0001D4D
:100FE000B0EB162F0FD0001DB0EB162F0BD0001D4D
:100FF000B0EB162F07D0001DB0EB162F03D0001D4D
:10100000B0EB162F07D102213046FFF72EFC0298D5
:1010100040F0020002905348001FB0EB152F27D07C
:10102000B8EB152F24D0B9EB152F21D0BAEB152F23
:101030001ED04C480C30B0EB152F19D0001D00E02D
:1010400065E0B0EB152F13D0001DB0EB152F0FD0BE
:10105000001DB0EB152F0BD0001DB0EB152F07D0E6
:10106000001DB0EB152F03D0001DB0EB152F07D1DD
:1010700002212846FFF7F9FB029840F00400029095
:101080003848001FB0EB142F25D0B8EB142F22D016
:10109000B9EB142F1FD0BAEB142F1CD031480C30F1
:1010A000B0EB142F17D0001DB0EB142F13D0001D80
:1010B000B0EB142F0FD0001DB0EB142F0BD0001D80
:1010C000B0EB142F07D0001DB0EB142F03D0001D80
:1010D000B0EB142F07D102212046FFF7C6FB029880
:1010E00040F008000290002000900190DDE90D130F
:1010F00002461D4801F03AFA70221B480F9B0299E4
:1011000001F0E8FB0121184801F016FAAFE115489B
:101110004FF0000B001FB0EB172F2CD0B8EB172FA0
:1011200029D0B9EB172F26D0BAEB172F23D00D48B3
:101130000C30B0EB172F1ED0001DB0EB172F1AD0BC
:10114000001DB0EB172F16D0001DB0EB172F12D0DB
:10115000001DB0EB172F0ED0001DB0EB172F05E0D0
:1011600000000140040240000004004003D0001DC4
:10117000B0EB172F05D101213846FFF776FB4FF072
:10118000010BFC4FB7EB162F25D0B8EB162F22D052
:10119000B9EB162F1FD0BAEB162F1CD0F548103024
:1011A000B0EB162F17D0001DB0EB162F13D0001D7B
:1011B000B0EB162F0FD0001DB0EB162F0BD0001D7B
:1011C000B0EB162F07D0001DB0EB162F03D0001D7B
:1011D000B0EB162F05D101213046FFF746FB4BF04F
:1011E000020BB7EB152F25D0B8EB152F22D0B9EB9A
:1011F000152F1FD0BAEB152F1CD0DE481030B0EBE6
:10120000152F17D0001DB0EB152F13D0001DB0EB1C
:10121000152F0FD0001DB0EB152F0BD0001DB0EB1C
:10122000152F07D0001DB0EB152F03D0001DB0EB1C
:10123000152F05D101212846FFF717FB4BF0040BB2
:10124000B7EB142F25D0B8EB142F22D0B9EB142F05
:101250001FD0BAEB142F1CD0C6481030B0EB142F9F
:1012600017D0001DB0EB142F13D0001DB0EB142FBE
:101270000FD0001DB0EB142F0BD0001DB0EB142FBE
:1012800007D0001DB0EB142F03D0001DB0EB142FBE
:1012900005D101212046FFF7E8FA4BF0080B0020AA
:1012A000009002464FF080440190FDE3B2498B4527
:1012B0007ED100200290AF48B0EB172F25D0B8EBBD
:1012C000172F22D0B9EB172F1FD0BAEB172F1CD036
:1012D000A8481030B0EB172F17D0001DB0EB172F18
:1012E00013D0001DB0EB172F0FD0001DB0EB172F40
:1012F0000BD0001DB0EB172F07D0001DB0EB172F40
:1013000003D0001DB0EB172F05D102213846FFF79F
:10131000ACFA012002909748B0EB162F25D0B8EB1D
:10132000162F22D0B9EB162F1FD0BAEB162F1CD0D8
:1013300090481030B0EB162F17D0001DB0EB162FD1
:1013400013D0001DB0EB162F0FD0001DB0EB162FE1
:101350000BD0001DB0EB162F07D0001DB0EB162FE1
:1013600003D0001DB0EB162F07D102213046FFF746
:101370007CFA029840F0020002907E48B0EB152FF4
:1013800027D0B8EB152F24D0B9EB152F21D0BAEB0D
:10139000152F1ED077481030B0EB152F19D0001D37
:1013A000B0EB152F15D0001DB0EB152F11D000E0BC
:1013B0005DE0001DB0EB152F0BD0001DB0EB152F1D
:1013C00007D0001DB0EB152F03D0001DB0EB152F7B
:1013D00007D102212846FFF748FA029840F004009E
:1013E00002906448B0EB142F25D0B8EB142F22D014
:1013F000B9EB142F1FD0BAEB142F1CD05D4810305E
:10140000B0EB142F17D0001DB0EB142F13D0001D1C
:10141000B0EB142F0FD0001DB0EB142F0BD0001D1C
:10142000B0EB142F07D0001DB0EB142F03D0001D1C
:10143000B0EB142F07D102212046FFF716FA0298CD
:1014400040F008000290002000900190DDE90D13AB
:101450000246494801F08AF8702247480F9B0299DA
:1014600001F038FA0121444801F066F8E7E0434909
:101470008B457DD1002002903E48B0EB172F25D040
:10148000B8EB172F22D0B9EB172F1FD0BAEB172FBD
:101490001CD038481030B0EB172F17D0001DB0EB20
:1014A000172F13D0001DB0EB172F0FD0001DB0EB7E
:1014B000172F0BD0001DB0EB172F07D0001DB0EB7E
:1014C000172F03D0001DB0EB172F05D1022138468E
:1014D000FFF7CBF9012002902648B0EB162F25D05C
:1014E000B8EB162F22D0B9EB162F1FD0BAEB162F60
:1014F0001CD020481030B0EB162F17D0001DB0EBD9
:10150000162F13D0001DB0EB162F0FD0001DB0EB1F
:10151000162F0BD0001DB0EB162F07D0001DB0EB1F
:10152000162F03D0001DB0EB162F07D10221304635
:10153000FFF79BF9029840F0020002900D48B0EBD3
:10154000152F2ED0B8EB152F2BD0B9EB152F28D097
:10155000BAEB152F25D007481030B0EB152F20D04F
:10156000001DB0EB152F1CD0001DB0EB152F07E0B0
:1015700065E000000002400000080040000C004050
:101580000FD0001DB0EB152F0BD0001DB0EB152FA9
:1015900007D0001DB0EB152F03D0001DB0EB152FA9
:1015A00007D102212846FFF760F9029840F00400B5
:1015B0000290FE48B0EB142F25D0B8EB142F22D0A8
:1015C000B9EB142F1FD0BAEB142F1CD0F7481030F2
:1015D000B0EB142F17D0001DB0EB142F13D0001D4B
:1015E000B0EB142F0FD0001DB0EB142F0BD0001D4B
:1015F000B0EB142F07D0001DB0EB142F03D0001D4B
:10160000B0EB142F07D102212046FFF72EF90298E4
:1016100040F008000290002000900190DDE90D13D9
:101620000246E34800F0A2FF7022E1480F9B0299B6
:1016300001F050F90121DE4800F07EFFE0E0DD49D5
:101640008B457DD100200290D848B0EB172F25D0D4
:10165000B8EB172F22D0B9EB172F1FD0BAEB172FEB
:101660001CD0D2481030B0EB172F17D0001DB0EBB4
:10167000172F13D0001DB0EB172F0FD0001DB0EBAC
:10168000172F0BD0001DB0EB172F07D0001DB0EBAC
:10169000172F03D0001DB0EB172F05D103213846BB
:1016A000FFF7E3F801200290C048B0EB162F25D0D9
:1016B000B8EB162F22D0B9EB162F1FD0BAEB162F8E
:1016C0001CD0BA481030B0EB162F17D0001DB0EB6D
:1016D000162F13D0001DB0EB162F0FD0001DB0EB4E
:1016E000162F0BD0001DB0EB162F07D0001DB0EB4E
:1016F000162F03D0001DB0EB162F07D10321304663
:10170000FFF7B3F8029840F002000290A748B0EB50
:10171000152F27D0B8EB152F24D0B9EB152F21D0DA
:10172000BAEB152F1ED0A1481030B0EB152F19D0F1
:10173000001DB0EB152F15D0001DB0EB152F00E0EC
:101740005EE00FD0001DB0EB152F0BD0001DB0EBED
:10175000152F07D0001DB0EB152F03D0001DB0EBE7
:10176000152F07D103212846FFF77FF8029840F094
:10177000040002908D48B0EB142F25D0B8EB142F45
:1017800022D0B9EB142F1FD0BAEB142F1CD08748EE
:101790001030B0EB142F17D0001DB0EB142F13D066
:1017A000001DB0EB142F0FD0001DB0EB142F0BD089
:1017B000001DB0EB142F07D0001DB0EB142F03D089
:1017C000001DB0EB142F07D103212046FFF74DF881
:1017D000029840F008000290002000900190DDE99E
:1017E0000D130246734800F0C1FE702271480F9B32
:1017F000029901F06FF801216E4800F09DFEEAE0C9
:101800006D498B457ED1002002906848B0EB172FC0
:1018100025D0B8EB172F22D0B9EB172F1FD0BAEB7A
:10182000172F1CD061481030B0EB172F17D0001DB8
:10183000B0EB172F13D0001DB0EB172F0FD0001DEA
:10184000B0EB172F0BD0001DB0EB172F07D0001DEA
:10185000B0EB172F03D0001DB0EB172F05D10321DC
:101860003846FFF702F8012002905048B0EB162FDF
:1018700025D0B8EB162F22D0B9EB162F1FD0BAEB1C
:10188000162F1CD049481030B0EB162F17D0001D72
:10189000B0EB162F13D0001DB0EB162F0FD0001D8C
:1018A000B0EB162F0BD0001DB0EB162F07D0001D8C
:1018B000B0EB162F03D0001DB0EB162F07D103217C
:1018C0003046FEF7D2FF029840F0020002903748FF
:1018D000B0EB152F27D0B8EB152F24D0B9EB152F6F
:1018E00021D0BAEB152F1ED030481030B0EB152F99
:1018F00019D0001DB0EB152F15D0001DB0EB152F22
:1019000011D000E067E0001DB0EB152F0BD0001DDB
:10191000B0EB152F07D0001DB0EB152F03D0001D25
:10192000B0EB152F07D103212846FEF79EFF029842
:1019300040F0040002901D48B0EB142F25D0B8EB06
:10194000142F22D0B9EB142F1FD0BAEB142F1CD0B8
:1019500016481030B0EB142F17D0001DB0EB142F29
:1019600013D0001DB0EB142F0FD0001DB0EB142FBF
:101970000BD0001DB0EB142F07D0001DB0EB142FBF
:1019800003D0001DB0EB142F07D103212046FEF732
:101990006CFF029840F00800029000200090019037
:1019A000DDE90D130246044808E000000002400093
:1019B000000C0040000401400040014000F0D6FD52
:1019C0007022FE480F9B029900F084FF0121FB4822
:1019D00000F0B2FDE1E0FA498B4566D100200290AB
:1019E000F848B0EB172F25D0B8EB172F22D0B9EB62
:1019F000172F1FD0BAEB172F1CD0F2481030B0EBC6
:101A0000172F17D0001DB0EB172F13D0001DB0EB10
:101A1000172F0FD0001DB0EB172F0BD0001DB0EB10
:101A2000172F07D0001DB0EB172F03D0001DB0EB10
:101A3000172F05D103213846FEF717FF012002902A
:101A4000E048B0EB162F25D0B8EB162F22D0B9EB1B
:101A5000162F1FD0BAEB162F1CD0DA481030B0EB7F
:101A6000162F17D0001DB0EB162F13D0001DB0EBB2
:101A7000162F0FD0001DB0EB162F0BD0001DB0EBB2
:101A8000162F07D0001DB0EB162F03D0001DB0EBB2
:101A9000162F07D103213046FEF7E7FE029840F0EB
:101AA00002000290C74801E00EE376E0B0EB152F8C
:101AB00025D0B8EB152F22D0B9EB152F1FD0BAEBDC
:101AC000152F1CD0BF481030B0EB152F17D0001DBC
:101AD000B0EB152F13D0001DB0EB152F0FD0001D4C
:101AE000B0EB152F0BD0001DB0EB152F07D0001D4C
:101AF000B0EB152F03D0001DB0EB152F07D103213C
:101B00002846FEF7B2FE029840F004000290AD486D
:101B1000B0EB142F25D0B8EB142F22D0B9EB142F33
:101B20001FD0BAEB142F1CD0A6481030B0EB142FE6
:101B300017D0001DB0EB142F13D0001DB0EB142FE5
:101B40000FD0001DB0EB142F0BD0001DB0EB142FE5
:101B500007D0001DB0EB142F03D0001DB0EB142FE5
:101B600007D103212046FEF780FE029840F00800CE
:101B70000290002000900190DDE90D13024690488C
:101B800000F0F4FC70228E480F9B029900F0A2FE38
:101B900001218B4800F0D0FCE0E08B498B457DD1E2
:101BA000002002908748B0EB172F25D0B8EB172FF5
:101BB00022D0B9EB172F1FD0BAEB172F1CD08148BA
:101BC0001030B0EB172F17D0001DB0EB172F13D02C
:101BD000001DB0EB172F0FD0001DB0EB172F0BD04F
:101BE000001DB0EB172F07D0001DB0EB172F03D04F
:101BF000001DB0EB172F05D103213846FEF735FE47
:101C0000012002906F48B0EB162F25D0B8EB162FAD
:101C100022D0B9EB162F1FD0BAEB162F1CD0694873
:101C20001030B0EB162F17D0001DB0EB162F13D0CD
:101C3000001DB0EB162F0FD0001DB0EB162F0BD0F0
:101C4000001DB0EB162F07D0001DB0EB162F03D0F0
:101C5000001DB0EB162F07D103213046FEF705FE1D
:101C6000029840F0020002905648B0EB152F27D0A2
:101C7000B8EB152F24D0B9EB152F21D0BAEB152FC7
:101C80001ED050481030B0EB152F19D0001DB0EB0E
:101C9000152F15D0001DB0EB152F00E05EE00FD022
:101CA000001DB0EB152F0BD0001DB0EB152F07D08A
:101CB000001DB0EB152F03D0001DB0EB152F07D181
:101CC00003212846FEF7D1FD029840F0040002905F
:101CD0003C48B0EB142F25D0B8EB142F22D0B9EB31
:101CE000142F1FD0BAEB142F1CD036481030B0EB95
:101CF000142F17D0001DB0EB142F13D0001DB0EB24
:101D0000142F0FD0001DB0EB142F0BD0001DB0EB23
:101D1000142F07D0001DB0EB142F03D0001DB0EB23
:101D2000142F07D103212046FEF79FFD029840F0B3
:101D300008000290002000900190DDE90D1302469A
:101D4000214800F013FC70221F480F9B029900F0FD
:101D5000C1FD01211C4800F0EFFBEBE01B498B4566
:101D60007ED1002002901748B0EB172F25D0B8EB9A
:101D7000172F22D0B9EB172F1FD0BAEB172F1CD07B
:101D800010481030B0EB172F17D0001DB0EB172FF5
:101D900013D0001DB0EB172F0FD0001DB0EB172F85
:101DA0000BD0001DB0EB172F07D0001DB0EB172F85
:101DB00003D0001DB0EB172F10D109E00040014007
:101DC000004401400002400000480140001800406B
:101DD00009213846FEF749FD01200290FB48B0EB8F
:101DE000162F25D0B8EB162F22D0B9EB162F1FD007
:101DF000BAEB162F1CD0F5481030B0EB162F17D0C9
:101E0000001DB0EB162F13D0001DB0EB162F0FD016
:101E1000001DB0EB162F0BD0001DB0EB162F07D016
:101E2000001DB0EB162F03D0001DB0EB162F07D10D
:101E300009213046FEF719FD029840F00200029099
:101E4000E248B0EB152F27D0B8EB152F24D0B9EB13
:101E5000152F21D0BAEB152F1ED0DC48103000E032
:101E600068E0B0EB152F17D0001DB0EB152F13D085
:101E7000001DB0EB152F0FD0001DB0EB152F0BD0B0
:101E8000001DB0EB152F07D0001DB0EB152F03D0B0
:101E9000001DB0EB152F07D109212846FEF7E5FC00
:101EA000029840F004000290C848B0EB142F25D0EF
:101EB000B8EB142F22D0B9EB142F1FD0BAEB142F8C
:101EC0001CD0C2481030B0EB142F17D0001DB0EB5F
:101ED000142F13D0001DB0EB142F0FD0001DB0EB4A
:101EE000142F0BD0001DB0EB142F07D0001DB0EB4A
:101EF000142F03D0001DB0EB142F07D10921204669
:101F0000FEF7B3FC029840F0080002900020009019
:101F10000190DDE90D130246AD4800F027FB702269
:101F2000AB480F9B029900F0D5FC0121A84800F0B6
:101F300003FBCAE0A7498B457ED1A4484FF0000BB4
:101F4000B0EB172F25D0B8EB172F22D0B9EB172FF6
:101F50001FD0BAEB172F1CD09C481030B0EB172FB6
:101F600017D0001DB0EB172F13D0001DB0EB172FAB
:101F70000FD0001DB0EB172F0BD0001DB0EB172FAB
:101F800007D0001DB0EB172F03D0001DB0EB172FAB
:101F900005D109213846FEF768FC4FF0010B8B4F45
:101FA000B7EB162F25D0B8EB162F22D0B9EB162F92
:101FB0001FD0BAEB162F1CD084481030B0EB162F70
:101FC00017D0001DB0EB162F13D0001DB0EB162F4D
:101FD0000FD0001DB0EB162F0BD0001DB0EB162F4D
:101FE00007D0001DB0EB162F03D0001DB0EB162F4D
:101FF00005D109213046FEF738FC4BF0020BB7EB58
:10200000152F27D0B8EB152F24D0B9EB152F21D0E1
:10201000BAEB152F1ED06D481030B0EB152F19D02C
:10202000001DB0EB152F15D0001DB0EB152F11D0F2
:10203000001DB0EB152F00E047E00BD0001DB0EB0A
:10204000152F07D0001DB0EB152F03D0001DB0EBEE
:10205000152F05D109212846FEF707FC4BF0040B8C
:10206000B7EB142F25D0B8EB142F22D0B9EB142FD7
:102070001FD0BAEB142F1CD054481030B0EB142FE3
:1020800017D0001DB0EB142F13D0001DB0EB142F90
:102090000FD0001DB0EB142F0BD0001DB0EB142F90
:1020A00007D0001DB0EB142F03D0001DB0EB142F90
:1020B00005D109212046FEF7D8FB4BF0080B002084
:1020C00000900246434C0190D0E043498B457CD1BF
:1020D0003E484FF0000BB0EB172F25D0B8EB172F71
:1020E00022D0B9EB172F1FD0BAEB172F1CD03748CF
:1020F0001030B0EB172F17D0001DB0EB172F13D0F7
:10210000001DB0EB172F0FD0001DB0EB172F0BD019
:10211000001DB0EB172F07D0001DB0EB172F03D019
:10212000001DB0EB172F05D109213846FEF79DFBA6
:102130004FF0010B254FB7EB162F25D0B8EB162F1C
:1021400022D0B9EB162F1FD0BAEB162F1CD01F4888
:102150001030B0EB162F17D0001DB0EB162F13D098
:10216000001DB0EB162F0FD0001DB0EB162F0BD0BB
:10217000001DB0EB162F07D0001DB0EB162F03D0BB
:10218000001DB0EB162F05D109213046FEF76DFB7F
:102190004BF0020BB7EB152F2FD0B8EB152F2CD02F
:1021A000B9EB152F29D0BAEB152F26D007481030E0
:1021B000B0EB152F21D0001DB0EB152F1DD0001D49
:1021C000B0EB152F19D0001D08E061E000024000BF
:1021D00000180040001C004000200040B0EB152F0C
:1021E0000BD0001DB0EB152F07D0001DB0EB152F45
:1021F00003D0001DB0EB152F05D109212846FEF7AD
:1022000034FB4BF0040BB7EB142F24D0B8EB142F96
:1022100021D0B9EB142F1ED0BAEB142F1BD01D48C0
:10222000B0EB142F17D0001DB0EB142F13D0001DEE
:10223000B0EB142F0FD0001DB0EB142F0BD0001DEE
:10224000B0EB142F07D0001DB0EB142F03D0001DEE
:10225000B0EB142F05D109212046FEF706FB4BF009
:10226000080B00200C4C009002460190DDE90D1394
:10227000204600F07BF97022594620460F9B00F063
:1022800029FB03B02046BDE8F04F012100F054B90E
:10229000BDE8FE8F10024000002000401FB54FF443
:1022A0007A700F4C40F6C411532200940390CDE98C
:1022B00001210C4B5A1E511E481EFEF74DFD0121F7
:1022C000204600F049F9064940F2A4604031086018
:1022D000091F0860091F0860091F08601FBD000072
:1022E000000800400F0C0240044A0029116801D088
:1022F000014300E081431160704700003038024024
:10230000044A0029116801D0014300E081431160B3
:102310007047000040380240044A0029116801D08B
:10232000014300E0814311607047000044380240DF
:102330000A88C2F30A0202804A788B78D20842EAFD
:102340004312C2F30A0242808A78CB78920942EAA9
:1023500083020B7942EA8322C2F30A0282800A795D
:102360004B79520842EAC312C2F30A02C2804A7988
:10237000920902724979C1F301114172704700F06C
:1023800001B8000010B50446002000F081FC214691
:102390000548FEF799F90448FEF7D2FBBDE8104066
:1023A0000148FEF7BBBB0000600C00201CB50020FC
:1023B0002E49019000900A6842F480320A604FF47E
:1023C000A0430A6802F400320092019A521C019262
:1023D000009A12B9019A9A42F3D10A68920342D53F
:1023E0000120009021484030026842F08052026093
:1023F0001F48026842F4404202601C4A08321368D7
:102400001360136843F400431360136843F4A0534C
:102410001360141F174B23600B6843F080730B602D
:102420000B689B01FCD5016841F480310160416873
:10243000C903FCD5016841F400310160416889039A
:10244000FCD50D4940F205700860106820F00300CB
:102450001060106840F0020010601068C0F3810046
:102460000228FAD11CBD00901CBD000000380240BB
:10247000007000400C544007003C024070470000D0
:10248000124810B5016841F47001016010480168FC
:1024900041F0010101600E4A00210832116002681A
:1024A0000C4B1A400260031D0B4A1A60026822F4AA
:1024B0008022026006480C300160FFF777FF034975
:1024C0004FF000608039086010BD000088ED00E02A
:1024D00000380240FFFFF6FE1030002410B5012145
:1024E0008C07204600F0E4F800280BD0012120469C
:1024F00000F02FF80121204600F028F8BDE8104038
:1025000000F068BA10BD000010B50A4C0121204649
:1025100000F0CEF800280BD00121204600F019F879
:102520000121204600F012F8BDE81040FFF7A6BFD9
:1025300010BD0000001000400029018802D041F0C9
:10254000800101E021F0800101807047C9430182D0
:102550007047C943018270470029018802D041F0C9
:10256000010101E021F00101018070472DE9FF4FD9
:10257000434904464348444D444EDFF81481DFF894
:102580001491DFF814A1DFF814B183B04FEAB1471A
:102590008C4204D101210846FFF7BEFE0CE0B4F1E5
:1025A000804F06D0844207D101210220FFF7A8FE08
:1025B00009E00121084645E0AC4204D10121042094
:1025C000FFF79EFE06E0B44204D101210820FFF788
:1025D00097FE06E0BC4204D101211020FFF790FED7
:1025E00006E0444504D101212020FFF789FE06E0E2
:1025F0004C4504D101210220FFF78EFE06E0544530
:1026000004D101210804FFF787FE06E05C4504D1F0
:1026100001214804FFF780FE07E02148844204D1ED
:1026200001218804FFF778FE07E01E48844204D1A8
:1026300001214020FFF764FE07E01B48844204D1DB
:1026400001218020FFF75CFE05E01848844202D19A
:1026500001218015F6E70498ADF800000598ADF863
:102660000200069801901098ADF8080011988DF8B6
:102670000A006946204600F06FF907B0BDE8F08F08
:10268000000001400004004000080040000C004031
:10269000001400400004014000400140004401409B
:1026A0000048014000180040001C0040002000408D
:1026B00002460020138A92890B4202EA010202D0EC
:1026C000002A00D001207047002A828901D00A43E5
:1026D00000E08A438281704730B5028C22F001020B
:1026E0000284028C8388048B22F0020224F073059A
:1026F0000C882C438D8915434A882A430C4DA842E7
:1027000002D00C4DA8420DD122F00805CA8923F44D
:1027100040732A4322F004058A882A430D8A1D4308
:102720004B8A2B438380048389684163028430BDD4
:102730000000014000040140028B22F008020A431D
:102740000283704770B5028C22F010020284028C62
:102750008488038B0D8823F4E6464FF6FF7303EA63
:10276000052535438E8922F0200203EA061616431A
:102770004A8803EA02123243104EB04202D0104E91
:10278000B04215D122F08006CA8924F4406403EADD
:102790000212324322F040068A8803EA02123243D0
:1027A0000E8A03EA860626434C8A03EA84043443ED
:1027B0008480058389688163028470BD00000140C4
:1027C00000040140028B4FF6FF7322F4006203EA1B
:1027D000012111430183704770B5028C22F480728D
:1027E0000284028C8488838B0D8823F073031D433D
:1027F00022F400738E894FF6FF7202EA06261E430A
:102800004B8802EA03233343104EB04202D0104EED
:10281000B04215D123F40066CB8924F4405402EA77
:102820000323334323F480668B8802EA0323334374
:102830000E8A02EA061626434C8A02EA041434433E
:10284000848085838968C163038470BD0000014072
:1028500000040140828B22F008020A438283704701
:1028600070B5028C22F480520284048C8288838B9F
:102870000D8823F4E6464FF6FF7303EA052535433A
:1028800024F400568C8903EA043434434E8803EA66
:1028900006362643084CA04202D0084CA04205D17F
:1028A00022F480440A8A03EA8212224382808583CA
:1028B00089680164068470BD000001400004014085
:1028C000828B4FF6FF7322F4006203EA0121114369
:1028D0008183704730B585B00546ADF800200120F2
:1028E0000C46ADF8020000210220ADF80C00ADF856
:1028F0001010C001ADF81200ADF804100293ADF84D
:102900000E10E00707D069462846FFF7E5FE0821CC
:102910002846FFF711FFA00707D569462846FFF7AD
:1029200011FF08212846FFF74DFF600707D56946CC
:102930002846FFF751FF08212846FFF78BFF2007A5
:1029400007D569462846FFF78BFF08212846FFF781
:10295000B7FF05B030BD000030B50288164B174CEC
:1029600098420DD0A0420BD0B0F1804F08D0144D4A
:10297000A84205D0134DA84202D0134DA84203D15E
:1029800022F070054A882A43104DA84206D0104D07
:10299000A84203D022F440750A892A4302804A687B
:1029A000C2620A880285984201D0A04201D1897A88
:1029B00001860121818230BD0000014000040140F8
:1029C0000004004000080040000C004000100040DF
:1029D0000014004010B5FDF765FE0848084A01687C
:1029E000491C0160914208D900210160BDE81040F6
:1029F0004FF480410348FEF74FB810BD4800002057
:102A000090D00300001402401CB500200090012368
:102A10000246019053219807FFF7A8FD02B000225B
:102A2000BDE8104011461C20FEF74CB910B501213D
:102A30008C072046FFF790FD012211462046FFF744
:102A400043FE2046BDE810400121FFF77FBDAFF3F4
:102A50000080012000F01CB970B51B4E40F22444E8
:102A60002146304600F0D4F800282BD0174D2146DF
:102A7000304600F0C7F8164C00212046FDF730FE26
:102A80002046FDF737FEC0F1240086B22420211D28
:102A900008602046FDF731FE78B12068243520F427
:102AA0000020206001212046FDF71AFE122E09D1D8
:102AB0002846BDE87040FFF762BC206840F4002063
:102AC0002060EFE770BD000000100140A00E002064
:102AD000406402407CB5234D40F2277631462846BB
:102AE00000F096F80024C0B11F48FDF779FE38B118
:102AF00002B031462846BDE87040002200F0A7B879
:102B00008DF80040012269461748FDF777FE9DF8D1
:102B10000010284600F0B7F87CBD40F22551284649
:102B200000F076F80028F7D0284600F0A8F88DF8D5
:102B300000000D481438FDF759FE38B10A488DF8E9
:102B40000440012201A91438FDF758FE064801226D
:102B500069461438FDF76CFE9DF80000FDF7ECFBAC
:102B60007CBD0000004400408C0C00207CB5234D4F
:102B700040F227763146284600F04AF80024C0B1DA
:102B80001F48FDF72DFE38B102B031462846BDE89A
:102B90007040002200F05BB88DF8004001226946C9
:102BA0001748FDF72BFE9DF80010284600F06BF843
:102BB0007CBD40F22551284600F02AF80028F7D0C5
:102BC000284600F05CF88DF800000D481438FDF739
:102BD0000DFE38B10A488DF80440012201A91438CD
:102BE000FDF70CFE0648012269461438FDF720FE69
:102BF0009DF80000FFF72BFF7CBD00000014014092
:102C0000FC0E00200A0A01219140C943018070474F
:102C100030B501F01F0201240025C1F3421304FA6C
:102C200002F2012B0FD0022B0FD0838A4FEA112121
:102C30000088134204FA01F400EA040001D000B154
:102C40000125284630BD8389F0E7038AEEE710B5F9
:102C5000C1F3421301F01F040121A140012B07D051
:102C6000022B07D01430002A026805D00A4304E082
:102C70000C30F8E71030F6E78A43026010BD808818
:102C8000C0F308007047C1F308018180704700005D
:102C9000024A002142F82010704700001C0000206A
:102CA00008B50168C07809BA21F0FF01014300EEC0
:102CB000101ADFED130A1148B8EEC00A016020EEC9
:102CC000200A8DED000A017919B180ED020A002178
:102CD000017190ED030ADDED000A30EEC00ADFED70
:102CE000090A20EE200A80ED040A90ED020ADDEDCB
:102CF000000A30EEC00A80ED030A08BD4C00002037
:102D0000D30237B900007A44FDF7FEFAFEE74FF030
:102D10004070E1EE100A7047382D000800000020D6
:102D20004C000000E8010008842D00084C00002041
:102D3000242500000402000800000000000000003C
:102D40000000000000000000000000000000000083
:102D5000FFFFFFFF6400000064000000640000004B
:102D600064000000640000006400000064000000D3
:102D700064000000640000006400000064000000C3
:042D8000000000004F
:04000005080001AD41
:00000001FF
