:020000040800F2
:1000000058170020C1010008C9010008CB010008F1
:10001000CD010008CF010008D10100080000000058
:10002000000000000000000000000000D3010008F4
:10003000D501000800000000D7010008D901000820
:10004000DB010008DB010008DB010008DB01000820
:10005000DB010008DB010008DB010008DB01000810
:10006000DB010008DB010008DB010008DB01000800
:10007000DB010008DB010008DB010008DB010008F0
:10008000DB010008DB010008DB0100087D0300083C
:1000900039030008DB010008DB010008DB01000870
:1000A000DB010008DB010008DB010008DB010008C0
:1000B00095110008DB010008DB010008DB010008E6
:1000C000DB010008DB010008DB010008DB010008A0
:1000D000DB010008E912000865130008FD130008A1
:1000E000DB010008DB010008DB010008DB01000880
:1000F000DB010008DB010008DB010008DB01000870
:10010000DB010008DB010008DB010008DB0100085F
:10011000DB010008DB010008C1110008DB01000859
:10012000DB010008DB010008DB010008DB0100083F
:10013000DB010008DB010008DB010008E503000823
:10014000A1030008DB010008DB010008DB01000857
:10015000DB010008DB010008DB0100089514000842
:10016000DB010008DB010008DB010008DB010008FF
:10017000DB010008DB010008DB01000800000000D3
:10018000DB010008DB010008DB010008DB010008DF
:10019000DB010008DB010008DB010008DB010008CF
:1001A0000000000000000000DB010008DFF80CD0B8
:1001B00000F02AF800480047DD2600085817002004
:1001C0000648804706480047FEE7FEE7FEE7FEE7F1
:1001D000FEE7FEE7FEE7FEE7FEE7FEE7391100086F
:1001E000AD010008D2B201E000F8012B491EFBD29C
:1001F00070470022F6E710B513460A460446194632
:10020000FFF7F0FF204610BD064C074D06E0E06802
:1002100040F0010394E8070098471034AC42F6D34D
:10022000FFF7C8FF142700083427000810B54FF463
:10023000A06000F047FE00F013F800F077F800F03F
:100240005FFA00F06DFD00F0E9FFBDE810404FF4EB
:100250008041014800F098BC0014024000F038B81A
:100260003EB54E200821CDE90010154C15490290ED
:10027000B7EE000A4FF416532246481C01F056F917
:10028000012240F22551204602F037F902221146A0
:10029000262000F0D7FD0C49A5152A46A1F128001B
:1002A00000F017FB09492A46A1F58A7000F011FBFE
:1002B00003B02046BDE83040012102F02DB8000017
:1002C00000440040050C0240C00C0020C00D00207E
:1002D000022002F089B9000008B500208DF8000066
:1002E000064800F0FAFA0028FAD1012269460348CC
:1002F00000F001FB9DF8000008BD0000980C0020F4
:1003000001B5084800F0EFFA0028FAD10122694649
:10031000044800F00AFB012240F22771024802F073
:10032000ECF808BDAC0C002000440040014800F08F
:10033000B9BB00000A0C024010B50E4C86B0022179
:10034000204600F0B5F8002811D00421204600F026
:1003500073F80949204600F057F86A460021204604
:1003600000F0FAF80DF10B01009800F03DF906B02D
:1003700010BD0000006400400800003210B5074CBA
:100380000121204600F094F8002805D02046BDE861
:100390001040012100F050B810BD00000064004082
:1003A00010B50E4C86B00221204600F081F80028DE
:1003B00011D00221204600F03FF80949204600F004
:1003C00023F86A460021204600F0C6F80DF10B0123
:1003D000009800F00BF906B010BD00000068004066
:1003E0000800003210B5074C0121204600F060F8EB
:1003F000002805D02046BDE81040012100F01CB8BF
:1004000010BD0000006800400A4A914202D100215C
:1004100081617047C1F313028B0101D5C26070473F
:100420004B0101D502617047090101D58260704717
:10043000426070477000F03030B508231024042269
:10044000B1F5007F1DD010DC202929D007DC01295F
:1004500021D0042922D0082900D1C46030BD402910
:1004600020D0B1F5807FF9D10BE00025B1F5004F28
:1004700006D008DCB1F5806F03D0B1F5006FEDD187
:100480008561426030BDB1F5803F0DD0B1F5003FD0
:10049000F8D1446030BD0549816030BDC36030BDD6
:1004A000036130BD046130BD436030BD0101010016
:1004B0000246002053690B424AD0B1F5807F3BD001
:1004C00013DC08292ED007DC012926D0022927D0E9
:1004D00004293DD1D0682BE0102925D0202926D031
:1004E000402935D11069102130E0B1F5004F2BD0F3
:1004F0000BDCB1F5007F22D0B1F5806F22D0B1F5D1
:10050000006F25D19069702120E0B1F5803F11D0B6
:10051000B1F5003F1CD15068E5E790680D4915E042
:10052000D06802E0D068DEE7106903210EE01069B0
:1005300008210BE05068FBE79069012106E0906913
:10054000022103E0906900E05068042100F097B8B0
:10055000704700000101010010B500EB0113D3F852
:10056000B04114F004041472D3F8B04134D0E4085C
:10057000C2F80440D3F8B04104F002045472D3F836
:10058000B44104F00F049472D3F8B441240AD47433
:10059000D3F8B841D472D3F8B841240A1473D3F80D
:1005A000B841240C5473D3F8B841240E9473D3F893
:1005B000BC41D473D3F8BC41240A1474D3F8BC41B1
:1005C000240C5474D3F8BC311B0E937439B10169F7
:1005D00041F02001016110BD640D1460CAE7C168DB
:1005E00041F02001C16010BD00F002B8AFF30080FF
:1005F00010B50C46B0F5017F2BD00DDCA0F50070D6
:1006000001381AD001281ED0022837D1082001F065
:10061000EBFF214602202DE0A0F5007005381ED02A
:10062000012822D0B0F5FE7F28D1052001F0DCFFA3
:100630002046BDE8104001F0E9BF062001F0D4FFDC
:100640002146002016E0072001F0CEFF21460120C0
:1006500010E0092001F0C8FF214603200AE00A202B
:1006600001F0C2FF2146042004E00B2001F0BCFF92
:1006700021460520BDE8104000F06ABB10BD0246CF
:1006800000200A4200D00120704700000148406865
:10069000704700000000002007484FF47A7201689C
:1006A000491CB1FBF2F3016002FB1311002902D1D6
:1006B0004168491C416070470000002070B50D463C
:1006C000044600F077FCA91D04F10A00BDE8704063
:1006D00000F0D2BA0029016802D041F0010101E026
:1006E00021F0010101607047406880B27047014607
:1006F00000200968090300D50120704700F038B8D0
:100700003EB54E200821CDE90010154C1549029048
:10071000B7EE000A4FF4E1332246481C00F006FF12
:10072000012240F22551204601F0E7FE0122114648
:10073000272000F087FB0C49A5152A46A1F12800C7
:1007400000F0C7F809492A46A1F58A7000F0C1F8FF
:1007500003B02046BDE83040012101F0DDBD0000BE
:1007600000480040080C0240E80E0020E80F00207E
:10077000032001F039BF000008B500208DF800000B
:10078000064800F0AAF80028FAD101226946034879
:1007900000F0B1F89DF8000008BD0000C00E002078
:1007A00001B5084800F09FF80028FAD101226946F7
:1007B000044800F0BAF8012240F22771024801F023
:1007C0009CFE08BDD40E00200048004010B500215A
:1007D0004AF20E4403E02246521EFDD2491C8142D9
:1007E000F9D310BDD0ED020A90ED031AD0ED001A36
:1007F00030EE811AD0ED050A70EEA10AD0ED011A93
:1008000030EE410A30EEA12AC0EE821AC0ED041A81
:1008100020EE210A80ED030A31EE000A20EEA01A34
:1008200080ED020A41EE610AC0ED050A704780EDD5
:10083000030A704780ED020A704780ED010A704795
:1008400010B5D0ED020A0446F5EEC00AF1EE10FA3A
:1008500029DD206800F0A0F92068D4ED020A90EDAF
:10086000070AB4EEE00AF1EE10FA12D284ED020AA1
:1008700090ED050A6068FFF7E0FF206890ED030A3D
:100880006068FFF7D7FF206890ED040A6068FFF703
:10089000CEFF206890ED030A84ED030A90ED040A70
:1008A00084ED040A10BD6068FFF79CFF606890ED5E
:1008B000020A84ED030A90ED030AF1E710B504463D
:1008C000D4E90001FFF795FC0020A060E060206102
:1008D00010BDC0E90012FFF7F1BF006908B10020A8
:1008E00070470120704701694068814201D10120B1
:1008F000704700207047F0B500231D460EE0846865
:100900000768661C86603C5DCC54D0E90146A6426F
:1009100000D185600469641E5B1C0461934202D2AD
:100920000469002CEBD11846F0BDF0B500231D463C
:1009300010E0C4680768CE5C04F1010CC0F80CC07C
:100940003E554668C468B44200D1C5600469641C61
:100950005B1C0461934203D246680469B442E8D147
:100960001846F0BD38B5044600200D460346022265
:1009700000901146204600F009F804F00F0124F021
:10098000FF002A46BDE8384000F0EEB82DE9FF4FE1
:10099000054620F0FF04384A38483949394E3A4F65
:1009A000DFF8E880DFF8E890DFF8E8A0DFF8E8B0EB
:1009B00083B0944202D1012108463CE0844204D134
:1009C0000121022000F088FA06E08C4204D10121C6
:1009D000042000F081FA06E0B44204D1012108208D
:1009E00000F07AFA06E0BC4204D10121102000F0A8
:1009F00073FA06E0444504D10121202000F06CFA8E
:100A000006E04C4504D10121402000F065FA06E0E3
:100A1000544504D10121802000F05EFA06E05C45D7
:100A200004D10121080200F057FA07E01B48844274
:100A300004D10121401500F04FFA05E01848844226
:100A400002D101210015F6E705F00F0101208840D1
:100A5000009004988DF8040005988DF8050006981C
:100A60008DF8060010988DF807006946204600F0C2
:100A700021F807B0BDE8F08F0000024000040240FA
:100A800000080240000C0240001002400014024026
:100A900000180240001C02400020024000240240D6
:100AA0000028024008B50021012302220091FFF72F
:100AB0006DFF08BDF0B50023012403270D6804FA7B
:100AC00003F21540954242D1D0F800C05E0007FA0B
:100AD00006F52CEA050CC0F800C091F804C0D0F867
:100AE00000E00CFA06FC4CEA0E0CC0F800C091F8CD
:100AF00004C0BCF1010F02D0BCF1020F1FD1D0F82D
:100B000008C02CEA050CC0F808C091F805C0D0F860
:100B100008E00CFA06FC4CEA0E0CC0F808C0D0F84D
:100B200004C02CEA020CC0F804C0426891F806C068
:100B30000CFA03FC1FFA8CFC42EA0C024260C26809
:100B4000AA43C260CA79C568B2402A43C2605B1C2E
:100B5000102BB3D3F0BD08B500210B460091022243
:100B60000121FFF713FF08BD4B07DB0E9A40C908B0
:100B700010B500EB8100016A0F249C40A143016283
:100B8000016A1143016210BD4183704701837047C0
:100B900042694A404261704782680168D0ED030AA9
:100BA00001EB8201521C91ED001A30EE412A90EDCA
:100BB000011AF8EE412AB8EE411AC2EE221AC0ED2F
:100BC000041A70EEA12AC0ED032A91ED003A73EEEB
:100BD000600A70EE800A70EEE20A20EE822AC2EE0F
:100BE000010AC0ED060A90ED051A31EE201A80EDDB
:100BF000051A21EEA11A00EEA01A80ED071A8260F4
:100C000081ED000AD0E901128A4201D10021816000
:100C10007047000030B5074B0020991D0C1F1A5C6F
:100C20000D5C42EAC50525540A54401C0228F6D33F
:100C300030BD000010000020F0B50E4F002107F17C
:100C40000802131F0E4608305C5C455CA54209D1C2
:100C500052F821400A2C03D2641C42F8214003E0E0
:100C60007D5401E042F82160445C5C54491C022937
:100C7000EAD3F0BD100000200A8802804A88428032
:100C80008A8882808A798271CA79C2710A890281CE
:100C900049894181704710B5022001F0ADFC48B18F
:100CA000082001F0A9FC48B1042001F0A5FC48B1DE
:100CB000002010BDBDE8104000F0ECBABDE81040C7
:100CC000FFF75ABDBDE81040FFF706BB002801D072
:100CD00001490860704700000800002000B5044882
:100CE000FFF7F4FF03485DF804EB00F005B80000DF
:100CF000970C0008090D0008002801D00149486040
:100D0000704700000800002010B5044600F0D6FA35
:100D10002046FFF745FD2046BDE81040FFF7F0BA3A
:100D200010B50948FFF717FF0848FFF714FF0648FA
:100D30004FF480410E38FFF729FF04488021BDE8B9
:100D40001040C01FFFF722BF0E14024007100240E0
:100D500038B5364A00EBC00502EB8504DFED340AF6
:100D6000638822F825300A8852BA62804D886DBAAD
:100D700000EE105A65608988B8EEC00A49BAA160D1
:100D800020EE200ADFED2B0A84ED080A00EE102A7F
:100D9000B8EE400A20EE200A8DED000A217B29B929
:100DA00084ED050A0021216101212173D11A09B2C4
:100DB00041F64C52914205DD2269A1F50051521EC7
:100DC000226108E041F64C52D14204DA226901F571
:100DD0000051521C226100EE101A9FED171A00EB11
:100DE0008001B8EEC00A154884ED070A94ED050AA3
:100DF000DDED000A00EB8105284630EEC00AD4ED97
:100E0000040AF8EEE00A00EE810A8DED000AFFF711
:100E100017FD95ED030ADFED0A0A84ED060A95ED4C
:100E2000040A20EE200A84ED070A38BD8000002065
:100E30006F12833ADB0F493ADB0FC940080C0020E0
:100E400000007A4408B58DF800008DF801108DF887
:100E5000022001208DF80300684600F001F808BD6B
:100E600030B50F22C47801780123FCB1144C2468FA
:100E700001F1E02104F4E064C4F5E064C4F3072464
:100E8000C4F10405E2404478AC4085781540254320
:100E90002A0181F80024007800F01F018B404009EE
:100EA000800000F1E020C0F8003130BD01F01F00EB
:100EB00083404809800000F1E020C0F8803130BD57
:100EC0000CED00E002490843024908607047000049
:100ED0000000FA050CED00E0044A0029116801D079
:100EE000014300E081431160704700003038024048
:100EF000044A0029116801D0014300E081431160D8
:100F00007047000040380240044A0029116801D0AF
:100F1000014300E081431160704700004438024003
:100F200070B5204A1168204C11F00C0104D01F4EFE
:100F3000042903D0082903D004601BE0066019E0EF
:100F40001849091F0B68C3F380550B6803F03F0372
:100F500015B1B6FBF3F301E0B4FBF3F30C680968D9
:100F6000C4F388146343C1F30141491C4900B3FB36
:100F7000F1F1016011680F2303EA11110C4B5C5C65
:100F80000168E14041601468072505EA94241C5D6E
:100F900021FA04F48460126805EA52329A5CD14066
:100FA000C16070BD083802400024F400001BB70087
:100FB000580000200A88C2F30A0202804A788B781F
:100FC000D20842EA4312C2F30A0242808A78CB78FE
:100FD000920942EA83020B7942EA8322C2F30A02AF
:100FE00082800A794B79520842EAC312C2F30A029C
:100FF000C2804A79920902724979C1F301114172A2
:10100000704700F001B8000010B50446002001F060
:10101000EBFA21460548FFF751FB0448FFF70CFEA9
:10102000BDE810400148FFF7F5BD0000800C00202E
:1010300070B5FFF72BFB0546094804680DE0A06872
:10104000A84201D2281A01E0C043284461688142C5
:1010500002D820688047A560E468002CEFD170BDFD
:10106000200000201CB500202E49019000900A6845
:1010700042F480320A604FF4A0430A6802F400325E
:101080000092019A521C0192009A12B9019A9A4256
:10109000F3D10A68920342D50120009021484030E4
:1010A000026842F0805202601F48026842F44042E7
:1010B00002601C4A083213681360136843F400434B
:1010C0001360136843F4A0531360141F174B23607D
:1010D0000B6843F080730B600B689B01FCD50168C3
:1010E00041F4803101604168C903FCD5016841F4D5
:1010F0000031016041688903FCD50D4940F205705B
:101100000860106820F003001060106840F00200D2
:1011100010601068C0F381000228FAD11CBD009055
:101120001CBD000000380240007000400C54400715
:10113000003C0240FFF77CBF124810B5016841F443
:10114000700101601048016841F0010101600E4A20
:1011500000210832116002680C4B1A400260031D26
:101160000B4A1A60026822F48022026006480C30A2
:101170000160FFF777FF03494FF000608039086096
:1011800010BD000088ED00E000380240FFFFF6FED1
:101190001030002410B501218C07204600F02EF8F5
:1011A00000280BD00121204600F025F8012120461F
:1011B00000F01EF8BDE8104000F02CB810BD000093
:1011C00010B50A4C0121204600F018F800280BD079
:1011D0000121204600F00FF80121204600F008F818
:1011E000BDE81040FFF7A6BF10BD00000010004092
:1011F000C94301827047C9430182704702460020FB
:10120000138A92890B4202EA010202D0002A00D01E
:1012100001207047FFF740BA00F038B83EB54E20C5
:101220000821CDE90010154C15490290B7EE000ACF
:101230004FF4E1332246481C00F078F9012240F2D5
:101240002551204601F059F9012211464720FFF7A8
:10125000F9FD0C49A5152A46A1F12800FFF739FB35
:1012600009492A46A1F58A70FFF733FB03B02046EF
:10127000BDE83040012101F04FB8000000140140EA
:10128000050C02405811002058120020012001F0E6
:10129000ABB9000008B500208DF800000648FFF744
:1012A0001CFB0028FAD1012269460348FFF723FB03
:1012B0009DF8000008BD00003011002001B508486D
:1012C000FFF711FB0028FAD1012269460448FFF715
:1012D0002CFB012240F22771024801F00EF908BDF3
:1012E000441100200014014070B51B4E40F224440C
:1012F0002146304601F0E2F800282BD0174D214658
:10130000304601F003F8164C00212046FFF7E2F9C1
:101310002046FFF7E9F9C0F1240086B22420211D00
:1013200008602046FFF7E3F978B12068243520F4FF
:101330000020206001212046FFF7CCF9122E09D1B0
:101340002846BDE87040FFF75CBE206840F40020EE
:101350002060EFE770BD000000100140E8100020A1
:10136000406402407CB5234D40F227763146284642
:1013700001F0A4F80024C0B11F48FFF7AEFA38B15D
:1013800002B031462846BDE87040002201F0B5B8F1
:101390008DF80040012269461748FFF7ACFA9DF826
:1013A0000010284601F01CF97CBD40F2255128466A
:1013B00001F084F80028F7D0284601F00DF98DF8E7
:1013C00000000D481438FFF78EFA38B10A488DF83E
:1013D0000440012201A91438FFF78DFA06480122C2
:1013E00069461438FFF7A1FA9DF80000FEF736FFB2
:1013F0007CBD000000440040AC0C00207CB5234DB7
:1014000040F227763146284601F058F80024C0B152
:101410001F48FFF762FA38B102B031462846BDE8EE
:101420007040002201F069B88DF800400122694641
:101430001748FFF760FA9DF80010284601F0D0F831
:101440007CBD40F22551284601F038F80028F7D03D
:10145000284601F0C1F88DF800000D481438FFF758
:1014600042FA38B10A488DF80440012201A9143823
:10147000FFF741FA0648012269461438FFF755FA8A
:101480009DF80000FFF73AF97CBD000000480040DD
:10149000D40E00207CB5234D40F2277631462846F5
:1014A00001F00CF80024C0B11F48FFF716FA38B15C
:1014B00002B031462846BDE87040002201F01DB858
:1014C0008DF80040012269461748FFF714FA9DF88D
:1014D0000010284601F084F87CBD40F225512846D2
:1014E00000F0ECFF0028F7D0284601F075F88DF8E1
:1014F00000000D481438FFF7F6F938B10A488DF8A6
:101500000440012201A91438FFF7F5F90648012229
:1015100069461438FFF709FA9DF80000FFF77CFED2
:101520007CBD000000140140441100202DE9FF4F54
:101530000C462DED020B05462DED028B83B0B0EE6F
:10154000408ADDE91576FE49DFF8F893099809F13C
:10155000040A0AF1040B88427ED1A9F10400B0EB21
:10156000152F25D0B9EB152F22D0BAEB152F1FD090
:10157000BBEB152F1CD00BF10401B1EB152F17D0CD
:10158000091DB1EB152F13D0091DB1EB152F0FD08D
:10159000091DB1EB152F0BD0091DB1EB152F07D08D
:1015A000091DB1EB152F03D0091DB1EB152F38D153
:1015B000B0EB142F25D0B9EB142F22D0BAEB142F97
:1015C0001FD0BBEB142F1CD0DE490C31B1EB142F14
:1015D00017D0091DB1EB142F13D0091DB1EB142F37
:1015E0000FD0091DB1EB142F0BD0091DB1EB142F37
:1015F00007D0091DB1EB142F03D0091DB1EB142F37
:101600000FD107212846FFF7ADF907212046FFF744
:10161000A9F9CDE90076B0EE480A2021149B0A9A78
:101620006DE0B0EB152F2DD0B9EB152F2AD0BAEB0A
:10163000152F27D0BBEB152F24D0C24B0C33B3EBA7
:10164000152F1FD003F1040EBEEB152F1AD00EF18B
:101650000403B3EB152F00E055E013D003F1040CA5
:10166000BCEB152F0ED00CF10408B8EB152F09D0E8
:1016700008F10408B8EB152F04D008F10408B8EB02
:10168000152F0BD107212846FFF76CF9CDE900761D
:10169000B0EE480A7221149B0A9A30E0B0EB142F86
:1016A00022D0B9EB142F1FD0BAEB142F1CD0BBEBF8
:1016B000142F19D0A3480C30B0EB142F14D0BEEB6C
:1016C000142F11D0B3EB142F0ED0BCEB142F0BD072
:1016D0009C481C30B0EB142F06D0001DB0EB142F2B
:1016E00002D0B8EB142F76D107212046FFF73AF944
:1016F000CDE90076149B0A9AB0EE480A742190480E
:1017000000F014FED8E001468F4881427DD18D481B
:10171000001FB0EB152F25D0B9EB152F22D0BAEB57
:10172000152F1FD0BBEB152F1CD086490C31B1EB08
:10173000152F17D0091DB1EB152F13D0091DB1EBD3
:10174000152F0FD0091DB1EB152F0BD0091DB1EBD3
:10175000152F07D0091DB1EB152F03D0091DB1EBD3
:10176000152F39D1B0EB142F25D0B9EB142F22D07F
:10177000BAEB142F1FD0BBEB142F1CD071490C31C6
:10178000B1EB142F17D0091DB1EB142F13D0091D85
:10179000B1EB142F0FD0091DB1EB142F0BD0091D85
:1017A000B1EB142F07D0091DB1EB142F03D0091D85
:1017B000B1EB142F10D107212846FFF7D3F80721EA
:1017C0002046FFF7CFF8CDE90076B0EE480A202199
:1017D000149B0A9A6CE0FDE3B0EB152F2DD0B9EB0A
:1017E000152F2AD0BAEB152F27D0BBEB152F24D0FD
:1017F000544A0C32B2EB152F1FD002F1040EBEEB8F
:10180000152F1AD00EF1040300E055E0B3EB152FAD
:1018100013D003F1040CBCEB152F0ED00CF104080F
:10182000B8EB152F09D008F10408B8EB152F04D038
:1018300008F10408B8EB152F0BD107212846FFF754
:1018400091F8CDE90076B0EE480A7221149B0A9A0D
:101850002EE0B0EB142F20D0B9EB142F1DD0BAEB33
:10186000142F1AD0BBEB142F17D0B2EB142F14D0B7
:10187000BEEB142F11D0B3EB142F0ED0BCEB142FF2
:101880000BD030481C30B0EB142F06D0001DB0EB4D
:10189000142F02D0B8EB142F0DD107212046FFF7EB
:1018A00061F8CDE90076149B0A9AB0EE480A7421DB
:1018B000254800F03BFDE1E02449099888427DD1AC
:1018C0002048001FB0EB152F25D0B9EB152F22D0E3
:1018D000BAEB152F1FD0BBEB152F1CD019490C31BB
:1018E000B1EB152F17D0091DB1EB152F13D0091D22
:1018F000B1EB152F0FD0091DB1EB152F0BD0091D22
:10190000B1EB152F07D0091DB1EB152F03D0091D21
:10191000B1EB152F41D1B0EB142F2ED0B9EB142F12
:101920002BD0BAEB142F28D0BBEB142F25D00549B0
:101930000C31B1EB142F20D0091DB1EB142F07E0AF
:1019400000100140040240000044004000480040F4
:1019500013D0091DB1EB142F0FD0091DB1EB142FBB
:101960000BD0091DB1EB142F07D0091DB1EB142FBB
:1019700003D0091DB1EB142F0FD107212846FEF724
:10198000F1FF07212046FEF7EDFFCDE90076B0EE2E
:10199000480A2021149B0A9A6CE0B0EB152F2CD03A
:1019A000B9EB152F29D0BAEB152F26D0BBEB152F8D
:1019B00023D0DFF878E4BEEB152F00E05EE01CD00A
:1019C0000EF10403B3EB152F17D01B1DB3EB152F2E
:1019D00013D003F1040CBCEB152F0ED00CF104084E
:1019E000B8EB152F09D008F10408B8EB152F04D077
:1019F00008F10408B8EB152F0BD107212846FEF794
:101A0000B1FFCDE90076B0EE480A7221149B0A9A24
:101A100030E0B0EB142F22D0B9EB142F1FD0BAEB6B
:101A2000142F1CD0BBEB142F19D0BEEB142F16D0E3
:101A3000FE48001DB0EB142F11D0B3EB142F0ED0C5
:101A4000BCEB142F0BD0F9481030B0EB142F06D09C
:101A5000001DB0EB142F02D0B8EB142F0DD10721CD
:101A60002046FEF77FFFCDE90076149B0A9AB0EE80
:101A7000480A7421EE4800F059FCD6E0ED48099977
:101A800081427CD1E9481038B0EB152F24D0B9EB56
:101A9000152F21D0BAEB152F1ED0BBEB152F1BD065
:101AA000E249B1EB152F17D0091DB1EB152F13D05B
:101AB000091DB1EB152F0FD0091DB1EB152F0BD060
:101AC000091DB1EB152F07D0091DB1EB152F03D060
:101AD000091DB1EB152F37D1B0EB142F24D0B9EB82
:101AE000142F21D0BAEB142F1ED0BBEB142F1BD018
:101AF000CE49B1EB142F17D0091DB1EB142F13D021
:101B0000091DB1EB142F0FD0091DB1EB142F0BD011
:101B1000091DB1EB142F07D0091DB1EB142F03D011
:101B2000091DB1EB142F0FD108212846FEF71AFF2B
:101B300008212046FEF716FFCDE90076B0EE480AF0
:101B40002021149B0A9A6CE0B0EB152F2CD0B9EB36
:101B5000152F29D0BAEB152F26D0BBEB152F23D08C
:101B6000DFF8C8E2BEEB152F1ED00EF10403B3EB75
:101B7000152F19D01B1DB3EB152F15D000E054E025
:101B800003F1040CBCEB152F0ED00CF10408B8EBDC
:101B9000152F09D008F10408B8EB152F04D008F16F
:101BA0000408B8EB152F0BD108212846FEF7DAFE02
:101BB000CDE90076B0EE480A7221149B0A9A30E013
:101BC000B0EB142F22D0B9EB142F1FD0BAEB142F87
:101BD0001CD0BBEB142F19D0BEEB142F16D093489A
:101BE000001DB0EB142F11D0B3EB142F0ED0BCEBB3
:101BF000142F0BD08D481030B0EB142F06D0001DE1
:101C0000B0EB142F02D0B8EB142F0DD108212046D1
:101C1000FEF7A8FECDE90076149B0A9AB0EE480ABA
:101C20007421844800F082FBD6E083480999814200
:101C30007ED17E481038B0EB152F24D0B9EB152F8C
:101C400021D0BAEB152F1ED0BBEB152F1BD0774937
:101C5000B1EB152F17D0091DB1EB152F13D0091DAE
:101C6000B1EB152F0FD0091DB1EB152F0BD0091DAE
:101C7000B1EB152F07D0091DB1EB152F03D0091DAE
:101C8000B1EB152F37D1B0EB142F24D0B9EB142FB3
:101C900021D0BAEB142F1ED0BBEB142F1BD06349FD
:101CA000B1EB142F17D0091DB1EB142F13D0091D60
:101CB000B1EB142F0FD0091DB1EB142F0BD0091D60
:101CC000B1EB142F07D0091DB1EB142F03D0091D60
:101CD000B1EB142F0FD108212846FEF743FE08214F
:101CE0002046FEF73FFECDE90076B0EE480A2021FF
:101CF000149B0A9A6CE0B0EB152F2CD0B9EB152F82
:101D000029D0BAEB152F26D0BBEB152F23D0DFF847
:101D10001CE1BEEB152F1ED00EF10403B3EB152F03
:101D200019D01B1DB3EB152F15D003F1040C00E0E7
:101D300052E0BCEB152F0ED00CF10408B8EB152FB8
:101D400009D008F10408B8EB152F04D008F10408F5
:101D5000B8EB152F0BD108212846FEF703FECDE97D
:101D60000076B0EE480A7221149B0A9A30E0B0EB7C
:101D7000142F22D0B9EB142F1FD0BAEB142F1CD084
:101D8000BBEB142F19D0BEEB142F16D02748001D23
:101D9000B0EB142F11D0B3EB142F0ED0BCEB142FDB
:101DA0000BD022481030B0EB142F06D0001DB0EB42
:101DB000142F02D0B8EB142F0DD108212046FEF7C6
:101DC000D1FDCDE90076149B0A9AB0EE480A742141
:101DD000194800F0ABFAE1E01849099888427DD132
:101DE00012481038B0EB152F2FD0B9EB152F2CD08F
:101DF000BAEB152F29D0BBEB152F26D00B49B1EB31
:101E0000152F22D0091DB1EB152F1ED0091DB1EBE6
:101E1000152F1AD0091DB1EB152F16D0091DB1EBE6
:101E2000152F12D0091DB1EB152F09E0100240004B
:101E300000480040004C00400050004000140140A9
:101E400003D0091DB1EB152F37D1B0EB142F24D0DF
:101E5000B9EB142F21D0BAEB142F1ED0BBEB142FEB
:101E60001BD0FE49B1EB142F17D0091DB1EB142F75
:101E700013D0091DB1EB142F0FD0091DB1EB142F96
:101E80000BD0091DB1EB142F07D0091DB1EB142F96
:101E900003D0091DB1EB142F0FD108212846FEF7FE
:101EA00061FD08212046FEF75DFDCDE90076B0EE2C
:101EB000480A2021149B0A9A6CE0B0EB152F2CD015
:101EC000B9EB152F29D0BAEB152F26D0BBEB152F68
:101ED00023D0DFF888E3BEEB152F00E05EE01CD0D6
:101EE0000EF10403B3EB152F17D01B1DB3EB152F09
:101EF00013D003F1040CBCEB152F0ED00CF1040829
:101F0000B8EB152F09D008F10408B8EB152F04D051
:101F100008F10408B8EB152F0BD108212846FEF76D
:101F200021FDCDE90076B0EE480A7221149B0A9A91
:101F300030E0B0EB142F22D0B9EB142F1FD0BAEB46
:101F4000142F1CD0BBEB142F19D0BEEB142F16D0BE
:101F5000C248001DB0EB142F11D0B3EB142F0ED0DC
:101F6000BCEB142F0BD0BD481030B0EB142F06D0B3
:101F7000001DB0EB142F02D0B8EB142F0DD10821A7
:101F80002046FEF7EFFCCDE90076149B0A9AB0EEEE
:101F9000480A7421B24800F0C9F9D3E0B148099960
:101FA00081427DD1AD481038B0EB152F26D0B9EB6A
:101FB000152F23D0BAEB152F20D0BBEB152F1DD03A
:101FC000A649B1EB152F19D0091DB1EB152F15D06E
:101FD000091D00E01CE1B1EB152F0FD0091DB1EB7D
:101FE000152F0BD0091DB1EB152F07D0091DB1EB33
:101FF000152F03D0091DB1EB152F37D1B0EB142FDE
:1020000024D0B9EB142F21D0BAEB142F1ED0BBEB88
:10201000142F1BD09149B1EB142F17D0091DB1EB30
:10202000142F13D0091DB1EB142F0FD0091DB1EBE4
:10203000142F0BD0091DB1EB142F07D0091DB1EBE4
:10204000142F03D0091DB1EB142F0FD108212846FE
:10205000FEF788FC08212046FEF784FCCDE90076D7
:10206000B0EE480A2021149B0A9A69E08646B0EB3C
:10207000152F2BD0B9EB152F28D0BAEB152F25D063
:102080005846BBEB152F21D07449B1EB152F1DD04D
:102090000A1DB2EB152F19D0131DB3EB152F00E05D
:1020A00050E013D003F1040CBCEB152F0ED00CF153
:1020B0000408B8EB152F09D008F1040BBBEB152F62
:1020C00004D00BF10408B8EB152F0BD108212846DA
:1020D000FEF748FCCDE90076B0EE480A7221149B69
:1020E0000A9A2DE0BEEB142F1FD0B9EB142F1CD091
:1020F000BAEB142F19D0B0EB142F16D0B1EB142F6C
:1021000013D0B2EB142F10D0B3EB142F0DD0BCEBC7
:10211000142F0AD051481030B0EB142F05D0BBEB70
:10212000142F02D0B8EB142F72D108212046FEF7ED
:1021300019FCCDE90076149B0A9AB0EE480A742186
:102140004848A9E048480999814261D1434810387C
:10215000B0EB152F24D0B9EB152F21D0BAEB152FEA
:102160001ED0BBEB152F1BD03C49B1EB152F17D060
:10217000091DB1EB152F13D0091DB1EB152F0FD091
:10218000091DB1EB152F0BD0091DB1EB152F07D091
:10219000091DB1EB152F03D0091DB1EB152F38D157
:1021A000B0EB142F24D0B9EB142F21D0BAEB142F9D
:1021B0001ED0BBEB142F1BD02849B1EB142F17D026
:1021C000091DB1EB142F13D0091DB1EB142F0FD043
:1021D000091DB1EB142F0BD0091DB1EB142F07D043
:1021E000091DB1EB142F03D0091DB1EB142F10D131
:1021F00008212846FEF7B6FB08212046FEF7B2FB71
:10220000CDE90076B0EE480A2021149B0A9A42E0FC
:1022100044E08646B0EB152F32D0B9EB152F2FD006
:10222000BAEB152F2CD05846BBEB152F28D00B49F5
:10223000B1EB152F24D00A1DB2EB152F20D0131DA2
:10224000B3EB152F1CD003F1040CBCEB152F17D0EA
:102250000CF1040BBBEB152F12D007E0100240006D
:102260000014014000780040007C00400BF104089D
:10227000B8EB152F04D008F10408B8EB152F13D1D3
:1022800008212846FEF76EFBCDE90076149B0A9ADA
:10229000B0EE480A72211B4800F048F803B0BDECCC
:1022A000028B06B0BDE8F08FBEEB142F1ED0B9EB49
:1022B000142F1BD0BAEB142F18D0B0EB142F15D05D
:1022C000B1EB142F12D0B2EB142F0FD0B3EB142FAD
:1022D0000CD0BCEB142F09D0BBEB142F06D00A484E
:1022E000B0EB142F02D0B8EB142FD7D10821204621
:1022F000FEF738FBCDE90076B0EE480A7421149B56
:102300000A9AC8E7007C0040240240000A0A012122
:102310009140C943018070470029818902D041F46E
:10232000005101E021F40051818170472DE9FF4FF8
:102330000E462DED020B0446584A59485949DFF81C
:102340006881DFF86891DFF868A1DFF868B194422E
:102350002DED028B85B0B0EE408ADDE9167504D113
:1023600001211020FEF7D0FD2EE0844204D101218E
:102370004804FEF7BDFD06E08C4204D1012188042B
:10238000FEF7B6FD06E0444504D10121C804FEF77E
:10239000AFFD06E04C4504D101210805FEF7A8FD7C
:1023A00006E0544504D101212020FEF7ADFD04E0F4
:1023B0005C4502D10121880704E03F48844203D1F3
:1023C00001214005FEF794FD722E3BD0522E39D0EC
:1023D000742E39D0542E37D05FF00C00ADF80A00BF
:1023E0000B9800900C9A00204FF48051092A2DD0B0
:1023F000ADF804006F2F2CD04F2F2AD0652F2BD093
:10240000452F29D0ADF8080018EE102AB2F17C5FF4
:102410002CD018EE101AB1F17F5F22D018EE101AEE
:10242000B1F1804F20D0ADF80600722D21D0522D91
:102430001FD0632D20D0432D1ED0612D1FD0412DE4
:102440001DD01EE00420C9E70820C7E7ADF804103E
:10245000D0E74FF4C06201E04FF48062ADF808208D
:10246000D2E74FF4405101E04FF40051ADF80610AF
:10247000DBE74FF4807004E04FF4007001E04FF4AC
:102480004070ADF80C006946204600F04FF805B0EA
:10249000BDEC028B06B0BDE8F08F000000100140DB
:1024A0000044004000480040004C00400050004004
:1024B0000014014000780040007C004030B501F07D
:1024C0001F0201240025C1F3421304FA02F2012B7A
:1024D0000FD0022B0FD0838A4FEA112100881342BC
:1024E00004FA01F400EA040001D000B101252846F5
:1024F00030BD8389F0E7038AEEE710B5C1F34213DC
:1025000001F01F040121A140012B07D0022B07D0AD
:102510001430002A026805D00A4304E00C30F8E7C2
:102520001030F6E78A43026010BD00007FB5044614
:10253000008A0D4620F44051E88808432082A08993
:1025400041F20C618843A9882A8911436A890243B0
:102550001143A181A08A20F44071A8890843A08278
:102560006846FEF7DDFC1A48844202D019488442CE
:1025700001D1039800E00298A189090400EBC00191
:1025800001EB0010296801D5490000E08900B0FB8B
:10259000F1F26420B2FBF0F109010B096FF01805AC
:1025A0006B4302EB8302A3891D044FF0320306D56F
:1025B00003EBC202B2FBF0F000F0070005E003EB12
:1025C0000212B2FBF0F000F00F00084320817FBD43
:1025D00000100140001401408088C0F308007047DB
:1025E000C1F3080181807047024A002142F820109F
:1025F000704700002800002003490968884301D083
:1026000000207047012070472400002008B50168B1
:10261000C07809BA21F0FF01014300EE101ADFED86
:10262000130A1148B8EEC00A016020EE200A8DEDB1
:10263000000A017919B980ED020A0121017190EDBA
:10264000030ADDED000A30EEC00ADFED090A20EED4
:10265000200A80ED040A90ED020ADDED000A30EE5A
:10266000C00A80ED030A08BD6C000020D30237B910
:1026700000007A44014A024900F013B8C526000858
:102680006800002002E008C8121F08C1002AFAD121
:1026900070477047002001E001C1121F002AFBD1E2
:1026A00070472DE9F04116460F460446002503E029
:1026B0003946B047641C6D1C20780028F8D12846A4
:1026C000BDE8F08110B504460348416809B1E0B2A5
:1026D0008847204610BD000008000020FDF7A6FD39
:1026E000FEF7FCFA064D4FF4804421462846FEF7DB
:1026F0004FFA04A0FFF7BEFF6420FEF767F8F4E787
:102700000014024048656C6C6F2C204A61636B2E8C
:102710000A00000034270008000000206C000000C0
:1027200084260008A02700086C000020EC1600009A
:1027300094260008000000000000000000000000D7
:102740000000000000000000000000000000000089
:102750000000000000000000FFFFFFFF6400000019
:1027600064000000640000006400000064000000D9
:1027700064000000640000006400000064000000C9
:10278000640000006400000064000000000000001D
:102790000102030401020304060708090000000007
:04000005080001AD41
:00000001FF
