:020000040800F2
:1000000090200020C1010008A1200008731B0008F7
:10001000E31E0008CD090008D356000800000000C8
:10002000000000000000000000000000573B000836
:100030003D1700080000000001390008D901000840
:10004000DB010008DB010008DB010008DB01000820
:10005000DB010008DB010008DB010008DB01000810
:10006000DB010008DB010008DB010008DB01000800
:10007000DB010008DB010008DB010008DB010008F0
:10008000DB010008DB010008DB010008150A00089D
:10009000D1090008DB010008DB010008DB010008D2
:1000A000DB010008DB010008DB010008DB010008C0
:1000B000353D0008DB010008DB010008DB0100081A
:1000C000DB010008DB010008DB010008DB010008A0
:1000D000DB01000855430008D943000871440008BB
:1000E000DB010008DB010008DB010008DB01000880
:1000F000DB010008DB010008DB010008DB01000870
:10010000DB010008DB010008DB010008DB0100085F
:10011000DB010008DB010008613D0008DB0100088D
:10012000DB010008DB010008DB010008DB0100083F
:10013000DB010008DB010008DB0100087D0A000884
:10014000390A0008DB010008DB010008DB010008B8
:10015000DB010008DB010008DB010008094500089D
:10016000DB010008DB010008DB010008DB010008FF
:10017000DB010008DB010008DB01000800000000D3
:10018000DB010008DB010008DB010008DB010008DF
:10019000DB010008DB010008DB010008DB010008CF
:1001A0000000000000000000DB010008DFF80CD0B8
:1001B00000F098FA00480047CD6100089020002028
:1001C0000648804706480047FEE7FEE7FEE7FEE7F1
:1001D000FEE7FEE7FEE7FEE7FEE7FEE7D93C0008A4
:1001E000AD01000840EA01039B0703D009E008C9FC
:1001F000121F08C0042AFAD203E011F8013B00F8EC
:10020000013B521EF9D27047D2B201E000F8012B37
:10021000491EFBD270470022F6E710B513460A4686
:1002200004461946FFF7F0FF204610BD2DE9FE4FAA
:1002300081EA030404F0004421F0004100944FF0EF
:10024000000B23F0004350EA01045ED052EA03049D
:100250005BD0C3F30A54C1F30A552C44A4F2F3341F
:100260000194A0FB0254C1F3130141F48011C3F3C4
:10027000130343F4801301FB024400FB034E840A82
:10028000970A44EA815447EA8357A4FB076802951A
:100290008D0A05FB07854FEA932C04FB0C542705B8
:1002A000029D4FEA065847EA1637B5EB08056EEB94
:1002B000070C870E920E47EA811742EA8312A7FBCA
:1002C0000201B6EB0B0164EB00042B0D43EA0C3387
:1002D0005E1844EB1C50DA465146E7FB0201C5F3B9
:1002E00013044FEA0B3343EA14534FEA0432019CE0
:1002F00043EA0603A4F10C040294009CCDE900B487
:1003000000F0CBF803B0BDE8F08F00200146F9E71C
:100310002DE9F04D81EA030404F0004B21F0004583
:1003200014464FF0000A23F0004150EA050220D0A5
:1003300054EA01021DD0C5F30A570246C5F3130360
:10034000C1F31300C1F30A5640F4801543F480133F
:10035000A7EB0608101BD64608F2FD3873EB050024
:1003600002D308F1010801E092185B41B8F1000FD7
:1003700003DA00200146BDE8F08D00204FF4801123
:10038000064684460EE0171B73EB050705D3121BC8
:1003900063EB050306434CEA010C49084FEA3000C1
:1003A00092185B4150EA0107EDD152EA030012D0E6
:1003B00082EA040083EA0501084305D0101BAB4123
:1003C00006D20122002306E000224FF0004302E0A3
:1003D0006FF0010253101AEB06004CEB085110EBC2
:1003E0000A0041EB0B01BDE8F04D00F047B830B515
:1003F0000B46014600202022012409E021FA02F5E3
:100400009D4205D303FA02F5491B04FA02F528447C
:10041000151EA2F10102F1DC30BD2DE9F05F0546A9
:10042000002092469B4688460646814640241BE0B3
:10043000284641464746224600F075F953465A463B
:10044000C01A914110D311461846224600F05CF9BB
:100450002D1A67EB01084F4622460120002100F0CB
:1004600053F917EB00094E41201EA4F10104DFDC13
:10047000484631462A464346BDE8F09F10B5141E53
:1004800073F1000408DA401C41F1000192185B414D
:100490001A4301D120F0010010BD2DE9F04D924624
:1004A0009B4611B1B1FA81F202E0B0FA80F220323B
:1004B000904600F029F904460F4640EA0A0041EA56
:1004C0000B0153465A46084313D0114653EA010024
:1004D00019D0C8F14002504600F025F905460E46F5
:1004E00050465946424600F00FF9084305D0012016
:1004F00004E020463946BDE8F08D0020054346EA79
:10050000E0762C4337430A986305E40AA0EB080021
:100510000022FD0A44EA47540A3002D50020014671
:10052000E9E7010510196941DDE90845001969414C
:10053000BDE8F04DA2E72DE9FE4F804681EA0300B9
:10054000C00F0C46009021F0004123F00045B8EBAD
:100550000200A94105D24046214690461C460B4662
:10056000024623F00040104347D0270DC7F30A008E
:10057000C3F30A510290401A019040286BDAC3F38A
:10058000130040F4801B0098924620B10023D2EB68
:10059000030A63EB0B0B01985946C0F14002504629
:1005A00000F0B2F806460D4650465946019A00F052
:1005B000CAF810EB08006141002487EA115284EA6E
:1005C000E7731A4340D0009A62B3019A012A4FEAB6
:1005D000075215DC001B61EB02014FF0004202EAFA
:1005E0000752CDE90042001C41F5801132462B46EE
:1005F000FFF753FF03B0BDE8F08F40462146F9E70F
:10060000001B61EB0201001C41F5801300185B41E7
:100610002018A2F5001747EB030140EAD570B61980
:100620006D4111E06D084FEA360645EAC0754FEAA4
:100630000752001B61EB0201001C41F580114908C3
:100640004FEA30000019514132462B4603B0BDE855
:10065000F04FFFF713BF0098012240000023D0EBBA
:10066000020263EBE073009821464FEAE074B8EBB6
:10067000000061EB0401E9E783F000435BE781F0F0
:10068000004158E7C1F30A52C1F3130140F2FF33AE
:1006900041F480119A4202DA00200146704740F28C
:1006A00033439A42A2F2334202DC524200F03BB89A
:1006B00000F02AB830B5041E71F1000404DB4FF0DD
:1006C0000044404264EB0101141E73F1000405DB99
:1006D0001C464FF00043524263EB0403994208BFAB
:1006E000904230BD064C074D06E0E06840F0010343
:1006F00094E8070098471034AC42F6D3FFF75AFD50
:10070000C4630008E4630008202A04DB203A00FAEE
:1007100002F1002070479140C2F1200320FA03F358
:10072000194390407047202A04DB203A21FA02F056
:100730000021704721FA02F3D040C2F1200291401B
:10074000084319467047202A06DBCB17203A41FAA6
:1007500002F043EAE07306E041FA02F3D040C2F14E
:100760002002914008431946704770B58C1810F864
:10077000015B15F0070301D110F8013B2A1106D1E6
:1007800010F8012B03E010F8016B01F8016B5B1E00
:10079000F9D12B0705D40023521E0DD401F8013BDB
:1007A000FAE710F8013BCB1A921C03E013F8015B47
:1007B00001F8015B521EF9D5A142D8D3002070BDCB
:1007C00038B50020074C03460246014600902046FB
:1007D00000F0DCFB2046BDE838400022114601F065
:1007E00079B800000064004008B501211E4801F0FE
:1007F0003AF802001D484FF4804102D001F0A7F9F9
:1008000001E001F0A6F90221174801F02CF80100DF
:1008100017484FF0800102D001F099F901E001F092
:1008200098F9144890ED030ABDEEC00A10EE101AB4
:1008300009B2009190ED020ABDEEC00A10EE101A46
:1008400090ED010A0BB2BDEEC00A10EE101A90ED49
:10085000000A0AB2BDEEC00A10EE100A01B2064844
:1008600000F094FB08BD0000A4000020001402402A
:1008700000100240A00400200064004010B501F008
:100880000BFA00F091FCFFF79BFF00F067FD00F012
:10089000E5FD04F027FF01F0A5F904F06DFFBDE8C8
:1008A000104004F0EDBE10B504F038FF01F0A0F9DF
:1008B00004F06AFFBDE8104004F0E9BE10B54FF443
:1008C000A06001F02FFC00F01DF800F079F800F0B6
:1008D000CBFE01F01FFA03F015F803F0D1F803F096
:1008E000CAFC03F0D9FC00F07DFB00F0B5FBBDE8CD
:1008F00010404FF48041014801F029B90014024032
:1009000000F038B83EB54E200821CDE90010154C56
:1009100015490290B7EE000A4FF416532246481CC0
:1009200003F03EFE012240F22551204604F032FE43
:1009300001220221262001F0B4FB0C49A5152A460C
:10094000A1F1280000F040FF09492A46A1F58A706C
:1009500000F03AFF03B02046BDE83040012104F02A
:1009600018BD000000440040050C0240F4050020C2
:10097000F4060020022004F0ADBE000038B50020CF
:100980008DF800000C4800F023FF0028FAD10B4D31
:1009900040F2255400222146284604F0FBFD0122A6
:1009A0006946054800F022FF01222146284604F04E
:1009B000F1FD9DF8000038BDCC050020004400404A
:1009C000014801F04BB800000A0C0240FEE70000AD
:1009D00010B50E4C86B00221204600F06DF90028BB
:1009E00011D00421204600F073F80949204600F098
:1009F00057F86A460021204600F02EFA0DF10B014F
:100A0000009800F0EDFA06B010BD00000064004050
:100A10000800003210B5074C0121204600F04CF9C7
:100A2000002805D02046BDE81040012100F050B854
:100A300010BD00000064004010B50E4C86B00221CD
:100A4000204600F039F9002811D00221204600F09C
:100A50003FF80949204600F023F86A460021204665
:100A600000F0FAF90DF10B01009800F0F3FA06B06E
:100A700010BD0000006800400800003210B5074CAF
:100A80000121204600F018F9002805D02046BDE8D5
:100A90001040012100F01CB810BD000000680040AB
:100AA0000A4A914202D1002181617047C1F31302C9
:100AB0008B0101D5C26070474B0101D502617047BF
:100AC000090101D582607047426070477000F030C4
:100AD00030B5082310240422B1F5007F1DD010DCAE
:100AE000202929D007DC012921D0042922D0082976
:100AF00000D1C46030BD402920D0B1F5807FF9D14C
:100B00000BE00025B1F5004F06D008DCB1F5806F91
:100B100003D0B1F5006FEDD18561426030BDB1F514
:100B2000803F0DD0B1F5003FF8D1446030BD05499C
:100B3000816030BDC36030BD036130BD046130BD34
:100B4000436030BD010101002DE9FE430F4604461C
:100B5000DDE90A89154916481D4616468C4202D120
:100B60000121480603E0844203D10121880602F0F6
:100B7000FBFE00218DF804808DF808108DF805909B
:100B80008DF80A10ADF800708DF8061001208DF870
:100B900002608DF807108DF80B008DF80350694640
:100BA000204600F0E5F8BDE8FE8300000064004048
:100BB00000680040F0B5827A012191402E4A136806
:100BC00043F0010313602C4B1C331C688C431C60E6
:100BD000294D067B294C0C35A6B92E688E432E6014
:100BE0004688C78846EA0746877A04EBC707C7F8EE
:100BF00040660688878846EA0746877A04EBC70777
:100C0000C7F84466067B012E12D12E680E432E6073
:100C1000867A056804EBC6064FEA3545C6F84056A5
:100C2000867A456804EBC6044FEA3545C4F8445655
:100C3000114CC57A241D002D256806D00D43256072
:100C40000D4C0589143415B104E08D43F7E7256890
:100C50008D4325600589012D02D125680D4325604E
:100C6000407B012802D1186808431860106820F002
:100C700001001060F0BD0000006600400060004010
:100C80007FB5DDE90845ADF80000ADF808408DF806
:100C90000A5000208DF80B0001208DF80C00ADF8F3
:100CA00004208DF80D00ADF80210ADF8063068464E
:100CB000FFF780FF7FBD00000246002053690B4212
:100CC0004AD0B1F5807F3BD013DC08292ED007DC59
:100CD000012926D0022927D004293DD1D0682BE054
:100CE000102925D0202926D0402935D1106910217E
:100CF00030E0B1F5004F2BD00BDCB1F5007F22D0F6
:100D0000B1F5806F22D0B1F5006F25D190697021C7
:100D100020E0B1F5803F11D0B1F5003F1CD1506803
:100D2000E5E790680D4915E0D06802E0D068DEE79D
:100D3000106903210EE0106908210BE05068FBE701
:100D40009069012106E09069022103E0906900E0CA
:100D50005068042100F0F2BA704700000101010060
:100D6000002A426901D00A4300E08A434261704789
:100D700010B50368002223F002030360036843F008
:100D8000010303604FF6FF7300E0521C4468E40760
:100D900001D19A42F9D14268D2073ED08A79012A1C
:100DA00002683CD022F080020260CA79012A0268FF
:100DB00038D022F0400202600A7A012A026834D058
:100DC00022F0200202604A7A012A026830D022F022
:100DD000100202608A7A012A02682CD022F00802EE
:100DE0000260CA7A012A026828D022F00402026056
:100DF0008A78CC78920742EA04620C7942EA04428B
:100E00004C79098842EA0452491E0A43C2610168CA
:100E100021F001010160002114E0002010BD42F02A
:100E20008002C1E742F04002C5E742F02002C9E774
:100E300042F01002CDE742F00802D1E742F004028E
:100E4000D5E7491C4268D20701D09942F9D14068E0
:100E5000C007E2D1012010BD10B500EB0113D3F89B
:100E6000B04114F004041472D3F8B04134D0E40853
:100E7000C2F80440D3F8B04104F002045472D3F82D
:100E8000B44104F00F049472D3F8B441240AD4742A
:100E9000D3F8B841D472D3F8B841240A1473D3F804
:100EA000B841240C5473D3F8B841240E9473D3F88A
:100EB000BC41D473D3F8BC41240A1474D3F8BC41A8
:100EC000240C5474D3F8BC311B0E937439B10169EE
:100ED00041F02001016110BD640D1460CAE7C168D2
:100EE00041F02001C16010BD30B50246002093687A
:100EF0005B0108D49068000101D5012003E09068EF
:100F0000C00037D5022002EB0012D2F8803103F086
:100F10000103C2F880310B7A73B3D2F880414D6877
:100F20001C434B7A43EAC5031C43C2F880418B7AC9
:100F300003F00F038B72D2F8843123F00F03C2F851
:100F40008431D2F884318C7A2343C2F88431CB7A4D
:100F5000CC6843EA0423C2F88831CB7B096943EAB1
:100F60000121C2F88C11D2F8801141F00101C2F8C0
:100F7000801130BD042030BDD2F880314C7A23433B
:100F80000C8843EA4453C2F88031D0E730B585B0CD
:100F90004FF40075009500258DF808508DF8095024
:100FA00008258DF80A50089C0D0A8DF80C10110ABE
:100FB0008DF80D108DF80E20190A8DF80F108DF890
:100FC0001030210A8DF811108DF80B508DF8124059
:100FD0006946FFF789FF05B030BD80EC030A704712
:100FE00000F08AB81CB50921184800F097FC174892
:100FF0000921401C00F092FC01221146142001F04E
:1010000050F801220021132001F04BF803210820A1
:101010000F4C0023CDE900011A462046FFF794FD4E
:10102000002100910B460A4608460191FFF728FE71
:10103000012202212046FFF793FE02B02046012242
:10104000BDE810401146FFF78BBE0000000C0240C7
:101050000064004000F050B81CB50921184800F0A9
:101060005DFC17480921401C00F058FC01220221B8
:10107000402001F016F8012211463F2001F011F83E
:10108000032108200F4C0023CDE900011A46204619
:10109000FFF75AFD00200E21CDE90001034602466C
:1010A0000146FFF7EDFD012202212046FFF758FE21
:1010B00002B020460122BDE810401146FFF750BEA5
:1010C0000C0402400068004070B50A4D002400BFC7
:1010D00004EB840000EBC40005EBC00000F0B8FF97
:1010E000641CE4B2062CF3D3BDE8704001482838F4
:1010F00004F0C4BB7401002010B50C46B0F5017FAC
:101100002FD00DDCA0F5007001381CD0012821D0B3
:1011100002283DD1082004F0DDFA21461D4833E0C5
:10112000A0F50070053823D0012828D0B0F5FE7F47
:101130002ED1052004F0CEFA21461648BDE8104015
:10114000F83804F04FBB062004F0C4FA11482146D9
:10115000D03819E0072004F0BDFA0E48214668385F
:1011600012E0092004F0B6FA0A48214668300BE084
:101170000A2004F0AFFA07482146D03004E00B20E3
:1011800004F0A8FA04482146BDE8104000F0AABEC9
:1011900010BD0000440200207C03002001460148ED
:1011A00000F081BB0C00002010B5A6B0942233499A
:1011B0006846FFF717F8324800F064F80120FFF79F
:1011C000EDFF28B92E481822083002A9FFF70AF8C7
:1011D0000220FFF7E3FF2A4C30B908AB93E8070081
:1011E00004F1200383E807000420FFF7D7FF18B9B4
:1011F000DDE90B01C4E90B010820FFF7CFFF28B997
:101200001F48202234300DA9FEF7ECFF1020FFF715
:10121000C5FF18B9BDF85400A4F854002020FFF70A
:10122000BDFF28B916481422583016A9FEF7DAFF78
:101230004020FFF7B3FF38B90DF16C0C9CE80F00AC
:1012400004F16C0C8CE80F008020FFF7A7FF28B991
:101250001FAB7C3493E8070084E807004FF48070EC
:10126000FFF79CFF002806D122AC054894E80E0049
:10127000883080E80E0026B010BD00006C620008C7
:1012800008000020942100F01DBB000070B5274C21
:10129000274D28482DED028BD4ED000A95ED000A6C
:1012A00001F006F8B0EE408A234802F033FC214EEC
:1012B00028EE000AA036A6F1780086ED000AD4EDEB
:1012C000010A95ED010A00F0F3FF1B48B0EE408AD9
:1012D000083002F01FFC28EE000AA6F1500086ED4F
:1012E000010AD4ED020A95ED020A00F0E1FF12486E
:1012F000B0EE408A103002F00DFC28EE000AA6F194
:10130000280086ED020AD4ED030A95ED030A00F0E9
:10131000CFFF0948B0EE408A183002F0FBFB28EE00
:10132000000A86ED030ABDEC028B70BD9405002017
:10133000F003002000040020A80000200246002046
:101340000A4200D00120704703484FF47A710068C8
:10135000B0FBF1F0704700009C0000200149002024
:10136000086070479C00002002480168491C016029
:10137000704700009C00002010B52DED028B00F09E
:10138000D1F903210E4800F068FA9FED0E8A0E484D
:10139000B0EE481AF0EE480AB0EE480AFFF71DFE1C
:1013A000F0EE481AB0EE481AF0EE480AB0EE480ADD
:1013B000BDEC028B0448BDE810400C3000F0C2BC0C
:1013C000A000002000000000E40300202148224982
:1013D00090ED000AD1ED160AB4EEE00AF1EE10FA33
:1013E00006DCF1EE600AB4EEE00AF1EE10FA01D28A
:1013F000B0EE600A80ED000AD0ED010A91ED170A07
:10140000F4EEC00AF1EE10FA08DCB1EE400AF4EE98
:10141000C00AF1EE10FA01D3B0EE600A80ED010AC5
:10142000D0ED020A91ED180AF4EEC00AF1EE10FABE
:1014300008DCB1EE400AF4EEC00AF1EE10FA01D376
:10144000B0EE600A034980ED020A0C31014800F059
:1014500097BC0000E4030020080000207047000053
:1014600010B5FFF789FF00F067FE274800F094FFF2
:101470002548283000F090FF2348503000F08CFFC2
:101480002148783000F088FF204802F059FB1F48BF
:10149000083002F055FB1D48103002F051FB1B488C
:1014A000183002F04DFB184800F07EFF1648283037
:1014B00000F07AFF1448503000F076FF1248783080
:1014C00000F072FF114802F043FB1048083002F0B0
:1014D0003FFB0E48103002F03BFB0C48183002F086
:1014E00037FB0A480321001F00F0B7F99FED080AF7
:1014F0000548BDE81040F0EE401AB0EE401AF0EE9C
:10150000400AA03000F01EBC00040020A80000200B
:101510000000000010B5FFF759FF00F059FE054824
:1015200003220168044800F09AF9BDE81040FFF773
:10153000ADBE0000A0000020A400002010B50446AD
:1015400002F074FA04F10A00BDE8104000F003BB99
:101550000029016802D041F0010101E021F0010100
:10156000016070472DE9F0438FB00446DDE916892C
:1015700015481D4616460F46A04303D101214805D4
:1015800002F0E6F91148A04303D10121880502F0D9
:10159000DFF900214FF48060CDE905108010CDE91E
:1015A000081000020791CDE90A010C910D910E91EE
:1015B00002AA694682E82003CDE90076204600F0C1
:1015C00027F80FB0BDE8F0830060024000640240DD
:1015D0000029016802D041F4802101E021F480213A
:1015E00001607047002A026802D042F4002201E044
:1015F00022F40022026001617047406880B27047A7
:10160000014600200968090300D501207047000049
:1016100030B50368124ACC6813400A682243D1E906
:1016200005452C432243CC6922430C6A22434C6A71
:1016300022438C6A22434C6B22438C6B22431A4315
:101640000260426922F00703D1E90B2422431A43C6
:1016500042610A6942604A6882608968C16030BD3F
:101660003F801CF000F038B83EB54E200821CDE98F
:101670000010154C15490290B7EE000A4FF4E13303
:101680002246481C02F08CFF012240F225512046E0
:1016900003F080FF02220121272000F002FD0C4907
:1016A000A5152A46A1F1280000F08EF809492A461E
:1016B000A1F58A7000F088F803B02046BDE83040FC
:1016C000012103F066BE000000480040080C024003
:1016D0001C0800201C090020032003F0FBBF0000B1
:1016E00038B500208DF800000C4800F071F8002893
:1016F000FAD10B4D40F2255400222146284603F032
:1017000049FF01226946054800F070F80122214690
:10171000284603F03FFF9DF8000038BDF407002085
:101720000048004010B502F095F900F023FABDE83A
:1017300010400148FFF702BFB0040020704780EC62
:10174000020A00F025B8D0ED020A90ED031AD0EDA0
:10175000001A30EE811AD0ED050A70EEA10AD0ED24
:10176000011A30EE410A30EEA12AC0EE821AC0ED15
:10177000041A20EE210A80ED030A31EE000A20EE61
:10178000A01A80ED020A41EE610AC0ED050A704719
:101790009FED050A80ED020A80ED030A80ED040A40
:1017A00080ED050A704700000000000080ED020A8D
:1017B000704710B50446D4E90001FEF72CFD002067
:1017C000A060E060206110BDC0E90012FFF7F1BF2A
:1017D000006908B100207047012070470169406826
:1017E000814201D10120704700207047F0B50023ED
:1017F0001D460EE084680768661C86603C5DCC541C
:10180000D0E90146A64200D185600469641E5B1CD4
:101810000461934202D20469002CEBD11846F0BD5A
:10182000F0B500231D4610E0C4680768CE5C04F1E3
:10183000010CC0F80CC03E554668C468B44200D1E3
:10184000C5600469641C5B1C0461934203D2466852
:101850000469B442E8D11846F0BD00F006B800F0C3
:1018600008B800F019B800F01EB802688A43026098
:101870007047F0B520260023012505FA03F104681E
:1018800011400C4201D00C4300E08C435B1CDBB2E6
:101890000460B342F1D3F0BD0B6808B1134300E01C
:1018A00093430B60704700680840704710B50023F1
:1018B00004E00446401C2478CC545B1C9342F8D3CB
:1018C00010BD00000A4601460148FFF7EFBF0000C7
:1018D00000000E0810B586B040F2FF1300930023FD
:1018E0008DF808308DF8093008248DF80A400C0A6C
:1018F0008DF80C10110A8DF80D108DF810308DF840
:101900000E208DF811308DF80B408DF80F308DF8CA
:1019100012306946FFF7E8FA06B010BD38B5044644
:1019200000200D460346022200901146204600F09A
:1019300009F804F00F0124F0FF002A46BDE8384002
:1019400000F0EEB82DE9FF4F054620F0FF04384ABD
:1019500038483949394E3A4FDFF8E880DFF8E890E7
:10196000DFF8E8A0DFF8E8B083B0944202D10121AB
:1019700008463CE0844204D10121022001F0E8FF46
:1019800006E08C4204D10121042001F0E1FF06E0D1
:10199000B44204D10121082001F0DAFF06E0BC4284
:1019A00004D10121102001F0D3FF06E0444504D109
:1019B0000121202001F0CCFF06E04C4504D101219B
:1019C000402001F0C5FF06E0544504D101218020EC
:1019D00001F0BEFF06E05C4504D10121080201F0E0
:1019E000B7FF07E01B48844204D10121401501F0F4
:1019F000AFFF05E01848844202D101210015F6E747
:101A000005F00F0101208840009004988DF8040033
:101A100005988DF8050006988DF8060010988DF849
:101A200007006946204600F021F807B0BDE8F08FB6
:101A3000000002400004024000080240000C024086
:101A4000001002400014024000180240001C024036
:101A500000200240002402400028024008B5002176
:101A6000012302220091FFF76DFF08BDF0B50023AE
:101A7000012403270D6804FA03F21540954242D170
:101A8000D0F800C05E0007FA06F52CEA050CC0F895
:101A900000C091F804C0D0F800E00CFA06FC4CEA53
:101AA0000E0CC0F800C091F804C0BCF1010F02D0C8
:101AB000BCF1020F1FD1D0F808C02CEA050CC0F809
:101AC00008C091F805C0D0F808E00CFA06FC4CEA12
:101AD0000E0CC0F808C0D0F804C02CEA020CC0F804
:101AE00004C0426891F806C00CFA03FC1FFA8CFC93
:101AF00042EA0C024260C268AA43C260CA79C56861
:101B0000B2402A43C2605B1C102BB3D3F0BD08B5B2
:101B100000210B46009102220121FFF713FF08BDAF
:101B20004B07DB0E9A40C90810B500EB8100016A33
:101B30000F249C40A1430162016A1143016210BD60
:101B40000246002052690A4200D0012070474183BA
:101B500070470183704700210A464318491CC9B2E7
:101B60009A710229F9D302804280828002814281E7
:101B70007047FEE770B5134A0020131D141F961E10
:101B80000146951C115443F8201021543154295416
:101B9000401C0228F6D30C490A22A1F1300000F0C3
:101BA000D4F809490A222831A1F1480000F0CDF803
:101BB0000549BDE870400A225031A1F1600000F0F3
:101BC000C4B80000CC000020F80400200A460149F7
:101BD000FFF762BED800002001460148FFF763BE50
:101BE000D80000200149002008607047D80000207C
:101BF00010B5184803F03AFE0121FFF7E7FF164839
:101C000000F01EFA0221FFF7E1FF1348683000F0F0
:101C100017FA0421FFF7DAFF0F48D03000F010FA6E
:101C20000821FFF7D3FF0D4800F00AFA1021FFF753
:101C3000CDFF0A48683000F003FA2021FFF7C6FF05
:101C40000648D03000F0FCF9BDE810404021FFF715
:101C5000BDBF00004C01002074010020AC02002038
:101C600010B5022003F054FD48B1082003F050FDE8
:101C700048B1042003F04CFD48B1002010BDBDE880
:101C8000104002F045BBBDE81040FFF729BDBDE89C
:101C90001040FEF773BE000000B5044800F01AF8CB
:101CA00003485DF804EB00F01DB80000611C00085B
:101CB000B51C000870B5064D04464021284603F0C7
:101CC00043FC0028F9D00248001D048070BD0000CC
:101CD00000480040002801D001490860704700001A
:101CE000DC000020002801D0014948607047000056
:101CF000DC00002010B5FEF7C1FD0421044801F00E
:101D00002BFFFEF7DBFDBDE8104002F0BBBA000080
:101D1000A708000810B50948FFF7F9FE0848FFF7C3
:101D2000F6FE06484FF480410E38FFF712FF0448D4
:101D30008021BDE81040C01FFFF70BBF0E1402400A
:101D40000710024080EC040A7047C0E9001200F05E
:101D500001B8000010B50446406881002068FEF715
:101D60005AFA00209FED020AA06084ED030A10BD1C
:101D700000000000014800F01BB8000070050020C2
:101D80000A460146014800F02CB80000700500200A
:101D9000024890EC040AFFF7EDBF00007400002039
:101DA0000A460146014800F063B8000070050020B3
:101DB00070EE200AB5EE000A31EE212A21EE001A5B
:101DC000C0ED000A80ED012A80ED021A21EE801A92
:101DD00022EE000A80ED031A80EE201A80ED041A2C
:101DE000704791EC020A90ED001A30EE600AD1EDD6
:101DF000020A00EE810AD0ED010A80EE201A82ED7F
:101E0000001A90ED001A91EC020A30EE200AD1ED92
:101E1000020A00EE810AD0ED010A80EE201A82ED5E
:101E2000011A91ED010AD1ED000A90ED001A30EE91
:101E3000600AD1ED020A00EE810AD0ED010A80EEBF
:101E4000201A82ED021A91ED000AD1ED010A90EDFF
:101E5000001AB1EE400A30EE600AD1ED020A00EE3F
:101E6000810AD0ED010A80EE201A82ED031A704734
:101E700091EC020A30EE200AD1ED020A30EE600A3F
:101E8000D1ED030A30EE600AD0ED020A20EE200AFE
:101E900082ED000A91ED010AD1ED000A30EE600AF0
:101EA000D1ED020A30EE200AD1ED030A30EE600ACD
:101EB000D0ED030A20EE200A82ED010A91EC020A1D
:101EC00030EE200AD1ED020A30EE200AD1ED030AED
:101ED00030EE200AD0ED040A20EE200A82ED020A3C
:101EE0007047FEE770B50446C08EA086088804F1EE
:101EF0001C0540BAE086488840BAA063888840BA8A
:101F0000E0632088642825D2DFED450A9FED450A6D
:101F1000201DFFF714FCB4F9480000EE100A201D44
:101F2000B8EEC00AFFF742FCDFED3F0A9FED3F0A23
:101F30002846FFF704FC94ED130A2846B8EEC00AC1
:101F4000FFF734FCE08EA4F8420000206064208893
:101F5000401C2080E08EA18E401A00B2A4F8400000
:101F6000B0F5805F05DD616CA0F50050491E61642D
:101F700007E010F5805F04DA616C00F50050491C41
:101F80006164A4F8480000B200EE100A201DB8EE0B
:101F9000C00AFFF7D8FB94ED030ADFED250ABDEE7A
:101FA000C00A10EE100A00B200EE100AA4F85000A9
:101FB000B8EEC00A20EE200ADFED1E0A84ED160AF4
:101FC00000EE100AB8EEC00A20EE200A84ED170ACF
:101FD000E08EB4F84210401A616C00EB413000EE24
:101FE000100AE0642846B8EEC00A1434FFF7ABFBD1
:101FF00094ED040A9FED101ABDEEC00A84ED100A9C
:10200000F8EEC00AB8EEC00A60EE810AC4ED130A09
:10201000DFED0A0A20EE200A84ED140A70BD0000EC
:102020006666A63FCDCCCC3D6666663F0AD7233CAC
:10203000FFC72F427C59443FFFFF333DDB0F493A36
:102040000088642801D301207047002070470000F9
:1020500010B50446002024F8140B9FED100A2084CC
:1020600060846062A062A085E0852063A086A0876E
:1020700084ED110A84ED120AA06344F8400FA4F124
:10208000500084ED030A84ED040A543CFFF780FB02
:1020900004F11C00BDE81040FFF77ABB000000000F
:1020A000704708B58DF800008DF801108DF80220FA
:1020B00001208DF80300684600F002F808BD00001A
:1020C00030B50F22C47801780123FCB1144C246888
:1020D00001F1E02104F4E064C4F5E064C4F30724F2
:1020E000C4F10405E2404478AC40857815402543AE
:1020F0002A0181F80024007800F01F018B4040097C
:10210000800000F1E020C0F8003130BD01F01F0078
:1021100083404809800000F1E020C0F8803130BDE4
:102120000CED00E0024908430249086070470000D6
:102130000000FA050CED00E010B52DED028BFEF766
:10214000C3FF03211F48FFF788FB9FED1F8A1F482D
:10215000B0EE481AF0EE480AB0EE480AFEF73DFF2E
:102160001A48B0EE481AF0EE480AB0EE480A0C30B1
:10217000FEF733FF1548F0EE481AB0EE481AF0EEBD
:10218000480AB0EE480A3038FFF7DCFD0F48F0EEA1
:10219000481AB0EE481AF0EE480AB0EE480A203865
:1021A000FFF7D0FDF0EE481AB0EE481AF0EE480AFC
:1021B000B0EE480ABDEC028B0448BDE81040103870
:1021C000FFF7C0BDE400002000000000B4050020BF
:1021D00010B54FF480413148FFF7B2FCE8B300205E
:1021E00001222F49FFF73DFB80212E48FFF7A8FC75
:1021F000A0B3002002222A49FFF733FB2A482B49CB
:1022000090ED190A81ED000A90ED330A81ED010A83
:1022100090ED4D0A81ED020A90ED670A81ED030A07
:1022200090ED170A103181ED000A90ED310A81ED31
:10223000010A90ED4B0A81ED020A90ED650A81EDED
:10224000030A90ED0E0A1031B8EEC00A81ED000AC3
:1022500090ED280AB8EEC00A01E01AE01BE081ED1B
:10226000010A90ED420AB8EEC00A81ED020A90ED33
:102270005C0A0E48B8EEC00A81ED030A1031FFF780
:102280008FFD0A49BDE810403C31A1F12C00FFF759
:1022900087BD0120A4E70120ACE700000014024044
:1022A000E40000200010024074010020840500209A
:1022B00030EE601A90ED080AD0ED040ADFED331A13
:1022C00031EE402A90ED000A20EE010AF4EEC00A39
:1022D000F1EE10FA06D3F1EE600AF4EEC00AF1EE68
:1022E00010FA01DDB0EE600AD0ED030AF4EEC10A87
:1022F000F1EE10FA1ADDD0ED090AD0ED011A41EE27
:10230000810AC0ED090AD0ED051AF4EEE10AF1EEFA
:1023100010FA06DCF1EE611AF4EEE10AF1EE10FAC1
:1023200001D2F0EE610AC0ED090A01E0C0ED091A20
:10233000D0ED020AD0ED061A60EE820AF4EEE01A41
:10234000F1EE10FA06D3F1EE611AF4EEE01AF1EEB6
:1023500010FA01DDF0EE610AD0ED091A31EE800AC3
:1023600030EE200AD0ED070AF4EEC00AF1EE10FAC2
:1023700006D3F1EE600AF4EEC00AF1EE10FA01DDC8
:10238000B0EE600A80ED081A7047000000000000FF
:1023900080EC080A70470000024991EC080AFFF738
:1023A000F7BF00003C0000209FED030A80ED080A03
:1023B00080ED090A70470000000000002DE9FE4F83
:1023C0001546DFF80484FF4ADDF830B008F104094F
:1023D0001C460E46074609F1040A93457ED10020AB
:1023E0000290A8F10400B0EB172F25D0B8EB172FFF
:1023F00022D0B9EB172F1FD0BAEB172F1CD00AF140
:102400000400B0EB172F17D0001DB0EB172F13D01F
:10241000001DB0EB172F0FD0001DB0EB172F0BD006
:10242000001DB0EB172F07D0001DB0EB172F03D006
:10243000001DB0EB172F05D101213846FFF76EFACA
:1024400001200290E048001FB0EB162F25D0B8EB1A
:10245000162F22D0B9EB162F1FD0BAEB162F1CD097
:10246000D9480C30B0EB162F17D0001DB0EB162F4B
:1024700013D0001DB0EB162F0FD0001DB0EB162FA0
:102480000BD0001DB0EB162F07D0001DB0EB162FA0
:1024900003D0001DB0EB162F07D101213046FFF706
:1024A0003DFA029840F002000290C748001FB0EBCE
:1024B000152F27D0B8EB152F24D0B9EB152F21D02D
:1024C000BAEB152F1ED0C0480C30B0EB152F19D029
:1024D000001DB0EB152F15D0001D00E061E0B0EB42
:1024E000152F0FD0001DB0EB152F0BD0001DB0EB3A
:1024F000152F07D0001DB0EB152F03D0001DB0EB3A
:10250000152F07D101212846FFF708FA029840F05D
:1025100004000290AC48001FB0EB142F25D0B8EB9C
:10252000142F22D0B9EB142F1FD0BAEB142F1CD0CC
:10253000A5480C30B0EB142F17D0001DB0EB142FB2
:1025400013D0001DB0EB142F0FD0001DB0EB142FD3
:102550000BD0001DB0EB142F07D0001DB0EB142FD3
:1025600003D0001DB0EB142F07D101212046FFF747
:10257000D5F9029840F008000290002000900190E8
:10258000DDE90D1302468F4801F01CFC70228D48D6
:102590000F9B029901F0CAFD01218A4801F0F8FB66
:1025A000B6E1BBF1804F7DD088498B45F8D1002042
:1025B00002908548001FB0EB172F25D0B8EB172FDE
:1025C00022D0B9EB172F1FD0BAEB172F1CD07E48A3
:1025D0000C30B0EB172F17D0001DB0EB172F13D016
:1025E000001DB0EB172F0FD0001DB0EB172F0BD035
:1025F000001DB0EB172F07D0001DB0EB172F03D035
:10260000001DB0EB172F05D102213846FFF786F9E0
:10261000012002906C48001FB0EB162F25D0B8EBBC
:10262000162F22D0B9EB162F1FD0BAEB162F1CD0C5
:1026300065480C30B0EB162F17D0001DB0EB162FED
:1026400013D0001DB0EB162F0FD0001DB0EB162FCE
:102650000BD0001DB0EB162F07D0001DB0EB162FCE
:1026600003D0001DB0EB162F07D102213046FFF733
:1026700055F9029840F0020002905348001FB0EB59
:10268000152F27D0B8EB152F24D0B9EB152F21D05B
:10269000BAEB152F1ED04C480C30B0EB152F19D0CB
:1026A000001D00E065E0B0EB152F13D0001DB0EB6E
:1026B000152F0FD0001DB0EB152F0BD0001DB0EB68
:1026C000152F07D0001DB0EB152F03D0001DB0EB68
:1026D000152F07D102212846FFF720F9029840F074
:1026E000040002903848001FB0EB142F25D0B8EB3F
:1026F000142F22D0B9EB142F1FD0BAEB142F1CD0FB
:1027000031480C30B0EB142F17D0001DB0EB142F54
:1027100013D0001DB0EB142F0FD0001DB0EB142F01
:102720000BD0001DB0EB142F07D0001DB0EB142F01
:1027300003D0001DB0EB142F07D102212046FFF774
:10274000EDF8029840F008000290002000900190FF
:10275000DDE90D1302461D4801F034FB70221B48D1
:102760000F9B029901F0E2FC0121184801F010FBD7
:10277000AFE115484FF0000B001FB0EB172F2CD026
:10278000B8EB172F29D0B9EB172F26D0BAEB172F9C
:1027900023D00D480C30B0EB172F1ED0001DB0EB2E
:1027A000172F1AD0001DB0EB172F16D0001DB0EB5D
:1027B000172F12D0001DB0EB172F0ED0001DB0EB5D
:1027C000172F05E000000140040240000004004013
:1027D00003D0001DB0EB172F05D101213846FFF7BC
:1027E0009DF84FF0010BFC4FB7EB162F25D0B8EB3F
:1027F000162F22D0B9EB162F1FD0BAEB162F1CD0F4
:10280000F5481030B0EB162F17D0001DB0EB162F87
:1028100013D0001DB0EB162F0FD0001DB0EB162FFC
:102820000BD0001DB0EB162F07D0001DB0EB162FFC
:1028300003D0001DB0EB162F05D101213046FFF764
:102840006DF84BF0020BB7EB152F25D0B8EB152F19
:1028500022D0B9EB152F1FD0BAEB152F1CD0DE48B4
:102860001030B0EB152F17D0001DB0EB152F13D083
:10287000001DB0EB152F0FD0001DB0EB152F0BD0A6
:10288000001DB0EB152F07D0001DB0EB152F03D0A6
:10289000001DB0EB152F05D101212846FFF73EF8AA
:1028A0004BF0040BB7EB142F25D0B8EB142F22D02C
:1028B000B9EB142F1FD0BAEB142F1CD0C648103020
:1028C000B0EB142F17D0001DB0EB142F13D0001D48
:1028D000B0EB142F0FD0001DB0EB142F0BD0001D48
:1028E000B0EB142F07D0001DB0EB142F03D0001D48
:1028F000B0EB142F05D101212046FFF70FF84BF064
:10290000080B0020009002464FF080440190FDE348
:10291000B2498B457ED100200290AF48B0EB172F13
:1029200025D0B8EB172F22D0B9EB172F1FD0BAEB59
:10293000172F1CD0A8481030B0EB172F17D0001D50
:10294000B0EB172F13D0001DB0EB172F0FD0001DC9
:10295000B0EB172F0BD0001DB0EB172F07D0001DC9
:10296000B0EB172F03D0001DB0EB172F05D10221BC
:102970003846FEF7D3FF012002909748B0EB162FA0
:1029800025D0B8EB162F22D0B9EB162F1FD0BAEBFB
:10299000162F1CD090481030B0EB162F17D0001D0A
:1029A000B0EB162F13D0001DB0EB162F0FD0001D6B
:1029B000B0EB162F0BD0001DB0EB162F07D0001D6B
:1029C000B0EB162F03D0001DB0EB162F07D102215C
:1029D0003046FEF7A3FF029840F0020002907E48C6
:1029E000B0EB152F27D0B8EB152F24D0B9EB152F4E
:1029F00021D0BAEB152F1ED077481030B0EB152F31
:102A000019D0001DB0EB152F15D0001DB0EB152F00
:102A100011D000E05DE0001DB0EB152F0BD0001DC4
:102A2000B0EB152F07D0001DB0EB152F03D0001D04
:102A3000B0EB152F07D102212846FEF76FFF029851
:102A400040F0040002906448B0EB142F25D0B8EB9E
:102A5000142F22D0B9EB142F1FD0BAEB142F1CD097
:102A60005D481030B0EB142F17D0001DB0EB142FC1
:102A700013D0001DB0EB142F0FD0001DB0EB142F9E
:102A80000BD0001DB0EB142F07D0001DB0EB142F9E
:102A900003D0001DB0EB142F07D102212046FEF712
:102AA0003DFF029840F00800029000200090019045
:102AB000DDE90D130246494801F084F970224748C8
:102AC0000F9B029901F032FB0121444801F060F9AB
:102AD000E7E043498B457DD1002002903E48B0EBB2
:102AE000172F25D0B8EB172F22D0B9EB172F1FD0F7
:102AF000BAEB172F1CD038481030B0EB172F17D077
:102B0000001DB0EB172F13D0001DB0EB172F0FD007
:102B1000001DB0EB172F0BD0001DB0EB172F07D007
:102B2000001DB0EB172F03D0001DB0EB172F05D100
:102B300002213846FEF7F2FE012002902648B0EB53
:102B4000162F25D0B8EB162F22D0B9EB162F1FD099
:102B5000BAEB162F1CD020481030B0EB162F17D030
:102B6000001DB0EB162F13D0001DB0EB162F0FD0A9
:102B7000001DB0EB162F0BD0001DB0EB162F07D0A9
:102B8000001DB0EB162F03D0001DB0EB162F07D1A0
:102B900002213046FEF7C2FE029840F00200029089
:102BA0000D48B0EB152F2ED0B8EB152F2BD0B9EB6D
:102BB000152F28D0BAEB152F25D007481030B0EBD1
:102BC000152F20D0001DB0EB152F1CD0001DB0EB31
:102BD000152F07E065E000000002400000080040FB
:102BE000000C00400FD0001DB0EB152F0BD0001DC6
:102BF000B0EB152F07D0001DB0EB152F03D0001D33
:102C0000B0EB152F07D102212846FEF787FE029868
:102C100040F004000290FE48B0EB142F25D0B8EB32
:102C2000142F22D0B9EB142F1FD0BAEB142F1CD0C5
:102C3000F7481030B0EB142F17D0001DB0EB142F55
:102C400013D0001DB0EB142F0FD0001DB0EB142FCC
:102C50000BD0001DB0EB142F07D0001DB0EB142FCC
:102C600003D0001DB0EB142F07D102212046FEF740
:102C700055FE029840F0080002900020009001905C
:102C8000DDE90D130246E34801F09CF87022E148AB
:102C90000F9B029901F04AFA0121DE4801F078F811
:102CA000E0E0DD498B457DD100200290D848B0EBB3
:102CB000172F25D0B8EB172F22D0B9EB172F1FD025
:102CC000BAEB172F1CD0D2481030B0EB172F17D00B
:102CD000001DB0EB172F13D0001DB0EB172F0FD036
:102CE000001DB0EB172F0BD0001DB0EB172F07D036
:102CF000001DB0EB172F03D0001DB0EB172F05D12F
:102D000003213846FEF70AFE01200290C048B0EBCE
:102D1000162F25D0B8EB162F22D0B9EB162F1FD0C7
:102D2000BAEB162F1CD0BA481030B0EB162F17D0C4
:102D3000001DB0EB162F13D0001DB0EB162F0FD0D7
:102D4000001DB0EB162F0BD0001DB0EB162F07D0D7
:102D5000001DB0EB162F03D0001DB0EB162F07D1CE
:102D600003213046FEF7DAFD029840F0020002909F
:102D7000A748B0EB152F27D0B8EB152F24D0B9EB0F
:102D8000152F21D0BAEB152F1ED0A1481030B0EB73
:102D9000152F19D0001DB0EB152F15D0001DB0EB6D
:102DA000152F00E05EE00FD0001DB0EB152F0BD00B
:102DB000001DB0EB152F07D0001DB0EB152F03D071
:102DC000001DB0EB152F07D103212846FEF7A6FD05
:102DD000029840F0040002908D48B0EB142F25D0EB
:102DE000B8EB142F22D0B9EB142F1FD0BAEB142F4D
:102DF0001CD087481030B0EB142F17D0001DB0EB5B
:102E0000142F13D0001DB0EB142F0FD0001DB0EB0A
:102E1000142F0BD0001DB0EB142F07D0001DB0EB0A
:102E2000142F03D0001DB0EB142F07D1032120462F
:102E3000FEF774FD029840F0080002900020009018
:102E40000190DDE90D130246734800F0BBFF7022CC
:102E500071480F9B029901F069F901216E4800F059
:102E600097FFEAE06D498B457ED1002002906848CB
:102E7000B0EB172F25D0B8EB172F22D0B9EB172FB7
:102E80001FD0BAEB172F1CD061481030B0EB172FB2
:102E900017D0001DB0EB172F13D0001DB0EB172F6C
:102EA0000FD0001DB0EB172F0BD0001DB0EB172F6C
:102EB00007D0001DB0EB172F03D0001DB0EB172F6C
:102EC00005D103213846FEF729FD01200290504824
:102ED000B0EB162F25D0B8EB162F22D0B9EB162F5A
:102EE0001FD0BAEB162F1CD049481030B0EB162F6C
:102EF00017D0001DB0EB162F13D0001DB0EB162F0E
:102F00000FD0001DB0EB162F0BD0001DB0EB162F0D
:102F100007D0001DB0EB162F03D0001DB0EB162F0D
:102F200007D103213046FEF7F9FC029840F0020079
:102F300002903748B0EB152F27D0B8EB152F24D0CF
:102F4000B9EB152F21D0BAEB152F1ED03048103019
:102F5000B0EB152F19D0001DB0EB152F15D0001DAB
:102F6000B0EB152F11D000E067E0001DB0EB152F7E
:102F70000BD0001DB0EB152F07D0001DB0EB152FA7
:102F800003D0001DB0EB152F07D103212846FEF713
:102F9000C5FC029840F0040002901D48B0EB142FCD
:102FA00025D0B8EB142F22D0B9EB142F1FD0BAEBD9
:102FB000142F1CD016481030B0EB142F17D0001D62
:102FC000B0EB142F13D0001DB0EB142F0FD0001D49
:102FD000B0EB142F0BD0001DB0EB142F07D0001D49
:102FE000B0EB142F03D0001DB0EB142F07D1032139
:102FF0002046FEF793FC029840F008000290002063
:1030000000900190DDE90D130246044808E000003D
:1030100000024000000C004000040140004001405C
:1030200000F0D0FE7022FE480F9B029901F07EF85E
:103030000121FB4800F0ACFEE1E0FA498B4566D186
:1030400000200290F848B0EB172F25D0B8EB172FCF
:1030500022D0B9EB172F1FD0BAEB172F1CD0F24894
:103060001030B0EB172F17D0001DB0EB172F13D077
:10307000001DB0EB172F0FD0001DB0EB172F0BD09A
:10308000001DB0EB172F07D0001DB0EB172F03D09A
:10309000001DB0EB172F05D103213846FEF73EFC8B
:1030A00001200290E048B0EB162F25D0B8EB162F88
:1030B00022D0B9EB162F1FD0BAEB162F1CD0DA484E
:1030C0001030B0EB162F17D0001DB0EB162F13D019
:1030D000001DB0EB162F0FD0001DB0EB162F0BD03C
:1030E000001DB0EB162F07D0001DB0EB162F03D03C
:1030F000001DB0EB162F07D103213046FEF70EFC62
:10310000029840F002000290C74801E00EE376E02A
:10311000B0EB152F25D0B8EB152F22D0B9EB152F1A
:103120001FD0BAEB152F1CD0BF481030B0EB152FB5
:1031300017D0001DB0EB152F13D0001DB0EB152FCD
:103140000FD0001DB0EB152F0BD0001DB0EB152FCD
:1031500007D0001DB0EB152F03D0001DB0EB152FCD
:1031600007D103212846FEF7D9FB029840F004005E
:103170000290AD48B0EB142F25D0B8EB142F22D01D
:10318000B9EB142F1FD0BAEB142F1CD0A648103067
:10319000B0EB142F17D0001DB0EB142F13D0001D6F
:1031A000B0EB142F0FD0001DB0EB142F0BD0001D6F
:1031B000B0EB142F07D0001DB0EB142F03D0001D6F
:1031C000B0EB142F07D103212046FEF7A7FB02988E
:1031D00040F008000290002000900190DDE90D13FE
:1031E0000246904800F0EEFD70228E480F9B029937
:1031F00000F09CFF01218B4800F0CAFDE0E08B4904
:103200008B457DD1002002908748B0EB172F25D049
:10321000B8EB172F22D0B9EB172F1FD0BAEB172F0F
:103220001CD081481030B0EB172F17D0001DB0EB29
:10323000172F13D0001DB0EB172F0FD0001DB0EBD0
:10324000172F0BD0001DB0EB172F07D0001DB0EBD0
:10325000172F03D0001DB0EB172F05D103213846DF
:10326000FEF75CFB012002906F48B0EB162F25D0D3
:10327000B8EB162F22D0B9EB162F1FD0BAEB162FB2
:103280001CD069481030B0EB162F17D0001DB0EBE2
:10329000162F13D0001DB0EB162F0FD0001DB0EB72
:1032A000162F0BD0001DB0EB162F07D0001DB0EB72
:1032B000162F03D0001DB0EB162F07D10321304687
:1032C000FEF72CFB029840F0020002905648B0EB4B
:1032D000152F27D0B8EB152F24D0B9EB152F21D0FF
:1032E000BAEB152F1ED050481030B0EB152F19D067
:1032F000001DB0EB152F15D0001DB0EB152F00E011
:103300005EE00FD0001DB0EB152F0BD0001DB0EB11
:10331000152F07D0001DB0EB152F03D0001DB0EB0B
:10332000152F07D103212846FEF7F8FA029840F03E
:10333000040002903C48B0EB142F25D0B8EB142FBA
:1033400022D0B9EB142F1FD0BAEB142F1CD0364863
:103350001030B0EB142F17D0001DB0EB142F13D08A
:10336000001DB0EB142F0FD0001DB0EB142F0BD0AD
:10337000001DB0EB142F07D0001DB0EB142F03D0AD
:10338000001DB0EB142F07D103212046FEF7C6FA2B
:10339000029840F008000290002000900190DDE9C2
:1033A0000D130246214800F00DFD70221F480F9BAF
:1033B000029900F0BBFE01211C4800F0E9FCEBE0A3
:1033C0001B498B457ED1002002901748B0EB172F88
:1033D00025D0B8EB172F22D0B9EB172F1FD0BAEB9F
:1033E000172F1CD010481030B0EB172F17D0001D2E
:1033F000B0EB172F13D0001DB0EB172F0FD0001D0F
:10340000B0EB172F0BD0001DB0EB172F07D0001D0E
:10341000B0EB172F03D0001DB0EB172F10D109E030
:1034200000400140004401400002400000480140CB
:103430000018004009213846FEF770FA012002907A
:10344000FB48B0EB162F25D0B8EB162F22D0B9EBE6
:10345000162F1FD0BAEB162F1CD0F5481030B0EB4A
:10346000162F17D0001DB0EB162F13D0001DB0EB98
:10347000162F0FD0001DB0EB162F0BD0001DB0EB98
:10348000162F07D0001DB0EB162F03D0001DB0EB98
:10349000162F07D109213046FEF740FA029840F076
:1034A00002000290E248B0EB152F27D0B8EB152FA1
:1034B00024D0B9EB152F21D0BAEB152F1ED0DC4844
:1034C000103000E068E0B0EB152F17D0001DB0EB16
:1034D000152F13D0001DB0EB152F0FD0001DB0EB32
:1034E000152F0BD0001DB0EB152F07D0001DB0EB32
:1034F000152F03D0001DB0EB152F07D10921284649
:10350000FEF70CFA029840F004000290C848B0EBB5
:10351000142F25D0B8EB142F22D0B9EB142F1FD0C5
:10352000BAEB142F1CD0C2481030B0EB142F17D0B8
:10353000001DB0EB142F13D0001DB0EB142F0FD0D3
:10354000001DB0EB142F0BD0001DB0EB142F07D0D3
:10355000001DB0EB142F03D0001DB0EB142F07D1CA
:1035600009212046FEF7DAF9029840F0080002909F
:10357000002000900190DDE90D130246AD4800F0F7
:1035800021FC7022AB480F9B029900F0CFFD012176
:10359000A84800F0FDFBCAE0A7498B457ED1A448AE
:1035A0004FF0000BB0EB172F25D0B8EB172F22D020
:1035B000B9EB172F1FD0BAEB172F1CD09C48103037
:1035C000B0EB172F17D0001DB0EB172F13D0001D35
:1035D000B0EB172F0FD0001DB0EB172F0BD0001D35
:1035E000B0EB172F07D0001DB0EB172F03D0001D35
:1035F000B0EB172F05D109213846FEF78FF94FF0B0
:10360000010B8B4FB7EB162F25D0B8EB162F22D01E
:10361000B9EB162F1FD0BAEB162F1CD084481030F0
:10362000B0EB162F17D0001DB0EB162F13D0001DD6
:10363000B0EB162F0FD0001DB0EB162F0BD0001DD6
:10364000B0EB162F07D0001DB0EB162F03D0001DD6
:10365000B0EB162F05D109213046FEF75FF94BF08C
:10366000020BB7EB152F27D0B8EB152F24D0B9EBF1
:10367000152F21D0BAEB152F1ED06D481030B0EBAE
:10368000152F19D0001DB0EB152F15D0001DB0EB74
:10369000152F11D0001DB0EB152F00E047E00BD027
:1036A000001DB0EB152F07D0001DB0EB152F03D078
:1036B000001DB0EB152F05D109212846FEF72EF984
:1036C0004BF0040BB7EB142F25D0B8EB142F22D0FE
:1036D000B9EB142F1FD0BAEB142F1CD05448103064
:1036E000B0EB142F17D0001DB0EB142F13D0001D1A
:1036F000B0EB142F0FD0001DB0EB142F0BD0001D1A
:10370000B0EB142F07D0001DB0EB142F03D0001D19
:10371000B0EB142F05D109212046FEF7FFF84BF03E
:10372000080B002000900246434C0190D0E0434932
:103730008B457CD13E484FF0000BB0EB172F25D0C6
:10374000B8EB172F22D0B9EB172F1FD0BAEB172FDA
:103750001CD037481030B0EB172F17D0001DB0EB3E
:10376000172F13D0001DB0EB172F0FD0001DB0EB9B
:10377000172F0BD0001DB0EB172F07D0001DB0EB9B
:10378000172F03D0001DB0EB172F05D109213846A4
:10379000FEF7C4F84FF0010B254FB7EB162F25D0DD
:1037A000B8EB162F22D0B9EB162F1FD0BAEB162F7D
:1037B0001CD01F481030B0EB162F17D0001DB0EBF7
:1037C000162F13D0001DB0EB162F0FD0001DB0EB3D
:1037D000162F0BD0001DB0EB162F07D0001DB0EB3D
:1037E000162F03D0001DB0EB162F05D1092130464E
:1037F000FEF794F84BF0020BB7EB152F2FD0B8EB78
:10380000152F2CD0B9EB152F29D0BAEB152F26D0B8
:1038100007481030B0EB152F21D0001DB0EB152F4D
:103820001DD0001DB0EB152F19D0001D08E061E080
:103830000002400000180040001C00400020004032
:10384000B0EB152F0BD0001DB0EB152F07D0001DCE
:10385000B0EB152F03D0001DB0EB152F05D10921BA
:103860002846FEF75BF84BF0040BB7EB142F24D07F
:10387000B8EB142F21D0B9EB142F1ED0BAEB142FB4
:103880001BD01D48B0EB142F17D0001DB0EB142F28
:1038900013D0001DB0EB142F0FD0001DB0EB142F70
:1038A0000BD0001DB0EB142F07D0001DB0EB142F70
:1038B00003D0001DB0EB142F05D109212046FEF7DF
:1038C0002DF84BF0080B00200C4C009002460190A4
:1038D000DDE90D13204600F075FA702259462046A6
:1038E0000F9B00F023FC03B02046BDE8F04F012100
:1038F00000F04EBABDE8FE8F1002400000200040EC
:10390000704700001FB54FF47A700F4C40F6C41199
:10391000532200940390CDE901210C4B5A1E511EF5
:10392000481EFEF74BFD0121204600F041FA0649F2
:1039300040F2A46040310860091F0860091F086058
:10394000091F08601FBD0000000800400F0C024066
:10395000044A0029116801D0014300E0814311604D
:103960007047000030380240044A0029116801D035
:10397000014300E08143116070470000403802407D
:10398000044A0029116801D0014300E0814311601D
:10399000704700004438024070B5204A1168204C3E
:1039A00011F00C0104D01F4E042903D0082903D0C4
:1039B00004601BE0066019E01849091F0B68C3F397
:1039C00080550B6803F03F0315B1B6FBF3F301E03C
:1039D000B4FBF3F30C680968C4F388146343C1F3C0
:1039E0000141491C4900B3FBF1F1016011680F234B
:1039F00003EA11110C4B5C5C0168E1404160146802
:103A0000072505EA94241C5D21FA04F484601268F9
:103A100005EA52329A5CD140C16070BD083802405C
:103A20000024F400001BB7002E01002000214FF4F9
:103A3000806200BF20F81120491CC9B20429F9D3C3
:103A4000002103224318491CC9B21A720229F9D372
:103A50007047000070B5084A0020131D941C161F03
:103A60000146951E115443F8201021543154295415
:103A7000401C0228F6D370BDEC0000207047000007
:103A80003EB54E22452108208DE807001D4CB7EEBB
:103A9000000A1B4B224600211B4800F081FD012239
:103AA0004021204601F048FD24210020CDE90001FD
:103AB000174D221D154B51062846FDF753FD13499E
:103AC000002224312846FDF78DFD01212846FDF70F
:103AD0007FFD01212846FDF73BFD002211462520F0
:103AE000FEF7DFFA012240F22441204601F052FDA8
:103AF00003B02046BDE83040012101F04ABC00007F
:103B0000A086010000100140070402401C0A0020AA
:103B100040640240D0E9002191420CD2491C00EEE1
:103B2000101A4160F8EE400A00EE102AB8EE401A72
:103B300080EE810A7047B7EE000A70470160704757
:103B40000249B1F85410FFF7F9BF00000800002047
:103B5000002141607047704770B50E4C06460D4617
:103B600020680028304605D002F022FB38B14560BD
:103B7000012070BD02F066FB20606060F8E7294616
:103B8000304602F05FFB61680861C1606060002040
:103B900070BD0000000000201CB500202E490190DF
:103BA00000900A6842F480320A604FF4A0430A6829
:103BB00002F400320092019A521C0192009A12B94A
:103BC000019A9A42F3D10A68920342D501200090EB
:103BD00021484030026842F0805202601F4802686B
:103BE00042F4404202601C4A0832136813601368B2
:103BF00043F400431360136843F4A0531360141F8D
:103C0000174B23600B6843F080730B600B689B01BC
:103C1000FCD5016841F4803101604168C903FCD5DD
:103C2000016841F40031016041688903FCD50D4908
:103C300040F205700860106820F003001060106802
:103C400040F0020010601068C0F381000228FAD131
:103C50001CBD00901CBD00000038024000700040F8
:103C60000C544007003C024001A001F01BBE0000C4
:103C700053796E6354696D43616C6C6261636B0A66
:103C8000000000001CB500200090024601904FF497
:103C90007A735321054800F095F802B00022012103
:103CA000BDE810403620FEF7FCB9000000100040CF
:103CB00010B5084C0121204600F07AF80122114687
:103CC000204600F02DF92046BDE81040012100F00B
:103CD00069B8000000100040124810B5016841F4B6
:103CE000700101601048016841F0010101600E4A55
:103CF00000210832116002680C4B1A400260031D5B
:103D00000B4A1A60026822F48022026006480C30D6
:103D10000160FFF741FF03494FF000608039086000
:103D200010BD000088ED00E000380240FFFFF6FE05
:103D30001030002410B501218C07204600F0E4F873
:103D400000280BD00121204600F02FF80121204649
:103D500000F028F8BDE8104000F068BA10BD00007F
:103D600010B50A4C0121204600F0CEF800280BD0F7
:103D70000121204600F019F80121204600F012F838
:103D8000BDE81040FFF770BF10BD000000100040FC
:103D90000029018802D041F0800101E021F080017A
:103DA00001807047C94301827047C943018270474F
:103DB0000029018802D041F0010101E021F0010158
:103DC000018070472DE9FF4F434904464348444D65
:103DD000444EDFF81481DFF81491DFF814A1DFF806
:103DE00014B183B04FEAB1478C4204D10121084697
:103DF000FFF7C6FD0CE0B4F1804F06D0844207D136
:103E000001210220FFF7B0FD09E00121084645E04D
:103E1000AC4204D101210420FFF7A6FD06E0B44224
:103E200004D101210820FFF79FFD06E0BC4204D128
:103E300001211020FFF798FD06E0444504D101213F
:103E40002020FFF791FD06E04C4504D1012102201E
:103E5000FFF796FD06E0544504D101210804FFF761
:103E60008FFD06E05C4504D101214804FFF788FD81
:103E700007E02148844204D101218804FFF780FD36
:103E800007E01E48844204D101214020FFF76CFD69
:103E900007E01B48844204D101218020FFF764FD24
:103EA00005E01848844202D101218015F6E7049804
:103EB000ADF800000598ADF8020006980190109842
:103EC000ADF8080011988DF80A006946204600F008
:103ED0006FF907B0BDE8F08F00000140000400401A
:103EE00000080040000C00400014004000040140A5
:103EF00000400140004401400048014000180040DB
:103F0000001C00400020004002460020138A9289D5
:103F10000B4202EA010202D0002A00D001207047C1
:103F2000002A828901D00A4300E08A4382817047D7
:103F300030B5028C22F001020284028C8388048B4B
:103F400022F0020224F073050C882C438D8915435E
:103F50004A882A430C4DA84202D00C4DA8420DD1EC
:103F600022F00805CA8923F440732A4322F004058D
:103F70008A882A430D8A1D434B8A2B4383800483FE
:103F800089684163028430BD0000014000040140A3
:103F9000028B22F008020A430283704770B5028C3C
:103FA00022F010020284028C8488038B0D8823F493
:103FB000E6464FF6FF7303EA052535438E8922F066
:103FC000200203EA061616434A8803EA0212324325
:103FD000104EB04202D0104EB04215D122F08006F1
:103FE000CA8924F4406403EA0212324322F04006F4
:103FF0008A8803EA021232430E8A03EA86062643BF
:104000004C8A03EA8404344384800583896881638D
:10401000028470BD0000014000040140028B4FF695
:10402000FF7322F4006203EA012111430183704708
:1040300070B5028C22F480720284028C8488838B97
:104040000D8823F073031D4322F400738E894FF60D
:10405000FF7202EA06261E434B8802EA032333431B
:10406000104EB04202D0104EB04215D123F400667B
:10407000CB8924F4405402EA0323334323F48066BB
:104080008B8802EA032333430E8A02EA061626438C
:104090004C8A02EA04143443848085838968C163AE
:1040A000038470BD0000014000040140828B22F0B7
:1040B00008020A438283704770B5028C22F4805252
:1040C0000284048C8288838B0D8823F4E6464FF6A5
:1040D000FF7303EA0525354324F400568C8903EA6F
:1040E000043434434E8803EA06362643084CA04283
:1040F00002D0084CA04205D122F480440A8A03EA87
:10410000821222438280858389680164068470BD9F
:104110000000014000040140828B4FF6FF7322F43F
:10412000006203EA012111438183704730B585B0F5
:104130000546ADF8002001200C46ADF80200002134
:104140000220ADF80C00ADF81010C001ADF812005F
:10415000ADF804100293ADF80E10E00707D06946E1
:104160002846FFF7E5FE08212846FFF711FFA007C4
:1041700007D569462846FFF711FF08212846FFF7B3
:104180004DFF600707D569462846FFF751FF082114
:104190002846FFF78BFF200707D569462846FFF71B
:1041A0008BFF08212846FFF7B7FF05B030BD0000A0
:1041B00030B50288164B174C98420DD0A0420BD058
:1041C000B0F1804F08D0144DA84205D0134DA8423D
:1041D00002D0134DA84203D122F070054A882A4329
:1041E000104DA84206D0104DA84203D022F44075CD
:1041F0000A892A4302804A68C2620A880285984274
:1042000001D0A04201D1897A01860121818230BD8D
:10421000000001400004014000040040000800408C
:10422000000C00400010004000140040FDF79CB856
:104230001CB50020009001230246019053219807ED
:10424000FFF7C0FD02B00022BDE8104011461C205F
:10425000FDF727BF10B501218C072046FFF7A8FD09
:10426000012211462046FFF75BFE2046BDE81040C4
:104270000121FFF797BD10B5FFF7DAFFBDE8104049
:10428000FFF700BD10B5FFF7E5FFBDE81040FFF7F1
:104290000FBD00F039B800003EB54E200821CDE931
:1042A0000010154C15490290B7EE000A4FF4E133A7
:1042B0002246481D00F074F9012240F225512046A3
:1042C00001F068F9002201214720FDF7EAFE0C49C0
:1042D000A5152A46A1F12800FDF776FA09492A46D4
:1042E000A1F58A70FDF770FA03B02046BDE83040B2
:1042F000012101F04EB800000014014009180240ED
:104300008C0A00208C0B0020012001F0E3B9000092
:1043100038B500208DF800000C48FDF759FA002848
:10432000FAD10B4D40F2255400222146284601F0D7
:1043300031F9012269460548FDF758FA0122214664
:10434000284601F027F99DF8000038BD640A0020D6
:104350000014014070B51D4C40F224463146204601
:1043600001F0F9F800282FD0194D2021204601F046
:1043700007F83146204601F006F8164C0021204689
:10438000FDF7E6F82046FDF738F9C0F1240086B2C3
:104390002420211D08602046FDF732F978B12068FD
:1043A000243520F40020206001212046FDF7D0F8BC
:1043B000122E09D12846BDE87040FFF75FBB206888
:1043C00040F400202060EFE770BD000000100140C5
:1043D0001C0A0020406402407CB5234D40F2277641
:1043E0003146284601F0B7F80024C0B11F48FDF758
:1043F000EFF938B102B031462846BDE870400022DE
:1044000001F0C8B88DF80040012269461748FDF751
:10441000EDF99DF80010284601F02EF97CBD40F220
:104420002551284601F097F80028F7D0284601F0DA
:104430001FF98DF800000D481438FDF7CFF938B199
:104440000A488DF80440012201A91438FDF7CEF97D
:104450000648012269461438FDF7E2F99DF800008C
:10446000FCF74EFA7CBD000000440040E00500204F
:104470007CB5234D40F227763146284601F06BF893
:104480000024C0B11F48FDF7A3F938B102B031468E
:104490002846BDE87040002201F07CB88DF800404D
:1044A000012269461748FDF7A1F99DF8001028463A
:1044B00001F0E2F87CBD40F22551284601F04BF8AE
:1044C0000028F7D0284601F0D3F88DF800000D48F9
:1044D0001438FDF783F938B10A488DF804400122F9
:1044E00001A91438FDF782F90648012269461438FB
:1044F000FDF796F99DF80000FDF7B4F87CBD0000CB
:1045000000480040080800207CB5234D40F2277683
:104510003146284601F01FF80024C0B11F48FDF7BE
:1045200057F938B102B031462846BDE87040002244
:1045300001F030B88DF80040012269461748FDF7B8
:1045400055F99DF80010284601F096F87CBD40F220
:104550002551284600F0FFFF0028F7D0284601F03B
:1045600087F88DF800000D481438FDF737F938B199
:104570000A488DF80440012201A91438FDF736F9E4
:104580000648012269461438FDF74AF99DF80000F3
:10459000FFF77FFE7CBD000000140140780A002078
:1045A0002DE9FF4F0C462DED020B05462DED028B3C
:1045B00083B0B0EE408ADDE91576FE49DFF8F89366
:1045C000099809F1040A0AF1040B88427ED1A9F185
:1045D0000400B0EB152F25D0B9EB152F22D0BAEB84
:1045E000152F1FD0BBEB152F1CD00BF10401B1EB25
:1045F000152F17D0091DB1EB152F13D0091DB1EBE5
:10460000152F0FD0091DB1EB152F0BD0091DB1EBE4
:10461000152F07D0091DB1EB152F03D0091DB1EBE4
:10462000152F38D1B0EB142F25D0B9EB142F22D091
:10463000BAEB142F1FD0BBEB142F1CD0DE490C316A
:10464000B1EB142F17D0091DB1EB142F13D0091D96
:10465000B1EB142F0FD0091DB1EB142F0BD0091D96
:10466000B1EB142F07D0091DB1EB142F03D0091D96
:10467000B1EB142F0FD107212846FDF74FF9072181
:104680002046FDF74BF9CDE90076B0EE480A20212F
:10469000149B0A9A6DE0B0EB152F2DD0B9EB152FB6
:1046A0002AD0BAEB152F27D0BBEB152F24D0C24B45
:1046B0000C33B3EB152F1FD003F1040EBEEB152FF7
:1046C0001AD00EF10403B3EB152F00E055E013D020
:1046D00003F1040CBCEB152F0ED00CF10408B8EB61
:1046E000152F09D008F10408B8EB152F04D008F1F4
:1046F0000408B8EB152F0BD107212846FDF70EF95A
:10470000CDE90076B0EE480A7221149B0A9A30E097
:10471000B0EB142F22D0B9EB142F1FD0BAEB142F0B
:104720001CD0BBEB142F19D0A3480C30B0EB142FC6
:1047300014D0BEEB142F11D0B3EB142F0ED0BCEB62
:10474000142F0BD09C481C30B0EB142F06D0001D4A
:10475000B0EB142F02D0B8EB142F76D107212046EE
:10476000FDF7DCF8CDE90076149B0A9AB0EE480A12
:104770007421904800F018FED8E001468F4881422D
:104780007DD18D48001FB0EB152F25D0B9EB152F2B
:1047900022D0BAEB152F1FD0BBEB152F1CD08649AA
:1047A0000C31B1EB152F17D0091DB1EB152F13D01C
:1047B000091DB1EB152F0FD0091DB1EB152F0BD033
:1047C000091DB1EB152F07D0091DB1EB152F03D033
:1047D000091DB1EB152F39D1B0EB142F25D0B9EB52
:1047E000142F22D0BAEB142F1FD0BBEB142F1CD0E8
:1047F00071490C31B1EB142F17D0091DB1EB142FF7
:1048000013D0091DB1EB142F0FD0091DB1EB142FDC
:104810000BD0091DB1EB142F07D0091DB1EB142FDC
:1048200003D0091DB1EB142F10D107212846FDF745
:1048300075F807212046FDF771F8CDE90076B0EE56
:10484000480A2021149B0A9A6CE0FDE3B0EB152F77
:104850002DD0B9EB152F2AD0BAEB152F27D0BBEBF3
:10486000152F24D0544A0C32B2EB152F1FD002F171
:10487000040EBEEB152F1AD00EF1040300E055E034
:10488000B3EB152F13D003F1040CBCEB152F0ED096
:104890000CF10408B8EB152F09D008F10408B8EBA7
:1048A000152F04D008F10408B8EB152F0BD1072100
:1048B0002846FDF733F8CDE90076B0EE480A7221BC
:1048C000149B0A9A2EE0B0EB142F20D0B9EB142FD2
:1048D0001DD0BAEB142F1AD0BBEB142F17D0B2EBAC
:1048E000142F14D0BEEB142F11D0B3EB142F0ED015
:1048F000BCEB142F0BD030481C30B0EB142F06D07B
:10490000001DB0EB142F02D0B8EB142F0DD10721EE
:104910002046FDF703F8CDE90076149B0A9AB0EE25
:10492000480A7421254800F03FFDE1E02449099838
:1049300088427DD12048001FB0EB152F25D0B9EB60
:10494000152F22D0BAEB152F1FD0BBEB152F1CD083
:1049500019490C31B1EB152F17D0091DB1EB152FEB
:1049600013D0091DB1EB152F0FD0091DB1EB152F79
:104970000BD0091DB1EB152F07D0091DB1EB152F79
:1049800003D0091DB1EB152F41D1B0EB142F2ED060
:10499000B9EB142F2BD0BAEB142F28D0BBEB142F6C
:1049A00025D005490C31B1EB142F20D0091DB1EBF6
:1049B000142F07E0001001400402400000440040B2
:1049C0000048004013D0091DB1EB142F0FD0091D72
:1049D000B1EB142F0BD0091DB1EB142F07D0091D1B
:1049E000B1EB142F03D0091DB1EB142F0FD1072108
:1049F0002846FCF793FF07212046FCF78FFFCDE9FF
:104A00000076B0EE480A2021149B0A9A6CE0B0EBC5
:104A1000152F2CD0B9EB152F29D0BAEB152F26D096
:104A2000BBEB152F23D0DFF878E4BEEB152F00E0A9
:104A30005EE01CD00EF10403B3EB152F17D01B1D45
:104A4000B3EB152F13D003F1040CBCEB152F0ED0D4
:104A50000CF10408B8EB152F09D008F10408B8EBE5
:104A6000152F04D008F10408B8EB152F0BD107213E
:104A70002846FCF753FFCDE90076B0EE480A7221D4
:104A8000149B0A9A30E0B0EB142F22D0B9EB142F0C
:104A90001FD0BAEB142F1CD0BBEB142F19D0BEEBD8
:104AA000142F16D0FE48001DB0EB142F11D0B3EB1D
:104AB000142F0ED0BCEB142F0BD0F9481030B0EBF4
:104AC000142F06D0001DB0EB142F02D0B8EB142F1A
:104AD0000DD107212046FCF721FFCDE90076149B7C
:104AE0000A9AB0EE480A7421EE4800F05DFCD6E068
:104AF000ED48099981427CD1E9481038B0EB152F77
:104B000024D0B9EB152F21D0BAEB152F1ED0BBEB5B
:104B1000152F1BD0E249B1EB152F17D0091DB1EBB2
:104B2000152F13D0091DB1EB152F0FD0091DB1EBB7
:104B3000152F0BD0091DB1EB152F07D0091DB1EBB7
:104B4000152F03D0091DB1EB152F37D1B0EB142F62
:104B500024D0B9EB142F21D0BAEB142F1ED0BBEB0D
:104B6000142F1BD0CE49B1EB142F17D0091DB1EB78
:104B7000142F13D0091DB1EB142F0FD0091DB1EB69
:104B8000142F0BD0091DB1EB142F07D0091DB1EB69
:104B9000142F03D0091DB1EB142F0FD10821284683
:104BA000FCF7BCFE08212046FCF7B8FECDE90076F4
:104BB000B0EE480A2021149B0A9A6CE0B0EB152F46
:104BC0002CD0B9EB152F29D0BAEB152F26D0BBEB83
:104BD000152F23D0DFF8C8E2BEEB152F1ED00EF143
:104BE0000403B3EB152F19D01B1DB3EB152F15D0F4
:104BF00000E054E003F1040CBCEB152F0ED00CF1D7
:104C00000408B8EB152F09D008F10408B8EB152FEC
:104C100004D008F10408B8EB152F0BD10821284661
:104C2000FCF77CFECDE90076B0EE480A7221149BB9
:104C30000A9A30E0B0EB142F22D0B9EB142F1FD01A
:104C4000BAEB142F1CD0BBEB142F19D0BEEB142FD2
:104C500016D09348001DB0EB142F11D0B3EB142FD6
:104C60000ED0BCEB142F0BD08D481030B0EB142FAE
:104C700006D0001DB0EB142F02D0B8EB142F0DD1CD
:104C800008212046FCF74AFECDE90076149B0A9ADB
:104C9000B0EE480A7421844800F086FBD6E08348D1
:104CA000099981427ED17E481038B0EB152F24D06F
:104CB000B9EB152F21D0BAEB152F1ED0BBEB152F5A
:104CC0001BD07749B1EB152F17D0091DB1EB152F6C
:104CD00013D0091DB1EB152F0FD0091DB1EB152F06
:104CE0000BD0091DB1EB152F07D0091DB1EB152F06
:104CF00003D0091DB1EB152F37D1B0EB142F24D001
:104D0000B9EB142F21D0BAEB142F1ED0BBEB142F0C
:104D10001BD06349B1EB142F17D0091DB1EB142F31
:104D200013D0091DB1EB142F0FD0091DB1EB142FB7
:104D30000BD0091DB1EB142F07D0091DB1EB142FB7
:104D400003D0091DB1EB142F0FD108212846FCF721
:104D5000E5FD08212046FCF7E1FDCDE90076B0EE47
:104D6000480A2021149B0A9A6CE0B0EB152F2CD036
:104D7000B9EB152F29D0BAEB152F26D0BBEB152F89
:104D800023D0DFF81CE1BEEB152F1ED00EF104037B
:104D9000B3EB152F19D01B1DB3EB152F15D003F155
:104DA000040C00E052E0BCEB152F0ED00CF104080F
:104DB000B8EB152F09D008F10408B8EB152F04D073
:104DC00008F10408B8EB152F0BD108212846FCF791
:104DD000A5FDCDE90076B0EE480A7221149B0A9A2F
:104DE00030E0B0EB142F22D0B9EB142F1FD0BAEB68
:104DF000142F1CD0BBEB142F19D0BEEB142F16D0E0
:104E00002748001DB0EB142F11D0B3EB142F0ED098
:104E1000BCEB142F0BD022481030B0EB142F06D06F
:104E2000001DB0EB142F02D0B8EB142F0DD10821C8
:104E30002046FCF773FDCDE90076149B0A9AB0EE8C
:104E4000480A7421194800F0AFFAE1E018490998BE
:104E500088427DD112481038B0EB152F2FD0B9EB16
:104E6000152F2CD0BAEB152F29D0BBEB152F26D040
:104E70000B49B1EB152F22D0091DB1EB152F1ED018
:104E8000091DB1EB152F1AD0091DB1EB152F16D046
:104E9000091DB1EB152F12D0091DB1EB152F09E03B
:104EA0001002400000480040004C0040005000400C
:104EB0000014014003D0091DB1EB152F37D1B0EB21
:104EC000142F24D0B9EB142F21D0BAEB142F1ED0FD
:104ED000BBEB142F1BD0FE49B1EB142F17D0091DCB
:104EE000B1EB142F13D0091DB1EB142F0FD0091DF6
:104EF000B1EB142F0BD0091DB1EB142F07D0091DF6
:104F0000B1EB142F03D0091DB1EB142F0FD10821E1
:104F10002846FCF703FD08212046FCF7FFFCCDE9FD
:104F20000076B0EE480A2021149B0A9A6CE0B0EBA0
:104F3000152F2CD0B9EB152F29D0BAEB152F26D071
:104F4000BBEB152F23D0DFF888E3BEEB152F00E075
:104F50005EE01CD00EF10403B3EB152F17D01B1D20
:104F6000B3EB152F13D003F1040CBCEB152F0ED0AF
:104F70000CF10408B8EB152F09D008F10408B8EBC0
:104F8000152F04D008F10408B8EB152F0BD1082118
:104F90002846FCF7C3FCCDE90076B0EE480A722142
:104FA000149B0A9A30E0B0EB142F22D0B9EB142FE7
:104FB0001FD0BAEB142F1CD0BBEB142F19D0BEEBB3
:104FC000142F16D0C248001DB0EB142F11D0B3EB34
:104FD000142F0ED0BCEB142F0BD0BD481030B0EB0B
:104FE000142F06D0001DB0EB142F02D0B8EB142FF5
:104FF0000DD108212046FCF791FCCDE90076149BE9
:105000000A9AB0EE480A7421B24800F0CDF9D3E014
:10501000B148099981427DD1AD481038B0EB152FC8
:1050200026D0B9EB152F23D0BAEB152F20D0BBEB30
:10503000152F1DD0A649B1EB152F19D0091DB1EBC5
:10504000152F15D0091D00E01CE1B1EB152F0FD075
:10505000091DB1EB152F0BD0091DB1EB152F07D092
:10506000091DB1EB152F03D0091DB1EB152F37D159
:10507000B0EB142F24D0B9EB142F21D0BAEB142F9E
:105080001ED0BBEB142F1BD09149B1EB142F17D0BE
:10509000091DB1EB142F13D0091DB1EB142F0FD044
:1050A000091DB1EB142F0BD0091DB1EB142F07D044
:1050B000091DB1EB142F03D0091DB1EB142F0FD133
:1050C00008212846FCF72AFC08212046FCF726FC8C
:1050D000CDE90076B0EE480A2021149B0A9A69E0D7
:1050E0008646B0EB152F2BD0B9EB152F28D0BAEB95
:1050F000152F25D05846BBEB152F21D07449B1EBA5
:10510000152F1DD00A1DB2EB152F19D0131DB3EBAF
:10511000152F00E050E013D003F1040CBCEB152F69
:105120000ED00CF10408B8EB152F09D008F1040BD0
:10513000BBEB152F04D00BF10408B8EB152F0BD1E6
:1051400008212846FCF7EAFBCDE90076B0EE480AD4
:105150007221149B0A9A2DE0BEEB142F1FD0B9EBDD
:10516000142F1CD0BAEB142F19D0B0EB142F16D07B
:10517000B1EB142F13D0B2EB142F10D0B3EB142FCC
:105180000DD0BCEB142F0AD051481030B0EB142FC7
:1051900005D0BBEB142F02D0B8EB142F72D108212D
:1051A0002046FCF7BBFBCDE90076149B0A9AB0EED3
:1051B000480A74214848A9E048480999814261D1C8
:1051C00043481038B0EB152F24D0B9EB152F21D060
:1051D000BAEB152F1ED0BBEB152F1BD03C49B1EB02
:1051E000152F17D0091DB1EB152F13D0091DB1EBE9
:1051F000152F0FD0091DB1EB152F0BD0091DB1EBE9
:10520000152F07D0091DB1EB152F03D0091DB1EBE8
:10521000152F38D1B0EB142F24D0B9EB142F21D097
:10522000BAEB142F1ED0BBEB142F1BD02849B1EBC7
:10523000142F17D0091DB1EB142F13D0091DB1EB9A
:10524000142F0FD0091DB1EB142F0BD0091DB1EB9A
:10525000142F07D0091DB1EB142F03D0091DB1EB9A
:10526000142F10D108212846FCF758FB08212046AE
:10527000FCF754FBCDE90076B0EE480A2021149BE0
:105280000A9A42E044E08646B0EB152F32D0B9EBE3
:10529000152F2FD0BAEB152F2CD05846BBEB152F5E
:1052A00028D00B49B1EB152F24D00A1DB2EB152FD6
:1052B00020D0131DB3EB152F1CD003F1040CBCEB55
:1052C000152F17D00CF1040BBBEB152F12D007E0F4
:1052D000100240000014014000780040007C0040B3
:1052E0000BF10408B8EB152F04D008F10408B8EB53
:1052F000152F13D108212846FCF710FBCDE90076C5
:10530000149B0A9AB0EE480A72211B4800F04CF830
:1053100003B0BDEC028B06B0BDE8F08FBEEB142FDE
:105320001ED0B9EB142F1BD0BAEB142F18D0B0EB52
:10533000142F15D0B1EB142F12D0B2EB142F0FD0C5
:10534000B3EB142F0CD0BCEB142F09D0BBEB142FF4
:1053500006D00A48B0EB142F02D0B8EB142FD7D1E7
:1053600008212046FCF7DAFACDE90076B0EE480ACB
:105370007421149B0A9AC8E7007C00402402400074
:10538000C943018070470A0A01219140C943018045
:1053900070470029818902D041F4005101E021F4D5
:1053A00000518181704700002DE9FF4F0E462DED21
:1053B000020B0446584A59485949DFF86881DFF81A
:1053C0006891DFF868A1DFF868B194422DED028B97
:1053D00085B0B0EE408ADDE9167504D101211020B8
:1053E000FEF7CEFA2EE0844204D101214804FEF7F4
:1053F000BBFA06E08C4204D101218804FEF7B4FA1E
:1054000006E0444504D10121C804FEF7ADFA06E0E8
:105410004C4504D101210805FEF7A6FA06E05445E3
:1054200004D101212020FEF7ABFA04E05C4502D153
:105430000121880704E03F48844203D1012140054F
:10544000FEF792FA722E3BD0522E39D0742E39D0FC
:10545000542E37D05FF00C00ADF80A000B98009086
:105460000C9A00204FF48051092A2DD0ADF8040089
:105470006F2F2CD04F2F2AD0652F2BD0452F29D01E
:10548000ADF8080018EE102AB2F17C5F2CD018EEAF
:10549000101AB1F17F5F22D018EE101AB1F1804FCF
:1054A00020D0ADF80600722D21D0522D1FD0632DD3
:1054B00020D0432D1ED0612D1FD0412D1DD01EE0C8
:1054C0000420C9E70820C7E7ADF80410D0E74FF47F
:1054D000C06201E04FF48062ADF80820D2E74FF4DB
:1054E000405101E04FF40051ADF80610DBE74FF4F6
:1054F000807004E04FF4007001E04FF44070ADF8AC
:105500000C006946204600F05DF805B0BDEC028B4A
:1055100006B0BDE8F08F00000010014000440040DC
:1055200000480040004C0040005000400014014082
:1055300000780040007C0040002A828A01D00A43A3
:1055400000E08A43828270470246002012880A42A5
:1055500000D00120704730B501F01F020124002562
:10556000C1F3421304FA02F2012B0FD0022B0FD029
:10557000838A4FEA11210088134204FA01F400EAF9
:10558000040001D000B10125284630BD8389F0E731
:10559000038AEEE710B5C1F3421301F01F040121A5
:1055A000A140012B07D0022B07D01430002A02683B
:1055B00005D00A4304E00C30F8E71030F6E78A43E0
:1055C000026010BD7FB50446008A0D4620F44051AC
:1055D000E88808432082A08941F20C618843A988A9
:1055E0002A8911436A8902431143A181A08A20F4C8
:1055F0004071A8890843A0826846FEF7CDF91A4891
:10560000844202D01948844201D1039800E00298F4
:10561000A189090400EBC00101EB0010296801D544
:10562000490000E08900B0FBF1F26420B2FBF0F128
:1056300009010B096FF018056B4302EB8302A38984
:105640001D044FF0320306D503EBC202B2FBF0F0AB
:1056500000F0070005E003EB0212B2FBF0F000F0EF
:105660000F00084320817FBD00100140001401405D
:105670008088C0F308007047C1F30801818070473B
:1056800010B5FCF785FBBDE81040FBF7E9BE10B58F
:1056900000F06CF860B1012804D002280CD0032877
:1056A00016D10FE000F05CF8012801D0FFF7E8FF09
:1056B000BDE81040FBF784B800F052F8032801D190
:1056C000FFF7DEFFFBF726FFBDE81040FBF78CB8C5
:1056D00010BDFEE7024A002142F82010704700008A
:1056E000FC000020084A0949002000BF52F8203081
:1056F00041F82030401C0C28F8D304494FF0FF300B
:10570000091F08607047000094630008FC00002037
:105710000149096808407047F8000020F0B50E4DB7
:1057200000200E4E2B1DD5F80010012253F820400A
:1057300056F82070BC4203D302FA00F4214305E07E
:1057400002FA00F7B943641C43F82040401C0C28BF
:10575000ECD32960F0BD0000F8000020946300083D
:1057600001484078704700002C0100200148007873
:10577000704700002C010020024800210170417098
:10578000704700002C01002070B5154C012540F237
:10579000C1302178617051B1002601290CD0022955
:1057A00001D0032907D1FFF7B3FF40B914E0FFF799
:1057B000AFFF0EE0257070BDFFF7AAFF08B126709D
:1057C00070BD1E20FCF708FA0028F9D002202070D6
:1057D00070BD0028EED070BD1E20FCF7FDF9F8E783
:1057E0002C010020836843600A68C97812BA22F04D
:1057F000FF020A4382600188642902D2491CC26008
:105800000180D11A00EE101AF2EE040A0161B8EE1E
:10581000C00A20EE200ADFED120A80ED060A00EE33
:10582000101AB8EEC00A20EE200ADFED0E0A80ED55
:10583000070AC168511A00EE101A4161B8EEC00A99
:1058400020EE200ADFED080A80ED080A00EE101AAB
:10585000B8EEC00A20EE200A80ED090A7047000069
:10586000DB0F493A0AD7233CD20237390088642833
:1058700001D3012070470020704700000021018003
:1058800041608160C1609FED060A016180ED060AFA
:1058900080ED070A416180ED080A80ED090A704732
:1058A000000000000FB4054B10B503A9044A02988C
:1058B00000F0DAF810BC5DF814FB000099610008F4
:1058C0004001002002E008C8121F08C1002AFAD1D6
:1058D00070477047002001E001C1121F002AFBD170
:1058E000704700002DE9FF5F82B00021DDE9043040
:1058F000020DDDF840B0034318D044F61050A2F278
:10590000FF3242431514119801281FD0A5EB0B005C
:10591000401C5FEA000A4FF000064E4FDFF8389156
:10592000B046504615D5CAF1000413E01198012481
:105930004AA3012801D16FEA0B010298119AC0E92C
:105940000031C0E9024206B0BDE8F09FCBF1000093
:10595000DFE704460021404A491842EB0450CDE9F4
:10596000001012E0E00707D032463B464046494669
:10597000FAF75CFC8046894632463B46104619469B
:10598000FAF754FC06460F466410002CEAD1DDE914
:105990000401DDE90023BAF1000F06DAFAF746FC4C
:1059A00042464B46FAF742FC05E0FAF7B1FC4246A4
:1059B0004B46FAF7ADFC04460E460022284BFAF798
:1059C00079FE03D84FF0FF30014607E00022254B57
:1059D00020463146FAF7AFFDFAF754FE102409E0ED
:1059E000002C0ADB0A220023FAF717FD039B303252
:1059F0001A55641E50EA0102F2D1641C039AC4F1E4
:105A000011031444119A012A03D0012208430DD135
:105A10000AE0084304D000204FF0110B119072E708
:105A2000A3EB0B056D1E0DE05B4504DD4FF000029E
:105A300005F1010504E003DA4FF00002A5F10105CC
:105A4000002AECD002981199C0E90231C0E9004562
:105A500079E70000000014400000F03F3000000033
:105A60000000F0430000E03F2DE9FF4F95B09B465A
:105A70008946064600250FE2252877D100242746CF
:105A8000F84A0121059400E0044316F8013F203B49
:105A900001FA03F01042F7D130782A2811D06FF0C4
:105AA0002F033078A0F13002092A16D8059A44F065
:105AB000020402EB820203EB42021044761C0590C2
:105AC000EFE759F8042B0592002A03DA504244F418
:105AD0000054059044F00204761C30782E2816D12C
