:020000040800F2
:10000000B0280020950200089D0200089F02000809
:10001000A1020008A3020008A502000800000000D9
:10002000000000000000000000000000A70200081F
:10003000A902000800000000AB020008AD020008A1
:10004000AF020008AF020008AF020008AF020008CC
:10005000AF020008AF020008AF020008AF020008BC
:10006000AF020008AF020008AF020008AF020008AC
:10007000AF020008AF020008AF020008AF0200089C
:10008000AF020008AF020008AF020008050900082F
:10009000C1080008AF020008AF020008AF02000864
:1000A000AF020008AF020008AF020008AF0200086C
:1000B0002D290008AF020008AF020008AF020008B7
:1000C000AF020008AF020008AF020008AF0200084C
:1000D000AF020008892C0008052D0008AF020008B7
:1000E00025150008AF020008AF020008AF020008A3
:1000F000AF020008AF020008AF020008AF0200081C
:10010000AF020008AF020008AF020008AF0200080B
:10011000AF020008AF02000859290008AF0200082A
:10012000AF020008AF020008AF020008AF020008EB
:10013000AF020008AF020008AF0200086D09000816
:1001400029090008AF020008AF020008AF0200084A
:10015000AF020008AF020008AF0200089D2D0008A2
:10016000AF020008AF020008AF020008AF020008AB
:10017000AF020008AF020008AF0200080000000054
:10018000AF020008AF020008AF020008AF0200088B
:10019000AF020008AF020008AF020008AF0200087B
:1001A0000000000000000000AF02000800F002F8AC
:1001B00000F060F80AA090E8000C82448344AAF1A1
:1001C0000107DA4501D100F055F8AFF2090EBAE89F
:1001D0000F0013F0010F18BFFB1A43F0010318477B
:1001E000283F0000483F00000A444FF0000C10F880
:1001F000013B13F0070408BF10F8014B1D1108BFA5
:1002000010F8015B641E05D010F8016B641E01F844
:10021000016BF9D113F0080F1EBF10F8014BAD1C94
:100220000C1B09D16D1E58BF01F801CBFAD505E0B2
:1002300014F8016B01F8016B6D1EF9D59142D6D30C
:10024000704700000023002400250026103A28BF34
:1002500078C1FBD8520728BF30C148BF0B60704738
:100260001FB503F038FF9DE8030000F011F91FBD32
:1002700010B510BD00F068F91146FFF7F1FF03F06B
:10028000F7FE00F086F903B4FFF7F2FF03BC00F0BD
:10029000B7F900000948804709480047FEE7FEE734
:1002A000FEE7FEE7FEE7FEE7FEE7FEE7FEE7FEE726
:1002B00004480549054A064B70470000D12800084C
:1002C000AD010008B0140020B0280020B0240020A8
:1002D000B024002070B5064600F0BEF8056806F1AF
:1002E0000B0020F00704B4429CBF002070BD2B46D9
:1002F0006A68BAB11068A04210D304F108018842BC
:100300003CBF5068586007D35168101941601168AC
:10031000091B016058601460101D70BD13465268BF
:10032000002AE7D12146284600F09EF80028DED1B9
:1003300070BD70B50446051F00F08EF80068002CF3
:1003400014BF446870BD002C18BFAC423CBF2046AF
:100350006468F8D301680A18AA4218BF456003D13F
:100360002A6805461144016028684119A1421CBF52
:100370006C6070BD6168696021680844286070BD68
:1003800010B5431C02E010F8011B71B18107FAD1CE
:100390004FF0013202C88C1A8C4314EAC211F9D012
:1003A000C01A0A0603D0C01E10BDC01A10BD0A0430
:1003B00001D0801E10BD0902FCD0401E10BD4FF0C0
:1003C00000020429C0F0128010F0030C00F01B8022
:1003D000CCF1040CBCF1020F18BF00F8012BA8BF30
:1003E00020F8022BA1EB0C0100F00DB85FEAC17CF4
:1003F00024BF00F8012B00F8012B48BF00F8012BA7
:1004000070474FF0000200B51346944696462039D7
:1004100022BFA0E80C50A0E80C50B1F12001BFF4BD
:10042000F7AF090728BFA0E80C5048BF0CC05DF823
:1004300004EB890028BF40F8042B08BF704748BF71
:1004400020F8022B11F0804F18BF00F8012B7047E5
:1004500070477047704700000048704758140020EC
:10046000704770477047704738B504460A46002009
:100470006946AFF30080002808BF38BD02460099E6
:10048000204600F03FF8012038BD012000F054B8AC
:10049000F8B5AFF30080054600200C46102000BFE1
:1004A0000646A819A0420DD9324669460020AFF38E
:1004B0000080070008BF00F03FF80098A04218BF76
:1004C0000546C419FFF7C8FF05600746F01D20F078
:1004D00007004619284600F00AF8B44208BFF8BDE4
:1004E000A21B31463868BDE8F84000F00BB8002187
:1004F0000160C0E901107047102070470048704744
:1005000050140020034640688C46002818BF8842DB
:100510003CBF03464068F8D318681844884207D0A7
:100520000CF1030020F00700001D411A521A014689
:10053000081D0A60FFF7FDBE10B500F039F8BDE8F0
:10054000104000F02FB870477546FFF7D7FFAE4652
:1005500005006946534620F00700854618B020B5CF
:10056000FFF7A6FEBDE820404FF000064FF0000761
:100570004FF000084FF0000B21F00701AC46ACE84B
:10058000C009ACE8C009ACE8C009ACE8C0098D46B8
:10059000704710B50446AFF300802046BDE8104018
:1005A000FFF771BE002801D000F02AB870470000A4
:1005B00010B5012805D0002103A000F027F8012084
:1005C00010BD09A1F8E7000053494752544D454D6D
:1005D0003A204F7574206F662068656170206D65E4
:1005E0006D6F7279000000003A2048656170206DDF
:1005F000656D6F727920636F7272757074656400D7
:1006000001491820ABBEFEE72600020070B5054682
:100610000C460A2000E06D1C00F011F835B1287876
:100620000028F8D102E0641C00F009F814B1207829
:100630000028F8D1BDE870400A20AFF3008008B56B
:1006400069468DF800000320ABBE08BD38B5002018
:10065000074C0346024601460090204600F00EFC7F
:100660002046BDE838400022114601F022B90000C2
:100670000064004008B501211E4801F013F9020092
:100680001D484FF4804102D001F04FFA01E001F023
:100690004EFA0221174801F005F9010017484FF002
:1006A000800102D001F041FA01E001F040FA144863
:1006B00090ED030ABDEEC00A10EE101A09B20091C7
:1006C00090ED020ABDEEC00A10EE101A90ED010A7C
:1006D0000BB2BDEEC00A10EE101A90ED000A0AB27D
:1006E000BDEEC00A10EE100A01B2064800F0C6FBCB
:1006F00008BD00001C010020001402400010024050
:100700007C0E00200064004010B5FFF79FFF00F052
:1007100043FD00F05BFD00F0D1FD00F0D1FD01F0E4
:10072000C3FB01F0A9FD02F031F803F02BFCBDE89A
:10073000104003F0EBBB10B503F044FC01F0B4FB38
:1007400003F0ECFB03F0DCFB03F0DAFB022809D139
:1007500000F066FD01F0DCFD00F0EAFDBDE81040B0
:10076000FFF788BF10BD000010B54FF4A06001F086
:1007700079FD00F02FF80DA000F064F800F092F879
:1007800001F0D4FB02F048FA02F037FA00F0A2FBC5
:1007900000F0DAFB01F07EFF02F036FABDE810400F
:1007A0004FF48041074801F0C0B9000048656C6C07
:1007B0006F2066726F6D204B796C696E626F742E5C
:1007C0000A000000001402408021014801F0B1B984
:1007D000001002403EB54E200821CDE90010154C16
:1007E00015490290B7EE000A4FF416532246481CF2
:1007F00002F020FB012240F22551204603F009FBC4
:1008000002221146262001F0EDFC0C49A5152A46CE
:10081000A1F1280000F0F9FF09492A46A1F58A70E4
:1008200000F0F3FF03B02046BDE83040012103F0A3
:10083000F7B9000000440040050C0240E00F002022
:10084000E010002010B50446FFF79AFD014620464F
:10085000BDE81040AFF3008070B50D460646002499
:1008600004E0305D00F006F8641CE4B2AC42F8D35A
:1008700070BD000001B5084800F0D1FF0028FAD192
:1008800001226946044800F0ECFF012240F2277182
:10089000024803F0BEFA08BDCC0F0020004400401F
:1008A0007047000010B50C21044800F04BFE0222F6
:1008B000BDE810401146282001F094BC0A0C02400B
:1008C00010B50E4C86B00221204600F06DF90028CC
:1008D00011D00421204600F073F80949204600F0A9
:1008E00057F86A460021204600F02EFA0DF10B0160
:1008F000009800F0EDFA06B010BD00000064004062
:100900000800003210B5074C0121204600F04CF9D8
:10091000002805D02046BDE81040012100F050B865
:1009200010BD00000064004010B50E4C86B00221DE
:10093000204600F039F9002811D00221204600F0AD
:100940003FF80949204600F023F86A460021204676
:1009500000F0FAF90DF10B01009800F0F3FA06B07F
:1009600010BD0000006800400800003210B5074CC0
:100970000121204600F018F9002805D02046BDE8E6
:100980001040012100F01CB810BD000000680040BC
:100990000A4A914202D1002181617047C1F31302DA
:1009A0008B0101D5C26070474B0101D502617047D0
:1009B000090101D582607047426070477000F030D5
:1009C00030B5082310240422B1F5007F1DD010DCBF
:1009D000202929D007DC012921D0042922D0082987
:1009E00000D1C46030BD402920D0B1F5807FF9D15D
:1009F0000BE00025B1F5004F06D008DCB1F5806FA3
:100A000003D0B1F5006FEDD18561426030BDB1F525
:100A1000803F0DD0B1F5003FF8D1446030BD0549AD
:100A2000816030BDC36030BD036130BD046130BD45
:100A3000436030BD010101002DE9FE430F4604462D
:100A4000DDE90A89154916481D4616468C4202D131
:100A50000121480603E0844203D10121880601F008
:100A60004DFD00218DF804808DF808108DF805905B
:100A70008DF80A10ADF800708DF8061001208DF881
:100A800002608DF807108DF80B008DF80350694651
:100A9000204600F0E5F8BDE8FE8300000064004059
:100AA00000680040F0B5827A012191402E4A136817
:100AB00043F0010313602C4B1C331C688C431C60F7
:100AC000294D067B294C0C35A6B92E688E432E6025
:100AD0004688C78846EA0746877A04EBC707C7F8FF
:100AE00040660688878846EA0746877A04EBC70788
:100AF000C7F84466067B012E12D12E680E432E6085
:100B0000867A056804EBC6064FEA3545C6F84056B6
:100B1000867A456804EBC6044FEA3545C4F8445666
:100B2000114CC57A241D002D256806D00D43256083
:100B30000D4C0589143415B104E08D43F7E72568A1
:100B40008D4325600589012D02D125680D4325605F
:100B5000407B012802D1186808431860106820F013
:100B600001001060F0BD0000006600400060004021
:100B70007FB5DDE90845ADF80000ADF808408DF817
:100B80000A5000208DF80B0001208DF80C00ADF804
:100B900004208DF80D00ADF80210ADF8063068465F
:100BA000FFF780FF7FBD00000246002053690B4223
:100BB0004AD0B1F5807F3BD013DC08292ED007DC6A
:100BC000012926D0022927D004293DD1D0682BE065
:100BD000102925D0202926D0402935D1106910218F
:100BE00030E0B1F5004F2BD00BDCB1F5007F22D007
:100BF000B1F5806F22D0B1F5006F25D190697021D9
:100C000020E0B1F5803F11D0B1F5003F1CD1506814
:100C1000E5E790680D4915E0D06802E0D068DEE7AE
:100C2000106903210EE0106908210BE05068FBE712
:100C30009069012106E09069022103E0906900E0DB
:100C40005068042100F09CBA7047000001010100C7
:100C5000002A426901D00A4300E08A43426170479A
:100C600010B50368002223F002030360036843F019
:100C7000010303604FF6FF7300E0521C4468E40771
:100C800001D19A42F9D14268D2073ED08A79012A2D
:100C900002683CD022F080020260CA79012A026810
:100CA00038D022F0400202600A7A012A026834D069
:100CB00022F0200202604A7A012A026830D022F033
:100CC000100202608A7A012A02682CD022F00802FF
:100CD0000260CA7A012A026828D022F00402026067
:100CE0008A78CC78920742EA04620C7942EA04429C
:100CF0004C79098842EA0452491E0A43C2610168DC
:100D000021F001010160002114E0002010BD42F03B
:100D10008002C1E742F04002C5E742F02002C9E785
:100D200042F01002CDE742F00802D1E742F004029F
:100D3000D5E7491C4268D20701D09942F9D14068F1
:100D4000C007E2D1012010BD10B500EB0113D3F8AC
:100D5000B04114F004041472D3F8B04134D0E40864
:100D6000C2F80440D3F8B04104F002045472D3F83E
:100D7000B44104F00F049472D3F8B441240AD4743B
:100D8000D3F8B841D472D3F8B841240A1473D3F815
:100D9000B841240C5473D3F8B841240E9473D3F89B
:100DA000BC41D473D3F8BC41240A1474D3F8BC41B9
:100DB000240C5474D3F8BC311B0E937439B10169FF
:100DC00041F02001016110BD640D1460CAE7C168E3
:100DD00041F02001C16010BD30B50246002093688B
:100DE0005B0108D49068000101D5012003E0906800
:100DF000C00037D5022002EB0012D2F8803103F098
:100E00000103C2F880310B7A73B3D2F880414D6888
:100E10001C434B7A43EAC5031C43C2F880418B7ADA
:100E200003F00F038B72D2F8843123F00F03C2F862
:100E30008431D2F884318C7A2343C2F88431CB7A5E
:100E4000CC6843EA0423C2F88831CB7B096943EAC2
:100E50000121C2F88C11D2F8801141F00101C2F8D1
:100E6000801130BD042030BDD2F880314C7A23434C
:100E70000C8843EA4453C2F88031D0E730B585B0DE
:100E80004FF40075009500258DF808508DF8095035
:100E900008258DF80A50089C0D0A8DF80C10110ACF
:100EA0008DF80D108DF80E20190A8DF80F108DF8A1
:100EB0001030210A8DF811108DF80B508DF812406A
:100EC0006946FFF789FF05B030BD80EC030A704723
:100ED00000F0B6B81CB50921184800F00EFD1748FF
:100EE0000921401C00F009FD00220121142001F01D
:100EF00079F902221146132001F074F90321082028
:100F00000F4CCDE90001002301222046FFF794FD9C
:100F1000002100910B460A4608460191FFF728FE82
:100F2000012202212046FFF793FE02B02046012253
:100F3000BDE810401146FFF78BBE0000000C0240D8
:100F40000064004000F07CB81CB50921184800F08E
:100F5000D4FC17480921401C00F0CFFC00220121DD
:100F6000402001F03FF9022211463F2001F03AF9FA
:100F7000032108200F4CCDE9000100230122204667
:100F8000FFF75AFD00200E21CDE90001034602467D
:100F90000146FFF7EDFD012202212046FFF758FE32
:100FA00002B020460122BDE810401146FFF750BEB6
:100FB0000C040240006800402DE9F047DFF874900F
:100FC00000242DED028B09F51667DFED1B8A9FEDDE
:100FD0001B8A07F1C00807F5A87A00BF04EBC4001C
:100FE00000EB041107EB441609EB011164223046B3
:100FF00000F0A3FDF0EE680A04EB440108EBC10524
:10100000F0EE601AB0EE601AB0EE480A284600F022
:1010100057FB04EB84032A4631460AEB830000F0B9
:101020008EFB641CE4B2062CD8D3BDEC028BBDE869
:10103000F08700009802002000000000CDCCCC3DDD
:1010400010B50C46B0F5017F2BD00DDCA0F500707B
:1010500001381AD001281ED0022837D1062002F00C
:1010600089FF214602202DE0A0F5007005381ED032
:10107000012822D0B0F5FE7F28D1032002F07AFFAC
:101080002046BDE8104002F0BFBF042002F072FF0E
:101090002146002016E0052002F06CFF21460120C9
:1010A00010E0072002F066FF214603200AE0082036
:1010B00002F060FF2146042004E0092002F05AFFFC
:1010C00021460520BDE8104001F012B810BD000017
:1010D00070B5274C274D28482DED028BD4ED000A22
:1010E00095ED000A01F084F9B0EE408A234801F042
:1010F000B8FA214E28EE000AA036A6F1780086ED57
:10110000000AD4ED010A95ED010A01F071F91B48BE
:10111000B0EE408A083001F0A4FA28EE000AA6F1E9
:10112000500086ED010AD4ED020A95ED020A01F0A5
:101130005FF91248B0EE408A103001F092FA28EEC2
:10114000000AA6F1280086ED020AD4ED030A95ED07
:10115000030A01F04DF90948B0EE408A183001F059
:1011600080FA28EE000A86ED030ABDEC028B70BD02
:10117000800F0020CC0D0020DC0D0020200100207D
:10118000024600200A4200D0012070470148406812
:1011900070470000100100200248002101604160FA
:1011A000704700001001002007484FF47A72016870
:1011B000491CB1FBF2F3016002FB1311002902D1BB
:1011C0004168491C416070471001002010B52DEDA9
:1011D000028B00F0E9F803210E4800F05FFB9FED61
:1011E0000E8A0E48B0EE481AF0EE480AB0EE480AF1
:1011F000FFF76BFEF0EE481AB0EE481AF0EE480A20
:10120000B0EE480ABDEC028B0448BDE810400C303B
:1012100000F0DABE1801002000000000C00D002020
:1012200010B500F0CDF823482349D0ED000A91ED28
:10123000390AF4EEC00AF1EE10FA02DDF0EE400ACF
:1012400008E0B1EE401AF4EEC10AF1EE10FA01D254
:10125000F0EE410AC0ED000A90ED011AB4EEC01A9A
:10126000F1EE10FA02DDF0EE400A08E0F1EE400A7D
:10127000B4EEE01AF1EE10FA01D3F0EE410AC0ED3F
:10128000010AD0ED020AF4EEC00AF1EE10FA08DC11
:10129000B1EE400AF4EEC00AF1EE10FA01D3B0EE5E
:1012A000600A80ED020A0349BDE810400C31014894
:1012B00000F08EBEC00D002000000020704700002E
:1012C00010B50321174800F0E9FA9FED170A1748F7
:1012D000F0EE401AB0EE401AF0EE400A00F074FE54
:1012E0001248A03801F0F4F81048783801F0F0F80E
:1012F0000E48503801F0ECF80C48283801F0E8F8B6
:101300000848001D01F0C1F906480C3001F0BDF994
:101310000448143001F0B9F90248BDE810401C300F
:1013200001F0B3B91C010020000000007C0E002079
:1013300010B501210F4800F0B5FA00280E484FF013
:10134000010102D000F0B1FA01E000F0A7FA022199
:10135000084800F0A7FA002807484FF0020102D021
:1013600000F0A3FA01E000F099FABDE81040FFF7A1
:10137000AFBE0000180100201C01002070B50D4612
:10138000044601F033F9A91D04F10A00BDE87040DC
:1013900000F069BD10B5044601F050F904F10A00EF
:1013A000BDE8104000F06EBD10B501F009F900F085
:1013B00025FDBDE810400148FFF7ECBF9E0E002060
:1013C000104910B501F11200FFF7D8FF0D48123097
:1013D00000F0F4FC0B48123000F0DEFC0A484078C4
:1013E000012807D003280BD10648BDE810401C3067
:1013F00000F030BD0348BDE81040123001F0F4B8F1
:1014000010BD00008C0E002058010020002901684A
:1014100002D041F0010101E021F0010101607047BB
:101420002DE9F0438FB00446DDE9168916481D46C4
:1014300016460F46A04303D10121480501F052F89A
:101440001248A04303D10121880501F04BF8002187
:101450004FF48060CDE905108010CDE908104FF4FD
:1014600040300791CDE90A010C910D910E9102AA2D
:10147000694682E82003CDE90076204600F028F88E
:101480000FB0BDE8F083000000600240006402403D
:101490000029016802D041F4802101E021F480217B
:1014A00001607047002A026802D042F4002201E085
:1014B00022F40022026001617047406880B27047E8
:1014C000014600200968090300D50120704700008B
:1014D00030B50368124ACC6813400A682243D1E948
:1014E00005452C432243CC6922430C6A22434C6AB3
:1014F00022438C6A22434C6B22438C6B22431A4357
:101500000260426922F00703D1E90B2422431A4307
:1015100042610A6942604A6882608968C16030BD80
:101520003F801CF010B54FF48064204600F086F830
:10153000002806D0204600F067F8BDE81040FFF70D
:10154000AFB910BD2DE9F04104462E488846B0EBF6
:10155000142F01D100263FE02A48001DB0EB142FC4
:1015600001D1012638E027480830B0EB142F01D113
:10157000022631E023480C30B0EB142F01D10326B2
:101580002AE020481030B0EB142F01D1042623E0CC
:101590001C481430B0EB142F01D105261CE019486B
:1015A0001830B0EB142F01D1062615E015481C3079
:1015B000B0EB142F01D107260EE012482030B0EB1B
:1015C000142F01D1082607E00E482430B0EB142F69
:1015D00001D1092600E00A2604F00F050127AF40DB
:1015E0000121880300F096FF204600F025FA2946E5
:1015F000304601F099F842463846BDE8F0410021F6
:1016000000F008B80002400001490860704700007F
:10161000143C01407CB50D46064601211446880362
:1016200000F078FF8DF804508DF8054001208DF80A
:1016300006000096684600F00BF87CBD034A0146A0
:10164000002012680A4200D001207047143C01407B
:1016500030B51A498379026853B30B6893430B6022
:101660000A1D13680468A343136002790A441368CF
:10167000046823431360114A083213680468A343C3
:101680001360131D1C680568AC431C604479102C62
:1016900005D021440A68006802430A6030BD116821
:1016A000046821431160196800680143196030BD66
:1016B0000079084401689143016030BD003C01405D
:1016C00080EC040A7047D0ED020A90ED031AD0EDC9
:1016D000001A30EE811AD0ED050A70EEA10AD0EDA5
:1016E000011A30EE410A30EEA12AC0EE821AC0ED96
:1016F000041A20EE210A80ED030A31EE000A20EEE2
:10170000A01A80ED020A41EE610AC0ED050A704799
:101710009FED050A80ED020A80ED030A80ED040AC0
:1017200080ED050A704700000000000080ED030A0C
:10173000704780ED020A704780ED010A7047C0E9EA
:10174000001200F03FB810B5D0ED020A0446F5EEE5
:10175000C00AF1EE10FA29DD206800F0F2F92068E5
:10176000D4ED020A90ED070AB4EEE00AF1EE10FAA9
:1017700012D284ED020A90ED050A6068FFF7DCFFE3
:10178000206890ED030A6068FFF7D3FF206890EDB2
:10179000040A6068FFF7CAFF206890ED030A84ED31
:1017A000030A90ED040A84ED040A10BD6068FFF797
:1017B0008AFF606890ED020A84ED030A90ED030A47
:1017C000F1E7000010B50446006800F0F7F9606822
:1017D000FFF79EFF9FED050A84ED020A9FED040AC4
:1017E00084ED030A84ED040A10BD0000FFFF7F7F33
:1017F0000000000010B50446D4E90001FEF7DFFD4B
:101800000020A060E060206110BDC0E90012FFF779
:10181000F1BF006908B100207047012070470169DD
:101820004068814201D10120704700207047F0B527
:1018300000231D460EE084680768661C86603C5DD8
:10184000CC54D0E90146A64200D185600469641EEB
:101850005B1C0461934202D20469002CEBD1184650
:10186000F0BDF0B500231D4610E0C4680768CE5CEB
:1018700004F1010CC0F80CC03E554668C468B4427F
:1018800000D1C5600469641C5B1C0461934203D2EF
:1018900046680469B442E8D11846F0BD02688A433C
:1018A0000260704700680840704702680A4302609F
:1018B000704710B586B040F2FF13009300238DF8F7
:1018C00008308DF8093008248DF80A400C0A8DF88C
:1018D0000C10110A8DF80D108DF810308DF80E20B7
:1018E0008DF811308DF80B408DF80F308DF81230D7
:1018F0006946FFF771FA06B010BD38B50A460446CE
:1019000000F00F0120F0FF0000F0F8F8002003467F
:10191000022200901146204600F002F838BD000077
:101920002DE9FF4F054620F0FF04384A3848394971
:10193000394E3A4FDFF8E880DFF8E890DFF8E8A0AA
:10194000DFF8E8B083B0944202D1012108463CE0C0
:10195000844204D10121022000F0C4FD06E08C4243
:1019600004D10121042000F0BDFD06E0B44204D101
:101970000121082000F0B6FD06E0BC4204D101219F
:10198000102000F0AFFD06E0444504D101212020E5
:1019900000F0A8FD06E04C4504D10121402000F0F4
:1019A000A1FD06E0544504D10121802000F09AFDFC
:1019B00006E05C4504D10121080200F093FD07E038
:1019C0001B48844204D10121401500F08BFD05E045
:1019D0001848844202D101210015F6E705F00F01F5
:1019E00001208840009004988DF8040005988DF837
:1019F000050006988DF8060010988DF807006946D6
:101A0000204600F021F807B0BDE8F08F000002404A
:101A10000004024000080240000C02400010024096
:101A20000014024000180240001C02400020024046
:101A3000002402400028024008B5002101230222B0
:101A40000091FFF76DFF08BDF0B5002301240327C7
:101A50000D6804FA03F21540954242D1D0F800C057
:101A60005E0007FA06F52CEA050CC0F800C091F8F4
:101A700004C0D0F800E00CFA06FC4CEA0E0CC0F8EA
:101A800000C091F804C0BCF1010F02D0BCF1020FFC
:101A90001FD1D0F808C02CEA050CC0F808C091F896
:101AA00005C0D0F808E00CFA06FC4CEA0E0CC0F8B1
:101AB00008C0D0F804C02CEA020CC0F804C0426888
:101AC00091F806C00CFA03FC1FFA8CFC42EA0C02E7
:101AD0004260C268AA43C260CA79C568B2402A435C
:101AE000C2605B1C102BB3D3F0BD08B500210B46C0
:101AF000009102220121FFF713FF08BD4B07DB0E07
:101B00009A40C90810B500EB8100016A0F249C407F
:101B1000A1430162016A1143016210BD0246002027
:101B200052690A4200D00120704741837047018307
:101B3000704742694A4042617047C0E9001200F0B4
:101B40003DB882680168D0ED030A01EB8201521CA6
:101B500091ED001A30EE412A90ED011AF8EE412A7B
:101B6000B8EE411AC2EE221AC0ED041A70EEA12A94
:101B7000C0ED032A91ED003A73EE600A70EE800A20
:101B800070EEE20A20EE822AC2EE010AC0ED060AD9
:101B900090ED051A31EE201A80ED051A21EEA11AFA
:101BA00000EEA01A80ED071A826081ED000AD0E9EC
:101BB00001128A4201D100218160704710B50446AC
:101BC000406881002068FEF71CFC00209FED070A9A
:101BD000A06084ED030A84ED050A84ED040A84ED17
:101BE000060A9FED030A84ED070A10BD00000000FD
:101BF000FFFF7F7F10B5284A2DED048B018992ED00
:101C0000398ACB0603D4B6EE000A28EE008A9FED8F
:101C1000230A4B0702D5F1EE488A06E00B0702D5EE
:101C2000F0EE488A01E0F0EE408A8B0702D5B1EE73
:101C3000488A03E0C90701D1B0EE408AB0F900003C
:101C400092ED102A00EE100A9FED151AF1EE421ADD
:101C5000B8EEC00ADFED130A02F022FAB0EE409AA5
:101C6000B0EE680A104800F079F9104C0E4884ED87
:101C7000000AB0EE480A103000F070F90A4884ED0E
:101C8000010AB0EE490A203000F068F984ED020A3A
:101C9000BDEC048B10BD000000000020000000001F
:101CA00000FEFF46000000C7B40E0020C00D00205B
:101CB00070B504462DED028B1D4D00889FED1D8AE9
:101CC00095ED392A00EE100ADFED1B8AF1EE421A7B
:101CD000B8EE400AB0EE481AF0EE680A02F0E0F9F9
:101CE000164EB0EE481AF0EE680A86ED000A6088DB
:101CF00095ED392A00EE100AF1EE421AB8EE400ACC
:101D000002F0CEF986ED010AA08895ED392A00EEA1
:101D1000100AB0EE481AF1EE421AB8EE400AF0EEA0
:101D2000680A02F0BDF986ED020ABDEC028B70BDB7
:101D3000000000200080D2440000B643C00D002007
:101D4000F0B5144A0021141F231F0F46801D655C47
:101D5000465CAE4209D152F821500A2D03D26D1CC7
:101D600042F8215003E05E5401E042F82170455CE6
:101D70006554491C0229EAD306490020891E0C1F1C
:101D80001A5C0D5C42EAC50525540A54401C022821
:101D9000F6D3F0BD4801002030B5074B0020991D57
:101DA0000C1F1A5C0D5C42EAC50525540A54401C00
:101DB0000228F6D330BD000058010020F0B50E4FC8
:101DC000002107F10802131F0E4608305C5C455CD9
:101DD000A54209D152F821400A2C03D2641C42F8D2
:101DE000214003E07D5401E042F82160445C5C54F2
:101DF000491C0229EAD3F0BD5801002070B5134AEE
:101E00000020131D141F961E0146951C115443F803
:101E10002010215431542954401C0228F6D30C4977
:101E20000A22A1F1300000F0BAF809490A2228314B
:101E3000A1F1480000F0B3F80549BDE870400A225E
:101E40005031A1F1600000F0AAB800004401002068
:101E5000E40E002010B50446FFF772FF2046BDE8EF
:101E60001040FFF7C7BE0A8802804A8842808A88ED
:101E700082808A798271CA79C2710A89028149890C
:101E80004181704700210A464318491CC9B29A7122
:101E90000229F9D302814281704700000149096893
:101EA0000840704750010020164917480B7B026814
:101EB000012B1AD042F00102026091F83020012A71
:101EC000026815D042F00202026091F85420012A03
:101ED000026810D042F00402026091F878100129E3
:101EE0000CD042F008010160704722F00102E3E7E4
:101EF00022F00202E8E722F00402EDE722F00801F6
:101F0000F1E70000C00100205001002010B5FEF7ED
:101F1000FBFB4FF47A71044800F01EFCFEF724FC32
:101F2000BDE8104000F070BE3707000810B5094842
:101F3000FFF7DBFD0848FFF7D8FD06484FF4804166
:101F40000E38FFF7F4FD04488021BDE81040C01FA3
:101F5000FFF7EDBD0E1402400710024082680168D1
:101F600001EB8201D1ED000A30EE601AD0ED010ADA
:101F7000F8EE600AC1EE201AD0ED030A71EEA00A55
:101F8000C0ED030A81ED000AD0E90121914201D19F
:101F9000002100E0491C816090ED030A7047C0E910
:101FA000001200F001B8000010B50446406881003E
:101FB0002068FEF726FA00209FED020AA06084ED5B
:101FC000030A10BD0000000080EC040A7047000006
:101FD0000A460146014800F00BB800005C0F0020E3
:101FE0000A460146014800F04AB800005C0F002094
:101FF00091EC020A90ED001A30EE600AD1ED020A6F
:1020000000EE810AD0ED010A80EE201A82ED001A5E
:1020100090ED001A91EC020A30EE200AD1ED020A8E
:1020200000EE810AD0ED010A80EE201A82ED011A3D
:1020300091ED010AD1ED000A90ED001A30EE600A30
:10204000D1ED020A00EE810AD0ED010A80EE201ADD
:1020500082ED021A91ED000AD1ED010A90ED001A0D
:10206000B1EE400A30EE600AD1ED020A00EE810ABC
:10207000D0ED010A80EE201A82ED031A704791EC30
:10208000020A30EE200AD1ED020A30EE600AD1EDEC
:10209000030A30EE600AD0ED020A20EE200A82ED3B
:1020A000000A91ED010AD1ED000A30EE600AD1ED8F
:1020B000020A30EE200AD1ED030A30EE600AD0EDBC
:1020C000030A20EE200A82ED010A91EC020A30EEAA
:1020D000200AD1ED020A30EE200AD1ED030A30EEDB
:1020E000200AD0ED040A20EE200A82ED020A704791
:1020F00038B5364A00EBC00502EB8504DFED340A43
:10210000638822F825300A8852BA62804D886DBAF9
:1021100000EE105A65608988B8EEC00A49BAA1601D
:1021200020EE200ADFED2B0A84ED080A00EE102ACB
:10213000B8EE400A20EE200A8DED000A217B21B185
:1021400084ED050A002121612173D11A09B241F6FB
:102150004C52914205DD2269A1F50051521E2261C7
:1021600008E041F64C52D14204DA226901F50051EF
:10217000521C226100EE101A9FED171A00EB80012D
:10218000B8EEC00A154884ED070A94ED050ADDEDA6
:10219000000A00EB8105284630EEC00AD4ED040A9F
:1021A000F8EEE00A00EE810A8DED000AFFF7CBFAA7
:1021B00095ED030ADFED0A0A84ED060A95ED040A9F
:1021C00020EE200A84ED070A38BD0000C00100207F
:1021D0006F12833ADB0F493ADB0FC940480D0020EC
:1021E00000007A4408B58DF800008DF801108DF8D4
:1021F000022001208DF80300684600F001F808BDB8
:1022000030B50F22C47801780123FCB1144C246846
:1022100001F1E02104F4E064C4F5E064C4F30724B0
:10222000C4F10405E2404478AC408578154025436C
:102230002A0181F80024007800F01F018B4040093A
:10224000800000F1E020C0F8003130BD01F01F0037
:1022500083404809800000F1E020C0F8803130BDA3
:102260000CED00E002490843024908607047000095
:102270000000FA050CED00E010B52DED028BFEF725
:102280009BFE03211F48FFF709FB9FED1F8A1F4894
:10229000B0EE481AF0EE480AB0EE480AFEF715FE16
:1022A0001A48B0EE481AF0EE480AB0EE480A0C3070
:1022B000FEF70BFE1548F0EE481AB0EE481AF0EEA5
:1022C000480AB0EE480A3038FFF77EFE0F48F0EEBD
:1022D000481AB0EE481AF0EE480AB0EE480A203824
:1022E000FFF772FEF0EE481AB0EE481AF0EE480A18
:1022F000B0EE480ABDEC028B0448BDE8104010382F
:10230000FFF762BE5401002000000000A00F002073
:1023100010B54FF480413148FFF700FC304C0028E5
:10232000206854D020F00100206080212D48FFF764
:10233000F5FB002820684DD020F0020020602A48DC
:102340002A4990ED060A81ED000A90ED0F0A81ED11
:10235000010A90ED180A81ED020A90ED210A81ED43
:10236000030A90ED070A103181ED000A90ED100A82
:1023700081ED010A90ED190A81ED020A90ED220A21
:1023800081ED030A90ED010A1031B8EEC00A81ED2B
:10239000000A90ED0A0AB8EEC00A81ED010A90ED3C
:1023A000130AB8EEC00A81ED020A90ED1C0A0F482C
:1023B000B8EEC00A81ED030A1031FFF711FE0B4998
:1023C000BDE810403C31A1F12C00FFF709BE40F000
:1023D0000100A9E740F00200B0E70000001402404D
:1023E0005401002000100240C0010020700F0020A6
:1023F00030EE601A90ED080ADFED341A31EE402A13
:1024000090ED000A60EE010A90ED040AB4EEE00AD5
:10241000F1EE10FA08D3B1EE400AB4EEE00AF1EEA4
:1024200010FA01DCB0EE600AD0ED030AF4EEC20A45
:10243000F1EE10FA1ADDD0ED090AD0ED011A41EEE5
:10244000810AC0ED090AD0ED051AF4EEE10AF1EEB9
:1024500010FA06DCF1EE611AF4EEE10AF1EE10FA80
:1024600001D2F0EE610AC0ED090A01E0C0ED091ADF
:10247000D0ED020AD0ED061A60EE820AF4EEE01A00
:10248000F1EE10FA06D3F1EE611AF4EEE01AF1EE75
:1024900010FA01DDF0EE610AD0ED091A31EE800A82
:1024A00030EE200AD0ED070AF4EEC00AF1EE10FA81
:1024B00006D3F1EE600AF4EEC00AF1EE10FA01DD87
:1024C000B0EE600A80ED081A7047000000000000BE
:1024D0009FED030A80ED080A80ED090A70470000AD
:1024E00000000000044A0029116801D0014300E007
:1024F000814311607047000030380240044A0029CF
:10250000116801D0014300E0814311607047000071
:1025100040380240044A0029116801D0014300E01C
:1025200081431160704700004438024070B5204A72
:102530001168204C11F00C0104D01F4E042903D067
:10254000082903D004601BE0066019E01849091F40
:102550000B68C3F380550B6803F03F0315B1B6FB5E
:10256000F3F301E0B4FBF3F30C680968C4F38814D7
:102570006343C1F30141491C4900B3FBF1F1016020
:1025800011680F2303EA11110C4B5C5C0168E140F8
:1025900041601468072505EA94241C5D21FA04F4BF
:1025A0008460126805EA52329A5CD140C16070BD05
:1025B000083802400024F400001BB7009A010020F4
:1025C00070B5084A0020131D941C161F0146951E65
:1025D000115443F82010215431542954401C02282E
:1025E000F6D370BD5C010020FFF762BB0A88C2F31E
:1025F0000A0202804A788B78D20842EA4312C2F378
:102600000A0242808A78CB78920942EA83020B79E7
:1026100042EA8322C2F30A0282800A794B79520885
:1026200042EAC312C2F30A02C2804A7992090272D4
:102630004979C1F3011141727047000000214FF444
:10264000806200BF20F81120491CC9B20429F9D3C7
:10265000002103224318491CC9B21A720229F9D376
:102660007047D0E9002191420CD2491C00EE101AAB
:102670004160F8EE400A00EE102AB8EE401A80EEF3
:10268000810A7047B7EE000A704700214160704729
:10269000704700003EB54E22452108208DE8070016
:1026A0001D4CB7EE000A1B4B224600211B4800F0D0
:1026B000C1FB01224021204601F084FB242100209F
:1026C000CDE90001174D221D154B51062846FEF796
:1026D000A7FE1349002224312846FEF7E3FE01211C
:1026E0002846FEF7D5FE01212846FEF78FFE01227F
:1026F00000212520FFF776FD012240F224412046EB
:1027000001F087FB03B02046BDE83040012101F015
:1027100087BA0000A08601000010014007040240B3
:10272000E01100204064024010B58A0721F0030444
:102730000849130F21440F22D1F808489A409443C6
:10274000C1F80848D1F8082898400243C1F8082881
:1027500010BD00000030014070B50B4D2C6844B92D
:1027600001F0ABFC28600DE061600BE0E26822B193
:10277000144622688242F9D1F6E701F09EFCE0603F
:10278000002800D0012070BD6801002010B5FEF7C0
:10279000FDFC0449096801E08860C9680029FBD193
:1027A00010BD0000680100201CB500202E490190DA
:1027B00000900A6842F480320A604FF4A0430A682D
:1027C00002F400320092019A521C0192009A12B94E
:1027D000019A9A42F3D10A68920342D501200090EF
:1027E00021484030026842F0805202601F4802686F
:1027F00042F4404202601C4A0832136813601368B6
:1028000043F400431360136843F4A0531360141F90
:10281000174B23600B6843F080730B600B689B01C0
:10282000FCD5016841F4803101604168C903FCD5E1
:10283000016841F40031016041688903FCD50D490C
:1028400040F205700860106820F003001060106806
:1028500040F0020010601068C0F381000228FAD135
:102860001CBD00901CBD00000038024000700040FC
:102870000C544007003C0240704700001CB500208B
:102880000090024601904FF47A735321054800F0FE
:1028900095F802B00122BDE8104011463620FFF73E
:1028A000A1BC00000010004010B5084C01212046DA
:1028B00000F07AF801221146204600F02DF920465A
:1028C000BDE81040012100F069B800000010004090
:1028D000124810B5016841F47001016010480168A8
:1028E00041F0010101600E4A0021083211600268C6
:1028F0000C4B1A400260031D0B4A1A60026822F456
:102900008022026006480C300160FFF74DFF03494A
:102910004FF000608039086010BD000088ED00E0D5
:1029200000380240FFFFF6FE1030002410B50121F0
:102930008C07204600F0E4F800280BD00121204647
:1029400000F02FF80121204600F028F8BDE81040E3
:1029500000F028B910BD000010B50A4C0121204636
:1029600000F0CEF800280BD00121204600F019F825
:102970000121204600F012F8BDE81040FFF77CBFAF
:1029800010BD0000001000400029018802D041F075
:10299000800101E021F0800101807047C94301827C
:1029A0007047C943018270470029018802D041F075
:1029B000010101E021F00101018070472DE9FF4F85
:1029C000434904464348444D444EDFF81481DFF840
:1029D0001491DFF814A1DFF814B183B04FEAB147C6
:1029E0008C4204D101210846FFF794FD0CE0B4F1BC
:1029F000804F06D0844207D101210220FFF77EFDDF
:102A000009E00121084645E0AC4204D1012104203F
:102A1000FFF774FD06E0B44204D101210820FFF75E
:102A20006DFD06E0BC4204D101211020FFF766FDD8
:102A300006E0444504D101212020FFF75FFD06E0B8
:102A40004C4504D101210220FFF764FD06E0544506
:102A500004D101210804FFF75DFD06E05C4504D1C7
:102A600001214804FFF756FD07E02148844204D1C4
:102A700001218804FFF74EFD07E01E48844204D17F
:102A800001214020FFF73AFD07E01B48844204D1B2
:102A900001218020FFF732FD05E01848844202D171
:102AA00001218015F6E70498ADF800000598ADF80F
:102AB0000200069801901098ADF8080011988DF862
:102AC0000A006946204600F02FF807B0BDE8F08FF5
:102AD000000001400004004000080040000C0040DD
:102AE0000014004000040140004001400044014047
:102AF0000048014000180040001C00400020004039
:102B000002460020138A92890B4202EA010202D097
:102B1000002A00D001207047002A828901D00A4390
:102B200000E08A438281704730B50288164B174C0B
:102B300098420DD0A0420BD0B0F1804F08D0144D78
:102B4000A84205D0134DA84202D0134DA84203D18C
:102B500022F070054A882A43104DA84206D0104D35
:102B6000A84203D022F440750A892A4302804A68A9
:102B7000C2620A880285984201D0A04201D1897AB6
:102B800001860121818230BD000001400004014026
:102B90000004004000080040000C0040001000400D
:102BA00000140040FEF700BB1CB500200090431E3F
:102BB00002464FF08044019053212046FFF7FEFE6D
:102BC00001212046FFF7E0FE02B00022BDE81040E0
:102BD00011461C20FFF706BB10B501218C072046CB
:102BE000FFF7E2FE012211462046FFF795FF20463F
:102BF000BDE810400121FFF7D1BE10B5FFF7D4FFAB
:102C0000BDE81040FFF73ABE10B5FFF7E5FFBDE89D
:102C10001040FFF749BE70473EB54E200821CDE970
:102C20000010154C15490290B7EE000A4FF4E1333D
:102C30002246481C00F0FEF8012240F225512046B1
:102C400001F0E7F8012211464720FFF7CBFA0C49C3
:102C5000A5152A46A1F12800FEF7D7FD09492A4605
:102C6000A1F58A70FEF7D1FD03B02046BDE83040E3
:102C7000012100F0D5BF000000140140050C024006
:102C8000501200205013002070B51B4E40F2244417
:102C90002146304601F09EF800282BD0174D2146E2
:102CA000304600F0B7FF164C00212046FEF7AEFB81
:102CB0002046FEF702FCC0F1240086B22420211D2C
:102CC00008602046FEF7FCFB78B12068243520F42C
:102CD0000020206001212046FEF798FB122E09D12A
:102CE0002846BDE87040FFF7D3BC206840F40020C0
:102CF0002060EFE770BD000000100140E0110020EF
:102D0000406402407CB5234D40F227763146284688
:102D100001F060F80024C0B11F48FEF77AFD38B119
:102D200002B031462846BDE87040002201F071B87B
:102D30008DF80040012269461748FEF778FD9DF89E
:102D40000010284601F0D8F87CBD40F225512846F5
:102D500001F040F80028F7D0284601F0C9F88DF8B6
:102D600000000D481438FEF75AFD38B10A488DF8B6
:102D70000440012201A91438FEF759FD064801223A
:102D800069461438FEF76DFD9DF80000FDF71CFD47
:102D90007CBD000000440040CC0F00207CB5234DDA
:102DA00040F227763146284601F014F80024C0B1DD
:102DB0001F48FEF72EFD38B102B031462846BDE867
:102DC0007040002201F025B88DF8004001226946CC
:102DD0001748FEF72CFD9DF80010284601F08CF8EE
:102DE0007CBD40F22551284600F0F4FF0028F7D0C2
:102DF000284601F07DF88DF800000D481438FEF7E4
:102E00000EFD38B10A488DF80440012201A914389A
:102E1000FEF70DFD0648012269461438FEF721FD34
:102E20009DF80000FFF7F7FE7CBD00000014014094
:102E30003C1200202DE9FF4F0C462DED020B0546FC
:102E40002DED028B83B0B0EE408ADDE91576FE49A8
:102E5000DFF8F893099809F1040A0AF1040B884293
:102E60007ED1A9F10400B0EB152F25D0B9EB152FB9
:102E700022D0BAEB152F1FD0BBEB152F1CD00BF1B6
:102E80000401B1EB152F17D0091DB1EB152F13D08D
:102E9000091DB1EB152F0FD0091DB1EB152F0BD06C
:102EA000091DB1EB152F07D0091DB1EB152F03D06C
:102EB000091DB1EB152F38D1B0EB142F25D0B9EB8C
:102EC000142F22D0BAEB142F1FD0BBEB142F1CD021
:102ED000DE490C31B1EB142F17D0091DB1EB142FC3
:102EE00013D0091DB1EB142F0FD0091DB1EB142F16
:102EF0000BD0091DB1EB142F07D0091DB1EB142F16
:102F000003D0091DB1EB142F0FD107212846FEF77E
:102F1000F4FC07212046FEF7F0FCCDE90076B0EE88
:102F2000480A2021149B0A9A6DE0B0EB152F2DD092
:102F3000B9EB152F2AD0BAEB152F27D0BBEB152FE5
:102F400024D0C24B0C33B3EB152F1FD003F1040E6A
:102F5000BEEB152F1AD00EF10403B3EB152F00E0D2
:102F600055E013D003F1040CBCEB152F0ED00CF17F
:102F70000408B8EB152F09D008F10408B8EB152F99
:102F800004D008F10408B8EB152F0BD1072128460F
:102F9000FEF7B3FCCDE90076B0EE480A7221149B2F
:102FA0000A9A30E0B0EB142F22D0B9EB142F1FD0C7
:102FB000BAEB142F1CD0BBEB142F19D0A3480C3044
:102FC000B0EB142F14D0BEEB142F11D0B3EB142F91
:102FD0000ED0BCEB142F0BD09C481C30B0EB142F40
:102FE00006D0001DB0EB142F02D0B8EB142F76D111
:102FF00007212046FEF781FCCDE90076149B0A9A52
:10300000B0EE480A7421904800F014FED8E0014662
:103010008F4881427DD18D48001FB0EB152F25D000
:10302000B9EB152F22D0BAEB152F1FD0BBEB152F04
:103030001CD086490C31B1EB152F17D0091DB1EB0F
:10304000152F13D0091DB1EB152F0FD0091DB1EBB2
:10305000152F0BD0091DB1EB152F07D0091DB1EBB2
:10306000152F03D0091DB1EB152F39D1B0EB142F5B
:1030700025D0B9EB142F22D0BAEB142F1FD0BBEB05
:10308000142F1CD071490C31B1EB142F17D0091D2E
:10309000B1EB142F13D0091DB1EB142F0FD0091D64
:1030A000B1EB142F0BD0091DB1EB142F07D0091D64
:1030B000B1EB142F03D0091DB1EB142F10D1072150
:1030C0002846FEF71AFC07212046FEF716FCCDE93C
:1030D0000076B0EE480A2021149B0A9A6CE0FDE3CA
:1030E000B0EB152F2DD0B9EB152F2AD0BAEB152F39
:1030F00027D0BBEB152F24D0544A0C32B2EB152F3E
:103100001FD002F1040EBEEB152F1AD00EF10403EE
:1031100000E055E0B3EB152F13D003F1040CBCEB2A
:10312000152F0ED00CF10408B8EB152F09D008F1BB
:103130000408B8EB152F04D008F10408B8EB152FDC
:103140000BD107212846FEF7D8FBCDE90076B0EE7B
:10315000480A7221149B0A9A2EE0B0EB142F20D05B
:10316000B9EB142F1DD0BAEB142F1AD0BBEB142FD0
:1031700017D0B2EB142F14D0BEEB142F11D0B3EB39
:10318000142F0ED0BCEB142F0BD030481C30B0EBFA
:10319000142F06D0001DB0EB142F02D0B8EB142F63
:1031A0000DD107212046FEF7A8FBCDE90076149B40
:1031B0000A9AB0EE480A7421254800F03BFDE1E090
:1031C0002449099888427DD12048001FB0EB152F73
:1031D00025D0B9EB152F22D0BAEB152F1FD0BBEBA2
:1031E000152F1CD019490C31B1EB152F17D0091D23
:1031F000B1EB152F13D0091DB1EB152F0FD0091D01
:10320000B1EB152F0BD0091DB1EB152F07D0091D00
:10321000B1EB152F03D0091DB1EB152F41D1B0EB48
:10322000142F2ED0B9EB142F2BD0BAEB142F28D09B
:10323000BBEB142F25D005490C31B1EB142F20D056
:10324000091DB1EB142F07E00010014004024000FB
:10325000004400400048004013D0091DB1EB142F7A
:103260000FD0091DB1EB142F0BD0091DB1EB142F9A
:1032700007D0091DB1EB142F03D0091DB1EB142F9A
:103280000FD107212846FEF738FB07212046FEF71D
:1032900034FBCDE90076B0EE480A2021149B0A9A4F
:1032A0006CE0B0EB152F2CD0B9EB152F29D0BAEB71
:1032B000152F26D0BBEB152F23D0DFF878E4BEEB1B
:1032C000152F00E05EE01CD00EF10403B3EB152FC8
:1032D00017D01B1DB3EB152F13D003F1040CBCEB5F
:1032E000152F0ED00CF10408B8EB152F09D008F1FA
:1032F0000408B8EB152F04D008F10408B8EB152F1B
:103300000BD107212846FEF7F8FACDE90076B0EE9A
:10331000480A7221149B0A9A30E0B0EB142F22D095
:10332000B9EB142F1FD0BAEB142F1CD0BBEB142F0A
:1033300019D0BEEB142F16D0FE48001DB0EB142F91
:1033400011D0B3EB142F0ED0BCEB142F0BD0F948D7
:103350001030B0EB142F06D0001DB0EB142F02D0AC
:10336000B8EB142F0DD107212046FEF7C6FACDE9A0
:103370000076149B0A9AB0EE480A7421EE4800F0D9
:1033800059FCD6E0ED48099981427CD1E9481038D2
:10339000B0EB152F24D0B9EB152F21D0BAEB152F98
:1033A0001ED0BBEB152F1BD0E249B1EB152F17D068
:1033B000091DB1EB152F13D0091DB1EB152F0FD03F
:1033C000091DB1EB152F0BD0091DB1EB152F07D03F
:1033D000091DB1EB152F03D0091DB1EB152F37D106
:1033E000B0EB142F24D0B9EB142F21D0BAEB142F4B
:1033F0001ED0BBEB142F1BD0CE49B1EB142F17D02E
:10340000091DB1EB142F13D0091DB1EB142F0FD0F0
:10341000091DB1EB142F0BD0091DB1EB142F07D0F0
:10342000091DB1EB142F03D0091DB1EB142F0FD1DF
:1034300008212846FEF761FA08212046FEF75DFACA
:10344000CDE90076B0EE480A2021149B0A9A6CE080
:10345000B0EB152F2CD0B9EB152F29D0BAEB152FC7
:1034600026D0BBEB152F23D0DFF8C8E2BEEB152F1B
:103470001ED00EF10403B3EB152F19D01B1DB3EBB7
:10348000152F15D000E054E003F1040CBCEB152F10
:103490000ED00CF10408B8EB152F09D008F1040880
:1034A000B8EB152F04D008F10408B8EB152F0BD199
:1034B00008212846FEF721FACDE90076B0EE480A49
:1034C0007221149B0A9A30E0B0EB142F22D0B9EB92
:1034D000142F1FD0BAEB142F1CD0BBEB142F19D014
:1034E000BEEB142F16D09348001DB0EB142F11D053
:1034F000B3EB142F0ED0BCEB142F0BD08D48103033
:10350000B0EB142F06D0001DB0EB142F02D0B8EB97
:10351000142F0DD108212046FEF7EFF9CDE90076F2
:10352000149B0A9AB0EE480A7421844800F082FB8A
:10353000D6E08348099981427ED17E481038B0EBAD
:10354000152F24D0B9EB152F21D0BAEB152F1ED093
:10355000BBEB152F1BD07749B1EB152F17D0091DE9
:10356000B1EB152F13D0091DB1EB152F0FD0091D8D
:10357000B1EB152F0BD0091DB1EB152F07D0091D8D
:10358000B1EB152F03D0091DB1EB152F37D1B0EBDF
:10359000142F24D0B9EB142F21D0BAEB142F1ED046
:1035A000BBEB142F1BD06349B1EB142F17D0091DAF
:1035B000B1EB142F13D0091DB1EB142F0FD0091D3F
:1035C000B1EB142F0BD0091DB1EB142F07D0091D3F
:1035D000B1EB142F03D0091DB1EB142F0FD108212B
:1035E0002846FEF78AF908212046FEF786F9CDE93C
:1035F0000076B0EE480A2021149B0A9A6CE0B0EBEA
:10360000152F2CD0B9EB152F29D0BAEB152F26D0BA
:10361000BBEB152F23D0DFF81CE1BEEB152F1ED01E
:103620000EF10403B3EB152F19D01B1DB3EB152FAF
:1036300015D003F1040C00E052E0BCEB152F0ED0C6
:103640000CF10408B8EB152F09D008F10408B8EB09
:10365000152F04D008F10408B8EB152F0BD1082161
:103660002846FEF74AF9CDE90076B0EE480A722105
:10367000149B0A9A30E0B0EB142F22D0B9EB142F30
:103680001FD0BAEB142F1CD0BBEB142F19D0BEEBFC
:10369000142F16D02748001DB0EB142F11D0B3EB18
:1036A000142F0ED0BCEB142F0BD022481030B0EBEF
:1036B000142F06D0001DB0EB142F02D0B8EB142F3E
:1036C0000DD108212046FEF718F9CDE90076149BAC
:1036D0000A9AB0EE480A7421194800F0ABFAE1E00A
:1036E0001849099888427DD112481038B0EB152F3F
:1036F0002FD0B9EB152F2CD0BAEB152F29D0BBEB5F
:10370000152F26D00B49B1EB152F22D0091DB1EB97
:10371000152F1ED0091DB1EB152F1AD0091DB1EBC5
:10372000152F16D0091DB1EB152F12D0091DB1EBC5
:10373000152F09E01002400000480040004C0040F6
:10374000005000400014014003D0091DB1EB152FBB
:1037500037D1B0EB142F24D0B9EB142F21D0BAEB12
:10376000142F1ED0BBEB142F1BD0FE49B1EB142F2E
:1037700017D0091DB1EB142F13D0091DB1EB142F75
:103780000FD0091DB1EB142F0BD0091DB1EB142F75
:1037900007D0091DB1EB142F03D0091DB1EB142F75
:1037A0000FD108212846FEF7A8F808212046FEF789
:1037B000A4F8CDE90076B0EE480A2021149B0A9ABD
:1037C0006CE0B0EB152F2CD0B9EB152F29D0BAEB4C
:1037D000152F26D0BBEB152F23D0DFF888E3BEEBE7
:1037E000152F00E05EE01CD00EF10403B3EB152FA3
:1037F00017D01B1DB3EB152F13D003F1040CBCEB3A
:10380000152F0ED00CF10408B8EB152F09D008F1D4
:103810000408B8EB152F04D008F10408B8EB152FF5
:103820000BD108212846FEF768F8CDE90076B0EE06
:10383000480A7221149B0A9A30E0B0EB142F22D070
:10384000B9EB142F1FD0BAEB142F1CD0BBEB142FE5
:1038500019D0BEEB142F16D0C248001DB0EB142FA8
:1038600011D0B3EB142F0ED0BCEB142F0BD0BD48EE
:103870001030B0EB142F06D0001DB0EB142F02D087
:10388000B8EB142F0DD108212046FEF736F8CDE90C
:103890000076149B0A9AB0EE480A7421B24800F0F0
:1038A000C9F9D3E0B148099981427DD1AD481038BA
:1038B000B0EB152F26D0B9EB152F23D0BAEB152F6F
:1038C00020D0BBEB152F1DD0A649B1EB152F19D079
:1038D000091DB1EB152F15D0091D00E01CE1B1EB5E
:1038E000152F0FD0091DB1EB152F0BD0091DB1EB12
:1038F000152F07D0091DB1EB152F03D0091DB1EB12
:10390000152F37D1B0EB142F24D0B9EB142F21D0C1
:10391000BAEB142F1ED0BBEB142F1BD09149B1EB87
:10392000142F17D0091DB1EB142F13D0091DB1EBC3
:10393000142F0FD0091DB1EB142F0BD0091DB1EBC3
:10394000142F07D0091DB1EB142F03D0091DB1EBC3
:10395000142F0FD108212846FDF7CFFF082120465C
:10396000FDF7CBFFCDE90076B0EE480A2021149B8D
:103970000A9A69E08646B0EB152F2BD0B9EB152FCC
:1039800028D0BAEB152F25D05846BBEB152F21D0E8
:103990007449B1EB152F1DD00A1DB2EB152F19D0AC
:1039A000131DB3EB152F00E050E013D003F1040C0E
:1039B000BCEB152F0ED00CF10408B8EB152F09D075
:1039C00008F1040BBBEB152F04D00BF10408B8EB86
:1039D000152F0BD108212846FDF78FFFCDE9007682
:1039E000B0EE480A7221149B0A9A2DE0BEEB142F08
:1039F0001FD0B9EB142F1CD0BAEB142F19D0B0EB99
:103A0000142F16D0B1EB142F13D0B2EB142F10D00B
:103A1000B3EB142F0DD0BCEB142F0AD0514810304B
:103A2000B0EB142F05D0BBEB142F02D0B8EB142F42
:103A300072D108212046FDF760FFCDE90076149B86
:103A40000A9AB0EE480A74214848A9E04848099902
:103A5000814261D143481038B0EB152F24D0B9EB27
:103A6000152F21D0BAEB152F1ED0BBEB152F1BD075
:103A70003C49B1EB152F17D0091DB1EB152F13D011
:103A8000091DB1EB152F0FD0091DB1EB152F0BD070
:103A9000091DB1EB152F07D0091DB1EB152F03D070
:103AA000091DB1EB152F38D1B0EB142F24D0B9EB91
:103AB000142F21D0BAEB142F1ED0BBEB142F1BD028
:103AC0002849B1EB142F17D0091DB1EB142F13D0D7
:103AD000091DB1EB142F0FD0091DB1EB142F0BD022
:103AE000091DB1EB142F07D0091DB1EB142F03D022
:103AF000091DB1EB142F10D108212846FDF7FDFE5A
:103B000008212046FDF7F9FECDE90076B0EE480A1F
:103B10002021149B0A9A42E044E08646B0EB152F20
:103B200032D0B9EB152F2FD0BAEB152F2CD0584629
:103B3000BBEB152F28D00B49B1EB152F24D00A1D54
:103B4000B2EB152F20D0131DB3EB152F1CD003F1B2
:103B5000040CBCEB152F17D00CF1040BBBEB152F8D
:103B600012D007E01002400000140140007800402D
:103B7000007C00400BF10408B8EB152F04D008F1CD
:103B80000408B8EB152F13D108212846FDF7B5FE20
:103B9000CDE90076149B0A9AB0EE480A72211B48C0
:103BA00000F048F803B0BDEC028B06B0BDE8F08F22
:103BB000BEEB142F1ED0B9EB142F1BD0BAEB142F71
:103BC00018D0B0EB142F15D0B1EB142F12D0B2EBEC
:103BD000142F0FD0B3EB142F0CD0BCEB142F09D043
:103BE000BBEB142F06D00A48B0EB142F02D0B8EB71
:103BF000142FD7D108212046FDF77FFECDE90076AE
:103C0000B0EE480A7421149B0A9AC8E7007C004071
:103C1000240240000A0A01219140C94301807047F3
:103C20000029818902D041F4005101E021F40051C2
:103C3000818170472DE9FF4F0E462DED020B0446A2
:103C4000584A59485949DFF86881DFF86891DFF828
:103C500068A1DFF868B194422DED028B85B0B0EE1B
:103C6000408ADDE9167504D101211020FEF752FCCF
:103C70002EE0844204D101214804FEF73FFC06E017
:103C80008C4204D101218804FEF738FC06E044454B
:103C900004D10121C804FEF731FC06E04C4504D1F3
:103CA00001210805FEF72AFC06E0544504D1012154
:103CB0002020FEF72FFC04E05C4502D1012188079B
:103CC00004E03F48844203D101214005FEF716FC81
:103CD000722E3BD0522E39D0742E39D0542E37D07C
:103CE0005FF00C00ADF80A000B9800900C9A0020D1
:103CF0004FF48051092A2DD0ADF804006F2F2CD03D
:103D00004F2F2AD0652F2BD0452F29D0ADF8080092
:103D100018EE102AB2F17C5F2CD018EE101AB1F117
:103D20007F5F22D018EE101AB1F1804F20D0ADF88D
:103D30000600722D21D0522D1FD0632D20D0432D8F
:103D40001ED0612D1FD0412D1DD01EE00420C9E7DB
:103D50000820C7E7ADF80410D0E74FF4C06201E0D7
:103D60004FF48062ADF80820D2E74FF4405101E0F3
:103D70004FF40051ADF80610DBE74FF4807004E01B
:103D80004FF4007001E04FF44070ADF80C0069464C
:103D9000204600F057F805B0BDEC028B06B0BDE838
:103DA000F08F000000100140004400400048004037
:103DB000004C0040005000400014014000780040DA
:103DC000007C0040002A828A01D00A4300E08A4336
:103DD0008282704730B501F01F0201240025C1F333
:103DE000421304FA02F2012B0FD0022B0FD0838A68
:103DF0004FEA11210088134204FA01F400EA04009A
:103E000001D000B10125284630BD8389F0E7038A3F
:103E1000EEE710B5C1F3421301F01F040121A140E8
:103E2000012B07D0022B07D01430002A026805D0DE
:103E30000A4304E00C30F8E71030F6E78A430260EA
:103E400010BD00007FB50446008A0D4620F44051A5
:103E5000E88808432082A08941F20C618843A98840
:103E60002A8911436A8902431143A181A08A20F45F
:103E70004071A8890843A0826846FEF757FB1A489C
:103E8000844202D01948844201D1039800E002988C
:103E9000A189090400EBC00101EB0010296801D5DC
:103EA000490000E08900B0FBF1F26420B2FBF0F1C0
:103EB00009010B096FF018056B4302EB8302A3891C
:103EC0001D044FF0320306D503EBC202B2FBF0F043
:103ED00000F0070005E003EB0212B2FBF0F000F087
:103EE0000F00084320817FBD0010014000140140F5
:103EF0008088C0F308007047C1F3080181807047D3
:103F00000148007870470000980100200248002115
:103F100001704170704700009801002070B5144C8A
:103F2000012540F2FD302178617041B10026012960
:103F30000AD0022907D100F03BF840B911E000F0A7
:103F400037F811E0257070BD00F032F808B1267026
:103F500070BD0F20FDF7A2FF0028F9D002202070CD
:103F600070BD0F20FDF79AFF0028EBD070BD000058
:103F700098010020024A002142F8201070470000FA
:103F800070010020084A0949002000BF52F8203083
:103F900041F82030401C0A28F8D304494FF0FF3084
:103FA000091F086070470000E04000087001002011
:103FB00003490968884301D00020704701207047F9
:103FC0006C010020F0B50E4D00200E4E2B1DD5F8D3
:103FD0000010012253F8204056F82070BC4203D351
:103FE00002FA00F4214305E002FA00F7B943641C29
:103FF00043F82040401C0A28ECD32960F0BD0000A3
:104000006C010020E040000808B50168C07809BADA
:1040100021F0FF01014300EE101ADFED130A1148F1
:10402000B8EEC00A016020EE200A8DED000A017989
:1040300019B180ED020A0021017190ED030ADDED56
:10404000000A30EEC00ADFED090A20EE200A80EDFA
:10405000040A90ED020ADDED000A30EEC00A80EDA0
:10406000030A08BDAC010020D30237B900007A442E
:10407000FDF74CFFFCF778FB32244FF48045074EE8
:10408000FDF784F8B0FBF4F104FB11000028F7D130
:1040900029463046FDF74DFDF2E7000000140240CE
:1040A00030EE600A32EE612A31EE601A20EE020A2A
:1040B000C0EE010A30EEA10A704770B505460C4605
:1040C0001020FCF707F9002804D000218160C160AE
:1040D000C0E9005470BD4FF04070E1EE100A704727
:1040E0006400000064000000640000006400000040
:1040F0006400000064000000640000006400000030
:104100006400000064000000284100080000002056
:10411000AC010000E80100087C410008AC0100206F
:104120000427000044020008052B07010701E640B0
:104130000AD7A33C23803FD35C4324B09A453BFA83
:104140004404390C091E20094C502D0AD7233E0483
:104150001809BC74133C295C8F3D540A1E4034324C
:1041600004035E88131AFF013264092204612D01E1
:0C417000020304042506070809000000F3
:04000005080001AD41
:00000001FF
