:020000040800F2
:10000000A8180020C1010008C9010008CB010008A0
:10001000CD010008CF010008D10100080000000058
:10002000000000000000000000000000D3010008F4
:10003000D501000800000000D7010008D901000820
:10004000DB010008DB010008DB010008DB01000820
:10005000DB010008DB010008DB010008DB01000810
:10006000DB010008DB010008DB010008DB01000800
:10007000DB010008DB010008DB010008DB010008F0
:10008000DB010008DB010008DB0100089109000822
:100090004D090008DB010008DB010008DB01000856
:1000A000DB010008DB010008DB010008DB010008C0
:1000B000793E0008DB010008DB010008DB010008D5
:1000C000DB010008DB010008DB010008DB010008A0
:1000D000DB01000879440008F54400088D4500085C
:1000E000DB010008DB010008DB010008DB01000880
:1000F000DB010008DB010008DB010008DB01000870
:10010000DB010008DB010008DB010008DB0100085F
:10011000DB010008DB010008A53E0008DB01000848
:10012000DB010008DB010008DB010008DB0100083F
:10013000DB010008DB010008DB010008ED09000815
:10014000B5090008DB010008DB010008DB0100083D
:10015000DB010008DB010008DB0100082546000880
:10016000DB010008DB010008DB010008DB010008FF
:10017000DB010008DB010008DB01000800000000D3
:10018000DB010008DB010008DB010008DB010008DF
:10019000DB010008DB010008DB010008DB010008CF
:1001A0000000000000000000DB010008DFF80CD0B8
:1001B00000F086FA0048004799620008A81800205D
:1001C0000648804706480047FEE7FEE7FEE7FEE7F1
:1001D000FEE7FEE7FEE7FEE7FEE7FEE71D3E00085E
:1001E000AD010008D2B201E000F8012B491EFBD29C
:1001F00070470022F6E710B513460A460446194632
:10020000FFF7F0FF204610BD2DE9FE4F81EA030401
:1002100004F0004421F0004100944FF0000B23F063
:10022000004350EA01045ED052EA03045BD0C3F3FA
:100230000A54C1F30A552C44A4F2F3340194A0FBF0
:100240000254C1F3130141F48011C3F3130343F4C7
:10025000801301FB024400FB034E840A970A44EA20
:10026000815447EA8357A4FB076802958D0A05FB72
:1002700007854FEA932C04FB0C542705029D4FEA97
:10028000065847EA1637B5EB08056EEB070C870EE4
:10029000920E47EA811742EA8312A7FB0201B6EBEE
:1002A0000B0164EB00042B0D43EA0C335E1844EBA6
:1002B0001C50DA465146E7FB0201C5F313044FEA2E
:1002C0000B3343EA14534FEA0432019C43EA06031A
:1002D000A4F10C040294009CCDE900B400F0CBF82A
:1002E00003B0BDE8F08F00200146F9E72DE9F04D9D
:1002F00081EA030404F0004B21F0004514464FF05E
:10030000000A23F0004150EA050220D054EA01021D
:100310001DD0C5F30A570246C5F31303C1F31300FA
:10032000C1F30A5640F4801543F48013A7EB060886
:10033000101BD64608F2FD3873EB050002D308F116
:10034000010801E092185B41B8F1000F03DA0020C8
:100350000146BDE8F08D00204FF48011064684462A
:100360000EE0171B73EB050705D3121B63EB0503A8
:1003700006434CEA010C49084FEA300092185B41F1
:1003800050EA0107EDD152EA030012D082EA0400DC
:1003900083EA0501084305D0101BAB4106D20122B8
:1003A000002306E000224FF0004302E06FF001025C
:1003B00053101AEB06004CEB085110EB0A0041EB0E
:1003C0000B01BDE8F04D00F047B830B50B460146D3
:1003D00000202022012409E021FA02F59D4205D3E4
:1003E00003FA02F5491B04FA02F52844151EA2F18E
:1003F0000102F1DC30BD2DE9F05F05460020924698
:100400009B4688460646814640241BE028464146D6
:100410004746224600F075F953465A46C01A9141A4
:1004200010D311461846224600F05CF92D1A67EBEE
:1004300001084F4622460120002100F053F917EB36
:1004400000094E41201EA4F10104DFDC484631467C
:100450002A464346BDE8F09F10B5141E73F1000410
:1004600008DA401C41F1000192185B411A4301D1A6
:1004700020F0010010BD2DE9F04D92469B4611B1D0
:10048000B1FA81F202E0B0FA80F22032904600F038
:1004900029F904460F4640EA0A0041EA0B01534697
:1004A0005A46084313D0114653EA010019D0C8F147
:1004B0004002504600F025F905460E465046594682
:1004C000424600F00FF9084305D0012004E0204621
:1004D0003946BDE8F08D0020054346EAE0762C431E
:1004E00037430A986305E40AA0EB08000022FD0ADE
:1004F00044EA47540A3002D500200146E9E70105E5
:1005000010196941DDE9084500196941BDE8F04D60
:10051000A2E72DE9FE4F804681EA0300C00F0C469A
:10052000009021F0004123F00045B8EB0200A94102
:1005300005D24046214690461C460B46024623F013
:100540000040104347D0270DC7F30A00C3F30A51F8
:100550000290401A019040286BDAC3F3130040F474
:10056000801B0098924620B10023D2EB030A63EB74
:100570000B0B01985946C0F14002504600F0B2F80A
:1005800006460D4650465946019A00F0CAF810EB4F
:1005900008006141002487EA115284EAE7731A4394
:1005A00040D0009A62B3019A012A4FEA075215DC43
:1005B000001B61EB02014FF0004202EA0752CDE955
:1005C0000042001C41F5801132462B46FFF753FFD5
:1005D00003B0BDE8F08F40462146F9E7001B61EB10
:1005E0000201001C41F5801300185B412018A2F5A0
:1005F000001747EB030140EAD570B6196D4111E0D1
:100600006D084FEA360645EAC0754FEA0752001BEF
:1006100061EB0201001C41F5801149084FEA3000EE
:100620000019514132462B4603B0BDE8F04FFFF7A9
:1006300013BF0098012240000023D0EB020263EBBD
:10064000E073009821464FEAE074B8EB000061EBDC
:100650000401E9E783F000435BE781F0004158E7DC
:10066000C1F30A52C1F3130140F2FF3341F4801188
:100670009A4202DA00200146704740F233439A4220
:10068000A2F2334202DC524200F03BB800F02AB83A
:1006900030B5041E71F1000404DB4FF00044404209
:1006A00064EB0101141E73F1000405DB1C464FF0DE
:1006B0000043524263EB0403994208BF904230BDAD
:1006C000064C074D06E0E06840F0010394E807009F
:1006D00098471034AC42F6D3FFF76CFD4C6300082A
:1006E0006C630008202A04DB203A00FA02F10020A3
:1006F00070479140C2F1200320FA03F31943904060
:100700007047202A04DB203A21FA02F000217047CA
:1007100021FA02F3D040C2F1200291400843194669
:100720007047202A06DBCB17203A41FA02F043EA51
:10073000E07306E041FA02F3D040C2F1200291409A
:1007400008431946704770B58C1810F8015B15F016
:10075000070301D110F8013B2A1106D110F8012B33
:1007600003E010F8016B01F8016B5B1EF9D12B0758
:1007700005D40023521E0DD401F8013BFAE710F80E
:10078000013BCB1A921C03E013F8015B01F8015BFB
:10079000521EF9D5A142D8D3002070BD38B5002033
:1007A000074C0346024601460090204600F0A6FB97
:1007B0002046BDE838400022114601F032B8000062
:1007C0000064004008B501211E4801F027F802002E
:1007D0001D484FF4804102D001F061F901E001F0C1
:1007E00060F90221174801F019F8010017484FF08D
:1007F000800102D001F053F901E001F052F91448F0
:1008000090ED030ABDEEC00A10EE101A09B2009175
:1008100090ED020ABDEEC00A10EE101A90ED010A2A
:100820000BB2BDEEC00A10EE101A90ED000A0AB22B
:10083000BDEEC00A10EE100A01B2064800F05EFBE1
:1008400008BD000014010020001402400010024006
:10085000A00E00200064004010B54FF4A06001F02D
:10086000FFFC00F01DF800F06BF800F073FB00F0E7
:10087000ABFB00F07FFE01F013FB03F0DFF803F0A9
:10088000C5F903F09FFD03F0A7FDBDE810404FF44C
:100890008041014801F003B90014024000F038B86B
:1008A0003EB54E200821CDE90010154C15490290A7
:1008B000B7EE000A4FF416532246481C03F0FEFE22
:1008C000012240F22551204604F0EEFE022211469C
:1008D000262001F085FC0C49A5152A46A1F1280027
:1008E00000F03BFF09492A46A1F58A7000F035FF68
:1008F00003B02046BDE83040012104F0D5BD000022
:1009000000440040050C0240F40F0020F4100020C9
:10091000022004F069BF000008B500208DF8000037
:10092000064800F01EFF0028FAD10122694603485C
:1009300000F025FF9DF8000008BD0000CC0F00204E
:10094000014801F033B800000A0C024010B50E4C0B
:1009500086B00221204600F067F9002811D004215A
:10096000204600F06DF80949204600F051F86A462B
:100970000021204600F028FA0DF10B01009800F04C
:10098000E7FA06B010BD0000006400400800003225
:1009900010B5074C0121204600F046F9002805D08B
:1009A0002046BDE81040012100F04AB810BD00000B
:1009B0000064004010B50C4C86B00221204600F0C7
:1009C00033F900280DD00221204600F039F86A469C
:1009D0000021204600F0F8F90DF10B01009800F01D
:1009E000F1FA06B010BD00000068004010B5074CD9
:1009F0000121204600F018F9002805D02046BDE866
:100A00001040012100F01CB810BD0000006800403B
:100A10000A4A914202D1002181617047C1F3130259
:100A20008B0101D5C26070474B0101D5026170474F
:100A3000090101D582607047426070477000F03054
:100A400030B5082310240422B1F5007F1DD010DC3E
:100A5000202929D007DC012921D0042922D0082906
:100A600000D1C46030BD402920D0B1F5807FF9D1DC
:100A70000BE00025B1F5004F06D008DCB1F5806F22
:100A800003D0B1F5006FEDD18561426030BDB1F5A5
:100A9000803F0DD0B1F5003FF8D1446030BD05492D
:100AA000816030BDC36030BD036130BD046130BDC5
:100AB000436030BD010101002DE9FE430F460446AD
:100AC000DDE90A89154916481D4616468C4202D1B1
:100AD0000121480603E0844203D10121880602F087
:100AE000DFFF00218DF804808DF808108DF8059047
:100AF0008DF80A10ADF800708DF8061001208DF801
:100B000002608DF807108DF80B008DF803506946D0
:100B1000204600F0E5F8BDE8FE83000000640040D8
:100B200000680040F0B5827A012191402E4A136896
:100B300043F0010313602C4B1C331C688C431C6076
:100B4000294D067B294C0C35A6B92E688E432E60A4
:100B50004688C78846EA0746877A04EBC707C7F87E
:100B600040660688878846EA0746877A04EBC70707
:100B7000C7F84466067B012E12D12E680E432E6004
:100B8000867A056804EBC6064FEA3545C6F8405636
:100B9000867A456804EBC6044FEA3545C4F84456E6
:100BA000114CC57A241D002D256806D00D43256003
:100BB0000D4C0589143415B104E08D43F7E7256821
:100BC0008D4325600589012D02D125680D432560DF
:100BD000407B012802D1186808431860106820F093
:100BE00001001060F0BD00000066004000600040A1
:100BF0007FB5DDE90845ADF80000ADF808408DF897
:100C00000A5000208DF80B0001208DF80C00ADF883
:100C100004208DF80D00ADF80210ADF806306846DE
:100C2000FFF780FF7FBD00000246002053690B42A2
:100C30004AD0B1F5807F3BD013DC08292ED007DCE9
:100C4000012926D0022927D004293DD1D0682BE0E4
:100C5000102925D0202926D0402935D1106910210E
:100C600030E0B1F5004F2BD00BDCB1F5007F22D086
:100C7000B1F5806F22D0B1F5006F25D19069702158
:100C800020E0B1F5803F11D0B1F5003F1CD1506894
:100C9000E5E790680D4915E0D06802E0D068DEE72E
:100CA000106903210EE0106908210BE05068FBE792
:100CB0009069012106E09069022103E0906900E05B
:100CC0005068042100F0AABA704700000101010039
:100CD000002A426901D00A4300E08A43426170471A
:100CE00010B50368002223F002030360036843F099
:100CF000010303604FF6FF7300E0521C4468E407F1
:100D000001D19A42F9D14268D2073ED08A79012AAC
:100D100002683CD022F080020260CA79012A02688F
:100D200038D022F0400202600A7A012A026834D0E8
:100D300022F0200202604A7A012A026830D022F0B2
:100D4000100202608A7A012A02682CD022F008027E
:100D50000260CA7A012A026828D022F004020260E6
:100D60008A78CC78920742EA04620C7942EA04421B
:100D70004C79098842EA0452491E0A43C26101685B
:100D800021F001010160002114E0002010BD42F0BB
:100D90008002C1E742F04002C5E742F02002C9E705
:100DA00042F01002CDE742F00802D1E742F004021F
:100DB000D5E7491C4268D20701D09942F9D1406871
:100DC000C007E2D1012010BD10B500EB0113D3F82C
:100DD000B04114F004041472D3F8B04134D0E408E4
:100DE000C2F80440D3F8B04104F002045472D3F8BE
:100DF000B44104F00F049472D3F8B441240AD474BB
:100E0000D3F8B841D472D3F8B841240A1473D3F894
:100E1000B841240C5473D3F8B841240E9473D3F81A
:100E2000BC41D473D3F8BC41240A1474D3F8BC4138
:100E3000240C5474D3F8BC311B0E937439B101697E
:100E400041F02001016110BD640D1460CAE7C16862
:100E500041F02001C16010BD30B50246002093680A
:100E60005B0108D49068000101D5012003E090687F
:100E7000C00037D5022002EB0012D2F8803103F017
:100E80000103C2F880310B7A73B3D2F880414D6808
:100E90001C434B7A43EAC5031C43C2F880418B7A5A
:100EA00003F00F038B72D2F8843123F00F03C2F8E2
:100EB0008431D2F884318C7A2343C2F88431CB7ADE
:100EC000CC6843EA0423C2F88831CB7B096943EA42
:100ED0000121C2F88C11D2F8801141F00101C2F851
:100EE000801130BD042030BDD2F880314C7A2343CC
:100EF0000C8843EA4453C2F88031D0E730B585B05E
:100F00004FF40075009500258DF808508DF80950B4
:100F100008258DF80A50089C0D0A8DF80C10110A4E
:100F20008DF80D108DF80E20190A8DF80F108DF820
:100F30001030210A8DF811108DF80B508DF81240E9
:100F40006946FFF789FF05B030BD80EC030A7047A2
:100F500000F0B8B81CB50921184800F086FC174805
:100F60000921401C00F081FC01221146142001F0EF
:100F700037F901220021132001F032F90321082062
:100F80000F4C0023CDE900011A462046FFF794FDDF
:100F9000002100910B460A4608460191FFF728FE02
:100FA000012202212046FFF793FE02B020460122D3
:100FB000BDE810401146FFF78BBE0000000C024058
:100FC0000064004000F07EB81CB50921184800F00C
:100FD0004CFC17480921401C00F047FC012202216B
:100FE000402001F0FDF8012211463F2001F0F8F801
:100FF000032108200F4C0023CDE900011A462046AA
:10100000FFF75AFD00200E21CDE9000103460246FC
:101010000146FFF7EDFD012202212046FFF758FEB1
:1010200002B020460122BDE810401146FFF750BE35
:101030000C040240006800402DE9F047DFF878908A
:1010400000242DED028B09F51667DFED1C8A9FED5C
:101050001C8A07F1C00807F5A87A00BF04EBC4009A
:1010600000EB041107EB441609EB01116422304632
:1010700000F019FDF0EE680A04EB440108EBC1052D
:10108000F0EE601AB0EE601AB0EE480A284600F0A2
:10109000BFFA04EB84032A4631460AEB830000F0D2
:1010A000F6FA641CE4B2062CD8D3BDEC028BBDE882
:1010B000F04700F04EB80000BC0200200000000025
:1010C000CDCCCC3D10B50C46B0F5017F2BD00DDC5E
:1010D000A0F5007001381AD001281ED0022837D19F
:1010E000082004F081FB214602202DE0A0F50070CD
:1010F00005381ED0012822D0B0F5FE7F28D105206A
:1011000004F072FB2046BDE8104004F08BBB0620C3
:1011100004F06AFB2146002016E0072004F064FB7F
:101120002146012010E0092004F05EFB2146032047
:101130000AE00A2004F058FB2146042004E00B20BA
:1011400004F052FB21460520BDE8104000F0B2BF7C
:1011500010BD10B50024204601F02AF8641CE4B24A
:10116000062CF8D3BDE8104004F090BB70B5274CB6
:10117000274D28482DED028BD4ED000A95ED000A8D
:1011800001F034F9B0EE408A234802F09DFD214E73
:1011900028EE000AA036A6F1780086ED000AD4ED0C
:1011A000010A95ED010A01F021F91B48B0EE408AD1
:1011B000083002F089FD28EE000AA6F1500086ED05
:1011C000010AD4ED020A95ED020A01F00FF9124866
:1011D000B0EE408A103002F077FD28EE000AA6F14A
:1011E000280086ED020AD4ED030A95ED030A01F00A
:1011F000FDF80948B0EE408A183002F065FD28EE8F
:10120000000A86ED030ABDEC028B70BD940F00202E
:10121000F00D0020000E00201801002002460020E2
:101220000A4200D00120704710B52DED028B00F06E
:10123000F7F803210E4800F0D9FA9FED0E8A0E4808
:10124000B0EE481AF0EE480AB0EE480AFFF77DFE0D
:10125000F0EE481AB0EE481AF0EE480AB0EE480A2E
:10126000BDEC028B0448BDE810400C3000F066BEB7
:101270001001002000000000E40D002010B500F077
:10128000DBF823482349D0ED000A91ED390AF4EE4A
:10129000C00AF1EE10FA02DDF0EE400A08E0B1EE0D
:1012A000401AF4EEC10AF1EE10FA01D2F0EE410A52
:1012B000C0ED000A90ED011AB4EEC01AF1EE10FA7A
:1012C00002DDF0EE400A08E0F1EE400AB4EEE01A6A
:1012D000F1EE10FA01D3F0EE410AC0ED010AD0EDB3
:1012E000020AF4EEC00AF1EE10FA08DCB1EE400A90
:1012F000F4EEC00AF1EE10FA01D3B0EE600A80ED10
:10130000020A0349BDE810400C31014800F020BE3C
:10131000E40D00200000002010B5FFF785FF00F06D
:10132000A9FF274801F0D6F82548283001F0D2F867
:101330002348503001F0CEF82148783001F0CAF847
:10134000204802F0D7FC1F48083002F0D3FC1D48AB
:10135000103002F0CFFC1B48183002F0CBFC1848CC
:1013600001F0C0F81648283001F0BCF8144850309D
:1013700001F0B8F81248783001F0B4F8114802F0E2
:10138000C1FC1048083002F0BDFC0E48103002F0DD
:10139000B9FC0C48183002F0B5FC0A480321001FC4
:1013A00000F024FA9FED080A0548BDE81040F0EE71
:1013B000401AB0EE401AF0EE400AA03000F0BEBD78
:1013C000000E0020180100200000000010B5FFF7FB
:1013D00055FF00F09BFF054803220168044800F018
:1013E00009FABDE81040FFF7C1BE0000100100205F
:1013F0001401002070B50D46044602F0C9FBA91D7A
:1014000004F10A00BDE8704000F0E3BC10B50446EA
:1014100002F0E6FB04F10A00BDE8104000F0E8BC71
:1014200010B502F09FFB00F09FFCBDE810400148A2
:10143000FFF7ECBFB00E002006484078012804D02A
:10144000032806D1044800F0BBBC03480A3802F068
:101450009DBB704754010020BA0E0020002901688E
:1014600002D041F0010101E021F00101016070476B
:101470002DE9F0438FB00446DDE9168915481D4675
:1014800016460F46A04303D10121480502F0FCFA9D
:101490001148A04303D10121880502F0F5FA00218B
:1014A0004FF48060CDE905108010CDE908100002EE
:1014B0000791CDE90A010C910D910E9102AA69469E
:1014C00082E82003CDE90076204600F027F80FB02F
:1014D000BDE8F0830060024000640240002901681A
:1014E00002D041F4802101E021F4802101607047A5
:1014F000002A026802D042F4002201E022F4002215
:10150000026001617047406880B270470146002068
:101510000968090300D501207047000030B5036851
:10152000124ACC6813400A682243D1E905452C438E
:101530002243CC6922430C6A22434C6A22438C6AC0
:1015400022434C6B22438C6B22431A430260426954
:1015500022F00703D1E90B2422431A4342610A69AE
:1015600042604A6882608968C16030BD3F801CF07B
:1015700000F036B83EB54E200821CDE90010154CDC
:1015800015490290B7EE000A4FF4E1332246481C99
:1015900003F094F8012240F22551204604F084F82B
:1015A00002221146272000F01BFE0C490C22A1F15B
:1015B000280000F0D2F809490C220C31A1F12000DA
:1015C00000F0CBF803B02046BDE83040012103F025
:1015D0006BBF000000480040080C02401C120020B5
:1015E000032004F001B9000008B500208DF80000C8
:1015F000064800F0B6F80028FAD1012269460348EF
:1016000000F0BDF89DF8000008BD0000F4110020B6
:1016100080EC040A7047D0ED020A90ED031AD0ED79
:10162000001A30EE811AD0ED050A70EEA10AD0ED55
:10163000011A30EE410A30EEA12AC0EE821AC0ED46
:10164000041A20EE210A80ED030A31EE000A20EE92
:10165000A01A80ED020A41EE610AC0ED050A70474A
:101660009FED050A80ED020A80ED030A80ED040A71
:1016700080ED050A704700000000000080ED030ABD
:10168000704780ED020A704780ED010A7047C0E99B
:10169000001200F03FB810B5D0ED020A0446F5EE96
:1016A000C00AF1EE10FA29DD206800F000FA206887
:1016B000D4ED020A90ED070AB4EEE00AF1EE10FA5A
:1016C00012D284ED020A90ED050A6068FFF7DCFF94
:1016D000206890ED030A6068FFF7D3FF206890ED63
:1016E000040A6068FFF7CAFF206890ED030A84EDE2
:1016F000030A90ED040A84ED040A10BD6068FFF748
:101700008AFF606890ED020A84ED030A90ED030AF7
:10171000F1E7000010B50446006800F005FA6068C3
:10172000FFF79EFF9FED050A84ED020A9FED040A74
:1017300084ED030A84ED040A10BD0000FFFF7F7FE3
:101740000000000010B50446D4E90001FEF751FD89
:101750000020A060E060206110BDC0E90012FFF72A
:10176000F1BF006908B1002070470120704701698E
:101770004068814201D10120704700207047F0B5D8
:1017800000231D460EE084680768661C86603C5D89
:10179000CC54D0E90146A64200D185600469641E9C
:1017A0005B1C0461934202D20469002CEBD1184601
:1017B000F0BDF0B500231D4610E0C4680768CE5C9C
:1017C00004F1010CC0F80CC03E554668C468B44230
:1017D00000D1C5600469641C5B1C0461934203D2A0
:1017E00046680469B442E8D11846F0BD02688A43ED
:1017F0000260704770B520255FF0000322FA03F104
:10180000046801F001010C4201D00C4300E08C435C
:101810005B1CDBB20460AB42F0D370BD00680840D3
:10182000704710B586B040F2FF13009300238DF887
:1018300008308DF8093008248DF80A400C0A8DF81C
:101840000C10110A8DF80D108DF810308DF80E2047
:101850008DF811308DF80B408DF80F308DF8123067
:101860006946FFF7F9FA06B010BD38B50446002006
:101870000D460346022200901146204600F00AF869
:1018800004F00F0124F0FF002A46BDE8384000F0C4
:10189000EFB800002DE9FF4F054620F0FF04384A5D
:1018A00038483949394E3A4FDFF8E880DFF8E89098
:1018B000DFF8E8A0DFF8E8B083B0944202D101215C
:1018C00008463CE0844204D10121022002F0DCF809
:1018D00006E08C4204D10121042002F0D5F806E094
:1018E000B44204D10121082002F0CEF806E0BC4247
:1018F00004D10121102002F0C7F806E0444504D1CC
:101900000121202002F0C0F806E04C4504D101215D
:10191000402002F0B9F806E0544504D101218020AE
:1019200002F0B2F806E05C4504D10121080202F0A1
:10193000ABF807E01B48844204D10121401502F0B6
:10194000A3F805E01848844202D101210015F6E70A
:1019500005F00F0101208840009004988DF80400E4
:1019600005988DF8050006988DF8060010988DF8FA
:1019700007006946204600F021F807B0BDE8F08F67
:10198000000002400004024000080240000C024037
:10199000001002400014024000180240001C0240E7
:1019A00000200240002402400028024008B5002127
:1019B000012302220091FFF76DFF08BDF0B500235F
:1019C000012403270D6804FA03F21540954242D121
:1019D000D0F800C05E0007FA06F52CEA050CC0F846
:1019E00000C091F804C0D0F800E00CFA06FC4CEA04
:1019F0000E0CC0F800C091F804C0BCF1010F02D079
:101A0000BCF1020F1FD1D0F808C02CEA050CC0F8B9
:101A100008C091F805C0D0F808E00CFA06FC4CEAC2
:101A20000E0CC0F808C0D0F804C02CEA020CC0F8B4
:101A300004C0426891F806C00CFA03FC1FFA8CFC43
:101A400042EA0C024260C268AA43C260CA79C56811
:101A5000B2402A43C2605B1C102BB3D3F0BD08B563
:101A600000210B46009102220121FFF713FF08BD60
:101A70004B07DB0E9A40C90810B500EB8100016AE4
:101A80000F249C40A1430162016A1143016210BD11
:101A90000246002052690A4200D00120704741836B
:101AA000704701837047C0E9001200F03DB88268BA
:101AB0000168D0ED030A01EB8201521C91ED001A7E
:101AC00030EE412A90ED011AF8EE412AB8EE411AA3
:101AD000C2EE221AC0ED041A70EEA12AC0ED032A4C
:101AE00091ED003A73EE600A70EE800A70EEE20A41
:101AF00020EE822AC2EE010AC0ED060A90ED051A18
:101B000031EE201A80ED051A21EEA11A00EEA01A7E
:101B100080ED071A826081ED000AD0E901128A4245
:101B200001D100218160704710B5044640688100F2
:101B30002068FEF75EFB00209FED070AA06084EDA1
:101B4000030A84ED050A84ED040A84ED060A9FED7C
:101B5000030A84ED070A10BD00000000FFFF7F7F2D
:101B600010B5284A2DED048B018992ED398ACB06F8
:101B700003D4B6EE000A28EE008A9FED230A4B0735
:101B800002D5F1EE488A06E00B0702D5F0EE488A4E
:101B900001E0F0EE408A8B0702D5B1EE488A03E0FF
:101BA000C90701D1B0EE408AB0F9000092ED102AC9
:101BB00000EE100A9FED151AF1EE421AB8EEC00AB7
:101BC000DFED130A04F084FBB0EE409AB0EE680A31
:101BD000104800F07DF9104C0E4884ED000AB0EE7C
:101BE000480A103000F074F90A4884ED010AB0EE9A
:101BF000490A203000F06CF984ED020ABDEC048B38
:101C000010BD0000000000200000000000FEFF46A4
:101C1000000000C7C80E0020E40D002070B5044687
:101C20002DED028B1D4D00889FED1D8A95ED392A03
:101C300000EE100ADFED1B8AF1EE421AB8EE400A00
:101C4000B0EE481AF0EE680A04F042FB164EB0EE11
:101C5000481AF0EE680A86ED000A608895ED392A88
:101C600000EE100AF1EE421AB8EE400A04F030FB22
:101C700086ED010AA08895ED392A00EE100AB0EE33
:101C8000481AF1EE421AB8EE400AF0EE680A04F083
:101C90001FFB86ED020ABDEC028B70BD0000002028
:101CA0000080D2440000B643E40D0020F0B5144A91
:101CB0000021141F231F0F46801D655C465CAE4249
:101CC00009D152F821500A2D03D26D1C42F821503F
:101CD00003E05E5401E042F82170455C6554491C04
:101CE0000229EAD306490020891E0C1F1A5C0D5CEC
:101CF00042EAC50525540A54401C0228F6D3F0BD1B
:101D00004001002030B5074B0020991D0C1F1A5CC4
:101D10000D5C42EAC50525540A54401C0228F6D33E
:101D200030BD000054010020F0B50E4F002107F136
:101D30000802131F0E4608305C5C455CA54209D1C1
:101D400052F821400A2C03D2641C42F8214003E0DF
:101D50007D5401E042F82160445C5C54491C022936
:101D6000EAD3F0BD5401002070B5134A0020131DC2
:101D7000141F961E0146951C115443F8201021543F
:101D800031542954401C0228F6D30C490A22A1F1EF
:101D9000300000F0BEF809490A222831A1F14800BC
:101DA00000F0B7F80549BDE870400A225031A1F1B2
:101DB000600000F0AEB800003C010020F80E0020EA
:101DC00010B50446FFF772FF2046BDE81040FFF74C
:101DD000C7BE0A8802804A8842808A8882808A79BF
:101DE0008271CA79C2710A89028149894181704729
:101DF00000210A464318491CC9B29A710229F9D335
:101E000002804280828002814281704710B50220A8
:101E100003F0F2FC48B1082003F0EEFC48B10420C6
:101E200003F0EAFC48B1002010BDBDE8104002F00C
:101E30000FBBBDE81040FFF7D7BBBDE81040FEF771
:101E40006BBD000000B5044800F01AF803485DF8C7
:101E500004EB00F01DB800000D1E0008611E000814
:101E600070B5064D04464021284603F0F7FB0028D4
:101E7000F9D00248001D048070BD000000480040F9
:101E8000002801D001490860704700004801002087
:101E9000002801D001494860704700004801002037
:101EA00010B50948FFF7DBFD0848FFF7D8FD0648E5
:101EB0004FF480410E38FFF7F4FD04488021BDE85F
:101EC0001040C01FFFF7EDBD0E1402400710024086
:101ED0008268016801EB8201D1ED000A30EE601AE0
:101EE000D0ED010AF8EE600AC1EE201AD0ED030A27
:101EF00071EEA00AC0ED030A81ED000AD0E90121CC
:101F0000914201D1002100E0491C816090ED030A5B
:101F10007047C0E9001200F001B8000010B5044697
:101F2000406881002068FEF764F900209FED020AF6
:101F3000A06084ED030A10BD0000000080EC040ADC
:101F400070470000014800F01BB80000700F00202F
:101F50000A460146014800F02CB80000700F00202E
:101F6000024890EC040AFFF7EDBF0000D400002007
:101F70000A460146014800F063B80000700F0020D7
:101F800070EE200AB5EE000A31EE212A21EE001A89
:101F9000C0ED000A80ED012A80ED021A21EE801AC0
:101FA00022EE000A80ED031A80EE201A80ED041A5A
:101FB000704791EC020A90ED001A30EE600AD1ED04
:101FC000020A00EE810AD0ED010A80EE201A82EDAD
:101FD000001A90ED001A91EC020A30EE200AD1EDC1
:101FE000020A00EE810AD0ED010A80EE201A82ED8D
:101FF000011A91ED010AD1ED000A90ED001A30EEC0
:10200000600AD1ED020A00EE810AD0ED010A80EEED
:10201000201A82ED021A91ED000AD1ED010A90ED2D
:10202000001AB1EE400A30EE600AD1ED020A00EE6D
:10203000810AD0ED010A80EE201A82ED031A704762
:1020400091EC020A30EE200AD1ED020A30EE600A6D
:10205000D1ED030A30EE600AD0ED020A20EE200A2C
:1020600082ED000A91ED010AD1ED000A30EE600A1E
:10207000D1ED020A30EE200AD1ED030A30EE600AFB
:10208000D0ED030A20EE200A82ED010A91EC020A4B
:1020900030EE200AD1ED020A30EE200AD1ED030A1B
:1020A00030EE200AD0ED040A20EE200A82ED020A6A
:1020B0007047000038B5384A00EBC00502EB8504D4
:1020C000DFED360A638822F825300A8852BA62802A
:1020D0004D886DBA00EE105A65608988B8EEC00A66
:1020E00049BAA16020EE200ADFED2D0A84ED080A2E
:1020F00000EE102AB8EE400A20EE200A8DED000A0C
:10210000217B29B984ED050A002121610121217378
:10211000D11A09B241F64C53994205DD2369A1F564
:1021200000515B1E236108E041F64C53D94204DAAA
:10213000236901F500515B1C236100EE101A9FED2D
:10214000191A00EB8001B8EEC00A174884ED070A9F
:1021500094ED050ADDED000A00EB8105284630EE1E
:10216000C00AD4ED040AF8EEE00A00EE810A8DED13
:10217000000A00EE102AB8EE400AFFF78CFA95ED3F
:10218000030ADFED0A0A84ED060A95ED040A20EE43
:10219000200A84ED070A38BDE40100206F12833A5B
:1021A000DB0F493ADB0FC9406C0D002000007A4478
:1021B00010B50446084900EB840001EB8000FFF7EE
:1021C000A9FA04EBC4000549BDE8104001EB80000A
:1021D0002421FEF70EB800006C0D0020E401002061
:1021E00008B58DF800008DF801108DF8022001204F
:1021F0008DF80300684600F001F808BD30B50F22E5
:10220000C47801780123FCB1144C246801F1E02169
:1022100004F4E064C4F5E064C4F30724C4F10405E5
:10222000E2404478AC408578154025432A0181F886
:102230000024007800F01F018B404009800000F16D
:10224000E020C0F8003130BD01F01F008340480994
:10225000800000F1E020C0F8803130BD0CED00E0DE
:102260000249084302490860704700000000FA056F
:102270000CED00E010B52DED028BFEF7DDFE032125
:102280001F48FFF7B3FA9FED1F8A1F48B0EE481AA8
:10229000F0EE480AB0EE480AFEF757FE1A48B0EED4
:1022A000481AF0EE480AB0EE480A0C30FEF74DFE30
:1022B0001548F0EE481AB0EE481AF0EE480AB0EEB3
:1022C000480A3038FFF73AFE0F48F0EE481AB0EEF1
:1022D000481AF0EE480AB0EE480A2038FFF72EFE02
:1022E000F0EE481AB0EE481AF0EE480AB0EE480A8E
:1022F000BDEC028B0448BDE810401038FFF71EBE4D
:102300005001002000000000B40F002010B54FF471
:1023100080413148FFF7BCFB304C0028206854D086
:1023200020F00100206080212D48FFF7B1FB00283C
:1023300020684DD020F0020020602A482A4990ED04
:10234000060A81ED000A90ED0F0A81ED010A90ED79
:10235000180A81ED020A90ED210A81ED030A90ED41
:10236000070A103181ED000A90ED100A81ED010A93
:1023700090ED190A81ED020A90ED220A81ED030A1F
:1023800090ED010A1031B8EEC00A81ED000A90ED1F
:102390000A0AB8EEC00A81ED010A90ED130AB8EE00
:1023A000C00A81ED020A90ED1C0A0F48B8EEC00A7F
:1023B00081ED030A1031FFF7DBFD0B49BDE810404A
:1023C0003C31A1F12C00FFF7D3BD40F00100A9E79B
:1023D00040F00200B0E7000000140240500100206D
:1023E00000100240E4010020840F002030EE601A4B
:1023F00090ED080ADFED341A31EE402A90ED000A24
:1024000060EE010A90ED040AB4EEE00AF1EE10FA73
:1024100008D3B1EE400AB4EEE00AF1EE10FA01DCA6
:10242000B0EE600AD0ED030AF4EEC20AF1EE10FA43
:102430001ADDD0ED090AD0ED011A41EE810AC0ED96
:10244000090AD0ED051AF4EEE10AF1EE10FA06DC05
:10245000F1EE611AF4EEE10AF1EE10FA01D2F0EEBB
:10246000610AC0ED090A01E0C0ED091AD0ED020AC7
:10247000D0ED061A60EE820AF4EEE01AF1EE10FAE0
:1024800006D3F1EE611AF4EEE01AF1EE10FA01DD76
:10249000F0EE610AD0ED091A31EE800A30EE200A22
:1024A000D0ED070AF4EEC00AF1EE10FA06D3F1EE11
:1024B000600AF4EEC00AF1EE10FA01DDB0EE600A37
:1024C00080ED081A704700000000000080EC080A48
:1024D00070470000024991EC080AFFF7F7BF0000BF
:1024E000E80000209FED030A80ED080A80ED090A4C
:1024F00070470000000000002DE9FE4F1546DFF890
:102500000484FF4ADDF830B008F104091C460E4689
:10251000074609F1040A93457ED100200290A8F1F4
:102520000400B0EB172F25D0B8EB172F22D0B9EB52
:10253000172F1FD0BAEB172F1CD00AF10400B0EBF5
:10254000172F17D0001DB0EB172F13D0001DB0EBC5
:10255000172F0FD0001DB0EB172F0BD0001DB0EBC5
:10256000172F07D0001DB0EB172F03D0001DB0EBC5
:10257000172F05D101213846FFF777F90120029086
:10258000E048001FB0EB162F25D0B8EB162F22D055
:10259000B9EB162F1FD0BAEB162F1CD0D9480C3030
:1025A000B0EB162F17D0001DB0EB162F13D0001D67
:1025B000B0EB162F0FD0001DB0EB162F0BD0001D67
:1025C000B0EB162F07D0001DB0EB162F03D0001D67
:1025D000B0EB162F07D101213046FFF746F90298DC
:1025E00040F002000290C748001FB0EB152F27D023
:1025F000B8EB152F24D0B9EB152F21D0BAEB152F3E
:102600001ED0C0480C30B0EB152F19D0001DB0EB18
:10261000152F15D0001D00E061E0B0EB152F0FD095
:10262000001DB0EB152F0BD0001DB0EB152F07D000
:10263000001DB0EB152F03D0001DB0EB152F07D1F7
:1026400001212846FFF711F9029840F0040002909A
:10265000AC48001FB0EB142F25D0B8EB142F22D0BC
:10266000B9EB142F1FD0BAEB142F1CD0A5480C3097
:10267000B0EB142F17D0001DB0EB142F13D0001D9A
:10268000B0EB142F0FD0001DB0EB142F0BD0001D9A
:10269000B0EB142F07D0001DB0EB142F03D0001D9A
:1026A000B0EB142F07D101212046FFF7DEF8029886
:1026B00040F008000290002000900190DDE90D1329
:1026C00002468F4801F020FC70228D480F9B029932
:1026D00001F0CEFD01218A4801F0FCFBB6E1BBF11F
:1026E000804F7DD088498B45F8D1002002908548E5
:1026F000001FB0EB172F25D0B8EB172F22D0B9EB66
:10270000172F1FD0BAEB172F1CD07E480C30B0EB20
:10271000172F17D0001DB0EB172F13D0001DB0EBF3
:10272000172F0FD0001DB0EB172F0BD0001DB0EBF3
:10273000172F07D0001DB0EB172F03D0001DB0EBF3
:10274000172F05D102213846FFF78FF8012002909C
:102750006C48001FB0EB162F25D0B8EB162F22D0F7
:10276000B9EB162F1FD0BAEB162F1CD065480C30D2
:10277000B0EB162F17D0001DB0EB162F13D0001D95
:10278000B0EB162F0FD0001DB0EB162F0BD0001D95
:10279000B0EB162F07D0001DB0EB162F03D0001D95
:1027A000B0EB162F07D102213046FFF75EF80298F2
:1027B00040F0020002905348001FB0EB152F27D0C5
:1027C000B8EB152F24D0B9EB152F21D0BAEB152F6C
:1027D0001ED04C480C30B0EB152F19D0001D00E076
:1027E00065E0B0EB152F13D0001DB0EB152F0FD007
:1027F000001DB0EB152F0BD0001DB0EB152F07D02F
:10280000001DB0EB152F03D0001DB0EB152F07D125
:1028100002212846FFF729F8029840F004000290B0
:102820003848001FB0EB142F25D0B8EB142F22D05E
:10283000B9EB142F1FD0BAEB142F1CD031480C3039
:10284000B0EB142F17D0001DB0EB142F13D0001DC8
:10285000B0EB142F0FD0001DB0EB142F0BD0001DC8
:10286000B0EB142F07D0001DB0EB142F03D0001DC8
:10287000B0EB142F07D102212046FEF7F6FF029895
:1028800040F008000290002000900190DDE90D1357
:1028900002461D4801F038FB70221B480F9B02992D
:1028A00001F0E6FC0121184801F014FBAFE11548E6
:1028B0004FF0000B001FB0EB172F2CD0B8EB172FE9
:1028C00029D0B9EB172F26D0BAEB172F23D00D48FC
:1028D0000C30B0EB172F1ED0001DB0EB172F1AD005
:1028E000001DB0EB172F16D0001DB0EB172F12D024
:1028F000001DB0EB172F0ED0001DB0EB172F05E019
:1029000000000140040240000004004003D0001D0C
:10291000B0EB172F05D101213846FEF7A6FF4FF087
:10292000010BFC4FB7EB162F25D0B8EB162F22D09A
:10293000B9EB162F1FD0BAEB162F1CD0F54810306C
:10294000B0EB162F17D0001DB0EB162F13D0001DC3
:10295000B0EB162F0FD0001DB0EB162F0BD0001DC3
:10296000B0EB162F07D0001DB0EB162F03D0001DC3
:10297000B0EB162F05D101213046FEF776FF4BF064
:10298000020BB7EB152F25D0B8EB152F22D0B9EBE2
:10299000152F1FD0BAEB152F1CD0DE481030B0EB2E
:1029A000152F17D0001DB0EB152F13D0001DB0EB65
:1029B000152F0FD0001DB0EB152F0BD0001DB0EB65
:1029C000152F07D0001DB0EB152F03D0001DB0EB65
:1029D000152F05D101212846FEF747FF4BF0040BC8
:1029E000B7EB142F25D0B8EB142F22D0B9EB142F4E
:1029F0001FD0BAEB142F1CD0C6481030B0EB142FE8
:102A000017D0001DB0EB142F13D0001DB0EB142F06
:102A10000FD0001DB0EB142F0BD0001DB0EB142F06
:102A200007D0001DB0EB142F03D0001DB0EB142F06
:102A300005D101212046FEF718FF4BF0080B0020BE
:102A4000009002464FF080440190FDE3B2498B456F
:102A50007ED100200290AF48B0EB172F25D0B8EB05
:102A6000172F22D0B9EB172F1FD0BAEB172F1CD07E
:102A7000A8481030B0EB172F17D0001DB0EB172F60
:102A800013D0001DB0EB172F0FD0001DB0EB172F88
:102A90000BD0001DB0EB172F07D0001DB0EB172F88
:102AA00003D0001DB0EB172F05D102213846FEF7E9
:102AB000DCFE012002909748B0EB162F25D0B8EB32
:102AC000162F22D0B9EB162F1FD0BAEB162F1CD021
:102AD00090481030B0EB162F17D0001DB0EB162F1A
:102AE00013D0001DB0EB162F0FD0001DB0EB162F2A
:102AF0000BD0001DB0EB162F07D0001DB0EB162F2A
:102B000003D0001DB0EB162F07D102213046FEF78F
:102B1000ACFE029840F0020002907E48B0EB152F08
:102B200027D0B8EB152F24D0B9EB152F21D0BAEB55
:102B3000152F1ED077481030B0EB152F19D0001D7F
:102B4000B0EB152F15D0001DB0EB152F11D000E004
:102B50005DE0001DB0EB152F0BD0001DB0EB152F65
:102B600007D0001DB0EB152F03D0001DB0EB152FC3
:102B700007D102212846FEF778FE029840F00400B3
:102B800002906448B0EB142F25D0B8EB142F22D05C
:102B9000B9EB142F1FD0BAEB142F1CD05D481030A6
:102BA000B0EB142F17D0001DB0EB142F13D0001D65
:102BB000B0EB142F0FD0001DB0EB142F0BD0001D65
:102BC000B0EB142F07D0001DB0EB142F03D0001D65
:102BD000B0EB142F07D102212046FEF746FE0298E3
:102BE00040F008000290002000900190DDE90D13F4
:102BF0000246494801F088F9702247480F9B029924
:102C000001F036FB0121444801F064F9E7E0434953
:102C10008B457DD1002002903E48B0EB172F25D088
:102C2000B8EB172F22D0B9EB172F1FD0BAEB172F05
:102C30001CD038481030B0EB172F17D0001DB0EB68
:102C4000172F13D0001DB0EB172F0FD0001DB0EBC6
:102C5000172F0BD0001DB0EB172F07D0001DB0EBC6
:102C6000172F03D0001DB0EB172F05D102213846D6
:102C7000FEF7FBFD012002902648B0EB162F25D071
:102C8000B8EB162F22D0B9EB162F1FD0BAEB162FA8
:102C90001CD020481030B0EB162F17D0001DB0EB21
:102CA000162F13D0001DB0EB162F0FD0001DB0EB68
:102CB000162F0BD0001DB0EB162F07D0001DB0EB68
:102CC000162F03D0001DB0EB162F07D1022130467E
:102CD000FEF7CBFD029840F0020002900D48B0EBE9
:102CE000152F2ED0B8EB152F2BD0B9EB152F28D0E0
:102CF000BAEB152F25D007481030B0EB152F20D098
:102D0000001DB0EB152F1CD0001DB0EB152F07E0F8
:102D100065E000000002400000080040000C004098
:102D20000FD0001DB0EB152F0BD0001DB0EB152FF1
:102D300007D0001DB0EB152F03D0001DB0EB152FF1
:102D400007D102212846FEF790FD029840F00400CA
:102D50000290FE48B0EB142F25D0B8EB142F22D0F0
:102D6000B9EB142F1FD0BAEB142F1CD0F74810303A
:102D7000B0EB142F17D0001DB0EB142F13D0001D93
:102D8000B0EB142F0FD0001DB0EB142F0BD0001D93
:102D9000B0EB142F07D0001DB0EB142F03D0001D93
:102DA000B0EB142F07D102212046FEF75EFD0298FA
:102DB00040F008000290002000900190DDE90D1322
:102DC0000246E34801F0A0F87022E1480F9B029907
:102DD00001F04EFA0121DE4801F07CF8E0E0DD4927
:102DE0008B457DD100200290D848B0EB172F25D01D
:102DF000B8EB172F22D0B9EB172F1FD0BAEB172F34
:102E00001CD0D2481030B0EB172F17D0001DB0EBFC
:102E1000172F13D0001DB0EB172F0FD0001DB0EBF4
:102E2000172F0BD0001DB0EB172F07D0001DB0EBF4
:102E3000172F03D0001DB0EB172F05D10321384603
:102E4000FEF713FD01200290C048B0EB162F25D0ED
:102E5000B8EB162F22D0B9EB162F1FD0BAEB162FD6
:102E60001CD0BA481030B0EB162F17D0001DB0EBB5
:102E7000162F13D0001DB0EB162F0FD0001DB0EB96
:102E8000162F0BD0001DB0EB162F07D0001DB0EB96
:102E9000162F03D0001DB0EB162F07D103213046AB
:102EA000FEF7E3FC029840F002000290A748B0EB66
:102EB000152F27D0B8EB152F24D0B9EB152F21D023
:102EC000BAEB152F1ED0A1481030B0EB152F19D03A
:102ED000001DB0EB152F15D0001DB0EB152F00E035
:102EE0005EE00FD0001DB0EB152F0BD0001DB0EB36
:102EF000152F07D0001DB0EB152F03D0001DB0EB30
:102F0000152F07D103212846FEF7AFFC029840F0A9
:102F1000040002908D48B0EB142F25D0B8EB142F8D
:102F200022D0B9EB142F1FD0BAEB142F1CD0874836
:102F30001030B0EB142F17D0001DB0EB142F13D0AE
:102F4000001DB0EB142F0FD0001DB0EB142F0BD0D1
:102F5000001DB0EB142F07D0001DB0EB142F03D0D1
:102F6000001DB0EB142F07D103212046FEF77DFC96
:102F7000029840F008000290002000900190DDE9E6
:102F80000D130246734800F0BFFF702271480F9B7B
:102F9000029901F06DF901216E4800F09BFFEAE013
:102FA0006D498B457ED1002002906848B0EB172F09
:102FB00025D0B8EB172F22D0B9EB172F1FD0BAEBC3
:102FC000172F1CD061481030B0EB172F17D0001D01
:102FD000B0EB172F13D0001DB0EB172F0FD0001D33
:102FE000B0EB172F0BD0001DB0EB172F07D0001D33
:102FF000B0EB172F03D0001DB0EB172F05D1032125
:103000003846FEF732FC012002905048B0EB162FF4
:1030100025D0B8EB162F22D0B9EB162F1FD0BAEB64
:10302000162F1CD049481030B0EB162F17D0001DBA
:10303000B0EB162F13D0001DB0EB162F0FD0001DD4
:10304000B0EB162F0BD0001DB0EB162F07D0001DD4
:10305000B0EB162F03D0001DB0EB162F07D10321C4
:103060003046FEF702FC029840F00200029037481A
:10307000B0EB152F27D0B8EB152F24D0B9EB152FB7
:1030800021D0BAEB152F1ED030481030B0EB152FE1
:1030900019D0001DB0EB152F15D0001DB0EB152F6A
:1030A00011D000E067E0001DB0EB152F0BD0001D24
:1030B000B0EB152F07D0001DB0EB152F03D0001D6E
:1030C000B0EB152F07D103212846FEF7CEFB02985F
:1030D00040F0040002901D48B0EB142F25D0B8EB4F
:1030E000142F22D0B9EB142F1FD0BAEB142F1CD001
:1030F00016481030B0EB142F17D0001DB0EB142F72
:1031000013D0001DB0EB142F0FD0001DB0EB142F07
:103110000BD0001DB0EB142F07D0001DB0EB142F07
:1031200003D0001DB0EB142F07D103212046FEF77A
:103130009CFB029840F00800029000200090019053
:10314000DDE90D130246044808E0000000024000DB
:10315000000C0040000401400040014000F0D4FE9B
:103160007022FE480F9B029901F082F80121FB4872
:1031700000F0B0FEE1E0FA498B4566D100200290F4
:10318000F848B0EB172F25D0B8EB172F22D0B9EBAA
:10319000172F1FD0BAEB172F1CD0F2481030B0EB0E
:1031A000172F17D0001DB0EB172F13D0001DB0EB59
:1031B000172F0FD0001DB0EB172F0BD0001DB0EB59
:1031C000172F07D0001DB0EB172F03D0001DB0EB59
:1031D000172F05D103213846FEF747FB0120029047
:1031E000E048B0EB162F25D0B8EB162F22D0B9EB64
:1031F000162F1FD0BAEB162F1CD0DA481030B0EBC8
:10320000162F17D0001DB0EB162F13D0001DB0EBFA
:10321000162F0FD0001DB0EB162F0BD0001DB0EBFA
:10322000162F07D0001DB0EB162F03D0001DB0EBFA
:10323000162F07D103213046FEF717FB029840F006
:1032400002000290C74801E00EE376E0B0EB152FD4
:1032500025D0B8EB152F22D0B9EB152F1FD0BAEB24
:10326000152F1CD0BF481030B0EB152F17D0001D04
:10327000B0EB152F13D0001DB0EB152F0FD0001D94
:10328000B0EB152F0BD0001DB0EB152F07D0001D94
:10329000B0EB152F03D0001DB0EB152F07D1032184
:1032A0002846FEF7E2FA029840F004000290AD488A
:1032B000B0EB142F25D0B8EB142F22D0B9EB142F7C
:1032C0001FD0BAEB142F1CD0A6481030B0EB142F2F
:1032D00017D0001DB0EB142F13D0001DB0EB142F2E
:1032E0000FD0001DB0EB142F0BD0001DB0EB142F2E
:1032F00007D0001DB0EB142F03D0001DB0EB142F2E
:1033000007D103212046FEF7B0FA029840F00800EA
:103310000290002000900190DDE90D1302469048D4
:1033200000F0F2FD70228E480F9B029900F0A0FF82
:1033300001218B4800F0CEFDE0E08B498B457DD12B
:10334000002002908748B0EB172F25D0B8EB172F3D
:1033500022D0B9EB172F1FD0BAEB172F1CD0814802
:103360001030B0EB172F17D0001DB0EB172F13D074
:10337000001DB0EB172F0FD0001DB0EB172F0BD097
:10338000001DB0EB172F07D0001DB0EB172F03D097
:10339000001DB0EB172F05D103213846FEF765FA63
:1033A000012002906F48B0EB162F25D0B8EB162FF6
:1033B00022D0B9EB162F1FD0BAEB162F1CD06948BC
:1033C0001030B0EB162F17D0001DB0EB162F13D016
:1033D000001DB0EB162F0FD0001DB0EB162F0BD039
:1033E000001DB0EB162F07D0001DB0EB162F03D039
:1033F000001DB0EB162F07D103213046FEF735FA3A
:10340000029840F0020002905648B0EB152F27D0EA
:10341000B8EB152F24D0B9EB152F21D0BAEB152F0F
:103420001ED050481030B0EB152F19D0001DB0EB56
:10343000152F15D0001DB0EB152F00E05EE00FD06A
:10344000001DB0EB152F0BD0001DB0EB152F07D0D2
:10345000001DB0EB152F03D0001DB0EB152F07D1C9
:1034600003212846FEF701FA029840F0040002907A
:103470003C48B0EB142F25D0B8EB142F22D0B9EB79
:10348000142F1FD0BAEB142F1CD036481030B0EBDD
:10349000142F17D0001DB0EB142F13D0001DB0EB6C
:1034A000142F0FD0001DB0EB142F0BD0001DB0EB6C
:1034B000142F07D0001DB0EB142F03D0001DB0EB6C
:1034C000142F07D103212046FEF7CFF9029840F0D0
:1034D00008000290002000900190DDE90D130246E3
:1034E000214800F011FD70221F480F9B029900F047
:1034F000BFFE01211C4800F0EDFCEBE01B498B45B1
:103500007ED1002002901748B0EB172F25D0B8EBE2
:10351000172F22D0B9EB172F1FD0BAEB172F1CD0C3
:1035200010481030B0EB172F17D0001DB0EB172F3D
:1035300013D0001DB0EB172F0FD0001DB0EB172FCD
:103540000BD0001DB0EB172F07D0001DB0EB172FCD
:1035500003D0001DB0EB172F10D109E0004001404F
:1035600000440140000240000048014000180040B3
:1035700009213846FEF779F901200290FB48B0EBAB
:10358000162F25D0B8EB162F22D0B9EB162F1FD04F
:10359000BAEB162F1CD0F5481030B0EB162F17D011
:1035A000001DB0EB162F13D0001DB0EB162F0FD05F
:1035B000001DB0EB162F0BD0001DB0EB162F07D05F
:1035C000001DB0EB162F03D0001DB0EB162F07D156
:1035D00009213046FEF749F9029840F002000290B6
:1035E000E248B0EB152F27D0B8EB152F24D0B9EB5C
:1035F000152F21D0BAEB152F1ED0DC48103000E07B
:1036000068E0B0EB152F17D0001DB0EB152F13D0CD
:10361000001DB0EB152F0FD0001DB0EB152F0BD0F8
:10362000001DB0EB152F07D0001DB0EB152F03D0F8
:10363000001DB0EB152F07D109212846FEF715F91B
:10364000029840F004000290C848B0EB142F25D037
:10365000B8EB142F22D0B9EB142F1FD0BAEB142FD4
:103660001CD0C2481030B0EB142F17D0001DB0EBA7
:10367000142F13D0001DB0EB142F0FD0001DB0EB92
:10368000142F0BD0001DB0EB142F07D0001DB0EB92
:10369000142F03D0001DB0EB142F07D109212046B1
:1036A000FEF7E3F8029840F0080002900020009036
:1036B0000190DDE90D130246AD4800F025FC7022B3
:1036C000AB480F9B029900F0D3FD0121A84800F000
:1036D00001FCCAE0A7498B457ED1A4484FF0000BFE
:1036E000B0EB172F25D0B8EB172F22D0B9EB172F3F
:1036F0001FD0BAEB172F1CD09C481030B0EB172FFF
:1037000017D0001DB0EB172F13D0001DB0EB172FF3
:103710000FD0001DB0EB172F0BD0001DB0EB172FF3
:1037200007D0001DB0EB172F03D0001DB0EB172FF3
:1037300005D109213846FEF798F84FF0010B8B4F61
:10374000B7EB162F25D0B8EB162F22D0B9EB162FDA
:103750001FD0BAEB162F1CD084481030B0EB162FB8
:1037600017D0001DB0EB162F13D0001DB0EB162F95
:103770000FD0001DB0EB162F0BD0001DB0EB162F95
:1037800007D0001DB0EB162F03D0001DB0EB162F95
:1037900005D109213046FEF768F84BF0020BB7EB74
:1037A000152F27D0B8EB152F24D0B9EB152F21D02A
:1037B000BAEB152F1ED06D481030B0EB152F19D075
:1037C000001DB0EB152F15D0001DB0EB152F11D03B
:1037D000001DB0EB152F00E047E00BD0001DB0EB53
:1037E000152F07D0001DB0EB152F03D0001DB0EB37
:1037F000152F05D109212846FEF737F84BF0040BA9
:10380000B7EB142F25D0B8EB142F22D0B9EB142F1F
:103810001FD0BAEB142F1CD054481030B0EB142F2B
:1038200017D0001DB0EB142F13D0001DB0EB142FD8
:103830000FD0001DB0EB142F0BD0001DB0EB142FD8
:1038400007D0001DB0EB142F03D0001DB0EB142FD8
:1038500005D109212046FEF708F84BF0080B00209F
:1038600000900246434C0190D0E043498B457CD107
:103870003E484FF0000BB0EB172F25D0B8EB172FB9
:1038800022D0B9EB172F1FD0BAEB172F1CD0374817
:103890001030B0EB172F17D0001DB0EB172F13D03F
:1038A000001DB0EB172F0FD0001DB0EB172F0BD062
:1038B000001DB0EB172F07D0001DB0EB172F03D062
:1038C000001DB0EB172F05D109213846FDF7CDFFBC
:1038D0004FF0010B254FB7EB162F25D0B8EB162F65
:1038E00022D0B9EB162F1FD0BAEB162F1CD01F48D1
:1038F0001030B0EB162F17D0001DB0EB162F13D0E1
:10390000001DB0EB162F0FD0001DB0EB162F0BD003
:10391000001DB0EB162F07D0001DB0EB162F03D003
:10392000001DB0EB162F05D109213046FDF79DFF94
:103930004BF0020BB7EB152F2FD0B8EB152F2CD077
:10394000B9EB152F29D0BAEB152F26D00748103028
:10395000B0EB152F21D0001DB0EB152F1DD0001D91
:10396000B0EB152F19D0001D08E061E00002400007
:1039700000180040001C004000200040B0EB152F54
:103980000BD0001DB0EB152F07D0001DB0EB152F8D
:1039900003D0001DB0EB152F05D109212846FDF7F6
:1039A00064FF4BF0040BB7EB142F24D0B8EB142FAB
:1039B00021D0B9EB142F1ED0BAEB142F1BD01D4809
:1039C000B0EB142F17D0001DB0EB142F13D0001D37
:1039D000B0EB142F0FD0001DB0EB142F0BD0001D37
:1039E000B0EB142F07D0001DB0EB142F03D0001D37
:1039F000B0EB142F05D109212046FDF736FF4BF01F
:103A0000080B00200C4C009002460190DDE90D13DC
:103A1000204600F079FA7022594620460F9B00F0AC
:103A200027FC03B02046BDE8F04F012100F052BA58
:103A3000BDE8FE8F10024000002000401FB54FF48B
:103A40007A700F4C40F6C411532200940390CDE9D4
:103A500001210C4B5A1E511E481EFEF74DFD01213F
:103A6000204600F047FA064940F2A4604031086061
:103A7000091F0860091F0860091F08601FBD0000BA
:103A8000000800400F0C0240044A0029116801D0D0
:103A9000014300E08143116070470000303802406C
:103AA000044A0029116801D0014300E081431160FC
:103AB0007047000040380240044A0029116801D0D4
:103AC000014300E081431160704700004438024028
:103AD00070B5204A1168204C11F00C0104D01F4E23
:103AE000042903D0082903D004601BE0066019E014
:103AF0001849091F0B68C3F380550B6803F03F0397
:103B000015B1B6FBF3F301E0B4FBF3F30C680968FD
:103B1000C4F388146343C1F30141491C4900B3FB5A
:103B2000F1F1016011680F2303EA11110C4B5C5C89
:103B30000168E14041601468072505EA94241C5D92
:103B400021FA04F48460126805EA52329A5CD1408A
:103B5000C16070BD083802400024F400001BB700AB
:103B6000A001002070B5084A0020131D941C161FE8
:103B70000146951E115443F8201021543154295404
:103B8000401C0228F6D370BD58010020FEF746B84D
:103B90000A88C2F30A0202804A788B78D20842EA85
:103BA0004312C2F30A0242808A78CB78920942EA31
:103BB00083020B7942EA8322C2F30A0282800A79E5
:103BC0004B79520842EAC312C2F30A02C2804A7910
:103BD000920902724979C1F30111417270470000E4
:103BE00000214FF4806200BF20F81120491CC9B2A7
:103BF0000429F9D3002103224318491CC9B21A72BF
:103C00000229F9D3704700F04BB800003EB54E22B0
:103C1000452108208DE807001D4CB7EE000A1B4B1C
:103C2000224600211B4800F049FD01224021204688
:103C300001F00CFD24210020CDE90001174D221DCB
:103C4000154B51062846FDF713FC13490022243179
:103C50002846FDF74DFC01212846FDF73FFC0121D8
:103C60002846FDF7FBFB002211462520FEF7B8FA97
:103C7000012240F22441204601F016FD03B0204607
:103C8000BDE83040012101F00FBC0000A08601001A
:103C9000001001400704024034120020406402403A
:103CA00010B50446002001F09FFD21460548FDF7B0
:103CB000A1FB0448FEF738F8BDE810400148FEF7C4
:103CC00021B80000B00E0020D0E9002191420CD2B2
:103CD000491C00EE101A4160F8EE400A00EE102A6E
:103CE000B8EE401A80EE810A7047B7EE000A7047BE
:103CF000016070470249D1F80C11FFF7F9BF0000CD
:103D00000000002000214160704700001CB5002029
:103D10002E49019000900A6842F480320A604FF404
:103D2000A0430A6802F400320092019A521C0192E8
:103D3000009A12B9019A9A42F3D10A68920342D5C5
:103D40000120009021484030026842F08052026019
:103D50001F48026842F4404202601C4A083213685D
:103D60001360136843F400431360136843F4A053D3
:103D70001360141F174B23600B6843F080730B60B4
:103D80000B689B01FCD5016841F4803101604168FA
:103D9000C903FCD5016841F4003101604168890321
:103DA000FCD50D4940F205700860106820F0030052
:103DB0001060106840F0020010601068C0F38100CD
:103DC0000228FAD11CBD00901CBD00000038024042
:103DD000007000400C544007003C0240034800784B
:103DE000800701D101F0DDBC704700009C0100207C
:103DF0001CB500200090024601904FF47A735321C5
:103E0000054800F081F802B000220121BDE8104011
:103E10003620FEF7E5B9000000100040124810B54A
:103E2000016841F4700101601048016841F001012E
:103E300001600E4A00210832116002680C4B1A40E2
:103E40000260031D0B4A1A60026822F4802202609D
:103E500006480C300160FFF759FF03494FF000603E
:103E60008039086010BD000088ED00E00038024095
:103E7000FFFFF6FE1030002410B501218C0720460C
:103E800000F0E4F800280BD00121204600F02FF8C4
:103E90000121204600F028F8BDE8104000F068BA83
:103EA00010BD000010B50A4C0121204600F0CEF8EC
:103EB00000280BD00121204600F019F801212046EE
:103EC00000F012F8BDE81040FFF788BF10BD0000F9
:103ED000001000400029018802D041F0800101E07B
:103EE00021F0800101807047C94301827047C943B6
:103EF000018270470029018802D041F0010101E0F0
:103F000021F00101018070472DE9FF4F434904462C
:103F10004348444D444EDFF81481DFF81491DFF834
:103F200014A1DFF814B183B04FEAB1478C4204D139
:103F300001210846FFF7C0FD0CE0B4F1804F06D028
:103F4000844207D101210220FFF7AAFD09E00121E7
:103F5000084645E0AC4204D101210420FFF7A0FD52
:103F600006E0B44204D101210820FFF799FD06E0E4
:103F7000BC4204D101211020FFF792FD06E0444528
:103F800004D101212020FFF78BFD06E04C4504D130
:103F900001210220FFF790FD06E0544504D10121E4
:103FA0000804FFF789FD06E05C4504D101214804BF
:103FB000FFF782FD07E02148844204D101218804F3
:103FC000FFF77AFD07E01E48844204D1012140201A
:103FD000FFF766FD07E01B48844204D101218020E1
:103FE000FFF75EFD05E01848844202D101218015EB
:103FF000F6E70498ADF800000598ADF802000698C1
:1040000001901098ADF8080011988DF80A006946E3
:10401000204600F06FF907B0BDE8F08F00000140C6
:104020000004004000080040000C00400014004064
:1040300000040140004001400044014000480140AC
:1040400000180040001C00400020004002460020F4
:10405000138A92890B4202EA010202D0002A00D0A0
:1040600001207047002A828901D00A4300E08A4378
:104070008281704730B5028C22F001020284028CEA
:104080008388048B22F0020224F073050C882C43F1
:104090008D8915434A882A430C4DA84202D00C4D05
:1040A000A8420DD122F00805CA8923F440732A439F
:1040B00022F004058A882A430D8A1D434B8A2B432C
:1040C0008380048389684163028430BD000001401D
:1040D00000040140028B22F008020A430283704769
:1040E00070B5028C22F010020284028C8488038B4B
:1040F0000D8823F4E6464FF6FF7303EA05253543A2
:104100008E8922F0200203EA061616434A8803EA43
:1041100002123243104EB04202D0104EB04215D1BE
:1041200022F08006CA8924F4406403EA0212324372
:1041300022F040068A8803EA021232430E8A03EA1A
:10414000860626434C8A03EA84043443848005832C
:1041500089688163028470BD000001400004014051
:10416000028B4FF6FF7322F4006203EA0121114330
:104170000183704770B5028C22F480720284028C35
:104180008488838B0D8823F073031D4322F400730E
:104190008E894FF6FF7202EA06261E434B8802EA1A
:1041A00003233343104EB04202D0104EB04215D11B
:1041B00023F40066CB8924F4405402EA03233343FA
:1041C00023F480668B8802EA032333430E8A02EAD3
:1041D000061626434C8A02EA0414344384808583FD
:1041E0008968C163038470BD000001400004014080
:1041F000828B22F008020A438283704770B5028CDA
:1042000022F480520284048C8288838B0D8823F4EC
:10421000E6464FF6FF7303EA0525354324F40056BE
:104220008C8903EA043434434E8803EA0636264375
:10423000084CA04202D0084CA04205D122F4804490
:104240000A8A03EA82122243828085838968016494
:10425000068470BD0000014000040140828B4FF6CF
:10426000FF7322F4006203EA012111438183704746
:1042700030B585B00546ADF8002001200C46ADF8FC
:10428000020000210220ADF80C00ADF81010C001B2
:10429000ADF81200ADF804100293ADF80E10E0076F
:1042A00007D069462846FFF7E5FE08212846FFF7B4
:1042B00011FFA00707D569462846FFF711FF08211F
:1042C0002846FFF74DFF600707D569462846FFF7E8
:1042D00051FF08212846FFF78BFF200707D56946C5
:1042E0002846FFF78BFF08212846FFF7B7FF05B0E8
:1042F00030BD000030B50288164B174C98420DD0E7
:10430000A0420BD0B0F1804F08D0144DA84205D088
:10431000134DA84202D0134DA84203D122F07005DC
:104320004A882A43104DA84206D0104DA84203D017
:1043300022F440750A892A4302804A68C2620A88C8
:104340000285984201D0A04201D1897A01860121DB
:10435000818230BD000001400004014000040040A3
:1043600000080040000C0040001000400014004015
:1043700070471CB500200090431E02464FF0804459
:10438000019053212046FFF7BFFD01212046FFF792
:10439000A1FD02B00022BDE8104011461C20FDF72F
:1043A0001FBF10B501218C072046FFF7A3FD012296
:1043B00011462046FFF756FE2046BDE81040012179
:1043C000FFF792BD10B5FFF7D4FFBDE81040FFF72F
:1043D0000FBD00F039B800003EB54E200821CDE9F0
:1043E0000010154C15490290B7EE000A4FF4E13366
:1043F0002246481D00F062F9012240F22551204674
:1044000001F052F9022211464720FDF7E9FE0C495E
:10441000A5152A46A1F12800FDF79FF909492A466A
:10442000A1F58A70FDF799F903B02046BDE8304048
:10443000012101F039B800000014014009180240C0
:10444000A4120020A4130020012001F0CDB9000027
:1044500008B500208DF800000648FDF782F9002815
:10446000FAD1012269460348FDF789F99DF8000059
:1044700008BD00007C12002070B51B4E40F22444A1
:104480002146304601F0F1F800282BD0174D214687
:10449000304601F003F8164C00212046FCF7DEFF01
:1044A0002046FDF730F8C0F1240086B22420211DFB
:1044B00008602046FDF72AF878B12068243520F4FA
:1044C0000020206001212046FCF7C8FF122E09D1F0
:1044D0002846BDE87040FFF796BB206840F40020F6
:1044E0002060EFE770BD0000001001403412002092
:1044F000406402407CB5234D40F227763146284681
:1045000001F0B3F80024C0B11F48FDF72AF938B113
:1045100002B031462846BDE87040002201F0C4B820
:104520008DF80040012269461748FDF728F99DF8EB
:104530000010284601F02AF97CBD40F2255128469A
:1045400001F093F80028F7D0284601F01BF98DF808
:1045500000000D481438FDF70AF938B10A488DF803
:104560000440012201A91438FDF709F90648012287
:1045700069461438FDF71DF99DF80000FCF78EF927
:104580007CBD000000440040E00F00207CB5234DBE
:1045900040F227763146284601F067F80024C0B182
:1045A0001F48FDF7DEF838B102B031462846BDE8B5
:1045B0007040002201F078B88DF800400122694671
:1045C0001748FDF7DCF89DF80010284601F0DEF8EA
:1045D0007CBD40F22551284601F047F80028F7D06D
:1045E000284601F0CFF88DF800000D481438FDF78B
:1045F000BEF838B10A488DF80440012201A91438E8
:10460000FDF7BDF80648012269461438FDF7D1F8D8
:104610009DF80000FCF7ACFF7CBD000000480040A6
:10462000081200207CB5234D40F2277631462846FB
:1046300001F01BF80024C0B11F48FDF792F838B113
:1046400002B031462846BDE87040002201F02CB887
:104650008DF80040012269461748FDF790F89DF853
:104660000010284601F092F87CBD40F22551284602
:1046700000F0FBFF0028F7D0284601F083F88DF802
:1046800000000D481438FDF772F838B10A488DF86B
:104690000440012201A91438FDF771F806480122EF
:1046A00069461438FDF785F89DF80000FFF791FE84
:1046B0007CBD000000140140901200202DE9FF4F46
:1046C0000C462DED020B05462DED028B83B0B0EEAE
:1046D000408ADDE91576FE49DFF8F893099809F17B
:1046E000040A0AF1040B88427ED1A9F10400B0EB60
:1046F000152F25D0B9EB152F22D0BAEB152F1FD0CF
:10470000BBEB152F1CD00BF10401B1EB152F17D00B
:10471000091DB1EB152F13D0091DB1EB152F0FD0CB
:10472000091DB1EB152F0BD0091DB1EB152F07D0CB
:10473000091DB1EB152F03D0091DB1EB152F38D191
:10474000B0EB142F25D0B9EB142F22D0BAEB142FD5
:104750001FD0BBEB142F1CD0DE490C31B1EB142F52
:1047600017D0091DB1EB142F13D0091DB1EB142F75
:104770000FD0091DB1EB142F0BD0091DB1EB142F75
:1047800007D0091DB1EB142F03D0091DB1EB142F75
:104790000FD107212846FDF768F807212046FDF7CD
:1047A00064F8CDE90076B0EE480A2021149B0A9AFD
:1047B0006DE0B0EB152F2DD0B9EB152F2AD0BAEB49
:1047C000152F27D0BBEB152F24D0C24B0C33B3EBE6
:1047D000152F1FD003F1040EBEEB152F1AD00EF1CA
:1047E0000403B3EB152F00E055E013D003F1040CE4
:1047F000BCEB152F0ED00CF10408B8EB152F09D027
:1048000008F10408B8EB152F04D008F10408B8EB40
:10481000152F0BD107212846FDF727F8CDE90076A3
:10482000B0EE480A7221149B0A9A30E0B0EB142FC4
:1048300022D0B9EB142F1FD0BAEB142F1CD0BBEB36
:10484000142F19D0A3480C30B0EB142F14D0BEEBAA
:10485000142F11D0B3EB142F0ED0BCEB142F0BD0B0
:104860009C481C30B0EB142F06D0001DB0EB142F69
:1048700002D0B8EB142F76D107212046FCF7F5FFC4
:10488000CDE90076149B0A9AB0EE480A742190484C
:1048900000F014FED8E001468F4881427DD18D485A
:1048A000001FB0EB152F25D0B9EB152F22D0BAEB96
:1048B000152F1FD0BBEB152F1CD086490C31B1EB47
:1048C000152F17D0091DB1EB152F13D0091DB1EB12
:1048D000152F0FD0091DB1EB152F0BD0091DB1EB12
:1048E000152F07D0091DB1EB152F03D0091DB1EB12
:1048F000152F39D1B0EB142F25D0B9EB142F22D0BE
:10490000BAEB142F1FD0BBEB142F1CD071490C3104
:10491000B1EB142F17D0091DB1EB142F13D0091DC3
:10492000B1EB142F0FD0091DB1EB142F0BD0091DC3
:10493000B1EB142F07D0091DB1EB142F03D0091DC3
:10494000B1EB142F10D107212846FCF78EFF072169
:104950002046FCF78AFFCDE90076B0EE480A202118
:10496000149B0A9A6CE0FDE3B0EB152F2DD0B9EB48
:10497000152F2AD0BAEB152F27D0BBEB152F24D03B
:10498000544A0C32B2EB152F1FD002F1040EBEEBCD
:10499000152F1AD00EF1040300E055E0B3EB152FEC
:1049A00013D003F1040CBCEB152F0ED00CF104084E
:1049B000B8EB152F09D008F10408B8EB152F04D077
:1049C00008F10408B8EB152F0BD107212846FCF796
:1049D0004CFFCDE90076B0EE480A7221149B0A9A8A
:1049E0002EE0B0EB142F20D0B9EB142F1DD0BAEB72
:1049F000142F1AD0BBEB142F17D0B2EB142F14D0F6
:104A0000BEEB142F11D0B3EB142F0ED0BCEB142F30
:104A10000BD030481C30B0EB142F06D0001DB0EB8B
:104A2000142F02D0B8EB142F0DD107212046FCF72C
:104A30001CFFCDE90076149B0A9AB0EE480A742157
:104A4000254800F03BFDE1E02449099888427DD1EA
:104A50002048001FB0EB152F25D0B9EB152F22D021
:104A6000BAEB152F1FD0BBEB152F1CD019490C31F9
:104A7000B1EB152F17D0091DB1EB152F13D0091D60
:104A8000B1EB152F0FD0091DB1EB152F0BD0091D60
:104A9000B1EB152F07D0091DB1EB152F03D0091D60
:104AA000B1EB152F41D1B0EB142F2ED0B9EB142F51
:104AB0002BD0BAEB142F28D0BBEB142F25D00549EF
:104AC0000C31B1EB142F20D0091DB1EB142F07E0EE
:104AD0000010014004024000004400400048004033
:104AE00013D0091DB1EB142F0FD0091DB1EB142FFA
:104AF0000BD0091DB1EB142F07D0091DB1EB142FFA
:104B000003D0091DB1EB142F0FD107212846FCF764
:104B1000ACFE07212046FCF7A8FECDE90076B0EEFA
:104B2000480A2021149B0A9A6CE0B0EB152F2CD078
:104B3000B9EB152F29D0BAEB152F26D0BBEB152FCB
:104B400023D0DFF878E4BEEB152F00E05EE01CD048
:104B50000EF10403B3EB152F17D01B1DB3EB152F6C
:104B600013D003F1040CBCEB152F0ED00CF104088C
:104B7000B8EB152F09D008F10408B8EB152F04D0B5
:104B800008F10408B8EB152F0BD107212846FCF7D4
:104B90006CFECDE90076B0EE480A7221149B0A9AA9
:104BA00030E0B0EB142F22D0B9EB142F1FD0BAEBAA
:104BB000142F1CD0BBEB142F19D0BEEB142F16D022
:104BC000FE48001DB0EB142F11D0B3EB142F0ED004
:104BD000BCEB142F0BD0F9481030B0EB142F06D0DB
:104BE000001DB0EB142F02D0B8EB142F0DD107210C
:104BF0002046FCF73AFECDE90076149B0A9AB0EE07
:104C0000480A7421EE4800F059FCD6E0ED480999B5
:104C100081427CD1E9481038B0EB152F24D0B9EB94
:104C2000152F21D0BAEB152F1ED0BBEB152F1BD0A3
:104C3000E249B1EB152F17D0091DB1EB152F13D099
:104C4000091DB1EB152F0FD0091DB1EB152F0BD09E
:104C5000091DB1EB152F07D0091DB1EB152F03D09E
:104C6000091DB1EB152F37D1B0EB142F24D0B9EBC0
:104C7000142F21D0BAEB142F1ED0BBEB142F1BD056
:104C8000CE49B1EB142F17D0091DB1EB142F13D05F
:104C9000091DB1EB142F0FD0091DB1EB142F0BD050
:104CA000091DB1EB142F07D0091DB1EB142F03D050
:104CB000091DB1EB142F0FD108212846FCF7D5FDB3
:104CC00008212046FCF7D1FDCDE90076B0EE480A78
:104CD0002021149B0A9A6CE0B0EB152F2CD0B9EB75
:104CE000152F29D0BAEB152F26D0BBEB152F23D0CB
:104CF000DFF8C8E2BEEB152F1ED00EF10403B3EBB4
:104D0000152F19D01B1DB3EB152F15D000E054E063
:104D100003F1040CBCEB152F0ED00CF10408B8EB1A
:104D2000152F09D008F10408B8EB152F04D008F1AD
:104D30000408B8EB152F0BD108212846FCF795FD88
:104D4000CDE90076B0EE480A7221149B0A9A30E051
:104D5000B0EB142F22D0B9EB142F1FD0BAEB142FC5
:104D60001CD0BBEB142F19D0BEEB142F16D09348D8
:104D7000001DB0EB142F11D0B3EB142F0ED0BCEBF1
:104D8000142F0BD08D481030B0EB142F06D0001D1F
:104D9000B0EB142F02D0B8EB142F0DD10821204610
:104DA000FCF763FDCDE90076149B0A9AB0EE480A41
:104DB0007421844800F082FBD6E08348099981423F
:104DC0007ED17E481038B0EB152F24D0B9EB152FCB
:104DD00021D0BAEB152F1ED0BBEB152F1BD0774976
:104DE000B1EB152F17D0091DB1EB152F13D0091DED
:104DF000B1EB152F0FD0091DB1EB152F0BD0091DED
:104E0000B1EB152F07D0091DB1EB152F03D0091DEC
:104E1000B1EB152F37D1B0EB142F24D0B9EB142FF1
:104E200021D0BAEB142F1ED0BBEB142F1BD063493B
:104E3000B1EB142F17D0091DB1EB142F13D0091D9E
:104E4000B1EB142F0FD0091DB1EB142F0BD0091D9E
:104E5000B1EB142F07D0091DB1EB142F03D0091D9E
:104E6000B1EB142F0FD108212846FCF7FEFC0821D6
:104E70002046FCF7FAFCCDE90076B0EE480A202186
:104E8000149B0A9A6CE0B0EB152F2CD0B9EB152FC0
:104E900029D0BAEB152F26D0BBEB152F23D0DFF886
:104EA0001CE1BEEB152F1ED00EF10403B3EB152F42
:104EB00019D01B1DB3EB152F15D003F1040C00E026
:104EC00052E0BCEB152F0ED00CF10408B8EB152FF7
:104ED00009D008F10408B8EB152F04D008F1040834
:104EE000B8EB152F0BD108212846FCF7BEFCCDE905
:104EF0000076B0EE480A7221149B0A9A30E0B0EBBB
:104F0000142F22D0B9EB142F1FD0BAEB142F1CD0C2
:104F1000BBEB142F19D0BEEB142F16D02748001D61
:104F2000B0EB142F11D0B3EB142F0ED0BCEB142F19
:104F30000BD022481030B0EB142F06D0001DB0EB80
:104F4000142F02D0B8EB142F0DD108212046FCF706
:104F50008CFCCDE90076149B0A9AB0EE480A7421C5
:104F6000194800F0ABFAE1E01849099888427DD170
:104F700012481038B0EB152F2FD0B9EB152F2CD0CD
:104F8000BAEB152F29D0BBEB152F26D00B49B1EB6F
:104F9000152F22D0091DB1EB152F1ED0091DB1EB25
:104FA000152F1AD0091DB1EB152F16D0091DB1EB25
:104FB000152F12D0091DB1EB152F09E0100240008A
:104FC00000480040004C00400050004000140140E8
:104FD00003D0091DB1EB152F37D1B0EB142F24D01E
:104FE000B9EB142F21D0BAEB142F1ED0BBEB142F2A
:104FF0001BD0FE49B1EB142F17D0091DB1EB142FB4
:1050000013D0091DB1EB142F0FD0091DB1EB142FD4
:105010000BD0091DB1EB142F07D0091DB1EB142FD4
:1050200003D0091DB1EB142F0FD108212846FCF73E
:105030001CFC08212046FCF718FCCDE90076B0EEF8
:10504000480A2021149B0A9A6CE0B0EB152F2CD053
:10505000B9EB152F29D0BAEB152F26D0BBEB152FA6
:1050600023D0DFF888E3BEEB152F00E05EE01CD014
:105070000EF10403B3EB152F17D01B1DB3EB152F47
:1050800013D003F1040CBCEB152F0ED00CF1040867
:10509000B8EB152F09D008F10408B8EB152F04D090
:1050A00008F10408B8EB152F0BD108212846FCF7AE
:1050B000DCFBCDE90076B0EE480A7221149B0A9A17
:1050C00030E0B0EB142F22D0B9EB142F1FD0BAEB85
:1050D000142F1CD0BBEB142F19D0BEEB142F16D0FD
:1050E000C248001DB0EB142F11D0B3EB142F0ED01B
:1050F000BCEB142F0BD0BD481030B0EB142F06D0F2
:10510000001DB0EB142F02D0B8EB142F0DD10821E5
:105110002046FCF7AAFBCDE90076149B0A9AB0EE74
:10512000480A7421B24800F0C9F9D3E0B14809999E
:1051300081427DD1AD481038B0EB152F26D0B9EBA8
:10514000152F23D0BAEB152F20D0BBEB152F1DD078
:10515000A649B1EB152F19D0091DB1EB152F15D0AC
:10516000091D00E01CE1B1EB152F0FD0091DB1EBBB
:10517000152F0BD0091DB1EB152F07D0091DB1EB71
:10518000152F03D0091DB1EB152F37D1B0EB142F1C
:1051900024D0B9EB142F21D0BAEB142F1ED0BBEBC7
:1051A000142F1BD09149B1EB142F17D0091DB1EB6F
:1051B000142F13D0091DB1EB142F0FD0091DB1EB23
:1051C000142F0BD0091DB1EB142F07D0091DB1EB23
:1051D000142F03D0091DB1EB142F0FD1082128463D
:1051E000FCF743FB08212046FCF73FFBCDE90076A6
:1051F000B0EE480A2021149B0A9A69E08646B0EB7B
:10520000152F2BD0B9EB152F28D0BAEB152F25D0A1
:105210005846BBEB152F21D07449B1EB152F1DD08B
:105220000A1DB2EB152F19D0131DB3EB152F00E09B
:1052300050E013D003F1040CBCEB152F0ED00CF191
:105240000408B8EB152F09D008F1040BBBEB152FA0
:1052500004D00BF10408B8EB152F0BD10821284618
:10526000FCF703FBCDE90076B0EE480A7221149BEF
:105270000A9A2DE0BEEB142F1FD0B9EB142F1CD0CF
:10528000BAEB142F19D0B0EB142F16D0B1EB142FAA
:1052900013D0B2EB142F10D0B3EB142F0DD0BCEB06
:1052A000142F0AD051481030B0EB142F05D0BBEBAF
:1052B000142F02D0B8EB142F72D108212046FCF72E
:1052C000D4FACDE90076149B0A9AB0EE480A74210C
:1052D0004848A9E048480999814261D143481038BB
:1052E000B0EB152F24D0B9EB152F21D0BAEB152F29
:1052F0001ED0BBEB152F1BD03C49B1EB152F17D09F
:10530000091DB1EB152F13D0091DB1EB152F0FD0CF
:10531000091DB1EB152F0BD0091DB1EB152F07D0CF
:10532000091DB1EB152F03D0091DB1EB152F38D195
:10533000B0EB142F24D0B9EB142F21D0BAEB142FDB
:105340001ED0BBEB142F1BD02849B1EB142F17D064
:10535000091DB1EB142F13D0091DB1EB142F0FD081
:10536000091DB1EB142F0BD0091DB1EB142F07D081
:10537000091DB1EB142F03D0091DB1EB142F10D16F
:1053800008212846FCF771FA08212046FCF76DFA3F
:10539000CDE90076B0EE480A2021149B0A9A42E03B
:1053A00044E08646B0EB152F32D0B9EB152F2FD045
:1053B000BAEB152F2CD05846BBEB152F28D00B4934
:1053C000B1EB152F24D00A1DB2EB152F20D0131DE1
:1053D000B3EB152F1CD003F1040CBCEB152F17D029
:1053E0000CF1040BBBEB152F12D007E010024000AC
:1053F0000014014000780040007C00400BF10408DC
:10540000B8EB152F04D008F10408B8EB152F13D111
:1054100008212846FCF729FACDE90076149B0A9A60
:10542000B0EE480A72211B4800F048F803B0BDEC0A
:10543000028B06B0BDE8F08FBEEB142F1ED0B9EB87
:10544000142F1BD0BAEB142F18D0B0EB142F15D09B
:10545000B1EB142F12D0B2EB142F0FD0B3EB142FEB
:105460000CD0BCEB142F09D0BBEB142F06D00A488C
:10547000B0EB142F02D0B8EB142FD7D1082120465F
:10548000FCF7F3F9CDE90076B0EE480A7421149BDD
:105490000A9AC8E7007C0040240240000A0A012161
:1054A0009140C943018070470029818902D041F4AD
:1054B000005101E021F40051818170472DE9FF4F37
:1054C0000E462DED020B0446584A59485949DFF85B
:1054D0006881DFF86891DFF868A1DFF868B194426D
:1054E0002DED028B85B0B0EE408ADDE9167504D152
:1054F00001211020FEF7E0FA2EE0844204D10121C0
:105500004804FEF7CDFA06E08C4204D1012188045C
:10551000FEF7C6FA06E0444504D10121C804FEF7AF
:10552000BFFA06E04C4504D101210805FEF7B8FAA0
:1055300006E0544504D101212020FEF7BDFA04E025
:105540005C4502D10121880704E03F48844203D131
:1055500001214005FEF7A4FA722E3BD0522E39D01D
:10556000742E39D0542E37D05FF00C00ADF80A00FD
:105570000B9800900C9A00204FF48051092A2DD0EE
:10558000ADF804006F2F2CD04F2F2AD0652F2BD0D1
:10559000452F29D0ADF8080018EE102AB2F17C5F33
:1055A0002CD018EE101AB1F17F5F22D018EE101A2D
:1055B000B1F1804F20D0ADF80600722D21D0522DD0
:1055C0001FD0632D20D0432D1ED0612D1FD0412D23
:1055D0001DD01EE00420C9E70820C7E7ADF804107D
:1055E000D0E74FF4C06201E04FF48062ADF80820CC
:1055F000D2E74FF4405101E04FF40051ADF80610EE
:10560000DBE74FF4807004E04FF4007001E04FF4EA
:105610004070ADF80C006946204600F05DF805B01A
:10562000BDEC028B06B0BDE8F08F00000010014019
:105630000044004000480040004C00400050004042
:105640000014014000780040007C0040002A828A5B
:1056500001D00A4300E08A4382827047024600205C
:1056600012880A4200D00120704730B501F01F02B5
:1056700001240025C1F3421304FA02F2012B0FD0DA
:10568000022B0FD0838A4FEA11210088134204FABB
:1056900001F400EA040001D000B10125284630BD24
:1056A0008389F0E7038AEEE710B5C1F3421301F0F6
:1056B0001F040121A140012B07D0022B07D0143079
:1056C000002A026805D00A4304E00C30F8E71030E5
:1056D000F6E78A43026010BD7FB50446008A0D4696
:1056E00020F44051E88808432082A08941F20C61EF
:1056F0008843A9882A8911436A8902431143A181F9
:10570000A08A20F44071A8890843A0826846FEF769
:10571000DFF91A48844202D01948844201D1039823
:1057200000E00298A189090400EBC00101EB001020
:10573000296801D5490000E08900B0FBF1F264203E
:10574000B2FBF0F109010B096FF018056B4302EB96
:105750008302A3891D044FF0320306D503EBC20276
:10576000B2FBF0F000F0070005E003EB0212B2FB21
:10577000F0F000F00F00084320817FBD00100140D1
:10578000001401408088C0F308007047C1F308018D
:105790008180704710B5FCF7E3FBBDE81040FBF7D4
:1057A000BBBD10B500F038F860B1012804D0022864
:1057B0000CD0032816D10FE000F028F8012801D002
:1057C000FFF7E8FFBDE81040FAF7E8BF00F01EF869
:1057D000032801D1FFF7DEFFFBF7F8FDBDE810401D
:1057E000FAF7F0BF10BD0000024A002142F8201075
:1057F000704700006801002003490968884301D010
:105800000020704701207047640100200148407863
:1058100070470000980100200148007870470000A0
:105820009801002008B50168C07809BA21F0FF018D
:10583000014300EE101ADFED130A1148B8EEC00A5A
:10584000016020EE200A8DED000A017919B980ED82
:10585000020A0121017190ED030ADDED000A30EE2C
:10586000C00ADFED090A20EE200A80ED040A90ED5F
:10587000020ADDED000A30EEC00A80ED030A08BD21
:10588000D0010020D30237B900007A441421014826
:10589000FAF7AFBCD00100200FB4054B10B503A937
:1058A000044A029800F0DAF810BC5DF814FB00001E
:1058B00081620008B001002002E008C8121F08C180
:1058C000002AFAD170477047002001E001C1121F81
:1058D000002AFBD1704700002DE9FF5F82B0002154
:1058E000DDE90430020DDDF840B0034318D044F682
:1058F0001050A2F2FF3242431514119801281FD014
:10590000A5EB0B00401C5FEA000A4FF000064E4F6B
:10591000DFF83891B046504615D5CAF1000413E0BF
:10592000119801244AA3012801D16FEA0B010298C2
:10593000119AC0E90031C0E9024206B0BDE8F09F0B
:10594000CBF10000DFE704460021404A491842EB52
:105950000450CDE9001012E0E00707D032463B4684
:1059600040464946FAF750FC8046894632463B4657
:1059700010461946FAF748FC06460F466410002CFC
:10598000EAD1DDE90401DDE90023BAF1000F06DA0E
:10599000FAF73AFC42464B46FAF736FC05E0FAF7CE
:1059A000A5FC42464B46FAF7A1FC04460E460022EF
:1059B000284BFAF76DFE03D84FF0FF30014607E0A1
:1059C0000022254B20463146FAF7A3FDFAF748FEA0
:1059D000102409E0002C0ADB0A220023FAF70BFD51
:1059E000039B30321A55641E50EA0102F2D1641C46
:1059F000039AC4F111031444119A012A03D001221D
:105A000008430DD10AE0084304D000204FF0110BE9
:105A1000119072E7A3EB0B056D1E0DE05B4504DDF5
:105A20004FF0000205F1010504E003DA4FF0000237
:105A3000A5F10105002AECD002981199C0E90231C4
:105A4000C0E9004579E70000000014400000F03F85
:105A5000300000000000F0430000E03F2DE9FF4F60
:105A600095B09B468946064600250FE2252877D14A
:105A700000242746F84A0121059400E0044316F863
:105A8000013F203B01FA03F01042F7D130782A2879
:105A900011D06FF02F033078A0F13002092A16D808
:105AA000059A44F0020402EB820203EB4202104426
:105AB000761C0590EFE759F8042B0592002A03DACB
:105AC000504244F40054059044F00204761C3078AF
:105AD0002E2816D116F8010F44F004042A280DD000
