:020000040800F2
:10000000101900204D020008550200085702000890
:10001000590200085B0200085D02000800000000B1
:100020000000000000000000000000005F02000867
:100030006102000800000000630200086502000879
:1000400067020008670200086702000867020008EC
:1000500067020008670200086702000867020008DC
:1000600067020008670200086702000867020008CC
:1000700067020008670200086702000867020008BC
:10008000670200086702000867020008750500089B
:1000900031050008670200086702000867020008CF
:1000A000670200086702000867020008670200088C
:1000B000E5140008670200086702000867020008EC
:1000C000670200086702000867020008670200086C
:1000D0006702000841180008BD1800086702000800
:1000E000850C000867020008670200086702000824
:1000F000670200086702000867020008670200083C
:10010000670200086702000867020008670200082B
:10011000670200086702000811150008670200085E
:10012000670200086702000867020008670200080B
:10013000670200086702000867020008DD05000882
:1001400099050008670200086702000867020008B6
:1001500067020008670200086702000855190008D6
:1001600067020008670200086702000867020008CB
:10017000670200086702000867020008000000002C
:1001800067020008670200086702000867020008AB
:10019000670200086702000867020008670200089B
:1001A00000000000000000006702000800F002F8F4
:1001B00000F03CF80AA090E8000C82448344AAF1C5
:1001C0000107DA4501D100F031F8AFF2090EBAE8C3
:1001D0000F0013F0010F18BFFB1A43F0010318477B
:1001E0001029000030290000103A24BF78C878C1D7
:1001F000FAD8520724BF30C830C144BF04680C602D
:10020000704700000023002400250026103A28BF74
:1002100078C1FBD8520728BF30C148BF0B60704778
:100220001FB502F05FFC1FBD10B510BD00F09FF8B8
:100230001146FFF7F5FF02F03FFC00F0BDF803B4F4
:10024000FFF7F2FF03BC00F0C1F800000948804747
:1002500009480047FEE7FEE7FEE7FEE7FEE7FEE7A8
:10026000FEE7FEE7FEE7FEE704480549054A064BC0
:100270007047000089140008AD0100081005002037
:1002800010190020101500201015002010B5431C77
:1002900002E010F8011B71B18107FAD14FF0013271
:1002A00002C88C1A8C4314EAC211F9D0C01A0A068B
:1002B00003D0C01E10BDC01A10BD0A0401D0801E9C
:1002C00010BD0902FCD0401E10BD4FF000020429F1
:1002D000C0F0128010F0030C00F01B80CCF1040C75
:1002E000BCF1020F18BF00F8012BA8BF20F8022BA9
:1002F000A1EB0C0100F00DB85FEAC17C24BF00F84F
:10030000012B00F8012B48BF00F8012B70474FF07C
:10031000000200B5134694469646203922BFA0E855
:100320000C50A0E80C50B1F12001BFF4F7AF090761
:1003300028BFA0E80C5048BF0CC05DF804EB890052
:1003400028BF40F8042B08BF704748BF20F8022B95
:1003500011F0804F18BF00F8012B704770477047AD
:100360007047000000487047B00400207047754691
:10037000FFF7F8FFAE4605006946534620F0070038
:10038000854618B020B5FFF76FFFBDE820404FF05D
:1003900000064FF000074FF000084FF0000B21F06F
:1003A0000701AC46ACE8C009ACE8C009ACE8C0093C
:1003B000ACE8C0098D46704710B50446AFF3008025
:1003C0002046BDE81040FFF73ABF00000149182061
:1003D000ABBEFEE72600020010B54FF4A06000F0AF
:1003E000E3FE00F02FF80DA000F064F800F092F8A2
:1003F00000F082FE01F0ECF901F0DBF900F026FBE1
:1004000000F05EFB00F04AFF01F0DAF9BDE81040B1
:100410004FF48041074800F067BE000048656C6CEF
:100420006F2066726F6D204B796C696E626F742EEF
:100430000A000000001402408021014800F058BE6C
:10044000001002403EB54E200821CDE90010154CA9
:1004500015490290B7EE000A4FF416532246481C85
:1004600001F0C4FA012240F22551204602F0ADFA13
:1004700002221146262000F057FE0C49A5152A46F7
:10048000A1F1280000F0D7FC09492A46A1F58A709D
:1004900000F0D1FC03B02046BDE83040012102F05D
:1004A0009BB9000000440040050C024040000020C1
:1004B0004001002010B50446FFF7E8FE0146204643
:1004C000BDE81040AFF3008070B50D46064600242D
:1004D00004E0305D00F006F8641CE4B2AC42F8D3EE
:1004E00070BD000001B5084800F0AFFC0028FAD14B
:1004F00001226946044800F0CAFC012240F227713B
:10050000024802F062FA08BD2C00002000440040BE
:100510007047000010B50C21044800F0C3FB022214
:10052000BDE810401146282000F0FEBD0A0C024034
:1005300010B50E4C86B00221204600F06DF900285F
:1005400011D00421204600F073F80949204600F03C
:1005500057F86A460021204600F02EFA0DF10B01F3
:10056000009800F071FA06B010BD00000064004071
:100570000800003210B5074C0121204600F04CF96C
:10058000002805D02046BDE81040012100F050B8F9
:1005900010BD00000064004010B50E4C86B0022172
:1005A000204600F039F9002811D00221204600F041
:1005B0003FF80949204600F023F86A46002120460A
:1005C00000F0FAF90DF10B01009800F077FA06B08F
:1005D00010BD0000006800400800003210B5074C54
:1005E0000121204600F018F9002805D02046BDE87A
:1005F0001040012100F01CB810BD00000068004050
:100600000A4A914202D1002181617047C1F313026D
:100610008B0101D5C26070474B0101D50261704763
:10062000090101D582607047426070477000F03068
:1006300030B5082310240422B1F5007F1DD010DC52
:10064000202929D007DC012921D0042922D008291A
:1006500000D1C46030BD402920D0B1F5807FF9D1F0
:100660000BE00025B1F5004F06D008DCB1F5806F36
:1006700003D0B1F5006FEDD18561426030BDB1F5B9
:10068000803F0DD0B1F5003FF8D1446030BD054941
:10069000816030BDC36030BD036130BD046130BDD9
:1006A000436030BD010101002DE9FE430F460446C1
:1006B000DDE90A89154916481D4616468C4202D1C5
:1006C0000121480603E0844203D10121880600F09D
:1006D00081FD00218DF804808DF808108DF80590BB
:1006E0008DF80A10ADF800708DF8061001208DF815
:1006F00002608DF807108DF80B008DF803506946E5
:10070000204600F0E5F8BDE8FE83000000640040EC
:1007100000680040F0B5827A012191402E4A1368AA
:1007200043F0010313602C4B1C331C688C431C608A
:10073000294D067B294C0C35A6B92E688E432E60B8
:100740004688C78846EA0746877A04EBC707C7F892
:1007500040660688878846EA0746877A04EBC7071B
:10076000C7F84466067B012E12D12E680E432E6018
:10077000867A056804EBC6064FEA3545C6F840564A
:10078000867A456804EBC6044FEA3545C4F84456FA
:10079000114CC57A241D002D256806D00D43256017
:1007A0000D4C0589143415B104E08D43F7E7256835
:1007B0008D4325600589012D02D125680D432560F3
:1007C000407B012802D1186808431860106820F0A7
:1007D00001001060F0BD00000066004000600040B5
:1007E0007FB5DDE90845ADF80000ADF808408DF8AB
:1007F0000A5000208DF80B0001208DF80C00ADF898
:1008000004208DF80D00ADF80210ADF806306846F2
:10081000FFF780FF7FBD00000246002053690B42B6
:100820004AD0B1F5807F3BD013DC08292ED007DCFD
:10083000012926D0022927D004293DD1D0682BE0F8
:10084000102925D0202926D0402935D11069102122
:1008500030E0B1F5004F2BD00BDCB1F5007F22D09A
:10086000B1F5806F22D0B1F5006F25D1906970216C
:1008700020E0B1F5803F11D0B1F5003F1CD15068A8
:10088000E5E790680D4915E0D06802E0D068DEE742
:10089000106903210EE0106908210BE05068FBE7A6
:1008A0009069012106E09069022103E0906900E06F
:1008B0005068042100F03CB97047000001010100BC
:1008C000002A426901D00A4300E08A43426170472E
:1008D00010B50368002223F002030360036843F0AD
:1008E000010303604FF6FF7300E0521C4468E40705
:1008F00001D19A42F9D14268D2073ED08A79012AC1
:1009000002683CD022F080020260CA79012A0268A3
:1009100038D022F0400202600A7A012A026834D0FC
:1009200022F0200202604A7A012A026830D022F0C6
:10093000100202608A7A012A02682CD022F0080292
:100940000260CA7A012A026828D022F004020260FA
:100950008A78CC78920742EA04620C7942EA04422F
:100960004C79098842EA0452491E0A43C26101686F
:1009700021F001010160002114E0002010BD42F0CF
:100980008002C1E742F04002C5E742F02002C9E719
:1009900042F01002CDE742F00802D1E742F0040233
:1009A000D5E7491C4268D20701D09942F9D1406885
:1009B000C007E2D1012010BD10B500EB0113D3F840
:1009C000B04114F004041472D3F8B04134D0E408F8
:1009D000C2F80440D3F8B04104F002045472D3F8D2
:1009E000B44104F00F049472D3F8B441240AD474CF
:1009F000D3F8B841D472D3F8B841240A1473D3F8A9
:100A0000B841240C5473D3F8B841240E9473D3F82E
:100A1000BC41D473D3F8BC41240A1474D3F8BC414C
:100A2000240C5474D3F8BC311B0E937439B1016992
:100A300041F02001016110BD640D1460CAE7C16876
:100A400041F02001C16010BD704700001CB50921B4
:100A5000184800F039FA17480921401C00F034FA10
:100A600000220121142000F05FFB02221146132016
:100A700000F05AFB032108200F4CCDE900010023B0
:100A800001222046FFF710FE002100910B460A4686
:100A900008460191FFF7A4FE012202212046FFF73C
:100AA0000FFF02B020460122BDE810401146FFF7BB
:100AB00007BF0000000C02400064004070470000C7
:100AC0001CB50921184800F0FFF917480921401CFE
:100AD00000F0FAF900220121402000F025FB02225B
:100AE00011463F2000F020FB032108200F4CCDE9E8
:100AF0000001002301222046FFF7D6FD00200E2131
:100B0000CDE90001034602460146FFF769FE0122D6
:100B100002212046FFF7D4FE02B020460122BDE8A4
:100B200010401146FFF7CCBE0C04024000680040A4
:100B3000024600200A4200D0012070470148406868
:100B4000704700000000002007484FF47A720168E7
:100B5000491CB1FBF2F3016002FB1311002902D121
:100B60004168491C4160704700000020002901686D
:100B700002D041F0010101E021F001010160704764
:100B80002DE9F0438FB00446DDE9168916481D466D
:100B900016460F46A04303D10121480500F00EFB85
:100BA0001248A04303D10121880500F007FB002172
:100BB0004FF48060CDE905108010CDE908104FF4A6
:100BC00040300791CDE90A010C910D910E9102AAD6
:100BD000694682E82003CDE90076204600F028F837
:100BE0000FB0BDE8F08300000060024000640240E6
:100BF0000029016802D041F4802101E021F4802124
:100C000001607047002A026802D042F4002201E02D
:100C100022F40022026001617047406880B2704790
:100C2000014600200968090300D501207047000033
:100C300030B50368124ACC6813400A682243D1E9F0
:100C400005452C432243CC6922430C6A22434C6A5B
:100C500022438C6A22434C6B22438C6B22431A43FF
:100C60000260426922F00703D1E90B2422431A43B0
:100C700042610A6942604A6882608968C16030BD29
:100C80003F801CF010B54FF48064204600F086F8D9
:100C9000002806D0204600F067F8BDE81040FFF7B6
:100CA00037BC10BD2DE9F04104462E488846B0EB14
:100CB000142F01D100263FE02A48001DB0EB142F6D
:100CC00001D1012638E027480830B0EB142F01D1BC
:100CD000022631E023480C30B0EB142F01D103265B
:100CE0002AE020481030B0EB142F01D1042623E075
:100CF0001C481430B0EB142F01D105261CE0194814
:100D00001830B0EB142F01D1062615E015481C3021
:100D1000B0EB142F01D107260EE012482030B0EBC3
:100D2000142F01D1082607E00E482430B0EB142F11
:100D300001D1092600E00A2604F00F050127AF4083
:100D40000121880300F052FA204600F05BF92946A1
:100D5000304600F0EDFA42463846BDE8F041002149
:100D600000F008B800024000014908607047000028
:100D7000143C01407CB50D4606460121144688030B
:100D800000F034FA8DF804508DF8054001208DF8FC
:100D900006000096684600F00BF87CBD034A014649
:100DA000002012680A4200D001207047143C014024
:100DB00030B51A498379026853B30B6893430B60CB
:100DC0000A1D13680468A343136002790A44136878
:100DD000046823431360114A083213680468A3436C
:100DE0001360131D1C680568AC431C604479102C0B
:100DF00005D021440A68006802430A6030BD1168CA
:100E0000046821431160196800680143196030BD0E
:100E10000079084401689143016030BD003C014005
:100E200010B50446D4E90001FFF74FFA0020A06096
:100E3000E060206110BDC0E90012FFF7F1BF00695A
:100E400008B1002070470120704701694068814265
:100E500001D10120704700207047F0B500231D46E6
:100E60000EE084680768661C86603C5DCC54D0E95F
:100E70000146A64200D185600469641E5B1C0461C2
:100E8000934202D20469002CEBD11846F0BDF0B5B4
:100E900000231D4610E0C4680768CE5C04F1010C15
:100EA000C0F80CC03E554668C468B44200D1C56065
:100EB0000469641C5B1C0461934203D246680469A4
:100EC000B442E8D11846F0BD38B50A46044600F0F1
:100ED0000F0120F0FF0000F0F7F800200346022287
:100EE00000901146204600F001F838BD2DE9FF4F73
:100EF000054620F0FF04384A38483949394E3A4F00
:100F0000DFF8E880DFF8E890DFF8E8A0DFF8E8B085
:100F100083B0944202D1012108463CE0844204D1CE
:100F20000121022000F04AF906E08C4204D101219F
:100F3000042000F043F906E0B44204D10121082066
:100F400000F03CF906E0BC4204D10121102000F081
:100F500035F906E0444504D10121202000F02EF9A6
:100F600006E04C4504D10121402000F027F906E0BD
:100F7000544504D10121802000F020F906E05C45B1
:100F800004D10121080200F019F907E01B4884424E
:100F900004D10121401500F011F905E01848844200
:100FA00002D101210015F6E705F00F01012088406C
:100FB000009004988DF8040005988DF805000698B7
:100FC0008DF8060010988DF807006946204600F05D
:100FD00021F807B0BDE8F08F000002400004024095
:100FE00000080240000C02400010024000140240C1
:100FF00000180240001C0240002002400024024071
:101000000028024008B50021012302220091FFF7C9
:101010006DFF08BDF0B50023012403270D6804FA15
:1010200003F21540954242D1D0F800C05E0007FAA5
:1010300006F52CEA050CC0F800C091F804C0D0F801
:1010400000E00CFA06FC4CEA0E0CC0F800C091F867
:1010500004C0BCF1010F02D0BCF1020F1FD1D0F8C7
:1010600008C02CEA050CC0F808C091F805C0D0F8FB
:1010700008E00CFA06FC4CEA0E0CC0F808C0D0F8E8
:1010800004C02CEA020CC0F804C0426891F806C003
:101090000CFA03FC1FFA8CFC42EA0C024260C268A4
:1010A000AA43C260CA79C568B2402A43C2605B1CC9
:1010B000102BB3D3F0BD08B500210B4600910222DE
:1010C0000121FFF713FF08BD4B07DB0E9A40C9084B
:1010D00010B500EB8100016A0F249C40A14301621E
:1010E000016A1143016210BD41837047018370475B
:1010F00042694A404261704710B50948FFF7DBFF7B
:101100000848FFF7D8FF06484FF480410E38FFF734
:10111000EDFF04488021BDE81040C01FFFF7E6BF87
:101120000E1402400710024008B58DF800008DF83B
:1011300001108DF8022001208DF80300684600F0B0
:1011400001F808BD30B50F22C47801780123FCB145
:10115000144C246801F1E02104F4E064C4F5E06477
:10116000C4F30724C4F10405E2404478AC40857818
:10117000154025432A0181F80024007800F01F0162
:101180008B404009800000F1E020C0F8003130BD04
:1011900001F01F0083404809800000F1E020C0F802
:1011A000803130BD0CED00E002490843024908607F
:1011B000704700000000FA050CED00E0044A002929
:1011C000116801D0014300E08143116070470000C5
:1011D00030380240044A0029116801D0014300E080
:1011E000814311607047000040380240044A0029E2
:1011F000116801D0014300E0814311607047000095
:101200004438024070B5204A1168204C11F00C019E
:1012100004D01F4E042903D0082903D004601BE02A
:10122000066019E01849091F0B68C3F380550B6865
:1012300003F03F0315B1B6FBF3F301E0B4FBF3F3A6
:101240000C680968C4F388146343C1F30141491C65
:101250004900B3FBF1F1016011680F2303EA11119A
:101260000C4B5C5C0168E14041601468072505EAAD
:1012700094241C5D21FA04F48460126805EA523259
:101280009A5CD140C16070BD083802400024F4006F
:10129000001BB70008000020704700003EB54E223A
:1012A000452108208DE807001D4CB7EE000A1B4BB6
:1012B000224600211B4800F099FB012240212046D4
:1012C00001F05CFB24210020CDE90001174D221D17
:1012D000154B51062846FFF753FC134900222431D1
:1012E0002846FFF78FFC01212846FFF781FC0121EA
:1012F0002846FFF73BFC012200212520FFF714FFC1
:10130000012240F22441204601F05FFB03B0204659
:10131000BDE83040012101F05FBA0000A086010065
:1013200000100140070402404002002040640240D7
:1013300010B58A0721F003040849130F21440F2236
:10134000D1F808489A409443C1F80848D1F80828D1
:1013500098400243C1F8082810BD00000030014049
:101360001CB500202E49019000900A6842F480329A
:101370000A604FF4A0430A6802F400320092019A16
:10138000521C0192009A12B9019A9A42F3D10A684A
:10139000920342D50120009021484030026842F07B
:1013A000805202601F48026842F4404202601C4AB8
:1013B000083213681360136843F400431360136822
:1013C00043F4A0531360141F174B23600B6843F0C2
:1013D00080730B600B689B01FCD5016841F4803180
:1013E00001604168C903FCD5016841F40031016026
:1013F00041688903FCD50D4940F20570086010680A
:1014000020F003001060106840F0020010601068C7
:10141000C0F381000228FAD11CBD00901CBD000061
:1014200000380240007000400C544007003C02406D
:10143000704700001CB500200090024601904FF458
:101440007A735321054800F095F802B00122BDE8F7
:10145000104011463620FFF767BE00000010004024
:1014600010B5084C0121204600F07AF801221146FF
:10147000204600F02DF92046BDE81040012100F083
:1014800069B8000000100040124810B5016841F42E
:10149000700101601048016841F0010101600E4ACD
:1014A00000210832116002680C4B1A400260031DD3
:1014B0000B4A1A60026822F48022026006480C304F
:1014C0000160FFF74DFF03494FF00060803908606D
:1014D00010BD000088ED00E000380240FFFFF6FE7E
:1014E0001030002410B501218C07204600F0E4F8EC
:1014F00000280BD00121204600F02FF801212046C2
:1015000000F028F8BDE8104000F028B910BD000038
:1015100010B50A4C0121204600F0CEF800280BD06F
:101520000121204600F019F80121204600F012F8B0
:10153000BDE81040FFF77CBF10BD00000010004068
:101540000029018802D041F0800101E021F08001F2
:1015500001807047C94301827047C94301827047C7
:101560000029018802D041F0010101E021F00101D0
:10157000018070472DE9FF4F434904464348444DDD
:10158000444EDFF81481DFF81491DFF814A1DFF87E
:1015900014B183B04FEAB1478C4204D1012108460F
:1015A000FFF724FE0CE0B4F1804F06D0844207D14F
:1015B00001210220FFF70EFE09E00121084645E067
:1015C000AC4204D101210420FFF704FE06E0B4423E
:1015D00004D101210820FFF7FDFD06E0BC4204D143
:1015E00001211020FFF7F6FD06E0444504D101215A
:1015F0002020FFF7EFFD06E04C4504D10121022039
:10160000FFF7F4FD06E0544504D101210804FFF77B
:10161000EDFD06E05C4504D101214804FFF7E6FD3D
:1016200007E02148844204D101218804FFF7DEFD50
:1016300007E01E48844204D101214020FFF7CAFD83
:1016400007E01B48844204D101218020FFF7C2FD3E
:1016500005E01848844202D101218015F6E704987C
:10166000ADF800000598ADF80200069801901098BA
:10167000ADF8080011988DF80A006946204600F080
:101680002FF807B0BDE8F08F0000014000040040D3
:1016900000080040000C004000140040000401401D
:1016A0000040014000440140004801400018004053
:1016B000001C00400020004002460020138A92894E
:1016C0000B4202EA010202D0002A00D0012070473A
:1016D000002A828901D00A4300E08A438281704750
:1016E00030B50288164B174C98420DD0A0420BD053
:1016F000B0F1804F08D0144DA84205D0134DA84238
:1017000002D0134DA84203D122F070054A882A4323
:10171000104DA84206D0104DA84203D022F44075C7
:101720000A892A4302804A68C2620A88028598426E
:1017300001D0A04201D1897A01860121818230BD88
:101740000000014000040140000400400008004087
:10175000000C00400010004000140040FFF7F4B9F6
:101760001CB500200090431E02464FF080440190BB
:1017700053212046FFF7FEFE01212046FFF7E0FE41
:1017800002B00022BDE8104011461C20FFF7CCBC7F
:1017900010B501218C072046FFF7E2FE0122114619
:1017A0002046FFF795FF2046BDE810400121FFF7D6
:1017B000D1BE10B5FFF7D4FFBDE81040FFF73ABE29
:1017C00010B5FFF7E5FFBDE81040FFF749BE7047D1
:1017D0003EB54E200821CDE90010154C1549029068
:1017E000B7EE000A4FF4E1332246481C00F0FEF841
:1017F000012240F22551204601F0E7F8012211466E
:101800004720FFF791FC0C49A5152A46A1F12800B5
:10181000FFF711FB09492A46A1F58A70FFF70BFB78
:1018200003B02046BDE83040012100F0D5BF0000E4
:1018300000140140050C0240B0020020B00300205B
:1018400070B51B4E40F224442146304601F09EF80C
:1018500000282BD0174D2146304600F0B7FF164C1C
:1018600000212046FFF782F92046FFF7D6F9C0F1A4
:10187000240086B22420211D08602046FFF7D0F9FD
:1018800078B12068243520F4002020600121204612
:10189000FFF76CF9122E09D12846BDE87040FFF71A
:1018A000FBBC206840F400202060EFE770BD000022
:1018B0000010014040020020406402407CB5234DEE
:1018C00040F227763146284601F060F80024C0B186
:1018D0001F48FFF7B4FA38B102B031462846BDE8D8
:1018E0007040002201F071B88DF800400122694675
:1018F0001748FFF7B2FA9DF80010284601F0D8F813
:101900007CBD40F22551284601F040F80028F7D070
:10191000284601F0C9F88DF800000D481438FFF78B
:1019200094FA38B10A488DF80440012201A914380C
:10193000FFF793FA0648012269461438FFF7A7FA21
:101940009DF80000FEF778FD7CBD000000440040DB
:101950002C0000207CB5234D40F2277631462846E6
:1019600001F014F80024C0B11F48FFF768FA38B13D
:1019700002B031462846BDE87040002201F025B88B
:101980008DF80040012269461748FFF766FA9DF876
:101990000010284601F08CF87CBD40F22551284605
:1019A00000F0F4FF0028F7D0284601F07DF88DF80C
:1019B00000000D481438FFF748FA38B10A488DF88E
:1019C0000440012201A91438FFF747FA0648012212
:1019D00069461438FFF75BFA9DF80000FFF7F7FE41
:1019E0007CBD0000001401409C0200202DE9FF4F47
:1019F0000C462DED020B05462DED028B83B0B0EEAB
:101A0000408ADDE91576FE49DFF8F893099809F177
:101A1000040A0AF1040B88427ED1A9F10400B0EB5C
:101A2000152F25D0B9EB152F22D0BAEB152F1FD0CB
:101A3000BBEB152F1CD00BF10401B1EB152F17D008
:101A4000091DB1EB152F13D0091DB1EB152F0FD0C8
:101A5000091DB1EB152F0BD0091DB1EB152F07D0C8
:101A6000091DB1EB152F03D0091DB1EB152F38D18E
:101A7000B0EB142F25D0B9EB142F22D0BAEB142FD2
:101A80001FD0BBEB142F1CD0DE490C31B1EB142F4F
:101A900017D0091DB1EB142F13D0091DB1EB142F72
:101AA0000FD0091DB1EB142F0BD0091DB1EB142F72
:101AB00007D0091DB1EB142F03D0091DB1EB142F72
:101AC0000FD107212846FFF7FFF907212046FFF72E
:101AD000FBF9CDE90076B0EE480A2021149B0A9A62
:101AE0006DE0B0EB152F2DD0B9EB152F2AD0BAEB46
:101AF000152F27D0BBEB152F24D0C24B0C33B3EBE3
:101B0000152F1FD003F1040EBEEB152F1AD00EF1C6
:101B10000403B3EB152F00E055E013D003F1040CE0
:101B2000BCEB152F0ED00CF10408B8EB152F09D023
:101B300008F10408B8EB152F04D008F10408B8EB3D
:101B4000152F0BD107212846FFF7BEF9CDE9007606
:101B5000B0EE480A7221149B0A9A30E0B0EB142FC1
:101B600022D0B9EB142F1FD0BAEB142F1CD0BBEB33
:101B7000142F19D0A3480C30B0EB142F14D0BEEBA7
:101B8000142F11D0B3EB142F0ED0BCEB142F0BD0AD
:101B90009C481C30B0EB142F06D0001DB0EB142F66
:101BA00002D0B8EB142F76D107212046FFF78CF92D
:101BB000CDE90076149B0A9AB0EE480A7421904849
:101BC00000F014FED8E001468F4881427DD18D4857
:101BD000001FB0EB152F25D0B9EB152F22D0BAEB93
:101BE000152F1FD0BBEB152F1CD086490C31B1EB44
:101BF000152F17D0091DB1EB152F13D0091DB1EB0F
:101C0000152F0FD0091DB1EB152F0BD0091DB1EB0E
:101C1000152F07D0091DB1EB152F03D0091DB1EB0E
:101C2000152F39D1B0EB142F25D0B9EB142F22D0BA
:101C3000BAEB142F1FD0BBEB142F1CD071490C3101
:101C4000B1EB142F17D0091DB1EB142F13D0091DC0
:101C5000B1EB142F0FD0091DB1EB142F0BD0091DC0
:101C6000B1EB142F07D0091DB1EB142F03D0091DC0
:101C7000B1EB142F10D107212846FFF725F90721D2
:101C80002046FFF721F9CDE90076B0EE480A202181
:101C9000149B0A9A6CE0FDE3B0EB152F2DD0B9EB45
:101CA000152F2AD0BAEB152F27D0BBEB152F24D038
:101CB000544A0C32B2EB152F1FD002F1040EBEEBCA
:101CC000152F1AD00EF1040300E055E0B3EB152FE9
:101CD00013D003F1040CBCEB152F0ED00CF104084B
:101CE000B8EB152F09D008F10408B8EB152F04D074
:101CF00008F10408B8EB152F0BD107212846FFF790
:101D0000E3F8CDE90076B0EE480A7221149B0A9AF6
:101D10002EE0B0EB142F20D0B9EB142F1DD0BAEB6E
:101D2000142F1AD0BBEB142F17D0B2EB142F14D0F2
:101D3000BEEB142F11D0B3EB142F0ED0BCEB142F2D
:101D40000BD030481C30B0EB142F06D0001DB0EB88
:101D5000142F02D0B8EB142F0DD107212046FFF726
:101D6000B3F8CDE90076149B0A9AB0EE480A7421C4
:101D7000254800F03BFDE1E02449099888427DD1E7
:101D80002048001FB0EB152F25D0B9EB152F22D01E
:101D9000BAEB152F1FD0BBEB152F1CD019490C31F6
:101DA000B1EB152F17D0091DB1EB152F13D0091D5D
:101DB000B1EB152F0FD0091DB1EB152F0BD0091D5D
:101DC000B1EB152F07D0091DB1EB152F03D0091D5D
:101DD000B1EB152F41D1B0EB142F2ED0B9EB142F4E
:101DE0002BD0BAEB142F28D0BBEB142F25D00549EC
:101DF0000C31B1EB142F20D0091DB1EB142F07E0EB
:101E0000001001400402400000440040004800402F
:101E100013D0091DB1EB142F0FD0091DB1EB142FF6
:101E20000BD0091DB1EB142F07D0091DB1EB142FF6
:101E300003D0091DB1EB142F0FD107212846FFF75E
:101E400043F807212046FFF73FF8CDE90076B0EED2
:101E5000480A2021149B0A9A6CE0B0EB152F2CD075
:101E6000B9EB152F29D0BAEB152F26D0BBEB152FC8
:101E700023D0DFF878E4BEEB152F00E05EE01CD045
:101E80000EF10403B3EB152F17D01B1DB3EB152F69
:101E900013D003F1040CBCEB152F0ED00CF1040889
:101EA000B8EB152F09D008F10408B8EB152F04D0B2
:101EB00008F10408B8EB152F0BD107212846FFF7CE
:101EC00003F8CDE90076B0EE480A7221149B0A9A15
:101ED00030E0B0EB142F22D0B9EB142F1FD0BAEBA7
:101EE000142F1CD0BBEB142F19D0BEEB142F16D01F
:101EF000FE48001DB0EB142F11D0B3EB142F0ED001
:101F0000BCEB142F0BD0F9481030B0EB142F06D0D7
:101F1000001DB0EB142F02D0B8EB142F0DD1072108
:101F20002046FEF7D1FFCDE90076149B0A9AB0EE69
:101F3000480A7421EE4800F059FCD6E0ED480999B2
:101F400081427CD1E9481038B0EB152F24D0B9EB91
:101F5000152F21D0BAEB152F1ED0BBEB152F1BD0A0
:101F6000E249B1EB152F17D0091DB1EB152F13D096
:101F7000091DB1EB152F0FD0091DB1EB152F0BD09B
:101F8000091DB1EB152F07D0091DB1EB152F03D09B
:101F9000091DB1EB152F37D1B0EB142F24D0B9EBBD
:101FA000142F21D0BAEB142F1ED0BBEB142F1BD053
:101FB000CE49B1EB142F17D0091DB1EB142F13D05C
:101FC000091DB1EB142F0FD0091DB1EB142F0BD04D
:101FD000091DB1EB142F07D0091DB1EB142F03D04D
:101FE000091DB1EB142F0FD108212846FEF76CFF15
:101FF00008212046FEF768FFCDE90076B0EE480ADA
:102000002021149B0A9A6CE0B0EB152F2CD0B9EB71
:10201000152F29D0BAEB152F26D0BBEB152F23D0C7
:10202000DFF8C8E2BEEB152F1ED00EF10403B3EBB0
:10203000152F19D01B1DB3EB152F15D000E054E060
:1020400003F1040CBCEB152F0ED00CF10408B8EB17
:10205000152F09D008F10408B8EB152F04D008F1AA
:102060000408B8EB152F0BD108212846FEF72CFFEA
:10207000CDE90076B0EE480A7221149B0A9A30E04E
:10208000B0EB142F22D0B9EB142F1FD0BAEB142FC2
:102090001CD0BBEB142F19D0BEEB142F16D09348D5
:1020A000001DB0EB142F11D0B3EB142F0ED0BCEBEE
:1020B000142F0BD08D481030B0EB142F06D0001D1C
:1020C000B0EB142F02D0B8EB142F0DD1082120460D
:1020D000FEF7FAFECDE90076149B0A9AB0EE480AA4
:1020E0007421844800F082FBD6E08348099981423C
:1020F0007ED17E481038B0EB152F24D0B9EB152FC8
:1021000021D0BAEB152F1ED0BBEB152F1BD0774972
:10211000B1EB152F17D0091DB1EB152F13D0091DE9
:10212000B1EB152F0FD0091DB1EB152F0BD0091DE9
:10213000B1EB152F07D0091DB1EB152F03D0091DE9
:10214000B1EB152F37D1B0EB142F24D0B9EB142FEE
:1021500021D0BAEB142F1ED0BBEB142F1BD0634938
:10216000B1EB142F17D0091DB1EB142F13D0091D9B
:10217000B1EB142F0FD0091DB1EB142F0BD0091D9B
:10218000B1EB142F07D0091DB1EB142F03D0091D9B
:10219000B1EB142F0FD108212846FEF795FE082138
:1021A0002046FEF791FECDE90076B0EE480A2021E8
:1021B000149B0A9A6CE0B0EB152F2CD0B9EB152FBD
:1021C00029D0BAEB152F26D0BBEB152F23D0DFF883
:1021D0001CE1BEEB152F1ED00EF10403B3EB152F3F
:1021E00019D01B1DB3EB152F15D003F1040C00E023
:1021F00052E0BCEB152F0ED00CF10408B8EB152FF4
:1022000009D008F10408B8EB152F04D008F1040830
:10221000B8EB152F0BD108212846FEF755FECDE966
:102220000076B0EE480A7221149B0A9A30E0B0EBB7
:10223000142F22D0B9EB142F1FD0BAEB142F1CD0BF
:10224000BBEB142F19D0BEEB142F16D02748001D5E
:10225000B0EB142F11D0B3EB142F0ED0BCEB142F16
:102260000BD022481030B0EB142F06D0001DB0EB7D
:10227000142F02D0B8EB142F0DD108212046FEF701
:1022800023FECDE90076149B0A9AB0EE480A742129
:10229000194800F0ABFAE1E01849099888427DD16D
:1022A00012481038B0EB152F2FD0B9EB152F2CD0CA
:1022B000BAEB152F29D0BBEB152F26D00B49B1EB6C
:1022C000152F22D0091DB1EB152F1ED0091DB1EB22
:1022D000152F1AD0091DB1EB152F16D0091DB1EB22
:1022E000152F12D0091DB1EB152F09E01002400087
:1022F00000480040004C00400050004000140140E5
:1023000003D0091DB1EB152F37D1B0EB142F24D01A
:10231000B9EB142F21D0BAEB142F1ED0BBEB142F26
:102320001BD0FE49B1EB142F17D0091DB1EB142FB0
:1023300013D0091DB1EB142F0FD0091DB1EB142FD1
:102340000BD0091DB1EB142F07D0091DB1EB142FD1
:1023500003D0091DB1EB142F0FD108212846FEF739
:10236000B3FD08212046FEF7AFFDCDE90076B0EEC3
:10237000480A2021149B0A9A6CE0B0EB152F2CD050
:10238000B9EB152F29D0BAEB152F26D0BBEB152FA3
:1023900023D0DFF888E3BEEB152F00E05EE01CD011
:1023A0000EF10403B3EB152F17D01B1DB3EB152F44
:1023B00013D003F1040CBCEB152F0ED00CF1040864
:1023C000B8EB152F09D008F10408B8EB152F04D08D
:1023D00008F10408B8EB152F0BD108212846FEF7A9
:1023E00073FDCDE90076B0EE480A7221149B0A9A7B
:1023F00030E0B0EB142F22D0B9EB142F1FD0BAEB82
:10240000142F1CD0BBEB142F19D0BEEB142F16D0F9
:10241000C248001DB0EB142F11D0B3EB142F0ED017
:10242000BCEB142F0BD0BD481030B0EB142F06D0EE
:10243000001DB0EB142F02D0B8EB142F0DD10821E2
:102440002046FEF741FDCDE90076149B0A9AB0EED6
:10245000480A7421B24800F0C9F9D3E0B14809999B
:1024600081427DD1AD481038B0EB152F26D0B9EBA5
:10247000152F23D0BAEB152F20D0BBEB152F1DD075
:10248000A649B1EB152F19D0091DB1EB152F15D0A9
:10249000091D00E01CE1B1EB152F0FD0091DB1EBB8
:1024A000152F0BD0091DB1EB152F07D0091DB1EB6E
:1024B000152F03D0091DB1EB152F37D1B0EB142F19
:1024C00024D0B9EB142F21D0BAEB142F1ED0BBEBC4
:1024D000142F1BD09149B1EB142F17D0091DB1EB6C
:1024E000142F13D0091DB1EB142F0FD0091DB1EB20
:1024F000142F0BD0091DB1EB142F07D0091DB1EB20
:10250000142F03D0091DB1EB142F0FD10821284639
:10251000FEF7DAFC08212046FEF7D6FCCDE900766E
:10252000B0EE480A2021149B0A9A69E08646B0EB77
:10253000152F2BD0B9EB152F28D0BAEB152F25D09E
:102540005846BBEB152F21D07449B1EB152F1DD088
:102550000A1DB2EB152F19D0131DB3EB152F00E098
:1025600050E013D003F1040CBCEB152F0ED00CF18E
:102570000408B8EB152F09D008F1040BBBEB152F9D
:1025800004D00BF10408B8EB152F0BD10821284615
:10259000FEF79AFCCDE90076B0EE480A7221149B52
:1025A0000A9A2DE0BEEB142F1FD0B9EB142F1CD0CC
:1025B000BAEB142F19D0B0EB142F16D0B1EB142FA7
:1025C00013D0B2EB142F10D0B3EB142F0DD0BCEB03
:1025D000142F0AD051481030B0EB142F05D0BBEBAC
:1025E000142F02D0B8EB142F72D108212046FEF729
:1025F0006BFCCDE90076149B0A9AB0EE480A742170
:102600004848A9E048480999814261D143481038B7
:10261000B0EB152F24D0B9EB152F21D0BAEB152F25
:102620001ED0BBEB152F1BD03C49B1EB152F17D09B
:10263000091DB1EB152F13D0091DB1EB152F0FD0CC
:10264000091DB1EB152F0BD0091DB1EB152F07D0CC
:10265000091DB1EB152F03D0091DB1EB152F38D192
:10266000B0EB142F24D0B9EB142F21D0BAEB142FD8
:102670001ED0BBEB142F1BD02849B1EB142F17D061
:10268000091DB1EB142F13D0091DB1EB142F0FD07E
:10269000091DB1EB142F0BD0091DB1EB142F07D07E
:1026A000091DB1EB142F03D0091DB1EB142F10D16C
:1026B00008212846FEF708FC08212046FEF704FC06
:1026C000CDE90076B0EE480A2021149B0A9A42E038
:1026D00044E08646B0EB152F32D0B9EB152F2FD042
:1026E000BAEB152F2CD05846BBEB152F28D00B4931
:1026F000B1EB152F24D00A1DB2EB152F20D0131DDE
:10270000B3EB152F1CD003F1040CBCEB152F17D025
:102710000CF1040BBBEB152F12D007E010024000A8
:102720000014014000780040007C00400BF10408D8
:10273000B8EB152F04D008F10408B8EB152F13D10E
:1027400008212846FEF7C0FBCDE90076149B0A9AC3
:10275000B0EE480A72211B4800F048F803B0BDEC07
:10276000028B06B0BDE8F08FBEEB142F1ED0B9EB84
:10277000142F1BD0BAEB142F18D0B0EB142F15D098
:10278000B1EB142F12D0B2EB142F0FD0B3EB142FE8
:102790000CD0BCEB142F09D0BBEB142F06D00A4889
:1027A000B0EB142F02D0B8EB142FD7D1082120465C
:1027B000FEF78AFBCDE90076B0EE480A7421149B3F
:1027C0000A9AC8E7007C0040240240000A0A01215E
:1027D0009140C943018070470029818902D041F4AA
:1027E000005101E021F40051818170472DE9FF4F34
:1027F0000E462DED020B0446584A59485949DFF858
:102800006881DFF86891DFF868A1DFF868B1944269
:102810002DED028B85B0B0EE408ADDE9167504D14E
:1028200001211020FEF7E2FC2EE0844204D10121B8
:102830004804FEF7CFFC06E08C4204D10121880455
:10284000FEF7C8FC06E0444504D10121C804FEF7A8
:10285000C1FC06E04C4504D101210805FEF7BAFC95
:1028600006E0544504D101212020FEF7BFFC04E01E
:102870005C4502D10121880704E03F48844203D12E
:1028800001214005FEF7A6FC722E3BD0522E39D016
:10289000742E39D0542E37D05FF00C00ADF80A00FA
:1028A0000B9800900C9A00204FF48051092A2DD0EB
:1028B000ADF804006F2F2CD04F2F2AD0652F2BD0CE
:1028C000452F29D0ADF8080018EE102AB2F17C5F30
:1028D0002CD018EE101AB1F17F5F22D018EE101A2A
:1028E000B1F1804F20D0ADF80600722D21D0522DCD
:1028F0001FD0632D20D0432D1ED0612D1FD0412D20
:102900001DD01EE00420C9E70820C7E7ADF8041079
:10291000D0E74FF4C06201E04FF48062ADF80820C8
:10292000D2E74FF4405101E04FF40051ADF80610EA
:10293000DBE74FF4807004E04FF4007001E04FF4E7
:102940004070ADF80C006946204600F057F805B01D
:10295000BDEC028B06B0BDE8F08F00000010014016
:102960000044004000480040004C0040005000403F
:102970000014014000780040007C0040002A828A58
:1029800001D00A4300E08A438282704730B501F0EB
:102990001F0201240025C1F3421304FA02F2012BA5
:1029A0000FD0022B0FD0838A4FEA112100881342E7
:1029B00004FA01F400EA040001D000B10125284620
:1029C00030BD8389F0E7038AEEE710B5C1F3421307
:1029D00001F01F040121A140012B07D0022B07D0D9
:1029E0001430002A026805D00A4304E00C30F8E7EE
:1029F0001030F6E78A43026010BD00007FB5044640
:102A0000008A0D4620F44051E88808432082A089BE
:102A100041F20C618843A9882A8911436A890243DB
:102A20001143A181A08A20F44071A8890843A082A3
:102A30006846FEF7E7FB1A48844202D019488442F0
:102A400001D1039800E00298A189090400EBC001BC
:102A500001EB0010296801D5490000E08900B0FBB6
:102A6000F1F26420B2FBF0F109010B096FF01805D7
:102A70006B4302EB8302A3891D044FF0320306D59A
:102A800003EBC202B2FBF0F000F0070005E003EB3D
:102A90000212B2FBF0F000F00F00084320817FBD6E
:102AA00000100140001401408088C0F30800704706
:102AB000C1F3080181807047FDF78EFC32244FF48A
:102AC0008045074EFEF73AF8B0FBF4F104FB110025
:102AD0000028F7D129463046FEF70AFBF2E700004E
:102AE000001402404FF04070E1EE100A7047000001
:102AF000102B00080000002018000000E80100086A
:102B0000282B000818000020F81800000402000814
:102B100000000000000000000000000001020304AB
:082B2000010203040607080985
:04000005080001AD41
:00000001FF
